:020000040800F2
:10000000005000203D2D0108DD2D0108C9F6000833
:10001000DD2D0108DD2D0108DD2D010800000000A7
:10002000000000000000000000000000DD2D0108BD
:10003000DD2D010800000000DD2D01082DF5000870
:10004000DD2D0108DD2D0108DD2D0108DD2D010864
:10005000DD2D0108DD2D0108DD2D0108C5F30008A7
:10006000DD2D0108DD2D0108DD2D0108DD2D010844
:10007000DD2D0108DD2D0108DD2D0108DD2D010834
:10008000DD2D0108DD2D0108DD2D0108DD2D010824
:10009000DD2D0108DD2D0108DD2D0108C1F300086B
:1000A000DD2D0108DD2D0108DD2D0108B3F3000869
:1000B000A9F300089DF3000891F30008C5F60008B5
:1000C000BDF60008C1F60008B9F60008DD2D0108EC
:1000D000DD2D0108D5F4000879F4000815F40008B6
:1000E000DD2D0108DD2D0108DD2D010800000000D7
:1000F0000000000000000000000000000000000000
:0C01000000000000000000005FF808F1A3
:100110002DE9F04FAF4C9DB023680490062B01F2FF
:10012000C486DFE813F007001F001F001F00C20491
:100130004306CE0AA84B1B682BB9A84B4FF47A7024
:100140001B68584300E09847049E726C831A2AB1DA
:10015000F2691A44F261326A01323262049FA04AA3
:100160007864138027689B4D012F00F0BE80022F1A
:1001700000F0BF81002F40F079849A48291DD0F803
:100180008030984705F10408002800F08A84964BD7
:1001900005F1540A1A889946002A00F098800C3517
:1001A0003E46B9F800B0914BBBF57A7FCDF814B05C
:1001B00007D10A20A3F13C0100FB06110022DA510D
:1001C0000A61DA5938F906000244DA5110F02CF9C4
:1001D0002B690133012B2B6104D100236860286057
:1001E000AB602AE0D5F800C001936146CDF80CC0A1
:1001F000029010F063F8019B8346184610F014F942
:100200000146584610F018FADDF80CC00146604669
:1002100010F056F8029A034619466860104601939A
:1002200010F04CF80146584610F052F9A96810F049
:1002300047F8019BE8602B60A860059A0023012A1B
:1002400028F806302AF8063034D12869012807DD5D
:10025000013810F0E9F80146E86810F0EDF900E027
:10026000002013F09BF9624B834693F8660190B12E
:1002700010F0DAF80146584610F0E6FA58B14FF49B
:100280007A73A9F800300023E36123636364236574
:10029000E364A3640EE0554B4FF47A72FB580A20D6
:1002A00003F5FA7393FBF2F32AF806300F210122CB
:1002B00009F028FA0236062E07F1040705F11405A5
:1002C0007FF46FAFB9F80030013BA9F8003000238C
:1002D00038F803003AF803103E4A411A28F8031090
:1002E0000233062BF4D101F0D0BD3E4E05F15A0188
:1002F000D6F8983030469847B0465A35002800F076
:10030000D1833C4F3A4E3888002844D000231A4607
:10031000DFF8ECC0B0F5C87F04BF00214CF8021034
:1003200035F903905CF80210DFF8A8E049444CF876
:100330000210002106EB0309E9520233062BDFF815
:10034000B0C0A9F86A1102F10402E1D101281FD15D
:10035000DEF860304FF4C872C83393FBF2F3ACF8A8
:100360006A31DEF86430C83393FBF2F3ACF86C31D9
:10037000DEF86830C83393FBF2F2B8F89C30D21A3A
:100380001D4BACF86E219985D985014609F02AFAF2
:100390003B88013B3B80B268154B520740F192808D
:1003A00016490A888946322A2CD1B3F86A11A4F872
:1003B0006C10B3F86C11B3F86E31A4F86E10A4F899
:1003C00070300D4B998DDB8DA4F87210A4F8743049
:1003D0001AE000BFE8170020FC090020402400209C
:1003E000522B002018000020C617002030180020D3
:1003F00080240020462B0020082A0020DC1A002040
:1004000048180020002A3DD000231946322AB04F58
:1004100004BF0020785035F903E0785870447850D4
:10042000002006EB030EE8520233062BAEF86A01F9
:1004300001F10401EAD1012A1FD1A64BA64D187083
:10044000A64B1A702B780A2B04D9A54807F0D8FAC6
:100450000A232B70B4F86C30B4F87220A6F86A3115
:10046000B4F86E30A6F86C31B4F87030A6F86E317E
:100470009C4B9A85B4F87420DA85B9F80030013BBA
:10048000A9F80030984A1378E3B10023A16F1370E4
:10049000322291FBF2F1A6F86A11E16FB8F89C00E4
:1004A00091FBF2F1A6F86C11D4F8801091FBF2F2F6
:1004B000121AA6F86E2101208A4A01469385D38537
:1004C00009F090F9B4F85A20B6F86A310227D31A25
:1004D000A4F85A30B4F85C20B6F86C31D31AA4F8FA
:1004E0005C30B4F85E20B6F86E31D31AA4F85E30F2
:1004F000D8E27E4B7E4F1B689847D5F8843006467D
:10050000C31A184605930FF08BFFD7F88C1006908E
:100510000FF0DEFF734BC5F8846093F8319000262E
:1005200007903546B3461F46DFF8E48138F90500E9
:100530000FF07AFF07990FF0CBFF10AB9851B9F18C
:10054000000F2CD048460FF06FFF01464FF07E5051
:1005500010F072F80346194608F1840A4FF07E50F5
:1005600001930FF0ABFE56F80A100FF0B1FF08F13F
:100570005608024638F9050002920FF055FF019B1C
:1005800019460FF0A5FF029A014610460FF098FE9B
:100590004AF8060010F062F9564B585305E008F18E
:1005A000560835F80820534BEA52524B0436EB5E9E
:1005B0000235062D03FB03BBB6D14D4E642303FB6E
:1005C0000BFBB6F89C304C485B439BFBF3FBABF159
:1005D000490B10A91FFA8BFB02F0D6FABBF13B0FB7
:1005E00040F29A80454BD4F89C50B3F900000FF0CC
:1005F0001BFF014628464FF0010610F025F900B90F
:1006000006463F4B2946D4F898005E7312F026FE4A
:100610000646C4F8A000D4F89400D4F89C9000F1E9
:100620000045D4F8980001460FF052FF4946804635
:1006300048460FF04DFF014640460FF041FE12F0D4
:10064000ADFF0146284612F009FE0546C4F8A40095
:1006500030460FF0A9FA1CA3D3E900230FF0F8FAF3
:100660000FF0D8FD12F02CFDDFF8A880A8F80000EC
:1006700028460FF099FA14A3D3E900230FF0E8FA03
:100680000FF0C8FD12F01CFD1E4BA8F802001B68FD
:100690001B0740F18E8010A91B4802F075FA1B4B16
:1006A0004FF0000AB3F864010FF0BAFE4FF07E512C
:1006B00081460FF005FE01464FF07E500FF0BCFF63
:1006C000804657E0AFF300803B597E90A9E7814018
:1006D00060180020DE1A002068010020D81A0020CF
:1006E00046820108082A0020D91A0020FC090020AF
:1006F00018000020361C00207C180020900B0020E1
:10070000ED0C0020880B0020901800208024002091
:10071000EC17002058190020B14B4FF00008B3F837
:1007200062010FF07DFE4FF07E5106460FF0C8FDCE
:1007300001464FF07E500FF07FFF0546DFF8D49260
:10074000304659F818100FF0C3FEA64B824633F915
:1007500008000FF069FE014650460FF0B1FD294632
:100760000FF0B6FE49F8180008F10208B8F1060FBC
:10077000E4D137E7DFF8A0B248465BF81A100FF073
:10078000A7FE994A034632F90A0001930FF04CFE86
:10079000019B014618460FF093FD41460FF098FE6D
:1007A0004BF81A000AF1020ABAF1060FE2D15846D4
:1007B0003DE0DFF8389210A9484602F0E5F9D9F893
:1007C0000000D9F804B001460FF082FE5946824677
:1007D00058460FF07DFE014650460FF071FDD9F8E6
:1007E00008808246414640460FF072FE0146504660
:1007F0000FF066FD12F0D2FE002180460FF0FCFFE4
:10080000A0B9D9F8000041460FF016FF4146C9F8DB
:100810000000D9F804000FF00FFF4146C9F80400AA
:10082000D9F808000FF008FFC9F808006F4802F077
:1008300063FA6F4B6F49188006980FF049FE6C4BB6
:1008400005F10045804606F10046B3F90000149515
:1008500013960FF0E9FD00F100400FF0A5F95EA33B
:10086000D3E900230FF0F4F90FF0D4FC5D4D15909F
:10087000B5F900000FF0D8FD1690B5F902000FF0A1
:10088000D3FD1790B5F904000FF0CEFD13A9189011
:1008900016A802F079F9584B93F84830012B17D17C
:1008A000564B5B7873B9D4F8B430402093FBF0F02A
:1008B000181A0FF0B9FD18990FF002FD0FF0CEFFD6
:1008C000C4F8B400D4F8B430402093FBF0F002E058
:1008D0004B49B1F89C000FF0A7FD014618980FF0A6
:1008E000EDFC484B1890196840460FF0E9FC0146B2
:1008F00040460FF0A1FED4F8B86080463146189803
:100900000FF0DCFC014640460FF0E2FD01463046A8
:100910000FF0D6FC0646C4F8B8001698D4F8BC8090
:1009200012F0CEFB97F8331002F062FA4044C4F89C
:10093000BC001798D4F8C08012F0C2FB97F83310AF
:1009400002F056FA4044C4F8C0003046D4F8C480DF
:1009500012F0B6FB97F8321002F04AFA2A4B059EC5
:100960001A68404432441A60D4F8C830274D013325
:10097000C4F8C83097F8B630C4F8C400002B73D060
:10098000D5F89400D5F8988001460FF0A1FD4146B6
:10099000074640460FF09CFD014638460FF090FC9C
:1009A000D5F89C600746314630460FF091FD014670
:1009B00038460FF085FC12F0F1FD014630460FF08D
:1009C0003BFE134906460FF02BFF38B30023A5F872
:1009D000CC3049E0AFF30080399D52A246DF913F11
:1009E00080240020361C00207C19002058010020A3
:1009F000D61A0020BD378635082A0020ED0C0020CD
:100A0000180000209C0B00204C2B0020E817002031
:100A10008FC2753C7C18002090180020304612F0E0
:100A2000CBFB9F4B19680FF053FD12F049FBB0F55B
:100A3000617FA8BF4FF461700FF0A4F896A3D3E9CB
:100A400000230FF02FFA0FF0E5FB12F077FB954B28
:100A5000064693F8B6000FF0E7FC31460FF038FD7C
:100A600012F02EFBA5F8CC0003271BE08E4B5B7920
:100A7000012B8E4B0DD1B5F9CE10B5F9082002EB44
:100A80004102032192FBF1F292B29A80A5F8CE20A6
:100A900001E02A899A80A28804271A80E2885A8075
:100AA00000E00746276000F008BE814B814A197CB0
:100AB0007C4BA1B9B2F906101A8D91423CDBB1F51D
:100AC000FA6F93F8264007DA891A4C43A2F5FA62C6
:100AD00094FBF2F4643430E0C4F164042DE0B2F924
:100AE00006101A8D91420FDB734AB2F9061093F883
:100AF0002620914208DDB1F5FA6F02DA891A4A43DD
:100B00005212C2F1800200E080226C49B1F9021059
:100B1000142909DD93F82600B1F5967FA8BF4FF49C
:100B200096714143A2EB212293F82640C4F1800440
:100B3000A242A8BF144600E064245B4A93F8B05078
:100B4000B2F8987192F95C2193F8B160524293F82F
:100B5000253092B2002153480692059707930A4622
:100B6000544BDDF8149031F903B040F2E637C9EB8D
:100B70000B0303F2F31EBE4503D8002BB8BF5B4244
:100B800001E04FF4FA73022ADFF82CC12ED025B110
:100B9000AB42CCBFC5EB030300236427DFF82491ED
:100BA00093FBF7FE09EB4E086FF0630A0AFB0E3A5F
:100BB000B8F8D08009EB4E0EBEF9D2900FFA88FE3D
:100BC000CEEB090E0EFB0AFE9EFBF7FEC6442CF888
:100BD00001E090F823E003FB0EFE394B9EFBF3F39C
:100BE0003B449BB2634393FBF7F716E026B1B34255
:100BF000CCBFC6EB03030023DDF818A0DDF81CE032
:100C000003FB0AF7002BB8BF5B4203FB0EF3ACF803
:100C100004702B4F93FBF7F76437224B90F80B804F
:100C2000134493F801C007FB08F807FB0CFCDFF83E
:100C300098E064239CFBF3FC02F80EC098FBF3F8E9
:100C40000EF1030C02F80C8090F815C00EF1060EA0
:100C500007FB0CF797FBF3F302F80E30059B164FDA
:100C60009B4502DA7B5A5B427B520132032A01F137
:100C7000020100F101007FF473AF0E4BB3F90620BF
:100C8000094BB3F89A319A4220DBB2F5FA6FA8BF4C
:100C90004FF4FA621BE000BFA2EB0FE5DD169640B1
:100CA000980B0020082A00208024002076190020BC
:100CB000ED0C0020B80D0020F21A00205819002079
:100CC0000CFEFFFFE8170020C61800201A46D21AB3
:100CD0004FF47A714A43C3F5FA63B2FBF3F3642528
:100CE0008F4A93FBF5F102EB41006FF0630606FBC0
:100CF0000133B0F8E80002EB4101B1F9EA6001B25A
:100D0000711A4B4393FBF5F5864B28445B7A864C6E
:100D1000F8809046002B44D0844BB3F90000844BFC
:100D2000B3F90030C01A0EF02DFF7BA3D3E90023E6
:100D30000EF08EFF00227F4B0FF0B4F80FF06AFA2E
:100D4000054612F087F90646284612F0F7F90546DF
:100D5000B4F902000FF068FB0746B4F900000FF089
:100D600063FB314681460FF0B3FB29468246384685
:100D70000FF0AEFB014650460FF0A0FA0FF06EFDEB
:100D80003146208038460FF0A3FB294606464846E8
:100D90000FF09EFB014630460FF092FA0FF05EFD19
:100DA00060800523C8F8003000F087BC624BDFF894
:100DB000A4911A6812F0080539D05B4988880F465B
:100DC00000F145039BB28A2B5C49584B2DD8554EF8
:100DD00096F805E0BEF1000F27D0B3F800E00B88CD
:100DE000767BC3EB0E0189B28BB20FFA83FE1EF144
:100DF000B30FBCBF01F5B4739BB219B2B32950490C
:100E0000C4BFA3F5B4739BB291F85C117EB149B233
:100E100049424B4399F809101BB24B436FF01D0137
:100E200093FBF1F31844B88001E01B880B8057074F
:100E300040F19D803B4B9979002900F098801E7C01
:100E4000394B002E40F08A8099F8B3003D4F99F855
:100E5000B21068B3B3F806E0B7F900000FFA8EF7E6
:100E6000C0EB070CBCF1000FB8BFCCF1000C8C45F7
:100E700010DD8742DFF8E0C0C8BF4942CCF800600F
:100E80001FFA8EFE4FF00106C8BF89B284F80061D8
:100E900071443FE094F8001131B12B490F682B49A0
:100EA0000F601F4981F8006129490968084426E05C
:100EB000B7F90060B3F90670BF1B87EAE77EAEEBB7
:100EC000E77E8E450ADD022197FBF1F70121C4F888
:100ED000047184F8081184F800110DE094F8007191
:100EE0000F494FB1184F81F80801D7F800E0174FAC
:100EF00081F80001C7F800E0154908683044104E39
:100F0000B6F84011B6F84261884203DBB042B4BF84
:100F100001463146D9802AE0182D4454FB2109406E
:100F2000E8170020ED0C0020F21A0020D61A00204D
:100F3000061B002000806640880B0020041B002058
:100F400080240020F01A0020EC1A0020E81A00206B
:100F5000001B0020082A0020FC1A0020974958880E
:100F600091F9A0619649096806FB0101598099F839
:100F7000B63053B1934BD97809B91B792BB1924B49
:100F8000B4F8CC00D9880144D980960640F1928308
:100F90008C4BDE7905961EB91A7A002A00F08583FB
:100FA0001B7BDFF820B2002B00F07F83874B1F886C
:100FB00038B20FF039FA86490FF08AFA064612F075
:100FC000BDF88046304612F045F89BF810300646D2
:100FD000002B40F0858099F815917E4F7E4DB9F138
:100FE000000F4CD0DFF81CA2B7F90200BAF80230AB
:100FF000C9F100041FFA83FB1BB2C01A02F0BAF851
:10100000A04203DB4845A8BF484600E02046BAF8A6
:1010100000308344B7F900009AB21BB21FFA8BFB71
:10102000C01AAAF802B0029202F0A4F8A042029AF2
:1010300003DB4845B4BF04464C461444A4B2AAF8A6
:1010400000400FFA8BF00FF0EFF9074620B20FF0D7
:10105000EBF93146044638460FF03AFA41468146EC
:1010600020460FF035FA014648460FF027F95B4954
:101070000FF0E2FA0FF0F2FB288038461DE0B7F9D6
:1010800002000FF0D1F98146B7F900000FF0CCF95A
:101090003146044648460FF01BFA414607462046B3
:1010A0000FF016FA014638460FF008F94B490FF0D9
:1010B000C3FA0FF0D3FB2880484641460FF008FAE8
:1010C0003146074620460FF003FA014638460FF036
:1010D000F7F842490FF0B0FA0FF0C0FB6880E9E280
:1010E0003F4B404A1888404B9BF813B0DB8899F877
:1010F000369106933D4BD3F808803D4B1FFA88FA92
:101100001E889368CAEB0606B6B2CAEB030A1FFA3A
:1011100086FC1FFA8AFABBF1000F06D00FFA8CF397
:101120004B45BCBF08EB090393600A2300B2584348
:101130000193CDF80CC002F01DF8019BDDF80CC046
:1011400090FBF3F000B27DB190FBF3F338B29AB2AA
:10115000C31A002BB8BF5B420A2B08DD254B1B8846
:10116000C82B88BF174602E090FBF3F7BFB2224DB1
:101170002248D5F80C316422CAEB060193FBF2F247
:101180000668D5F8143189B2F31AC72BA5F81021D7
:10119000A5F81211824640F26C820368184EC5F819
:1011A0001431B6F82C3179BBA5F81831BBF1000F1A
:1011B00040D0044B0021D9743CE000BF80240020C3
:1011C000001B0020ED0C0020F21A0020D61A00208F
:1011D00035FA8E3C3A1B0020301B002000002041D5
:1011E00082190020181B0020B80D00200C1B0020C5
:1011F000241B0020741C0020E8170020402400203D
:10120000082A0020361B0020B6F8300109B200FB86
:101210001130B6F82E31B6F82AE1984203DB70455A
:10122000B4BF03467346A5F81831BBF1000F01D0D7
:101230000029BEDAD71BB8B2059F9E499E4BE7B185
:10124000CA7C7AB1B6F824216FF009077A43A5F871
:101250001221B6F82A21A5F818210FFA8CF2182AC3
:10126000D8BF00201A88312A07D80FFA8CFCCC4549
:1012700003DD924A08EB09079760897C8D4A49B1E2
:101280001988092906D800215170D1748B4A08F1B8
:10129000050191601B88092B08D800B20FF0C4F833
:1012A00087490FF015F90FF0D9FA80B24FF06409B1
:1012B00000B209FB00F001F05DFF90FBF9F01FFAAE
:1012C00080F90FFA89F3002BB8BF5B42DAF800000F
:1012D000AA2BC8BF4FF0AF09D5F81C31DFF8048244
:1012E000C01A0FF09DF877490FF0A6F9DAF8003030
:1012F000B5F812A1C5F81C310AF103039BB2062B05
:10130000074606D8D8F8000039460FF0E1F8C8F8CB
:1013100000000A2202FB0AF292B293B2A4F8123140
:1013200018B2029201930FF07FF8D4F8241182468C
:101330000FF0CEF839460FF0CBF8D8F800100EF0C9
:10134000BFFF0FF08BFA6049B0F5FA7FA8BF4FF4EA
:10135000FA708842B8BF08460FF066F85B49029AF7
:101360008346C8F800000888019B121A92B20B80CD
:1013700013B2002BB8BF5B42642BC8BF0022544B92
:1013800003F10A01988823F8020F8B42FAD15149E0
:1013900000230A811846CA5A023310440A2B80B22D
:1013A00001D080B2F7E700B20FF03EF8D5F828116F
:1013B0000FF08EF839460FF03FF90FF04FFA1FFA91
:1013C00080F8D5F820115046A5F830810FF080F84C
:1013D0000FF044FA00B20FF027F859460EF070FFF4
:1013E0000FF03CFA1FFA89F909F103039BB2062BAF
:1013F0001FFA80FA08D8DFF8F0B03946DBF80000B1
:101400000FF066F8CBF800004FF00A0C0CFB09F95E
:101410001FFA89FC1FFA8CF210B20292CDF80CC0B0
:101420000FF002F8DFF8C090D5F8381183460FF0BE
:101430004FF839460FF04CF8D9F800100EF040FF85
:101440000FF00CFA204BB0F5FA7FA8BF4FF4FA70FA
:101450009842B8BF18460EF0E7FF0346C9F80000EF
:101460001D48DDF80CC00188029AC1EB0C0189B25D
:1014700002800AB2002AB8BF5242642AC8BF0021C3
:10148000164A02F10A00B2F804E022F802EF8242A2
:10149000F9D1134A4FF000091181484632F809107A
:1014A00009F102090844B9F10A0F80B21ED080B2D6
:1014B000F4E700BFED0C0020761C0020181B002074
:1014C000CDCCCC3D00007A440CFEFFFFC01B0020B9
:1014D000C41B0020C61B0020C21B0020D01B002004
:1014E000D21B0020BC1B0020B81B002000B20193BF
:1014F0000EF09AFFD4F83C110EF0EAFF39460FF0D7
:101500009BF80FF0ABF987B2D4F83411A4F844710A
:1015100058460EF0DDFF0FF0A1F900B20EF084FF87
:10152000019B0FFA8AFA19460EF0CAFE0FF096F9DF
:10153000B6F924316FF009014B439AFBF9FA0FFA1F
:101540008AFAB6F926119A4580B209FB01F903DB44
:10155000CA45B4BF53464B46B04C02B2B4F9201151
:101560006FF0090048434FF00A0E984492FBFEF2D8
:10157000AB4B1FFA88F88242A3F8028004DB0EFB13
:1015800001F08242B8BF1046BFB238441880B4F9A7
:1015900022016FF0090141438A4204DB0A214143E1
:1015A0008A42B8BF11469F4A0F44507C9F80114623
:1015B00058B194F828210FFA88F85242904503DB7D
:1015C000C845B4BF42464A465A80C97C964A69B962
:1015D00096F83261B2F900006421B6FBF1F15E8841
:1015E0000028B8BF404201FB10615980B2F90200E7
:1015F0000EF01AFF4FF07C510EF06AFF0FF02EF93B
:101600008A4BB0F5E17FA8BF4FF4E1701A88B5F8B6
:101610001871A2F5E17320EAE0709BB2381A642BCE
:1016200087B2834E0CD910B2C0F5FA700EF0FCFEF2
:1016300080490EF04DFF0FF011F9338818443080C7
:10164000B6F90030B4F82E21B3F5FA7FA8BF4FF4F5
:10165000FA7323EAE37333803B441BB29342B4F83A
:101660002A1103DB8B42B4BF1A460A46724BA3F819
:1016700018216C4A6A4BD17809B9117921B1927A53
:1016800052B1684A927C3AB9DDF818900022A5F868
:1016900018915A801A809A80684AB5F81811D1803A
:1016A000998893880B44938004E05D4B00221A8054
:1016B0005A809A80604B06221A6004980DF0F0F868
:1016C000F3E35F4BDB6898475E4B93F80080B8F11B
:1016D000030F14D9594BB4F94A11B3F904006FF050
:1016E00063030028B8BF40421B1A994204DB00F193
:1016F00064038B42A8BF0B46A4F84A310BE0B8F153
:10170000010F08D8504B5A791946013AD2B2172A1C
:1017100000F2D481A3E04148B4F848A190F90E1139
:10172000B4F846B1B4F94A4149424C433D49434BB0
:101730000A7C90F81E01897ACDF810A0DE88B3F8F3
:1017400004A0424D0694CDF814B007920890099178
:1017500000244445D6D230B20EF066FE2968834696
:101760000EF0B6FE049B844618B2CDF80CC00EF005
:101770005BFEA9680EF0ACFEDDF80CC001466046C9
:101780000EF09EFD059A844610B2CDF80CC00EF006
:101790004BFE69680EF09CFEDDF80CC00146604609
:1017A0000EF08EFD84460698CDF80CC00EF03CFE7F
:1017B000E9680EF08DFEDDF80CC0014660460EF0C3
:1017C0007FFD0FF04BF8DFF88890079B670029F842
:1017D0001400002B40D0089A002A3BD0099B002B14
:1017E0003AD00FFA8AF00EF01FFE84462046CDF85C
:1017F0000CC00EF015FE4FF07C510EF05FFDDDF8D1
:101800000CC0014660460EF063FE014658460EF0DD
:1018100055FD0FF023F829F807001DE0082A0020E5
:10182000301B0020ED0C002058190020741C0020F3
:10183000C41B0020CDCCCC3DE8170020F21A0020BC
:1018400058010020EC29002080240020BC0B00203F
:10185000EE29002027F809600134103579E70123CB
:1018600003FA02F2B94B13406BBBD00640F126815C
:10187000B74BB84893F9BE20B0F90240B0F9000068
:101880005443322294FBF2F4B3F8BC20A4B211B258
:101890001129DCBFB04A32F81120B04922440A8035
:1018A00093F9C820B3F8C6305043322290FBF2F0CF
:1018B0001AB2112AD8BFA84B80B2D8BF33F8123061
:1018C00003444B80FAE0A64B9B7A43B1A54B1A88A0
:1018D000ADF858205A889B88ADF85A200AE0A24BF0
:1018E000B3F84621ADF85820B3F84821B3F84A318F
:1018F000ADF85A20ADF85C309C4B974A1B88ADF888
:101900005E30B1F898311189C91AADF8601051896B
:10191000C91AADF862109189C91AADF86410D1895D
:10192000C91AADF866101188C91AADF86810518847
:10193000C91AADF86A109188D288C91AD31AADF8BD
:101940006E30ADF86C100023844900225A520233E5
:10195000102BF9D1864B15461B7804931346DDF8FE
:1019600010A0554500F08F80824E834C91198879E4
:1019700020B1824F3844007D00287ED0B05C744E88
:101980000A2707FB0067B7F8BAE0B7F8B86091F923
:1019900004B0C6EB0E06B6B206FB0BFB642791F84B
:1019A00001809BFBF7FB4FEA560C91F803E0CCEB70
:1019B0000B0B4FEA48070DF170091FFA8BFB91F8EA
:1019C00005A04F44BEF1000F03D137F8187CE75251
:1019D0001BE0E45E37F9187CDFF89C91BC4209DA21
:1019E000A644A64503DB7745B4BF3C46744629F8B8
:1019F00003400AE009DDCEEB040EBE4503DBA6453D
:101A0000B4BF7746274629F80370DFF844E14FF06A
:101A10000A0909FB00EEBEF8C0E091F902104EFA87
:101A200008F818F0010FDFF850814C4C33F90880AA
:101A30000FFA8BFB01FB08F14FF0640891FBF8F102
:101A40000CBF4FF0010E4FF0FF3E594534F81070B7
:101A50001FFA8EFE0CDB4FFA8AFB06FB0BFB9BFB8F
:101A6000F8FBCCEB0B0B0FFA8BFB8B45A8BF8B461F
:101A70000BFB0E7B24F810B000E0E0520135EDB214
:101A8000023307326BE73E4B314A03F1100492F9FF
:101A9000BE10B3F902500A324D43642195FBF1F5B3
:101AA000B2F8B210ADB208B21128DCBF2A4931F841
:101AB0001010294423F8021FA342E8D1314B9A6841
:101AC0009A4612F0200F224B3BD0B3F8BC00234CB7
:101AD00002B2112AD8BF20492546D8BF31F81200DA
:101AE000B3F8C61020800AB2112ADCBF1A4931F8B7
:101AF00012101A4A0C4669802049097A09B393F8F2
:101B0000101193F9C86011F0020F93F9BE701149DA
:101B10003AD0B1F90050B1F902106E437F424F4301
:101B20004FF0320E96FBFEF66FF03101B6B297FB26
:101B3000F1F1314497FBFEF708443E4410803444F1
:101B400054800F4A024902F1100532E089209800C2
:101B5000082A002058190020B80D00209401002008
:101B6000ED0C0020F21A0020E8170020EE290020DA
:101B70007C0C00207D0C002034190020B41A0020B9
:101B80009201002080240020B1F90250B1F9001028
:101B90006F434E43322597FBF5F7384496FBF5F536
:101BA00010802C44CCE722F8020FAA4201F10A016E
:101BB0000CD0B2F90240B1F9B800B1F8BA60844271
:101BC000F1DB30B2A042A8BF2046ECE793F8103119
:101BD000590705D49A499B4B0C881B7801220FE0CA
:101BE000994B9A4D9E7D0024043EA0190134C0B249
:101BF00035F8021FE4B201F0F8FB042CF5D1E9E757
:101C00009A4208D231F9120024B2A042A8BF044679
:101C1000A4B20132F4E78E4ABAF84251107C291B73
:101C200005908C4889B2B0F90600BAF8987106910F
:101C30000490DAF808108848BAF840C101F48046E8
:101C4000B0F9EAB001F010010797B0F9EC70BAF8FA
:101C500046010E911FFA8CF1BAF844E108900A91FE
:101C600050787E49BAF848819AF80590BAF89AA156
:101C70005B000D960C901FFA8EF64989507C0F93ED
:101C8000CDF800B0CDF824A00B9600230F9EB342F0
:101C90006ED022B2AA4208DD059A32B9684A069E81
:101CA00033F802A0B24423F802A00D9E644A002E2D
:101CB00036D0DDF810A0DDF81CB0DA4532F903A00B
:101CC00015DDC24503DBAA45A8BFAA4600E0C2460F
:101CD000B9F1010F22F803A041D1009A09B2914253
:101CE00003DBB942A8BF394618E0009916E0F24577
:101CF00004DB089EB245A8BFB24600E0F246B9F147
:101D0000010F22F803A02AD109B2B94205DBDDF8A0
:101D100000A05145A8BF514600E0394689B21EE0F7
:101D200032F903B0E34503DBAB45A8BFAB4600E0A7
:101D3000E34622F803B002EB030ADDF810B0099A7B
:101D400093450BDA0E9E26B9DDF828B0AAF800B04C
:101D500005E00B98AAF80000012000E000200C9A92
:101D600022B93F4A985A364A9852012002338DE7E9
:101D7000354A3A4C364B6181517D58741A460029D8
:101D80007DD0384E7379013B172B6DD8DFE803F017
:101D90000C6C6C186F6C6C1E6C6C6C6C6C256C6CC9
:101DA0006C6C6C18256C6C342B4B93F80F3113B1A1
:101DB0000020618961E050780028F9D101465CE09B
:101DC0000020218901F011FB0120F2E70020E188C9
:101DD00001F00BFB012021894FE00020E18801F098
:101DE00004FB0120218901F000FB0220618901F040
:101DF000FCFA0320A18940E00020E18801F0F5FA17
:101E00000120218901F0F1FA0220618901F0EDFA47
:101E10000320A18901F0E9FAB368104DDA072ED545
:101E20000420298801F0E1FA0520698801F0DDFA33
:101E30000620A98801F0D9FA0720E9891DE000BF32
:101E4000EE290020EC290020A40B0020BE0D00206C
:101E5000ED0C0020B80D0020082A0020940100207D
:101E60005E19002080240020B3689B0607D500205F
:101E7000218801F0BAFA6188012001F0B6FA00F079
:101E800065FE0C4B00221A600FE00B4B1B6813F031
:101E9000020307D1A2F85A30A2F85C30A2F85E30F3
:101EA000FEF7E2BD0127FEF7FDBD00201DB0BDE835
:101EB000F08F00BFE8170020880B0020AFF30080F0
:101EC00010B5C468A36A43B1616809B1206A03E030
:101ED000A26912B1206A0F499847E36ABBB1A168B1
:101EE00011B1206A984712E0626982B1206A0A49FA
:101EF000984760B194F824304BB9012384F824301A
:101F0000E36823B12046984708B984F824000020EC
:101F100010BD00BF89D6000895EF000870B5174CBA
:101F2000174D002B0CBF2B46234672B1013A94008B
:101F3000002221FA04F606F00F0601329E5D851894
:101F4000043C05F8016CF4D515E089B101251C2489
:101F500021FA04F606F00F0605B126B19D5D855401
:101F60000132002500E00125043C261DF0D102E0ED
:101F7000302303700122104670BD00BF8692010815
:101F80009792010830B562B1531E013821FA03F46B
:101F900004F00104303413F1FF3300F8014FF5D29F
:101FA00015E089B101241F2321FA03F505F001058D
:101FB00004B125B1303585540024013200E00124FC
:101FC00013F1FF33F0D202E03023037001221046F8
:101FD00030BD074B9B788342064B02D8B3F898017B
:101FE0007047184490F88221034B33F82200704761
:101FF000000E002080240020E00D0020034B184438
:1020000090F88221024B33F8220070478024002090
:1020100098200020034B184490F88221024B33F89B
:102020002200704780240020600E0020034B1844DB
:1020300090F88221024B33F8120070478024002070
:10204000340F002010B5094A094913688C681268DA
:102050009342F8D1074A106811684FF47A725043DE
:10206000001BB0FBF1F002FB030010BD3C2400207C
:1020700010E000E0080B0020034B4FF4805208B141
:102080001A6170475A61704700080140034B4FF4D2
:10209000805208B15A6170471A61704700080140C8
:1020A000014B33F810007047B80D002007B50F4BF7
:1020B00002A941F8040D18684368984703680C4A60
:1020C000B3F5967FC8BF4FF0FF330193019B1360B8
:1020D000084B18680DF056FD0022074B0DF0E2FE8C
:1020E0000EF098F803B05DF804FB00BFE812002082
:1020F0004C0100208C2200200000594008B5094BFB
:10210000B0F5967FC8BF4FF0FF301860064B1868D7
:102110000DF038FD0022054B0DF0C4FE0EF07AF8EC
:1021200008BD00BF4C0100208C2200200000594057
:10213000034B184490F88221024B33F81200704789
:102140008024002054230020014B0D221A70704778
:102150006801002003789B070AD5826C831883F8F6
:102160005811C36B0132B2FBF3F103FB11238364FB
:102170007047037813F001030BD0426C036C9A4252
:1021800005D09CBF806B1218D31AD8B270470020BC
:10219000704718467047037810B513F001030446E2
:1021A0000FD0FFF7E6FF68B1236CE21892F85400F5
:1021B000A26BC0B2013A934234BF013300232364BF
:1021C00010BD184610BD826CC06C121A50425041AE
:1021D00070470170704770B50B780446012B08D02A
:1021E000052B59D14B78012B56D8314A0020D361A9
:1021F00070BD4B782F4D022B1BD0122B4CD100F110
:102200003801D1E9000100222B4B0DF04BFE0DF0FF
:10221000E1FF2A4B00221880274BD4E910010DF072
:1022200017FD0DF0D7FF264B18802B7843F00203E3
:1022300031E090F859302349C3F30003DAB2CB728E
:1022400002B319A3D3E9002300F12001D1E9000171
:102250000DF0FEFC0DF096FF13A3D3E900231A4EF8
:102260003060D4E90A010DF0F3FC0DF08BFF174B41
:1022700094F8582070601A70D4E90C010DF0AAFF90
:10228000134B1880A36C134A1360134BE26C1A6053
:102290002B7843F001032B70064B00201A78032A99
:1022A00004BF1870012070BD00000000D01263410F
:1022B000E40F00205419002000002440741C00206A
:1022C00082190020ED0C0020281B00208423002010
:1022D000241B0020181A00201C1A0020032970B5A6
:1022E00004462B4D1BD00A2946D100F13001D1E91B
:1022F00000010022274B0DF0D5FD0DF06BFF264BA2
:1023000000221880234BD4E90E010DF0A1FC0DF042
:1023100061FF224B18802B7843F002032BE090F8EA
:1023200051301F49C3F30003DAB2CB7202B316A3D4
:10233000D3E9002300F11801D1E900010DF088FC78
:102340000DF020FF10A3D3E90023164E3060D4E92E
:1023500008010DF07DFC0DF015FF134B94F8502093
:1023600070601A70D4E90A010DF034FF0F4B188029
:102370002B7843F001032B702B780020032B02D124
:10238000034B1870012070BD00000000D0126341A3
:102390005419002000002440741C002082190020E1
:1023A000ED0C0020281B002084230020241B00208B
:1023B0000A4B10B553F8200000244268138823F01C
:1023C00001031B041B0C138083681C8003681980A5
:1023D00013889BB243F00103138010BD0C0D002045
:1023E000024B53F820301B68198070470C0D0020F9
:1023F000074BA1F57A7153F820304FF47A701A68C0
:102400009B894B4393FBF0F39BB21380704700BF53
:102410000C0D00200120704701207047054A064B33
:10242000128808B11A6100E05A61044B00221A7048
:10243000704700BFE81D0020000C01407020002004
:1024400008B502F10062084602F5F8311A460DF0AF
:10245000D1F9012008BD038B02899A4288BF83828B
:10246000838A03837047C28A838A934224BF018987
:102470005218D31A9BB2581E80B27047426B08B5EF
:1024800012B15368984708BDC069FFF7ECFFC0B2AE
:1024900008BD828AC38A9A423CBF00891218D31AA7
:1024A00098B2704770B503790446C3F34103012B1A
:1024B0000D4606D0022B33D1FFF7EBFF628B13469C
:1024C00018E0C38A808A0022834229D02169CE5C29
:1024D000A17E8E4201D1AA421FD8218901339BB22D
:1024E0008B4228BFC1EB030302F1010228BF9BB25C
:1024F00092B2E9E79D4202D913449BB2FAE78342C4
:1025000008D2E28A134422899BB29342E38205D324
:102510009B1A02E0854203D8A38AE382012070BDA2
:10252000002070BD70B5858A03890135ADB2AB421C
:1025300098BF0025C38A0446AB420E4607D101214D
:10254000FFF7B0FF18B9054B04221A7070BDA28ABC
:10255000236901209E54A58270BD00BF442B00203A
:102560000346406910B588B102685A611A69026071
:1025700002B150609A6800F10804013218619A6053
:10258000204600211A6814F0A1FB204610BD10B5AA
:1025900011E90C00A1F108040BB11A6000E002611E
:1025A00051F8082C02B15360436941F8083C0023FC
:1025B00041F8043C83684461013B836010BD09B16C
:1025C0001030E4E77047002330B5054618469AB24C
:1025D0008A4217D2EA5C80EA0220082210F4004FF7
:1025E0004FEA400418BF84F4815002F1FF3218BF53
:1025F00080F0010092B214BF80B2A0B2002AEDD1E7
:102600000133E4E730BDF0B585B001AF0D460646B5
:102610001446384600210B2214F058FB65B3002203
:10262000531C092D99B209D90A20B5FBF0F100FB22
:1026300011503030B8540D461A46F1E704A8024450
:10264000303502F80C5C14B1A14203D300242644B7
:102650001A4609E0641AA4B2002291B28C42F6D064
:102660003021B1540132F8E7013AB95C06F8011B98
:10267000002AF9D118190AE028460130331830220F
:1026800003F8012C1CB1013CA4B2002CF5D105B01B
:10269000F0BD2DE9F74F07460E469046002498F806
:1026A0000030002B00F0F980252B40F0F180002352
:1026B0001D4618F8012F642A3AD017D8392A06D8AF
:1026C000302A25D2252A40F0E5803A55E1E0622AF9
:1026D00025D000F2D980582A40F0DC8032683819C1
:1026E000131D3360116801232A4650E06C2A01D182
:1026F0000123DEE704D8662A4CD0692A18D0C9E045
:10270000752A2DD0782A35D0732A40F0C3809EE0F8
:102710000A214D43303AADB21544ADB2C9E7326833
:102720003819131D116833602A46FFF72BFC1FE090
:1027300032681168131D0029336008DA2D2304F173
:1027400001093B5549421DB1013DADB200E0A14632
:1027500007EB09002A46FFF756FF09EB000499E052
:1027600032683819131D116833602A46FFF74BFF92
:1027700004448FE0326838192BB1131D336011689F
:1027800000232A4603E0111D316011682A46FFF735
:10279000C5FBEDE7336807EB0409073323F00703B4
:1027A00003F10802D3F804A032601A68514601927E
:1027B0001046002300220DF0BDFC30B12D233B5507
:1027C0000AF1004A4FF0010B00E0834651460198A0
:1027D0000DF000FD0346194609EB0B0000220093A3
:1027E000FFF711FF584480B22E2209F80020009B09
:1027F00000F1010B18460DF0B5F902460B460198A1
:1028000051460DF071F81FFA8BFB002D08BF06250D
:1028100002460B464FF0000A104619460022214B93
:102820000DF016FA0AF1010A1FFA8AFAAA450246C1
:102830000B46F1D10DF0CEFCD94401465246484634
:10284000FFF7E1FE58441FFA80FB5C4422E0336846
:102850001A1D3260D3F80090B9F1000F1AD0484623
:1028600014F0B8FB03197E2B054607EB040003D8D0
:10287000494614F051FB05E0C4F17F0549462A465C
:1028800014F002FC2C4405E033681A1D1B6832600A
:102890003B55013408F1010801E73B5503B0BDE8A1
:1028A000F08F00BF000024400EB403B503AB53F813
:1028B000042B02A941F8043DFFF7EBFE02B05DF8DE
:1028C00004EB03B0704770B5054C05462368984784
:1028D000064623689847801B80B2A842F9D370BD92
:1028E000FC090020034B19681A68521A92B28242FE
:1028F000FAD3704740240020013A2DE9F8430C46F2
:10290000072A30D8DFE802F004080C12191E22262C
:1029100003880B8043880DE043880B80038803E025
:1029200003885B420B8043885B4203E043885B4241
:102930000B8003886380838814E003885B420B80EC
:1029400043880CE043880B80038808E003880B80F1
:10295000438803E043885B420B8003885B426380CB
:1029600083885B42A380304B1B78002B5AD1B4F98B
:1029700000000DF059FD8046B4F902000DF054FD41
:102980000746B4F904000DF04FFD284D06462968AE
:1029900040460DF09DFDE968814638460DF098FDF2
:1029A000014648460DF08CFCA969814630460DF081
:1029B0008FFD014648460DF083FC10F081FB6968ED
:1029C000208040460DF084FD2969814638460DF08F
:1029D0007FFD014648460DF073FCE96981463046AB
:1029E0000DF076FD014648460DF06AFC10F068FBDC
:1029F000A968608040460DF06BFD696980463846E5
:102A00000DF066FD014640460DF05AFC296A074666
:102A100030460DF05DFD014638460DF051FC10F0DA
:102A20004FFBA080BDE8F88317000020600B00205A
:102A300008B5436B0BB15B69984708BD426B08B59D
:102A400012B1D368984702E04268043090470120F1
:102A500008BD034BDA6882F01002DA60704700BFED
:102A6000000C0140024BDA6882F00802DA6070471D
:102A7000000C014008B5024B1B68984708BD00BF19
:102A8000482B002009B1012000E00846F2E72DE9BB
:102A9000F0410F88002347FA03F2D2072BD58A783A
:102AA00003F0070512F0100F18BF91F803C002F0F1
:102AB0000F0618BF46EA0C06AD004FF00F0C0CFADB
:102AC00005FC06FA05F5DC0850F82480282A28EAD7
:102AD0000C0C45EA0C0540F8245005D101229A401F
:102AE000C46824EA020205E0482A04D101229A407F
:102AF000C4682243C2600133102BCCD1BDE8F08101
:102B000038B500240E4D21460E4870222C7014F06A
:102B1000DDF821460C4B0B4493F9D2207AB10948D9
:102B200053F8D04F0A180C5098889B79073193714D
:102B30002B78702903F1010390802B70EAD138BD06
:102B40007C0C00207D0C00208024002010B5002487
:102B5000094B1B78A3420DD9084B33F81410084BCE
:102B60001B78A34203D9074B20461B6898470134C2
:102B7000E4B2EDE710BD00BFEC290020EE290020F3
:102B80000B0D0020B40D00202DE9F04F0C68836878
:102B900089B0D0F800A0D0F8048006462046039300
:102BA0008B4610F057FA0746204610F0C7FADBF8BC
:102BB00004408146204610F04DFA0546204610F0AC
:102BC000BDFADBF8082004461046019210F042FAE4
:102BD000019A8346104610F0B1FA394602905846E1
:102BE0000DF076FC3946049002980DF071FC5946C0
:102BF000059048460DF06CFC0299069048460DF091
:102C000067FC2946079058460DF062FC0146504685
:102C10000DF05EFC2146834606980DF059FC0146F6
:102C200005980DF04DFB014640460DF051FC014664
:102C300058460DF045FB2146834604980DF048FCAC
:102C4000014607980DF03AFB014603980DF040FC51
:102C5000014658460DF034FB3060029905F1004002
:102C60000DF036FC014650460DF032FC21468346FD
:102C700007980DF02DFC014604980DF01FFB01464E
:102C800040460DF025FC014658460DF019FB214643
:102C9000834605980DF01CFC014606980DF010FBCC
:102CA000014603980DF014FC014658460DF008FB50
:102CB0002146706050460DF00BFC2946044609F190
:102CC00000400DF005FC014640460DF001FC0146B8
:102CD00020460DF0F5FA3946044628460DF0F8FB7B
:102CE000014603980DF0F4FB014620460DF0E8FA8A
:102CF000B06009B0BDE8F08F2DE9F84F384E0446BA
:102D00003768384610F0A6F90546384610F016FA2E
:102D100076688046304610F09DF98346304610F0C4
:102D20000DFAD4F804900646294648460DF0D0FB2B
:102D3000A7688246414638460DF0CAFB0146504618
:102D40000DF0BCFA2168824658460DF0C1FB4146A1
:102D5000044648460DF0BCFB31460DF0B9FB014678
:102D600020460DF0ADFA3146044638460DF0B0FB72
:102D700029460DF0ADFB014620460DF0A1FA0146B3
:102D8000504610F06BFA17490DF0A2FB0CF00CFF47
:102D900011A3D3E900230DF085F8134B0446D3F8B3
:102DA000B0000D460CF000FF02460B4620462946B7
:102DB0000CF09CFD00220D4B0DF074F80DF02AFA7A
:102DC00010F07EF983B2190444BF00F5B4739BB2CE
:102DD00018B2BDE8F88F00BF182D4454FB210940FC
:102DE000881800200000E144180000200000244062
:102DF00080EAE073A3EBE0738B4206DB002801DD81
:102E0000401A704702D0084470470020704770B5E0
:102E10000546441E14F8011F61B1074E304614F0F8
:102E200001F80028F6D0861B0448631B304480F864
:102E30008231EFE770BD00BF189A0108802400209E
:102E400070B540F26C55284613F07EFC044660B322
:102E5000174E4C213068C3699847024610B330685A
:102E60002146066A2B46B047E0B123784C2B19D196
:102E70006388AB4216D12379BE2B13D194F86A35FF
:102E8000EF2B0FD100231A4640F26C518B4203D036
:102E9000E15C01334A40F7E722B9204613F05CFCBD
:102EA000012070BD204613F057FC002070BD00BF0C
:102EB000E4170020024B1A6810431860704700BFE7
:102EC000880B00202DE9F04102780346202A00F10A
:102ED0000100F9D0092AF7D02D2A02D10346414D2D
:102EE00004E02B2A08BF03464FF07E551E460024FF
:102EF000334616F8012BA2F13007F9B209290DD893
:102F0000394920460DF0E4FA044638460DF08CFAB3
:102F1000014620460DF0D4F90446E9E72E2A17D1E0
:102F2000314F334616F8010B3038C2B2092A0FD898
:102F30000DF07AFA39460DF07FFB014620460DF080
:102F4000BFF92949044638460DF0C2FA0746E8E7BA
:102F50001A7802F0DF02452A38D15A782D2A02D198
:102F60000233012604E02B2A14BF0133023300266A
:102F7000013B002713F8012F303AD1B2092903D8B9
:102F80000A2101FB0727F5E7B7F59A7F28BF4FF421
:102F90009A77B8464FF07E51B8F1070F07D9084627
:102FA00012490DF095FAA8F108080146F4E707F078
:102FB000070737B108460C490DF08AFA013F014670
:102FC000F7E72EB120460DF037FB04E04FF07E51BD
:102FD00020460DF07DFA014628460DF079FABDE84D
:102FE000F08100BF000080BF0000204120BCBE4C2B
:102FF00070B50646B6FBF2F40846154614B12046F5
:10300000FFF7F6FF05FB1464024B1B5D00F8013B64
:1030100070BD00BFA892010890F85B3210B57BB973
:1030200090F85A3290F85922934209D201219940DE
:10303000B0F8604201332143A0F86012DBB2F3E73D
:1030400010BD90F862321BB1D1F1010138BF0021EF
:10305000D0F854315A689B6809B1136170475361C5
:103060007047F8B5101A0C461F460DF0DDF90546FD
:10307000381B0DF0D9F9184B079E19680DF028FA86
:103080002946044628460DF023FA214607462046E5
:103090000DF01EFA014638460DF012F910F07EFAD6
:1030A0000E490DF015FA0DF0D9FB069B214618606C
:1030B00005F1004010F0D2F809490DF009FA09496C
:1030C0000DF0FEF80DF0CAFB0028BCBF00F50C4067
:1030D000A0303060F8BD00BF6C0100202C7D8E3F19
:1030E000A00CB34500A00C4610B50DF09DF90021D1
:1030F00004460DF0A9FB08B1204601E004F10040B0
:1031000005490DF099FA05490DF0E2F90FF0A2FF1B
:10311000034B186010BD00BF8096184B35FA8E3CEB
:103120006C01002038B50C4DEB7AA3B10B4B1B782A
:10313000042B10D90A4B0B4C18685B682060636045
:10314000FFF7D2FF084B1A88084B1A80084B1B88E0
:10315000A36001232B7338BDED0C002084230020D5
:10316000281B00200C1B0020D61A0020EA1F00207C
:10317000241B002044F25063984203DDA0F50C406C
:10318000A0387047034B9842BCBF00F50C40A030FC
:10319000704700BFB0B9FFFF70B52D4C2D4D607961
:1031A0000DF03EF92C490DF047FA2860E07B0DF058
:1031B00037F929490DF040FA284E6860EE60A07991
:1031C0000DF02EF926490DF037FA264D2860207CA7
:1031D0000DF026F920490DF02FFA6860A07E0DF061
:1031E0001FF921490DF028FAEE60A860E0790DF092
:1031F00017F91B490DF020FA1C4D2860607C0DF07A
:103200000FF915490DF018FA6860E07E0DF008F925
:1032100015490DF011FA164BA8601B7CEE60ABB19E
:1032200020790DF0FDF80E490DF006FA114D2860D9
:10323000A07B0DF0F5F808490DF0FEF96860207EDE
:103240000DF0EEF808490DF0F7F9A86070BD00BF69
:10325000082A0020BC1F00200000C8420000FA44D9
:1032600000002041CC1F002000007A441C190020DF
:10327000ED0C0020081900202DE9F0472F4A00230B
:1032800092F82050D47F03FB03F01938684300F60E
:10329000C4105843604340F6C41190FBF1F0284934
:1032A00021F813000133072BEDD192F82110254BA3
:1032B0000A274F43B3F84051B3F8429192F8226085
:1032C000C1F1640C48425FFA8CFCC6F16408C5EB9E
:1032D000090980B2002384B222B2002A04DC002C47
:1032E00014BF0C46012400E0644602FB02FA64436A
:1032F0000AFB06FA9AFBF4F4444454434FF00A0ADA
:1033000094FBFAF43C4424B204FB09F44FF47A72BF
:1033100094FBF2F40C4A2C449C5202335044182B78
:1033200080B2D8D1054BBDE8F0471B78012B18BF00
:10333000064A074B08BF074A1A602DE7082A0020F3
:10334000B818002080240020D01800206D8E0008BE
:1033500064010020D99000080449054B0968002247
:1033600018701A615961DA601A767047402400209B
:10337000E40F00200A4B1B7883B10A4B9A8998818D
:103380001A89D007FCD5074B9889C0B2054B1A891A
:103390009107FBD51A891206FCD47047184670476E
:1033A0001A0B002000380040054B1B7833B1054B49
:1033B0004FF4805208B15A6170471A61704700BFDC
:1033C0001A0B0020000C014038B5044601200D46C0
:1033D000FFF7EAFF2046FFF7CDFF2846FFF7CAFFB9
:1033E0000020FFF7E1FF012038BD054B1B78834229
:1033F00004D9044B53F820301B681980704700BF74
:103400003C0D0020400D002003280E4B09D80E4A29
:1034100012888A4205D2012202FA00F05A7810433B
:1034200058705B780F2B0BD1064B00225A70074B5C
:10343000198808B2142802DD1439198070471A80DF
:10344000704700BF5419002048010020D01A002006
:103450002DE9F34700F12407044638460D46FEF7F0
:10346000FAFF24238DF800304D238DF801303E23E0
:103470008DF802302B7800263846694605228DF8F3
:1034800003608DF804300BF05AFD30B19DF8043024
:10349000A4F84A6084F8483008E0A38F2387A38DFE
:1034A000A387AB4B1A780AB904221A702B78772BB2
:1034B00000F03C8200F266816A2B00F0A78400F2E3
:1034C0009C80452B00F0D58718D8422B00F06E87E2
:1034D00009D8402B00F0B587412B08BF002300F02E
:1034E000BC8700F0D8BF432B00F0CA86442B40F0C5
:1034F000D287984B01221A7000F0D1BF662B00F0E2
:103500004D8372D8642B00F02083652B40F0C38775
:10351000914B204619880AF069FC904B2046198887
:103520000AF064FC8E4B20461B68C3F3C001C3F352
:103530008002890041EA4201C3F340021143C3F310
:10354000401241EAC20103F0100319430AF04EFC95
:10355000844A1579D378AD0045EA430553781D4375
:10356000937945EAC305537945EA4315537A45EA09
:1035700083157D4BD97945EAC115197A45EA0125AC
:10358000597A45EA4125D17945EA8125117A45EAFA
:10359000C125117D927A45EA016545EA02355A7BDB
:1035A000002145EA42359A7B45EA82351A7C45EA94
:1035B00002451A7945EA02155A7C45EA42459A7C49
:1035C00045EA8245DA7C45EAC2451A7D45EA02555C
:1035D0005A7D45EA42559A7DDB7D45EA825545EAAA
:1035E000C355624B18780B46C0E2682B00F000848C
:1035F00000F2028420465E49FCE3702B00F06E84EA
:103600003FD86D2B00F0358412D86B2B00F021844D
:103610006C2B40F04087574D204629880AF0E6FB86
:10362000204669880AF0E2FB2046534B00F028BC94
:103630006E2B00F027846F2B40F02D874F4D2046D6
:10364000E97F02F0CDFA95F82010204602F0C8FA82
:1036500095F82310204602F0C3FA95F8251020466D
:1036600002F0BEFA95F82610204602F0B9FA95F855
:103670002110204602F0B4FA204695F8221000F0FE
:10368000DDBE732B00F080845AD8712B00F050817E
:10369000722B40F000873A4D2046B5F898110AF099
:1036A000A5FBB5F8401120460AF0A0FB334EB5F853
:1036B000421120460AF09AFBB5F8441120460AF060
:1036C00095FBB6F80A1120460AF090FB95F8AB116D
:1036D000204602F085FA95F8AC11204602F080FAF7
:1036E00095F8AD11204602F07BFA95F87C11204642
:1036F00002F076FA95F8A111204602F071FA002145
:10370000204602F06DFAB6F92A100A2391FBF3F174
:1037100089B220460AF06AFB95F87D11204602F036
:103720005FFA95F87F11204602F05AFA95F87E115B
:10373000204602F055FA204695F8801100F07EBE32
:10374000752B00F0DE8300F228840025F0E300BF33
:10375000442B0020C41D0020522B00201C0B0020F5
:10376000880B0020ED0C0020B41A00205D21002001
:103770009401002058190020D61A0020082A0020A1
:1037800080240020CF2B00F0598100F29380C82BB9
:1037900000F0D08054D8A02B00F0EC8448D8782BCF
:1037A00000F02C827B2B40F07686964B964D93F85A
:1037B000A011204602F014FAB5F8201120460AF0B4
:1037C00015FBB5F8221120460AF010FBB5F82411BC
:1037D00020460AF00BFBB5F8261120460AF006FB3E
:1037E000B5F82A1120460AF001FBB5F82C11204645
:1037F0000AF0FCFAB5F82E1120460AF0F7FAB5F8EF
:10380000301120460AF0F2FA95F8321120460AF0FB
:10381000BDFA95F83611204602F0E2F92046002163
:103820000AF0B4FA204600210AF0B0FA00F02ABEED
:10383000A42B00F0AB84A62B00F0018500F02BBE7A
:10384000CB2B71D009D8C92B00F09180CA2B40F046
:1038500022866E4B03F10A01AFE0CD2B00F04584C8
:1038600000F24D84AB6813F8012BAB60664BDA773E
:10387000AA6812F8011BAA6083F82010AA68511CDC
:10388000A96051780232AA6083F82510AA6812F85C
:10389000011BAA6083F82610AA6812F8011BAA600F
:1038A00083F82110AA6812F8011BAA6083F822107D
:1038B00000F0F5BDD82B00F0558217D8D22B00F0C0
:1038C0002A8107D8D02B00F00784D12B00F0C483C5
:1038D00000F0E1BDD42B00F0B281C0F02F81D62BD7
:1038E00008BF002600F00D8100F0D5BDF12B00F0DF
:1038F000C8810CD8EF2B2FD0F02B40F0CC85424D57
:103900002046E98D0AF072FA2046A98D9EE2FA2B34
:1039100000F0FD83FE2B00F00484F22B40F0BB8509
:10392000384B03F17001D6E100265AE0002522E36E
:103930000025ECE20026284609F077FC344B98532A
:103940000236102EF7D1334B00221A80324B186802
:103950000AF0A6FF00F0A3BD284609F066FC2A4E37
:10396000F085284609F061FCB08500F098BDAB6891
:10397000284613F8012B294EAB60294BDA72AB684D
:1039800013F8012BAB60274B1A7009F03FFC306035
:10399000284609F03BFC7060284609F046FC224BA3
:1039A0001880284609F041FC204B1880204B1A79DA
:1039B00042F002021A7100F072BDAA68013312F8D7
:1039C000010B8B42AA605870AA6812F8010BAA601A
:1039D000D872AA6812F8010BAA605875EDD100F0F0
:1039E0005EBD144B1B789E4280F05985124B2846D1
:1039F00016F8038009F019FC034B013603EB88032A
:103A0000D864EEE780240020082A0020072A00203E
:103A1000B80D0020D01A0020040D0020281B002023
:103A2000ED0C002084230020241B0020741C0020A7
:103A3000581900205D21002044210020284609F06B
:103A4000F4FB6FF4AF63BC4EC318C62B98BFA6F847
:103A50009801284609F0E9FBA6F84001284609F03C
:103A6000E4FBA6F84201284609F0DFFBA6F8440172
:103A7000284609F0DAFBDFF8E882AB68A8F80A010B
:103A800013F8012B2846AB6086F8AB21AB6813F81E
:103A9000012BAB6086F8AC21AB6813F8012BAB604F
:103AA00086F8AD21AB6813F8012BAB6086F87C215A
:103AB000AB6813F8012BAB6086F8A121AB6801332A
:103AC000AB6009F0B2FB0A235843AB68A8F82A00A0
:103AD00013F8012BAB6086F87D21AB6813F8012B3E
:103AE000AB6086F87F21AB6813F8012BAB6086F8DA
:103AF0007E21AB6813F8012BAB6086F8802100F0C3
:103B0000CEBC284609F091FB8C4B98530236102E00
:103B1000F7D100F0C4BC8A4B5A78002A40F0BF8429
:103B2000AB68002013F8011BAB60834B022994BFE4
:103B300083F8681583F868250146EFE2284609F006
:103B400074FB804B188000F0AABCE721204602F0ED
:103B500047F8794B2046597902F042F80421204673
:103B600002F03EF82046784900F092BC83420CD225
:103B7000764A9E5C012202FA06F62E4218BF9A404F
:103B800003F1010318BF1143F0E720460AF0FEF8E5
:103B9000694B204693F8681500F050BC6C4B00252B
:103BA000B3F89C306B4EB3F5806F0CD9715F08236E
:103BB00091FBF3F1204689B202350AF017F9062D80
:103BC000F4D1002507E0715B204602350AF00EF9BA
:103BD000062DF8D1F5E7604B2046595B02350AF017
:103BE00005F9062DF7D100255C4B2046595B0235BF
:103BF0000AF0FCF8062DF7D100F051BC584D05F144
:103C00005006B5F8B81020460AF0F0F8B5F8BA102A
:103C100020460AF0EBF8B5F8BC1020460AF0E6F8AA
:103C200095F8BE10204601F0DBFF0A35B5F8B61056
:103C300020460AF0DBF8B542E3D100F030BC484E34
:103C400006F15008284609F0F0FAA6F8B800284610
:103C500009F0EBFAA6F8BA00284609F0E6FAA6F849
:103C6000BC00AB68284613F8012B0A36AB6086F817
:103C7000B42009F0DAFAA6F8B6004645E2D100F021
:103C80000EBC2D4D05F1700695F8D010204601F0C0
:103C9000A7FF95F8D110204601F0A2FF95F8D210A9
:103CA000204601F09DFF95F8D310204601F098FFC3
:103CB00095F8D410204601F093FF95F8D5102046D2
:103CC00001F08EFF073595F8CF10204601F088FFF0
:103CD000B542D9D1E3E3AA68073312F8010BAA6011
:103CE00083F8C900AA6812F8010BAA6083F8CA0019
:103CF000AA6812F8010BAA6083F8CB00AA6812F830
:103D0000010BAA6083F8CC00AA6812F8010BAA6024
:103D100083F8CD00AA6812F8010BAA6083F8CE00E0
:103D2000AA6812F8010BAA6083F8CF008B42D2D1A7
:103D3000FEF7E6FEB3E300BF802400205E190020FA
:103D4000ED0C0020041B00200C0000C044210020CA
:103D500018000020361C0020761900207C19002055
:103D6000082A0020AB68284613F8012BA04EAB6050
:103D7000A04B83F8A02109F058FAA6F820012846A4
:103D800009F053FAA6F82201284609F04EFAA6F8DF
:103D90002401284609F049FAA6F82601284609F028
:103DA00044FAA6F82A01284609F03FFAA6F82C01A1
:103DB000284609F03AFAA6F82E01284609F035FA05
:103DC000A6F83001284609F021FAAB68284613F816
:103DD000012BAB6086F8362109F018FA284609F065
:103DE00015FA284609F012FA284609F00FFA56E3A8
:103DF00081492046102287E00025804B2046595BF0
:103E0000023509F0F3FF102DF7D148E37C4B204633
:103E1000D97A01F0E5FE7B4B7B4D1978204601F005
:103E2000DFFE2968204609F0B1FF6968204609F0E5
:103E3000ADFF764B2046198809F0D8FF744B204619
:103E4000198809F0D3FF734B2046598D09F0CEFF36
:103E500025E3714B2046198809F0C8FF6F4B2046B7
:103E6000198809F0C3FF6B4B2046197901F0010155
:103E7000E4E26B4B2046196809F088FF694B204645
:103E80001988E3E7684B2046B3F900104FF6FF7539
:103E900081F30801C9B201F0A3FE644B2046196802
:103EA000A942A8BF294621EAE17189B209F09EFF23
:103EB0005F4B2046198809F099FF4E4B93F87C21FF
:103EC0005C4B19680029B8BF49420AB10A2359431B
:103ED000A942A8BF2946204689B2B7E7564D05F149
:103EE0000A0601356978204601F07AFEE97A204613
:103EF00001F076FE2046697D01F072FEB542F0D1F8
:103F0000CDE24E492046302204F00CFAC7E24C4B79
:103F10001B789D4280F0C3824A4B2046EA5C344BBA
:103F2000013503EB8203B3F84C1009F05FFFEEE7B5
:103F3000434B1B789D4280F2B282424B3F4AEB5C7E
:103F40000C2101FB03235E6B0135304613F042F870
:103F5000314682B2204604F0E5F9E9E70C33B3F5C7
:103F6000967F07D0384A1A44127A8A42F6D1204600
:103F700001F036FE0135324B1B789D4280F08F8276
:103F8000304BE95C0023EDE70125E9B2204601351D
:103F900001F026FE092DF8D181E2AB6813F8011B70
:103FA000AB6009B9294B02E0102903D1284B1E68E8
:103FB0005D6801E000252E46204601F011FE3146E5
:103FC000204609F0E3FE2946204609F0DFFE214B9A
:103FD0002046196809F0DAFE0021204609F006FFA4
:103FE0000021204609F002FF2046002126E200BF02
:103FF000082A002080240020EE290020B80D00208F
:10400000ED0C002084230020281B0020241B00200E
:10401000741C002058190020761C0020781C0020F9
:10402000EC1A00203C1C0020141C0020281C00203E
:10403000CE1A00201C1C0020072A0020C88001087E
:104040005D21002044210020F88001080C1B002085
:10405000181B0020E81A0020AB68284613F8018BD3
:10406000AB6009F0D3F88246284609F0CFF88146C4
:10407000284609F0CBF80646284609F0D6F8284627
:1040800009F0D3F8AB680133AB60B8F1000F0FD182
:10409000B24B0122C3F80490C3F800A0B04B83F8E0
:1040A00007801A73002E00F0FA81AE4B1E60F6E115
:1040B000B8F1100F40F0F381AB4BC3F800A0C3F888
:1040C00004900EB1A74B1E60A748A84B0222011D09
:1040D0001A7009F0B5FEE2E1A14B5B78002B40F0CD
:1040E000DE81012005F076FCD9E19D4B5B78002B49
:1040F00040F0D5819E4B4FF4C8721A80CFE1984BA7
:104100005A78002A40F0CB8101229A73C7E1944B80
:104110005B78002B40F0BF810020012105F062FB9D
:10412000BDE1944B94499A89944B32B10A20B2FB79
:10413000F0F00988821A0A4400E00A889A85904AB9
:10414000904812790068DA858F4A002511688F4AF5
:10415000B1FBF2F1B0FBF2F24FF47A7000FB0122F6
:104160005A868B4B2046595B023509F03FFE082DDD
:10417000F7D194E1874D2046296809F007FE696868
:10418000204609F003FE2046A96881E17B4E2046C7
:1041900096F834900025494601F022FDB0464D4581
:1041A00017D27D4E2046715D01F01AFD06F1200305
:1041B000595D204601F014FD06F14003595D20468B
:1041C000603601F00DFD715D204601F009FD0135FD
:1041D000E5E7684B93F8AB31012B40F060816F4A03
:1041E000002392F8B850104688F83450AB4202F1E0
:1041F000010215DA684992F8B86092F8C8E05E5496
:1042000001F1200603F806E092F8D8E001F140063B
:1042100003F806E092F8E86060315E540133E5E7A8
:10422000D0F8FC300022C8F8B830D0F80031302186
:10423000C8F8BC300120134603F0BAFA2FE1584BFE
:1042400020461E684D4D16F0200609D0002109F0C9
:104250009DFDD5F8BC10D5F8B8302046C91A04E049
:10426000314609F093FD2046314609F08FFDD5F81F
:10427000C010204609F08AFD2046D5F8C41007E199
:10428000AB683C4E13F8012B2846AB6000237271DB
:10429000B36008F0BBFFB368DFF80C911843AB685C
:1042A000B06013F8012B2846AB6086F8942108F023
:1042B000BCFFA6F85601284608F0B7FFA6F858013B
:1042C000284608F0B2FFA6F85A01284608F0ADFFCC
:1042D000A6F87801284608F0A8FFA6F87A01284633
:1042E00008F0A3FFAB68A6F84E0113F8012B28468F
:1042F000AB6089F82320AB6813F8012BAB6089F819
:104300002420AB6813F8012BAB6086F88121AB68E1
:1043100013F8012BAB6089F8492008F086FFB289B9
:104320008046904213D01F4B2AB148B118684146CD
:104330000AF028FB09E018B118680321424602E0A0
:104340001868012164220AF085FCA6F80C80AB688D
:1043500013F8012BAB6089F83020A0E00C1B002083
:10436000ED0C0020E81A0020181B0020081B00207C
:10437000462B002080240020522B002058190020BA
:1043800054240020F8090020F409002040420F00C6
:1043900084190020E80900208D1900200810002051
:1043A000880B0020CC170020082A0020504D204602
:1043B000697901F015FCA968204609F0E7FC95F839
:1043C0009411204601F00CFCB5F85611204609F076
:1043D0000DFDB5F85811204609F008FDB5F85A1141
:1043E000204609F003FDB5F878112046414E09F04A
:1043F000FDFCB5F87A11204609F0F8FCB5F84E112D
:10440000204609F0F3FC96F82310204601F0E8FB63
:1044100096F82410204601F0E3FB95F88111204620
:1044200001F0DEFB96F84910204601F0D9FBA9897E
:10443000204609F0DBFC96F83010204601F0D0FB56
:104440002DE000252A4B20462B4493F8821101359C
:1044500001F0C6FB082DF5D121E0AA6812F8011B76
:10446000AA60234A1A440133082B82F88211F4D13E
:1044700015E00025204B2046595D013501F0B0FBC9
:104480000B2DF7D10021204609F080FC20460021A9
:1044900009F07CFC03E02046294601F0C7FBA28F0F
:1044A000A38D033292FBF3F103FB1123616BB4F88C
:1044B0004A203846CA5494F8481094F84A30594073
:1044C00084F84810FEF72EF8A38D28B1A3876368FF
:1044D000D8690AF0E5F907E0A28FA387074B228786
:1044E0001A780AB904221A7002B0BDE8F08700BF3A
:1044F00080240020082A0020CD920108442B0020AF
:104500002DE9F04FAE4E85B0B368AE4F13F00808FA
:1045100003D1AD4C4546A14631E0002439E0AB4B18
:10452000E8B21B689847A0F2EE2240F2DC5392B248
:104530009A4288BFA24BD9F8902088BFB3F898015F
:10454000A34B1340002B03DA013B63F00303013359
:104550009D4A03EB850322F8130022886388013506
:104560001344A2880834134434F8022C13441BB2B9
:10457000042293FBF2F327F8083008F1020896F8BA
:10458000AA319D42CBDBD9F890300133C9F8903085
:104590000BE096F8AA319C4207DA8C4BE0B21B681C
:1045A000984727F814000134F3E7B368864C13F4F6
:1045B000804F04D094F894300BB903F095FE96F830
:1045C000A1217F4BE2B1033237F91200B3F8A251B7
:1045D000B0F57A7003D4A842A8BF284600E00020B6
:1045E0000BF022FF804628460BF01AFF014640469A
:1045F0000CF022F877490BF06BFF0CF055F914E042
:1046000093F8A40190B1744AD179744A32F8112018
:10461000B3F8A81192B2521A9002B3F8A631801AD8
:1046200090FBF3F000B280F30A0080B2B368A4F804
:10463000AE0013F4024F63D0634B694DB3F8B090F2
:1046400095F80831052253430FFA89F898453ADD69
:10465000644B5A789B46002A35D0594BB3F89831B1
:104660003B807B80BB80B5F80A31FB805E4B1A78BB
:104670009A46032A05D95D4803F0C2F903238AF854
:10468000003095F8082195F8093113440522534369
:10469000984513DD9BF812B0BBF1000F0ED103F06B
:1046A00023FE504B83F800B09AF80030042B05D954
:1046B0004F4803F0A5F94C4B04221A70B4F8B230FD
:1046C0000133A4F8B23095F80831052253439845D8
:1046D00012DD444D95F80180B8F1000F0CD103F0C4
:1046E00003FE85F80080404D2B78042B04D9404808
:1046F00003F086F904232B7009F10109A4F8B090A6
:104700000022B6F89A11B6F89C511346B85E9B0881
:104710008842C4BF63F07F03DBB20232A842B8BF55
:1047200043F04003082AF1D194F8B400264A984295
:1047300005D192F8B500F92804D8013000E0002036
:1047400082F8B50084F8B430B3681D4A13F4804889
:10475000234DB7F906300AD0B2F89811B2F84C21BF
:10476000881A834206DD0A44934206DB02E08B424C
:1047700003DB17E04FF0000814E00023C4F8C43155
:10478000C4F8C831C4F8CC31C4F8C030C4F8C4305F
:10479000EB6C2BB10C4B93F89430002B40F07C83E6
:1047A0004FF00108EB6C43B394F894302BBB0D4BE6
:1047B0005B7813B396F89F31E3B103F095FD1CE0ED
:1047C00080240020B80D0020201A0020DC0D0020DD
:1047D0000300008000C07F444C0B0020540B0020DD
:1047E000082A0020ED0C002068010020308201081A
:1047F00043820108B8F1000FDFD194F8B5208C4B4B
:10480000142A40F0A6808B4A50789146C0B1EA6CD9
:104810002AB993F8B4305F2B01D103F065FD96F807
:104820009E31002B00F09580EB6C002B40F09180C6
:1048300094F8B4307D2B40F08C8003F055FD88E077
:1048400093F8B420572A15D17B4B4FF47A721A8013
:10485000B368DB0501D5FEF765FC784B1B6858078C
:1048600002D5774A0A21118013F0080334D1A4F845
:10487000B63031E0B168490725D55A2A23D193F8DB
:10488000B8202AB1012283F8B80083F8B92023E0C8
:1048900093F8BA20DFF8C0A182F0010283F8BA20B1
:1048A0009AF8003032B10A2B16D9664803F0A8F8FE
:1048B0000A2305E00B2B0FD9634803F0A1F80B2363
:1048C0008AF8003008E05D2A00F0EE825B2A00F0F2
:1048D000ED825E2A00F0EC82EB6C33B994F8B420E0
:1048E0006F2A02D10AF006FF15E096F89E2122B148
:1048F0001BB994F8B4307E2BF4D094F8B430972BD5
:1049000004D1524B4FF4C8721A8004E0A72B04BFA5
:10491000012389F80E3094F8B430BB2B02D1EB8D13
:10492000023303E0B72B03D1EB8D023BEB8509E0AB
:10493000BE2B02D1AB8D023303E0BD2B09D1AB8D71
:10494000023BAB850120014604F04CFF002384F8B4
:10495000B530B068420731D594F8BA20344B8AB1EB
:10496000344A527872B13A4AB7F90610B2F89A212D
:10497000914207DD93F8942022B93221A3F8BC10AC
:1049800083F8BA2094F8A520294B62B193F8BE2091
:104990002AB993F8B82012B93222A3F8BC20012317
:1049A00084F8BE300AE093F8B8203AB1214A527830
:1049B00022B983F8B820012283F8B920254B0021C1
:1049C00093F8149001220B464B4547DA07EB430559
:1049D0002D8940F2A46A0FFA85FCD44502F1010B3F
:1049E000D4BF4FF0000A4FF0010A0AFA0BFA40F266
:1049F000135BDC454FF0030B0BFB03FBA5F21555D6
:104A0000ADB2CCBF4FF0000C4FF0010CB5F5C77F35
:104A10000CFA0BFC8CBF0025012595404AEA0C0CD2
:104A20004CEA050C41EA0C0101330332CCE700BF2C
:104A3000201A0020ED0C0020C6170020880B002053
:104A4000C8170020468201084B820108462B00202F
:104A500080240020A40B00206801002000239D4D2D
:104A60009D4A05EB8309D9F84C9002F1940C11EAA8
:104A7000090F0CBF4FF000094FF0010903F80C902B
:104A80000133192BA946EAD192F8AC30934D2B751E
:104A900023B1012382F89F3082F8963094F8953044
:104AA0008F4A53B98C4B4FF0050CB3F9B01099F8FD
:104AB00008310CFB03F399421DDD11688B071AD5F1
:104AC000EB7843B9C4F8C030C4F8C430834B4FF01E
:104AD000010C83F803C0000410D599F808314FF099
:104AE000050C0CFB03F3B4F9B000984206DD89060F
:104AF00004D5012301E00023EB70AB7494F89630E9
:104B000075495BB10023EB702B7943B9C1F8C03014
:104B1000C1F8C430714B0121197100E02B7194F878
:104B200094300BB901232B7095F803C06D4BBCF189
:104B3000000F02D16949097911B11021596101E0D1
:104B40001021196111684B0725D594F89720624B05
:104B50009AB1A87990B9614A4FF0010A82F806A08B
:104B6000D3F8CC20C3F8DC00C3F8C820B3F8D820B1
:104B7000C3F8E000A3F8D02000E0AA71B36898045D
:104B800009D594F898302BB1EB7B23B9534B012214
:104B9000DA7300E0EB7311F00A0F20D094F899302B
:104BA0004D4A4BB16B7943B94C4B01205871B2F867
:104BB000B630A2F8E43000E06B7194F89A302BB173
:104BC0006B7A23B9454B01225A7200E06B7294F85C
:104BD0009B20414B1AB1B3F8B620A3F8E620890612
:104BE00040F1F280EA7A3D4B002A00F0E8803E4A2C
:104BF0001278042A40F2E38094F9E82032B11A795D
:104C000022B9BCF1000F01D10122DA7094F89E2084
:104C1000314BDFF8DCA01AB9AA7CDFF8C0B0CAB10A
:104C2000EB79DFF8B8B0002B40F0B7802F480122B5
:104C3000011D8BF808308AF801308BF807200192AB
:104C400009F0FEF8022384F8E830B4F80431C4F81F
:104C500000313BE08BF8072093F89F20002A49D0D1
:104C6000B3F9D210B9F81C210029B8BF49429142CA
:104C700040DAB3F9D4100029B8BF4942914239DA79
:104C80009BF80820002A40F08880D3F808114FF0E4
:104C9000010CC3F8F810D3F80C1103F1F800C3F8B5
:104CA000FC1003F1FC018BF808C08AF80120039383
:104CB000CDF808C0019209F0C3F8039BDDF808C0E5
:104CC000B3F8041183F8E8C0C3F80011019A8BF817
:104CD000132062E0082A0020201A0020ED0C00209A
:104CE000880B0020000C0140842300200C1B0020B6
:104CF000680100209AF8011000232B7200294CD182
:104D0000764B01225A708C46754B002203F5887051
:104D10002CF8002003F58B702CF8002003F58D7023
:104D20002CF8002003F5907B002041F80B008B4409
:104D3000CBF80420CBF8080003F5A47B41F80B0066
:104D40008B44CBF80420CBF808000CF1020C03F5DF
:104D5000B87B41F80B00BCF1040F8B44CBF8042066
:104D6000CBF8080001F11401CED1297C11B9002340
:104D7000EB7412E0C3F89801C3F89C01A3F8A021DA
:104D8000A3F8A221A3F8A4215649002353520C31C1
:104D9000535202320A2AF7D1E9E79AF800300C2B75
:104DA00012D994F8BE317BB94F4802F029FE4B4B23
:104DB0000C221A704A4B012283F8BE2104E0002322
:104DC000EB712B7284F8E83094F8A0302BB1AB7CF7
:104DD0001BB9464B01229A7201E00023AB72297C79
:104DE000424B31B3B26800209205587221D599F830
:104DF00008214FF0060909FB02F2B4F9B0C094454E
:104E000017DD0122DA703A4A9872B2F8980182B23C
:104E10003A807A80BA80374AB2F80A21FA80DA7A80
:104E20003AB9354F3F78052F03D89A74334B32384F
:104E30001880B2682E4BD2064BD56A78002A48D02B
:104E4000002946D1B8F1000F1FD02D49D4F8C02158
:104E500009684AB993F876314FF47A7202FB03126B
:104E60001F4BC3F8C02106E08A4204D293F8763182
:104E70000BB103F039FA194C2378092B29D92148B1
:104E800002F0BEFD0923237023E0D4F8C03103B340
:104E9000134BC3F8C0811CE0144B1B78002B3FF46C
:104EA0007FAC0AF027FC7BE4012202E0022200E052
:104EB00003225FFA82FA00200AF1FF33014686F8E6
:104EC000683504F08FFC02202821524604F01AFCB9
:104ED00002E5002005B0BDE8F08F00BF68010020AA
:104EE000201A0020C61B002052820108ED0C002071
:104EF00080240020082A002084230020B80D0020F0
:104F000040240020438201082DE9F04F7A4C87B0FD
:104F1000A3689B0740F19580784D794B06221F8846
:104F20002B681F442B792F600133DBB2B3FBF2F601
:104F30002B7102FB163313F0FF0667D1DFF80C92DA
:104F4000D5F808A099F80130DFF8048250464FF0F8
:104F5000785138F813B00BF0BBFA014650460BF00D
:104F6000ADF91FFA8BFB824658460BF05DFA654996
:104F70000BF0AEFA64490BF05FFB834694F87D01B9
:104F80000BF052FA014658460BF0A2FA0146504681
:104F90000BF096F94FF07851A8600BF099FA0BF0EE
:104FA00083FC94F88131A88183B399F80530B4F873
:104FB000781138F8132040F6E44392B25A4340F691
:104FC000FF73B2FBF3F2B4F87A312869D21A4FF4C6
:104FD0007A735A43B2FBF1F2082190FBF1FECEEB5B
:104FE000000002442A6192FBF1F25743D5E9060121
:104FF00097FBF3F3C01841EBE3716A61C5E9060161
:10500000424A00230BF070FC2E602862404AAB89B4
:1050100012889A4208D33F4D2B78012B11D93E4874
:1050200002F0EEFC01230BE03C4A12889A4208D3BE
:10503000384D2B78022B04D9394802F0E1FC0223C9
:105040002B70384E737B5BB3324D2B78082B27D9EE
:10505000A368DF051FD5344BDB7AE3B1334B1878F7
:10506000042818D90023324905275A185F540F27FE
:105070005770122B03F10207FAB204D0B0EB520FB3
:105080003B46F0D800E014220A4464235370F02316
:105090009370274800E0274802F0B2FC08232B70E9
:1050A000254B1A881AB1254B1B68980707D4244B47
:1050B0001B8823B9234B1B780BB107F053FD224B00
:1050C0001A7832B10D4C94F82430002B00F015837F
:1050D000C3E2A268084B1105F4D51A4A1278002AD7
:1050E000F0D093F8BB21002A3AD193F8BC318BBBA6
:1050F0000D4B5B782FE000BF80240020081C0020AF
:10510000522B00203333534000F07F45407E050092
:105110005E0B0020680100206D8201085C0B0020FE
:1051200070820108B41A0020ED0C002084230020B6
:10513000F01B002061820108462B0020880B002014
:10514000C6170020C4170020502B00204C0B002055
:10515000540B0020337D003318BF0123002BB1D046
:1051600094F8BA31002B40F06A81C44BD868FDF73F
:1051700085F9002840F06381C14AC24D1368A96ACD
:10518000591A7C2940F25B81AB6295F82C300746B6
:10519000013385F82C3007F12400BA4EC0B202F07A
:1051A000DBFB06F12E0333F917000BF03DF9B64B8C
:1051B0008046B3F89C000BF037F9014640460BF0EF
:1051C0003BFAB2490BF084F90BF048FB013700B20F
:1051D00002F0EEFB032FDED1302002F0BDFBB6F96A
:1051E000340002F0E5FB02F0C5FB96F82C0010F04D
:1051F000030828D1102002F0AFFBB36B642793FBA8
:10520000F7F000B202F0D4FB212002F0A5FBB36B53
:1052100093FBF7F007FB103787EAE770A0EBE77026
:1052200000B202F0C5FB142002F096FB984BB3F9D4
:10523000000002F0BDFB1C2002F08EFB404602F095
:10524000B7FB02F097FB95F82C308E4E5A0740F0D2
:10525000D080022002F080FBB6F93C000A2790FBC8
:10526000F7F002F0A5FBA3689B075FD5B3894FF069
:105270006E0808FB03F8152398FBF3F81FFA88F86B
:105280003A204FF0640902F067FBB8FBF9FB0FFA14
:105290008BF002F08DFB3B2002F05EFB09FB1B80D4
:1052A00080B20530DFF8F88190FBF7F000B202F031
:1052B0007FFB98F80030B28940F6340192FBF3F29C
:1052C0004A432A21B2FBF1F2F18F062091FBF3FB56
:1052D00003FB1B1B4FEA0B1B1FFA8BFB4BEA022B3A
:1052E0001FFA8BFBC2F303224BEA020B02F034FBE2
:1052F0000FFA8BF002F05CFBF28F98F8003001326D
:1053000092B292FBF3F103FB11232820F38702F002
:1053100023FB706990FBF7F000B202F049FB042018
:1053200002F01AFBB6F9200002F042FB594B1B6851
:1053300098065CD5584FDFF86C813B68574E002BC0
:10534000B8BF5B4293FBF8F106FB01334FF03C0919
:1053500009FB03FA1320039102F0FEFA0399642279
:105360009AFBF8FB02FB01B000B2039202F020FBB3
:105370001B2002F0F1FA06FB0BA34FF47A7B93FBA0
:10538000FBF000B202F014FB232002F0E5FA3868CB
:105390000028ACBF4E20532002F00AFB7B6812208D
:1053A000002BB8BF5B4293FBF8FA06FB0A3309FBFC
:1053B00003F902F0D1FA039A99FBF8F802FB0A808C
:1053C00006FB089800B202F0F3FA1A2002F0C4FAC1
:1053D00098FBFBF000B202F0EBFA222002F0BCFADC
:1053E00078680028ACBF4520572002F0E1FA02F0AF
:1053F000C1FA95F82C30282B21D1224B002283F8BA
:105400002C201F4A4FF47A7317683C25B7FBF3F73B
:10541000172002F0A1FAB7FBF5F6B6FBF5F005FB95
:105420001060000200B202F0C3FA182002F094FAF1
:1054300005FB167000B202F0BBFA02F09BFA94F87A
:10544000BA31012B7FF43EAE0C4CE068FDF716F844
:1054500000283FF437AEE468636B23B19B682046B5
:105460009847054636E0A368201DEBB10DF1170102
:105470009847003018BF01202BE000BFA40B00208C
:1054800040240020081C00201800002000007A445E
:10549000D61A0020880B0020281B0020806967FF97
:1054A0001600002080969800E2697AB101210DF182
:1054B000170002F087FA0546E069FCF7EAFF638D02
:1054C000834205D8206A09F0EBF901E0104600E0BC
:1054D0002846C5B20520FDF705FA8A2D31D08E2D5C
:1054E000B2D1AF4C00212E2204F1720011F0EEFB7C
:1054F0007C2384F87230E02384F875307D2384F8AF
:105500009E30A38984F87350DAB21B0A84F8913074
:1055100084F88730142384F88A3084F88B304FF471
:10552000FA73A4F88C304823A4F89430782384F8D4
:10553000902084F8862084F8963004F172002E21A1
:1055400088E0984B1B6899067FF57EAF944C00214C
:1055500004F140002C2211F0B9FB7C2384F8403088
:10556000A02384F843307D2384F86B308E4B84F87D
:1055700041501B7884F85A308C4BDB7A002B64D076
:105580008B498C480A688C4E92FBF0FC5FFA8CFCCD
:1055900006FB0C2706256F43662384F86930D30F7A
:1055A00084F8493042F21073B7FBF3FE03FB1E7719
:1055B000496884F84C7091FBF0F03F0AC0B284F85F
:1055C0004D70CF0F06FB00116943B1FBF3F503FBF0
:1055D000151384F851301B0A84F85230B4F86C303B
:1055E00064225FFA8EFEE9B202FB0CEE02FB0011B0
:1055F000B3FBF2F224235A43B4F86E301FFA8EFE46
:1056000084F853301B0A84F854306C4B89B21B88E1
:1056100092B284F855301B0A84F85630B4F87030D2
:1056200084F84AE084F84F104FEA1E2E090A84F8E5
:105630004720120A84F84BE084F84E7084F850102A
:1056400084F8482084F85C3002E0202384F8693034
:105650005B482C2109F014F8F6E6D4F8A8200023C2
:1056600084F8243013629362D362C4F8A830554B97
:105670001E68554B1D78002D3FD101272946642215
:1056800004F5AC701F7011F021FB84F858710720ED
:10569000009529464D4A04F5AC7307F0A3FF04F5C5
:1056A000AC77C4F8800108B1494B0360802002F058
:1056B00017F93B4DC4F87C01F8B1331DC5F87831BA
:1056C000444B7762F362444B01203363202110F096
:1056D000FBFFC5F8880118B9404B03221A700CE093
:1056E000202385F887313E4B3E48C5F8B0313E4B0C
:1056F0000021C5F8B43105F05FFA94F8BC3123B14C
:105700000AF042F8394A3A4BDA603A48D0F8843025
:105710000BB139499847394A224D138813B12B6888
:105720009A0702D4364B1B8813B1FDF79BF90AE0A8
:105730001E4B9A7812B1334A082111615B7813B17C
:10574000304B08225A6194F8BD3123B1144A013B11
:1057500082F8BD310BE0154B5A7B1AB99A70FDF7F0
:1057600081F901E001229A70092384F8BD312B6888
:105770009B0610D594F8BE3123B1094A013B82F84B
:10578000BE3108E0084B1B78042B01D9FDF761F905
:10579000022384F8BE31002007B0BDE8F08F00BFBF
:1057A000081C0020880B002084230020ED0C002022
:1057B000281B0020A08601006079FEFF241B00202A
:1057C000481C0020A40B0020502B0020B1AA000888
:1057D000A893010805ED0008B15F0008442B0020E4
:1057E00078820108B1930108AC9301080400FA051E
:1057F00000ED00E018000020441C0020462B002093
:10580000C6170020000C014070B5514A88B005460B
:105810000E461068516801AB03C301AC85BB4D480F
:10582000294605F0C9F94C4C013500204B492A4660
:1058300005F0E0F9B4F9B8200020494905F0DAF99B
:10584000B4F9BC200020464905F0D4F9B4F9BA20D7
:105850000020434905F0CEF994F9BE2000204049CC
:1058600005F0C8F93F48002105F0A6F9082D04F11C
:105870000A04D9D13B48002105F09EF93A482BE0B3
:1058800030683A4911F084FA08B100241FE0324B25
:105890004FF47F72A3F8B8204FF4FA62A3F8BA204D
:1058A000A2F5FA72A3F8BC20225C0130082883F824
:1058B000BE2003F10A03EBD146E0052C10D056F8C8
:1058C00024000DF08DFA03AB43F824000134AC4200
:1058D000F3DB052C04D02648002105F06DF933E0F8
:1058E000039A013A072A27D80498A0F56173B3F503
:1058F000966F21D80699A1F56173B3F5966F1BD801
:10590000059BA3F56174B4F5966F15D8079C04F157
:105910006405C82D10D898420EDC8B420CDC0E4D6D
:105920000A2606FB0255A5F8B800A5F8BA10A5F896
:10593000BC3085F8BE4003E00E48002105F03CF97C
:1059400001200021FFF760FF002008B070BD00BFFC
:10595000DC8301080F960108082A00203896010808
:105960003E9601085E9B0108429601085E9601087A
:1059700064960108AD9601082DE9F04F814685B087
:1059800009B180F82C1002238DF8073004238DF81C
:105990000630674B1B68012B06D104A94FF48053D6
:1059A00021F80C3D634806E007DD04A94FF480436D
:1059B000614821F80C3DFDF76AF83220FCF792FFB0
:1059C0004FF00006012363F301065C4C042363F3EC
:1059D00084060021F2B2206901F0E6FC032001F008
:1059E000A1FC6420FCF77EFF484602A906F000FEF9
:1059F00000254FF00A0AA8462F46012202212069FD
:105A000001F0D2FC3220FCF76DFF02A9484606F0F7
:105A1000EFFDBDF90820BDF90A10BDF90C301544A1
:105A20009142B8BF0A461F449A42B8BF134613F5C5
:105A3000805F884407DDFDF70CF8BAF1010ADCD17C
:105A40004FF0010A01E04FF0000A022363F3010660
:105A500020690021F2B201F0A7FC4FF00A0B0122ED
:105A60000221206901F0A0FC3220FCF73BFF02A9D3
:105A7000484606F0BDFDBDF90820BDF90A10BDF984
:105A80000C30AD1A9142B8BF0A46FF1A9A42B8BF0D
:105A9000134613F5805FC1EB080805DDFCF7D9FF5D
:105AA000BBF1010BDBD101E04FF0000A28460AF000
:105AB000BBFC014622480AF0BFFD20F000402060F8
:105AC00040460AF0B1FC01461D480AF0B5FD20F041
:105AD0000040606038460AF0A7FC014619480AF009
