:020000040800F2
:1000000000500020152D0108B52D010825F4000829
:10001000B52D0108B52D0108B52D0108000000001F
:10002000000000000000000000000000B52D0108E5
:10003000B52D010800000000B52D010889F2000867
:10004000B52D0108B52D0108B52D0108B52D010804
:10005000B52D0108B52D0108B52D01088DEF00085B
:10006000B52D0108B52D0108B52D0108B52D0108E4
:10007000B52D0108B52D0108B52D0108B52D0108D4
:10008000B52D0108B52D0108B52D0108B52D0108C4
:10009000B52D0108B52D0108B52D010889EF00081F
:1000A000B52D0108B52D0108B52D01087BEF00081D
:1000B00071EF000865EF000859EF000821F400080F
:1000C00019F400081DF4000815F40008B52D010806
:1000D000B52D010831F20008D5F1000871F10008D2
:1000E000B52D0108B52D0108B52D0108000000004F
:1000F0000000000000000000000000000000000000
:0C01000000000000000000005FF808F1A3
:100110002DE9F04FAF4C9DB023680490062B01F2FF
:10012000C486DFE813F007001F001F001F00C20491
:100130004306CE0AA84B1B682BB9A84B4FF47A7024
:100140001B68584300E09847049E726C831A2AB1DA
:10015000F2691A44F261326A01323262049FA04AA3
:100160007864138027689B4D012F00F0BE80022F1A
:1001700000F0BF81002F40F079849A48291DD0F803
:100180008030984705F10408002800F08A84964BD7
:1001900005F1540A1A889946002A00F098800C3517
:1001A0003E46B9F800B0914BBBF57A7FCDF814B05C
:1001B00007D10A20A3F13C0100FB06110022DA510D
:1001C0000A61DA5938F906000244DA5110F01AF9D6
:1001D0002B690133012B2B6104D100236860286057
:1001E000AB602AE0D5F800C001936146CDF80CC0A1
:1001F000029010F051F8019B8346184610F002F966
:100200000146584610F006FADDF80CC0014660467B
:1002100010F044F8029A03461946686010460193AC
:1002200010F03AF80146584610F040F9A96810F06D
:1002300035F8019BE8602B60A860059A0023012A2D
:1002400028F806302AF8063034D12869012807DD5D
:10025000013810F0D7F80146E86810F0DBF900E04B
:10026000002013F087F9624B834693F8660190B142
:1002700010F0C8F80146584610F0D4FA58B14FF4BF
:100280007A73A9F800300023E36123636364236574
:10029000E364A3640EE0554B4FF47A72FB580A20D6
:1002A00003F5FA7393FBF2F32AF806300F210122CB
:1002B00009F024FA0236062E07F1040705F11405A9
:1002C0007FF46FAFB9F80030013BA9F8003000238C
:1002D00038F803003AF803103E4A411A28F8031090
:1002E0000233062BF4D101F0D0BD3E4E05F15A0188
:1002F000D6F8983030469847B0465A35002800F076
:10030000D1833C4F3A4E3888002844D000231A4607
:10031000DFF8ECC0B0F5C87F04BF00214CF8021034
:1003200035F903905CF80210DFF8A8E049444CF876
:100330000210002106EB0309E9520233062BDFF815
:10034000B0C0A9F86A1102F10402E1D101281FD15D
:10035000DEF860304FF4C872C83393FBF2F3ACF8A8
:100360006A31DEF86430C83393FBF2F3ACF86C31D9
:10037000DEF86830C83393FBF2F2B8F89C30D21A3A
:100380001D4BACF86E219985D985014609F026FAF6
:100390003B88013B3B80B268154B520740F192808D
:1003A00016490A888946322A2CD1B3F86A11A4F872
:1003B0006C10B3F86C11B3F86E31A4F86E10A4F899
:1003C00070300D4B998DDB8DA4F87210A4F8743049
:1003D0001AE000BFE8170020FC0900204424002098
:1003E000582B002018000020C617002030180020CD
:1003F000842400204E2B00200C2A0020F41A002018
:1004000048180020002A3DD000231946322AB04F58
:1004100004BF0020785035F903E0785870447850D4
:10042000002006EB030EE8520233062BAEF86A01F9
:1004300001F10401EAD1012A1FD1A64BA64D187083
:10044000A64B1A702B780A2B04D9A54807F0D2FACC
:100450000A232B70B4F86C30B4F87220A6F86A3115
:10046000B4F86E30A6F86C31B4F87030A6F86E317E
:100470009C4B9A85B4F87420DA85B9F80030013BBA
:10048000A9F80030984A1378E3B10023A16F1370E4
:10049000322291FBF2F1A6F86A11E16FB8F89C00E4
:1004A00091FBF2F1A6F86C11D4F8801091FBF2F2F6
:1004B000121AA6F86E2101208A4A01469385D38537
:1004C00009F08CF9B4F85A20B6F86A310227D31A29
:1004D000A4F85A30B4F85C20B6F86C31D31AA4F8FA
:1004E0005C30B4F85E20B6F86E31D31AA4F85E30F2
:1004F000D8E27E4B7E4F1B689847D5F8843006467D
:10050000C31A184605930FF079FFD7F88C100690A0
:100510000FF0CCFF734BC5F8846093F83190002640
:1005200007903546B3461F46DFF8E48138F90500E9
:100530000FF068FF07990FF0B9FF10AB9851B9F1B0
:10054000000F2CD048460FF05DFF01464FF07E5063
:1005500010F060F80346194608F1840A4FF07E5007
:1005600001930FF099FE56F80A100FF09FFF08F163
:100570005608024638F9050002920FF043FF019B2E
:1005800019460FF093FF029A014610460FF086FEBF
:100590004AF8060010F050F9564B585305E008F1A0
:1005A000560835F80820534BEA52524B0436EB5E9E
:1005B0000235062D03FB03BBB6D14D4E642303FB6E
:1005C0000BFBB6F89C304C485B439BFBF3FBABF159
:1005D000490B10A91FFA8BFB02F0D6FABBF13B0FB7
:1005E00040F29A80454BD4F89C50B3F900000FF0CC
:1005F00009FF014628464FF0010610F013F900B933
:1006000006463F4B2946D4F898005E7312F012FE5E
:100610000646C4F8A000D4F89400D4F89C9000F1E9
:100620000045D4F8980001460FF040FF4946804647
:1006300048460FF03BFF014640460FF02FFE12F0F8
:1006400099FF0146284612F0F5FD0546C4F8A400BE
:1006500030460FF097FA1CA3D3E900230FF0E6FA17
:100660000FF0C6FD12F018FDDFF8A880A8F8000012
:1006700028460FF087FA14A3D3E900230FF0D6FA27
:100680000FF0B6FD12F008FD1E4BA8F802001B6823
:100690001B0740F18E8010A91B4802F075FA1B4B16
:1006A0004FF0000AB3F864010FF0A8FE4FF07E513E
:1006B00081460FF0F3FD01464FF07E500FF0AAFF88
:1006C000804657E0AFF300803B597E90A9E7814018
:1006D00060180020F61A002068010020F01A00209F
:1006E0001E8201080C2A0020F11A0020FC090020BB
:1006F000180000204A1C00207C180020900B0020CD
:10070000ED0C0020880B002090180020842400208D
:10071000EC17002058190020B14B4FF00008B3F837
:1007200062010FF06BFE4FF07E5106460FF0B6FDF2
:1007300001464FF07E500FF06DFF0546DFF8D49272
:10074000304659F818100FF0B1FEA64B824633F927
:1007500008000FF057FE014650460FF09FFD294656
:100760000FF0A4FE49F8180008F10208B8F1060FCE
:10077000E4D137E7DFF8A0B248465BF81A100FF073
:1007800095FE994A034632F90A0001930FF03AFEAA
:10079000019B014618460FF081FD41460FF086FE91
:1007A0004BF81A000AF1020ABAF1060FE2D15846D4
:1007B0003DE0DFF8389210A9484602F0E5F9D9F893
:1007C0000000D9F804B001460FF070FE5946824689
:1007D00058460FF06BFE014650460FF05FFDD9F80A
:1007E00008808246414640460FF060FE0146504672
:1007F0000FF054FD12F0BEFE002180460FF0EAFF1C
:10080000A0B9D9F8000041460FF004FF4146C9F8ED
:100810000000D9F804000FF0FDFE4146C9F80400BD
:10082000D9F808000FF0F6FEC9F808006F4802F08A
:1008300063FA6F4B6F49188006980FF037FE6C4BC8
:1008400005F10045804606F10046B3F90000149515
:1008500013960FF0D7FD00F100400FF093F95EA35F
:10086000D3E900230FF0E2F90FF0C2FC5D4D1590C3
:10087000B5F900000FF0C6FD1690B5F902000FF0B3
:10088000C1FD1790B5F904000FF0BCFD13A9189035
:1008900016A802F079F9584B93F84830012B17D17C
:1008A000564B5B7873B9D4F8B430402093FBF0F02A
:1008B000181A0FF0A7FD18990FF0F0FC0FF0BCFF0D
:1008C000C4F8B400D4F8B430402093FBF0F002E058
:1008D0004B49B1F89C000FF095FD014618980FF0B8
:1008E000DBFC484B1890196840460FF0D7FC0146D6
:1008F00040460FF08FFED4F8B86080463146189815
:100900000FF0CAFC014640460FF0D0FD01463046CC
:100910000FF0C4FC0646C4F8B8001698D4F8BC80A2
:1009200012F0BAFB97F8331002F062FA4044C4F8B0
:10093000BC001798D4F8C08012F0AEFB97F83310C3
:1009400002F056FA4044C4F8C0003046D4F8C480DF
:1009500012F0A2FB97F8321002F04AFA2A4B059ED9
:100960001A68404432441A60D4F8C830274D013325
:10097000C4F8C83097F8B630C4F8C400002B73D060
:10098000D5F89400D5F8988001460FF08FFD4146C8
:10099000074640460FF08AFD014638460FF07EFCC0
:1009A000D5F89C600746314630460FF07FFD014682
:1009B00038460FF073FC12F0DDFD014630460FF0B3
:1009C00029FE134906460FF019FF38B30023A5F896
:1009D000CC3049E0AFF30080399D52A246DF913F11
:1009E000842400204A1C0020961900205801002071
:1009F000EE1A0020BD3786350C2A0020ED0C0020B1
:100A0000180000209C0B0020542B0020E817002029
:100A10008FC2753C7C18002090180020304612F0E0
:100A2000B7FB9F4B19680FF041FD12F035FBB0F595
:100A3000617FA8BF4FF461700FF092F896A3D3E9DD
:100A400000230FF01DFA0FF0D3FB12F063FB954B60
:100A5000064693F8B6000FF0D5FC31460FF026FDA0
:100A600012F01AFBA5F8CC0003271BE08E4B5B7934
:100A7000012B8E4B0DD1B5F9CE10B5F9082002EB44
:100A80004102032192FBF1F292B29A80A5F8CE20A6
:100A900001E02A899A80A28804271A80E2885A8075
:100AA00000E00746276000F008BE814B814A197CB0
:100AB0007C4BA1B9B2F906101A8D91423CDBB1F51D
:100AC000FA6F93F8264007DA891A4C43A2F5FA62C6
:100AD00094FBF2F4643430E0C4F164042DE0B2F924
:100AE00006101A8D91420FDB734AB2F9061093F883
:100AF0002620914208DDB1F5FA6F02DA891A4A43DD
:100B00005212C2F1800200E080226C49B1F9021059
:100B1000142909DD93F82600B1F5967FA8BF4FF49C
:100B200096714143A2EB212293F82640C4F1800440
:100B3000A242A8BF144600E064245B4A93F8B05078
:100B4000B2F8987192F95C2193F8B160524293F82F
:100B5000253092B2002153480692059707930A4622
:100B6000544BDDF8149031F903B040F2E637C9EB8D
:100B70000B0303F2F31EBE4503D8002BB8BF5B4244
:100B800001E04FF4FA73022ADFF82CC12ED025B110
:100B9000AB42CCBFC5EB030300236427DFF82491ED
:100BA00093FBF7FE09EB4E086FF0630A0AFB0E3A5F
:100BB000B8F8D08009EB4E0EBEF9D2900FFA88FE3D
:100BC000CEEB090E0EFB0AFE9EFBF7FEC6442CF888
:100BD00001E090F823E003FB0EFE394B9EFBF3F39C
:100BE0003B449BB2634393FBF7F716E026B1B34255
:100BF000CCBFC6EB03030023DDF818A0DDF81CE032
:100C000003FB0AF7002BB8BF5B4203FB0EF3ACF803
:100C100004702B4F93FBF7F76437224B90F80B804F
:100C2000134493F801C007FB08F807FB0CFCDFF83E
:100C300098E064239CFBF3FC02F80EC098FBF3F8E9
:100C40000EF1030C02F80C8090F815C00EF1060EA0
:100C500007FB0CF797FBF3F302F80E30059B164FDA
:100C60009B4502DA7B5A5B427B520132032A01F137
:100C7000020100F101007FF473AF0E4BB3F90620BF
:100C8000094BB3F89A319A4220DBB2F5FA6FA8BF4C
:100C90004FF4FA621BE000BFA2EB0FE5DD169640B1
:100CA000980B00200C2A002084240020901900209A
:100CB000ED0C0020B80D00200A1B00205819002060
:100CC0000CFEFFFFE8170020C61800201A46D21AB3
:100CD0004FF47A714A43C3F5FA63B2FBF3F3642528
:100CE0008F4A93FBF5F102EB41006FF0630606FBC0
:100CF0000133B0F8E80002EB4101B1F9EA6001B25A
:100D0000711A4B4393FBF5F5864B28445B7A864C6E
:100D1000F8809046002B44D0844BB3F90000844BFC
:100D2000B3F90030C01A0EF01BFF7BA3D3E90023F8
:100D30000EF07CFF00227F4B0FF0A2F80FF058FA64
:100D4000054612F073F90646284612F0E3F9054607
:100D5000B4F902000FF056FB0746B4F900000FF09B
:100D600051FB314681460FF0A1FB294682463846A9
:100D70000FF09CFB014650460FF08EFA0FF05CFD21
:100D80003146208038460FF091FB294606464846FA
:100D90000FF08CFB014630460FF080FA0FF04CFD4F
:100DA00060800523C8F8003000F087BC624BDFF894
:100DB000A4911A6812F0080539D05B4988880F465B
:100DC00000F145039BB28A2B5C49584B2DD8554EF8
:100DD00096F805E0BEF1000F27D0B3F800E00B88CD
:100DE000767BC3EB0E0189B28BB20FFA83FE1EF144
:100DF000B30FBCBF01F5B4739BB219B2B32950490C
:100E0000C4BFA3F5B4739BB291F85C117EB149B233
:100E100049424B4399F809101BB24B436FF01D0137
:100E200093FBF1F31844B88001E01B880B8057074F
:100E300040F19D803B4B9979002900F098801E7C01
:100E4000394B002E40F08A8099F8B3003D4F99F855
:100E5000B21068B3B3F806E0B7F900000FFA8EF7E6
:100E6000C0EB070CBCF1000FB8BFCCF1000C8C45F7
:100E700010DD8742DFF8E0C0C8BF4942CCF800600F
:100E80001FFA8EFE4FF00106C8BF89B284F80061D8
:100E900071443FE094F8001131B12B490F682B49A0
:100EA0000F601F4981F8006129490968084426E05C
:100EB000B7F90060B3F90670BF1B87EAE77EAEEBB7
:100EC000E77E8E450ADD022197FBF1F70121C4F888
:100ED000047184F8081184F800110DE094F8007191
:100EE0000F494FB1184F81F80801D7F800E0174FAC
:100EF00081F80001C7F800E0154908683044104E39
:100F0000B6F84011B6F84261884203DBB042B4BF84
:100F100001463146D9802AE0182D4454FB2109406E
:100F2000E8170020ED0C00200A1B0020EE1A00201C
:100F30001E1B002000806640880B00201C1B002028
:100F400084240020081B0020041B0020001B00201C
:100F5000181B00200C2A0020141B002097495888D9
:100F600091F9A0619649096806FB0101598099F839
:100F7000B63053B1934BD97809B91B792BB1924B49
:100F8000B4F8CC00D9880144D980960640F1928308
:100F90008C4BDE7905961EB91A7A002A00F08583FB
:100FA0001B7BDFF820B2002B00F07F83874B1F886C
:100FB00038B20FF027FA86490FF078FA064612F099
:100FC000A9F88046304612F031F89BF810300646FA
:100FD000002B40F0858099F815917E4F7E4DB9F138
:100FE000000F4CD0DFF81CA2B7F90200BAF80230AB
:100FF000C9F100041FFA83FB1BB2C01A02F0BAF851
:10100000A04203DB4845A8BF484600E02046BAF8A6
:1010100000308344B7F900009AB21BB21FFA8BFB71
:10102000C01AAAF802B0029202F0A4F8A042029AF2
:1010300003DB4845B4BF04464C461444A4B2AAF8A6
:1010400000400FFA8BF00FF0DDF9074620B20FF0E9
:10105000D9F93146044638460FF028FA4146814610
:1010600020460FF023FA014648460FF015F95B4978
:101070000FF0D0FA0FF0E0FB288038461DE0B7F9FA
:1010800002000FF0BFF98146B7F900000FF0BAF97E
:101090003146044648460FF009FA414607462046C5
:1010A0000FF004FA014638460FF0F6F84B490FF0FE
:1010B000B1FA0FF0C1FB2880484641460FF0F6F91F
:1010C0003146074620460FF0F1F9014638460FF049
:1010D000E5F842490FF09EFA0FF0AEFB6880E9E2B6
:1010E0003F4B404A1888404B9BF813B0DB8899F877
:1010F000369106933D4BD3F808803D4B1FFA88FA92
:101100001E889368CAEB0606B6B2CAEB030A1FFA3A
:1011100086FC1FFA8AFABBF1000F06D00FFA8CF397
:101120004B45BCBF08EB090393600A2300B2584348
:101130000193CDF80CC002F01DF8019BDDF80CC046
:1011400090FBF3F000B27DB190FBF3F338B29AB2AA
:10115000C31A002BB8BF5B420A2B08DD254B1B8846
:10116000C82B88BF174602E090FBF3F7BFB2224DB1
:101170002248D5F80C316422CAEB060193FBF2F247
:101180000668D5F8143189B2F31AC72BA5F81021D7
:10119000A5F81211824640F26C820368184EC5F819
:1011A0001431B6F82C3179BBA5F81831BBF1000F1A
:1011B00040D0044B0021D9743CE000BF84240020BF
:1011C000181B0020ED0C00200A1B0020EE1A002046
:1011D00035FA8E3C521B0020481B002000002041A5
:1011E0009C190020301B0020B80D0020241B00207B
:1011F0003C1B0020881C0020E8170020442400200D
:101200000C2A00204E1B0020B6F8300109B200FB6A
:101210001130B6F82E31B6F82AE1984203DB70455A
:10122000B4BF03467346A5F81831BBF1000F01D0D7
:101230000029BEDAD71BB8B2059F9E499E4BE7B185
:10124000CA7C7AB1B6F824216FF009077A43A5F871
:101250001221B6F82A21A5F818210FFA8CF2182AC3
:10126000D8BF00201A88312A07D80FFA8CFCCC4549
:1012700003DD924A08EB09079760897C8D4A49B1E2
:101280001988092906D800215170D1748B4A08F1B8
:10129000050191601B88092B08D800B20FF0B2F845
:1012A00087490FF003F90FF0C7FA80B24FF06409D5
:1012B00000B209FB00F001F05DFF90FBF9F01FFAAE
:1012C00080F90FFA89F3002BB8BF5B42DAF800000F
:1012D000AA2BC8BF4FF0AF09D5F81C31DFF8048244
:1012E000C01A0FF08BF877490FF094F9DAF8003054
:1012F000B5F812A1C5F81C310AF103039BB2062B05
:10130000074606D8D8F8000039460FF0CFF8C8F8DD
:1013100000000A2202FB0AF292B293B2A4F8123140
:1013200018B2029201930FF06DF8D4F8241182469E
:101330000FF0BCF839460FF0B9F8D8F800100EF0ED
:10134000ADFF0FF079FA6049B0F5FA7FA8BF4FF40E
:10135000FA708842B8BF08460FF054F85B49029A09
:101360008346C8F800000888019B121A92B20B80CD
:1013700013B2002BB8BF5B42642BC8BF0022544B92
:1013800003F10A01988823F8020F8B42FAD15149E0
:1013900000230A811846CA5A023310440A2B80B22D
:1013A00001D080B2F7E700B20FF02CF8D5F8281181
:1013B0000FF07CF839460FF02DF90FF03DFA1FFAC7
:1013C00080F8D5F820115046A5F830810FF06EF85E
:1013D0000FF032FA00B20FF015F859460EF05EFF2A
:1013E0000FF02AFA1FFA89F909F103039BB2062BC1
:1013F0001FFA80FA08D8DFF8F0B03946DBF80000B1
:101400000FF054F8CBF800004FF00A0C0CFB09F970
:101410001FFA89FC1FFA8CF210B20292CDF80CC0B0
:101420000EF0F0FFDFF8C090D5F8381183460FF0CA
:101430003DF839460FF03AF8D9F800100EF02EFFBB
:101440000FF0FAF9204BB0F5FA7FA8BF4FF4FA700D
:101450009842B8BF18460EF0D5FF0346C9F8000001
:101460001D48DDF80CC00188029AC1EB0C0189B25D
:1014700002800AB2002AB8BF5242642AC8BF0021C3
:10148000164A02F10A00B2F804E022F802EF8242A2
:10149000F9D1134A4FF000091181484632F809107A
:1014A00009F102090844B9F10A0F80B21ED080B2D6
:1014B000F4E700BFED0C00208A1C0020301B002048
:1014C000CDCCCC3D00007A440CFEFFFFD81B0020A1
:1014D000DC1B0020DE1B0020DA1B0020E81B0020A4
:1014E000EA1B0020D41B0020D01B002000B2019377
:1014F0000EF088FFD4F83C110EF0D8FF39460FF0FB
:1015000089F80FF099F987B2D4F83411A4F844712E
:1015100058460EF0CBFF0FF08FF900B20EF072FFBD
:10152000019B0FFA8AFA19460EF0B8FE0FF084F903
:10153000B6F924316FF009014B439AFBF9FA0FFA1F
:101540008AFAB6F926119A4580B209FB01F903DB44
:10155000CA45B4BF53464B46B04C02B2B4F9201151
:101560006FF0090048434FF00A0E984492FBFEF2D8
:10157000AB4B1FFA88F88242A3F8028004DB0EFB13
:1015800001F08242B8BF1046BFB238441880B4F9A7
:1015900022016FF0090141438A4204DB0A214143E1
:1015A0008A42B8BF11469F4A0F44507C9F80114623
:1015B00058B194F828210FFA88F85242904503DB7D
:1015C000C845B4BF42464A465A80C97C964A69B962
:1015D00096F83261B2F900006421B6FBF1F15E8841
:1015E0000028B8BF404201FB10615980B2F90200E7
:1015F0000EF008FF4FF07C510EF058FF0FF01CF971
:101600008A4BB0F5E17FA8BF4FF4E1701A88B5F8B6
:101610001871A2F5E17320EAE0709BB2381A642BCE
:1016200087B2834E0CD910B2C0F5FA700EF0EAFE04
:1016300080490EF03BFF0FF0FFF8338818443080EC
:10164000B6F90030B4F82E21B3F5FA7FA8BF4FF4F5
:10165000FA7323EAE37333803B441BB29342B4F83A
:101660002A1103DB8B42B4BF1A460A46724BA3F819
:1016700018216C4A6A4BD17809B9117921B1927A53
:1016800052B1684A927C3AB9DDF818900022A5F868
:1016900018915A801A809A80684AB5F81811D1803A
:1016A000998893880B44938004E05D4B00221A8054
:1016B0005A809A80604B06221A6004980CF04CFC09
:1016C000F3E35F4BDB6898475E4B93F80080B8F11B
:1016D000030F14D9594BB4F94A11B3F904006FF050
:1016E00063030028B8BF40421B1A994204DB00F193
:1016F00064038B42A8BF0B46A4F84A310BE0B8F153
:10170000010F08D8504B5A791946013AD2B2172A1C
:1017100000F2D481A3E04148B4F848A190F90E1139
:10172000B4F846B1B4F94A4149424C433D49434BB0
:101730000A7C90F81E01897ACDF810A0DE88B3F8F3
:1017400004A0424D0694CDF814B007920890099178
:1017500000244445D6D230B20EF054FE29688346A8
:101760000EF0A4FE049B844618B2CDF80CC00EF017
:1017700049FEA9680EF09AFEDDF80CC001466046ED
:101780000EF08CFD059A844610B2CDF80CC00EF018
:1017900039FE69680EF08AFEDDF80CC0014660462D
:1017A0000EF07CFD84460698CDF80CC00EF02AFEA3
:1017B000E9680EF07BFEDDF80CC0014660460EF0D5
:1017C0006DFD0FF039F8DFF88890079B670029F866
:1017D0001400002B40D0089A002A3BD0099B002B14
:1017E0003AD00FFA8AF00EF00DFE84462046CDF86E
:1017F0000CC00EF003FE4FF07C510EF04DFDDDF8F5
:101800000CC0014660460EF051FE014658460EF0EF
:1018100043FD0FF011F829F807001DE00C2A002005
:10182000481B0020ED0C002058190020881C0020C7
:10183000DC1B0020CDCCCC3DE81700200A1B00208B
:1018400058010020F029002084240020BC0B002037
:10185000F229002027F809600134103579E70123C7
:1018600003FA02F2B94B13406BBBD00640F126815C
:10187000B74BB84893F9BE20B0F90240B0F9000068
:101880005443322294FBF2F4B3F8BC20A4B211B258
:101890001129DCBFB04A32F81120B04922440A8035
:1018A00093F9C820B3F8C6305043322290FBF2F0CF
:1018B0001AB2112AD8BFA84B80B2D8BF33F8123061
:1018C00003444B80FAE0A64B9B7A43B1A54B1A88A0
:1018D000ADF858205A889B88ADF85A200AE0A24BF0
:1018E000B3F84621ADF85820B3F84821B3F84A318F
:1018F000ADF85A20ADF85C309C4B974A1B88ADF888
:101900005E30B1F898311189C91AADF8601051896B
:10191000C91AADF862109189C91AADF86410D1895D
:10192000C91AADF866101188C91AADF86810518847
:10193000C91AADF86A109188D288C91AD31AADF8BD
:101940006E30ADF86C100023844900225A520233E5
:10195000102BF9D1864B15461B7804931346DDF8FE
:1019600010A0554500F08F80824E834C91198879E4
:1019700020B1824F3844007D00287ED0B05C744E88
:101980000A2707FB0067B7F8BAE0B7F8B86091F923
:1019900004B0C6EB0E06B6B206FB0BFB642791F84B
:1019A00001809BFBF7FB4FEA560C91F803E0CCEB70
:1019B0000B0B4FEA48070DF170091FFA8BFB91F8EA
:1019C00005A04F44BEF1000F03D137F8187CE75251
:1019D0001BE0E45E37F9187CDFF89C91BC4209DA21
:1019E000A644A64503DB7745B4BF3C46744629F8B8
:1019F00003400AE009DDCEEB040EBE4503DBA6453D
:101A0000B4BF7746274629F80370DFF844E14FF06A
:101A10000A0909FB00EEBEF8C0E091F902104EFA87
:101A200008F818F0010FDFF850814C4C33F90880AA
:101A30000FFA8BFB01FB08F14FF0640891FBF8F102
:101A40000CBF4FF0010E4FF0FF3E594534F81070B7
:101A50001FFA8EFE0CDB4FFA8AFB06FB0BFB9BFB8F
:101A6000F8FBCCEB0B0B0FFA8BFB8B45A8BF8B461F
:101A70000BFB0E7B24F810B000E0E0520135EDB214
:101A8000023307326BE73E4B314A03F1100492F9FF
:101A9000BE10B3F902500A324D43642195FBF1F5B3
:101AA000B2F8B210ADB208B21128DCBF2A4931F841
:101AB0001010294423F8021FA342E8D1314B9A6841
:101AC0009A4612F0200F224B3BD0B3F8BC00234CB7
:101AD00002B2112AD8BF20492546D8BF31F81200DA
:101AE000B3F8C61020800AB2112ADCBF1A4931F8B7
:101AF00012101A4A0C4669802049097A09B393F8F2
:101B0000101193F9C86011F0020F93F9BE701149DA
:101B10003AD0B1F90050B1F902106E437F424F4301
:101B20004FF0320E96FBFEF66FF03101B6B297FB26
:101B3000F1F1314497FBFEF708443E4410803444F1
:101B400054800F4A024902F1100532E089209800C2
:101B50000C2A002058190020B80D00209401002004
:101B6000ED0C00200A1B0020E8170020F2290020BD
:101B70007C0C00207D0C002034190020CC1A0020A1
:101B80009201002084240020B1F90250B1F9001024
:101B90006F434E43322597FBF5F7384496FBF5F536
:101BA00010802C44CCE722F8020FAA4201F10A016E
:101BB0000CD0B2F90240B1F9B800B1F8BA60844271
:101BC000F1DB30B2A042A8BF2046ECE793F8103119
:101BD000590705D49A499B4B0C881B7801220FE0CA
:101BE000994B9A4D9E7D0024043EA0190134C0B249
:101BF00035F8021FE4B201F0F8FB042CF5D1E9E757
:101C00009A4208D231F9120024B2A042A8BF044679
:101C1000A4B20132F4E78E4ABAF84251107C291B73
:101C200005908C4889B2B0F90600BAF8987106910F
:101C30000490DAF808108848BAF840C101F48046E8
:101C4000B0F9EAB001F010010797B0F9EC70BAF8FA
:101C500046010E911FFA8CF1BAF844E108900A91FE
:101C600050787E49BAF848819AF80590BAF89AA156
:101C70005B000D960C901FFA8EF64989507C0F93ED
:101C8000CDF800B0CDF824A00B9600230F9EB342F0
:101C90006ED022B2AA4208DD059A32B9684A069E81
:101CA00033F802A0B24423F802A00D9E644A002E2D
:101CB00036D0DDF810A0DDF81CB0DA4532F903A00B
:101CC00015DDC24503DBAA45A8BFAA4600E0C2460F
:101CD000B9F1010F22F803A041D1009A09B2914253
:101CE00003DBB942A8BF394618E0009916E0F24577
:101CF00004DB089EB245A8BFB24600E0F246B9F147
:101D0000010F22F803A02AD109B2B94205DBDDF8A0
:101D100000A05145A8BF514600E0394689B21EE0F7
:101D200032F903B0E34503DBAB45A8BFAB4600E0A7
:101D3000E34622F803B002EB030ADDF810B0099A7B
:101D400093450BDA0E9E26B9DDF828B0AAF800B04C
:101D500005E00B98AAF80000012000E000200C9A92
:101D600022B93F4A985A364A9852012002338DE7E9
:101D7000354A3A4C364B6181517D58741A460029D8
:101D80007DD0384E7379013B172B6DD8DFE803F017
:101D90000C6C6C186F6C6C1E6C6C6C6C6C256C6CC9
:101DA0006C6C6C18256C6C342B4B93F80F3113B1A1
:101DB0000020618961E050780028F9D101465CE09B
:101DC0000020218901F011FB0120F2E70020E188C9
:101DD00001F00BFB012021894FE00020E18801F098
:101DE00004FB0120218901F000FB0220618901F040
:101DF000FCFA0320A18940E00020E18801F0F5FA17
:101E00000120218901F0F1FA0220618901F0EDFA47
:101E10000320A18901F0E9FAB368104DDA072ED545
:101E20000420298801F0E1FA0520698801F0DDFA33
:101E30000620A98801F0D9FA0720E9891DE000BF32
:101E4000F2290020F0290020A40B0020BE0D002064
:101E5000ED0C0020B80D00200C2A00209401002079
:101E60007819002084240020B3689B0607D5002041
:101E7000218801F0BAFA6188012001F0B6FA00F079
:101E800065FE0C4B00221A600FE00B4B1B6813F031
:101E9000020307D1A2F85A30A2F85C30A2F85E30F3
:101EA000FEF7E2BD0127FEF7FDBD00201DB0BDE835
:101EB000F08F00BFE8170020880B0020AFF30080F0
:101EC00010B5C468A36A43B1616809B1206A03E030
:101ED000A26912B1206A0F499847E36ABBB1A168B1
:101EE00011B1206A984712E0626982B1206A0A49FA
:101EF000984760B194F824304BB9012384F824301A
:101F0000E36823B12046984708B984F824000020EC
:101F100010BD00BF41CD00084DE6000870B5174C5C
:101F2000174D002B0CBF2B46234672B1013A94008B
:101F3000002221FA04F606F00F0601329E5D851894
:101F4000043C05F8016CF4D515E089B101251C2489
:101F500021FA04F606F00F0605B126B19D5D855401
:101F60000132002500E00125043C261DF0D102E0ED
:101F7000302303700122104670BD00BF5E9201083D
:101F80006F92010830B562B1531E013821FA03F493
:101F900004F00104303413F1FF3300F8014FF5D29F
:101FA00015E089B101241F2321FA03F505F001058D
:101FB00004B125B1303585540024013200E00124FC
:101FC00013F1FF33F0D202E03023037001221046F8
:101FD00030BD074B9B788342064B02D8B3F898017B
:101FE0007047184490F88221034B33F82200704761
:101FF000000E002084240020E00D0020034B184434
:1020000090F88221024B33F822007047842400208C
:10201000B0200020034B184490F88221024B33F883
:102020002200704784240020600E0020034B1844D7
:1020300090F88221024B33F812007047842400206C
:10204000340F002010B5094A094913688C681268DA
:102050009342F8D1074A106811684FF47A725043DE
:10206000001BB0FBF1F002FB030010BD4024002078
:1020700010E000E0080B0020034B4FF4805208B141
:102080001A6170475A61704700080140034B4FF4D2
:10209000805208B15A6170471A61704700080140C8
:1020A000014B33F810007047B80D002007B50F4BF7
:1020B00002A941F8040D18684368984703680C4A60
:1020C000B3F5967FC8BF4FF0FF330193019B1360B8
:1020D000084B18680DF044FD0022074B0DF0D0FEB0
:1020E0000EF086F803B05DF804FB00BFE812002094
:1020F0004C010020302200200000594008B5094B57
:10210000B0F5967FC8BF4FF0FF301860064B1868D7
:102110000DF026FD0022054B0DF0B2FE0EF068F822
:1021200008BD00BF4C0100203022002000005940B3
:10213000034B184490F88221024B33F81200704789
:1021400084240020F8220020014B0D221A707047D1
:102150006801002003789B070AD5826C831883F8F6
:102160005811C36B0132B2FBF3F103FB11238364FB
:102170007047037813F001030BD0426C036C9A4252
:1021800005D09CBF806B1218D31AD8B270470020BC
:10219000704718467047037810B513F001030446E2
:1021A0000FD0FFF7E6FF68B1236CE21892F85400F5
:1021B000A26BC0B2013A934234BF013300232364BF
:1021C00010BD184610BD826CC06C121A50425041AE
:1021D00070470170704770B50B780446012B08D02A
:1021E000052B59D14B78012B56D8314A0020D361A9
:1021F00070BD4B782F4D022B1BD0122B4CD100F110
:102200003801D1E9000100222B4B0DF039FE0DF011
:10221000CFFF2A4B00221880274BD4E910010DF084
:1022200005FD0DF0C5FF264B18802B7843F0020307
:1022300031E090F859302349C3F30003DAB2CB728E
:1022400002B319A3D3E9002300F12001D1E9000171
:102250000DF0ECFC0DF084FF13A3D3E900231A4E1C
:102260003060D4E90A010DF0E1FC0DF079FF174B65
:1022700094F8582070601A70D4E90C010DF098FFA2
:10228000134B1880A36C134A1360134BE26C1A6053
:102290002B7843F001032B70064B00201A78032A99
:1022A00004BF1870012070BD00000000D01263410F
:1022B000E40F00205419002000002440881C002056
:1022C0009C190020ED0C0020401B00205023002012
:1022D0003C1B0020301A0020341A0020032970B55E
:1022E00004462B4D1BD00A2946D100F13001D1E91B
:1022F00000010022274B0DF0C3FD0DF059FF264BC6
:1023000000221880234BD4E90E010DF08FFC0DF054
:102310004FFF224B18802B7843F002032BE090F8FC
:1023200051301F49C3F30003DAB2CB7202B316A3D4
:10233000D3E9002300F11801D1E900010DF076FC8A
:102340000DF00EFF10A3D3E90023164E3060D4E940
:1023500008010DF06BFC0DF003FF134B94F85020B7
:1023600070601A70D4E90A010DF022FF0F4B18803B
:102370002B7843F001032B702B780020032B02D124
:10238000034B1870012070BD00000000D0126341A3
:102390005419002000002440881C00209C190020B3
:1023A000ED0C0020401B0020502300203C1B00208F
:1023B0000A4B10B553F8200000244268138823F01C
:1023C00001031B041B0C138083681C8003681980A5
:1023D00013889BB243F00103138010BD0C0D002045
:1023E000024B53F820301B68198070470C0D0020F9
:1023F000074BA1F57A7153F820304FF47A701A68C0
:102400009B894B4393FBF0F39BB21380704700BF53
:102410000C0D00200120704701207047054A064B33
:10242000128808B11A6100E05A61044B00221A7048
:10243000704700BF001E0020000C014088200020D3
:1024400008B502F10062084602F5F8311A460DF0AF
:10245000BFF9012008BD038B02899A4288BF83829D
:10246000838A03837047C28A838A934224BF018987
:102470005218D31A9BB2581E80B27047426B08B5EF
:1024800012B15368984708BDC069FFF7ECFFC0B2AE
:1024900008BD828AC38A9A423CBF00891218D31AA7
:1024A00098B2704770B503790446C3F34103012B1A
:1024B0000D4606D0022B33D1FFF7EBFF628B13469C
:1024C00018E0C38A808A0022834229D02169CE5C29
:1024D000A17E8E4201D1AA421FD8218901339BB22D
:1024E0008B4228BFC1EB030302F1010228BF9BB25C
:1024F00092B2E9E79D4202D913449BB2FAE78342C4
:1025000008D2E28A134422899BB29342E38205D324
:102510009B1A02E0854203D8A38AE382012070BDA2
:10252000002070BD70B5858A03890135ADB2AB421C
:1025300098BF0025C38A0446AB420E4607D101214D
:10254000FFF7B0FF18B9054B04221A7070BDA28ABC
:10255000236901209E54A58270BD00BF4C2B002032
:102560000346406910B588B102685A611A69026071
:1025700002B150609A6800F10804013218619A6053
:10258000204600211A6814F08DFB204610BD10B5BE
:1025900011E90C00A1F108040BB11A6000E002611E
:1025A00051F8082C02B15360436941F8083C0023FC
:1025B00041F8043C83684461013B836010BD09B16C
:1025C0001030E4E77047002330B5054618469AB24C
:1025D0008A4217D2EA5C80EA0220082210F4004FF7
:1025E0004FEA400418BF84F4815002F1FF3218BF53
:1025F00080F0010092B214BF80B2A0B2002AEDD1E7
:102600000133E4E730BDF0B585B001AF0D460646B5
:102610001446384600210B2214F044FB65B3002217
:10262000531C092D99B209D90A20B5FBF0F100FB22
:1026300011503030B8540D461A46F1E704A8024450
:10264000303502F80C5C14B1A14203D300242644B7
:102650001A4609E0641AA4B2002291B28C42F6D064
:102660003021B1540132F8E7013AB95C06F8011B98
:10267000002AF9D118190AE028460130331830220F
:1026800003F8012C1CB1013CA4B2002CF5D105B01B
:10269000F0BD2DE9F74F07460E469046002498F806
:1026A0000030002B00F0F980252B40F0F180002352
:1026B0001D4618F8012F642A3AD017D8392A06D8AF
:1026C000302A25D2252A40F0E5803A55E1E0622AF9
:1026D00025D000F2D980582A40F0DC8032683819C1
:1026E000131D3360116801232A4650E06C2A01D182
:1026F0000123DEE704D8662A4CD0692A18D0C9E045
:10270000752A2DD0782A35D0732A40F0C3809EE0F8
:102710000A214D43303AADB21544ADB2C9E7326833
:102720003819131D116833602A46FFF72BFC1FE090
:1027300032681168131D0029336008DA2D2304F173
:1027400001093B5549421DB1013DADB200E0A14632
:1027500007EB09002A46FFF756FF09EB000499E052
:1027600032683819131D116833602A46FFF74BFF92
:1027700004448FE0326838192BB1131D336011689F
:1027800000232A4603E0111D316011682A46FFF735
:10279000C5FBEDE7336807EB0409073323F00703B4
:1027A00003F10802D3F804A032601A68514601927E
:1027B0001046002300220DF0ABFC30B12D233B5519
:1027C0000AF1004A4FF0010B00E0834651460198A0
:1027D0000DF0EEFC0346194609EB0B0000220093B6
:1027E000FFF711FF584480B22E2209F80020009B09
:1027F00000F1010B18460DF0A3F902460B460198B3
:1028000051460DF05FF81FFA8BFB002D08BF06251F
:1028100002460B464FF0000A104619460022214B93
:102820000DF004FA0AF1010A1FFA8AFAAA450246D3
:102830000B46F1D10DF0BCFCD94401465246484646
:10284000FFF7E1FE58441FFA80FB5C4422E0336846
:102850001A1D3260D3F80090B9F1000F1AD0484623
:1028600014F0A4FB03197E2B054607EB040003D8E4
:10287000494614F03DFB05E0C4F17F0549462A4670
:1028800014F0EEFB2C4405E033681A1D1B6832601F
:102890003B55013408F1010801E73B5503B0BDE8A1
:1028A000F08F00BF000024400EB403B503AB53F813
:1028B000042B02A941F8043DFFF7EBFE02B05DF8DE
:1028C00004EB03B0704770B5054C05462368984784
:1028D000064623689847801B80B2A842F9D370BD92
:1028E000FC090020034B19681A68521A92B28242FE
:1028F000FAD3704744240020013A2DE9F8430C46EE
:10290000072A30D8DFE802F004080C12191E22262C
:1029100003880B8043880DE043880B80038803E025
:1029200003885B420B8043885B4203E043885B4241
:102930000B8003886380838814E003885B420B80EC
:1029400043880CE043880B80038808E003880B80F1
:10295000438803E043885B420B8003885B426380CB
:1029600083885B42A380304B1B78002B5AD1B4F98B
:1029700000000DF047FD8046B4F902000DF042FD65
:102980000746B4F904000DF03DFD284D06462968C0
:1029900040460DF08BFDE968814638460DF086FD16
:1029A000014648460DF07AFCA969814630460DF093
:1029B0007DFD014648460DF071FC10F06DFB696825
:1029C000208040460DF072FD2969814638460DF0A1
:1029D0006DFD014648460DF061FCE96981463046CF
:1029E0000DF064FD014648460DF058FC10F054FB14
:1029F000A968608040460DF059FD696980463846F7
:102A00000DF054FD014640460DF048FC296A07468A
:102A100030460DF04BFD014638460DF03FFC10F0FE
:102A20003BFBA080BDE8F88317000020600B00206E
:102A300008B5436B0BB15B69984708BD426B08B59D
:102A400012B1D368984702E04268043090470120F1
:102A500008BD034BDA6882F01002DA60704700BFED
:102A6000000C0140024BDA6882F00802DA6070471D
:102A7000000C014008B5024B1B68984708BD00BF19
:102A8000502B002009B1012000E00846F2E72DE9B3
:102A9000F0410F88002347FA03F2D2072BD58A783A
:102AA00003F0070512F0100F18BF91F803C002F0F1
:102AB0000F0618BF46EA0C06AD004FF00F0C0CFADB
:102AC00005FC06FA05F5DC0850F82480282A28EAD7
:102AD0000C0C45EA0C0540F8245005D101229A401F
:102AE000C46824EA020205E0482A04D101229A407F
:102AF000C4682243C2600133102BCCD1BDE8F08101
:102B000038B500240E4D21460E4870222C7014F06A
:102B1000C9F821460C4B0B4493F9D2207AB10948ED
:102B200053F8D04F0A180C5098889B79073193714D
:102B30002B78702903F1010390802B70EAD138BD06
:102B40007C0C00207D0C00208424002010B5002483
:102B5000094B1B78A3420DD9084B33F81410084BCE
:102B60001B78A34203D9074B20461B6898470134C2
:102B7000E4B2EDE710BD00BFF0290020F2290020EB
:102B80000B0D0020B40D00202DE9F04F0C68836878
:102B900089B0D0F800A0D0F8048006462046039300
:102BA0008B4610F043FA0746204610F0B3FADBF8E4
:102BB00004408146204610F039FA0546204610F0C0
:102BC000A9FADBF8082004461046019210F02EFA0C
:102BD000019A8346104610F09DFA394602905846F5
:102BE0000DF064FC3946049002980DF05FFC5946E4
:102BF000059048460DF05AFC0299069048460DF0A3
:102C000055FC2946079058460DF050FC01465046A9
:102C10000DF04CFC2146834606980DF047FC01461A
:102C200005980DF03BFB014640460DF03FFC014688
:102C300058460DF033FB2146834604980DF036FCD0
:102C4000014607980DF028FB014603980DF02EFC75
:102C5000014658460DF022FB3060029905F1004014
:102C60000DF024FC014650460DF020FC2146834621
:102C700007980DF01BFC014604980DF00DFB014672
:102C800040460DF013FC014658460DF007FB214667
:102C9000834605980DF00AFC014606980DF0FEFAF1
:102CA000014603980DF002FC014658460DF0F6FA75
:102CB0002146706050460DF0F9FB2946044609F1A3
:102CC00000400DF0F3FB014640460DF0EFFB0146DE
:102CD00020460DF0E3FA3946044628460DF0E6FB9F
:102CE000014603980DF0E2FB014620460DF0D6FAAE
:102CF000B06009B0BDE8F08F2DE9F84F384E0446BA
:102D00003768384610F092F90546384610F002FA56
:102D100076688046304610F089F98346304610F0D8
:102D2000F9F9D4F804900646294648460DF0BEFB52
:102D3000A7688246414638460DF0B8FB014650462A
:102D40000DF0AAFA2168824658460DF0AFFB4146C5
:102D5000044648460DF0AAFB31460DF0A7FB01469C
:102D600020460DF09BFA3146044638460DF09EFB96
:102D700029460DF09BFB014620460DF08FFA0146D7
:102D8000504610F057FA17490DF090FB0CF0FAFE80
:102D900011A3D3E900230DF073F8134B0446D3F8C5
:102DA000B0000D460CF0EEFE02460B4620462946CA
:102DB0000CF08AFD00220D4B0DF062F80DF018FAB0
:102DC00010F06AF983B2190444BF00F5B4739BB2E2
:102DD00018B2BDE8F88F00BF182D4454FB210940FC
:102DE000881800200000E144180000200000244062
:102DF00080EAE073A3EBE0738B4206DB002801DD81
:102E0000401A704702D0084470470020704770B5E0
:102E10000546441E14F8011F61B1074E304613F0F9
:102E2000EDFF0028F6D0861B0448631B304480F871
:102E30008231EFE770BD00BFCA97010884240020EB
:102E400070B540F26C55284613F06AFC044660B336
:102E5000174E4C213068C3699847024610B330685A
:102E60002146066A2B46B047E0B123784C2B19D196
:102E70006388AB4216D12379BE2B13D194F86A35FF
:102E8000EF2B0FD100231A4640F26C518B4203D036
:102E9000E15C01334A40F7E722B9204613F048FCD1
:102EA000012070BD204613F043FC002070BD00BF20
:102EB000E4170020024B1A6810431860704700BFE7
:102EC000880B00202DE9F04102780346202A00F10A
:102ED0000100F9D0092AF7D02D2A02D10346414D2D
:102EE00004E02B2A08BF03464FF07E551E460024FF
:102EF000334616F8012BA2F13007F9B209290DD893
:102F0000394920460DF0D2FA044638460DF07AFAD7
:102F1000014620460DF0C2F90446E9E72E2A17D1F2
:102F2000314F334616F8010B3038C2B2092A0FD898
:102F30000DF068FA39460DF06DFB014620460DF0A4
:102F4000ADF92949044638460DF0B0FA0746E8E7DE
:102F50001A7802F0DF02452A38D15A782D2A02D198
:102F60000233012604E02B2A14BF0133023300266A
:102F7000013B002713F8012F303AD1B2092903D8B9
:102F80000A2101FB0727F5E7B7F59A7F28BF4FF421
:102F90009A77B8464FF07E51B8F1070F07D9084627
:102FA00012490DF083FAA8F108080146F4E707F08A
:102FB000070737B108460C490DF078FA013F014682
:102FC000F7E72EB120460DF025FB04E04FF07E51CF
:102FD00020460DF06BFA014628460DF067FABDE871
:102FE000F08100BF000080BF0000204120BCBE4C2B
:102FF00070B50646B6FBF2F40846154614B12046F5
:10300000FFF7F6FF05FB1464024B1B5D00F8013B64
:1030100070BD00BF8092010890F85B3210B57BB99B
:1030200090F85A3290F85922934209D201219940DE
:10303000B0F8604201332143A0F86012DBB2F3E73D
:1030400010BD90F862321BB1D1F1010138BF0021EF
:10305000D0F854315A689B6809B1136170475361C5
:103060007047F8B5101A0C461F460DF0CBF905460F
:10307000381B0DF0C7F9184B079E19680DF016FAAA
:103080002946044628460DF011FA214607462046F7
:103090000DF00CFA014638460DF000F910F06AFA0E
:1030A0000E490DF003FA0DF0C7FB069B2146186090
:1030B00005F1004010F0BEF809490DF0F7F9094993
:1030C0000DF0ECF80DF0B8FB0028BCBF00F50C408B
:1030D000A0303060F8BD00BF6C0100202C7D8E3F19
:1030E000A00CB34500A00C4610B50DF08BF90021E3
:1030F00004460DF097FB08B1204601E004F10040C2
:1031000005490DF087FA05490DF0D0F90FF08EFF53
:10311000034B186010BD00BF8096184B35FA8E3CEB
:103120006C01002038B50C4DEB7AA3B10B4B1B782A
:10313000042B10D90A4B0B4C18685B682060636045
:10314000FFF7D2FF084B1A88084B1A80084B1B88E0
:10315000A36001232B7338BDED0C00205023002009
:10316000401B0020241B0020EE1A0020022000201B
:103170003C1B002044F25063984203DDA0F50C4054
:10318000A0387047034B9842BCBF00F50C40A030FC
:10319000704700BFB0B9FFFF70B52D4C2D4D607961
:1031A0000DF02CF92C490DF035FA2860E07B0DF07C
:1031B00025F929490DF02EFA284E6860EE60A079B5
:1031C0000DF01CF926490DF025FA264D2860207CCB
:1031D0000DF014F920490DF01DFA6860A07E0DF085
:1031E0000DF921490DF016FAEE60A860E0790DF0B6
:1031F00005F91B490DF00EFA1C4D2860607C0DF09E
:10320000FDF815490DF006FA6860E07E0DF0F6F85D
:1032100015490DF0FFF9164BA8601B7CEE60ABB1B1
:1032200020790DF0EBF80E490DF0F4F9114D2860FE
:10323000A07B0DF0E3F808490DF0ECF96860207E02
:103240000DF0DCF808490DF0E5F9A86070BD00BF8D
:103250000C2A0020D41F00200000C8420000FA44BD
:1032600000002041E41F002000007A441C190020C7
:10327000ED0C0020081900202DE9F0472F4A00230B
:1032800092F82050D47F03FB03F01938684300F60E
:10329000C4105843604340F6C41190FBF1F0284934
:1032A00021F813000133072BEDD192F82110254BA3
:1032B0000A274F43B3F84051B3F8429192F8226085
:1032C000C1F1640C48425FFA8CFCC6F16408C5EB9E
:1032D000090980B2002384B222B2002A04DC002C47
:1032E00014BF0C46012400E0644602FB02FA64436A
:1032F0000AFB06FA9AFBF4F4444454434FF00A0ADA
:1033000094FBFAF43C4424B204FB09F44FF47A72BF
:1033100094FBF2F40C4A2C449C5202335044182B78
:1033200080B2D8D1054BBDE8F0471B78012B18BF00
:10333000064A074B08BF074A1A602DE70C2A0020EF
:10334000B818002084240020D0180020658E0008C2
:1033500064010020D19000080449054B096800224F
:1033600018701A615961DA601A7670474424002097
:10337000E40F00200A4B1B7883B10A4B9A8998818D
:103380001A89D007FCD5074B9889C0B2054B1A891A
:103390009107FBD51A891206FCD47047184670476E
:1033A0001A0B002000380040054B1B7833B1054B49
:1033B0004FF4805208B15A6170471A61704700BFDC
:1033C0001A0B0020000C014038B5044601200D46C0
:1033D000FFF7EAFF2046FFF7CDFF2846FFF7CAFFB9
:1033E0000020FFF7E1FF012038BD054B1B78834229
:1033F00004D9044B53F820301B681980704700BF74
:103400003C0D0020400D002003280E4B09D80E4A29
:1034100012888A4205D2012202FA00F05A7810433B
:1034200058705B780F2B0BD1064B00225A70074B5C
:10343000198808B2142802DD1439198070471A80DF
:10344000704700BF5419002048010020E81A0020EE
:103450002DE9F34700F12407044638460D46FEF7F0
:10346000FAFF24238DF800304D238DF801303E23E0
:103470008DF802302B7800263846694605228DF8F3
:1034800003608DF804300BF0B6F830B19DF80430CD
:10349000A4F84A6084F8483008E0A38F2387A38DFE
:1034A000A387AB4B1A780AB904221A702B78772BB2
:1034B00000F03A8200F264816A2B00F0A18400F2ED
:1034C0009C80452B00F0CF8718D8422B00F06887EE
:1034D00009D8402B00F0AF87412B08BF002300F034
:1034E000B68700F0D2BF432B00F0C386442B40F0D8
:1034F000CC87984B01221A7000F0CBBF662B00F0EE
:10350000478372D8642B00F01A83652B40F0BD8787
:10351000914B2046198809F0C5FF904B2046198829
:1035200009F0C0FF8E4B20461B68C3F3C001C3F3F4
:103530008002890041EA4201C3F340021143C3F310
:10354000401241EAC20103F01003194309F0AAFF37
:10355000844A1579D378AD0045EA430553781D4375
:10356000937945EAC305537945EA4315537A45EA09
:1035700083157D4BD97945EAC115197A45EA0125AC
:10358000597A45EA4125D17945EA8125117A45EAFA
:10359000C125117D927A45EA016545EA02355A7BDB
:1035A000002145EA42359A7B45EA82351A7C45EA94
:1035B00002451A7945EA02155A7C45EA42459A7C49
:1035C00045EA8245DA7C45EAC2451A7D45EA02555C
:1035D0005A7D45EA42559A7DDB7D45EA825545EAAA
:1035E000C355624B987F0B46BAE2682B00F0FA8312
:1035F00000F2FC8320465E49F6E3702B00F06984FC
:103600003FD86D2B00F0308412D86B2B00F01C8457
:103610006C2B40F03A87554D2046298809F042FF2F
:103620002046698809F03EFF2046524B00F023BC3B
:103630006E2B00F022846F2B40F027874E4D2046E2
:10364000E97F02F0C7FA95F82010204602F0C2FA8E
:1036500095F82310204602F0BDFA95F82510204673
:1036600002F0B8FA95F82610204602F0B3FA95F861
:103670002110204602F0AEFA204695F8221000F004
:10368000D7BE732B00F07B845AD8712B00F04E818B
:10369000722B40F0FA86394D2046B5F8981109F0A2
:1036A00001FFB5F84011204609F0FCFE324EB5F896
:1036B0004211204609F0F6FEB5F84411204609F003
:1036C000F1FEB6F80A11204609F0ECFE95F8AB11B0
:1036D000204602F07FFA95F8AC11204602F07AFA03
:1036E00095F8AD11204602F075FA95F87C11204648
:1036F00002F070FA95F8A111204602F06BFA002151
:10370000204602F067FAB6F92A100A2391FBF3F17A
:1037100089B2204609F0C6FE95F87D11204602F0D8
:1037200059FA95F87F11204602F054FA95F87E1167
:10373000204602F04FFA204695F8801100F078BE3E
:10374000752B00F0D98300F223840025EBE300BF42
:103750004C2B0020D81D0020582B00201C0B0020D3
:10376000880B0020ED0C0020CC1A002058190020F6
:1037700094010020EE1A00200C2A0020842400204E
:10378000CF2B00F0558100F29380C82B00F0D08041
:1037900054D8A02B00F0E78448D8782B00F028827A
:1037A0007B2B40F07286964B964D93F8A0112046E5
:1037B00002F010FAB5F82011204609F073FEB5F8B2
:1037C0002211204609F06EFEB5F82411204609F0BA
:1037D00069FEB5F82611204609F064FEB5F82A11F5
:1037E000204609F05FFEB5F82C11204609F05AFE7C
:1037F000B5F82E11204609F055FEB5F830112046D7
:1038000009F050FE95F83211204609F01BFE95F89C
:103810003611204602F0DEF92046002109F012FEA2
:103820002046002109F00EFE00F026BEA42B00F079
:10383000A684A62B00F0FC8400F027BECB2B71D011
:1038400009D8C92B00F09180CA2B40F01E866E4B20
:1038500003F10A01AFE0CD2B00F03D8400F2458476
:10386000AB6813F8012BAB60664BDA77AA6812F8E5
:10387000011BAA6083F82010AA68511CA960517826
:103880000232AA6083F82510AA6812F8011BAA6008
:1038900083F82610AA6812F8011BAA6083F8211089
:1038A000AA6812F8011BAA6083F8221000F0F1BD8B
:1038B000D82B00F0518217D8D22B00F0268107D8E0
:1038C000D02B00F0FF83D12B00F0BC8300F0DDBDD6
:1038D000D42B00F0AE81C0F02B81D62B08BF002680
:1038E00000F0098100F0D1BDF12B00F0C4810CD8AB
:1038F000EF2B2FD0F02B40F0C885424D2046E98DAC
:1039000009F0D0FD2046A98D9BE2FA2B00F0F5834B
:10391000FE2B00F0FC83F22B40F0B785384B03F10F
:103920007001D2E100265AE000251FE30025E9E2FC
:103930000026284608F0D5FF344B98530236102E47
:10394000F7D1334B00221A80324B18680AF004FB7F
:1039500000F09FBD284608F0C4FF2A4EF085284697
:1039600008F0BFFFB08500F094BDAB68284613F89F
:10397000012B294EAB60294BDA72AB6813F8012B8F
:10398000AB60274B1A7008F09DFF3060284608F0A6
:1039900099FF7060284608F0A4FF224B1880284643
:1039A00008F09FFF204B1880204B1A7942F002024A
:1039B0001A7100F06EBDAA68013312F8010B8B4238
:1039C000AA605870AA6812F8010BAA60D872AA6897
:1039D00012F8010BAA605875EDD100F05ABD134BD7
:1039E0009A7F964280F055850533284616F8038065
:1039F00008F077FF034B013603EB8803D864EEE74A
:103A0000842400200C2A00200B2A0020B80D00205E
:103A1000E81A0020040D0020401B0020ED0C0020BF
:103A2000502300203C1B0020881C00205819002037
:103A3000284608F056FF6FF4AF63BC4EC318C62B80
:103A400098BFA6F89801284608F04BFFA6F8400159
:103A5000284608F046FFA6F84201284608F041FF34
:103A6000A6F84401284608F03CFFDFF8E882AB687E
:103A7000A8F80A0113F8012B2846AB6086F8AB21A1
:103A8000AB6813F8012BAB6086F8AC21AB6813F878
:103A9000012BAB6086F8AD21AB6813F8012BAB604E
:103AA00086F87C21AB6813F8012BAB6086F8A12166
:103AB000AB680133AB6008F014FF0A235843AB68CE
:103AC000A8F82A0013F8012BAB6086F87D21AB68BB
:103AD00013F8012BAB6086F87F21AB6813F8012B3C
:103AE000AB6086F87E21AB6813F8012BAB6086F8DB
:103AF000802100F0CEBC284608F0F3FE8C4B985392
:103B00000236102EF7D100F0C4BC8A4B5A78002A36
:103B100040F0BF84AB68002013F8011BAB60834BFF
:103B2000022994BF83F8681583F868250146EBE203
:103B3000284608F0D6FE804B188000F0AABCE7218A
:103B4000204602F047F8794B2046597902F042F8B6
:103B50000421204602F03EF82046784900F092BC4D
:103B600083420CD2764A9E5C012202FA06F62E426D
:103B700018BF9A4003F1010318BF1143F0E7204634
:103B800009F060FC694B204693F8681500F050BCC2
:103B90006C4B0025B3F89C306B4EB3F5806F0CD99D
:103BA000715F082391FBF3F1204689B2023509F0D9
:103BB00079FC062DF4D1002507E0715B2046023523
:103BC00009F070FC062DF8D1F5E7604B2046595BF3
:103BD000023509F067FC062DF7D100255C4B204625
:103BE000595B023509F05EFC062DF7D100F051BC9F
:103BF000584D05F15006B5F8B810204609F052FCB2
:103C0000B5F8BA10204609F04DFCB5F8BC102046B6
:103C100009F048FC95F8BE10204601F0DBFF0A359C
:103C2000B5F8B610204609F03DFCB542E3D100F0EE
:103C300030BC484E06F15008284608F052FEA6F85F
:103C4000B800284608F04DFEA6F8BA00284608F04D
:103C500048FEA6F8BC00AB68284613F8012B0A36CC
:103C6000AB6086F8B42008F03CFEA6F8B6004645E6
:103C7000E2D100F00EBC2D4D05F1700695F8D01084
:103C8000204601F0A7FF95F8D110204601F0A2FFD1
:103C900095F8D210204601F09DFF95F8D3102046EC
:103CA00001F098FF95F8D410204601F093FF95F8A5
:103CB000D510204601F08EFF073595F8CF1020462D
:103CC00001F088FFB542D9D1E3E3AA68073312F8BF
:103CD000010BAA6083F8C900AA6812F8010BAA6058
:103CE00083F8CA00AA6812F8010BAA6083F8CB0017
:103CF000AA6812F8010BAA6083F8CC00AA6812F82F
:103D0000010BAA6083F8CD00AA6812F8010BAA6023
:103D100083F8CE00AA6812F8010BAA6083F8CF00DE
:103D20008B42D2D1FEF7ECFEB3E300BF8424002027
:103D300078190020ED0C00201C1B00200C0000C096
:103D40005D190020180000204A1C00209019002056
:103D5000961900200C2A0020AB68284613F8012B86
:103D6000A04EAB60A04B83F8A02108F0BAFDA6F8E6
:103D70002001284608F0B5FDA6F82201284608F0E3
:103D8000B0FDA6F82401284608F0ABFDA6F82601F0
:103D9000284608F0A6FDA6F82A01284608F0A1FD4D
:103DA000A6F82C01284608F09CFDA6F82E0128460E
:103DB00008F097FDA6F83001284608F083FDAB68AF
:103DC000284613F8012BAB6086F8362108F07AFDFF
:103DD000284608F077FD284608F074FD284608F0CC
:103DE00071FD56E381492046102288E00025804B72
:103DF0002046595B023509F055FB102DF7D148E3F9
:103E00007C4B2046D97A01F0E5FE7B4B7B4D19783F
:103E1000204601F0DFFE2968204609F013FB69689F
:103E2000204609F00FFB764B2046198809F03AFB33
:103E3000744B2046198809F035FB734B2046B3F8C4
:103E4000441009F02FFB24E3704B2046198809F039
:103E500029FB6F4B2046198809F024FB6A4B20464A
:103E6000197901F00101E3E26A4B2046196809F073
:103E7000E9FA694B20461988E3E7684B2046B3F915
:103E800000104FF6FF7581F30801C9B201F0A2FEE0
:103E9000634B20461968A942A8BF294621EAE1716F
:103EA00089B209F0FFFA5F4B2046198809F0FAFA47
:103EB0004D4B93F87C215C4B19680029B8BF4942EF
:103EC0000AB10A235943A942A8BF2946204689B20C
:103ED000B7E7564D05F10A0601356978204601F02D
:103EE00079FEE97A204601F075FE2046697D01F0F1
:103EF00071FEB542F0D1CCE24D492046302204F0AB
:103F00000DFAC6E2404B9A7F954280F0C28205339B
:103F1000EA5C344B204603EB8203B3F84C1009F003
:103F2000C1FA0135EEE7384B9A7F954280F2B182B3
:103F30000533EB5C3E4A0C2101FB03235E6B01352C
:103F4000304613F033F8314682B2204604F0E6F9E9
:103F5000E9E70C33B3F5967F07D0364A1A44127A54
:103F60008A42F6D1204601F035FE0135264B9A7F74
:103F7000954280F08E820533E95C0023EDE7012550
:103F8000E9B22046013501F025FE092DF8D180E285
:103F9000AB6813F8011BAB6009B9274B02E010298D
:103FA00003D1264B1E685D6801E000252E462046A1
:103FB00001F010FE3146204609F044FA2946204619
:103FC00009F040FA1E4B2046196809F03BFA00211F
:103FD000204609F067FA0021204609F063FA2046DE
:103FE000002125E20C2A002084240020F229002050
:103FF000B80D0020ED0C002050230020401B0020B5
:104000003C1B0020881C0020581900208A1C00201E
:104010008C1C0020041B0020501C00202C1C0020A5
:10402000401C0020E61A0020341C00200B2A00202F
:10403000A0800108D0800108241B0020301B002034
:10404000001B0020AB68284613F8018BAB6008F01A
:1040500039FC8246284608F035FC8146284608F09F
:1040600031FC0646284608F03CFC284608F039FC9E
:10407000AB680133AB60B8F1000F0FD1B44B012234
:10408000C3F80490C3F800A0B24B83F807801A73FA
:10409000002E00F0FE81B04B1E60FAE1B8F1100F67
:1040A00040F0F781AD4BC3F800A0C3F804900EB107
:1040B000A94B1E60A948AA4B0222011D1A7009F0E3
:1040C0001BFAE6E1A34B5B78002B40F0E281012074
:1040D00005F07CFCDDE19F4B5B78002B40F0D98143
:1040E000A04B4FF4C8721A80D3E19A4B5A78002A39
:1040F00040F0CF8101229A73CBE1964B5B78002B85
:1041000040F0C3810020012105F068FBC1E1964B1E
:1041100096499A89964B32B10A20B2FBF0F0098891
:10412000821A0A4400E00A88A3F84620914A92487D
:1041300012790068A3F84820904A00251168904A37
:10414000B1FBF2F1B0FBF2F24FF47A7000FB012206
:10415000A3F84C208B4B2046595B023509F0A2F99D
:10416000082DF7D195E1884D2046296809F06AF9B4
:104170006968204609F066F92046A96882E17C4E0C
:10418000204696F84E900025494601F023FDB046A2
:104190004D4517D27D4E2046715D01F01BFD06F1A5
:1041A0002003595D204601F015FD06F14003595DDD
:1041B0002046603601F00EFD715D204601F00AFDDB
:1041C0000135E5E7684B93F8AB31012B40F0618195
:1041D0006F4A002392F8B850104688F84E50AB4210
:1041E00002F1010215DA694992F8B86092F8C8E064
:1041F0005E5401F1200603F806E092F8D8E001F1E0
:10420000400603F806E092F8E86060315E5401333E
:10421000E5E7D0F8FC300022C8F8D030D0F8003103
:104220003021C8F8D4300120134603F0BBFA30E146
:10423000584B20461E684E4D16F0200609D000212E
:1042400009F000F9D5F8D410D5F8D0302046C91AB5
:1042500004E0314609F0F6F82046314609F0F2F85C
:10426000D5F8D810204609F0EDF82046D5F8DC1036
:1042700008E1AB683C4E13F8012B2846AB600023E5
:104280007271B36008F01EFBB368DFF81091184339
:10429000AB68B06013F8012B2846AB6086F8942118
:1042A00008F01FFBA6F85601284608F01AFBA6F8EE
:1042B0005801284608F015FBA6F85A01284608F0D0
:1042C00010FBA6F87801284608F00BFBA6F87A0147
:1042D000284608F006FBAB68A6F84E0113F8012B40
:1042E0002846AB6089F82320AB6813F8012BAB603C
:1042F00089F82420AB6813F8012BAB6086F8812184
:10430000AB6813F8012BAB6089F8492008F0E9FA93
:10431000B2898046904213D01F4B2AB148B1186829
:10432000414609F08BFE09E018B1186803214246A6
:1043300002E018680121642209F0E8FFA6F80C8069
:10434000AB6813F8012BAB6089F83020A1E000BF07
:10435000241B0020ED0C0020001B0020301B00203F
:10436000201B00204E2B002084240020582B0020EE
:104370005819002058240020F8090020F4090020D2
:1043800040420F009E190020E8090020A7190020D4
:1043900008100020880B0020CC1700200C2A0020D9
:1043A000504D2046697901F015FCA968204609F0B6
:1043B00049F895F89411204601F00CFCB5F8561117
:1043C000204609F06FF8B5F85811204609F06AF850
:1043D000B5F85A11204609F065F8B5F8781120466D
:1043E000414E09F05FF8B5F87A11204609F05AF805
:1043F000B5F84E11204609F055F896F823102046DE
:1044000001F0E8FB96F82410204601F0E3FB95F854
:104410008111204601F0DEFB96F84910204601F09C
:10442000D9FBA989204609F03DF896F830102046BE
:1044300001F0D0FB2DE000252A4B20462B4493F8B9
:104440008211013501F0C6FB082DF5D121E0AA68E3
:1044500012F8011BAA60234A1A440133082B82F880
:104460008211F4D115E00025204B2046595D01351D
:1044700001F0B0FB0B2DF7D10021204608F0E2FF40
:104480002046002108F0DEFF03E02046294601F027
:10449000C7FBA28FA38D033292FBF3F103FB112321
:1044A000616BB4F84A203846CA5494F8481094F81E
:1044B0004A30594084F84810FEF734F8A38D28B1EB
:1044C000A3876368D86909F047FD07E0A28FA38737
:1044D000074B22871A780AB904221A7002B0BDE885
:1044E000F08700BF842400200C2A0020A592010838
:1044F0004C2B00202DE9F04FAE4E85B0B368AE4F87
:1045000013F0080803D1AD4C4546A14631E0002424
:1045100039E0AB4BE8B21B689847A0F2EE2240F2BC
:10452000DC5392B29A4288BFA24BD9F8902088BF40
:10453000B3F89801A34B1340002B03DA013B63F05F
:10454000030301339D4A03EB850322F813002288FD
:10455000638801351344A2880834134434F8022CCC
:1045600013441BB2042293FBF2F327F8083008F13E
:10457000020896F8AA319D42CBDBD9F8903001337E
:10458000C9F890300BE096F8AA319C4207DA8C4BC0
:10459000E0B21B68984727F814000134F3E7B368CA
:1045A000864C13F4804F04D094F894300BB903F088
:1045B00097FE96F8A1217F4BE2B1033237F9120042
:1045C000B3F8A251B0F57A7003D4A842A8BF284628
:1045D00000E000200BF016FF804628460BF00EFF8F
:1045E000014640460CF016F877490BF05FFF0CF0DF
:1045F00049F914E093F8A40190B1744AD179744A4E
:1046000032F81120B3F8A81192B2521A9002B3F8FE
:10461000A631801A90FBF3F000B280F30A0080B25A
:10462000B368A4F8AE0013F4024F63D0634B694D36
:10463000B3F8B09095F80831052253430FFA89F882
:1046400098453ADD644B5A789B46002A35D0594B41
:10465000B3F898313B807B80BB80B5F80A31FB8092
:104660005E4B1A789A46032A05D95D4803F0C2F9D1
:1046700003238AF8003095F8082195F8093113448E
:1046800005225343984513DD9BF812B0BBF1000F90
:104690000ED103F025FE504B83F800B09AF800309D
:1046A000042B05D94F4803F0A5F94C4B04221A708E
:1046B000B4F8B2300133A4F8B23095F808310522CD
:1046C0005343984512DD444D95F80180B8F1000F31
:1046D0000CD103F005FE85F80080404D2B78042BAB
:1046E00004D9404803F086F904232B7009F101092D
:1046F000A4F8B0900022B6F89A11B6F89C5113466F
:10470000B85E9B088842C4BF63F07F03DBB202320D
:10471000A842B8BF43F04003082AF1D194F8B4008E
:10472000264A984205D192F8B500F92804D80130FC
:1047300000E0002082F8B50084F8B430B3681D4A68
:1047400013F48048234DB7F906300AD0B2F8981117
:10475000B2F84C21881A834206DD0A44934206DBF4
:1047600002E08B4203DB17E04FF0000814E0002367
:10477000C4F8C431C4F8C831C4F8CC31C4F8C0306E
:10478000C4F8C430EB6C2BB10C4B93F89430002B75
:1047900040F07C834FF00108EB6C43B394F8943005
:1047A0002BBB0D4B5B7813B396F89F31E3B103F04D
:1047B00097FD1CE084240020B80D0020381A00204A
:1047C000DC0D00200300008000C07F444C0B002063
:1047D000540B00200C2A0020ED0C00206801002062
:1047E000088201081B820108B8F1000FDFD194F89C
:1047F000B5208C4B142A40F0A6808B4A5078914605
:10480000C0B1EA6C2AB993F8B4305F2B01D103F040
:1048100067FD96F89E31002B00F09580EB6C002B25
:1048200040F0918094F8B4307D2B40F08C8003F000
:1048300057FD88E093F8B420572A15D17B4B4FF4ED
:104840007A721A80B368DB0501D5FEF76BFC784BF2
:104850001B68580702D5774A0A21118013F0080314
:1048600034D1A4F8B63031E0B168490725D55A2AC9
:1048700023D193F8B8202AB1012283F8B80083F835
:10488000B92023E093F8BA20DFF8C0A182F001023A
:1048900083F8BA209AF8003032B10A2B16D966484C
:1048A00003F0A8F80A2305E00B2B0FD9634803F0A7
:1048B000A1F80B238AF8003008E05D2A00F0EE82B0
:1048C0005B2A00F0ED825E2A00F0EC82EB6C33B9DB
:1048D00094F8B4206F2A02D10AF0DAFB15E096F8BA
:1048E0009E2122B11BB994F8B4307E2BF4D094F8F9
:1048F000B430972B04D1524B4FF4C8721A8004E0A5
:10490000A72B04BF012389F80E3094F8B430BB2BD9
:1049100002D1EB8D023303E0B72B03D1EB8D023BC9
:10492000EB8509E0BE2B02D1AB8D023303E0BD2B3A
:1049300009D1AB8D023BAB850120014604F04EFF4F
:10494000002384F8B530B068420731D594F8BA2016
:10495000344B8AB1344A527872B13A4AB7F90610E8
:10496000B2F89A21914207DD93F8942022B93221BE
:10497000A3F8BC1083F8BA2094F8A520294B62B1A3
:1049800093F8BE202AB993F8B82012B93222A3F8BE
:10499000BC20012384F8BE300AE093F8B8203AB175
:1049A000214A527822B983F8B820012283F8B9202D
:1049B000254B002193F8149001220B464B4547DA12
:1049C00007EB43052D8940F2A46A0FFA85FCD44514
:1049D00002F1010BD4BF4FF0000A4FF0010A0AFAAE
:1049E0000BFA40F2135BDC454FF0030B0BFB03FBB0
:1049F000A5F21555ADB2CCBF4FF0000C4FF0010C35
:104A0000B5F5C77F0CFA0BFC8CBF0025012595403E
:104A10004AEA0C0C4CEA050C41EA0C010133033262
:104A2000CCE700BF381A0020ED0C0020C61700208C
:104A3000880B0020C81700201E820108238201086D
:104A40004E2B002084240020A40B002068010020AD
:104A500000239D4D9D4A05EB8309D9F84C9002F146
:104A6000940C11EA090F0CBF4FF000094FF0010937
:104A700003F80C900133192BA946EAD192F8AC3017
:104A8000934D2B7523B1012382F89F3082F8963025
:104A900094F895308F4A53B98C4B4FF0050CB3F90D
:104AA000B01099F808310CFB03F399421DDD116831
:104AB0008B071AD5EB7843B9C4F8C030C4F8C430BA
:104AC000834B4FF0010C83F803C0000410D599F814
:104AD00008314FF0050C0CFB03F3B4F9B000984219
:104AE00006DD890604D5012301E00023EB70AB74D9
:104AF00094F8963075495BB10023EB702B7943B97C
:104B0000C1F8C030C1F8C430714B0121197100E007
:104B10002B7194F894300BB901232B7095F803C0D6
:104B20006D4BBCF1000F02D16949097911B1102117
:104B3000596101E01021196111684B0725D594F8DE
:104B40009720624B9AB1A87990B9614A4FF0010A57
:104B500082F806A0D3F8CC20C3F8DC00C3F8C82044
:104B6000B3F8D820C3F8E000A3F8D02000E0AA7181
:104B7000B368980409D594F898302BB1EB7B23B92E
:104B8000534B0122DA7300E0EB7311F00A0F20D0CF
:104B900094F899304D4A4BB16B7943B94C4B012095
:104BA0005871B2F8B630A2F8E43000E06B7194F8B6
:104BB0009A302BB16B7A23B9454B01225A7200E02F
:104BC0006B7294F89B20414B1AB1B3F8B620A3F84E
:104BD000E620890640F1F280EA7A3D4B002A00F097
:104BE000E8803E4A1278042A40F2E38094F9E820F3
:104BF00032B11A7922B9BCF1000F01D10122DA7069
:104C000094F89E20314BDFF8DCA01AB9AA7CDFF8BB
:104C1000C0B0CAB1EB79DFF8B8B0002B40F0B78074
:104C20002F480122011D8BF808308AF801308BF8DB
:104C30000720019208F060FC022384F8E830B4F801
:104C40000431C4F800313BE08BF8072093F89F2033
:104C5000002A49D0B3F9D210B9F81C210029B8BFF5
:104C60004942914240DAB3F9D4100029B8BF494211
:104C7000914239DA9BF80820002A40F08880D3F866
:104C800008114FF0010CC3F8F810D3F80C1103F120
:104C9000F800C3F8FC1003F1FC018BF808C08AF897
:104CA00001200393CDF808C0019208F025FC039B76
:104CB000DDF808C0B3F8041183F8E8C0C3F80011A8
:104CC000019A8BF8132062E00C2A0020381A002089
:104CD000ED0C0020880B0020000C01405023002028
:104CE000241B0020680100209AF8011000232B7279
:104CF00000294CD1764B01225A708C46754B00220C
:104D000003F588702CF8002003F58B702CF8002038
:104D100003F58D702CF8002003F5907B002041F8FE
:104D20000B008B44CBF80420CBF8080003F5A47BE0
:104D300041F80B008B44CBF80420CBF808000CF1B1
:104D4000020C03F5B87B41F80B00BCF1040F8B4457
:104D5000CBF80420CBF8080001F11401CED1297C56
:104D600011B90023EB7412E0C3F89801C3F89C0159
:104D7000A3F8A021A3F8A221A3F8A4215649002357
:104D800053520C31535202320A2AF7D1E9E79AF80A
:104D900000300C2B12D994F8BE317BB94F4802F089
:104DA00029FE4B4B0C221A704A4B012283F8BE217C
:104DB00004E00023EB712B7284F8E83094F8A03003
:104DC0002BB1AB7C1BB9464B01229A7201E0002348
:104DD000AB72297C424B31B3B26800209205587205
:104DE00021D599F808214FF0060909FB02F2B4F920
:104DF000B0C0944517DD0122DA703A4A9872B2F8D1
:104E0000980182B23A807A80BA80374AB2F80A2191
:104E1000FA80DA7A3AB9354F3F78052F03D89A7479
:104E2000334B32381880B2682E4BD2064BD56A7895
:104E3000002A48D0002946D1B8F1000F1FD02D49D3
:104E4000D4F8C02109684AB993F876314FF47A72E0
:104E500002FB03121F4BC3F8C02106E08A4204D2B2
:104E600093F876310BB103F03BFA194C2378092BF8
:104E700029D9214802F0BEFD0923237023E0D4F88C
:104E8000C03103B3134BC3F8C0811CE0144B1B7833
:104E9000002B3FF47FAC0AF0FBF87BE4012202E038
:104EA000022200E003225FFA82FA00200AF1FF33B7
:104EB000014686F8683504F091FC0220282152460C
:104EC00004F01CFC02E5002005B0BDE8F08F00BF37
:104ED00068010020381A0020DE1B00202A82010809
:104EE000ED0C0020842400200C2A002050230020F8
:104EF000B80D0020442400201B8201082DE9F04F4A
:104F00007A4C87B0A3689B0740F19580784D794B28
:104F100006221F882B681F442B792F600133DBB2D8
:104F2000B3FBF2F62B7102FB163313F0FF0667D1C9
:104F3000DFF81092D5F808A099F80130DFF8088260
:104F400050464FF0785138F813B00BF0AFFA0146E5
:104F500050460BF0A1F91FFA8BFB824658460BF026
:104F600051FA65490BF0A2FA64490BF053FB8346F2
:104F700094F87D010BF046FA014658460BF096FA7C
:104F8000014650460BF08AF94FF07851A8600BF0BB
:104F90008DFA0BF077FC94F88131A88183B399F8EE
:104FA0000530B4F8781138F8132040F6E44392B293
:104FB0005A4340F6FF73B2FBF3F2B4F87A31286932
:104FC000D21A4FF47A735A43B2FBF1F2082190FBE4
:104FD000F1FECEEB000002442A6192FBF1F257434E
:104FE000D5E9060197FBF3F3C01841EBE3716A6161
:104FF000C5E90601424A00230BF064FC2E602862DA
:10500000404AAB8912889A4208D33F4D2B78012B36
:1050100011D93E4802F0EEFC01230BE03C4A128815
:105020009A4208D3384D2B78022B04D9394802F024
:10503000E1FC02232B70384E737B5BB3324D2B782F
:10504000082B27D9A368DF051FD5344BDB7AE3B1E2
:10505000334B1878042818D90023324905275A18E9
:105060005F540F275770122B03F10207FAB204D0D6
:10507000B0EB520F3B46F0D800E014220A44642300
:105080005370F0239370274800E0274802F0B2FCE9
:1050900008232B70254B1A881AB1254B1B689807DB
:1050A00007D4244B1B8823B9234B1B780BB107F083
:1050B000B5F8224B1A7832B1214A0D4C1378002BE7
:1050C00000F01683C5E2A268084B1105F4D51A4A10
:1050D0001278002AF0D093F8BB21002A3CD193F833
:1050E000BC319BBB0D4B5B7831E000BF84240020BA
:1050F000201C0020582B00203333534000F07F4504
:10510000407E05005E0B00206801002045820108FA
:105110005C0B002048820108CC1A0020ED0C002016
:1051200050230020081C0020398201084E2B00204B
:10513000880B0020C6170020C4170020602B002019
:10514000542300204C0B0020540B0020337D0033EF
:1051500018BF0123002BAFD094F8BA31002B40F0D8
:105160006A81C44BD868FDF789F9002840F0638153
:10517000C14AC24D1368696A591A7C2940F25B81A1
:105180006B6295F828300746013385F8283007F11F
:105190002400BA4EC0B202F0D9FB06F12A0333F95B
:1051A00017000BF02FF9B64B8046B3F89C000BF0BC
:1051B00029F9014640460BF02DFAB2490BF076F979
:1051C0000BF03AFB013700B202F0ECFB032FDED10B
:1051D000302002F0BBFBB6F9300002F0E3FB02F036
:1051E000C3FB96F8280010F0030828D1102002F025
:1051F000ADFB736B642793FBF7F000B202F0D2FBB8
:10520000212002F0A3FB736B93FBF7F007FB103731
:1052100087EAE770A0EBE77000B202F0C3FB14204E
:1052200002F094FB984BB3F9000002F0BBFB1C208A
:1052300002F08CFB404602F0B5FB02F095FB95F8BE
:1052400028308E4E5A0740F0D080022002F07EFBBC
:10525000B6F938000A2790FBF7F002F0A3FBA36829
:105260009B075FD5B3894FF06E0808FB03F8152341
:1052700098FBF3F81FFA88F83A204FF0640902F01F
:1052800065FBB8FBF9FB0FFA8BF002F08BFB3B20C0
:1052900002F05CFB09FB1B8080B20530DFF8F8816F
:1052A00090FBF7F000B202F07DFB98F80030B28975
:1052B00040F6340192FBF3F24A432A21B2FBF1F2A9
:1052C000718F062091FBF3FB03FB1B1B4FEA0B1BAB
:1052D0001FFA8BFB4BEA022B1FFA8BFBC2F3032254
:1052E0004BEA020B02F032FB0FFA8BF002F05AFB92
:1052F000728F98F80030013292B292FBF3F103FB07
:1053000011232820738702F021FB706990FBF7F0CE
:1053100000B202F047FB042002F018FBB6F92000AF
:1053200002F040FB594B1B6898065CD5584FDFF8DC
:105330006C813B68574E002BB8BF5B4293FBF8F182
:1053400006FB01334FF03C0909FB03FA13200391DC
:1053500002F0FCFA039964229AFBF8FB02FB01B00D
:1053600000B2039202F01EFB1B2002F0EFFA06FBD4
:105370000BA34FF47A7B93FBFBF000B202F012FB1D
:10538000232002F0E3FA38680028ACBF4E205320F7
:1053900002F008FB7B681220002BB8BF5B4293FB36
:1053A000F8FA06FB0A3309FB03F902F0CFFA039A75
:1053B00099FBF8F802FB0A8006FB089800B202F09D
:1053C000F1FA1A2002F0C2FA98FBFBF000B202F0E8
:1053D000E9FA222002F0BAFA78680028ACBF45202A
:1053E000572002F0DFFA02F0BFFA95F82830282B98
:1053F00021D1224B002283F828201F4A4FF47A73D0
:1054000017683C25B7FBF3F7172002F09FFAB7FBAC
:10541000F5F6B6FBF5F005FB1060000200B202F0F5
:10542000C1FA182002F092FA05FB167000B202F0E1
:10543000B9FA02F099FA94F8BA31012B7FF43CAE34
:105440000C4CE068FDF71AF800283FF435AEE4682C
:10545000636B23B19B6820469847054636E0A368F6
:10546000201DEBB10DF117019847003018BF012046
:105470002BE000BFA40B002044240020201C0020AF
:105480001800002000007A44EE1A0020880B00204B
:10549000401B0020806967FF16000020809698005E
:1054A000E2697AB101210DF1170002F085FA054693
:1054B000E069FCF7EEFF638D834205D8206A08F0AF
:1054C0004BFD01E0104600E02846C5B20520FDF77F
:1054D00009FA8A2D31D08E2DB2D1AE4C00212E2268
:1054E00004F16E0011F0DEFB7C2384F86E30E023C3
:1054F00084F871307D2384F89A30A38984F86F5042
:10550000DAB21B0A84F88D3084F88330142384F8CF
:10551000863084F887304FF4FA73A4F88830482333
:10552000A4F89030782384F88C2084F8822084F8C2
:10553000923004F16E002E2188E0974B1B6899068B
:105540007FF57EAF934C002104F13C002C2211F03A
:10555000A9FB7C2384F83C30A02384F83F307D23D2
:1055600084F867308D4B84F83D501B7884F85630B2
:105570008B4BDB7A002B64D08A498B480A688B4EB0
:1055800092FBF0FC5FFA8CFC06FB0C2706256F43B0
:10559000662384F86530D30F84F8453042F21073E7
:1055A000B7FBF3FE03FB1E77496884F8487091FB54
:1055B000F0F03F0AC0B284F84970CF0F06FB00112B
:1055C0006943B1FBF3F503FB151384F84D301B0A57
:1055D00084F84E30B4F8683064225FFA8EFEE9B287
:1055E00002FB0CEE02FB0011B3FBF2F224235A4340
:1055F000B4F86A301FFA8EFE84F84F301B0A84F824
:1056000050306B4B89B21B8892B284F851301B0A20
:1056100084F85230B4F86C3084F846E084F84B10CB
:105620004FEA1E2E090A84F84320120A84F847E044
:1056300084F84A7084F84C1084F8442084F8583078
:1056400002E0202384F865305A482C2108F074FBCE
:10565000F6E600231370D4F8A420C4F8A430136233
:105660009362D362544B1E68544B1D78002D3FD17A
:1056700001272946642204F5AA701F7011F012FB5D
:1056800084F854710720009529464D4A04F5AA7301
:1056900007F004FB04F5AA77C4F87C0108B1494B74
:1056A0000360802002F016F93A4DC4F87801F8B191
:1056B000331DC5F87431444B7762F362434B0120CC
:1056C0003363202110F0ECFFC5F8840118B9404B7A
:1056D00003221A700CE0202385F883313D4B3E48AD
:1056E000C5F8AC313D4B0021C5F8B03105F060FA8A
:1056F00094F8B83123B10AF053F8394A394BDA60DB
:105700003948D0F884300BB138499847384A224D8F
:10571000138813B12B689A0702D4364B1B8813B138
:10572000FDF7A0F90AE01E4B9A7812B1324A08211F
:1057300011615B7813B1304B08225A6194F8B9318A
:1057400023B1144A013B82F8B9310BE0144B5A7B68
:105750001AB99A70FDF786F901E001229A700923BF
:1057600084F8B9312B689B0610D594F8BA3123B16F
:10577000084A013B82F8BA3108E0084B1B78042B39
:1057800001D9FDF766F9022384F8BA31002007B089
:10579000BDE8F08F201C0020880B00205023002043
:1057A000ED0C0020401B0020A08601006079FEFF68
:1057B0003C1B00205C1C0020A40B0020602B002060
:1057C000A9AA000880930108BDE30008A55F0008AE
:1057D0004C2B0020888401088993010884930108D8
:1057E0000400FA0500ED00E018000020581C00201D
:1057F0004E2B0020C6170020000C014070B5514A06
:1058000088B005460E461068516801AB03C301AC71
:1058100085BB4D48294605F0CBF94C4C013500209D
:105820004B492A4605F0E2F9B4F9B820002049496D
:1058300005F0DCF9B4F9BC200020464905F0D6F9A2
:10584000B4F9BA200020434905F0D0F994F9BE20FC
:105850000020404905F0CAF93F48002105F0A8F9A9
:10586000082D04F10A04D9D13B48002105F0A0F924
:105870003A482BE030683A4911F076FA08B1002432
:105880001FE0324B4FF47F72A3F8B8204FF4FA6256
:10589000A3F8BA20A2F5FA72A3F8BC20225C01306A
:1058A000082883F8BE2003F10A03EBD146E0052C5B
:1058B00010D056F824000DF07FFA03AB43F8240013
:1058C0000134AC42F3DB052C04D02648002105F05E
:1058D0006FF933E0039A013A072A27D80498A0F514
:1058E0006173B3F5966F21D80699A1F56173B3F58D
:1058F000966F1BD8059BA3F56174B4F5966F15D808
:10590000079C04F16405C82D10D898420EDC8B4228
:105910000CDC0E4D0A2606FB0255A5F8B800A5F8CA
:10592000BA10A5F8BC3085F8BE4003E00E4800214F
:1059300005F03EF901200021FFF760FF002008B0CC
:1059400070BD00BF4E820108C19301080C2A0020DF
:10595000EA930108F093010810990108F4930108F3
:1059600010940108169401085F9401082DE9F04F86
:10597000814685B009B180F82C1002238DF80730DC
:1059800004238DF80630674B1B68012B06D104A950
:105990004FF4805321F80C3D634806E007DD04A96D
:1059A0004FF48043614821F80C3DFDF770F8322038
:1059B000FCF798FF4FF00006012363F301065C4CEF
:1059C000042363F384060021F2B2206901F0E6FCAF
:1059D000032001F0A1FC6420FCF784FF484602A9E3
:1059E00006F05EF900254FF00A0AA8462F4601226C
:1059F0000221206901F0D2FC3220FCF773FF02A9DA
:105A0000484606F04DF9BDF90820BDF90A10BDF968
:105A10000C3015449142B8BF0A461F449A42B8BFA1
:105A2000134613F5805F884407DDFDF712F8BAF1DD
:105A3000010ADCD14FF0010A01E04FF0000A022315
:105A400063F3010620690021F2B201F0A7FC4FF0D8
:105A50000A0B01220221206901F0A0FC3220FCF790
:105A600041FF02A9484606F01BF9BDF90820BDF91F
:105A70000A10BDF90C30AD1A9142B8BF0A46FF1AA0
:105A80009A42B8BF134613F5805FC1EB080805DDE5
:105A9000FCF7DFFFBBF1010BDBD101E04FF0000AA7
:105AA00028460AF0AFFC014622480AF0B3FD20F078
:105AB0000040206040460AF0A5FC01461D480AF05F
:105AC000A9FD20F00040606038460AF09BFC0146CA
:105AD00019480AF09FFD06F09C0220F000400021CA
