:020000040800F2
:100000000050002065290108052A010835F2000882
:10001000052A0108052A0108052A01080000000038
:10002000000000000000000000000000052A010898
:10003000052A010800000000052A01089DF00008BB
:10004000052A0108052A0108052A0108052A0108D0
:10005000052A0108052A0108052A01088DE600087D
:10006000052A0108052A0108052A0108052A0108B0
:10007000052A0108052A0108052A0108052A0108A0
:10008000052A0108052A0108052A0108052A010890
:10009000052A0108052A0108052A010889E6000841
:1000A000052A0108052A0108052A01087BE600083F
:1000B00071E6000865E6000859E6000831F200081C
:1000C00029F200082DF2000825F20008052A01088F
:1000D000052A010845F00008E9EF000885EF00084F
:1000E000052A0108052A0108052A01080000000068
:1000F0000000000000000000000000000000000000
:0C01000000000000000000005FF808F1A3
:100110002DE9F04F7A4C9DB023780690062B01F222
:10012000A886DFE813F007001000100010009C0400
:100130002706B20A734B1B689847734B73491A68BA
:100140001860821A0A8023786D4D012B1E4600F03C
:10015000E9801DD3022B40F062846A4B6C4F1B6810
:100160009847D5F880300646C31A184604930FF016
:10017000E1FF684B0790596910F034F8C5F88060CA
:1001800097F831600890059600263546B246BDE1E5
:10019000604BA81C9B68984705F10208002800F0F6
:1001A00058845D4B05F1500A1A889946002A00F0E0
:1001B0009880002708353E46B9F80020574BB2F525
:1001C0007A7F049207D10A20A3F13C0100FB0611BB
:1001D0000022DA510A61DA5938F906000244DA518C
:1001E0000FF0ACFF2B690133012B2B6104D10023ED
:1001F00068602860AB602AE0D5F800C001936146D2
:10020000CDF80CC002900FF0E3FE019B8346184628
:100210000FF094FF0146584610F098F8DDF80CC036
:10022000014660460FF0D6FE029A03461946686002
:10023000104601930FF0CCFE014658460FF0D2FF56
:10024000A9680FF0C7FE019BE8602B60A86000233F
:1002500028F806302AF80630049B012B34D128698F
:10026000012807DD01380FF069FF0146E86810F04A
:100270006DF800E0002012F0A5FF294B834693F8AB
:10028000660190B10FF05AFF0146584610F066F92A
:1002900058B14FF47A73A9F800300023A361E362E8
:1002A0002364E364A36463640EE01C4B4FF47A722E
:1002B000FB580A2003F5FA7393FBF2F32AF8063091
:1002C0000F21012206F03DF90236062E07F1040740
:1002D00005F114057FF470AFB9F80030013BA9F8BF
:1002E0000030002338F803003AF80310044A411A9A
:1002F00028F803100233062BF4D101F0AABD00BF89
:10030000C81C00206C0900200C300020E4200020D4
:10031000D02E0020280B0020AE1C00200C1D002039
:10032000482900209A4B05F156001B6A984756351C
:10033000002800F08E83974F974E3888002844D0CD
:1003400000231A46DFF87C82B0F5C87F04BF002185
:1003500048F8021035F9039058F80210DFF868C227
:10036000494448F80210002106EB0309E952023320
:10037000062BDFF82482A9F86A1102F10402E1D108
:1003800001281FD1DCF85C304FF4C872C83393FBEE
:10039000F2F3A8F86A31DCF86030C83393FBF2F36B
:1003A000A8F86C31DCF86430C83393FBF2F27B4B75
:1003B0001B88D21A7A4BA8F86E219985D9850146F7
:1003C00006F02EF93B88013B3B80B268724B520726
:1003D00077D574490A888846322A13D1B3F86A114E
:1003E000A4F86810B3F86C11B3F86E31A4F86A1071
:1003F000A4F86C306A4B998DDB8DA4F86E10A4F8CC
:10040000703001E0002A3DD000231946322A664FA1
:1004100004BF0020785035F903C078586044785004
:10042000002006EB030CE8520233062BACF86A01FD
:1004300001F10401EAD1012A1FD15C4B5C4D187017
:100440005C4B1A702B780A2B04D95B4808F040FDEE
:100450000A232B70B4F86830B4F86E20A6F86A311D
:10046000B4F86A30A6F86C31B4F86C30A6F86E3186
:100470004B4B9A85B4F87020DA85B8F80030013B10
:10048000A8F800304D4A1378DBB10023616F137078
:10049000322291FBF2F1A6F86A11A16F91FBF2F101
:1004A000A6F86C11E16F91FBF2F23C490888121A30
:1004B000A6F86E2101203A4A01469385D38506F0BD
:1004C000AFF8B4F85620B6F86A31D31AA4F856300B
:1004D000B4F85820B6F86C31D31AA4F85830B4F8F0
:1004E0005A20B6F86E310226D31AA4F85A30B0E278
:1004F00009F1540935F8092028F80520304A043656
:10050000AA5E0235062D02FB02AA61D0DFF8BC907C
:100510000DF1400B39F905000FF010FE08990FF0AE
:1005200061FE059A4BF80600DFF89480002ADFD0C0
:1005300010460FF003FE01464FF07E500FF006FF0D
:100540000246114609F1820B4FF07E5002920FF0E5
:100550003FFD56F80B100FF045FE09F15409844693
:1005600039F90500CDF80CC00FF0E8FD029A1146EC
:100570000FF038FEDDF80CC0014660460FF02AFD92
:100580004BF806000FF0F4FF28F80500B6E700BFAF
:10059000280B00201230002048290020780000207D
:1005A000D02E0020B41F00203C1D0020B61F0020CC
:1005B00094000020B01F0020967E0108B11F00208B
:1005C0000E210020241D0020C81C0020CA1C002071
:1005D000B14A6425128805FB0AF3524393FBF2F5F6
:1005E000493DAE4810A9ADB20DF0E4F93B2D6ED9EE
:1005F000AB4BD4F89850B3F900000FF09FFD0146C3
:1006000028464FF001060FF0A9FF00B90646A54B9A
:100610002946D4F894005E7312F034FC0646C4F800
:100620009C00D4F89000D4F898A000F10045D4F8CC
:10063000940001460FF0D6FD5146814650460FF01A
:10064000D1FD014648460FF0C5FC12F0BBFD014646
:10065000284612F017FC0546C4F8A00030460FF0FB
:100660002DF989A3D3E900230FF07CF90FF05CFC8E
:1006700012F03AFBDFF85092A9F8000028460FF07C
:100680001DF981A3D3E900230FF06CF90FF04CFCA6
:1006900012F02AFB844BA9F802001B681B0764D5E3
:1006A00010A982480DF086F9814B4FF0000BB3F88A
:1006B00064010FF03FFD4FF07E5182460FF08AFC3F
:1006C00001464FF07E500FF041FE81462DE0784B01
:1006D0004FF00009B3F862010FF02CFD4FF07E518E
:1006E00006460FF077FC01464FF07E500FF02EFECD
:1006F0000546DFF8A8A130465AF819100FF072FD30
:100700006C4B834633F909000FF018FD014658463B
:100710000FF060FC29460FF065FD4AF8190009F159
:100720000209B9F1060FE4D162E7604B504653F875
:100730001B1001930FF056FD5F49024631F90B0083
:1007400002920FF0FBFC029A014610460FF042FCA9
:1007500049460FF047FD019B43F81B000BF1020BCC
:10076000BBF1060FE1D118463FE0DFF850A110A918
:1007700050460DF01FF9DAF80000DAF804300146AF
:10078000DAF8089001930FF02DFD019B834619467E
:1007900018460FF027FD014658460FF01BFC49464E
:1007A000834648460FF01EFD014658460FF012FCE6
:1007B00012F008FD002181460FF0A8FEA0B9DAF87A
:1007C000000049460FF0C2FD4946CAF80000DAF8B9
:1007D00004000FF0BBFD4946CAF80400DAF808002F
:1007E0000FF0B4FDCAF8080034480DF09BF9344B03
:1007F0003449188007980FF0F5FC314B814606F11B
:100800000046B3F9000005F10045139614950FF06A
:1008100095FC00F100400FF051F81DA3D3E900232F
:100820000FF0A0F80FF080FB1590B8F900000FF062
:1008300085FC1690B8F902000FF080FC1790B8F90B
:1008400004000FF07BFC13A9189016A80DF0B2F865
:1008500097F84830012B39D1124B5B7873B9D4F833
:10086000B030402093FBF0F0181A0FF067FC189995
:100870000FF0B0FB0FF07CFEC4F8B000D4F8B0303D
:10088000402093FBF0F023E03B597E90A9E78140A4
:10089000399D52A246DF913F78000020581D00206C
:1008A000900B0020ED0C0020880B00206C1D002018
:1008B000482900200E210020541E00208400002022
:1008C000AE1F0020BD378635301E0020B84B18887B
:1008D0000FF034FC014618980FF07AFBB54B1890D6
:1008E000196848460FF076FB014648460FF02EFD8A
:1008F000D4F8B4608046314618980FF069FB014681
:1009000040460FF06FFC014630460FF063FB064691
:10091000C4F8B4001698D4F8B88012F0E5F997F846
:1009200033100DF079F94044C4F8B8001798D4F8A2
:10093000BC8012F0D9F997F833100DF06DF94044EE
:10094000C4F8BC003046D4F8C08012F0CDF997F856
:1009500032100DF061F9984B049E1A6840443244FD
:100960001A60D4F8C430954D0133C4F8C43097F8F8
:10097000B630C4F8C000002B4FD0D5F89000D5F8A1
:10098000948001460FF02EFC4146074640460FF08A
:1009900029FC014638460FF01DFBD5F89860074644
:1009A000314630460FF01EFC014638460FF012FB70
:1009B00012F008FC014630460FF0C8FC804906469C
:1009C0000FF0B8FD18B10023A5F8C83025E0304677
:1009D00012F006FA7B4B19680FF004FC12F084F950
:1009E000B0F5617FA8BF4FF461700EF055FF6EA3A4
:1009F000D3E900230FF0E0F80FF096FA12F0B2F905
:100A0000714B064693F8B6000FF098FB31460FF095
:100A1000E9FB12F069F9A5F8C800032619E06B4B51
:100A20005B79012B6A4B0DD1B5F9CA10B5F90620D7
:100A300002EB4102032192FBF1F292B29A80A5F8F7
:100A4000CA2001E0EA889A80628804261A80A28877
:100A50005A80069F012326707B7001F00ABA5D4B15
:100A60005D4A197C584BA1B9B2F906101A8D914212
:100A70003CDBB1F5FA6F93F8264007DA891A4C434C
:100A8000A2F5FA6294FBF2F4643430E0C4F1640439
:100A90002DE0B2F906101A8D91420FDB4F4AB2F9E0
:100AA000061093F82620914208DDB1F5FA6F02DABC
:100AB000891A4A435212C2F1800200E0802248495A
:100AC000B1F90210142909DD93F82600B1F5967FDB
:100AD000A8BF4FF496714143A2EB212293F8264020
:100AE000C4F18004A242A8BF144600E06424374A3F
:100AF00093F8B050B2F8989192F95C2193F8B160F4
:100B0000524293F8253092B200212F480792CDF837
:100B1000149008930A46304BDDF814A0CB5E40F2E7
:100B2000E6370493CAEB030303F2F31CBC4503D876
:100B3000002BB8BF5B4201E04FF4FA73022ADFF8E2
:100B40009C8051D025B1AB42CCBFC5EB0303002341
:100B50006427DFF868A093FBF7FC0AEB4C096FF001
:100B6000630B0BFB0C3BB9F8CC900AEB4C0CBCF9BB
:100B7000CEA00FFA89FCCCEB0A0C0CFB0BFC9CFB07
:100B8000F7FCCC4428F801C090F823C003FB0CFC10
:100B9000144B9CFBF3F33B449BB2634393FBF7F78B
:100BA00039E000BFAFF30080A2EB0FE5DD16964001
:100BB000780000209C0B002018300020C81C00206A
:100BC0008FC2753C980B0020D02E002048290020B1
:100BD0004E1E0020ED0C002088120020CA1F0020AD
:100BE000301E00200CFEFFFF26B1B342CCBFC6EB87
:100BF00003030023DDF81CB0DDF820C003FB0BF776
:100C0000002BB8BF5B4203FB0CF3A8F80470B64F8F
:100C100093FBF7F76437B54B90F80B90134493F8B8
:100C2000018007FB09F907FB08F86423DFF8F8C225
:100C300098FBF3F802F80C8099FBF3F90CF1030828
:100C400002F8089090F815800CF1060C07FB08F7E5
:100C500097FBF3F702F80C70049B059FBB42A44F6F
:100C600002DA7B5A5B427B520132032A01F1020114
:100C700000F101007FF44FAF9E4BB3F906209E4B6D
:100C8000B3F89A319A4205DBB2F5FA6FA8BF4FF478
:100C9000FA6200E01A46D21A4FF47A714A43C3F559
:100CA000FA63B2FBF3F36425944A93FBF5F102EB8C
:100CB00041006FF0630606FB0133B0F8E40002EB7D
:100CC0004101B1F9E66001B2711A4B4393FBF5F5AE
:100CD0008B4B28445B7A864CF8809046002B44D09E
:100CE000884BB3F90000884BB3F90030C01A0EF0FE
:100CF000D3FD7BA3D3E900230EF034FE0022834B07
:100D00000EF05AFF0FF010F9054611F0B7FF064636
:100D1000284612F027F80546B4F902000FF00EFA43
:100D20000746B4F900000FF009FA314681460FF08A
:100D300059FA2946824638460FF054FA0146504681
:100D40000FF046F90FF014FC3146208038460FF0C2
:100D500049FA2946064648460FF044FA014630460D
:100D60000FF038F90FF004FC6080052388F800309C
:100D700000F087BC664BDFF874911A6812F0080522
:100D800039D05B4988880F4600F145039BB28A2B16
:100D900060495C4B2DD85A4E96F805C0BCF1000F47
:100DA00027D0B3F800C00B88767BC3EB0C0189B267
:100DB0008BB20FFA83FC1CF1B30FBCBF01F5B47307
:100DC0009BB219B2B3294C49C4BFA3F5B4739BB20B
:100DD00091F85C117EB149B249424B4399F8091030
:100DE0001BB24B436FF01D0193FBF1F31844B88025
:100DF00001E01B880B80570740F1A380404B997995
:100E0000002900F09E801E7C394B002E40F090801F
:100E100099F8B300404F99F8B21068B3B3F806C020
:100E2000B7F900000FFA8CF7C0EB0708B8F1000F14
:100E3000B8BFC8F10008884510DD8742DFF8EC80B4
:100E4000C8BF4942C8F800601FFA8CFC4FF0010689
:100E5000C8BF89B284F8FC6061443FE094F8FC109C
:100E600031B12E490F682E490F60244981F8FC608A
:100E70002C490968084426E0B7F90060B3F9067008
:100E8000BF1B87EAE77CACEBE77C8C450ADD0221DF
:100E900097FBF1F70121C4F8007184F8041184F87C
:100EA000FC100DE094F8FC7014494FB11B4F81F811
:100EB0000401D7F800C01A4F81F8FC00C7F800C041
:100EC0001849086830440C4EB6F84011B6F8426133
:100ED000884203DBB042B4BF01463146D98030E0DE
:100EE000182D4454FB2109400CFEFFFFD02E00209A
:100EF000CA1F00208812002048290020C81C00209A
:100F0000ED0C0020AE1F0020DE1F00200080664098
:100F1000880B0020DC1F0020C81F0020C41F0020F9
:100F2000C01F0020D81F0020A21D0020D41F0020B9
:100F30009549588891F9A0619449096806FB010117
:100F4000598099F8B63053B1914BD97809B91B79CA
:100F50002BB1904BB4F8C800D9880144D9809606CB
:100F600040F18C838A4AD77904971FB9137A002BF2
:100F700000F07F83127B864B002A00F07A83864A3A
:100F80001788019338B20FF0D9F884490FF02AF985
:100F9000064611F0E7FE8046304611F06FFE019BD9
:100FA00006461A7C002A40F0858099F815917C4FFE
:100FB0007C4DB9F1000F4CD0DFF814A2B7F9020054
:100FC000BAF80230C9F100041FFA83FB1BB2C01A41
:100FD0000CF0E4FFA04203DB4845A8BF484600E010
:100FE0002046BAF800308344B7F900009AB21BB229
:100FF0001FFA8BFBC01AAAF802B002920CF0CEFFC7
:10100000A042029A03DB4845B4BF04464C46144450
:10101000A4B2AAF800400FFA8BF00FF08FF8074641
:1010200020B20FF08BF83146044638460FF0DAF85C
:101030004146814620460FF0D5F8014648460EF05D
:10104000C7FF59490FF082F90FF092FA288038460D
:101050001DE0B7F902000FF071F88146B7F9000002
:101060000FF06CF83146044648460FF0BBF8414695
:10107000074620460FF0B6F8014638460EF0A8FFA6
:1010800049490FF063F90FF073FA2880484641464A
:101090000FF0A8F83146074620460FF0A3F80146A6
:1010A00038460EF097FF40490FF050F90FF060FA04
:1010B0006880E3E23D4A3E48B2F800E03D4ADB7C0E
:1010C000D28899F8369105923B4AD2F808803B4A7B
:1010D0001FFA88FA16888268CAEB0606B6B2CAEB0F
:1010E000020A1FFA86FB1FFA8AFA33B10FFA8BF253
:1010F0004A45BCBF08EB090282600A220FFA8EF053
:101100005043029201930CF049FF029A019B90FB1D
:10111000F2F000B290FBF2F26DB138B291B2821AE5
:10112000002AB8BF52420A2A06DD254A1288C82A78
:1011300088BF0F4600E097B2224DCAEB0601D5F8F2
:101140000821214E642092FBF0F0D6F800C0D5F8BB
:10115000102189B2C2EB0C0CBCF1C70FA5F80C0131
:10116000A5F80E11B24640F268823268174EC5F8F3
:101170001021B6F82C2169BBA5F81421002B3DD015
:10118000034B0022DA7439E048290020D81F0020E0
:10119000ED0C0020CA1F0020AE1F002035FA8E3C47
:1011A0001220002008200020000020415A1E0020AC
:1011B000F01F002088120020E41F0020FC1F0020E8
:1011C0004C210020C81C002008290020D02E00201F
:1011D0000E200020B6F830E109B20EFB112EB6F851
:1011E0002E21B6F82AC1964503DBE645B4BF724608
:1011F0006246A5F814210BB10029C1DAC01B049F77
:1012000080B29E499E4BE7B1CA7C7AB1B6F82421E0
:101210006FF009077A43A5F80E21B6F82A21A5F840
:1012200014210FFA8BF2182AD8BF00201A88312A0D
:1012300007D80FFA8BFBCB4503DD924A08EB090771
:101240009760897C8D4A49B11988092906D80021FF
:101250005170D1748B4A08F1050191601B88092BEC
:1012600008D800B20EF06AFF87490EF0BBFF0FF0FE
:101270007FF980B24FF0640800B208FB00F00CF078
:101280008DFE90FBF8F01FFA80F80FFA88F3002B20
:10129000B8BF5B42DAF80000AA2BC8BF4FF0AF0816
:1012A000D5F81831DFF80492C01A0EF043FF7749E1
:1012B0000FF04CF8DAF80030B5F80EA1C5F8183187
:1012C0000AF103039BB2062B074606D8D9F80000A3
:1012D00039460EF087FFC9F800000A2202FB0AF225
:1012E00092B293B2A4F80E3118B2029201930EF0AA
:1012F00025FFD4F8201182460EF074FF39460EF017
:1013000071FFD9F800100EF065FE0FF031F9604959
:10131000B0F5FA7FA8BF4FF4FA708842B8BF08460C
:101320000EF00CFF5B49029A8346C9F8000008885A
:10133000019B121A92B20B8013B2002BB8BF5B4212
:10134000642BC8BF0022544B03F10A01988823F88C
:10135000020F8B42FAD1514900230A811846CA5A1A
:10136000023310440A2B80B201D080B2F7E700B2FA
:101370000EF0E4FED5F824110EF034FF39460EF0DD
:10138000E5FF0FF0F5F81FFA80F9D5F81C11A5F864
:101390002C9150460EF026FF0FF0EAF800B20EF046
:1013A000CDFE59460EF016FE0FF0E2F81FFA88F84F
:1013B00008F103039BB2062B1FFA80FB08D8DFF865
:1013C000F0A03946DAF800000EF00CFFCAF8000071
:1013D0004FF00A0C0CFB08F81FFA88FC1FFA8CF27D
:1013E00010B20292CDF80CC00EF0A8FEDFF8C0A03B
:1013F000D5F8341180460EF0F5FE39460EF0F2FEB7
:10140000DAF800100EF0E6FD0FF0B2F8204BB0F560
:10141000FA7FA8BF4FF4FA709842B8BF18460EF092
:101420008DFE0346CAF800001D48DDF80CC0018897
:10143000029AC1EB0C0189B202800AB2002AB8BF3D
:101440005242642AC8BF0021164A02F10A00B2F8CB
:1014500004E022F802EF8242F9D1134A4FF0000A69
:101460001181504632F80A100AF1020A0844BAF112
:101470000A0F80B21ED080B2F4E700BFED0C00204E
:101480004E210020F01F0020CDCCCC3D00007A443E
:101490000CFEFFFF982000209C2000209E200020B2
:1014A0009A200020A8200020AA20002094200020BC
:1014B0009020002000B201930EF040FED4F83811C5
:1014C0000EF090FE39460EF041FF0FF051F887B252
:1014D000D4F83011A4F8407140460EF083FE0FF0AE
:1014E00047F800B20EF02AFE019B0FFA8BFB19465B
:1014F0000EF070FD0FF03CF8B6F924316FF00901E1
:101500004B439BFBFAFB0FFA8BFBB6F926119B456D
:1015100080B20AFB01FA03DBD345B4BF5B465346F6
:10152000B04C02B2B4F920116FF0090048434FF0FB
:101530000A0E994492FBFEF2AB4B1FFA89F98242E4
:10154000A3F8029004DB0EFB01F08242B8BF104604
:10155000BFB238441880B4F922016FF00901414349
:101560008A4204DB0A2141438A42B8BF11469F4A9E
:101570000F44507C9F80114658B194F828210FFAEF
:1015800089F95242914503DBD145B4BF4A465246E0
:101590005A80C97C964A69B996F83261B2F900005E
:1015A0006421B6FBF1F15E880028B8BF404201FB20
:1015B00010615980B2F902000EF0C0FD4FF07C516D
:1015C0000EF010FE0EF0D4FF8A4BB0F5E17FA8BFFD
:1015D0004FF4E1701A88B5F81471A2F5E17320EAAE
:1015E000E0709BB2381A642B87B2834E0CD910B2CC
:1015F000C0F5FA700EF0A2FD80490EF0F3FD0EF07A
:10160000B7FF338818443080B6F90030B4F82E2183
:10161000B3F5FA7FA8BF4FF4FA7323EAE37333807C
:101620003B441BB29342B4F82A1103DB8B42B4BF94
:101630001A460A46724BA3F814216C4A6A4BD178B9
:1016400009B9117921B1927A52B1684A927C3AB9BA
:10165000DDF814900022A5F814915A801A809A801F
:10166000684AB5F81411D180998893880B44938007
:1016700004E05D4B00221A805A809A80604B06225B
:101680001A70069E01237370F3E35F4BDB68984783
:101690005E4B93F80080B8F1030F14D9594BB4F99D
:1016A0004611B3F904006FF063030028B8BF40424D
:1016B0001B1A994204DB00F164038B42A8BF0B465E
:1016C000A4F846310BE0B8F1010F08D8504B5A7915
:1016D0001946013AD2B2172A00F2D481A3E0414858
:1016E000B4F8447190F90E11B4F84291B4F946413E
:1016F00049424C433D49434B0A7C90F81E01897A8C
:10170000DE88B3F804A0434D05940697CDF81090F9
:1017100007920890099100244445D7D230B20EF0C8
:101720000DFD296883460EF05DFD069B844618B2C8
:10173000CDF80CC00EF002FDA9680EF053FDDDF8E7
:101740000CC0014660460EF045FC049A844610B277
:10175000CDF80CC00EF0F2FC69680EF043FDDDF828
:101760000CC0014660460EF035FC84460598CDF865
:101770000CC00EF0E3FCE9680EF034FDDDF80CC09F
:10178000014660460EF026FC0EF0F2FEDFF888906F
:10179000079B670029F81400002B41D0089A002A03
:1017A0003CD0099B002B3BD00FFA8AF00EF0C6FC10
:1017B00084462046CDF80CC00EF0BCFC4FF07C51A6
:1017C0000EF006FCDDF80CC0014660460EF00AFD86
:1017D000014658460EF0FCFB0EF0CAFE29F8070041
:1017E0001EE000BFD02E002008200020ED0C0020BD
:1017F000301E00204C2100209C200020CDCCCC3D70
:10180000C81C0020CA1F002084000020B42E002025
:1018100048290020BC0B0020B62E002027F80960C4
:101820000134103578E7012303FA02F2B94B134073
:101830006BBBD00640F12681B74BB84893F9BE2068
:10184000B0F90240B0F900005443322294FBF2F4A4
:10185000B3F8BC20A4B211B21129DCBFB04A32F8EF
:101860001120B04922440A8093F9C820B3F8C63049
:101870005043322290FBF2F01AB2112AD8BFA84B83
:1018800080B2D8BF33F8123003444B80FAE0A64B45
:101890009B7A43B1A54B1A88ADF858205A889B888B
:1018A000ADF85A200AE0A24BB3F84221ADF8582017
:1018B000B3F84421B3F84631ADF85A20ADF85C30A6
:1018C0009C4B974A1B88ADF85E30B1F8983111896E
:1018D000C91AADF860105189C91AADF86210918922
:1018E000C91AADF86410D189C91AADF8661011880B
:1018F000C91AADF868105188C91AADF86A109188F4
:10190000D288C91AD31AADF86E30ADF86C10002326
:10191000844900225A520233102BF9D1864B1546C6
:101920001B7806931346DDF818A0554500F08F800C
:10193000824E834C9119887920B1824F3844007DC2
:1019400000287ED0B05C744E0A2707FB0067B7F80A
:10195000BAE0B7F8B86091F904B0C6EB0E06B6B2BB
:1019600006FB0BFB642791F801809BFBF7FB4FEA1A
:10197000560C91F803E0CCEB0B0B4FEA48070DF146
:1019800070091FFA8BFB91F805A04F44BEF1000FC0
:1019900003D137F8187CE7521BE0E45E37F9187C76
:1019A000DFF89C91BC4209DAA644A64503DB7745E3
:1019B000B4BF3C46744629F803400AE009DDCEEB8B
:1019C000040EBE4503DBA645B4BF7746274629F87B
:1019D0000370DFF844E14FF00A0909FB00EEBEF89E
:1019E000C0E091F902104EFA08F818F0010FDFF884
:1019F00050814C4C33F908800FFA8BFB01FB08F146
:101A00004FF0640891FBF8F10CBF4FF0010E4FF05E
:101A1000FF3E594534F810701FFA8EFE0CDB4FFA6A
:101A20008AFB06FB0BFB9BFBF8FBCCEB0B0B0FFACB
:101A30008BFB8B45A8BF8B460BFB0E7B24F810B0AD
:101A400000E0E0520135EDB2023307326BE73E4B66
:101A5000314A03F1100492F9BE10B3F902500A3270
:101A60004D43642195FBF1F5B2F8B210ADB208B266
:101A70001128DCBF2A4931F81010294423F8021F2D
:101A8000A342E8D1314B9A689A4612F0200F224BBC
:101A90003BD0B3F8BC00234C02B2112AD8BF204976
:101AA0002546D8BF31F81200B3F8C61020800AB21C
:101AB000112ADCBF1A4931F812101A4A0C46698003
:101AC0002049097A09B393F8101193F9C86011F00D
:101AD000020F93F9BE7011493AD0B1F90050B1F933
:101AE00002106E437F424F434FF0320E96FBFEF6DC
:101AF0006FF03101B6B297FBF1F1314497FBFEF77D
:101B000008443E441080344454800F4A024902F194
:101B1000100532E089209800D02E0020301E0020D1
:101B200088120020BC000020ED0C0020CA1F0020FD
:101B3000C81C0020B62E00207C0C00207D0C00204C
:101B4000101E00208C1F0020BA0000204829002011
:101B5000B1F90250B1F900106F434E43322597FBA3
:101B6000F5F7384496FBF5F510802C44CCE722F8C5
:101B7000020FAA4201F10A010CD0B2F90240B1F9F8
:101B8000B800B1F8BA608442F1DB30B2A042A8BF1D
:101B90002046ECE793F81031590705D49A499B4B3E
:101BA0000C881B7801220FE0994B9A4D9E7D0024F2
:101BB000043EA0190134C0B235F8021FE4B20CF0A3
:101BC00028FB042CF5D1E9E79A4208D231F912003A
:101BD00024B2A042A8BF0446A4B20132F4E78E4A60
:101BE000BAF84251107C291B89B204908B480591A8
:101BF000DAF80810BAF846C1B0F90600BAF844E1BC
:101C000001F4804601F01001BAF898710690CDF801
:101C100020C08348BAF840C10E911FFA8EF10B9193
:101C20008049B0F9EAB00D960797BAF848819AF85A
:101C30000590B0F9EC70BAF89AA11FFA8CF05678BA
:101C40005B000A904989507C0F93CDF800B0CDF825
:101C500024A00C9600230F9EB3426ED022B2AA425B
:101C600008DD049A32B9684A059E33F802A0B244EE
:101C700023F802A00D9E644A002E36D0DDF818A08D
:101C8000DDF81CB0DA4532F903A015DDC24503DBEF
:101C9000AA45A8BFAA4600E0C246B9F1010F22F842
:101CA00003A041D1009A09B2914203DBB942A8BF17
:101CB000394618E0009916E0F24504DB089EB2456B
:101CC000A8BFB24600E0F246B9F1010F22F803A026
:101CD0002AD109B2B94205DBDDF800A05145A8BF01
:101CE000514600E0394689B21EE032F903B0E345BF
:101CF00003DBAB45A8BFAB4600E0E34622F803B0E8
:101D000002EB030ADDF818B0099A93450BDA0E9E30
:101D100026B9DDF828B0AAF800B005E00B98AAF8BB
:101D20000000012000E000200C9A22B93E4A985A97
:101D3000354A9852012002338DE7354A394C364BEB
:101D40006181517D58741A4600297CD0374E7379D1
:101D5000013B172B6CD8DFE803F00C6B6B186E6B34
:101D60006B1E6B6B6B6B6B256B6B6B6B6B18256BEF
:101D70006B342B4B93F80F3113B10020618960E075
:101D800050780028F9D101465BE0002021890CF051
:101D900040FA0120F2E70020E1880CF03AFA012035
:101DA00021894EE00020E1880CF033FA01202189DE
:101DB0000CF02FFA022061890CF02BFA0320A18984
:101DC0003FE00020E1880CF024FA012021890CF08A
:101DD00020FA022061890CF01CFA0320A1890CF082
:101DE00018FAB3680F4DDA072DD5042029880CF0B6
:101DF00010FA052069880CF00CFA0620A9880CF06E
:101E000008FA0720E9891CE0B62E0020B42E002035
:101E1000A40B00208E120020ED0C00208812002060
:101E2000D02E0020BC000020361E002048290020B3
:101E3000B3689B0607D5002021880CF0EAF9618879
:101E400001200CF0E6F90BF097FD0C4B00221A7004
:101E50000FE00B4B1B6813F0020307D1A2F85630BA
:101E6000A2F85830A2F85A30FEF7D7BD0126FEF787
:101E7000F0BD00201DB0BDE8F08F00BFC81C0020E1
:101E8000880B0020AFF300802DE9F14F0489C04B8F
:101E9000D822A4F5887402FB04344A6804F154077C
:101EA0002265C4F8D4700B780646772B0D4600F0F7
:101EB0006E8200F285816A2B00F0168500F2AA80FE
:101EC000452B01F0F8801FD8422B01F07D800CD803
:101ED000402B01F0CF80412B41F00A8100221346B4
:101EE00006F02EFE002301F0DAB8432B00F0F7874E
:101EF000442B41F0FD800022134606F021FEA54B45
:101F000001221A7001F008B9662B00F08E8378D890
:101F1000642B00F05883652B41F0EA809E4BD4344B
:101F2000B3F90010204606F098F99C4B2046B3F90F
:101F3000001006F092F99A4B20461B68C3F3C001CB
:101F4000C3F38002890041EA4201C3F34002114316
:101F5000C3F3401241EAC20103F01003194306F033
:101F60007CF9904A92F804E0D3784FEA8E0E4EEA5C
:101F7000430E53784EEA030E93794EEAC30E53791B
:101F80004EEA431E537A4EEA831E874BD9794EEAB6
:101F9000C11E197A4EEA012E597A4EEA412ED179A4
:101FA0004EEA812E117A4EEAC12E117D927A4EEAC6
:101FB000016E4EEA023E5A7B00214EEA423E9A7B77
:101FC0004EEA823E1A7C4EEA024E1A794EEA021E10
:101FD0005A7C4EEA424E9A7C4EEA824EDA7C4EEAB7
:101FE000C24E1A7D4EEA025E5A7D4EEA425E9A7DEC
:101FF000DB7D4EEA825E4EEAC35E6C4B18780B4680
:10200000F4E2682B01F07B8040F2B8854FF00008C5
:1020100000F05DBC702B00F0F78447D86D2B00F00A
:10202000A68416D86B2B00F089846C2B41F060805D
:10203000DFF88881D4342046B8F9001006F00DF995
:102040002046B8F9021006F008F92046584B00F077
:1020500096BC6E2B00F09C846F2B41F0498004F1FC
:10206000D408544C4046E17F06F000F9404694F80D
:10207000201006F0FBF8404694F8231006F0F6F81E
:10208000404694F8251006F0F1F8404694F82610E2
:1020900006F0ECF8404694F8211006F0E7F84046C8
:1020A00094F8221006F0E2F800F0A9BC732B00F0BF
:1020B000758561D8712B00F06F81722B41F018800B
:1020C000DFF8F480D4342046B8F9981106F0C5F84A
:1020D0002046B8F9401106F0C0F8DFF8D890204645
:1020E000B8F9421106F0B9F82046B8F9441106F0E3
:1020F000B4F82046B9F90A1106F0AFF8204698F86E
:10210000AB1106F0B3F8204698F8AC1106F0AEF823
:10211000204698F8AD1106F0A9F8204698F87C11F1
:1021200006F0A4F8204698F8A11106F09FF8204682
:10213000002106F09BF8B9F92A100A2391FBF3F16C
:10214000204606F08AF8204698F87D1106F08EF8B1
:10215000204698F87F1106F089F8204698F87E11FD
:1021600006F084F8204698F8801106F07FF8304693
:1021700029463A46162339E1752B00F00B8100F20F
:102180001F854FF0000A4FF0010800F08EBC00BF21
:102190008021002094230020E4200020480A002011
:1021A000880B0020ED0C00208C1F002079260020D9
:1021B000AE1F0020D02E002048290020301E002015
:1021C000CF2B00F0818100F29880C82B00F0E780CF
:1021D00061D8A02B00F0B78555D8782B00F063822A
:1021E0007B2B40F08587A94BD434DFF8A88293F885
:1021F000A011204606F03AF82046B8F9201106F062
:102200002CF82046B8F9221106F027F82046B8F934
:10221000241106F022F82046B8F9261106F01DF820
:102220002046B8F92A1106F018F82046B8F92C1102
:1022300006F013F82046B8F92E1106F00EF82046E5
:10224000B8F9301106F009F8204698F8321105F077
:10225000F5FF204698F8361106F008F820460021D0
:1022600005F0ECFF2046002105F0E8FF20460021A4
:1022700005F0E4FF2046002105F0E0FF3046294646
:102280003A462623B2E0A42B00F07285A62B00F07C
:10229000D98500F02DBFCB2B77D009D8C92B00F002
:1022A000AA80CA2B40F02487794B03F10A00C8E0CA
:1022B000CD2B00F00B8500F21485134613F8011B9B
:1022C000101D2365734BD977517883F82010D11CEA
:1022D0002165D178206583F825101179501D20657E
:1022E00083F826105179901D206583F8211091798B
:1022F0000732226583F8221074E0D82B00F099820F
:1023000017D8D22B00F0468107D8D02B00F0D48408
:10231000D12B00F0898400F0EBBED42B00F0EB81D0
:10232000C0F04A81D62B08BF002700F0298100F0B9
:10233000DFBEF12B00F0078216D8EF2B48D0F02B30
:1023400040F0D68604F1D408524C4046B4F92E1021
:1023500005F083FF4046B4F92C1005F07EFF3046AF
:1023600029463A46042341E0FA2B00F0C384FE2BB1
:1023700000F0CB84F22B40F0BB860022134606F01F
:10238000DFFB424A02F1700026E200276DE04FF0C9
:102390000008BEE3404A55E34FF0000861E3002720
:1023A00004F1500005F071FF3C4BD8530237102F59
:1023B000F6D1002213463046294606F0C1FB384BC1
:1023C00000221A80374B01221B685A7000F0A4BE0D
:1023D0005034204605F059FF2E4FF885204605F071
:1023E00054FFB885002230462946134601B0BDE8A7
:1023F000F04F06F0A5BB134613F8011B023223650C
:10240000294B2A4FD97212F8011C294B44F8502F3E
:102410002046197005F030FF3860204605F02CFF8B
:102420007860204605F031FF224B1880204605F0E9
:102430002CFF214B1880214B1A7942F002021A71AD
:10244000D0E7226D0133114611F8017B83422165EB
:102450005F70517802F102072765D972917802F115
:10246000030222655975ECD1BCE7154B1B789F42DE
:10247000B8D2144B04F1500017F8038005F005FFA3
:10248000044B013703EB8803D864EEE748290020AA
:10249000CF2E0020D02E0020177D010888120020AA
:1024A000A81F0020B81C0020ED0C002000200020F8
:1024B00021280020FC1F00204C210020301E00207D
:1024C000792600206026002004F15008404605F0DF
:1024D000DCFE6FF4AF63B54FC318C62B98BFA7F8E7
:1024E0009801404605F0D1FEA7F84001404605F0AE
:1024F000CCFEA7F84201404605F0C7FEA7F844010C
:10250000404605F0C2FEDFF8C892236DA9F80A0123
:102510001A4612F8011B4046226587F8AB115A781B
:10252000991C216587F8AC219A78D91C216587F818
:10253000AD21DA78191D216587F87C211A790633D7
:10254000236587F8A12105F0A0FE0A235843236DD7
:10255000A9F82A001A4612F8011B226587F87D1196
:102560005A78991C216587F87F219A78D91C2165B2
:1025700087F87E21DA780433236587F8802131E7F4
:1025800004F1500005F081FE894BD8530237102F1B
:10259000F6D127E7874B5B78002B7FF423AF12F847
:1025A000011B00202265814A022994BF82F8681528
:1025B00082F868350146A4E304F1500005F065FE99
:1025C0007D4B18800EE7D4342046E72105F04EFEFF
:1025D000764B2046597905F049FE2046042105F046
:1025E00045FE2046754905F029FE08E283420ED2D9
:1025F000734A13F802C0012202FA0CFC1CEA0E0F07
:1026000018BF9A4003F1010318BF1143EEE72046BB
:1026100005F014FE654B204693F8681505F026FE7C
:10262000304629463A460B23E0E6664B4FF0000859
:102630001B88D434B3F5806FDFF898910FD939F93E
:1026400008100823204691FBF3F108F1020805F079
:1026500004FEB8F1060FF2D14FF000080AE039F994
:102660000810204608F1020805F0F7FDB8F1060F42
:10267000F5D1F1E7544B204633F9081008F1020870
:1026800005F0EBFDB8F1060FF4D14FF000084F4B09
:10269000204633F9081008F1020805F0DEFDB8F114
:1026A000060FF4D1BAE2DFF8288108F1500A04F1EC
:1026B000D409B8F9B810484605F0CFFDB8F9BA10FA
:1026C000484605F0CAFDB8F9BC10484605F0C5FDFE
:1026D00098F8BE10484605F0C9FD08F10A08B8F997
:1026E000B610484605F0B9FDD045E0D13046294640
:1026F0003A4648237AE60022134606F021FA344D82
:1027000005F1500704F15006304605F0BEFDA5F86E
:10271000B800304605F0B9FDA5F8BA00304605F01E
:10272000B4FD236DA5F8BC0013F8012B304685F8E5
:10273000BE20236505F0A9FD0A35A5F8B600BD4207
:10274000E0D100F0E9BCDFF8648008F1700A04F120
:10275000D40998F8D010484605F088FD98F8D110B3
:10276000484605F083FD98F8D210484605F07EFDF6
:1027700098F8D310484605F079FD98F8D4104846EB
:1027800005F074FD98F8D510484605F06FFD08F186
:10279000070898F8CF10484605F068FDD045D6D117
:1027A000304629463A46702320E600BF48290020DB
:1027B000361E0020ED0C0020DC1F00200C0000C0A5
:1027C00060260020780000204E1E0020541E0020AD
:1027D000D02E00200E210020236D0732194611F85B
:1027E000015B216582F8C95059789D1C256582F8E6
:1027F000CA109978DD1C256582F8CB10D9781D1D8B
:10280000256582F8CC1019795D1D256582F8CD10FB
:1028100059799D1D82F8CE1025659979073382F884
:10282000CF1082422365D7D101B0BDE8F04F0BF045
:102830007DB80022134606F083F9236D254613F870
:10284000012BB84E45F8503FB74B284683F8A021DE
:1028500005F01BFDA6F82001284605F016FDA6F898
:102860002201284605F011FDA6F82401284605F0AE
:102870000CFDA6F82601284605F007FDA6F82A015A
:10288000284605F002FDA6F82C01284605F0FDFCBF
:10289000A6F82E01284605F0F8FCA6F830012846D7
:1028A00005F0EAFC236D284613F8012B236586F812
:1028B000362105F0E1FC284605F0DEFC284605F04F
:1028C000DBFC284601B0BDE8F04F05F0D5BC974BC6
:1028D00004F1D40033F9081008F1020805F0BDFC3A
:1028E000B8F1100FF3D1D4E3914BD4342046D97A08
:1028F00005F0BCFC8F4BDFF87C821978204605F090
:10290000B5FC2046D8F8001005F098FC2046D8F811
:10291000041005F093FC884B2046B3F9001005F035
:102920009CFC864B2046B3F9001005F096FC844BC6
:102930002046B3F92A1005F090FCCAE2814BD4344A
:10294000B3F90010204605F088FC7F4B2046B3F910
:10295000001005F082FC7A4B2046197901F0010144
:1029600005F084FC304629463A4605233EE5774B80
:10297000D4342046196805F061FC754B2046B3F944
:10298000001005F06AFC304629463A4606232DE53C
:10299000704BD434B3F90010204681F30801C9B25A
:1029A00005F064FC6C4B4FF6FF78196820464145F2
:1029B000A8BF414621EAE17109B205F04EFC674B20
:1029C0004FF00A091979204609FB01F105F045FC91
:1029D000554B93F87C21624B32B11B68002BB8BF7A
:1029E0005B4209FB03F103E019680029B8BF4942C3
:1029F0004145A8BF4146204609B205F02EFC3046AD
:102A000029463A460723F1E4DFF86C8108F10A0A07
:102A100008F1010804F1D409484698F8011005F0BE
:102A200025FC484698F80B1005F020FC484698F81D
:102A3000151005F01BFCD045EAD1304629463A4630
:102A40001E23D3E412F8013F33B1D4F8D410481C4C
:102A5000C4F8D4000B70F5E7304629463A462F23D8
:102A6000C4E4404B1B7898450ED23F4B04F1D40090
:102A700018F803202B4B08F1010803EB8203B3F98C
:102A80004C1005F0EAFBECE7304629463A465B007D
:102A9000ACE4824409F10109324B1B78994507DB0C
:102AA000B8F1000F20D04FF000084FF00009F3E715
:102AB0002D4B2E4A19F803300C2101FB0323D3F8C8
:102AC00034B0584614F09AF8B8F1000FE1D14246FC
:102AD0008242DFDAD4F8D430591CC4F8D4101BF881
:102AE000021001321970F3E7304629463A461FFAC0
:102AF0008AF37BE40C33B3F5967F08D01C4A1A4462
:102B0000127A8A42F6D104F1D40005F0AFFB08F145
:102B10000108144B1B7898453CD2134B18F803104E
:102B20000023EBE7D02E0020482900208812002047
:102B3000ED0C002021280020FC1F00204C2100204B
:102B4000301E00204E21002050210020C41F0020F4
:102B500014210020EC200020002100201C2900204E
:102B6000F42000207926002060260020187D01082E
:102B7000487D010800200020CF2E00200023D4F83B
:102B8000D420511CC4F8D410B849595C0133102B1F
:102B90001170F4D1304629463A4627E44FF0010837
:102BA0005FFA88F104F1D40008F1010805F05EFB3A
:102BB000B8F1090FF4D1304629463A46082315E406
:102BC00012F8011B226509B9A94B02E0102905D1B1
:102BD000A84BD3F80090D3F8048002E04FF000082F
:102BE000C146D434204605F041FB2046494605F055
:102BF00025FB2046414605F021FB9F4B20461968E6
:102C000005F01CFB2046002105F027FB2046002193
:102C100005F023FB2046002105F028FB304629461D
:102C20003A461223FFF7E2BB12F8019B274647F80A
:102C3000502F384605F020FB8346384605F01CFB34
:102C40008246384605F018FB8046384605F01DFBE5
:102C5000384605F01AFB236D01332365B9F1000FE7
:102C600012D1834B0122C3F804A0C3F800B0834BF8
:102C700083F807901A73B8F1000F3FF4B3AB7E4BA3
:102C8000C3F80080FFF7AEBBB9F1100F7FF4AAAB19
:102C9000784BC3F800B0C3F804A0B8F1000F02D01D
:102CA000754BC3F800807348754B0222011D1A70E2
:102CB00004F08EFBFFF796BB704B5B78002B7FF424
:102CC00091AB012003F0A4FDFFF78CBB6B4B5B784D
:102CD000002B7FF487AB6B4B4FF4C8721A80FFF761
:102CE00081BB664B5A78002A7FF47CAB01229A7331
:102CF000FFF778BB614B5B78002B40F0F981002037
:102D0000012103F08DFCFFF76DBB5F4B5F491A6833
:102D100009685F4B4FF00008B2FBF3F2B1FBF3F32D
:102D20004FF47A7101FB02335A4A53865A4B04F12D
:102D3000D40033F9081008F1020805F08EFAB8F152
:102D4000080FF3D1A5E104F1D408544C40462168A2
:102D500005F074FA4046616805F070FA4046A168D3
:102D600005F06CFA304629463A460C23FFF73EBB85
:102D7000DFF82091D43499F834B02046594605F054
:102D800075FA4FF00008D8451ED2DFF81CA1204686
:102D90001AF8081005F06AFA0AF1200313F808106F
:102DA000204605F063FA0AF1400313F808102046A4
:102DB0000AF1600A05F05AFA1AF80810204605F0E0
:102DC00055FA08F10108DEE74FEA8B03013330467C
:102DD00029463A4605F0B4FE314B93F8AB31012B4E
:102DE00040F09A812F4A002392F87840104689F8E3
:102DF0003440A34202F1010213DA2B4992F87850D1
:102E000092F888605D5401F120055E5592F8986053
:102E100001F140055E5592F8A85060315D540133D0
:102E2000E7E7D0F8BC300022C9F8B830D0F8C0309D
:102E30003021C9F8BC300120134601B0BDE8F04F85
:102E400007F0DABB194BD4341B68DFF8488013F065
:102E5000200920462CD0002105F0F0F9D8F8BC104C
:102E6000D8F8B8302046C91A27E000BFBC000020BF
:102E7000E41F0020F01F0020C01F0020ED0C0020E8
:102E8000E01F0020123000206409002068090020A3
:102E900040420F00301E00205C1E00205809002018
:102EA0004829002030150020651E0020880B0020D6
:102EB000494605F0C3F92046494605F0BFF92046CA
:102EC000D8F8C01005F0BAF92046D8F8C41005F0BB
:102ED000B5F9304629463A461023FFF787BA002253
:102EE000134605F02DFE236D264613F8012B8C4D5D
:102EF00046F8503F304600236A71AB6005F0BCF9DC
:102F0000AB68884F1843236DA86013F8012B304637
:102F1000236585F8942105F0B8F9A5F856013046E7
:102F200005F0B3F9A5F85801304605F0AEF9A5F85B
:102F30005A01304605F0A9F9A5F87801304605F0A8
:102F4000A4F9A5F87A01304605F09FF9236DA5F89C
:102F50004E011A4612F8011B3046226587F82310ED
:102F60005A78991C216587F824209A78D91C216504
:102F700085F88121DA780433236587F8492005F044
:102F800084F9AA890646904217D0674B52B170B1B6
:102F90001B689A79023A012A85BF644B092218817D
:102FA0001A7009E018B118680321324602E0186867
:102FB0000121642201F072FDAE81236D13F8012B13
:102FC000236587F83020A7E0DFF85481D434204609
:102FD00098F8051005F04AF92046D8F8081005F0D1
:102FE0002DF9204698F8941105F040F92046B8F9DB
:102FF000561105F032F92046B8F9581105F02DF9AF
:103000002046B8F95A1105F028F92046B8F9781188
:1030100005F023F9DFF80C912046B8F97A1105F094
:103020001CF92046B8F94E1105F017F9204699F819
:10303000231005F01BF9204699F8241005F016F925
:10304000204698F8811105F011F9204699F84910A9
:1030500005F00CF92046B8F90C1005F0FEF82046F2
:1030600099F8301005F002F9304629463A461923FE
:10307000FFF7BCB94FF00008294B04F1D4004344DA
:1030800093F8821108F1010805F0F0F8B8F1080F83
:10309000F2D1304629463A464346FFF7A7B9226D9A
:1030A00012F8011B22651E4A1A440133082B82F8CC
:1030B0008211F4D130E04FF000081D4B04F1D40927
:1030C00013F80810484608F1010805F0CFF8B8F1E8
:1030D0000B0FF2D14846002105F0B0F84846002118
:1030E00005F0ACF8304629463A461323FFF77EB97F
:1030F0003046294601B0BDE8F04F03F065BD00231E
:10310000D4F8D420511CC4F8D4100A49595C0133B6
:10311000102B1170F4D13DE501B0BDE8F08F00BF78
:1031200048290020D02E0020B41C002010300020A0
:10313000008E0108B62E00202DE9F04FAE4E85B06E
:10314000B368AE4F13F0080803D1AD4C4546A14615
:1031500031E0002439E0AB4BE8B21B689847A0F29D
:10316000EE2240F2DC5392B29A4288BFA24BD9F8C9
:10317000902088BFB3F89801A34B1340002B03DACB
:10318000013B63F0030301339D4A03EB850322F8FF
:1031900013002288638801351344A288083413443D
:1031A00034F8022C13441BB2042293FBF2F327F8E9
:1031B000083008F1020896F8AA319D42CBDBD9F815
:1031C00090300133C9F890300BE096F8AA319C4258
:1031D00007DA8C4BE0B21B68984727F814000134DB
:1031E000F3E7B368864C13F4804F04D094F894301E
:1031F0000BB905F087FC96F8A1217F4BE2B10332B1
:1032000037F91200B3F8A251B0F57A7003D4A8428E
:10321000A8BF284600E000200CF090FF804628461A
:103220000CF088FF014640460DF090F877490CF00D
:10323000D9FF0DF0C3F914E093F8A40190B1744ADA
:10324000D179744A32F81120B3F8A81192B2521A07
:103250009002B3F8A631801A90FBF3F000B280F32D
:103260000A0080B2B368A4F8AE0013F4024F63D032
:10327000634B694DB3F8B09095F80831052253437C
:103280000FFA89F898453ADD644B5A789B46002A34
:1032900035D0594BB3F898313B807B80BB80B5F873
:1032A0000A31FB805E4B1A789A46032A05D95D489D
:1032B00005F00EFE03238AF8003095F8082195F8F2
:1032C0000931134405225343984513DD9BF812B08E
:1032D000BBF1000F0ED105F015FC504B83F800B088
:1032E0009AF80030042B05D94F4805F0F1FD4C4BFE
:1032F00004221A70B4F8B2300133A4F8B23095F851
:10330000083105225343984512DD444D95F801805C
:10331000B8F1000F0CD105F0F5FB85F80080404DA9
:103320002B78042B04D9404805F0D2FD04232B70E0
:1033300009F10109A4F8B0900022B6F89A11B6F884
:103340009C511346B85E9B088842C4BF63F07F035C
:10335000DBB20232A842B8BF43F04003082AF1D1E1
:1033600094F8B400264A984205D192F8B500F9289D
:1033700004D8013000E0002082F8B50084F8B430B1
:10338000B3681D4A13F48048234DB7F906300AD0BC
:10339000B2F89811B2F84C21881A834206DD0A442B
:1033A000934206DB02E08B4203DB17E04FF000089C
:1033B00014E00023C4F8C431C4F8C831C4F8CC31D7
:1033C000C4F8C030C4F8C430EB6C2BB10C4B93F88C
:1033D0009430002B40F07C834FF00108EB6C43B33A
:1033E00094F894302BBB0D4B5B7813B396F89F3158
:1033F000E3B105F087FB1CE048290020881200207B
:10340000F81E0020AC1200200300008000C07F44A2
:10341000780A0020800A0020D02E0020ED0C002029
:1034200094000020807E0108937E0108B8F1000F0F
:10343000DFD194F8B5208C4B142A40F0A6808B4A3B
:1034400050789146C0B1EA6C2AB993F8B4305F2B3A
:1034500001D105F057FB96F89E31002B00F09580C6
:10346000EB6C002B40F0918094F8B4307D2B40F051
:103470008C8005F047FB88E093F8B420572A15D1DB
:103480007B4B4FF47A721A80B368DB0501D50AF0E2
:103490005DFD784B1B68580702D5774A0A211180D9
:1034A00013F0080334D1A4F8B63031E0B16849070D
:1034B00025D55A2A23D193F8B8202AB1012283F8BE
:1034C000B80083F8B92023E093F8BA20DFF8C0A150
:1034D00082F0010283F8BA209AF8003032B10A2B48
:1034E00016D9664805F0F4FC0A2305E00B2B0FD92A
:1034F000634805F0EDFC0B238AF8003008E05D2AF4
:1035000000F0EE825B2A00F0ED825E2A00F0EC8291
:10351000EB6C33B994F8B4206F2A02D10BF0C0FCE5
:1035200015E096F89E2122B11BB994F8B4307E2B99
:10353000F4D094F8B430972B04D1524B4FF4C872A6
:103540001A8004E0A72B04BF012389F80E3094F8F9
:10355000B430BB2B02D1EB8D023303E0B72B03D188
:10356000EB8D023BEB8509E0BE2B02D1AB8D023324
:1035700003E0BD2B09D1AB8D023BAB850120014699
:1035800003F04EF8002384F8B530B068420731D517
:1035900094F8BA20344B8AB1344A527872B13A4A1C
:1035A000B7F90610B2F89A21914207DD93F89420FA
:1035B00022B93221A3F8BC1083F8BA2094F8A520D0
:1035C000294B62B193F8BE202AB993F8B82012B9FA
:1035D0003222A3F8BC20012384F8BE300AE093F81D
:1035E000B8203AB1214A527822B983F8B820012292
:1035F00083F8B920254B002193F8149001220B4643
:103600004B4547DA07EB43052D8940F2A46A0FFAD0
:1036100085FCD44502F1010BD4BF4FF0000A4FF0F6
:10362000010A0AFA0BFA40F2135BDC454FF0030B78
:103630000BFB03FBA5F21555ADB2CCBF4FF0000C50
:103640004FF0010CB5F5C77F0CFA0BFC8CBF0025C1
:10365000012595404AEA0C0C4CEA050C41EA0C01A4
:1036600001330332CCE700BFF81E0020ED0C002030
:10367000AE1C0020880B0020B01C0020967E0108A4
:103680009B7E01081230002048290020A40B002056
:103690009400002000239D4D9D4A05EB8309D9F835
:1036A0004C9002F1940C11EA090F0CBF4FF0000985
:1036B0004FF0010903F80C900133192BA946EAD108
:1036C00092F8AC30934D2B7523B1012382F89F30D3
:1036D00082F8963094F895308F4A53B98C4B4FF05E
:1036E000050CB3F9B01099F808310CFB03F39942BB
:1036F0001DDD11688B071AD5EB7843B9C4F8C030CB
:10370000C4F8C430834B4FF0010C83F803C00004AD
:1037100010D599F808314FF0050C0CFB03F3B4F900
:10372000B000984206DD890604D5012301E000239C
:10373000EB70AB7494F8963075495BB10023EB7075
:103740002B7943B9C1F8C030C1F8C430714B0121A5
:10375000197100E02B7194F894300BB901232B7090
:1037600095F803C06D4BBCF1000F02D1694909798E
:1037700011B11021596101E01021196111684B0745
:1037800025D594F89720624B9AB1A87990B9614AEF
:103790004FF0010A82F806A0D3F8CC20C3F8DC0071
:1037A000C3F8C820B3F8D820C3F8E000A3F8D020AD
:1037B00000E0AA71B368980409D594F898302BB149
:1037C000EB7B23B9534B0122DA7300E0EB7311F06A
:1037D0000A0F20D094F899304D4A4BB16B7943B918
:1037E0004C4B01205871B2F8B630A2F8E43000E03A
:1037F0006B7194F89A302BB16B7A23B9454B012247
:103800005A7200E06B7294F89B20414B1AB1B3F8E6
:10381000B620A3F8E620890640F1F280EA7A3D4B13
:10382000002A00F0E8803E4A1278042A40F2E38041
:1038300094F9E82032B11A7922B9BCF1000F01D114
:103840000122DA7094F89E20314BDFF8DCA01AB91F
:10385000AA7CDFF8C0B0CAB1EB79DFF8B8B0002BB2
:1038600040F0B7802F480122011D8BF808308AF8FC
:1038700001308BF80720019203F0AAFD022384F89F
:10388000E830B4F80431C4F800313BE08BF807208D
:1038900093F89F20002A49D0B3F9D210B9F81C211F
:1038A0000029B8BF4942914240DAB3F9D410002947
:1038B000B8BF4942914239DA9BF80820002A40F00B
:1038C0008880D3F808114FF0010CC3F8F810D3F832
:1038D0000C1103F1F800C3F8FC1003F1FC018BF8A4
:1038E00008C08AF801200393CDF808C0019203F0C4
:1038F0006FFD039BDDF808C0B3F8041183F8E8C03E
:10390000C3F80011019A8BF8132062E0D02E00203A
:10391000F81E0020ED0C0020880B0020000C014058
:1039200021280020E41F0020940000209AF80110B4
:1039300000232B7200294CD1764B01225A708C4601
:10394000754B002203F588702CF8002003F58B706E
:103950002CF8002003F58D702CF8002003F5907BE7
:10396000002041F80B008B44CBF80420CBF8080072
:1039700003F5A47B41F80B008B44CBF80420CBF873
:1039800008000CF1020C03F5B87B41F80B00BCF108
:10399000040F8B44CBF80420CBF8080001F114018C
:1039A000CED1297C11B90023EB7412E0C3F8980141
:1039B000C3F89C01A3F8A021A3F8A221A3F8A42195
:1039C0005649002353520C31535202320A2AF7D17E
:1039D000E9E79AF800300C2B12D994F8BE317BB984
:1039E0004F4805F075FA4B4B0C221A704A4B0122D6
:1039F00083F8BE2104E00023EB712B7284F8E830D9
:103A000094F8A0302BB1AB7C1BB9464B01229A72C3
:103A100001E00023AB72297C424B31B3B268002035
:103A20009205587221D599F808214FF0060909FB33
:103A300002F2B4F9B0C0944517DD0122DA703A4AB7
:103A40009872B2F8980182B23A807A80BA80374A86
:103A5000B2F80A21FA80DA7A3AB9354F3F78052F61
:103A600003D89A74334B32381880B2682E4BD20682
:103A70004BD56A78002A48D0002946D1B8F1000F0A
:103A80001FD02D49D4F8C02109684AB993F876317E
:103A90004FF47A7202FB03121F4BC3F8C02106E0F9
:103AA0008A4204D293F876310BB105F02BF8194C09
:103AB0002378092B29D9214805F00AFA0923237014
:103AC00023E0D4F8C03103B3134BC3F8C0811CE02A
:103AD000144B1B78002B3FF47FAC0BF0E1F97BE437
:103AE000012202E0022200E003225FFA82FA0020B3
:103AF0000AF1FF33014686F8683502F091FD022095
:103B00002821524602F01DFD02E5002005B0BDE867
:103B1000F08F00BF94000020F81E00209E2000209F
:103B2000A27E0108ED0C002048290020D02E0020A4
:103B3000212800208812002008290020937E0108F7
:103B40002DE9F04F794C87B0A3689B0740F1948032
:103B5000774D06222B68AF881F44AB792F60013365
:103B6000DBB2B3FBF2F6AB7102FB163313F0FF06C8
:103B700067D1DFF80892D5F808A099F80130DFF88E
:103B8000008250464FF0785138F813B00CF02AFB01
:103B9000014650460CF01CFA1FFA8BFB8246584631
:103BA0000CF0CCFA63490CF01DFB63490CF0CEFB22
:103BB000834694F87D010CF0C1FA014658460CF09A
:103BC00011FB014650460CF005FA4FF07851A86001
:103BD0000CF008FB0CF0F2FC94F88131A88183B35F
:103BE00099F80530B4F8781138F8132040F6E4431A
:103BF00092B25A4340F6FF73B2FBF3F2B4F87A3153
:103C00002869D21A4FF47A735A43B2FBF1F20821B1
:103C100090FBF1FECEEB000002442A6192FBF1F230
:103C20005743D5E9060197FBF3F3C01841EBE37165
:103C30006A61C5E90601414A00230CF0DFFC2E60F1
:103C400028623F4AAB8912889A4208D33D4D2B78AF
:103C5000012B11D93C4805F03BF901230BE03B4A0D
:103C600012889A4208D3374D2B78022B04D9384852
:103C700005F02EF902232B70364E737B5BB3314D6A
:103C80002B78082B27D9A368DF051FD5324BDB7AA9
:103C9000E3B1324B1878042818D90023304905279E
:103CA0005A185F540F275770122B03F10207FAB20C
:103CB00004D0B0EB520F3B46F0D800E014220A4487
:103CC00064235370F0239370254800E0254805F0E5
:103CD000FFF808232B70244B1A881AB1234B1B685A
:103CE000980707D4224B1B8823B9224B1B780BB1B2
:103CF00005F08EFF204B1A7832B10D4C94F8243029
:103D0000002B00F00E83BEE2A268084B1105F4D52B
:103D1000184A1278002AF0D093F8BB21002A37D134
:103D200093F8BC3173BB0C4B5B782CE04829002026
:103D3000E02000203333534000F07F45407E0500F3
:103D40008A0A002094000020BD7E0108880A002015
:103D5000C07E01088C1F0020ED0C002021280020CF
:103D6000C8200020B17E010812300020880B0020FE
:103D7000AE1C0020AC1C00201C300020780A002063
:103D8000800A0020337D003318BF0123002BB4D0FC
:103D900094F8BA31002B40F06981C34BD86803F026
:103DA000F5FE002840F06281C04AC14D1368A96A3F
:103DB000591A7C2940F25A81AB6295F82C3007469B
:103DC000013385F82C3007F12400B94EC0B206F05B
:103DD000BDFC06F12E0333F917000CF0AFF9B54B1B
:103DE000804618880CF0AAF9014640460CF0AEFA5D
:103DF000B1490CF0F7F90CF0BBFB013700B206F04B
:103E0000BDFC032FDFD1302006F0A0FCB6F9340052
:103E100006F0B4FC06F0AAFC96F82C0010F003089B
:103E200028D1102006F092FCB36B642793FBF7F0C7
:103E300000B206F0A3FC212006F088FCB36B93FBD4
:103E4000F7F007FB103787EAE770A0EBE77000B2E6
:103E500006F094FC142006F079FC984BB3F90000AE
:103E600006F08CFC1C2006F071FC404606F086FC37
:103E700006F07CFC95F82C308D4E5A0740F0D0802F
:103E8000022006F063FCB6F93C000A2790FBF7F02D
:103E900006F074FCA3689B075FD5B3894FF06E08EA
:103EA00008FB03F8152398FBF3F81FFA88F83A206B
:103EB0004FF0640906F04AFCB8FBF9FB0FFA8BF0EF
:103EC00006F05CFC3B2006F041FC09FB1B8080B245
:103ED0000530DFF8F88190FBF7F000B206F04EFCF9
:103EE00098F80030B28940F6340192FBF3F24A436D
:103EF0002A21B2FBF1F2F18F062091FBF3FB03FBC9
:103F00001B1B4FEA0B1B1FFA8BFB4BEA022B1FFA02
:103F10008BFBC2F303224BEA020B06F017FC0FFAED
:103F20008BF006F02BFCF28F98F80030013292B241
:103F300092FBF3F103FB11232820F38706F006FC24
:103F4000706990FBF7F000B206F018FC042006F050
:103F5000FDFBB6F9200006F011FC594B1B689806D2
:103F60005CD5584FDFF868813B68574E002BB8BFCF
:103F70005B4293FBF8F106FB01334FF03C0909FB70
:103F800003FA1320039106F0E1FB039964229AFBE4
:103F9000F8FB02FB01B000B2039206F0EFFB1B201E
:103FA00006F0D4FB06FB0BA34FF47A7B93FBFBF0EC
:103FB00000B206F0E3FB232006F0C8FB38680028B7
:103FC000ACBF4E20532006F0D9FB7B681220002B9B
:103FD000B8BF5B4293FBF8FA06FB0A3309FB03F90F
:103FE00006F0B4FB039A99FBF8F802FB0A8006FB83
:103FF000089800B206F0C2FB1A2006F0A7FB98FB57
:10400000FBF000B206F0BAFB222006F09FFB7868B6
:104010000028ACBF4520572006F0B0FB06F0A6FBF9
:1040200095F82C30282B21D1214B002283F82C200D
:104030001E4A4FF47A7317683C25B7FBF3F7172035
:1040400006F084FBB7FBF5F6B6FBF5F005FB106058
:10405000000200B206F092FB182006F077FB05FB89
:10406000167000B206F08AFB06F080FB94F8BA31B5
:10407000012B7FF442AE0C4CE06803F087FD002872
:104080003FF43BAEE468636B23B19B6820469847DE
:10409000054635E0A368201DE3B10DF117019847EF
:1040A000003018BF01202AE0A40B002008290020BE
:1040B000E02000207800002000007A44AE1F00209D
:1040C000880B002000200020806967FF1600002078
:1040D00080969800E2697AB101210DF1170004F091
:1040E000D9FE0546E06903F05CFD638D834205D887
:1040F000236A01225A7001E0104600E02846C5B24A
:10410000052003F08DFF8A2D31D08E2DB3D1AD4C1B
:1041100000212E2204F1720012F0ECFB7C2384F8C3
:104120007230E02384F875307D2384F89E30A389B3
:1041300084F87350DAB21B0A84F8913084F887301F
:10414000142384F88A3084F88B304FF4FA73A4F87F
:104150008C304823A4F89430782384F8902084F895
:10416000862084F8963004F172002E2188E0964B68
:104170001B6899067FF57FAF924C002104F1400047
:104180002C2212F0B7FB7C2384F84030A02384F863
:1041900043307D2384F86B308C4B84F841501B787E
:1041A00084F85A308A4BDB7A002B64D089498A48DC
:1041B0000A688A4E92FBF0FC5FFA8CFC06FB0C2727
:1041C00006256F43662384F86930D30F84F849309D
:1041D00042F21073B7FBF3FE03FB1E77496884F8C5
:1041E0004C7091FBF0F03F0AC0B284F84D70CF0FD5
:1041F00006FB00116943B1FBF3F503FB151384F8CB
:1042000051301B0A84F85230B4F86C3064225FFAE3
:104210008EFEE9B202FB0CEE02FB0011B3FBF2F2E0
:1042200024235A43B4F86E301FFA8EFE84F85330BC
:104230001B0A84F854306A4B89B21B8892B284F806
:1042400055301B0A84F85630B4F8703084F84AE0D0
:1042500084F84F104FEA1E2E090A84F84720120AEC
:1042600084F84BE084F84E7084F8501084F84820AD
:1042700084F85C3002E0202384F8693059482C210E
:1042800003F0BCFAF7E6D4F8B020002384F8243019
:1042900013629362D362C4F8B030534B1F68534B20
:1042A0001D78002D3DD104F514780126294664229D
:1042B00040461E7012F01EFB84F8506231464C4A94
:1042C00043460095022000F09BFBC4F87802802052
:1042D00006F020FAC4F8740218B33B1DC4F870321B
:1042E000444BC7F82480FB62434B30463B6320219C
:1042F00011F0FEFFC4F8800218B9404B03221A7077
:104300000FE0202384F87F323D4B3E48C4F8A832AA
:104310003033C4F8AC323C4B2946C4F8B03204F018
:10432000E7FD94F8B43223B10AF09AFF374A384BCC
:10433000DA60384BDB680BB137489847374A224D73
:10434000138813B12B689A0702D4354B1B8813B11D
:1043500003F026FF0AE01E4B9A7812B1314A082179
:1043600011615B7813B12F4B08225A6194F8B53272
:1043700023B1144A013B82F8B5320BE0144B5A7B4F
:104380001AB99A7003F00CFF01E001229A70092318
:1043900084F8B5322B689B0610D594F8B63223B159
:1043A000084A013B82F8B63208E0084B1B78042B20
:1043B00001D903F0ECFE022384F8B632002007B0E6
:1043C000BDE8F08FE0200020880B0020212800208D
:1043D000ED0C002000200020A08601006079FEFF87
:1043E000FC1F002020210020A40B00201C300020F6
:1043F000E98C0008854C0008016500081030002099
:10440000C87E0108E08E0108DB8E01080400FA0571
:1044100000ED00E0280B00201C21002012300020BD
:10442000AE1C0020000C014018B9034B01221A7089
:1044300070470023037470471030002090F851201B
:1044400008B502F0FD026FF30002C36D80F8512041
:10445000002280F8502003B1984708BD2DE9F04FA5
:10446000037D85B05DB24FF0060C0CFB05FC01939B
:104470000369D0F81C80D1F800A053F8257038F8F3
:104480000CB0C7EB0A07BFB2CBEB070292B294B2F3
:10449000BB4414F4004F1FFA8BFB18BF54421FFAA1
:1044A0008BF218BFA4B212F4004F1CBFCBF1000274
:1044B00092B20FFA84F90FFA82FBD94508EB0C0689
:1044C000CDF8089023DD43F825A090F9184090F925
:1044D0001450062253F8255053F824306243EB1A47
:1044E000C1699BB228F80C308C5A1C1BA4B2A5B22F
:1044F0002F044ABF6442758074808A5A13449BB269
:104500009AB211044ABF5B42B280B38017E0019EA9
:104510000135067690F9086095FBF6FC06FB1C5504
:10452000EDB2057509686DB243F8251090F91430A5
:1045300006215943C5696B186F525C809A8000232D
:1045400090F908101A468A4205DA046954F82240A4
:1045500001322344F7E721EAE17212B193FBF2F34F
:10456000C3600C3005B0BDE8F08F90F9142090F9CD
:104570000830013230B592FBF3F403FB14220369D7
:10458000D2B2027552B253F8224085692C1B846165
:10459000096843F8221090F91410826953F8213009
:1045A000134490F90820836193FBF2F340F80C3F29
:1045B00030BDC36810B59C695CB194F8243033B148
:1045C000002384F82430A36A0BB1A06998472468BB
:1045D000F2E7204610BD0378052B1FD8DFE803F073
:1045E000031E121512154B1E9BB2632B04D90C4BE4
:1045F00001221A700020704764294FF001030DD189
:1046000003700BE00029F2D008E00029EFD0054B41
:10461000186818B9024B09221A70704701207047B8
:10462000103000206C090020038C4BB10A4A11683D
:10463000C2698A1A9A424FF000030BD3038409E03F
:104640004369012202FA03F3044A1268134208BFC5
:104650000020704718467047082900209009002064
:10466000038C4BB1054A1168C2698A1A9A424FF00D
:10467000000328BF03841846704700BF08290020A4
:10468000044BC2691B6801899A1A8A422CBFC36114
:104690000020704708290020074B10B51B6804460E
:1046A0009847E3692289C31A934202D3E061204606
:1046B00010BD002010BD00BF6C0900202DE9F84F8F
:1046C0000E4604461546062E2BD8DFE806F00418E1
:1046D0001C221C2228002D4A0023106817464FF088
:1046E000010808FA03F212EA00011FD04344202B0C
:1046F000F5D1274B04221A700020BDE8F88F254B16
:10470000642503610DE0244B1B68C361234B2361C7
:1047100007E0234B1B689847224BE061F7E7002531
:104720000561A67125810120BDE8F88F104338602E
:104730001D484FEA451B90FBFBFCBCF1640F4FF09A
:10474000640720D9DFF864909BFBF7FBD9F8008061
:1047500007FB08F059450FDA4FF0640AB0FBFAFA8C
:10476000DFF850900AF01F0A59F82A706044174386
:1047700049F82A700131EDE70C4908F101020A609D
:1047800063610B4BC3E746463D46F9E78C090020C1
:1047900010300020614600080829002081460008EA
:1047A0006C0900209946000800E2040098230020CC
:1047B0002946000890090020012303FA00F0074B66
:1047C000C04303F180015A68024043F8042F8B4232
:1047D000F9D1034B1A681040186070478C0900200B
:1047E0008C09002083883BB1074A116882688A1AC5
:1047F0009A4294BF00230123C278002A0CBF1846B6
:104800000120C0B2704700BF0829002070B5002405
:1048100025462346065D01343344DBB21D44042C97
:10482000EDB2F7D1002084B2944206D20C5C013084
:104830002344DBB21D44EDB2F5E703EB052080B263
:1048400070BD90F8513010B543F0020380F851303C
:104850004368044603B19847636D1BB11A68DA6078
:1048600001225A7210BD08B503461A7A0020022AA6
:10487000D860587201D15B68984708BD037C73B556
:10488000052B04460D4600F28580E0680DF1070116
:10489000A84700286BD0237C052BF6D8DFE803F06F
:1048A0000321272D38449DF8071024290FD1636A6E
:1048B00001215A7A21740AB959721A77C8221A60EA
:1048C000DA601A7A022AE0D100229A61DDE73A4BD7
:1048D0001B78032B4FD16368002B4CD020469847A0
:1048E000D3E79DF807304D2B45D102231AE09DF800
:1048F00007303C2B3FD1032314E09DF807307C2B7D
:104900003BD862696377137001232376042309E09F
:104910009DF80730217E626923775354237E01334B
:10492000237605232374B0E7227E63699DF8071080
:104930009954227E637F0132D2B2023393422276AF
:10494000A3DA98B29DF80710002366691A46F55C51
:1049500001336A409DB28542F9D391420FD1606A1A
:10496000FFF781FF636902332362062311E0124BD4
:1049700003221A700EE0012302E0002300E002236C
:104980000D4A606A1178994218BF1370FFF76BFFE8
:1049900000232374237C062B0CD123681BB12046F3
:1049A00004F11C019847E368DB690BB101225A70DE
:1049B0000023237402B070BD9600002070B50E4D28
:1049C00004462B680833984204BF00232B60837988
:1049D000012B02D84069FFF7EFFE084E2146304612
:1049E00003F073F9B3680BB92B6070BD2B6813B972
:1049F0003269014B1A6070BD8809002070090020DF
:104A00002DE9F743894698468DF8070015461AB9EF
:104A10001E4B01221A7004E00DF10700FFF7DBFDC9
:104A200008B900202EE01A4803F038F9184E044661
:104A30000028F6D017494A460F880137BFB20F80C9
:104A400087809DF80710FFF739FEA8B19DF8073061
:104A50006562062BC4F80C8006D09DF82830D3F18F
:104A6000010338BF002300E0012323700A4B1A68BA
:104A70003AB932691A6004E03046214603F025F95C
:104A8000CFE7204603B0BDE8F08300BF1030002020
:104A900070090020040000208809002037B5044672
:104AA00002A800F8011D11461546FFF794FD70B1EC
:104AB000A379012B02D86069FFF77EFE20469DF89E
:104AC00007102A46FFF7FAFD003018BF012003B097
:104AD00030BD0F4B10B51A6801321A605A79012A9D
:104AE00002D0022A0FD010BD0A4964240A680A487D
:104AF00054430268B4FBF2F2C2F164021A7100225C
:104B000002600A6000E000225A711A6010BD00BF06
:104B10001C290020C41C0020C01C002070B5104DB2
:104B200004466B68042B17DC05EB83020126013376
:104B30006B600676436A906098476A680023013A82
:104B40006A6005EB82052376AB60A379043BB34230
:104B500004D818B1208101E0002070BD304670BD3E
:104B600098230020F8B5294E294F3368BD681BB93A
:104B7000002D49D03B693360264B00241A6820463B
:104B80002A441A60AC4207DB234B1A6814441C60A9
:104B9000002834D1012535E00028F5D1336893F899
:104BA000202012BB1D4A516889B102468A420EDAA2
:104BB000DFF86CE05EF822E09EF802E0BEF1000F44
:104BC00003D093F80AC0F4450FD00132EEE7597ACA
:104BD00003F1080219B100215972104605E0197A53
:104BE00019B99B690BB110469847336803B11B682C
:104BF000336013B93B69054A13600134C2E7FFF71C
:104C00008DFF0546FFF765FF2846F8BD880900209F
:104C100070090020C01C0020C41C00209823002024
:104C2000A0230020F8B50E46044602F0A4FF074674
:104C3000304611F0E3FF85B2BD4201D800230AE0FF
:104C4000E91B204689B202F0B5FF0028F6D10C4BD3
:104C500004221A70F8BD9AB2AA420ED2F05CA18A60
:104C6000226901335054A28A2189013292B29142C1
:104C7000A2829CBF0022A282EDE70120F8BD00BF06
:104C80001030002073B590F82E5004460E46002DCB
:104C900068D1206A0DF10701B04700285CD09DF86B
:104CA00007300A2B23D094F82D2002D8082B05D0EA
:104CB00024E00D2B17D01B2B3ED01FE0002A37D04D
:104CC000606A2949FFF7AEFF18B9FFF74BFF0028CC
:104CD000F6D194F82D30226B013BDBB2002184F831
:104CE0002D30D15424E0214B01221A7724E01F4BB0
:104CF0001A7F012A20D100221A7719E094F82F3068
:104D0000033B9A4214DA606A9DF8071002F092FFA2
:104D100018B9FFF727FF0028F5D194F82D20236B51
:104D20009DF80710995494F82D30013384F82D30F4
:104D3000012D18BF0025ACD194F82D20236B002144
:104D40009954606A0A2102F075FF18B9FFF70AFF4B
:104D50000028F6D101259CE725B1A26A012384F839
:104D60002E30537002B070BD379101089823002097
:104D700010B503790446DB0703D4006908B111F0CC
:104D8000FFFA0023236110BD38B50D46044602F03A
:104D900008FF854202D3A38AE38238BDE38A1D441B
:104DA000238995FBF3F203FB1255E58238BD70B5FC
:104DB000154604460E4602F0DEFE854201D8002369
:104DC0000AE0291A89B2204602F0F4FE0028F6D142
:104DD0000B4B04221A7070BD9AB2AA420ED2F05C3C
:104DE000A18A226901335054A28A2189013292B2E8
:104DF0009142A2829CBF0022A282EDE7012070BDF9
:104E000010300020F0B583698BB004460F46002BAC
:104E100000F0E680734DD0F898302A68D31A022B40
:104E200084BF002380F874302B68C0F8983090F865
:104E30007430032B4CD8206A03A9B847002847D008
:104E400094F87430032BF6D8DFE803F00212252C17
:104E50009DF80C301A1FD2B21C2AECD8624A0021ED
:104E60005177D91EDB43D38384F8751001232CE0DE
:104E70005D4B9DF80C005E7FD98B721C2644D2B22C
:104E800086F87600081A5A77D88394F875309342DA
:104E9000D1D1022319E0544B9DF80C2083F8202037
:104EA000032312E0504B9DF80C10DA8B93F820305E
:104EB00003EB01239A4204D1E3680133E360042346
:104EC00003E0236901332361002384F87430B2E7DF
:104ED00094F87420042A40F083802B6894F876506C
:104EE000A360402D19D12246012323F001010AA815
:104EF000014492F8785092F87700023340EA052096
:104F00001D2B21F81C0C02F10202EED1A369002B2B
:104F100058D0204603A9984754E0236A58690028CE
:104F200050D0217F05F00F0399424BD3002B49D07D
:104F300094F87510012945D1DE1C05F0F00504EB4D
:104F4000C606902D06F104010AD0A02D15D0802DA3
:104F500038D1803B8DF804208DF80530022235E0F1
:104F6000703B8DF80530337906258DF806304B7887
:104F70008DF804508DF8073028E0603B4D788DF8AF
:104F800005304B682E1D1912042D8DF804608DF824
:104F900006308DF8071019D11A141B0E8DF8082051
:104FA0008DF80930062211E0ED430AAB1344ADB28F
:104FB00003F8245C0AAB13442D0A023203F8235C85
:104FC000FFF7F5FE002384F8743009E000231D4646
:104FD00099B2914201A9E7D2C95C01330D44F7E7C8
:104FE0000BB0F0BD082900209823002070B545695A
:104FF0000E462846144602F0BEFD08B9002070BDDA
:10500000A04238BF0446A4B2284631462246FFF7E4
:10501000CEFE0028F2D0204670BD00BF038A064AAB
:105020003C21A3F5807301FB03239B6B0120DA680D
:1050300042F08002DA60704750280020024B9A68E4
:1050400042F002029A6070474829002037B50623D3
:1050500005460C4680683B216A4604F0C3FF40B316
:105060009DF801309DF800009DF8022003EB002020
:105070009DF803309DF8041003EB02229DF80530E3
:1050800080B203EB012392B29BB220806280A380A6
:10509000697869B100B290FBF1F12180697812B2B0
:1050A00092FBF1F262806A781BB293FBF2F3A38069
:1050B000012003B030BD37B5062305460C46806895
:1050C00043216A4604F08EFF40B39DF801309DF8FD
:1050D00000009DF8022003EB00209DF803309DF8AE
:1050E000041003EB02229DF8053080B203EB01238C
:1050F00092B29BB220806280A380297869B100B20D
:1051000090FBF1F12180297812B292FBF1F26280DA
:105110002A781BB293FBF2F3A380012003B030BDC9
:1051200037B5062305460C4680683B216A4604F0E5
:1051300059FF40B39DF801309DF800009DF8022012
:1051400003EB00209DF803309DF8041003EB0222CE
:105150009DF8053080B203EB012392B29BB2208010
:105160006280A380697869B100B290FBF1F121807F
:10517000697812B292FBF1F262806A781BB293FBFB
:10518000F2F3A380012003B030BD37B506230546F6
:105190000C4640681D216A4604F024FF28B39DF8A0
:1051A00001309DF800009DF8022043EA00209DF8A0
:1051B00003309DF8041043EA02229DF80530208058
:1051C00043EA01236280A380297869B100B290FB91
:1051D000F1F12180297812B292FBF1F262802A78F3
:1051E0001BB293FBF2F3A380012003B030BD1FB5C7
:1051F0000123ADF80830ADF80410002301A9ADF883
:105200000A30ADF80C30ADF8062005F0BFF805B057
:105210005DF804FB4FF41A7358432A4B10B5C418B9
:10522000C35CDB074DD594F858321BB3236D186867
:10523000828DC2F34E02828494F85C2222B1B4F8CB
:1052400064220132A4F8642294F86222197B002AB5
:1052500014BF02220022FFF7CAFF012384F85B3249
:10526000002384F8593284F85A3284F85832A4F86A
:10527000603210BD94F85B322046012B04BF94F8D5
:10528000593284F85A3208F0DBFD94F85B12236D32
:1052900094F8622249B9012184F85B121868197BDD
:1052A000002A14BF0222002208E0002184F85B12C9
:1052B0001868197B002A0CBF02220022BDE81040AA
:1052C00095E710BDD417002070B54FF41A76464309
:1052D000424D741994F85C22CAB9E36CA16C9942EE
:1052E0002AD0591C234493F85801E36BC0B2994269
:1052F0004FEA400343F40073A4F85E324FF00A0310
:10530000E16484F85D3228BFE264012312E094F97D
:105310005D327BB1B4F85E1220464B08A4F85E32D1
:1053200001F0010108F0A1FD94F85D32013B84F821
:105330005D3201E084F85C3294F85832002B4BD196
:1053400094F859320133DBB2092B84F8593204D175
:105350002046BDE8704008F073BD0A2B3CD194F89C
:105360005B222AB9B4F8603243F00103A4F860323A
:10537000735DDD071AD5B4F8603203F4007189B2A9
:1053800009B9D80705D4B4F866320133A4F86632F7
:105390000CE0C3F34705636CE01880F85450A06B31
:1053A0000138834236BF0133616463640121002305
:1053B0008A4284F8593284F858120DD184F85B324D
:1053C00094F86222236D002A0CBF02220022186882
:1053D000197BBDE870400AE770BD00BFD4170020FC
:1053E00003460A466820194605F0FABC37B5202363
:1053F000ADF8043004230DEB0301022405461C48DC
:105400008DF806308DF8074002F0DFFE2A210022D9
:105410001C2005F0E5FC0E2122461C2005F0E0FCD6
:105420000F2103221C2005F0DBFC2B2112221C2063
:1054300005F0D6FC2C2122461C2005F0D1FC2D21A4
:1054400001221C2005F0CCFC2E2100221C2005F09E
:10545000C7FC05221C202A2105F0C2FC054B4FF495
:1054600080721A800DB1044B1D70012003B030BD55
:1054700000080140780000209700002010B50F219F
:1054800008220446182005F0ABFC0E22182010213B
:1054900005F0A6FC044B4FF480521A800CB1034B6C
:1054A0005C70012010BD00BF780000209700002034
:1054B00010B50446642002F0B3FD68202321F022D9
:1054C00005F08EFC10B9032001F05CF8052002F015
:1054D000A7FD064B68201A78202142F00F0205F044
:1054E0007FFC0CB1024B9C70012010BDBC2300203E
:1054F0009700002038B540001F4CC0B26070A1700A
:1055000001200021E1702071227460746069A36041
:10551000E360A17470B383889D0519D40388D9050D
:1055200010D447F2305563691A88920504D5013DBD
:1055300018D0FFF717FBF6E7A5B11A8892B242F42C
:1055400080721A8063699A8892B242F440729A809B
:1055500047F23055637C23B1013D03D0FFF702FBD6
:10556000F8E71DB9BDE8384005F0D0BB024B987C88
:1055700080F0010038BD00BFBC2300201FB50446E9
:105580006B46A82106226820FFF7B4FF9DF8013082
:105590009DF800209DF8021043EA022212B2042373
:1055A00092FBF3F2ADF808209DF8032002A842EA2E
:1055B000012212B292FBF3F29DF80410ADF80A201A
:1055C0009DF8052042EA012212B292FBF3F3ADF8F6
:1055D0000C30044B21469A7802F02CFD012004B0D7
:1055E00010BD00BF9700002013B50446192002F03B
:1055F00017FD0DF1070368200F210122FFF77AFF45
:105600009DF80730D32B18D10D4B228A63600D4BC8
:105610004E2AA3600C4B63610C4B06D05D2A06D06A
:10562000362A14BF0022402202E0802200E0C0227D
:105630001A70074B0120236000E0002002B010BD6B
:10564000B15400087D550008DDE9A731BC230020D6
:105650003B91010810B504460B4668202146D2B2A2
:10566000BDE8104046E72DE9FF41554F4FF4805308
:105670003B80544C544B0025A361544B06460DF11E
:105680000601752001228DF806508DF80550E36162
:10569000FFF7E0FF804660B94D4B7520A3614D4B8D
:1056A0000DF106010122E361012508F03DF84346B2
:1056B00012E0A36928460DF10501012298479DF8E3
:1056C000053003F07E03682B8DF8053003D1424B83
:1056D0002362012300E02B469DF8062002F07E02A3
:1056E000682A8DF8062033D10620A369024602A954
:1056F00098479DF80B309DF80D2003F0010302F050
:1057000001025B0043EA82039DF8092002F00102D6
:1057100013438DF8073033B1012B4AD0022B13D03D
:10572000052000F02FFF274B0C209B690DF107018E
:10573000012298479DF8073003F00F038DF80730DA
:10574000002BEDD0042B34D0244B022523620AE039
:10575000702A06D1224B002D0CBF0325042523629D
:1057600001E013B301251F4B73611F4B1A681F46DD
:10577000012A0DDD4FF40053ADF8083002238DF8F7
:105780000B301A48042302A98DF80A3002F01DFDDF
:10579000236A30469847164B1A68164B9A4206D130
:1057A000032D04D104233B6001E0184605E00120ED
:1057B00003E04FF4FF633B80C6E704B0BDE8F0812F
:1057C00078000020BC23002055560008E153000853
:1057D00029D70008F1E100081DCD0008F9CA00082A
:1057E000CDA8000818449231083000200010014074
:1057F00064090020001BB7001FB504466B46012159
:1058000006221C20FFF776FE9DF801309DF800204F
:105810009DF8021043EA022242F38D02042392FB18
:10582000F3F2ADF808209DF8032002A842EA012215
:1058300042F38D0292FBF3F29DF80410ADF80A20BA
:105840009DF8052042EA012242F38D0292FBF3F318
:10585000ADF80C30034B21461A7802F0EBFB012027
:1058600004B010BD9700002013B500238DF8073059
:105870000F4B04461B68012B01DD002015E01C20A6
:105880000D2101220DF10703FFF734FE0028F4D0AB
:105890009DF807302A2B01D01A2BEED1054B0120A1
:1058A000A361054BE361054B236202B010BD00BF4D
:1058B0000830002044910108ED530008F957000812
:1058C0001FB504466B46022106221820FFF712FE80
:1058D0009DF800309DF801209B0803EB0223ADF8F2
:1058E00008309DF802309DF803209B0803EB02234B
:1058F000ADF80A309DF804309DF805209B0803EBB5
:105900000223ADF80C30044B02A821465A7802F06D
:1059100091FB012004B010BD9700002037B5002492
:1059200002AB054603F8014D182021460122FFF77E
:10593000E1FD60B19DF80730FB2B07D1054B01203D
:10594000AB61054BEB61054B2B6200E0204603B0D9
:1059500030BD00BF4C9101087D540008C1580008BB
:105960001FB504466B46032106220C20FFF7C2FD3B
:105970009DF802309DF803209DF8011043EA0222B1
:105980006FF003035A43ADF808209DF8002002A8E9
:1059900042EA01225A439DF80510ADF80A209DF80D
:1059A000042042EA01225343ADF80C30064B214655
:1059B000DA7802F03FFB0A2101220C2005F010FAF0
:1059C000012004B010BD00BF9700002037B50024AF
:1059D00002AB054603F8014D0C2021460122FFF7DA
:1059E00089FD60B19DF80730482B07D1054B012098
:1059F000AB64054BEB64054B2B6500E0204603B020
:105A000030BD00BF53910108F5AD00086159000891
:105A10002DE9F043354B85B093F834208046994604
:105A2000002A3BD0002425462646274608220DEBB7
:105A3000020353203221FFF75DFD9DF809209DF8F8
:105A40000830013403EB02231BB29DF80B201F44E6
:105A50009DF80A30E4B203EB02231BB21E449DF80A
:105A60000D209DF80C30202C03EB02231BB21D44AB
:105A70009DF80F3003F07F0301D0002BD6D197FBA8
:105A8000F4F796FBF4F695FBF4F5ADF80070ADF87D
:105A90000260ADF8045089F835401DE0062202ABE3
:105AA00053203221FFF726FD9DF809209DF808308C
:105AB00003EB0223ADF800309DF80B209DF80A306F
:105AC00003EB0223ADF802309DF80D209DF80C3059
:105AD00003EB0223ADF80430054B684641461A79C2
