:020000040800F2
:1000000000500020F52A0108952B010819F100087D
:10001000952B0108952B0108952B01080000000085
:10002000000000000000000000000000952B010807
:10003000952B010800000000952B01087DEF0008BA
:10004000952B0108952B0108952B0108952B01088C
:10005000952B0108952B0108952B010815EE00083A
:10006000952B0108952B0108952B0108952B01086C
:10007000952B0108952B0108952B0108952B01085C
:10008000952B0108952B0108952B0108952B01084C
:10009000952B0108952B0108952B010811EE0008FE
:1000A000952B0108952B0108952B010803EE0008FC
:1000B000F9ED0008EDED0008E1ED000815F100088C
:1000C0000DF1000811F1000809F10008952B010855
:1000D000952B010825EF0008C9EE000865EE000821
:1000E000952B0108952B0108952B010800000000B5
:1000F0000000000000000000000000000000000000
:0C01000000000000000000005FF808F1A3
:100110002DE9F04FAF4C9DB023680490062B01F2FF
:10012000C486DFE813F007001F001F001F00C20491
:100130004306CE0AA84B1B682BB9A84B4FF47A7024
:100140001B68584300E09847049E326C831A2AB11A
:10015000B2691A44B261F2690132F261049FA04AA5
:100160003864138027689B4D012F00F0BE80022F5A
:1001700000F0BF81002F40F079849A48291DD0F803
:100180008030984705F10408002800F08A84964BD7
:1001900005F1540A1A889946002A00F098800C3517
:1001A0003E46B9F800B0914BBBF57A7FCDF814B05C
:1001B00007D10A20A3F13C0100FB06110022DA510D
:1001C0000A61DA5938F906000244DA510FF0FAFFF1
:1001D0002B690133012B2B6104D100236860286057
:1001E000AB602AE0D5F800C001936146CDF80CC0A1
:1001F00002900FF031FF019B834618460FF0E2FF9B
:100200000146584610F0E6F8DDF80CC0014660469D
:100210000FF024FF029A03461946686010460193C6
:100220000FF01AFF0146584610F020F8A9680FF0A9
:1002300015FF019BE8602B60A860059A0023012A46
:1002400028F806302AF8063034D12869012807DD5D
:1002500001380FF0B7FF0146E86810F0BBF800E086
:10026000002013F077F8624B834693F8660190B153
:100270000FF0A8FF0146584610F0B4F958B14FF4FA
:100280007A73A9F800300023E36123636364236574
:10029000E364A3640EE0554B4FF47A72FB580A20D6
:1002A00003F5FA7393FBF2F32AF806300F210122CB
:1002B0000AF0C0FC0236062E07F1040705F114050A
:1002C0007FF46FAFB9F80030013BA9F8003000238C
:1002D00038F803003AF803103E4A411A28F8031090
:1002E0000233062BF4D101F0D0BD3E4E05F15A0188
:1002F000D6F8983030469847B0465A35002800F076
:10030000D1833C4F3A4E3888002844D000231A4607
:10031000DFF8ECC0B0F5C87F04BF00214CF8021034
:1003200035F903905CF80210DFF8A8E049444CF876
:100330000210002106EB0309E9520233062BDFF815
:10034000B0C0A9F86A1102F10402E1D101281FD15D
:10035000DEF860304FF4C872C83393FBF2F3ACF8A8
:100360006A31DEF86430C83393FBF2F3ACF86C31D9
:10037000DEF86830C83393FBF2F2B8F89C30D21A3A
:100380001D4BACF86E219985D98501460AF0C2FC57
:100390003B88013B3B80B268154B520740F192808D
:1003A00016490A888946322A2CD1B3F86A11A4F872
:1003B0006C10B3F86C11B3F86E31A4F86E10A4F899
:1003C00070300D4B998DDB8DA4F87210A4F8743049
:1003D0001AE000BF10180020F40900206824002053
:1003E000782B002018000020EE170020581800205D
:1003F000A82400206E2B0020302A00203C1B002067
:1004000070180020002A3DD000231946322AB04F30
:1004100004BF0020785035F903E0785870447850D4
:10042000002006EB030EE8520233062BAEF86A01F9
:1004300001F10401EAD1012A1FD1A64BA64D187083
:10044000A64B1A702B780A2B04D9A54807F01AFE80
:100450000A232B70B4F86C30B4F87220A6F86A3115
:10046000B4F86E30A6F86C31B4F87030A6F86E317E
:100470009C4B9A85B4F87420DA85B9F80030013BBA
:10048000A9F80030984A1378E3B10023A16F1370E4
:10049000322291FBF2F1A6F86A11E16FB8F89C00E4
:1004A00091FBF2F1A6F86C11D4F8801091FBF2F2F6
:1004B000121AA6F86E2101208A4A01469385D38537
:1004C0000AF028FCB4F85A20B6F86A310227D31A89
:1004D000A4F85A30B4F85C20B6F86C31D31AA4F8FA
:1004E0005C30B4F85E20B6F86E31D31AA4F85E30F2
:1004F000D8E27E4B7E4F1B689847D5F8843006467D
:10050000C31A184605930FF059FED7F88C100690C1
:100510000FF0ACFE734BC5F8846093F83190002661
:1005200007903546B3461F46DFF8E48138F90500E9
:100530000FF048FE07990FF099FE10AB9851B9F1F2
:10054000000F2CD048460FF03DFE01464FF07E5084
:100550000FF040FF0346194608F1840A4FF07E5021
:1005600001930FF079FD56F80A100FF07FFE08F1A5
:100570005608024638F9050002920FF023FE019B4F
:1005800019460FF073FE029A014610460FF066FD01
:100590004AF8060010F030F8564B585305E008F1C1
:1005A000560835F80820534BEA52524B0436EB5E9E
:1005B0000235062D03FB03BBB6D14D4E642303FB6E
:1005C0000BFBB6F89C304C485B439BFBF3FBABF159
:1005D000490B10A91FFA8BFB0BF0ACF9BBF13B0FD9
:1005E00040F29A80454BD4F89C50B3F900000FF0CC
:1005F000E9FD014628464FF001060FF0F3FF00B970
:1006000006463F4B2946D4F898005E7312F002FD6F
:100610000646C4F8A000D4F89400D4F89C9000F1E9
:100620000045D4F8980001460FF020FE4946804668
:1006300048460FF01BFE014640460FF00FFD12F03A
:1006400089FE0146284612F0E5FC0546C4F8A400E0
:1006500030460FF077F91CA3D3E900230FF0C6F959
:100660000FF0A6FC12F008FCDFF8A880A8F8000044
:1006700028460FF067F914A3D3E900230FF0B6F969
:100680000FF096FC12F0F8FB1E4BA8F802001B6856
:100690001B0740F18E8010A91B480BF04BF91B4B38
:1006A0004FF0000AB3F864010FF088FD4FF07E515F
:1006B00081460FF0D3FC01464FF07E500FF08AFECA
:1006C000804657E0AFF300803B597E90A9E7814018
:1006D000881800203E1B002060010020381B0020ED
:1006E00026800108302A0020391B0020F409002050
:1006F00018000020B6190020A4180020880B002044
:10070000E50C0020800B0020B8180020A824002051
:10071000141800207C190020B14B4FF00008B3F8EA
:1007200062010FF04BFD4FF07E5106460FF096FC34
:1007300001464FF07E500FF04DFE0546DFF8D49293
:10074000304659F818100FF091FDA64B824633F948
:1007500008000FF037FD014650460FF07FFC294698
:100760000FF084FD49F8180008F10208B8F1060FEF
:10077000E4D137E7DFF8A0B248465BF81A100FF073
:1007800075FD994A034632F90A0001930FF01AFDEC
:10079000019B014618460FF061FC41460FF066FDD3
:1007A0004BF81A000AF1020ABAF1060FE2D15846D4
:1007B0003DE0DFF8389210A948460BF0BBF8D9F8B5
:1007C0000000D9F804B001460FF050FD59468246AA
:1007D00058460FF04BFD014650460FF03FFCD9F84C
:1007E00008808246414640460FF040FD0146504693
:1007F0000FF034FC12F0AEFD002180460FF0CAFE6F
:10080000A0B9D9F8000041460FF0E4FD4146C9F80F
:100810000000D9F804000FF0DDFD4146C9F80400DE
:10082000D9F808000FF0D6FDC9F808006F480BF0A2
:1008300039F96F4B6F49188006980FF017FD6C4B14
:1008400005F10045804606F10046B3F90000149515
:1008500013960FF0B7FC00F100400FF073F85EA3A1
:10086000D3E900230FF0C2F80FF0A2FB5D4D159005
:10087000B5F900000FF0A6FC1690B5F902000FF0D4
:10088000A1FC1790B5F904000FF09CFC13A9189077
:1008900016A80BF04FF8584B93F84830012B17D19E
:1008A000564B5B7873B9D4F8B430402093FBF0F02A
:1008B000181A0FF087FC18990FF0D0FB0FF09CFE70
:1008C000C4F8B400D4F8B430402093FBF0F002E058
:1008D0004B49B1F89C000FF075FC014618980FF0D9
:1008E000BBFB484B1890196840460FF0B7FB014618
:1008F00040460FF06FFDD4F8B86080463146189836
:100900000FF0AAFB014640460FF0B0FC014630460E
:100910000FF0A4FB0646C4F8B8001698D4F8BC80C3
:1009200012F0AAFA97F833100BF03AF94044C4F8E1
:10093000BC001798D4F8C08012F09EFA97F83310D4
:100940000BF02EF94044C4F8C0003046D4F8C480FF
:1009500012F092FA97F832100BF022F92A4B059E0A
:100960001A68404432441A60D4F8C830274D013325
:10097000C4F8C83097F8B630C4F8C400002B73D060
:10098000D5F89400D5F8988001460FF06FFC4146E9
:10099000074640460FF06AFC014638460FF05EFB02
:1009A000D5F89C600746314630460FF05FFC0146A3
:1009B00038460FF053FB12F0CDFC014630460FF0E5
:1009C00009FD134906460FF0F9FD38B30023A5F8D9
:1009D000CC3049E0AFF30080399D52A246DF913F11
:1009E000A8240020B6190020C219002050010020C0
:1009F000361B0020BD378635302A0020E50C00204C
:100A000018000020940B0020742B002010180020E8
:100A10008FC2753CA4180020B8180020304612F090
:100A2000A7FA9F4B19680FF021FC12F025FAB0F5D8
:100A3000617FA8BF4FF461700EF072FF96A3D3E9F7
:100A400000230FF0FDF80FF0B3FA12F053FA954BB4
:100A5000064693F8B6000FF0B5FB31460FF006FCE2
:100A600012F00AFAA5F8CC0003271BE08E4B5B7945
:100A7000012B8E4B0DD1B5F9CE10B5F9082002EB44
:100A80004102032192FBF1F292B29A80A5F8CE20A6
:100A900001E02A899A80A28804271A80E2885A8075
:100AA00000E00746276000F008BE814B814A197CB0
:100AB0007C4BA1B9B2F906101A8D91423CDBB1F51D
:100AC000FA6F93F8264007DA891A4C43A2F5FA62C6
:100AD00094FBF2F4643430E0C4F164042DE0B2F924
:100AE00006101A8D91420FDB734AB2F9061093F883
:100AF0002620914208DDB1F5FA6F02DA891A4A43DD
:100B00005212C2F1800200E080226C49B1F9021059
:100B1000142909DD93F82600B1F5967FA8BF4FF49C
:100B200096714143A2EB212293F82640C4F1800440
:100B3000A242A8BF144600E064245B4A93F8B05078
:100B4000B2F8987192F95C2193F8B160524293F82F
:100B5000253092B2002153480692059707930A4622
:100B6000544BDDF8149031F903B040F2E637C9EB8D
:100B70000B0303F2F31EBE4503D8002BB8BF5B4244
:100B800001E04FF4FA73022ADFF82CC12ED025B110
:100B9000AB42CCBFC5EB030300236427DFF82491ED
:100BA00093FBF7FE09EB4E086FF0630A0AFB0E3A5F
:100BB000B8F8D08009EB4E0EBEF9D2900FFA88FE3D
:100BC000CEEB090E0EFB0AFE9EFBF7FEC6442CF888
:100BD00001E090F823E003FB0EFE394B9EFBF3F39C
:100BE0003B449BB2634393FBF7F716E026B1B34255
:100BF000CCBFC6EB03030023DDF818A0DDF81CE032
:100C000003FB0AF7002BB8BF5B4203FB0EF3ACF803
:100C100004702B4F93FBF7F76437224B90F80B804F
:100C2000134493F801C007FB08F807FB0CFCDFF83E
:100C300098E064239CFBF3FC02F80EC098FBF3F8E9
:100C40000EF1030C02F80C8090F815C00EF1060EA0
:100C500007FB0CF797FBF3F302F80E30059B164FDA
:100C60009B4502DA7B5A5B427B520132032A01F137
:100C7000020100F101007FF473AF0E4BB3F90620BF
:100C8000094BB3F89A319A4220DBB2F5FA6FA8BF4C
:100C90004FF4FA621BE000BFA2EB0FE5DD169640B1
:100CA000900B0020302A0020A8240020BC1900202E
:100CB000E50C0020B00D0020521B00207C19002004
:100CC0000CFEFFFF10180020EE1800201A46D21A62
:100CD0004FF47A714A43C3F5FA63B2FBF3F3642528
:100CE0008F4A93FBF5F102EB41006FF0630606FBC0
:100CF0000133B0F8E80002EB4101B1F9EA6001B25A
:100D0000711A4B4393FBF5F5864B28445B7A864C6E
:100D1000F8809046002B44D0844BB3F90000844BFC
:100D2000B3F90030C01A0EF0FBFD7BA3D3E900231A
:100D30000EF05CFE00227F4B0EF082FF0FF038F9C0
:100D4000054612F063F80646284612F0D3F8054629
:100D5000B4F902000FF036FA0746B4F900000FF0BC
:100D600031FA314681460FF081FA294682463846EB
:100D70000FF07CFA014650460FF06EF90FF03CFC84
:100D80003146208038460FF071FA2946064648461B
:100D90000FF06CFA014630460FF060F90FF02CFCB2
:100DA00060800523C8F8003000F087BC624BDFF894
:100DB000A4911A6812F0080539D05B4988880F465B
:100DC00000F145039BB28A2B5C49584B2DD8554EF8
:100DD00096F805E0BEF1000F27D0B3F800E00B88CD
:100DE000767BC3EB0E0189B28BB20FFA83FE1EF144
:100DF000B30FBCBF01F5B4739BB219B2B32950490C
:100E0000C4BFA3F5B4739BB291F85C117EB149B233
:100E100049424B4399F809101BB24B436FF01D0137
:100E200093FBF1F31844B88001E01B880B8057074F
:100E300040F19D803B4B9979002900F098801E7C01
:100E4000394B002E40F08A8099F8B3003D4F99F855
:100E5000B21068B3B3F806E0B7F900000FFA8EF7E6
:100E6000C0EB070CBCF1000FB8BFCCF1000C8C45F7
:100E700010DD8742DFF8E0C0C8BF4942CCF800600F
:100E80001FFA8EFE4FF00106C8BF89B284F80061D8
:100E900071443FE094F8001131B12B490F682B49A0
:100EA0000F601F4981F8006129490968084426E05C
:100EB000B7F90060B3F90670BF1B87EAE77EAEEBB7
:100EC000E77E8E450ADD022197FBF1F70121C4F888
:100ED000047184F8081184F800110DE094F8007191
:100EE0000F494FB1184F81F80801D7F800E0174FAC
:100EF00081F80001C7F800E0154908683044104E39
:100F0000B6F84011B6F84261884203DBB042B4BF84
:100F100001463146D9802AE0182D4454FB2109406E
:100F200010180020E50C0020521B0020361B00206A
:100F3000661B002000806640800B0020641B0020A0
:100F4000A8240020501B00204C1B0020481B002020
:100F5000601B0020302A00205C1B00209749588825
:100F600091F9A0619649096806FB0101598099F839
:100F7000B63053B1934BD97809B91B792BB1924B49
:100F8000B4F8CC00D9880144D980960640F1928308
:100F90008C4BDE7905961EB91A7A002A00F08583FB
:100FA0001B7BDFF820B2002B00F07F83874B1F886C
:100FB00038B20FF007F986490FF058F9064611F0DC
:100FC00099FF8046304611F021FF9BF8103006460D
:100FD000002B40F0858099F815917E4F7E4DB9F138
:100FE000000F4CD0DFF81CA2B7F90200BAF80230AB
:100FF000C9F100041FFA83FB1BB2C01A0AF092FF6A
:10100000A04203DB4845A8BF484600E02046BAF8A6
:1010100000308344B7F900009AB21BB21FFA8BFB71
:10102000C01AAAF802B002920AF07CFFA042029A0B
:1010300003DB4845B4BF04464C461444A4B2AAF8A6
:1010400000400FFA8BF00FF0BDF8074620B20FF00A
:10105000B9F83146044638460FF008F94146814652
:1010600020460FF003F9014648460EF0F5FF5B49B4
:101070000FF0B0F90FF0C0FA288038461DE0B7F93C
:1010800002000FF09FF88146B7F900000FF09AF8C0
:101090003146044648460FF0E9F8414607462046E7
:1010A0000FF0E4F8014638460EF0D6FF4B490FF03A
:1010B00091F90FF0A1FA2880484641460FF0D6F882
:1010C0003146074620460FF0D1F8014638460EF06B
:1010D000C5FF42490FF07EF90FF08EFA6880E9E211
:1010E0003F4B404A1888404B9BF813B0DB8899F877
:1010F000369106933D4BD3F808803D4B1FFA88FA92
:101100001E889368CAEB0606B6B2CAEB030A1FFA3A
:1011100086FC1FFA8AFABBF1000F06D00FFA8CF397
:101120004B45BCBF08EB090393600A2300B2584348
:101130000193CDF80CC00AF0F5FE019BDDF80CC060
:1011400090FBF3F000B27DB190FBF3F338B29AB2AA
:10115000C31A002BB8BF5B420A2B08DD254B1B8846
:10116000C82B88BF174602E090FBF3F7BFB2224DB1
:101170002248D5F80C316422CAEB060193FBF2F247
:101180000668D5F8143189B2F31AC72BA5F81021D7
:10119000A5F81211824640F26C820368184EC5F819
:1011A0001431B6F82C3179BBA5F81831BBF1000F1A
:1011B00040D0044B0021D9743CE000BFA82400209B
:1011C000601B0020E50C0020521B0020361B002075
:1011D00035FA8E3C9A1B0020901B00200000204115
:1011E000C8190020781B0020B00D00206C1B0020C7
:1011F000841B002080190020101800206824002083
:10120000302A0020961B0020B6F8300109B200FBFE
:101210001130B6F82E31B6F82AE1984203DB70455A
:10122000B4BF03467346A5F81831BBF1000F01D0D7
:101230000029BEDAD71BB8B2059F9E499E4BE7B185
:10124000CA7C7AB1B6F824216FF009077A43A5F871
:101250001221B6F82A21A5F818210FFA8CF2182AC3
:10126000D8BF00201A88312A07D80FFA8CFCCC4549
:1012700003DD924A08EB09079760897C8D4A49B1E2
:101280001988092906D800215170D1748B4A08F1B8
:10129000050191601B88092B08D800B20EF092FF5F
:1012A00087490EF0E3FF0FF0A7F980B24FF0640911
:1012B00000B209FB00F00AF035FE90FBF9F01FFACE
:1012C00080F90FFA89F3002BB8BF5B42DAF800000F
:1012D000AA2BC8BF4FF0AF09D5F81C31DFF8048244
:1012E000C01A0EF06BFF77490FF074F8DAF800308F
:1012F000B5F812A1C5F81C310AF103039BB2062B05
:10130000074606D8D8F8000039460EF0AFFFC8F8F7
:1013100000000A2202FB0AF292B293B2A4F8123140
:1013200018B2029201930EF04DFFD4F824118246B8
:101330000EF09CFF39460EF099FFD8F800100EF021
:101340008DFE0FF059F96049B0F5FA7FA8BF4FF450
:10135000FA708842B8BF08460EF034FF5B49029A23
:101360008346C8F800000888019B121A92B20B80CD
:1013700013B2002BB8BF5B42642BC8BF0022544B92
:1013800003F10A01988823F8020F8B42FAD15149E0
:1013900000230A811846CA5A023310440A2B80B22D
:1013A00001D080B2F7E700B20EF00CFFD5F828119B
:1013B0000EF05CFF39460FF00DF80FF01DF91FFA23
:1013C00080F8D5F820115046A5F830810EF04EFF78
:1013D0000FF012F900B20EF0F5FE59460EF03EFE87
:1013E0000FF00AF91FFA89F909F103039BB2062BE2
:1013F0001FFA80FA08D8DFF8F0B03946DBF80000B1
:101400000EF034FFCBF800004FF00A0C0CFB09F98A
:101410001FFA89FC1FFA8CF210B20292CDF80CC0B0
:101420000EF0D0FEDFF8C090D5F8381183460EF0EC
:101430001DFF39460EF01AFFD9F800100EF00EFE0F
:101440000FF0DAF8204BB0F5FA7FA8BF4FF4FA702E
:101450009842B8BF18460EF0B5FE0346C9F8000022
:101460001D48DDF80CC00188029AC1EB0C0189B25D
:1014700002800AB2002AB8BF5242642AC8BF0021C3
:10148000164A02F10A00B2F804E022F802EF8242A2
:10149000F9D1134A4FF000091181484632F809107A
:1014A00009F102090844B9F10A0F80B21ED080B2D6
:1014B000F4E700BFE50C0020CA190020781B0020CB
:1014C000CDCCCC3D00007A440CFEFFFF201C002058
:1014D000241C0020261C0020221C0020301C002080
:1014E000321C00201C1C0020181C002000B201939C
:1014F0000EF068FED4F83C110EF0B8FE39460EF03E
:1015000069FF0FF079F887B2D4F83411A4F8447168
:1015100058460EF0ABFE0FF06FF800B20EF052FE20
:10152000019B0FFA8AFA19460EF098FD0FF064F845
:10153000B6F924316FF009014B439AFBF9FA0FFA1F
:101540008AFAB6F926119A4580B209FB01F903DB44
:10155000CA45B4BF53464B46B04C02B2B4F9201151
:101560006FF0090048434FF00A0E984492FBFEF2D8
:10157000AB4B1FFA88F88242A3F8028004DB0EFB13
:1015800001F08242B8BF1046BFB238441880B4F9A7
:1015900022016FF0090141438A4204DB0A214143E1
:1015A0008A42B8BF11469F4A0F44507C9F80114623
:1015B00058B194F828210FFA88F85242904503DB7D
:1015C000C845B4BF42464A465A80C97C964A69B962
:1015D00096F83261B2F900006421B6FBF1F15E8841
:1015E0000028B8BF404201FB10615980B2F90200E7
:1015F0000EF0E8FD4FF07C510EF038FE0EF0FCFFCF
:101600008A4BB0F5E17FA8BF4FF4E1701A88B5F8B6
:101610001871A2F5E17320EAE0709BB2381A642BCE
:1016200087B2834E0CD910B2C0F5FA700EF0CAFD25
:1016300080490EF01BFE0EF0DFFF33881844308027
:10164000B6F90030B4F82E21B3F5FA7FA8BF4FF4F5
:10165000FA7323EAE37333803B441BB29342B4F83A
:101660002A1103DB8B42B4BF1A460A46724BA3F819
:1016700018216C4A6A4BD17809B9117921B1927A53
:1016800052B1684A927C3AB9DDF818900022A5F868
:1016900018915A801A809A80684AB5F81811D1803A
:1016A000998893880B44938004E05D4B00221A8054
:1016B0005A809A80604B06221A60049805F0BEFAA0
:1016C000F3E35F4BDB6898475E4B93F80080B8F11B
:1016D000030F14D9594BB4F94A11B3F904006FF050
:1016E00063030028B8BF40421B1A994204DB00F193
:1016F00064038B42A8BF0B46A4F84A310BE0B8F153
:10170000010F08D8504B5A791946013AD2B2172A1C
:1017100000F2D481A3E04148B4F848A190F90E1139
:10172000B4F846B1B4F94A4149424C433D49434BB0
:101730000A7C90F81E01897ACDF810A0DE88B3F8F3
:1017400004A0424D0694CDF814B007920890099178
:1017500000244445D6D230B20EF034FD29688346C9
:101760000EF084FD049B844618B2CDF80CC00EF038
:1017700029FDA9680EF07AFDDDF80CC0014660462F
:101780000EF06CFC059A844610B2CDF80CC00EF039
:1017900019FD69680EF06AFDDDF80CC0014660466F
:1017A0000EF05CFC84460698CDF80CC00EF00AFDE5
:1017B000E9680EF05BFDDDF80CC0014660460EF0F6
:1017C0004DFC0EF019FFDFF88890079B670029F8A1
:1017D0001400002B40D0089A002A3BD0099B002B14
:1017E0003AD00FFA8AF00EF0EDFC84462046CDF890
:1017F0000CC00EF0E3FC4FF07C510EF02DFCDDF838
:101800000CC0014660460EF031FD014658460EF010
:1018100023FC0EF0F1FE29F807001DE0302A00201D
:10182000901B0020E50C00207C190020801900206E
:10183000241C0020CDCCCC3D10180020521B0020D1
:1018400050010020142A0020A8240020B40B0020FE
:10185000162A002027F809600134103579E70123A2
:1018600003FA02F2B94B13406BBBD00640F126815C
:10187000B74BB84893F9BE20B0F90240B0F9000068
:101880005443322294FBF2F4B3F8BC20A4B211B258
:101890001129DCBFB04A32F81120B04922440A8035
:1018A00093F9C820B3F8C6305043322290FBF2F0CF
:1018B0001AB2112AD8BFA84B80B2D8BF33F8123061
:1018C00003444B80FAE0A64B9B7A43B1A54B1A88A0
:1018D000ADF858205A889B88ADF85A200AE0A24BF0
:1018E000B3F84621ADF85820B3F84821B3F84A318F
:1018F000ADF85A20ADF85C309C4B974A1B88ADF888
:101900005E30B1F898311189C91AADF8601051896B
:10191000C91AADF862109189C91AADF86410D1895D
:10192000C91AADF866101188C91AADF86810518847
:10193000C91AADF86A109188D288C91AD31AADF8BD
:101940006E30ADF86C100023844900225A520233E5
:10195000102BF9D1864B15461B7804931346DDF8FE
:1019600010A0554500F08F80824E834C91198879E4
:1019700020B1824F3844007D00287ED0B05C744E88
:101980000A2707FB0067B7F8BAE0B7F8B86091F923
:1019900004B0C6EB0E06B6B206FB0BFB642791F84B
:1019A00001809BFBF7FB4FEA560C91F803E0CCEB70
:1019B0000B0B4FEA48070DF170091FFA8BFB91F8EA
:1019C00005A04F44BEF1000F03D137F8187CE75251
:1019D0001BE0E45E37F9187CDFF89C91BC4209DA21
:1019E000A644A64503DB7745B4BF3C46744629F8B8
:1019F00003400AE009DDCEEB040EBE4503DBA6453D
:101A0000B4BF7746274629F80370DFF844E14FF06A
:101A10000A0909FB00EEBEF8C0E091F902104EFA87
:101A200008F818F0010FDFF850814C4C33F90880AA
:101A30000FFA8BFB01FB08F14FF0640891FBF8F102
:101A40000CBF4FF0010E4FF0FF3E594534F81070B7
:101A50001FFA8EFE0CDB4FFA8AFB06FB0BFB9BFB8F
:101A6000F8FBCCEB0B0B0FFA8BFB8B45A8BF8B461F
:101A70000BFB0E7B24F810B000E0E0520135EDB214
:101A8000023307326BE73E4B314A03F1100492F9FF
:101A9000BE10B3F902500A324D43642195FBF1F5B3
:101AA000B2F8B210ADB208B21128DCBF2A4931F841
:101AB0001010294423F8021FA342E8D1314B9A6841
:101AC0009A4612F0200F224B3BD0B3F8BC00234CB7
:101AD00002B2112AD8BF20492546D8BF31F81200DA
:101AE000B3F8C61020800AB2112ADCBF1A4931F8B7
:101AF00012101A4A0C4669802049097A09B393F8F2
:101B0000101193F9C86011F0020F93F9BE701149DA
:101B10003AD0B1F90050B1F902106E437F424F4301
:101B20004FF0320E96FBFEF66FF03101B6B297FB26
:101B3000F1F1314497FBFEF708443E4410803444F1
:101B400054800F4A024902F1100532E089209800C2
:101B5000302A00207C190020B00D00208C010020CC
:101B6000E50C0020521B002010180020162A00202F
:101B7000740C0020750C00205C190020141B002040
:101B80008A010020A8240020B1F90250B1F9001008
:101B90006F434E43322597FBF5F7384496FBF5F536
:101BA00010802C44CCE722F8020FAA4201F10A016E
:101BB0000CD0B2F90240B1F9B800B1F8BA60844271
:101BC000F1DB30B2A042A8BF2046ECE793F8103119
:101BD000590705D49A499B4B0C881B7801220FE0CA
:101BE000994B9A4D9E7D0024043EA0190134C0B249
:101BF00035F8021FE4B20AF0D0FA042CF5D1E9E777
:101C00009A4208D231F9120024B2A042A8BF044679
:101C1000A4B20132F4E78E4ABAF84251107C291B73
:101C200005908C4889B2B0F90600BAF8987106910F
:101C30000490DAF808108848BAF840C101F48046E8
:101C4000B0F9EAB001F010010797B0F9EC70BAF8FA
:101C500046010E911FFA8CF1BAF844E108900A91FE
:101C600050787E49BAF848819AF80590BAF89AA156
:101C70005B000D960C901FFA8EF64989507C0F93ED
:101C8000CDF800B0CDF824A00B9600230F9EB342F0
:101C90006ED022B2AA4208DD059A32B9684A069E81
:101CA00033F802A0B24423F802A00D9E644A002E2D
:101CB00036D0DDF810A0DDF81CB0DA4532F903A00B
:101CC00015DDC24503DBAA45A8BFAA4600E0C2460F
:101CD000B9F1010F22F803A041D1009A09B2914253
:101CE00003DBB942A8BF394618E0009916E0F24577
:101CF00004DB089EB245A8BFB24600E0F246B9F147
:101D0000010F22F803A02AD109B2B94205DBDDF8A0
:101D100000A05145A8BF514600E0394689B21EE0F7
:101D200032F903B0E34503DBAB45A8BFAB4600E0A7
:101D3000E34622F803B002EB030ADDF810B0099A7B
:101D400093450BDA0E9E26B9DDF828B0AAF800B04C
:101D500005E00B98AAF80000012000E000200C9A92
:101D600022B93F4A985A364A9852012002338DE7E9
:101D7000354A3A4C364B6181517D58741A460029D8
:101D80007DD0384E7379013B172B6DD8DFE803F017
:101D90000C6C6C186F6C6C1E6C6C6C6C6C256C6CC9
:101DA0006C6C6C18256C6C342B4B93F80F3113B1A1
:101DB0000020618961E050780028F9D101465CE09B
:101DC000002021890AF0E9F90120F2E70020E188EA
:101DD0000AF0E3F9012021894FE00020E1880AF0B0
:101DE000DCF9012021890AF0D8F9022061890AF082
:101DF000D4F90320A18940E00020E1880AF0CDF960
:101E0000012021890AF0C9F9022061890AF0C5F987
:101E10000320A1890AF0C1F9B368104DDA072ED565
:101E2000042029880AF0B9F9052069880AF0B5F973
:101E30000620A9880AF0B1F90720E9891DE000BF52
:101E4000162A0020142A00209C0B0020B60D00202A
:101E5000E50C0020B00D0020302A00208C0100206D
:101E60009E190020A8240020B3689B0607D50020F7
:101E700021880AF092F9618801200AF08EF909F0B0
:101E80003BFD0C4B00221A600FE00B4B1B6813F05C
:101E9000020307D1A2F85A30A2F85C30A2F85E30F3
:101EA000FEF7E2BD0127FEF7FDBD00201DB0BDE835
:101EB000F08F00BF10180020800B0020AFF30080CF
:101EC0002DE9F34700F12407044638460D4605F096
:101ED00059F824238DF800304D238DF801303E232E
:101EE0008DF802302B7800263846694605228DF899
:101EF00003608DF8043005F0E3F830B19DF804304C
:101F0000A4F84A6084F8483008E0A38F2387A38DA3
:101F1000A387AC4B1A780AB904221A702B78772B56
:101F200000F03A8200F264816A2B00F09D8400F296
:101F30009E80452B00F0BB8719D8422B00F05487B8
:101F400009D8402B00F09B87412B08BF002300F0ED
:101F5000A28700F0BEBF432B00F0B086442B40F0B8
:101F6000B887994B012283F8002100F0B6BF662B99
:101F700000F0448373D8642B00F01783652B40F086
:101F8000A887924B2046198807F0DEFE904B20462A
:101F9000198807F0D9FE8F4B20461B68C3F3C00198
:101FA000C3F38002890041EA4201C3F340021143B6
:101FB000C3F3401241EAC20103F01003194307F0D2
:101FC000C3FE854A1579D378AD0045EA43055378B9
:101FD0001D43937945EAC305537945EA4315537A7E
:101FE00045EA83157D4BD97945EAC115197A45EA49
:101FF0000125597A45EA4125D17945EA8125117AA9
:1020000045EAC125117D927A45EA016545EA023526
:102010005A7B002145EA42359A7B45EA82351A7C93
:1020200045EA02451A7945EA02155A7C45EA4245D5
:102030009A7C45EA8245DA7C45EAC2451A7D45EA42
:1020400002555A7D45EA42559A7DDB7D45EA825527
:1020500045EAC3555C4B93F820000B46B6E2682B6B
:1020600000F0F48300F2F68320465D49F0E3702B24
:1020700000F0618440D86D2B00F0298413D86B2BBD
:1020800000F015846C2B40F024874F4D20462988A2
:1020900007F05AFE6988204607F056FE514B20464D
:1020A000198800F001BC6E2B00F01B846F2B40F0F0
:1020B00010874D4D2046E97F0CF094FA95F82010DA
:1020C00020460CF08FFA95F8231020460CF08AFA7F
:1020D00095F8251020460CF085FA95F82610204634
:1020E0000CF080FA95F8211020460CF07BFA20467F
:1020F00095F8221000F0C0BE732B00F075845AD8FA
:10210000712B00F04B81722B40F0E386374D204657
:10211000B5F8981107F018FEB5F84011204607F001
:1021200013FE314EB5F84211204607F00DFEB5F80A
:102130004411204607F008FEB6F80A11204607F0C1
:1021400003FE95F8AB1120460CF04CFA95F8AC1153
:1021500020460CF047FA95F8AD1120460CF042FAF3
:1021600095F87C1120460CF03DFA95F8A111204617
:102170000CF038FA002120460CF034FAB6F92A1097
:102180000A2391FBF3F189B2204607F0DDFD95F8B3
:102190007D1120460CF026FA95F87F1120460CF0B0
:1021A00021FA95F87E1120460CF01CFA204695F88D
:1021B000801100F061BE752B00F0D08300F21D8409
:1021C0000025E3E36C2B00207C190020782B0020F5
:1021D000140B0020800B0020E50C0020141B0020B5
:1021E0008C010020361B0020302A0020A82400206B
:1021F000CF2B00F0538100F29380C82B00F0D080E9
:1022000054D8A02B00F0D48448D8782B00F0268234
:102210007B2B40F05E86964B964D93F8A01120469E
:102220000CF0E0F9B5F82011204607F08DFDB5F867
:102230002211204607F088FDB5F82411204607F04A
:1022400083FDB5F82611204607F07EFDB5F82A116A
:10225000204607F079FDB5F82C11204607F074FDF3
:10226000B5F82E11204607F06FFDB5F83011204665
:1022700007F06AFD95F83211204607F0ADF895F8A1
:10228000361120460CF0AEF92046002107F0A4F8E4
:102290002046002107F0A0F800F012BEA42B00F0A9
:1022A0009384A62B00F0E98400F013BECB2B71D0F1
:1022B00009D8C92B00F09180CA2B40F00A866E4BDA
:1022C00003F10A01AEE0CD2B00F02D8400F235843D
:1022D000AB6813F8012BAB60664BDA77AA6812F88B
:1022E000011BAA6083F82010AA68511CA9605178CC
:1022F0000232AA6083F82510AA6812F8011BAA60AE
:1023000083F82610AA6812F8011BAA6083F821102E
:10231000AA6812F8011BAA6083F8221000F0DDBD44
:10232000D82B00F04D8217D8D22B00F0248107D88B
:10233000D02B00F0EF83D12B00F0AC8300F0C9BDAF
:10234000D42B00F0AC81C0F02981D62B08BF002629
:1023500000F0078100F0BDBDF12B00F0C1810CD869
:10236000EF2B2FD0F02B40F0B485424D2046E98D65
:1023700007F0EAFC2046A98D96E2FA2B00F0E583EF
:10238000FE2B00F0EC83F22B40F0A385384B03F1D9
:102390007001CFE1002659E000251BE30025E3E2B0
:1023A0000026284602F055FF344B98530236102E73
:1023B000F7D1334B00221A80324B186804F03EFCF0
:1023C00000F08BBD284602F044FF2A4EF0852846D7
:1023D00002F03FFFB08500F080BDAB68284613F8DF
:1023E000012B294EAB60294BDA72AB6813F8012B35
:1023F000AB60274B1A7002F01DFF3060284602F0D8
:1024000019FF7060284602F024FF224B18802846EE
:1024100002F01FFF204B9A79988042F002029A71D5
:1024200000F05BBDAA68013312F8010B8B42AA6071
:102430005870AA6812F8010BAA60D872AA6812F83C
:10244000010BAA605875EDD100F047BD124B93F80F
:102450002020964280F041850733284616F80380F5
:1024600002F0F7FE034B013603EB8803D864EDE777
:10247000A8240020302A00202F2A0020B00D0020A0
:10248000301B0020FC0C0020881B0020E50C0020E5
:10249000AD230020841B00207C190020284602F078
:1024A000D8FE6FF4AF63BB4EC318C62B98BFA6F817
:1024B0009801284602F0CDFEA6F84001284602F019
:1024C000C8FEA6F84201284602F0C3FEA6F8440161
:1024D000284602F0BEFEDFF8E482AB68A8F80A01E5
:1024E00013F8012B2846AB6086F8AB21AB6813F8D4
:1024F000012BAB6086F8AC21AB6813F8012BAB6005
:1025000086F8AD21AB6813F8012BAB6086F87C210F
:10251000AB6813F8012BAB6086F8A121AB680133DF
:10252000AB6002F096FE0A235843AB68A8F82A0075
:1025300013F8012BAB6086F87D21AB6813F8012BF3
:10254000AB6086F87F21AB6813F8012BAB6086F88F
:102550007E21AB6813F8012BAB6086F8802100F078
:10256000BCBC284602F075FE8B4B98530236102EE9
:10257000F7D100F0B2BC894B5A78002A40F0AD8404
:10258000AB68002013F8011BAB60824B022994BF9B
:1025900083F8681583F868250146DDE2284602F0D5
:1025A00058FE7F4B188000F098BCE72120460CF0C5
:1025B00019F8784B204659790CF014F8042120467C
:1025C0000CF010F82046774900F080BC83420CD212
:1025D000754A9E5C012202FA06F62E4218BF9A4006
:1025E00003F1010318BF1143F0E7204606F0F4FEA3
:1025F000684B204693F8681500F03EBC6B4B0025F5
:10260000B3F89C306A4EB3F5806F0CD9715F082324
:1026100091FBF3F1204689B2023507F095FB062DB8
:10262000F4D1002507E0715B2046023507F08CFBF2
:10263000062DF8D1F5E75F4B2046595B023507F0D0
:1026400083FB062DF7D100255B4B2046595B0235F5
:1026500007F07AFB062DF7D100F03FBC574D05F18E
:102660005006B5F8B810204607F06EFBB5F8BA1062
:10267000204607F069FBB5F8BC10204607F064FB64
:1026800095F8BE1020460BF0ADFF0A35B5F8B61030
:10269000204607F059FBB542E3D100F01EBC474E7F
:1026A00006F15008284602F0D4FDA6F8B8002846E6
:1026B00002F0CFFDA6F8BA00284602F0CAFDA6F83F
:1026C000BC00AB68284613F8012B0A36AB6086F8CD
:1026D000B42002F0BEFDA6F8B6004645E2D1FCE308
:1026E0002C4D05F1700695F8D01020460BF07AFFBE
:1026F00095F8D11020460BF075FF95F8D2102046C2
:102700000BF070FF95F8D31020460BF06BFF95F897
:10271000D41020460BF066FF95F8D51020460BF03C
:1027200061FF073595F8CF1020460BF05BFFB542EF
:10273000D9D1D2E3AA68073312F8010BAA6083F853
:10274000C900AA6812F8010BAA6083F8CA00AA6837
:1027500012F8010BAA6083F8CB00AA6812F8010BEB
:10276000AA6083F8CC00AA6812F8010BAA6083F86B
:10277000CD00AA6812F8010BAA6083F8CE00AA68FF
:1027800012F8010BAA6083F8CF008B42D2D109F076
:102790008DF8A2E3A82400209E190020E50C00205B
:1027A000641B00200C0000C08319002018000020CA
:1027B000B6190020BC190020C2190020302A0020C0
:1027C000AB68284613F8012BA14EAB60A14B83F8F0
:1027D000A02102F03EFDA6F82001284602F039FDB6
:1027E000A6F82201284602F034FDA6F82401284666
:1027F00002F02FFDA6F82601284602F02AFDA6F8D1
:102800002A01284602F025FDA6F82C01284602F0F0
:1028100020FDA6F82E01284602F01BFDA6F8300187
:10282000284602F007FDAB68284613F8012BAB6081
:1028300086F8362102F0FEFC284602F0FBFC284612
:1028400002F0F8FC284602F0F5FC46E382492046F7
:10285000102286E00025814B2046595B023507F0A7
:1028600073FA102DF7D138E37D4B2046D97A0BF05F
:10287000B9FE7C4B7C4D197820460BF0B3FE2968DD
:10288000204606F0A9FD6968204606F0A5FD774BB5
:10289000774D1988204607F057FAA988204607F097
:1028A00053FAB5F84C10204607F04EFA15E3704D78
:1028B0002046B5F84E1007F047FAB5F850102046FC
:1028C00007F042FAA979204601F00101D4E2694BF0
:1028D0002046196806F080FD654B2046B3F8541079
:1028E000E2E7634D2046B5F958104FF6FF7681F3C5
:1028F0000801C9B20BF076FEE96D2046B142A8BFCF
:10290000314621EAE17189B207F01EFA5A4B20469E
:10291000198807F019FA4F4B296E93F87C3100297A
:10292000B8BF49420BB10A235943B142A8BF31464F
:10293000204689B2B8E7514D05F10A06013569789C
:1029400020460BF04FFEE97A20460BF04BFE204666
:10295000697D0BF047FEB542F0D1BEE24849204602
:10296000302206F00DFDB8E2414B93F8202095424D
:1029700080F0B3820733EA5C354B204603EB8203D9
:10298000B3F84C1007F0E0F90135EDE7384B93F858
:102990002020954280F2A1820733EB5C384A0C215B
:1029A00001FB03235E6B0135304614F0EFF931462D
:1029B00082B2204606F0E4FCE8E70C33B3F5967FDC
:1029C00007D0304A1A44127A8A42F6D120460BF0D8
:1029D00009FE0135264B93F82020954280F07D8238
:1029E0000733E95C0023ECE70125E9B22046013515
:1029F0000BF0F8FD092DF8D16FE2AB6813F8011B5D
:102A0000AB6009B9204B02E0102903D11F4B1E68AF
:102A10005D6801E000252E4620460BF0E3FD3146BF
:102A2000204606F0D9FC2946204606F0D5FC184B76
:102A30002046196806F0D0FC0021204607F084F9F2
:102A40000021204607F080F92046002114E200BF53
:102A5000302A0020A8240020162A0020B00D0020D3
:102A6000E50C0020AD230020881B0020841B0020E3
:102A70007C1900204C1B00202E1B00202F2A002038
:102A8000A87E0108D87E01086C1B0020781B00205E
:102A9000481B0020AB68284613F8018BAB6002F09E
:102AA000C9FB8246284602F0C5FB8146284602F053
:102AB000C1FB0646284602F0CCFB284602F0C9FBC3
:102AC000AB680133AB60B8F1000F0FD1B24B0122FC
:102AD000C3F80490C3F800A0B04B83F807801A73C2
:102AE000002E00F0FA81AE4B1E60F6E1B8F1100F37
:102AF00040F0F381AB4BC3F800A0C3F804900EB1D3
:102B0000A74B1E60A748A84B0222011D1A7007F0B0
:102B100045F9E2E1A14B5B78002B40F0DE8101201A
:102B200008F06AF9D9E19D4B5B78002B40F0D58124
:102B30009E4B4FF4C8721A80CFE1984B5A78002A06
:102B400040F0CB8101229A73C7E1944B5B78002B54
:102B500040F0BF810020012108F0DCF8BDE1944B7A
:102B6000944A99891288944B19B1511AA3F86410A8
:102B700001E0A3F86420914A914812790068A3F813
:102B80006620904A002511688F4AB1FBF2F1B0FB34
:102B9000F2F24FF47A7000FB0122A3F86A208B4B0B
:102BA0002046595B023507F0CFF8082DF7D194E1A4
:102BB000874D2046296806F00FFC6968204606F01C
:102BC0000BFC2046A96881E17B4E204696F86C906C
:102BD000002549460BF006FDB0464D4517D27D4E07
:102BE0002046715D0BF0FEFC06F12003595D204686
:102BF0000BF0F8FC06F14003595D204660360BF0FF
:102C0000F1FC715D20460BF0EDFC0135E5E7684B0A
:102C100093F8AB31012B40F060816F4A002392F8AA
:102C20007850104688F86C50AB4202F1010215DA78
:102C3000684992F8786092F888E05E5401F12006C5
:102C400003F806E092F898E001F1400603F806E088
:102C500092F8A86060315E540133E5E7D0F8BC30EB
:102C60000022C8F8F030D0F8C0303021C8F8F43075
:102C7000012013460BF046FC2FE1584B20461E68FE
:102C80004D4D16F0200609D0002106F0A5FBD5F821
:102C9000F410D5F8F0302046C91A04E0314606F0A9
:102CA0009BFB2046314606F097FBD5F8F8102046EE
:102CB00006F092FB2046D5F8FC1007E1AB683C4ECD
:102CC00013F8012B2846AB6000237271B36002F049
:102CD000B1FAB368DFF80C911843AB68B06013F831
:102CE000012B2846AB6086F8942102F0B2FAA6F8D0
:102CF0005601284602F0ADFAA6F85801284602F01F
:102D0000A8FAA6F85A01284602F0A3FAA6F8780114
:102D1000284602F09EFAA6F87A01284602F099FAAF
:102D2000AB68A6F84E0113F8012B2846AB6089F872
:102D30002320AB6813F8012BAB6089F82420AB6823
:102D400013F8012BAB6086F88121AB6813F8012BD7
:102D5000AB6089F8492002F07CFAB2898046904243
:102D600013D01F4B2AB148B11868414603F07CFFCD
:102D700009E018B118680321424602E018680121F1
:102D8000642204F0CBF8A6F80C80AB6813F8012B92
:102D9000AB6089F83020A0E06C1B0020E50C00201F
:102DA000481B0020781B0020681B00206E2B002091
:102DB000A8240020782B00207C1900207C240020EF
:102DC000F0090020EC09002040420F00E01900202B
:102DD000E0090020E919002070100020800B00207D
:102DE000F4170020302A0020504D204669790BF05E
:102DF000F9FBA968204606F0EFFA95F894112046F1
:102E00000BF0F0FBB5F85611204606F09DFFB5F823
:102E10005811204606F098FFB5F85A11204606F0E2
:102E200093FFB5F878112046414E06F08DFFB5F8B6
:102E30007A11204606F088FFB5F84E11204606F0BC
:102E400083FF96F8231020460BF0CCFB96F8241055
:102E500020460BF0C7FB95F8811120460BF0C2FB12
:102E600096F8491020460BF0BDFBA989204606F0D4
:102E70006BFF96F8301020460BF0B4FB2DE00025D8
:102E80002A4B20462B4493F8821101350BF0AAFB04
:102E9000082DF5D121E0AA6812F8011BAA60234A87
:102EA0001A440133082B82F88211F4D115E0002571
:102EB000204B2046595D01350BF094FB0B2DF7D1CB
:102EC0000021204606F088FA2046002106F084FA08
:102ED00003E0204629460BF0ABFBA28FA38D033203
:102EE00092FBF3F103FB1123616BB4F84A203846DF
:102EF000CA5494F8481094F84A30594084F848105D
:102F000004F021F9A38D28B1A3876368D86903F081
:102F100095FE07E0A28FA387074B22871A780AB98C
:102F200004221A7002B0BDE8F08700BFA824002078
:102F3000302A0020848F01086C2B00202DE9F04FEF
:102F4000AE4E85B0B368AE4F13F0080803D1AD4C58
:102F50004546A14631E0002439E0AB4BE8B21B689E
:102F60009847A0F2EE2240F2DC5392B29A4288BF18
:102F7000A24BD9F8902088BFB3F89801A34B134017
:102F8000002B03DA013B63F0030301339D4A03EB9B
:102F9000850322F813002288638801351344A28830
:102FA0000834134434F8022C13441BB2042293FB5C
:102FB000F2F327F8083008F1020896F8AA319D428A
:102FC000CBDBD9F890300133C9F890300BE096F89C
:102FD000AA319C4207DA8C4BE0B21B68984727F86D
:102FE00014000134F3E7B368864C13F4804F04D027
:102FF00094F894300BB906F0A5F996F8A1217F4B0F
:10300000E2B1033237F91200B3F8A251B0F57A7089
:1030100003D4A842A8BF284600E000200DF0D2F853
:10302000804628460DF0CAF8014640460DF0D2F918
:1030300077490DF01BF90DF005FB14E093F8A4019E
:1030400090B1744AD179744A32F81120B3F8A811BA
:1030500092B2521A9002B3F8A631801A90FBF3F0A4
:1030600000B280F30A0080B2B368A4F8AE0013F493
:10307000024F63D0634B694DB3F8B09095F80831B7
:10308000052253430FFA89F898453ADD644B5A7884
:103090009B46002A35D0594BB3F898313B807B8052
:1030A000BB80B5F80A31FB805E4B1A789A46032A3A
:1030B00005D95D4804F0E6FF03238AF8003095F84F
:1030C000082195F80931134405225343984513DD2F
:1030D0009BF812B0BBF1000F0ED106F033F9504B44
:1030E00083F800B09AF80030042B05D94F4804F05B
:1030F000C9FF4C4B04221A70B4F8B2300133A4F863
:10310000B23095F8083105225343984512DD444DFD
:1031100095F80180B8F1000F0CD106F013F985F88D
:103120000080404D2B78042B04D9404804F0AAFFBE
:1031300004232B7009F10109A4F8B0900022B6F81D
:103140009A11B6F89C511346B85E9B088842C4BFDA
:1031500063F07F03DBB20232A842B8BF43F0400302
:10316000082AF1D194F8B400264A984205D192F881
:10317000B500F92804D8013000E0002082F8B5003D
:1031800084F8B430B3681D4A13F48048234DB7F96E
:1031900006300AD0B2F89811B2F84C21881A83424E
:1031A00006DD0A44934206DB02E08B4203DB17E0B4
:1031B0004FF0000814E00023C4F8C431C4F8C8314B
:1031C000C4F8CC31C4F8C030C4F8C430EB6C2BB1B7
:1031D0000C4B93F89430002B40F07C834FF00108A7
:1031E000EB6C43B394F894302BBB0D4B5B7813B36B
:1031F00096F89F31E3B106F0A5F81CE0A824002062
:10320000B00D0020801A0020D40D002003000080A3
:1032100000C07F44440B00204C0B0020302A0020CB
:10322000E50C0020600100201080010823800108C7
:10323000B8F1000FDFD194F8B5208C4B142A40F080
:10324000A6808B4A50789146C0B1EA6C2AB993F8AF
:10325000B4305F2B01D106F075F896F89E31002B43
:1032600000F09580EB6C002B40F0918094F8B43026
:103270007D2B40F08C8006F065F888E093F8B42050
:10328000572A15D17B4B4FF47A721A80B368DB054D
:1032900001D508F01FFE784B1B68580702D5774A06
:1032A0000A21118013F0080334D1A4F8B63031E0BC
:1032B000B168490725D55A2A23D193F8B8202AB1F5
:1032C000012283F8B80083F8B92023E093F8BA20EC
:1032D000DFF8C0A182F0010283F8BA209AF800302A
:1032E00032B10A2B16D9664804F0CCFE0A2305E059
:1032F0000B2B0FD9634804F0C5FE0B238AF800306E
:1033000008E05D2A00F0EE825B2A00F0ED825E2A82
:1033100000F0EC82EB6C33B994F8B4206F2A02D140
:103320000BF0CEFF15E096F89E2122B11BB994F860
:10333000B4307E2BF4D094F8B430972B04D1524B98
:103340004FF4C8721A8004E0A72B04BF012389F848
:103350000E3094F8B430BB2B02D1EB8D023303E076
:10336000B72B03D1EB8D023BEB8509E0BE2B02D1DD
:10337000AB8D023303E0BD2B09D1AB8D023BAB8596
:103380000120014607F0C6FC002384F8B530B06880
:10339000420731D594F8BA20344B8AB1344A527876
:1033A00072B13A4AB7F90610B2F89A21914207DD94
:1033B00093F8942022B93221A3F8BC1083F8BA20E4
:1033C00094F8A520294B62B193F8BE202AB993F84E
:1033D000B82012B93222A3F8BC20012384F8BE30F1
:1033E0000AE093F8B8203AB1214A527822B983F81A
:1033F000B820012283F8B920254B002193F81490BE
:1034000001220B464B4547DA07EB43052D8940F275
:10341000A46A0FFA85FCD44502F1010BD4BF4FF02A
:10342000000A4FF0010A0AFA0BFA40F2135BDC457E
:103430004FF0030B0BFB03FBA5F21555ADB2CCBF50
:103440004FF0000C4FF0010CB5F5C77F0CFA0BFCE8
:103450008CBF0025012595404AEA0C0C4CEA050C6E
:1034600041EA0C0101330332CCE700BF801A00208F
:10347000E50C0020EE170020800B0020F017002044
:10348000268001082B8001086E2B0020A824002034
:103490009C0B00206001002000239D4D9D4A05EB00
:1034A0008309D9F84C9002F1940C11EA090F0CBF72
:1034B0004FF000094FF0010903F80C900133192B6C
:1034C000A946EAD192F8AC30934D2B7523B1012374
:1034D00082F89F3082F8963094F895308F4A53B92D
:1034E0008C4B4FF0050CB3F9B01099F808310CFB78
:1034F00003F399421DDD11688B071AD5EB7843B9A8
:10350000C4F8C030C4F8C430834B4FF0010C83F8CA
:1035100003C0000410D599F808314FF0050C0CFBDE
:1035200003F3B4F9B000984206DD890604D50123FF
:1035300001E00023EB70AB7494F8963075495BB1F1
:103540000023EB702B7943B9C1F8C030C1F8C43007
:10355000714B0121197100E02B7194F894300BB973
:1035600001232B7095F803C06D4BBCF1000F02D105
:103570006949097911B11021596101E010211961DE
:1035800011684B0725D594F89720624B9AB1A8791A
:1035900090B9614A4FF0010A82F806A0D3F8CC2016
:1035A000C3F8DC00C3F8C820B3F8D820C3F8E000A3
:1035B000A3F8D02000E0AA71B368980409D594F864
:1035C00098302BB1EB7B23B9534B0122DA7300E027
:1035D000EB7311F00A0F20D094F899304D4A4BB19B
:1035E0006B7943B94C4B01205871B2F8B630A2F850
:1035F000E43000E06B7194F89A302BB16B7A23B908
:10360000454B01225A7200E06B7294F89B20414BAB
:103610001AB1B3F8B620A3F8E620890640F1F2808B
:10362000EA7A3D4B002A00F0E8803E4A1278042AEC
:1036300040F2E38094F9E82032B11A7922B9BCF162
:10364000000F01D10122DA7094F89E20314BDFF88F
:10365000DCA01AB9AA7CDFF8C0B0CAB1EB79DFF8F8
:10366000B8B0002B40F0B7802F480122011D8BF825
:1036700008308AF801308BF80720019206F08EFBA3
:10368000022384F8E830B4F80431C4F800313BE098
:103690008BF8072093F89F20002A49D0B3F9D21065
:1036A000B9F81C210029B8BF4942914240DAB3F968
:1036B000D4100029B8BF4942914239DA9BF808205A
:1036C000002A40F08880D3F808114FF0010CC3F8AD
:1036D000F810D3F80C1103F1F800C3F8FC1003F153
:1036E000FC018BF808C08AF801200393CDF808C0CC
:1036F000019206F053FB039BDDF808C0B3F80411F8
:1037000083F8E8C0C3F80011019A8BF8132062E037
:10371000302A0020801A0020E50C0020800B0020B9
:10372000000C0140AD2300206C1B00206001002034
:103730009AF8011000232B7200294CD1764B0122FC
:103740005A708C46754B002203F588702CF80020C7
:1037500003F58B702CF8002003F58D702CF80020F9
:1037600003F5907B002041F80B008B44CBF804203C
:10377000CBF8080003F5A47B41F80B008B44CBF891
:103780000420CBF808000CF1020C03F5B87B41F8DB
:103790000B00BCF1040F8B44CBF80420CBF80800DD
:1037A00001F11401CED1297C11B90023EB7412E090
:1037B000C3F89801C3F89C01A3F8A021A3F8A221A3
:1037C000A3F8A4215649002353520C31535202321C
:1037D0000A2AF7D1E9E79AF800300C2B12D994F8AD
:1037E000BE317BB94F4804F04DFC4B4B0C221A7094
:1037F0004A4B012283F8BE2104E00023EB712B72B7
:1038000084F8E83094F8A0302BB1AB7C1BB9464B60
:1038100001229A7201E00023AB72297C424B31B342
:10382000B26800209205587221D599F808214FF00E
:10383000060909FB02F2B4F9B0C0944517DD012274
:10384000DA703A4A9872B2F8980182B23A807A8075
:10385000BA80374AB2F80A21FA80DA7A3AB9354F93
:103860003F78052F03D89A74334B32381880B268EA
:103870002E4BD2064BD56A78002A48D0002946D173
:10388000B8F1000F1FD02D49D4F8C02109684AB9FA
:1038900093F876314FF47A7202FB03121F4BC3F890
:1038A000C02106E08A4204D293F876310BB105F0CC
:1038B00049FD194C2378092B29D9214804F0E2FB52
:1038C0000923237023E0D4F8C03103B3134BC3F8AA
:1038D000C0811CE0144B1B78002B3FF47FAC0BF035
:1038E000EFFC7BE4012202E0022200E003225FFA07
:1038F00082FA00200AF1FF33014686F8683507F0A6
:1039000009FA02202821524607F094F902E5002026
:1039100005B0BDE8F08F00BF60010020801A0020D4
:10392000261C002032800108E50C0020A82400207D
:10393000302A0020AD230020B00D00206824002094
:10394000238001082DE9F04F7F4C87B0A3689B07C7
:1039500040F19F807D4D7E4B0622B3F800802B689E
:103960007C4E98442B79C5F800800133DBB2B3FB61
:10397000F2F72B7102FB173313F0FF076ED1DFF85C
:103980002CA2DFF82C929AF80130D5F808B039F85B
:10399000133058469BB24FF0785103930CF066FCFD
:1039A000014658460CF058FB039B834618460CF022
:1039B00009FC69490CF05AFC68490CF00BFD034600
:1039C00094F87D0103930CF0FDFB039B0146184620
:1039D0000CF04CFC014658460CF040FB4FF078517F
:1039E000A8600CF043FC0CF02DFE94F8813130807F
:1039F000002B33D09AF80530B4F8781139F8132039
:103A000040F6E44392B25A4340F6FF73B2FBF3F23E
:103A1000B4F87A31E868D21A4FF47A735A43B2FB99
:103A2000F1F2082190FBF1FECEEB00000244EA60C7
:103A300092FBF1F208FB02F8494998FBF3F30A60A4
:103A4000D5E90401C01841EBE371C5E90401002385
:103A5000444A0CF017FE444B2F601860434A3388E9
:103A600012889A4208D3424D2B78012B11D9414834
:103A700004F008FB01230BE03F4A12889A4208D366
:103A80003B4D2B78022B04D93C4804F0FBFA02236F
:103A90002B703B4E737B5BB3354D2B78082B27D9AE
:103AA000A368DF051FD5374BDB7AE3B1364B1878B7
:103AB000042818D90023354905275A185F540F27C1
:103AC0005770122B03F10207FAB204D0B0EB520F79
:103AD0003B46F0D800E014220A4464235370F023DC
:103AE00093702A4800E02A4804F0CCFA08232B708F
:103AF000284B1A881AB1284B1B68980707D4274B04
:103B00001B8823B9264B1B780BB109F057FF254BB7
:103B10001A7832B1244A0D4C1378002B00F025831B
:103B2000D6E2A268084B1105F4D51D4A1278002A86
:103B3000F0D093F8BB21002A42D193F8BC31CBBB23
:103B4000104B5B7837E000BFA8240020681C0020E1
:103B5000782B0020D41900203333534000F07F45E8
:103B6000DC190020407E0500D8190020560B0020EB
:103B7000600100204D800108540B00205080010896
:103B8000141B0020E50C0020AD230020501C002059
:103B9000418001086E2B0020800B0020EE170020D2
:103BA000EC1700207A2B00203A1E0020440B002046
:103BB0004C0B0020337D003318BF0123002BA9D00C
:103BC00094F8BA31002B40F06A81C44BD86803F0F6
:103BD000E1F9002840F06381C14AC24D1368A96928
:103BE000591A7C2940F25B81AB612B7F0646013379
:103BF0002B7706F12400C0B204F0F0F9BA4B33F988
:103C000016000CF0DFFAB94B0746B3F89C000CF035
:103C1000D9FA014638460CF0DDFBB5490CF026FB1D
:103C20000CF0EAFC013600B204F004FA032EE0D1F5
:103C3000302004F0D3F9AF4BAA4FB3F9000004F0E1
:103C4000F9F904F0D9F9287F10F0030828D11020E1
:103C500004F0C4F93B6A642693FBF6F000B204F06A
:103C6000E9F9212004F0BAF93B6A93FBF6F006FB70
:103C7000103686EAE670A0EBE67000B204F0DAF9DE
:103C8000142004F0ABF99C4BB3F9000004F0D2F916
:103C90001C2004F0A3F9404604F0CCF904F0ACF980
:103CA0002B7F904E5A0740F0D680022004F096F900
:103CB000B6F924000A2790FBF7F004F0BBF9A368DB
:103CC0009B0765D5DFF848B24FF06E08BBF80030AF
:103CD0003A2008FB03F8152398FBF3F81FFA88F83D
:103CE0004FF0640A04F07AF9B8FBFAF90FFA89F098
:103CF00004F0A0F93B2004F071F90AFB198080B2AE
:103D00000530DFF8108290FBF7F000B204F092F972
:103D100098F80030BBF8002040F6340192FBF3F233
:103D20004A432A21B2FBF1F2F18C062091FBF3FB0E
:103D300003FB1B1B4FEA0B1B1FFA8BFB4BEA022BEF
:103D40001FFA8BFBC2F303224BEA020B04F046F985
:103D50000FFA8BF004F06EF9F28C98F80030013213
:103D600092B292FBF3F103FB11232820F38404F0B9
:103D700035F9624B1B6893FBF7F000B204F05AF977
:103D8000042004F02BF95E4BB3F9000004F052F963
:103D90005C4B1B6898065CD55B4FDFF87C813B6809
:103DA0005A4E002BB8BF5B4293FBF8F106FB013380
:103DB0004FF03C0909FB03FA1320039104F00EF9BC
:103DC000039964229AFBF8FB02FB01B000B2039254
:103DD00004F030F91B2004F001F906FB0BA34FF4AB
:103DE0007A7B93FBFBF000B204F024F9232004F06B
:103DF000F5F838680028ACBF4E20532004F01AF9BB
:103E00007B681220002BB8BF5B4293FBF8FA06FBDD
:103E10000A3309FB03F904F0E1F8039A99FBF8F877
:103E200002FB0A8006FB089800B204F003F91A208E
:103E300004F0D4F898FBFBF000B204F0FBF8222069
:103E400004F0CCF878680028ACBF4520572004F077
:103E5000F1F804F0D1F82B7F282B20D1214B002240
:103E60001A771F4A4FF47A7317683C25B7FBF3F7AC
:103E7000172004F0B3F8B7FBF5F6B6FBF5F005FB39
:103E80001060000200B204F0D5F8182004F0A6F883
:103E900005FB167000B204F0CDF804F0ADF894F80C
:103EA000BA31012B7FF436AE0C4CE06803F072F8A7
:103EB00000283FF42FAEE468636B23B19B68204673
:103EC0009847054640E0A368201D3BB30DF117015C
:103ED0009847003018BF012035E000BF9C0B002040
:103EE00068240020681C0020B6190020180000205B
:103EF00000007A44D0190020361B0020DC19002075
:103F0000D8190020800B0020881B0020806967FFE3
:103F1000D41900201600002080969800E2697AB13A
:103F200001210DF1170004F08FF80546E06903F058
:103F30003CF8638D834205D8206A02F07FFE01E0E1
:103F4000104600E02846C5B2052003F0DBFA8A2DB2
:103F500032D08E2DA8D1AE4C00212E2204F1540077
:103F600012F090FD7C2384F85430E02384F857301D
:103F70007D2384F88030A74B84F855501B8804F1CA
:103F80005400DAB21B0A84F8733084F869301423C1
:103F900084F86C3084F86D304FF4FA73A4F86E3006
:103FA0004823A4F87630782384F8722084F86820B7
:103FB00084F878302E2188E0974B1B6899067FF5AE
:103FC00073AF934C002104F128002C2212F05AFD0B
:103FD0007C2384F82830A02384F82B307D2384F8B8
:103FE00053308E4B84F829501B7884F842308C4B28
:103FF000DB7A002B64D08B498B480A688B4E92FB8E
:10400000F0FC5FFA8CFC06FB0C2706256F43662349
:1040100084F85130D30F84F8313042F21073B7FB7B
:10402000F3FE03FB1E77496884F8347091FBF0F0CF
:104030003F0AC0B284F83570CF0F06FB0011694308
:10404000B1FBF3F503FB151384F839301B0A84F830
:104050003A30774B64221B885FFA8EFEE9B202FB8E
:104060000CEE02FB0011B3FBF2F224235A43714B16
:104070001FFA8EFE1B8889B284F83B301B0A84F835
:104080003C306D4B92B21B8884F832E084F83D30AE
:104090001B0A84F83E30694B4FEA1E2E1B8884F8B9
:1040A000371084F82F20090A120A84F833E084F8C4
:1040B000367084F8381084F8302084F8443002E0F8
:1040C000202384F851305E482C2104F043FCEBE6B9
:1040D00000231370D4F88C20C4F88C3013629362E0
:1040E000D362584B1F68584B1D78002D3DD104F505
:1040F0009E7801262946642240461E7012F0C2FCBA
:1041000084F83C613146514A43460095022001F053
:10411000F9FAC4F86401802003F024FFC4F86001B8
:1041200018B33B1DC4F85C31494BC7F82480FB62CF
:10413000484B30463B63202112F0A2F9C4F86C01D1
:1041400018B9454B03221A700FE0202384F86B3115
:10415000424B4348C4F89431424B2946C4F8983145
:10416000414BC4F89C3108F033FE404B1B7823B11F
:1041700009F0A6F93E4A3F4BDA603F48D0F8843058
:104180000BB13E4998473E4A234D138813B12B6823
:104190009A0702D43B4B1B8813B107F039FB0AE0A6
:1041A0001F4B9A7812B1384A082111615B7813B11C
:1041B000354B08225A6194F8A03123B1144A013BCF
:1041C00082F8A0310BE0164B5A7B1AB99A7007F0AF
:1041D0001FFB01E001229A70092384F8A0312B68AB
:1041E0009B0610D594F8A13123B1094A013B82F80E
:1041F000A13108E0094B1B78042B01D907F0FFFA25
:10420000022384F8A131002007B0BDE8F08F00BF81
:10421000681C0020D4190020800B0020AD23002052
:10422000E50C0020881B0020A08601006079FEFFBD
:1042300080190020CA190020841B0020CC190020FE
:10424000901C00209C0B00207A2B002089CC0008B9
:10425000CD550008B1AA00086C2B00205880010839
:1042600064900108888001085F9001087C1A002092
:104270000400FA0500ED00E0180000208C1C00206E
:104280006E2B0020EE170020000C01400000000003
:1042900024292DE9F84306460F46B34D0CD1826818
:1042A00000232B706B70AB70002A00F01D82E97048
:1042B0002B71E81C904717E22C2902D02A2940F0E4
:1042C000A98195F801802C7805EB08020021A64B06
:1042D000D170002C40F08C805A799C84442A09D1FA
:1042E0009A79542A40F07781DA794D2A40F0738127
:1042F000012209E0472A3AD19A79422A06D1DA798D
:10430000532A40F0688102229A8464E1472A05D149
:10431000DA79412A40F05F810322F5E74C2A05D182
:10432000DA794C2A40F057810422EDE74E2A05D174
:10433000EA79532A40F04F810522E5E7522A05D158
:10434000EA79532A40F047810622DDE7532A40F0FC
:104350004281EA79412A01D10722D5E7542A01D1C5
:104360000822D1E7562A40F036810922CCE7522AAA
:1043700009D19A794D2A40F02E81DA79432A40F00A
:104380002A810A22C0E7542A11D19A79482A05D1F4
:10439000DA79532A40F01F810B22B5E7582A40F002
:1043A0001A81DA79542A40F016810C22ACE7562A99
:1043B00011D19A794C2A05D1DA79572A40F00B812C
:1043C0000D22A1E7542A40F00681DA79472A40F00D
:1043D00002810E2298E75A2A40F0FD80AA79442AE9
:1043E00040F0F980DA79412A40F0F5800F228BE71E
:1043F000B8F1000F00F0EF809B8C033B0C2B00F218
:10440000EA80DFE813F00D005F004600E800E800F6
:10441000E800E8006A00E800A000E800CE00D30051
:10442000012C04D106F10E0008F018FFD3E0022C95
:1044300004D108F0B3FEC6E90601CCE0032C08D194
:10444000EB78532B40F0C780F36903F10043F3612D
:10445000C1E0042C04D108F0A1FEC6E90801BAE0CD
:10446000052C08D1EB78572B40F0B580736A03F127
:1044700000437362AFE0062C15D1EA7896F851300C
:10448000302A94BF0022012262F3000386F85130E3
:10449000A1E0012CC6D0022CCBD0032CD0D0042C10
:1044A000D9D0052CDED0072C04D108F057FE86F8B1
:1044B000500090E0092C40F08E8008F0EBFDC6E93A
:1044C0000A0188E0012CB4D0022CB9D0032CC2D050
:1044D000042CC7D0052C7ED1A4E7012CA2D0032C3C
:1044E000A7D0042CACD0052CB5D0062CBAD0072C04
:1044F00009D108F0CFFD1AA3D3E900230BF076FA17
:10450000C6E90C0167E0082C04D108F0C3FDC6E938
:104510000E0160E0092C5ED12979EA780A2330394E
:10452000303A03FB0212A97932746A793039303A91
:1045300003FB0212E979F2732A7A3039303A03FB2D
:104540000123B37347E0336E002B44D0012C0DD10F
:1045500008F004FED6F8589089F800003BE000BF50
:1045600000000000801EE940101E0020022C06D131
:1045700008F0F4FDD6F8589089F801002BE0032CE0
:1045800006D108F0EBFDD6F8589089F8020022E039
:10459000042C20D1B06D57493F22033012F050FC5B
:1045A00019E0012CB1D0052C15D1A2E7012C3FF464
:1045B00039AF022C03D108F0D1FD30740BE0032C8D
:1045C00003D108F0CBFDF07305E0042C03D108F013
:1045D000C5FD3030B07301342A2F474B2C7003D106
:1045E000012283F8262002E09A787A409A70B36814
:1045F0006BB105EB0802D77008F102026A7008F18E
:104600000102D2B22A440021D1703A4898470024CE
:104610006C7066E00D2901D00A2954D1AB8C364963
:104620006BB391F8262062B3C978A1F13002D2B2FF
:10463000092A84BFA1F13702D2B2297902F00F0210
:104640001001A1F13002D2B2092A84BFA1F13702D0
:10465000D2B202F00F020244A978D2B2914213D131
:1046600096F80080B8EB0302D2F1000858EB02087C
:104670000C2B0BD1336E4BB1B06D984706E09846CA
:1046800000E09046444602E04FF000080124B26882
:104690000021194885F8261062B1437800EB030E1B
:1046A0008EF803709F1C0133DBB203444770D9704E
:1046B0000330904700236B70B8F1000F11D03046E3
:1046C00000F0EAFD0DE06B781F2B03D85A1C2B4439
:1046D0006A70D97095F82640074B44B99A785740CC
:1046E0009F702046BDE8F8830120BDE8F8830020D4
:1046F000BDE8F883131E0020101E00204369F7B5A3
:1047000004460E4600F1CC05002B00F0AC8190F879
:10471000C830092B7ED8D4F8C4000DF10701B0478A
:10472000002877D094F8C830092BF4D8DFE803F0DC
:104730000513191F252B3B4C54679DF80710B5290D
:1047400001D1012345E004F11000FFF7A1FD00288D
:10475000E1D009233DE09DF80730622B57D10223B9
:1047600037E09DF8073084F8CC30032331E09DF822
:10477000073084F8CD3004232BE09DF80730A4F8EF
:10478000CE30052325E0B4F8CE309DF8072043EA6B
:104790000223B3F5C47FA4F8CE3038D2002384F8C6
:1047A000C930062315E094F8C9309DF80710E218C7
:1047B00082F8D0100133B4F8CE20DBB29A4284F8EC
:1047C000C930A8D8072304E09DF80730A4F8583270
:1047D000082384F8C8309EE7B4F858329DF8076083
:1047E000284643EA0626A4F8586204F1D001B4F83A
:1047F000CE2000F036FD864209D10A2308E004F1FC
:1048000010009DF80710FFF743FD002883D0002318
:1048100084F8C83094F8C8300A2B40F0248194F80A
:10482000CC60012E0ED0052E40F00A8194F8CD10F8
:10483000012900F205812368002B00F0FD8020464D
:104840009847F9E094F8CD30072B5CD03ED8032B85
:104850008B4F00F08B80062B6FD0022B40F0F08046
:10486000D4F8D4000BF05CF881A3D3E900230BF05B
:10487000E7F9C4E90C01D4F8D8000BF051F87CA397
:10488000D3E900230BF0DCF9C4E90A01D4F8E00015
:104890000BF046F800227B4B0BF0D2F9D4F8E43051
:1048A00097F827202365D4F8E830C4E90E01636542
:1048B00094F8613087F8286062F3000384F861306F
:1048C000E36DA365704B1B68E365B5E0212B00F039
:1048D0009280302B60D0122B40F0B280D4F8E000F0
:1048E0000BF00EF8C4E91001D4F8E8000BF018F84A
:1048F00061A3D3E900230BF0A3F9614BC4E91201D2
:1049000083F8296098E094F8D4304433A37794F87E
:10491000D630E37794F8D73084F8203094F8D83044
:1049200084F8213094F8D93084F8223094F8DA30C1
:1049300084F82330D4F8E0307AE094F8DB3013F0D8
:10494000010304D094F8DA30DE1E73427341DBB207
:1049500087F827302BB994F8612063F3000284F8BC
:10496000612094F8FF3084F8603065E094F8D53029
:1049700013F0010304D094F8D430D81E43424341CD
:10498000DBB287F82730002B56D194F8612063F30F
:10499000000284F861204FE094F8D4302846102BB0
:1049A00088BF102384F8783094F87860234600217B
:1049B000B14200F10C0003F1010313DA021B2A4497
:1049C00012F8CC7C013183F8787012F8CB7C83F834
:1049D000887012F8C97C83F8987012F8C82C83F894
:1049E000A820E5E7D4F8C030C4F8BC30264B1B68DB
:1049F000C4F8C03020E094F8E33059071CD594F88F
:104A0000DC303033A37794F8DE30E37794F8DF308E
:104A100084F8203094F8E03084F8213094F8E130C4
:104A200084F8223094F8E23084F82330D4F8D83077
:104A3000164AB3FBF2F3A38463680BB12846984788
:104A40000F4D95F828305BB195F8293043B104F14A
:104A5000100000F021FC002385F8283085F829306B
:104A6000002384F8C83003B0F0BD00BFAFF300806E
:104A700000000000D012634100000000006AF8400E
:104A8000101E002000408F406824002040420F008C
:104A900037B504460D46A06E0DF10701A84728B1B1
:104AA00020469DF80710FFF7F3FBF4E703B030BD95
:104AB00008B50C4B5B789BB9232904D10A4B012222
:104AC00083F82A2008BD094B93F869358B4207D13A
:104AD000074A084B1A6008F0F3FC074A074BDA60F4
:104AE00008BD00BFE50C0020101E0020A8240020F7
:104AF000EFBEADDEF04F00200400FA0500ED00E04F
:104B000008B50B48002108F063F90020012106F0E8
:104B100001F90021074808F05BF90A2002F0F2FCD5
:104B200008F0CEFC044A054B0020DA6008BD00BF47
:104B3000E6900108F09001080400FA0500ED00E09D
:104B400070B506460D460948002108F041F9084BAA
:104B5000002483F82B40DC65064B1C7005F086FFB3
:104B600030462946FFF7CCFF204670BDFF90010874
:104B7000101E00207A2B002008B50021094808F0FB
:104B800027F9012006F038F90021074808F020F93C
:104B90000A2002F0B7FC08F093FC044A044B002002
:104BA000DA6008BD17910108F29001080400FA05C7
:104BB00000ED00E0AFF30080F0B583698BB00446F0
:104BC0000E46002B00F00581834D036C2A6800F12E
:104BD0002507D31A022B84BF002380F824302B68CA
:104BE0000364206A0DF10301B047002800F0F18052
:104BF00094F824309DF803200BB90F2AF1D1591CE9
:104C000084F82410FA5494F82430192BE9D10023A5
:104C100084F8243094F83D301BB1236901332361BB
:104C2000DFE72B6894F82620A36094F8273094F8E7
:104C3000290042EA0322C2F30A02ADF8042094F8E4
:104C40002820DB0843EA4213C3F30A03ADF8063019
:104C500094F82A30990241EA800141EA9212C2F3A3
:104C60000A02ADF8082094F82B205B0843EAC2132F
:104C7000C3F30A03ADF80A3094F82C30120942EA63
:104C80000312C2F30A02ADF80C2094F82E2094F817
:104C90002D00510241EA400141EAD313C3F30A0354
:104CA000ADF80E3094F82F30920842EA8312C2F326
:104CB0000A02ADF8102094F830205B0943EAC203E1
:104CC000ADF8123094F8312094F8323094F8340072
:104CD00042EA0322C2F30A02ADF8142094F833200A
:104CE000DB0843EA4213C3F30A03ADF8163094F825
:104CF0003530990241EA800141EA9212C2F30A0278
:104D0000ADF8182094F836205B0843EAC213C3F3C9
:104D10000A03ADF81A3094F83730120942EA031248
:104D2000C2F30A02ADF81C2094F8392094F8380038
:104D3000510241EA400141EAD313C3F30A03ADF83B
:104D40001E3094F83A30920842EA8312C2F30A0203
:104D5000ADF8202094F83B205B0943EAC203ADF88C
:104D6000223094F83C3040F2FF7213F0010F0CBF78
:104D70000021114613F0020F08BF0022ADF82620D3
:104D8000C3F3C002ADF8241002B101225B07E27048
:104D900003D56369013363611BE0E3680DF102052C
:104DA0000133E3600DF1260668880BF00BFA0B491E
:104DB0000BF05CFA0A490BF051F90BF043FC25F8B3
:104DC000020FB542F0D1A3691BB1204601A9E269E7
:104DD00098470BB0F0BD00BF682400200000203FC2
:104DE00000005C4418B9034B01221A70704700237D
:104DF000037270476C2B002090F8512008B502F028
:104E0000FD026FF30002C36D80F85120002280F88C
:104E1000502003B1984708BD2DE9F04F037D85B0C0
:104E20005DB24FF0060C0CFB05FC01930369D0F852
:104E30001C80D1F800A053F8257038F80CB0C7EBEF
:104E40000A07BFB2CBEB070292B294B2BB4414F490
:104E5000004F1FFA8BFB18BF54421FFA8BF218BF8A
:104E6000A4B212F4004F1CBFCBF1000292B20FFAB1
:104E700084F90FFA82FBD94508EB0C06CDF80890AF
:104E800023DD43F825A090F9184090F9145006222C
:104E900053F8255053F824306243EB1AC1699BB292
:104EA00028F80C308C5A1C1BA4B2A5B22F044ABFA0
:104EB0006442758074808A5A13449BB29AB211047A
:104EC0004ABF5B42B280B38017E0019E013506768F
:104ED00090F9086095FBF6FC06FB1C55EDB20575D4
:104EE00009686DB243F8251090F914300621594332
:104EF000C5696B186F525C809A80002390F9081086
:104F00001A468A4205DA046954F8224001322344E1
:104F1000F7E721EAE17212B193FBF2F3C3600C30C0
:104F200005B0BDE8F08F90F9142090F908300132F7
:104F300030B592FBF3F403FB14220369D2B202757D
:104F400052B253F8224085692C1B8461096843F8EA
:104F5000221090F91410826953F82130134490F90B
:104F60000820836193FBF2F340F80C3F30BD836867
:104F700010B59C695CB194F8243033B1002384F8F7
:104F80002430A36A0BB1A06998472468F2E7204651
:104F900010BDF0B583698BB004460F46002B00F0BE
:104FA000E580734DD0F89C302A68D31A022B84BF59
:104FB000002380F878302B68C0F89C3090F8783067
:104FC000032B4AD8606A03A9B847002845D094F853
:104FD0007830032BF6D8DFE803F00212252B9DF87A
:104FE0000C301A1FD2B21C2AECD8624A0021117070
:104FF000D91EDB43538084F8791001232AE05D4BEE
:105000009DF80C001E785988721C2644D2B286F88E
:105010007A00081A1A70588094F879309342D1D1E6
:10502000022317E0534B9DF80C201A71032311E063
:10503000504B9DF80C105A881B7903EB01239A42C0
:1050400004D1E3680133E360042303E023690133FF
:105050002361002384F87830B4E794F87820042A98
:1050600040F084802B6894F87A50A360402D1AD1C8
:105070002246012323F001010AA8014492F87C5042
:1050800092F87B00023340EA05201D2B21F81C0C0E
:1050900002F10202EED1A369002B59D0204603A9E8
:1050A000E269984754E0636A5869002850D094F840
:1050B000201005F00F0399424AD3002B48D094F8F2
:1050C0007910012944D105F0F0051E1D902D04EB47
:1050D000C6010AD0A02D16D0802D39D1803B8DF885
:1050E00004208DF80530022236E0703B8DF8053043
:1050F00014F8363006258DF806304B788DF80450BC
:105100008DF8073028E0603B4D788DF805304B680E
:105110002E1D1912042D8DF804608DF806308DF8BF
:10512000071019D11A141B0E8DF808208DF80930BC
:10513000062211E0ED430AAB1344ADB203F8245C40
:105140000AAB13442D0A023203F8235C01F0B8FFC6
:10515000002384F8783009E000231D4699B291427B
:1051600001A9E7D2C95C01330D44F7E70BB0F0BDEC
:1051700068240020701E002070B50E4614490BF004
:1051800075F80BF039FA134C0546A060104930460B
:105190000BF06CF80BF030FA22690F49531C91F8B0
:1051A000341004EB820255610C4A8B42A8BF0023E5
:1051B000E060116804EB830040692361084B2944D7
:1051C000091ABDE87040D3F8C000116001F036BD87
:1051D0000000C842701E0020302A0020D01F00208E
:1051E0001800002030B580780023834206DA31F8B9
:1051F0001350054C24F813500133F6E71046BDE870
:10520000304001F01BBD00BF441F002083883BB12C
:10521000074A116882688A1A9A4294BF00230123C0
:10522000C278002A0CBF18460120C0B2704700BFE8
:105230006824002083689A785978120442EA01228F
:10524000197804330A4313F8011C836042EA0160B1
:1052500070478368597813F8022B836042EA012073
:10526000704770B5002425462346065D013433445B
:10527000DBB21D44042CEDB2F7D1002084B294427D
:1052800006D20C5C01302344DBB21D44EDB2F5E7DD
:1052900003EB052080B270BD90F8513010B543F09B
:1052A000020380F851304368044603B19847636DA8
:1052B0001BB11A68DA6001225A7210BD08B50346A4
:1052C0001A7A0020022AD860587201D15B68984788
:1052D00008BD037A73B5052B04460D4600F286809F
:1052E00060680DF10701A84700286CD0237A052BD0
:1052F000F6D8DFE803F00322282E39459DF8071081
:1053000024290FD1236A01215A7A21720AB95972CC
:105310001A77C8221A60DA601A7A022AE0D10022CB
:105320009A61DDE73B4B1B78032B50D1636D002B5B
:105330004DD02046E26C9847D2E79DF807304D2BC0
:1053400045D102231AE09DF807303C2B3FD10323BF
:1053500014E09DF807307C2B3BD8E268637513702E
:1053600001232374042309E09DF80730217CE268BF
:1053700023755354237C0133237405232372AFE731
:10538000227CE3689DF807109954227C637D0132EA
:10539000D2B2023393422274A2DA98B29DF8071077
:1053A0000023E6681A46F55C01336A409DB28542E7
:1053B000F9D391420FD1206AFFF780FFE3680233EF
:1053C000A361062311E0134B03221A700EE00123A0
:1053D00002E0002300E002230E4A206A117899427D
:1053E00018BF1370FFF76AFF00232372237A062B7E
:1053F0000ED1A369E361236D23B1204604F11401AA
:10540000E26C98476368D86901F018FC00232372A6
:1054100002B070BD620100202DE9F74F614A624978
:1054200013688F68894613B19847604B1860604BCA
:105430001A6832B9002F00F0B080D9F810305C4AF9
:1054400013605C4B1A683A441A605B4B1C6814B1D9
:1054500094F830303BB90025A84601952E46AA465F
:10546000AB462C4615E06679002EF4D184F8306006
:10547000B04601265AE0002C57D14D4A13685A7B9A
:1054800052B14B4A136803B11B681360002B3FD025
:105490000136BE42EFDB47E0484AD2F8F41069B16A
:1054A00022468A420ADA464850F82200407818B16B
:1054B00093F809C08445E4D00132F2E793F838202C
:1054C00003F108002AB1002283F8382004460125A0
:1054D000D7E71A7A002AD4D11A7B082A04D11B6D87
:1054E000984708F10108CCE75B6B002BC9D0092A6B
:1054F0000BD1BBF1000FC4D1984783460028C0D020
:105500002B4B0196D3F800A0BBE798470446B8E7B9
:10551000D9F81030264A1360284BD3F8F430002B0A
:10552000B6D001F0E9FBB3E7ECB1C5B1234BD3F83A
:10553000F430A3B11B4A136823B19847636CC01AB7
:10554000208504E01F4B1A68636CD31A2385238DD2
:10555000226A9342626A88BF2362134463622046D0
:1055600001F0EEFB12E0BBF1000F0ED0104BBAF1D0
:10557000000F02D0DAF800200AB9D9F810205846F6
:105580001A6001F0DDFB019E00E001200E4BC8EB2C
:1055900006061A6832441A6000E0384603B0BDE8D7
:1055A000F08F00BFF4090020F8090020FC1700204C
:1055B000100A00200018002004180020701E00208F
:1055C000681F0020682400200818002073B590F898
:1055D0002E5004460E46002D6CD1206A0DF10701B5
:1055E000B04700285FD09DF807300A2B24D094F8EC
:1055F0002D2002D8082B05D027E00D2B17D01B2B10
:1056000041D022E0002A3AD0606A2B4901F029FDFE
:1056100018B9FFF701FF0028F6D194F82D30226B5E
:10562000013BDBB2002184F82D30D15427E0234B1D
:10563000012283F80C2126E0204B93F80C21012A4B
:1056400021D1002283F80C2119E094F82F30033B7C
:105650009A4214DA606A9DF8071001F074FD18B9D7
:10566000FFF7DAFE0028F5D194F82D20236B9DF882
:105670000710995494F82D30013384F82D30012D02
:1056800018BF0025A9D194F82D20236B002199542F
:10569000606A0A2101F057FD18B9FFF7BDFE002826
:1056A000F6D1012599E72DB1012384F82E30A06AA7
:1056B00001F0C4FA02B070BD07930108701E00200B
:1056C00070B50E4D04462B680833984204BF002382
:1056D0002B600379012B02D8406B01F009FC084EC6
:1056E0002146304601F063FDB3680BB92B6070BDF5
:1056F0002B6813B93269014B1A6070BD100A002083
:10570000F80900202DE9F743894698468DF80700EF
:1057100015461AB91F4B01221A7004E00DF107005B
:1057200001F0B8FA08B9002030E01B4801F028FD6C
:10573000194E04460028F6D018494A460F8801370A
:10574000BFB20F8047809DF8071001F04BFBB8B146
:105750009DF80730A564063BDBB2012BC4F8088036
:1057600006D99DF82830D3F1010338BF002300E0AB
:10577000012323700A4B1A683AB932691A6004E0AF
:105780003046214601F013FDCDE7204603B0BDE8C9
:10579000F08300BF6C2B0020F809002004000020DB
:1057A000100A002010B50446806908B9002010BD19
:1057B00001F0C9FC0028F9D0A06901F0F6FBE38CE8
:1057C000834202D8E06901F039FA012010BD00BF20
:1057D0002DE9F04F524F534A97F82530B2F9042083
:1057E0001B33534387B05B1102934F4B97F80890DC
:1057F000DA781B7900240493BB7C039205934B4B0E
:105800004FF6FF72B3F80080CDF800904FEA1813FE
:10581000B2FBF3FB25462646022E36D0414B444AC6
:1058200035F903A0434B4449EB5EAA5E5344B3F5FC
:10583000FA7FA8BF4FF4FA738B42ACBFC2EB0303ED
:10584000C2EB0103364A2A44B2F92C0018440AF08C
:10585000B9FC3A490AF0BEFD0AF0CEFE039A7AB9C5
:1058600097F823301B330AFB03FA049B4FEA2A1AEA
:105870006BB1DDF8149009FB00F00AEB202A06E07A
:10588000009A50434FEA201A01E0DDF808A02C4BA3
:105890002C49E85E224BC0EB0A00334493F801A088
:1058A00008FB00F3625897F80BC0DB120CFB0323D4
:1058B000254AB3F5001FA8BF4FF400139342B8BFA9
:1058C0001346224A6350A158A050411A0BFB01F124
:1058D0004FEAA11C02F10C01183254F802900AFBA5
:1058E00000FA605801368144A0507A7DCDF80490CA
:1058F000E14402FB09F0001244F801C000EBEA1099
:10590000134900EB6333032E6B5207F1010705F1D6
:10591000020504F104047FF47FAF07B0BDE8F08F07
:10592000302A0020521B0020E50C0020782B00209C
:105930007C190020901B00200CFEFFFF000020417E
:10594000BC190020441C00200000E0FF801F002044
:10595000561900208B4B2DE9F04FB3F90220B3F913
:105960000030002AB8BF5242002BB8BF5B429A42B7
:10597000B8BF1A46844B8BB0D8781B79029201933A
:10598000824B6FF00401B3F8683103905A420493DC
:105990007F4B05921A7F1C7A514306910521514392
:1059A0009B7C08910993002307941A461E461D46C6
:1059B0001946039F17B9019800283FD0022937D014
:1059C0007048059C165E7348105E00EB4606A642C2
:1059D00004DB049FBE42A8BF3E4600E0059E6E4821
:1059E000DDF81C90105EDDF818C0361A68481044C7
:1059F000B0F92C406420264409FB06F595FBF0F530
:105A0000654504DB08988542A8BF054600E0069D71
:105A1000624C1859304442F21076B042A8BF30466A
:105A20005F4EB042B8BF30461851099C6043061320
:105A3000039F1FB1019808B9022961D1544C514804
:105A400001EB040C574C105E32F90480564C88EA86
:105A5000E879A9EBE879B9F5207F9CF801A053F823
:105A600004B01FDC022916D04FF0500909FB00F9E1
:105A700099FBFAFAC8EB0A0AD344DFF83891BBF570
:105A80007A5FA8BF4FF47A5BCB45ACBF44F803B054
:105A900044F803900AE080EAE079A9EBE079B9F1F3
:105AA000640FE1DD4FF0000844F803803E4C019F95
:105AB00053F804807D2498FBF4F49CF80B8008FBD9
:105AC00004F4A411A7B102291CD0DDF808904FF40A
:105AD000FA7C09FB00F009FB04F4C9F5FA7808FB2D
