:020000040800F2
:1000000000500020DD2D01087D2E0108C9F70008F1
:100010007D2E01087D2E01087D2E010800000000C4
:100020000000000000000000000000007D2E01081C
:100030007D2E0108000000007D2E01082DF600082D
:100040007D2E01087D2E01087D2E01087D2E0108E0
:100050007D2E01087D2E01087D2E010845F0000847
:100060007D2E01087D2E01087D2E01087D2E0108C0
:100070007D2E01087D2E01087D2E01087D2E0108B0
:100080007D2E01087D2E01087D2E01087D2E0108A0
:100090007D2E01087D2E01087D2E010841F000080B
:1000A0007D2E01087D2E01087D2E010833F0000809
:1000B00029F000081DF0000811F00008C5F700083D
:1000C000BDF70008C1F70008B9F700087D2E010848
:1000D0007D2E0108D5F5000879F5000815F5000812
:1000E0007D2E01087D2E01087D2E010800000000F4
:1000F0000000000000000000000000000000000000
:0C01000000000000000000005FF808F1A3
:100110002DE9F04F854C9DB023680490062B01F229
:10012000E186DFE813F007001F001F001F00D40462
:100130005F06F00A7E4B1B682BB97E4B4FF47A703A
:100140001B68584300E09847049E726C831A2AB1DA
:10015000F2691A44F261326A01323262049F764ACD
:10016000786413802768714D012F00F0D280022F30
:1001700000F0E181002F40F083847048291DC36F97
:10018000984705F10408002800F09E846C4B1A88FB
:100190009946002A00F0A98010353E46B9F800A023
:1001A000DFF8A4B1BAF57A7FCDF814A008D1052103
:1001B000ABF13C0201FB062200234BF80630136131
:1001C00058F806A05BF8060010F078F9514610F0D8
:1001D000C1F810F08DFB2A694BF806000132012AA4
:1001E0002A614FF0000305D1C5F804A0C5F800A0AE
:1001F000AB602BE0D5F800C0504661460193CDF8C6
:100200000CC0029210F0A4F8029A8346104610F037
:1002100055F90146584610F059FADDF80CC0014670
:10022000604610F097F80246114668605046029208
:1002300010F08EF80146584610F094F9A96810F0B5
:1002400089F8029A019BE8602A60A860059ADFF8A5
:10025000FCB048F80630012A4FF000032BF80730B5
:1002600036D12869012807DD013810F027F9014649
:10027000E86810F02BFA00E0002013F0DFF9314BB2
:10028000834693F8660190B110F018F9014658467C
:1002900010F024FB58B14FF47A73A9F80030002312
:1002A00023626363A36463652365E36410E0264B04
:1002B0004FF47A72F358DFF894A003F5FA7393FBC6
:1002C000F2F32AF807300A200F21012205F06CF81A
:1002D00004360C2E07F1020705F114057FF45EAF1A
:1002E000B9F80030013BA9F8003000250F4E06F1A7
:1002F000580B3BF9050010F0E1F8014658F81500DD
:1003000010F026F848F815000235062DEED101F060
:10031000DEBD0A4E05F16001D6F8943030469847AC
:10032000B04605F1600998B90120CDE3E01700203F
:10033000F409002064240020762B002018000020FF
:10034000BE170020A42400202C18002038180020FC
:10035000A04B1D889A46002D47D09F4A0026B5F530
:10036000C87FDFF8A8B204BF00234BF806305BF863
:100370000600029210F0A2F859F806100FF0EAFFFA
:1003800010F0B6FA002349F806304BF80600029A3E
:10039000043600230C2E914F22F8023FDFD1012DAD
:1003A0001ED1FA6E8E494FF4C870C83292FBF0F23B
:1003B000A1F86A213A6FC83292FBF0F2A1F86C21E1
:1003C0007A6FC83292FBF0F0B8F89820801A854A0C
:1003D000A1F86E01284629469385D38506F062FD73
:1003E000BAF80030013BAAF800307D4EB3685A07D6
:1003F00040F184807C4B1D889A46322D13D1B6F88B
:100400006A31A4F87830B6F86C31A4F87A30B6F8CE
:100410006E31A4F87C30734B9A8DDB8DA4F87E206E
:10042000A4F8803001E0002D46D06B4B0027322D20
:10043000DFF8DCB104BF00224BF807205BF80700AF
:10044000019310F03BF859F807100FF083FF10F0FC
:100450004FFA002249F807204BF80700019B0437A8
:1004600000220C2F23F8022FE1D1012D1FD15F4B69
:100470001A705F4B1D705F4D2B780A2B04D95E48B4
:1004800007F0A4FB0A232B70B4F87830B4F87E2070
:10049000A6F86A31B4F87A30A6F86C31B4F87C303A
:1004A000A6F86E314F4B9A85B4F88020DA85BAF8F9
:1004B0000030013BAAF80030504A1378F3B1002312
:1004C000D4F884101370322291FBF2F1A6F86A116D
:1004D000D4F88810B8F8980091FBF2F1A6F86C11E6
:1004E000D4F88C1091FBF2F2121AA6F86E210120BA
:1004F0003C4A01469385D38506F0D4FCB6F96A01DF
:100500000FF0DCFF0146206E0FF022FF2066B6F9E7
:100510006C010FF0D3FF0146606E0FF019FF6066AB
:10052000B6F96E010FF0CAFF0146A06E0FF010FF82
:10053000A0660220C8E2324B324F1B689847D5F8BC
:1005400090300646C31A184605930FF0B3FFD7F84C
:100550008810069010F006F8C5F89060214E00252E
:1005600096F831900790A846274F0799E8590FF061
:10057000F9FF0DF1400E4EF80500DFF898B0B9F123
:10058000000F49D048460FF099FF01464FF07E50CA
:1005900010F09CF80346194607F1900A4FF07E5080
:1005A00001930FF0D5FE55F80A100FF0DBFF019B09
:1005B0005C370246E959184602920FF0D3FF029ABF
:1005C000014610460FF0C6FE45F80A0045F80B003C
:1005D00026E000BF6A2B00200C260020E017002038
:1005E000A42400202C2A0020E01A0020E21A002077
:1005F000DC1A00205C010020E6820108DD1A0020E0
:10060000F409002018000020E41700204C180020F6
:1006100064180020401C00205C37EB594BF8053073
:1006200040460FF04BFF5BF805708046384610F0EF
:100630005FF90FF043FF39460FF094FF0146404643
:100640000FF088FE10F054F904350C2D80468BD144
:10065000642303FB00F8A84810A9B0F89830A74815
:100660005B4398FBF3F8A8F149081FFA88F80AF0F1
:10067000C9FDB8F13B0F6ED9A14BD4F8A850B3F91E
:1006800000000FF01BFF014628464FF0010710F055
:1006900025F900B907469B4B2946D4F8A4005F739F
:1006A00012F02CFE0746C4F8AC00D4F8A000D4F831
:1006B000A89000F10045D4F8A40001460FF052FFC5
:1006C0004946804648460FF04DFF014640460FF030
:1006D00041FE12F0B3FF0146284612F00FFE054618
:1006E000C4F8B00038460FF0A9FA7FA3D3E900237D
:1006F0000FF0F8FA0FF0D8FD12F032FDDFF8288283
:10070000A8F8000028460FF099FA77A3D3E9002350
:100710000FF0E8FA0FF0C8FD12F022FD7A4BA8F8AE
:1007200002001B681B0757D510A978480AF06AFD1C
:10073000774B4FF0000AB3F864010FF0BBFE4FF0A7
:100740007E5181460FF006FE01464FF07E500FF0BD
:10075000BDFF804628E06E4B4FF00008B3F8620101
:100760000FF0A8FE4FF07E5107460FF0F3FD014653
:100770004FF07E500FF0AAFF0546DFF88091384613
:1007800058F809100FF0EEFE624B58F803100FF006
:10079000E1FD29460FF0E6FE49F8080008F10408DB
:1007A000B8F10C0FE9D167E7DFF860B148465AF8B5
:1007B0000B100FF0D7FE584B5AF803100FF0CAFD7C
:1007C00041460FF0CFFE4BF80A000AF1040ABAF1D5
:1007D0000C0FE9D158463DE0DFF8409110A948469A
:1007E0000AF010FDD9F80000D9F804B001460FF066
:1007F000B9FE5946824658460FF0B4FE01465046AF
:100800000FF0A8FDD9F808808246414640460FF017
:10081000A9FE014650460FF09DFD12F00FFF00218A
:10082000804610F033F8A0B9D9F8000041460FF027
:100830004DFF4146C9F80000D9F804000FF046FF0B
:100840004146C9F80400D9F808000FF03FFFC9F885
:10085000080032480AF08EFD314B32491880069864
:100860000FF080FE2E4B804607F10047B3F90000E1
:1008700005F10045139714950FF020FE00F100409C
:100880000FF0DCF91AA3D3E900230FF02BFA0FF0D5
:100890000BFD204B15901A6816A816925A689B6893
:1008A00013A9189317920AF0ADFC96F84830012B63
:1008B0003CD1144B5B7873B9D4F8C030402093FB23
:1008C000F0F0181A0FF0FAFD18990FF043FD10F030
:1008D0000FF8C4F8C000D4F8C030402093FBF0F00B
:1008E00027E000BFAFF300803B597E90A9E781402D
:1008F000399D52A246DF913F180000208018002049
:10090000880B0020E50C0020800B002094180020AC
:10091000A4240020401C00207C1900204C01002051
:10092000DA1A0020BD37863558190020BC49B1F8C5
:1009300098000FF0C3FD014618980FF009FDB94B60
:100940001890196840460FF005FD014640460FF02B
:10095000BDFED4F8C4708046394618980FF0F8FCF4
:10096000014640460FF0FEFD014638460FF0F2FC0E
:100970000746C4F8C4001698D4F8C88012F0F0FBFB
:1009800096F833100AF074FD4044C4F8C800179874
:10099000D4F8CC8012F0E4FB96F833100AF068FD2E
:1009A0004044C4F8CC003846D4F8D08012F0D8FBCC
:1009B00096F832100AF05CFD9B4B059F1A68404484
:1009C0003A441A60D4F8D430984D0133C4F8D43086
:1009D00096F8B630C4F8D000002B4FD0D5F8A00060
:1009E000D5F8A48001460FF0BDFD414607464046BC
:1009F0000FF0B8FD014638460FF0ACFCD5F8A86002
:100A00000746314630460FF0ADFD014638460FF03F
:100A1000A1FC12F013FE014630460FF057FE844948
:100A200006460FF047FF18B10023A5F8D83025E09F
:100A3000304612F011FC7F4B19680FF093FD12F055
:100A40008FFBB0F5617FA8BF4FF461700FF0E4F841
:100A500071A3D3E900230FF06FFA0FF025FC12F019
:100A6000BDFB754B064693F8B6000FF027FD3146E7
:100A70000FF078FD12F074FBA5F8D800032023E0F6
:100A80006E4B6F4E5B79012B11D1B5F9DA00400046
:100A90000FF014FDE9680FF05DFC6A490FF016FED7
:100AA0000FF026FF80B2B080A5F8DA0003E0E86816
:100AB0000FF01EFFB08060680FF01AFF3080A06852
:100AC0000FF016FF70800420206000F018BE5E4B0F
:100AD0005E4A197C584BA1B9B2F906101A8D9142A1
:100AE0003CDBB1F5FA6F93F8264007DA891A4C43DC
:100AF000A2F5FA6294FBF2F4643430E0C4F16404C9
:100B00002DE0B2F906101A8D91420FDB504AB2F96E
:100B1000061093F82620914208DDB1F5FA6F02DA4B
:100B2000891A4A435212C2F1800200E080224949E8
:100B3000B1F90210142909DD93F82600B1F5967F6A
:100B4000A8BF4FF496714143A2EB212293F82640AF
:100B5000C4F18004A242A8BF144600E06424374ACE
:100B600093F8B050B2F8989192F95C2193F8B16083
:100B7000524293F8253092B200212F480692CDF8C8
:100B8000149007930A46314BDDF814A031F903B0F5
:100B900040F2E637CAEB0B0303F2F31EBE4503D85F
:100BA000002BB8BF5B4201E04FF4FA73022ADFF872
:100BB000A0C053D025B1AB42CCBFC5EB030300238B
:100BC0006427DFF8689093FBF7FE09EB4E086FF09F
:100BD000630A0AFB0E3AB8F8DC8009EB4E0EBEF948
:100BE000DE900FFA88FECEEB090E0EFB0AFE9EFB8E
:100BF000F7FEC6442CF801E090F823E003FB0EFE5C
:100C0000154B9EFBF3F33B449BB2634393FBF7F717
:100C100039E000BFAFF30080A2EB0FE5DD16964090
:100C200018000020940B0020702B0020E0170020FB
:100C30008FC2753C900B00202C2A0020A424002099
:100C40007619002000004040E50C0020B00D002087
:100C5000F61A0020581900200CFEFFFF26B1B342FF
:100C6000CCBFC6EB03030023DDF818E003FB0EF74F
:100C7000ACF80470079F002BB8BF5B427B43B64FB4
:100C800093FBF7F76437B54B90F80B80134493F858
:100C900001C007FB08F807FB0CFCDFF8FCE264234B
:100CA0009CFBF3FC02F80EC098FBF3F80EF1030C6A
:100CB00002F80C8090F815C0DDF8149007FB0CF7D3
:100CC0000EF1060E97FBF3F3CB4502F80E30A44F5E
:100CD00002DA7B5A5B427B520132032A01F10201A4
:100CE00000F101007FF44FAF9E4BB3F906209E4BFD
:100CF000B3F89A319A4205DBB2F5FA6FA8BF4FF408
:100D0000FA6200E01A46D21A4FF47A714A43C3F5E8
:100D1000FA63B2FBF3F36425944A93FBF5F102EB1B
:100D200041006FF0630606FB0133B0F8F40002EBFC
:100D30004101B1F9F66001B2711A4B4393FBF5F52D
:100D40008B4B28445B7A864CF8809046002B44D02D
:100D5000884BB3F90000884BB3F90030C01A0EF08D
:100D60005BFF7BA3D3E900230EF0BCFF0022834B83
:100D70000FF0E2F80FF098FA054612F0BBF90646BC
:100D8000284612F02BFA0546B4F902000FF096FB44
:100D90000746B4F900000FF091FB314681460FF091
:100DA000E1FB2946824638460FF0DCFB01465046FF
:100DB0000FF0CEFA0FF09CFD3146208038460FF040
:100DC000D1FB2946064648460FF0CCFB014630468B
:100DD0000FF0C0FA0FF08CFD60800523C8F80030DA
:100DE00000F08DBC664BDFF874911A6812F00805AC
:100DF00039D05B4988880F4600F145039BB28A2BA6
:100E000060495C4B2DD85A4E96F805E0BEF1000FB4
:100E100027D0B3F800E00B88767BC3EB0E0189B2D4
:100E20008BB20FFA83FE1EF1B30FBCBF01F5B47392
:100E30009BB219B2B3294C49C4BFA3F5B4739BB29A
:100E400091F85C117EB149B249424B4399F80910BF
:100E50001BB24B436FF01D0193FBF1F31844B880B4
:100E600001E01B880B80570740F1A380404B997924
:100E7000002900F09E801E7C394B002E40F09080AF
:100E800099F8B300404F99F8B21068B3B3F806E090
:100E9000B7F900000FFA8EF7C0EB070CBCF1000F9A
:100EA000B8BFCCF1000C8C4510DD8742DFF8ECC0F8
:100EB000C8BF4942CCF800601FFA8EFE4FF0010611
:100EC000C8BF89B284F80C6171443FE094F80C11FA
:100ED00031B12E490F682E490F60244981F80C6109
:100EE0002C490968084426E0B7F90060B3F9067098
:100EF000BF1B87EAE77EAEEBE77E8E450ADD022167
:100F000097FBF1F70121C4F8107184F8141184F8EB
:100F10000C110DE094F80C7114494FB11B4F81F87E
:100F20001401D7F800E01A4F81F80C01C7F800E06F
:100F30001849086830440C4EB6F84011B6F84261C2
:100F4000884203DBB042B4BF01463146D98030E06D
:100F5000182D4454FB2109400CFEFFFF2C2A0020D1
:100F6000F61A0020B00D0020A4240020E017002075
:100F7000E50C0020DA1A00200A1B002000806640E1
:100F8000800B0020081B0020F41A0020F01A00201B
:100F9000EC1A0020041B0020CA180020001B0020AF
:100FA0009749588891F9A0619649096806FB0101A3
:100FB000598099F8B63053B1934BD97809B91B7958
:100FC0002BB1924BB4F8D800D9880144D980960649
:100FD00040F192838C4BDA7905921AB91A7A002A79
:100FE00000F085831B7BDFF820B2002B00F07F83AD
:100FF000874B1F8838B20FF061FA86490FF0B2FABA
:10100000064612F0EBF88046304612F073F89BF873
:1010100010300646002B40F0858099F815917E4FE0
:101020007E4DB9F1000F4CD0DFF81CA2B7F90200D9
:10103000BAF80230C9F100041FFA83FB1BB2C01AD0
:101040000AF0D8FBA04203DB4845A8BF484600E0B1
:101050002046BAF800308344B7F900009AB21BB2B8
:101060001FFA8BFBC01AAAF802B002920AF0C2FB68
:10107000A042029A03DB4845B4BF04464C461444E0
:10108000A4B2AAF800400FFA8BF00FF017FA074647
:1010900020B20FF013FA3146044638460FF062FAD8
:1010A0004146814620460FF05DFA014648460FF062
:1010B0004FF95B490FF00AFB0FF01AFC2880384605
:1010C0001DE0B7F902000FF0F9F98146B7F9000009
:1010D0000FF0F4F93146044648460FF043FA414612
:1010E000074620460FF03EFA014638460FF030F929
:1010F0004B490FF0EBFA0FF0FBFB288048464146C6
:101100000FF030FA3146074620460FF02BFA014621
:1011100038460FF01FF942490FF0D8FA0FF0E8FBFC
:101120006880E9E23F4B404A1888404B9BF813B077
:10113000DB8899F8369106933D4BD3F808803D4BF8
:101140001FFA88FA1E889368CAEB0606B6B2CAEB85
:10115000030A1FFA86FC1FFA8AFABBF1000F06D0B9
:101160000FFA8CF34B45BCBF08EB090393600A23CD
:1011700000B258430193CDF80CC00AF03BFB019B31
:10118000DDF80CC090FBF3F000B27DB190FBF3F3FF
:1011900038B29AB2C31A002BB8BF5B420A2B08DDE3
:1011A000254B1B88C82B88BF174602E090FBF3F73E
:1011B000BFB2224D2248D5F818316422CAEB06018D
:1011C00093FBF2F20668D5F8203189B2F31AC72BE7
:1011D000A5F81C21A5F81E11824640F26C82036816
:1011E000184EC5F82031B6F82C3179BBA5F824315A
:1011F000BBF1000F40D0044B0021D9743CE000BF8C
:10120000A4240020041B0020E50C0020F61A002076
:10121000DA1A002035FA8E3C3E1B0020341B0020D9
:1012200000002041881900201C1B0020B00D002068
:10123000101B0020281B0020861C0020E017002027
:10124000642400202C2A00203A1B0020B6F830012C
:1012500009B200FB1130B6F82E31B6F82AE19842F7
:1012600003DB7045B4BF03467346A5F82431BBF1D8
:10127000000F01D00029BEDAD71BB8B2059F9E49E6
:101280009E4BE7B1CA7C7AB1B6F824216FF009070A
:101290007A43A5F81E21B6F82A21A5F824210FFAD1
:1012A0008CF2182AD8BF00201A88312A07D80FFAE2
:1012B0008CFCCC4503DD924A08EB09079760897CDA
:1012C0008D4A49B11988092906D800215170D17475
:1012D0008B4A08F1050191601B88092B08D800B2E0
:1012E0000FF0ECF887490FF03DF90FF001FB80B2E9
:1012F0004FF0640900B209FB00F00AF07BFA90FBA2
:10130000F9F01FFA80F90FFA89F3002BB8BF5B429E
:10131000DAF80000AA2BC8BF4FF0AF09D5F8283182
:10132000DFF80482C01A0FF0C5F877490FF0CEF944
:10133000DAF80030B5F81EA1C5F828310AF1030328
:101340009BB2062B074606D8D8F8000039460FF0A6
:1013500009F9C8F800000A2202FB0AF292B293B21D
:10136000A4F81E3118B2029201930FF0A7F8D4F836
:10137000301182460FF0F6F839460FF0F3F8D8F83E
:1013800000100EF0E7FF0FF0B3FA6049B0F5FA7FF6
:10139000A8BF4FF4FA708842B8BF08460FF08EF825
:1013A0005B49029A8346C8F800000888019B121A1C
:1013B00092B20B8013B2002BB8BF5B42642BC8BF44
:1013C0000022544B03F10A01988823F8020F8B4244
:1013D000FAD1514900230A811846CA5A02331044EF
:1013E0000A2B80B201D080B2F7E700B20FF066F8A6
:1013F000D5F834110FF0B6F839460FF067F90FF051
:1014000077FA1FFA80F8D5F82C115046A5F83C81E0
:101410000FF0A8F80FF06CFA00B20FF04FF8594631
:101420000EF098FF0FF064FA1FFA89F909F103032F
:101430009BB2062B1FFA80FA08D8DFF8F0B03946C5
:10144000DBF800000FF08EF8CBF800004FF00A0C2C
:101450000CFB09F91FFA89FC1FFA8CF210B20292F8
:10146000CDF80CC00FF02AF8DFF8C090D5F8441181
:1014700083460FF077F839460FF074F8D9F800106A
:101480000EF068FF0FF034FA204BB0F5FA7FA8BFDA
:101490004FF4FA709842B8BF18460FF00FF80346A1
:1014A000C9F800001D48DDF80CC00188029AC1EBA4
:1014B0000C0189B202800AB2002AB8BF5242642AE3
:1014C000C8BF0021164A02F10A00B2F804E022F86F
:1014D00002EF8242F9D1134A4FF0000911814846C8
:1014E00032F8091009F102090844B9F10A0F80B273
:1014F0001ED080B2F4E700BFE50C0020881C00205D
:101500001C1B0020CDCCCC3D00007A440CFEFFFF1C
:10151000C41B0020C81B0020CA1B0020C61B0020C3
:10152000D41B0020D61B0020C01B0020BC1B0020A9
:1015300000B201930EF0C2FFD4F848110FF012F878
:1015400039460FF0C3F80FF0D3F987B2D4F8401141
:10155000A4F8507158460FF005F80FF0C9F900B221
:101560000EF0ACFF019B0FFA8AFA19460EF0F2FE5C
:101570000FF0BEF9B6F924316FF009014B439AFB25
:10158000F9FA0FFA8AFAB6F926119A4580B209FBE0
:1015900001F903DBCA45B4BF53464B46B04C02B217
:1015A000B4F920116FF0090048434FF00A0E984437
:1015B00092FBFEF2AB4B1FFA88F88242A3F802803E
:1015C00004DB0EFB01F08242B8BF1046BFB23844C4
:1015D0001880B4F922016FF0090141438A4204DB0B
:1015E0000A2141438A42B8BF11469F4A0F44507CAA
:1015F0009F80114658B194F828210FFA88F852427A
:10160000904503DBC845B4BF42464A465A80C97C70
:10161000964A69B996F83261B2F900006421B6FBC6
:10162000F1F15E880028B8BF404201FB106159808B
:10163000B2F902000EF042FF4FF07C510EF092FF23
:101640000FF056F98A4BB0F5E17FA8BF4FF4E17077
:101650001A88B5F82471A2F5E17320EAE0709BB214
:10166000381A642B87B2834E0CD910B2C0F5FA70C9
:101670000EF024FF80490EF075FF0FF039F9338822
:1016800018443080B6F90030B4F82E21B3F5FA7F53
:10169000A8BF4FF4FA7323EAE37333803B441BB2D1
:1016A0009342B4F82A1103DB8B42B4BF1A460A46B0
:1016B000724BA3F824216C4A6A4BD17809B911798D
:1016C00021B1927A52B1684A927C3AB9DDF8189009
:1016D0000022A5F824915A801A809A80684AB5F8A9
:1016E0002411D180998893880B44938004E05D4B4A
:1016F00000221A805A809A80604B06221A60049851
:1017000004F0C4FDEEE35F4BDB6898475E4B93F853
:101710000080B8F1030F14D9594BB4F95611B3F93D
:1017200004006FF063030028B8BF40421B1A9942BF
:1017300004DB00F164038B42A8BF0B46A4F85631CA
:101740000BE0B8F1010F08D8504B5A791946013A0D
:10175000D2B2172A00F2D481A3E04148B4F854A1D0
:1017600090F90E11B4F852B1B4F9564149424C43C4
:101770003D49434B0A7C90F81E01897ACDF810A0B0
:10178000DE88B3F804A0424D0694CDF814B0079259
:101790000890099100244445D6D230B20EF08EFE56
:1017A000296883460EF0DEFE049B844618B2CDF80D
:1017B0000CC00EF083FEA9680EF0D4FEDDF80CC05C
:1017C000014660460EF0C6FD059A844610B2CDF87B
:1017D0000CC00EF073FE69680EF0C4FEDDF80CC09C
:1017E000014660460EF0B6FD84460698CDF80CC062
:1017F0000EF064FEE9680EF0B5FEDDF80CC001469F
:1018000060460EF0A7FD0FF073F8DFF88890079B95
:10181000670029F81400002B40D0089A002A3BD01A
:10182000099B002B3AD00FFA8AF00EF047FE84464F
:101830002046CDF80CC00EF03DFE4FF07C510EF06E
:1018400087FDDDF80CC0014660460EF08BFE0146B8
:1018500058460EF07DFD0FF04BF829F807001DE00B
:101860002C2A0020341B0020E50C002058190020F1
:10187000861C0020C81B0020CDCCCC3DE0170020EA
:10188000F61A00204C010020102A0020A424002079
:10189000B40B0020122A002027F80960013410350B
:1018A00079E7012303FA02F2B94B13406BBBD4066C
:1018B00040F12681B74BB84893F9BE20B0F90240F9
:1018C000B0F900005443322294FBF2F4B3F8BC2088
:1018D000A4B211B21129DCBFB04A32F81120B049CC
:1018E00022440A8093F9C820B3F8C630504332220C
:1018F00090FBF2F01AB2112AD8BFA84B80B2D8BF21
:1019000033F8123003444B80FAE0A64B9B7A43B184
:10191000A54B1A88ADF858205A889B88ADF85A20F4
:101920000AE0A24BB3F85221ADF85820B3F8542185
:10193000B3F85631ADF85A20ADF85C309C4B974A5D
:101940001B88ADF85E30B1F898311189C91AADF82D
:1019500060105189C91AADF862109189C91AADF8A1
:101960006410D189C91AADF866101188C91AADF88A
:1019700068105188C91AADF86A109188D288C91ABE
:10198000D31AADF86E30ADF86C10002384490022F4
:101990005A520233102BF9D1864B15461B7804930B
:1019A0001346DDF810A0554500F08F80824E834C21
:1019B0009119887920B1824F3844007D00287ED06B
:1019C000B05C744E0A2707FB0067B7F8BAE0B7F8B7
:1019D000B86091F904B0C6EB0E06B6B206FB0BFB7D
:1019E000642791F801809BFBF7FB4FEA560C91F8B6
:1019F00003E0CCEB0B0B4FEA48070DF170091FFA1F
:101A00008BFB91F805A04F44BEF1000F03D137F8CE
:101A1000187CE7521BE0E45E37F9187CDFF89C91F4
:101A2000BC4209DAA644A64503DB7745B4BF3C4671
:101A3000744629F803400AE009DDCEEB040EBE45EA
:101A400003DBA645B4BF7746274629F80370DFF8C5
:101A500044E14FF00A0909FB00EEBEF8C0E091F93D
:101A600002104EFA08F818F0010FDFF850814C4CC4
:101A700033F908800FFA8BFB01FB08F14FF0640883
:101A800091FBF8F10CBF4FF0010E4FF0FF3E5945AE
:101A900034F810701FFA8EFE0CDB4FFA8AFB06FB3F
:101AA0000BFB9BFBF8FBCCEB0B0B0FFA8BFB8B457B
:101AB000A8BF8B460BFB0E7B24F810B000E0E05271
:101AC0000135EDB2023307326BE73E4B314A03F189
:101AD000100492F9BE10B3F902500A324D4364214A
:101AE00095FBF1F5B2F8B210ADB208B21128DCBF27
:101AF0002A4931F81010294423F8021FA342E8D1E3
:101B0000314B9A689A4612F0200F224B3BD0B3F823
:101B1000BC00234C02B2112AD8BF20492546D8BFA9
:101B200031F81200B3F8C61020800AB2112ADCBFC7
:101B30001A4931F812101A4A0C4669802049097A6C
:101B400009B393F8101193F9C86011F0020F93F9DB
:101B5000BE7011493AD0B1F90050B1F902106E438C
:101B60007F424F434FF0320E96FBFEF66FF031018D
:101B7000B6B297FBF1F1314497FBFEF708443E44BF
:101B80001080344454800F4A024902F1100532E0BB
:101B9000892098002C2A002058190020B00D002020
:101BA00088010020E50C0020F61A0020E017002034
:101BB000122A0020740C0020750C00203819002017
:101BC000B81A002086010020A4240020B1F9025098
:101BD000B1F900106F434E43322597FBF5F73844B7
:101BE00096FBF5F510802C44CCE722F8020FAA42B0
:101BF00001F10A010CD0B2F90240B1F9B800B1F814
:101C0000BA608442F1DB30B2A042A8BF2046ECE7C4
:101C100093F81031580705D49A499B4B0C881B78D0
:101C200001220FE0994B9A4D9E7D0024043EA0199D
:101C30000134C0B235F8021FE4B209F016FF042CDB
:101C4000F5D1E9E79A4208D231F9120024B2A04254
:101C5000A8BF0446A4B20132F4E78E4ABAF8425152
:101C6000107C291B05908C4889B2B0F90600BAF89F
:101C7000987106910490DAF808108848BAF840C1C3
:101C800001F48046B0F9EAB001F010010797B0F90D
:101C9000EC70BAF846010E911FFA8CF1BAF844E1E3
:101CA00008900A9150787E49BAF848819AF80590D0
:101CB000BAF89AA15B000D960C901FFA8EF649892E
:101CC000507C0F93CDF800B0CDF824A00B960023E4
:101CD0000F9EB3426ED022B2AA4208DD059A32B9F5
:101CE000684A069E33F802A0B24423F802A00D9E73
:101CF000644A002E36D0DDF810A0DDF81CB0DA45BD
:101D000032F903A015DDC24503DBAA45A8BFAA46E8
:101D100000E0C246B9F1010F22F803A041D1009AB8
:101D200009B2914203DBB942A8BF394618E00099D5
:101D300016E0F24504DB089EB245A8BFB24600E0BB
:101D4000F246B9F1010F22F803A02AD109B2B94233
:101D500005DBDDF800A05145A8BF514600E039463B
:101D600089B21EE032F903B0E34503DBAB45A8BFFF
:101D7000AB4600E0E34622F803B002EB030ADDF8CD
:101D800010B0099A93450BDA0E9E26B9DDF828B0FB
:101D9000AAF800B005E00B98AAF80000012000E0C6
:101DA00000200C9A22B93F4A985A364A985201208C
:101DB00002338DE7354A3A4C364B6181517D587478
:101DC0001A4600297DD0384E7379013B172B6DD808
:101DD000DFE803F00C6C6C186F6C6C1E6C6C6C6C38
:101DE0006C256C6C6C6C6C18256C6C342B4B93F8FC
:101DF0000F3113B10020618961E050780028F9D1DA
:101E000001465CE00020218909F02FFE0120F2E765
:101E10000020E18809F029FE012021894FE00020FF
:101E2000E18809F022FE0120218909F01EFE02202E
:101E3000618909F01AFE0320A18940E00020E188B1
:101E400009F013FE0120218909F00FFE02206189AB
:101E500009F00BFEA189032009F007FEB368104DBD
:101E6000D9072ED50420298809F0FFFD05206988AF
:101E700009F0FBFD0620A98809F0F7FD0720E98994
:101E80001DE000BF122A0020102A00209C0B002019
:101E9000B60D0020E50C0020B00D00202C2A0020FB
:101EA000880100205E190020A4240020B3689A064F
:101EB00007D50020218809F0D8FD6188012009F0AC
:101EC000D4FD09F081F9094B00221A600AE0084BA1
:101ED0001B689B073EF528AA002333667366B3662A
:101EE000FEF7CCBD00201DB0BDE8F08FE01700204C
:101EF000800B0020AFF300802DE9F34700F12407A9
:101F0000044638460D4602F0ADFB24238DF8003020
:101F10004D238DF801303E238DF802302B780026BA
:101F20003846694605228DF803608DF8043002F0CA
:101F300037FC30B19DF80430A4F84A6084F848308A
:101F400008E0A38F2387A38DA387AB4B1A780AB928
:101F500004221A702B78772B00F03C8200F2668105
:101F60006A2B00F0AF8400F29D80452B00F0DD87E6
:101F700018D8422B00F0768709D8402B00F0BD8797
:101F8000412B08BF002300F0C48700F0E0BF432BC3
:101F900000F0D286442B40F0DA87984B01221A7069
:101FA00000F0D9BF662B00F04D8372D8642B00F08F
:101FB0002083652B40F0CB87914B204619880AF08F
:101FC00093FE904B204619880AF08EFE8E4B2046D9
:101FD0001B68C3F3C001C3F38002890041EA4201D8
:101FE000C3F340021143C3F3401241EAC20103F0BC
:101FF000100319430AF078FE844A1579D378AD00AE
:1020000045EA430553781D43937945EAC30553795F
:1020100045EA4315537A45EA83157D4BD97945EA5C
:10202000C115197A45EA0125597A45EA4125D17940
:1020300045EA8125117A45EAC125117D927A45EA62
:10204000016545EA02355A7B002145EA42359A7B13
:1020500045EA82351A7C45EA02451A7945EA0215B5
:102060005A7C45EA42459A7C45EA8245DA7C45EA53
:10207000C2451A7D45EA02555A7D45EA42559A7D88
:10208000DB7D45EA825545EAC355624B18780B461D
:10209000C0E2682B00F0088400F20A8420465E4902
:1020A00000F004BC702B00F075843FD86D2B00F05D
:1020B0003C8412D86B2B00F028846C2B40F04787AF
:1020C000564D204629880AF00FFE204669880AF0FE
:1020D0000BFE2046524B00F02FBC6E2B00F02E84DE
:1020E0006F2B40F034874F4D2046E97F07F088FA88
:1020F00095F82010204607F083FA95F82310204623
:1021000007F07EFA95F82510204607F079FA95F841
:102110002610204607F074FA95F82110204607F0A3
:102120006FFA204695F8221000F0E4BE732B00F001
:1021300087845AD8712B00F04F81722B40F00787AB
:10214000394D2046B5F898110AF0CEFDB5F840118A
:1021500020460AF0C9FD334EB5F8421120460AF078
:10216000C3FDB5F8441120460AF0BEFDB6F80A11C9
:1021700020460AF0B9FD95F8AB11204607F040FA69
:1021800095F8AC11204607F03BFA95F8AD112046C2
:1021900007F036FA95F87C11204607F031FA95F8E9
:1021A000A111204607F02CFA0021204607F028FA5A
:1021B000B6F92A100A2391FBF3F189B220460AF0FE
:1021C00093FD95F87D11204607F01AFA95F87F11D6
:1021D000204607F015FA95F87E11204607F010FA10
:1021E000204695F8801100F085BE752B00F0E58340
:1021F00000F22F840025F7E3682B0020D81D002073
:10220000762B0020140B0020800B0020E50C002012
:10221000B81A00208D2100208801002058190020C4
:10222000DA1A00202C2A0020A4240020CF2B00F052
:10223000598100F29380C82B00F0D08054D8A02B95
:1022400000F0F48448D8782B00F035827B2B40F0E6
:102250007E86964B964D93F8A011204607F0D0F954
:10226000B5F8201120460AF03FFDB5F822112046AE
:102270000AF03AFDB5F8241120460AF035FDB5F80C
:10228000261120460AF030FDB5F82A1120460AF042
:102290002BFDB5F82C1120460AF026FDB5F82E11BD
:1022A00020460AF021FDB5F8301120460AF01CFD49
:1022B00095F8321120460AF041FD95F83611204676
:1022C00007F09EF9204600210AF038FD2046002143
:1022D0000AF034FD00F032BEA42B00F0B384A62B2C
:1022E00000F0098500F033BECB2B71D009D8C92B83
:1022F00000F09180CA2B40F02A866E4B03F10A0150
:10230000AFE0CD2B00F04D8400F25584AB6813F89C
:10231000012BAB60664BDA77AA6812F8011BAA6042
:1023200083F82010AA68511CA96051780232AA6073
:1023300083F82510AA6812F8011BAA6083F82610FA
:10234000AA6812F8011BAA6083F82110AA6812F883
:10235000011BAA6083F8221000F0FDBDD82B00F00D
:102360005D8217D8D22B00F02A8107D8D02B00F03D
:102370000F84D12B00F0CC8300F0E9BDD42B00F00A
:10238000BB81C0F02F81D62B08BF002600F00D8145
:1023900000F0DDBDF12B00F0D1810CD8EF2B2FD058
:1023A000F02B40F0D485424D2046E98D0AF09CFC8C
:1023B0002046A98DA6E2FA2B00F00584FE2B00F042
:1023C0000C84F22B40F0C385384B03F17001DFE140
:1023D00000265AE000252AE30025F4E200262846DC
:1023E00006F083FE344B98530236102EF7D1334B50
:1023F00000221A80324B186803F048FF00F0ABBD92
:10240000284606F072FE2A4EF085284606F06DFE3C
:10241000B08500F0A0BDAB68284613F8012B294E0B
:10242000AB60294BDA72AB6813F8012BAB60274B1A
:102430001A7006F04BFE3060284606F047FE7060CA
:10244000284606F052FE224B1880284606F04DFE24
:10245000204B1880204B1A7942F002021A7100F0CA
:102460007ABDAA68013312F8010B8B42AA6058703A
:10247000AA6812F8010BAA60D872AA6812F8010BB8
:10248000AA605875EDD100F066BD144B1B789E42D2
:1024900080F06185124B284616F8038006F025FE71
:1024A000034B013603EB8803D864EEE7A424002035
:1024B0002C2A00202B2A0020B00D0020D41A002046
:1024C000FC0C00202C1B0020E50C002070230020B9
:1024D000281B0020861C0020581900208D21002078
:1024E00074210020284606F000FE6FF4AF63C04E52
:1024F000C318C62B98BFA6F89801284606F0F5FD2C
:10250000A6F84001284606F0F0FDA6F8420128464C
:1025100006F0EBFDA6F84401284606F0E6FDDFF8DC
:10252000F882AB68A8F80A0113F8012B2846AB60C3
:1025300086F8AB21AB6813F8012BAB6086F8AC21B1
:10254000AB6813F8012BAB6086F8AD21AB6813F8CC
:10255000012BAB6086F87C21AB6813F8012BAB60D4
:1025600086F8A121AB680133AB6006F0BEFD0A23FB
:102570005843AB68A8F82A0013F8012BAB6086F823
:102580007D21AB6813F8012BAB6086F87F21AB6827
:1025900013F8012BAB6086F87E21AB6813F8012B92
:1025A000AB6086F8802100F0D6BC284606F09DFD81
:1025B000904B98530236102EF7D100F0CCBC8E4BC6
:1025C0005A78002A40F0C784AB68002013F8011B3A
:1025D000AB60874B022994BF83F8681583F86825A0
:1025E0000146F7E2284606F080FD844B188000F093
:1025F000B2BCE721204607F003F87D4B204659790D
:1026000006F0FEFF0421204606F0FAFF20467C4932
:1026100000F09ABC83420CD27A4A9E5C012202FAF4
:1026200006F62E4218BF9A4003F1010318BF11436A
:10263000F0E720460AF082FB6D4B204693F86815C0
:1026400000F058BC704B0025B3F898306F4EB3F5CE
:10265000806F0FD970594FF078510DF083FF0EF055
:102660006DF9043581B220460AF03EFB0C2DF1D104
:1026700000250AE070590EF061F9043581B2204658
:102680000AF032FB0C2DF5D1F2E7614B2046595B85
:1026900002350AF029FB062DF7D100255D4BE858DD
:1026A0000EF04CF9043581B220460AF01DFB0C2DCA
:1026B000F4D100F050BC584D05F15006B5F8B810F3
:1026C00020460AF011FBB5F8BA1020460AF00CFBC0
:1026D000B5F8BC1020460AF007FB95F8BE1020465E
:1026E00006F08EFF0A35B5F8B61020460AF0FCFA5F
:1026F000B542E3D100F02FBC474E06F15008284602
:1027000006F0F3FCA6F8B800284606F0EEFCA6F8A2
:10271000BA00284606F0E9FCA6F8BC00AB682846DB
:1027200013F8012B0A36AB6086F8B42006F0DDFC06
:10273000A6F8B6004645E2D100F00DBC2C4D05F1DF
:10274000700695F8D010204606F05AFF95F8D11083
:10275000204606F055FF95F8D210204606F050FFAF
:1027600095F8D310204606F04BFF95F8D41020467C
:1027700006F046FF95F8D510204606F041FF0735D4
:1027800095F8CF10204606F03BFFB542D9D1E2E3E1
:10279000AA68073312F8010BAA6083F8C900AA6877
:1027A00012F8010BAA6083F8CA00AA6812F8010B9C
:1027B000AA6083F8CB00AA6812F8010BAA6083F81C
:1027C000CC00AA6812F8010BAA6083F8CD00AA68B1
:1027D00012F8010BAA6083F8CE00AA6812F8010B68
:1027E000AA6083F8CF008B42D2D108F0C6FCB2E3D6
:1027F000A42400205E190020E50C0020081B002006
:102800000C0000C07421002018000020401C002093
:10281000761900207C1900202C2A0020AB6828465D
:1028200013F8012BA04EAB60A04B83F8A02106F05B
:102830005CFCA6F82001284606F057FCA6F8220109
:10284000284606F052FCA6F82401284606F04DFC66
:10285000A6F82601284606F048FCA6F82A012846D4
:1028600006F043FCA6F82C01284606F03EFCA6F82C
:102870002E01284606F039FCA6F83001284606F05D
:1028800025FCAB68284613F8012BAB6086F836218F
:1028900006F01CFC284606F019FC284606F016FC3B
:1028A000284606F013FC56E381492046102287E0B3
:1028B0000025804B2046595B02350AF015FA102D91
:1028C000F7D148E37C4B2046D97A06F099FE7B4B42
:1028D0007B4D1978204606F093FE296820460AF0C1
:1028E0002DFA696820460AF029FA764B20461988A5
:1028F0000AF0FAF9744B204619880AF0F5F9734B7F
:102900002046198E0AF0F0F925E3714B204619880C
:102910000AF0EAF96F4B204619880AF0E5F96B4B8B
:102920002046197901F00101E4E26B4B2046196859
:102930000AF004FA694B20461988E3E7684B204601
:10294000B3F900104FF6FF7581F30801C9B206F024
:1029500057FE644B20461968A942A8BF294621EAC0
:10296000E17189B20AF0C0F95F4B204619880AF07C
:10297000BBF94E4B93F87C215C4B19680029B8BF1A
:1029800049420AB10A235943A942A8BF2946204611
:1029900089B2B7E7564D05F10A0601356978204638
:1029A00006F02EFEE97A204606F02AFE2046697DD2
:1029B00006F026FEB542F0D1CDE24E492046302247
:1029C00003F064FAC7E24C4B1B789D4280F0C3824F
:1029D0004A4B2046EA5C344B013503EB8203B3F8E3
:1029E0004C100AF081F9EEE7434B1B789D4280F2D0
:1029F000B282424B3F4AEB5C0C2101FB03235E6B2E
:102A00000135304614F036FB314682B2204603F0E1
:102A10003DFAE9E70C33B3F5967F07D0384A1A44FC
:102A2000127A8A42F6D1204606F0EAFD0135324B91
:102A30001B789D4280F08F82304BE95C0023EDE7EC
:102A40000125E9B22046013506F0DAFD092DF8D15D
:102A500081E2AB6813F8011BAB6009B9294B02E0B6
:102A6000102903D1284B1E685D6801E000252E4621
:102A7000204606F0C5FD314620460AF05FF929469A
:102A800020460AF05BF9214B204619680AF056F9F6
:102A9000002120460AF028F9002120460AF024F9F6
:102AA0002046002126E200BF2C2A0020A42400207A
:102AB000122A0020B00D0020E50C00207023002019
:102AC0002C1B0020281B0020861C002058190020E9
:102AD000881C00208A1C0020F01A00204C1C0020BA
:102AE0001C1C0020301C0020D21A0020241C0020B6
:102AF0002B2A0020688101088D21002074210020EC
:102B000098810108101B00201C1B0020EC1A0020DB
:102B1000AB68284613F8018BAB6006F0D7FA824603
:102B2000284606F0D3FA8146284606F0CFFA064634
:102B3000284606F0DAFA284606F0D7FAAB680133E1
:102B4000AB60B8F1000F0FD1B24B0122C3F8049073
:102B5000C3F800A0B04B83F807801A73002E00F072
:102B6000FA81AE4B1E60F6E1B8F1100F40F0F38130
:102B7000AB4BC3F800A0C3F804900EB1A74B1E6086
:102B8000A748A84B0222011D1A700AF007F9E2E1DA
:102B9000A14B5B78002B40F0DE81012004F09AFA13
:102BA000D9E19D4B5B78002B40F0D5819E4B4FF4D3
:102BB000C8721A80CFE1984B5A78002A40F0CB8136
:102BC00001229A73C7E1944B5B78002B40F0BF81E0
:102BD0000020012104F066F9BDE1944B94499A89E3
:102BE000944B32B10A20B2FBF0F00988821A0A44F1
:102BF00000E00A885A86904A9048127900689A86BE
:102C00008F4A002511688F4AB1FBF2F1B0FBF2F256
:102C10004FF47A7000FB01221A878B4B2046595BD8
:102C200002350AF061F8082DF7D194E1874D20466E
:102C300029680AF083F8696820460AF07FF8204680
:102C4000A96881E17B4E204696F83A9000254946D6
:102C500006F0D6FCB0464D4517D27D4E2046715D3C
:102C600006F0CEFC06F12003595D204606F0C8FCB4
:102C700006F14003595D2046603606F0C1FC715DE7
:102C8000204606F0BDFC0135E5E7684B93F8AB3113
:102C9000012B40F060816F4A002392F8B850104633
:102CA00088F83A50AB4202F1010215DA684992F80D
:102CB000B86092F8C8E05E5401F1200603F806E01F
:102CC00092F8D8E001F1400603F806E092F8E860D7
:102CD00060315E540133E5E7D0F8FC300022C8F8DB
:102CE000BC30D0F800313021C8F8C0300120134684
:102CF00004F044FE2FE1584B20461E684D4D16F05F
:102D0000200609D000210AF019F8D5F8C010D5F82E
:102D1000BC302046C91A04E031460AF00FF82046BC
:102D200031460AF00BF8D5F8C41020460AF006F830
:102D30002046D5F8C81007E1AB683C4E13F8012BCC
:102D40002846AB6000237271B36006F0BFF9B36828
:102D5000DFF80C911843AB68B06013F8012B2846DC
:102D6000AB6086F8942106F0C0F9A6F85601284613
:102D700006F0BBF9A6F85801284606F0B6F9A6F801
:102D80005A01284606F0B1F9A6F87801284606F05F
:102D9000ACF9A6F87A01284606F0A7F9AB68A6F8C0
:102DA0004E0113F8012B2846AB6089F82320AB684D
:102DB00013F8012BAB6089F82420AB6813F8012BC2
:102DC000AB6086F88121AB6813F8012BAB6089F802
:102DD000492006F08AF9B2898046904213D01F4BF1
:102DE0002AB148B11868414603F062FC09E018B105
:102DF00018680321424602E018680121642203F0AA
:102E00006DFCA6F80C80AB6813F8012BAB6089F859
:102E10003020A0E0101B0020E50C0020EC1A002060
:102E20001C1B00200C1B00206A2B0020A424002067
:102E3000762B00205819002078240020F00900206B
:102E4000EC09002040420F008A190020E009002010
:102E50009319002000100020800B0020C4170020D0
:102E60002C2A0020504D2046697906F0C9FBA9683C
:102E7000204609F063FF95F89411204606F0C0FB48
:102E8000B5F85611204609F02FFFB5F85811204625
:102E900009F02AFFB5F85A11204609F025FFB5F8C8
:102EA00078112046414E09F01FFFB5F87A112046EF
:102EB00009F01AFFB5F84E11204609F015FF96F8F3
:102EC0002310204606F09CFB96F82410204606F0BE
:102ED00097FB95F88111204606F092FB96F8491071
:102EE000204606F08DFBA989204609F0FDFE96F8E4
:102EF0003010204606F084FB2DE000252A4B2046AA
:102F00002B4493F88211013506F07AFB082DF5D198
:102F100021E0AA6812F8011BAA60234A1A4401336F
:102F2000082B82F88211F4D115E00025204B2046B1
:102F3000595D013506F064FB0B2DF7D100212046C9
:102F400009F0FCFE2046002109F0F8FE03E02046CF
:102F5000294606F07BFBA28FA38D033292FBF3F18F
:102F600003FB1123616BB4F84A203846CA5494F825
:102F7000481094F84A30594084F8481001F053FC46
:102F8000A38D28B1A3876368D86903F07FF907E0B0
:102F9000A28FA387074B22871A780AB904221A70D6
:102FA00002B0BDE8F08700BFA42400202C2A002036
:102FB00032930108682B00202DE9F04FAE4E85B00A
:102FC000B368AE4F13F0080803D1AD4C4546A14697
:102FD00031E0002439E0AB4BE8B21B689847A0F21F
:102FE000EE2240F2DC5392B29A4288BFA24BD9F84B
:102FF000902088BFB3F89801A34B1340002B03DA4D
:10300000013B63F0030301339D4A03EB850322F880
:1030100013002288638801351344A28808341344BE
:1030200034F8022C13441BB2042293FBF2F327F86A
:10303000083008F1020896F8AA319D42CBDBD9F896
:1030400090300133C9F890300BE096F8AA319C42D9
:1030500007DA8C4BE0B21B68984727F8140001345C
:10306000F3E7B368864C13F4804F04D094F894309F
:103070000BB902F0EDFE96F8A1217F4BE2B10332CD
:1030800037F91200B3F8A251B0F57A7003D4A84210
:10309000A8BF284600E000200DF010FA8046284620
:1030A0000DF008FA014640460DF010FB77490DF08F
:1030B00059FA0DF043FC14E093F8A40190B1744A5E
:1030C000D179744A32F81120B3F8A81192B2521A89
:1030D0009002B3F8A631801A90FBF3F000B280F3AF
:1030E0000A0080B2B368A4F8AE0013F4024F63D0B4
:1030F000634B694DB3F8B09095F8083105225343FE
:103100000FFA89F898453ADD644B5A789B46002AB5
:1031100035D0594BB3F898313B807B80BB80B5F8F4
:103120000A31FB805E4B1A789A46032A05D95D481E
:1031300004F04CFD03238AF8003095F8082195F837
:103140000931134405225343984513DD9BF812B00F
:10315000BBF1000F0ED102F07BFE504B83F800B0A4
:103160009AF80030042B05D94F4804F02FFD4C4B42
:1031700004221A70B4F8B2300133A4F8B23095F8D2
:10318000083105225343984512DD444D95F80180DE
:10319000B8F1000F0CD102F05BFE85F80080404DC5
:1031A0002B78042B04D9404804F010FD04232B7025
:1031B00009F10109A4F8B0900022B6F89A11B6F806
:1031C0009C511346B85E9B088842C4BF63F07F03DE
:1031D000DBB20232A842B8BF43F04003082AF1D163
:1031E00094F8B400264A984205D192F8B500F9281F
:1031F00004D8013000E0002082F8B50084F8B43033
:10320000B3681D4A13F48048234DB7F906300AD03D
:10321000B2F89811B2F84C21881A834206DD0A44AC
:10322000934206DB02E08B4203DB17E04FF000081D
:1032300014E00023C4F8C431C4F8C831C4F8CC3158
:10324000C4F8C030C4F8C430EB6C2BB10C4B93F80D
:103250009430002B40F07C834FF00108EB6C43B3BB
:1032600094F894302BBB0D4B5B7813B396F89F31D9
:10327000E3B102F0EDFD1CE0A4240020B00D00201D
:10328000241A0020D40D00200300008000C07F44D9
:10329000440B00204C0B00202C2A0020E50C0020C1
:1032A0005C010020D0820108E3820108B8F1000F20
:1032B000DFD194F8B5208C4B142A40F0A6808B4ABD
:1032C00050789146C0B1EA6C2AB993F8B4305F2BBC
:1032D00001D102F0BDFD96F89E31002B00F09580E3
:1032E000EB6C002B40F0918094F8B4307D2B40F0D3
:1032F0008C8002F0ADFD88E093F8B420572A15D1F8
:103300007B4B4FF47A721A80B368DB0501D508F065
:1033100049FA784B1B68580702D5774A0A21118071
:1033200013F0080334D1A4F8B63031E0B16849078E
:1033300025D55A2A23D193F8B8202AB1012283F83F
:10334000B80083F8B92023E093F8BA20DFF8C0A1D1
:1033500082F0010283F8BA209AF8003032B10A2BC9
:1033600016D9664804F032FC0A2305E00B2B0FD96E
:10337000634804F02BFC0B238AF8003008E05D2A38
:1033800000F0EE825B2A00F0ED825E2A00F0EC8213
:10339000EB6C33B994F8B4206F2A02D10CF02AFAFE
:1033A00015E096F89E2122B11BB994F8B4307E2B1B
:1033B000F4D094F8B430972B04D1524B4FF4C87228
:1033C0001A8004E0A72B04BF012389F80E3094F87B
:1033D000B430BB2B02D1EB8D023303E0B72B03D10A
:1033E000EB8D023BEB8509E0BE2B02D1AB8D0233A6
:1033F00003E0BD2B09D1AB8D023BAB85012001461B
:1034000003F050FD002384F8B530B068420731D591
:1034100094F8BA20344B8AB1344A527872B13A4A9D
:10342000B7F90610B2F89A21914207DD93F894207B
:1034300022B93221A3F8BC1083F8BA2094F8A52051
:10344000294B62B193F8BE202AB993F8B82012B97B
:103450003222A3F8BC20012384F8BE300AE093F89E
:10346000B8203AB1214A527822B983F8B820012213
:1034700083F8B920254B002193F8149001220B46C4
:103480004B4547DA07EB43052D8940F2A46A0FFA52
:1034900085FCD44502F1010BD4BF4FF0000A4FF078
:1034A000010A0AFA0BFA40F2135BDC454FF0030BFA
:1034B0000BFB03FBA5F21555ADB2CCBF4FF0000CD2
:1034C0004FF0010CB5F5C77F0CFA0BFC8CBF002543
:1034D000012595404AEA0C0C4CEA050C41EA0C0126
:1034E00001330332CCE700BF241A0020E50C002092
:1034F000BE170020800B0020C0170020E6820108C4
:10350000EB8201086A2B0020A42400209C0B0020E1
:103510005C01002000239D4D9D4A05EB8309D9F8ED
:103520004C9002F1940C11EA090F0CBF4FF0000906
:103530004FF0010903F80C900133192BA946EAD189
:1035400092F8AC30934D2B7523B1012382F89F3054
:1035500082F8963094F895308F4A53B98C4B4FF0DF
:10356000050CB3F9B01099F808310CFB03F399423C
:103570001DDD11688B071AD5EB7843B9C4F8C0304C
:10358000C4F8C430834B4FF0010C83F803C000042F
:1035900010D599F808314FF0050C0CFB03F3B4F982
:1035A000B000984206DD890604D5012301E000231E
:1035B000EB70AB7494F8963075495BB10023EB70F7
:1035C0002B7943B9C1F8C030C1F8C430714B012127
:1035D000197100E02B7194F894300BB901232B7012
:1035E00095F803C06D4BBCF1000F02D16949097910
:1035F00011B11021596101E01021196111684B07C7
:1036000025D594F89720624B9AB1A87990B9614A70
:103610004FF0010A82F806A0D3F8CC20C3F8DC00F2
:10362000C3F8C820B3F8D820C3F8E000A3F8D0202E
:1036300000E0AA71B368980409D594F898302BB1CA
:10364000EB7B23B9534B0122DA7300E0EB7311F0EB
:103650000A0F20D094F899304D4A4BB16B7943B999
:103660004C4B01205871B2F8B630A2F8E43000E0BB
:103670006B7194F89A302BB16B7A23B9454B0122C8
:103680005A7200E06B7294F89B20414B1AB1B3F868
:10369000B620A3F8E620890640F1F280EA7A3D4B95
:1036A000002A00F0E8803E4A1278042A40F2E380C3
:1036B00094F9E82032B11A7922B9BCF1000F01D196
:1036C0000122DA7094F89E20314BDFF8DCA01AB9A1
:1036D000AA7CDFF8C0B0CAB1EB79DFF8B8B0002B34
:1036E00040F0B7802F480122011D8BF808308AF87E
:1036F00001308BF80720019209F050FB022384F877
:10370000E830B4F80431C4F800313BE08BF807200E
:1037100093F89F20002A49D0B3F9D210B9F81C21A0
:103720000029B8BF4942914240DAB3F9D4100029C8
:10373000B8BF4942914239DA9BF80820002A40F08C
:103740008880D3F808114FF0010CC3F8F810D3F8B3
:103750000C1103F1F800C3F8FC1003F1FC018BF825
:1037600008C08AF801200393CDF808C0019209F03F
:1037700015FB039BDDF808C0B3F8041183F8E8C01B
:10378000C3F80011019A8BF8132062E02C2A002064
:10379000241A0020E50C0020800B0020000C0140C2
:1037A00070230020101B00205C0100209AF80110FB
:1037B00000232B7200294CD1764B01225A708C4683
:1037C000754B002203F588702CF8002003F58B70F0
:1037D0002CF8002003F58D702CF8002003F5907B69
:1037E000002041F80B008B44CBF80420CBF80800F4
:1037F00003F5A47B41F80B008B44CBF80420CBF8F5
:1038000008000CF1020C03F5B87B41F80B00BCF189
:10381000040F8B44CBF80420CBF8080001F114010D
:10382000CED1297C11B90023EB7412E0C3F89801C2
:10383000C3F89C01A3F8A021A3F8A221A3F8A42116
:103840005649002353520C31535202320A2AF7D1FF
:10385000E9E79AF800300C2B12D994F8BE317BB905
:103860004F4804F0B3F94B4B0C221A704A4B01221B
:1038700083F8BE2104E00023EB712B7284F8E8305A
:1038800094F8A0302BB1AB7C1BB9464B01229A7245
:1038900001E00023AB72297C424B31B3B2680020B7
:1038A0009205587221D599F808214FF0060909FBB5
:1038B00002F2B4F9B0C0944517DD0122DA703A4A39
:1038C0009872B2F8980182B23A807A80BA80374A08
:1038D000B2F80A21FA80DA7A3AB9354F3F78052FE3
:1038E00003D89A74334B32381880B2682E4BD20604
:1038F0004BD56A78002A48D0002946D1B8F1000F8C
:103900001FD02D49D4F8C02109684AB993F87631FF
:103910004FF47A7202FB03121F4BC3F8C02106E07A
:103920008A4204D293F876310BB102F091FA194C25
:103930002378092B29D9214804F048F90923237059
:1039400023E0D4F8C03103B3134BC3F8C0811CE0AB
:10395000144B1B78002B3FF47FAC0BF04BFF7BE448
:10396000012202E0022200E003225FFA82FA002034
:103970000AF1FF33014686F8683503F093FA022016
:103980002821524601F010FD02E5002005B0BDE8F7
:10399000F08F00BF5C010020241A0020CA1B002009
:1039A000F2820108E50C0020A42400202C2A00202B
:1039B00070230020B00D002064240020E382010861
:1039C0002DE9F04F7A4C87B0A3689D0740F19580B0
:1039D000784D794B06221F882B681F442B792F6066
:1039E0000133DBB2B3FBF2F62B7102FB163313F09B
:1039F000FF0667D1DFF80C92D5F808A099F80130DE
:103A0000DFF8048250464FF0785138F813B00CF0CC
:103A1000A9FD014650460CF09BFC1FFA8BFB824629
:103A200058460CF04BFD65490CF09CFD64490CF0C8
:103A30004DFE834694F87D010CF040FD014658464A
:103A40000CF090FD014650460CF084FC4FF078518C
:103A5000A8600CF087FD0CF071FF94F88131A8810B
:103A600083B399F80530B4F8781138F8132040F68C
:103A7000E44392B25A4340F6FF73B2FBF3F2B4F858
:103A80007A312869D21A4FF47A735A43B2FBF1F2B1
:103A9000082190FBF1FECEEB000002442A6192FB6C
:103AA000F1F25743D5E9060197FBF3F3C01841EB58
:103AB000E3716A61C5E90601424A00230CF05EFF2A
:103AC0002E602862404AAB8912889A4208D33F4D43
:103AD0002B78012B11D93E4804F078F801230BE034
:103AE0003C4A12889A4208D3384D2B78022B04D9CD
:103AF000394804F06BF802232B70384E737B5BB3AC
:103B0000324D2B78082B27D9A368D8051FD5344B05
:103B1000DB7AE3B1334B1878042818D900233249F3
:103B200005275A185F540F275770122B03F102070D
:103B3000FAB204D0B0EB520F3B46F0D800E01422AA
:103B40000A4464235370F0239370274800E0274809
:103B500004F03CF808232B70254B1A881AB1254B2A
:103B60001B68990707D4244B1B8823B9234B1B7868
:103B70000BB106F0B3F8224B1A7832B10D4C94F821
:103B80002430002B00F01383C1E2A268084B120519
:103B9000F4D51A4A1278002AF0D093F8BB21002AF3
:103BA0003AD193F8BC318BBB0D4B5B782FE000BF53
:103BB000A4240020101C0020762B00203333534017
:103BC00000F07F45407E0500560B00205C01002080
:103BD0000D830108540B002010830108B81A00203F
:103BE000E50C002070230020F41B00200183010855
:103BF0006A2B0020800B0020BE170020BC1700207D
:103C0000742B0020440B00204C0B0020337D00332C
:103C100018BF0123002BB1D094F8BA31002B40F02B
:103C20006781C24BD86800F025FD002840F0608114
:103C3000BF4AC04D1368A96A591A7C2940F25881BD
:103C4000AB6295F82C300746013385F82C3007F12C
:103C50002400C0B203F066FFB74BB64EB3F898002D
:103C60000CF02CFC06F13008014658F827000CF047
:103C70002DFDB2490CF076FC0CF03AFE013700B293
:103C800003F07CFF032FE2D1302003F04BFFB6F9A5
:103C90003C0003F073FF03F053FF96F82C0010F084
:103CA000030828D1102003F03DFF336C642793FBF9
:103CB000F7F000B203F062FF212003F033FF336C12
:103CC00093FBF7F007FB103787EAE770A0EBE7708C
:103CD00000B203F053FF142003F024FF984BB3F914
:103CE000000003F04BFF1C2003F01CFF404603F0D4
:103CF00045FF03F025FF95F82C308E4E5B0740F012
:103D0000D180022003F00EFF8E49706C0CF0DEFCB7
:103D10000CF0EEFD00B203F031FFA3689F075ED503
:103D2000B3896E275F43152397FBF3F7BFB24FF0BC
:103D3000640B3A2003F0F6FEB7FBFBF80FFA88F0AD
:103D400003F01CFF3B2003F0EDFE0BFB187080B26C
:103D50004FF00A0805307C4F90FBF8F000B203F0FA
:103D60000DFF3B78B28940F6340192FBF3F24A43EF
:103D70002A21B2FBF1F2B6F84810062091FBF3FBC2
:103D800003FB1B1B4FEA0B1B1FFA8BFB4BEA022B9F
:103D90001FFA8BFBC2F303224BEA020B03F0C2FEB5
:103DA0000FFA8BF003F0EAFEB6F848203B780132B8
:103DB00092B292FBF3F103FB11232820A6F84830BE
:103DC00003F0B0FE706990FBF8F000B203F0D6FE8D
:103DD000042003F0A7FEB6F9200003F0CFFE5B4BF2
:103DE0001B6898065CD55A4FDFF86C813B68594ECA
:103DF000002BB8BF5B4293FBF8F106FB01334FF099
:103E00003C0909FB03FA1320039103F08BFE03998D
:103E100064229AFBF8FB02FB01B000B2039203F0AC
:103E2000ADFE1B2003F07EFE06FB0BA34FF47A7B56
:103E300093FBFBF000B203F0A1FE232003F072FE1F
:103E400038680028ACBF4E20532003F097FE7B68F3
:103E50001220002BB8BF5B4293FBF8FA06FB0A3333
:103E600009FB03F903F05EFE039A99FBF8F802FBE5
:103E70000A8006FB089800B203F080FE1A2003F0C7
:103E800051FE98FBFBF000B203F078FE222003F015
:103E900049FE78680028ACBF4520572003F06EFE2D
:103EA00003F04EFE95F82C30282B21D1214B002217
:103EB00083F82C201E4A4FF47A7317683C25B7FB11
:103EC000F3F7172003F02EFEB7FBF5F6B6FBF5F07F
:103ED00005FB1060000200B203F050FE182003F052
:103EE00021FE05FB167000B203F048FE03F028FE29
:103EF00094F8BA31012B7FF441AE0C4CE06800F02D
:103F0000B9FB00283FF43AAEE468636B23B19B68C9
:103F100020469847054637E0A368201DF3B10DF110
:103F200017019847003018BF01202CE09C0B00209F
:103F300064240020101C00201800002000007A4497
:103F4000DA1A00200000204116000020800B00201B
:103F50002C1B0020806967FF80969800E2697AB187
:103F600001210DF1170003F013FE0546E06900F092
:103F70008CFB638D834205D8206A02F087F901E04B
:103F8000104600E02846C5B2052000F02BFE8A2D21
:103F900031D08E2DB1D1B04C00212E2204F17C0005
:103FA00012F0E4FE7C2384F87C30E02384F87F3038
:103FB0007D2384F8A830A38984F87D50DAB21B0AE7
:103FC00084F89B3084F89130142384F8943084F87A
:103FD00095304FF4FA73A4F896304823A4F89E3035
:103FE000782384F89A2084F8902084F8A03004F193
:103FF0007C002E2188E0994B1B6899067FF57DAFE8
:10400000954C002104F14A002C2212F0AFFE7C23D3
:1040100084F84A30A02384F84D307D2384F875302D
:104020008F4B84F84B501B7884F864308D4BDB7ACF
:10403000002B64D08C498D480A688D4E92FBF0FCB1
:104040005FFA8CFC06FB0C2706256F43662384F879
:104050007330D30F84F8533042F21073B7FBF3FE82
:1040600003FB1E77496884F8567091FBF0F03F0A15
:10407000C0B284F85770CF0F06FB00116943B1FB43
:10408000F3F503FB151384F85B301B0A84F85C30EE
:10409000B4F8763064225FFA8EFEE9B202FB0CEED1
:1040A00002FB0011B3FBF2F224235A43B4F8783038
:1040B0001FFA8EFE84F85D301B0A84F85E306D4B6B
:1040C00089B21B8892B284F85F301B0A84F8603092
:1040D000B4F87A3084F854E084F859104FEA1E2E70
:1040E000090A84F85120120A84F855E084F85870BF
:1040F00084F85A1084F8522084F8663002E02023B5
:1041000084F873305C482C2104F030FAF5E6D4F8DA
:10411000B420002384F8243013629362D362C4F87D
:10412000B430564B1E68564B1D78002D3FD10127E9
:104130002946642204F5B2701F7012F017FE84F84D
:1041400064710720009529464E4A04F5B27302F0C7
:104150004DF804F5B277C4F88C0108B14A4B0360FE
:10416000802003F0A3FC3C4DC4F88801F8B1331D56
:10417000C5F88431454B7762F362454B01203363C8
:10418000202112F0F1FAC5F8940118B9414B03222D
:104190001A700CE0202385F893313F4B3F48C5F857
:1041A000BC313F4B0021C5F8C03103F01FFD94F82E
:1041B000C83123B10BF0F0F83A4A3B4BDA603B4888
:1041C000D0F880300BB13A4998473A4A234D1388CA
:1041D00013B12B689A0702D4374B1B8813B100F038
:1041E000DCFD0AE01F4B9A7812B1344A08211161B4
:1041F0005B7813B1314B08225A6194F8C93123B16D
:10420000154A013B82F8C9310BE0164B5A7B1AB9AB
:104210009A7000F0C2FD01E001229A70092384F82F
:10422000C9312B689B0613D594F8CA3123B10A4AC9
:10423000013B82F8CA310BE0094B1B78042B04D9EF
:104240001E4BDA6882F01002DA60022384F8CA3169
:10425000002007B0BDE8F08F101C0020800B00206C
:1042600070230020E50C00202C1B0020A0860100FC
:104270006079FEFF281B00205A1C00209C0B0020A8
:10428000742B0020F39E00080D94010801640008BF
:1042900089DA0008682B00201883010816940108A9
:1042A000119401080400FA0500ED00E01800002058
:1042B000541C00206A2B0020BE170020000C014077
:1042C000838F4BB1054A1168026C8A1A9A424FF0EB
:1042D000000328BF83871846704700BF642400206E
:1042E000044B026C1B6841899A1A8A422CBF0364F2
:1042F0000020704764240020084B10B51B6804465A
:104300009847236C6289C31A934204D30244D31A98
:104310002364204610BD002010BD00BFF40900201A
:10432000C28A838A934224BF01895218D31A9BB24E
:10433000581E80B2704710B5C468A36A43B1616863
:1043400009B1206A03E0A26912B1206A0E499847B8
:10435000E36ABBB1A16811B1206A984712E06269B3
:1043600082B1206A0949984760B194F824304BB96A
:10437000012384F82430E36823B12046984708B924
:1043800084F82400002010BD99C70008F9470008F0
:1043900070B5174C174D002B0CBF2B46234672B13E
:1043A000013A9400002221FA04F606F00F060132C9
:1043B0009E5D8518043C05F8016CF4D515E089B1C3
:1043C00001251C2421FA04F606F00F0605B126B1DA
:1043D0009D5D85540132002500E00125043C261D29
:1043E000F0D102E0302303700122104670BD00BFFF
:1043F000749601088596010830B562B1531E0138E4
:1044000021FA03F404F00104303413F1FF3300F80F
:10441000014FF5D215E089B101241F2321FA03F5DC
:1044200005F0010504B125B1303585540024013271
:1044300000E0012413F1FF33F0D202E030230370D7
:104440000122104630BD074B9B788342064B02D8B1
:10445000B3F898017047184490F88221034B33F861
:1044600022007047F80D0020A4240020D80D002061
:10447000034B184490F88221024B33F82200704716
:10448000A424002054210020034B184490F88221DA
:10449000024B33F822007047A4240020580E00205D
:1044A000034B184490F88221024B33F812007047F6
:1044B000A42400202C0F002010B5094A09491368D4
:1044C0008C6812689342F8D1074A106811684FF45B
:1044D0007A725043001BB0FBF1F002FB030010BDE9
:1044E0006024002010E000E0000B0020034B4FF49C
:1044F000805208B11A6170475A6170470008014044
:1045000008B502F10062084602F5F8311A460BF0D0
:10451000BBF9012008BD2DE9F84F044616460D46AB
:1045200091B9334A0B4610689446012707FA03F203
:1045300012EA00012FD03B44202BF6D12D4B042250
:104540001A700020BDE8F88F4FF0FF33092D1DD8F9
:10455000DFE805F005080C120C12181A1A0CA363F8
:10456000254B07E0254B642623630FE0244B1B6893
:104570002364244B236309E0234B1B689847234B98
:104580002064F7E7224B1C600026266325726681B3
:104590000120BDE8F88F1043CCF800001D484FEA19
:1045A000461990FBF9FCBCF1640F1FD91A4F4FF06C
:1045B000640BD7F800800BFB08F099FBFBFB594517
:1045C0000FDA4FF0640AB0FBFAFADFF850900AF005
:1045D0001F0A59F82A706044174349F82A700131BC
:1045E000EDE70D4908F101020A60AFE73D46ADE78E
:1045F000140A0020682B0020FD600008C14200085A
:1046000064240020E1420008F4090020F942000877
:10461000D417002000E20400E01D0020180A00204A
:10462000012303FA00F0074BC04303F180015A68ED
:10463000024043F8042F8B42F9D1034B1A68104013
:1046400018607047140A0020140A002010B503797E
:104650000446DB0703D4006908B112F0CDF800234B
:10466000236110BD038B02899A4288BF8382838AAB
:1046700003837047426B08B512B15368984708BD71
:10468000C069FFF74DFEC0B208BD828AC38A9A4254
:104690003CBF00891218D31A98B2704738B50D463E
:1046A0000446FFF7F2FF854202D3A38AE38238BDB6
:1046B000E38A1D44238995FBF3F203FB1255E5823F
:1046C00038BD70B503790446C3F34103012B0D4691
:1046D00006D0022B33D1FFF7D8FF628B134618E0C8
:1046E000C38A808A0022834229D02169CE5CA17EC0
:1046F0008E4201D1AA421FD8218901339BB28B423D
:1047000028BFC1EB030302F1010228BF9BB292B2A2
:10471000E9E79D4202D913449BB2FAE7834208D2EB
:10472000E28A134422899BB29342E38205D39B1A07
:1047300002E0854203D8A38AE382012070BD0020F5
:1047400070BDF8B50E460446FFF7EAFD0746304651
:1047500012F090FC85B2BD4201D800230AE0E91BAB
:10476000204689B2FFF7ADFF0028F6D10B4B04229B
:104770001A70F8BD9AB2AA420ED2F05CA18A2269E0
:1047800001335054A28A2189013292B29142A2820D
:104790009CBF0022A282EDE70120F8BD682B00201B
:1047A00070B5154604460E46FFF7BAFD854201D89E
:1047B00000230AE0291A89B22046FFF782FF002869
:1047C000F6D10C4B04221A7070BD9AB2AA420ED2D6
:1047D000F05CA18A226901335054A28A21890132F6
:1047E00092B29142A2829CBF0022A282EDE70120F8
:1047F00070BD00BF682B002070B545690E46284685
:104800001446FFF78DFD08B9002070BDA04238BFE7
:104810000446A4B2284631462246FFF7C1FF0028CD
:10482000F2D0204670BD70B5858A03890135ADB2DE
:10483000AB4298BF0025C38A0446AB420E4607D15F
:104840000121FFF73EFF18B9044B04221A7070BD16
:10485000A28A236901209E54A58270BD682B002086
:104860000346406910B588B102685A611A6902604E
:1048700002B150609A6800F10804013218619A6030
:10488000204600211A6812F071FA204610BD10B5BA
:1048900011E90C00A1F108040BB11A6000E00261FB
:1048A00051F8082C02B15360436941F8083C0023D9
:1048B00041F8043C83684461013B836010BD09B149
:1048C0001030E4E77047002330B5054618469AB229
:1048D0008A4217D2EA5C80EA0220082210F4004FD4
:1048E0004FEA400418BF84F4815002F1FF3218BF30
:1048F00080F0010092B214BF80B2A0B2002AEDD1C4
:104900000133E4E730BDF0B585B001AF0D46064692
:104910001446384600210B2212F028FA65B3002213
:10492000531C092D99B209D90A20B5FBF0F100FBFF
:1049300011503030B8540D461A46F1E704A802442D
:10494000303502F80C5C14B1A14203D30024264494
:104950001A4609E0641AA4B2002291B28C42F6D041
:104960003021B1540132F8E7013AB95C06F8011B75
:10497000002AF9D118190AE02846013033183022EC
:1049800003F8012C1CB1013CA4B2002CF5D105B0F8
:10499000F0BD2DE9F74F07460E469046002498F8E3
:1049A0000030002B00F0F980252B40F0F18000232F
:1049B0001D4618F8012F642A3AD017D8392A06D88C
:1049C000302A25D2252A40F0E5803A55E1E0622AD6
:1049D00025D000F2D980582A40F0DC80326838199E
:1049E000131D3360116801232A4650E06C2A01D15F
:1049F0000123DEE704D8662A4CD0692A18D0C9E022
:104A0000752A2DD0782A35D0732A40F0C3809EE0D5
:104A10000A214D43303AADB21544ADB2C9E7326810
:104A20003819131D116833602A46FFF7E5FC1FE0B3
:104A300032681168131D0029336008DA2D2304F150
:104A400001093B5549421DB1013DADB200E0A1460F
:104A500007EB09002A46FFF756FF09EB000499E02F
:104A600032683819131D116833602A46FFF74BFF6F
:104A700004448FE0326838192BB1131D336011687C
:104A800000232A4603E0111D316011682A46FFF712
:104A90007FFCEDE7336807EB0409073323F00703D6
:104AA00003F10802D3F804A032601A68514601925B
:104AB0001046002300220BF087FB30B12D233B551D
:104AC0000AF1004A4FF0010B00E08346514601987D
:104AD0000BF0CAFB0346194609EB0B0000220093BA
:104AE000FFF711FF584480B22E2209F80020009BE6
:104AF00000F1010B18460BF07FF802460B460198B7
:104B000051460AF03BFF1FFA8BFB002D08BF06251C
:104B100002460B464FF0000A104619460022214B70
:104B20000BF0E0F80AF1010A1FFA8AFAAA450246D8
:104B30000B46F1D10BF098FBD9440146524648464A
:104B4000FFF7E1FE58441FFA80FB5C4422E0336823
:104B50001A1D3260D3F80090B9F1000F1AD0484600
:104B600012F088FA03197E2B054607EB040003D8E0
:104B7000494612F021FA05E0C4F17F0549462A466C
:104B800012F0D2FA2C4405E033681A1D1B6832601B
:104B90003B55013408F1010801E73B5503B0BDE87E
:104BA000F08F00BF000024400EB403B503AB53F8F0
:104BB000042B02A941F8043DFFF7EBFE02B05DF8BB
:104BC00004EB03B0704770B5054C05462368984761
:104BD000064623689847801B80B2A842F9D370BD6F
:104BE000F4090020034B19681A68521A92B28242E3
:104BF000FAD3704764240020013A2DE9F8430546B2
:104C00000C46072A58D8DFE802F0040C141E2C3595
:104C10003D45B0F900000BF051FC2060B5F90200F1
:104C200019E0B0F902000BF049FC2060B5F9000072
:104C300007E0B0F9000040420BF040FC2060B5F9FD
:104C40000200404207E0B0F9020040420BF036FC9F
:104C50002060B5F900000BF031FC6060B5F904008C
:104C600027E0B0F9000040420BF028FC2060B5F9C5
:104C7000020018E0B0F902000BF020FC2060B5F94A
:104C8000000010E0B0F900000BF018FC2060B5F94E
:104C9000020007E0B0F9020040420BF00FFC206078
:104CA000B5F9000040420BF009FC6060B5F9040062
:104CB00040420BF003FCA0602D4B1B78002B55D11C
:104CC0002C4DD4F80080296840460BF04BFC6768F7
:104CD0008146E96838460BF045FC014648460BF032
:104CE00039FBA6688146A96930460BF03BFC0146BA
:104CF00048460BF02FFB0EF033FA0BF0DFFB206081
:104D0000696840460BF02EFC2969814638460BF055
:104D100029FC014648460BF01DFBE96981463046F7
:104D20000BF020FC014648460BF014FB0EF018FA7D
:104D30000BF0C4FB6060A96840460BF013FC696986
:104D4000804638460BF00EFC014640460BF002FB55
:104D5000296A074630460BF005FC014638460BF041
:104D6000F9FA0EF0FDF90BF0A9FBA060BDE8F8839D
:104D700017000020580B002008B5436B0BB15B698E
:104D8000984708BD426B08B512B1D368984702E056
:104D9000426804309047012008BD034BDA6882F076
:104DA0000802DA60704700BF000C014008B5024BF2
:104DB0001B68984708BD00BF6C2B002009B101207B
:104DC00000E00846F2E700BF024B08225A611A6170
:104DD000704700BF000C014013B5104A044610484C
:104DE0000A2142601E22027000228270032301AA5F
:104DF00008F0D2FF70B19DF80430482B0AD1094B5E
:104E00000120C4F89C30084BC4F8A030074BC4F80C
:104E1000A43000E0002002B010BD00BF140B002041
:104E2000E41D00209696010801D30008ED6D0008EE
:104E300030B585B005460C464068062101AA08F049
:104E4000A9FF08B39DF8040010F001001CD06868A9
:104E5000002102AA062308F09FFFA8B19DF80920AF
:104E60009DF80830012003EB022323809DF80B20DE
:104E70009DF80A3003EB0223A3809DF80D209DF8D6
:104E80000C3003EB0223638005B030BD2DE9FF41F8
:104E9000354C0646257A2746002D60D11420FFF7B1
:104EA000A1FE324B4FF076082046D02103AA636062
:104EB00084F80080A57008F06DFF18B19DF80C30E3
:104EC000582B01D000204BE02946402204F10C0071
:104ED00011F04CFF404609F03BF920610028F1D069
:104EE000234A1388591C1180A381882104F11C02D4
:104EF000182308F051FF08B32069F42103AA08F031
:104F000049FFD8B10125042000951921194A04F15F
:104F10000C0320756575D6F8B87001F067F9A061CB
:104F20000028CFD0144A1921026025722187A76476
:104F300084F83A504571C6F8B02010E0B86920B145
:104F400001F031F9084B00229A6139690029B9D082
:104F50004868FFF7B4FC044B00221A61B2E7012055
:104F600004B0BDE8F08100BFE41D0020140B002058
:104F70000400002085E100089F960108F0B5474B2A
:104F800085B01B6806460F460BB9092222E0444C47
:104F90000021202204F14C00002511F0E7FE0095CD
:104FA000022032213F4A04F14C0301F01FF9A065B1
:104FB00000286FD03C4A02603C4A1388591CA4F870
:104FC00054303B4B1180E3653A4BE3643A4B236525
:104FD0001EB90122394B1A705CE0314601F068FBC2
:104FE000A36D01261D710723022584F8793034480A
:104FF000102303A98DF80E30E766A4F87060A4F8BA
:105000007250656784F87860ADF80C608DF80F50C9
:1050100006F07AF804232A4803A98DF80E30ADF87B
:105020000C5006F071F8274B30469A6822F0F002D7
:105030009A609A6842F010029A60C3F81454D3F848
:10504000002422F00202C3F80024D3F8042422F042
:105050000202C3F80424D3F800242A43C3F800242E
:10506000D3F8082422F00202C3F80824D3F80C2451
:1050700022F00202C3F80C24D3F808242A43C3F810
:105080000824D3F80C242A43C3F80C240E4B8022A6
:105090001A6000E0002005B0F0BD00BFF409002058
:1050A000E41D00203D8C0008A696010804000020A5
:1050B00031D46842E5B00008A9DB0008682B002065
:1050C000000C01400000014000E100E0F0B5934C0D
:1050D000934A23689D8AADB2E9B211F0010F36D030
:1050E000198821F400610904090C1980198889B212
:1050F00041F480611980002182F87A10894908788A
:105100008949B8B192F87B0018B988480078FF281F
:1051100010D1012082F87B0085480078022804D154
:10512000188880B240F400601880097841F00101CD
:10513000198216E1097801F0FE0119827B4B1B7878
:10514000FF2B00F00E81FF2382F87A3009E18F07F0
:1051500040D5BFF35F8F76490878012817D1714891
:105160000078A0B192F87B0088B1198821F48061A1
:105170000904090C1980BFF35F8F198B198889B254
:1051800041F400711980012182F87C101DE0188B18
:10519000BFF35F8F087802280CD16248007848B1CD
:1051A00092F87B0030B1198821F480610904090C60
:1051B0001980D0E00978032907D15A49097821B12B
:1051C00092F87B10002940F0C680998889B241F49A
:1051D0008061C5E04E0764D5012182F87C105149F9
:1051E000097800293ED092F87B1000293AD0504926
:1051F00092F87A0009784F4D022919881FD921F4B5
:1052000080610904090C19801F8A2E68C1B2FFB29F
:1052100040B23754188880B240F4007018808B1C5C
:1052200082F87A30236828681D8A013149B2EDB2CC
:105230004554998889B241F4806199802CE089B203
:1052400041F4007119801E8A2D68C1B2F6B240B2D5
:105250002E541B8A481C40B2DBB203312B5482F817
:105260007A1019E092F87B1011B93349097851B1DD
:10527000198889B241F40071198092F87A300133AB
:1052800082F87A3008E0198889B241F48071198077
:10529000234B012183F87B1021680B88D805FCD4AF
:1052A0005FE001F0400101F0FF06214809B3214908
:1052B000B3F810C00F6892F87A105FFA8CFCCDB288
:1052C0006E1C49B2F6B207F801C082F87A6007781E
:1052D00076B2F11C8F4205D1998821F480610904CE
:1052E000090C99800378B3423BD1023582F87A5099
:1052F00037E0290635D592F87A104DB26F1C1FD0D1
:105300000E4E01313668C9B2755D82F87A10EDB281
:105310001D82007849B2884223D11CE0A8210020D8
:10532000E41D00209A2100209721002098210020D0
:10533000A42100209C21002099210020A0210020F0
:10534000144982F87A600978C9B219821249097839
:1053500009B9017829B9998821F480610904090CF7
:1053600099800E4B92F97A1018780D4B421C91429D
:105370000FD1002283F87B2093F87C3033B1226870
:10538000938823F440731B041B0C9380054B00226D
:105390001A70F0BD982100209A210020A42100203D
:1053A000E41D0020A52100202DE9F04106460F460E
:1053B00090460025454516D00024B4420DD0FFF795
:1053C000ECFC0120FFF7F2FC3846FFF70BFC013440
:1053D0000020FFF7EBFCE4B2EFE73C200135FFF7DC
:1053E00001FCEDB2E6E7BDE8F08110B5174C94F88A
:1053F0007D3094F8602083F00103012A84F87D3029
:1054000002D0022A09D01CE0DBB1114B1B6898477F
:105410000223606684F8603013E093B90C4B1B687C
:105420009847636EC01A0BF045F8E16D0BF04EF92A
:105430000BF05EFA0323A066A06D84F8603000F0E4
:1054400025FF626F034B5A6110BD00BFE41D0020B1
:10545000F40900200004014070B504682A4D037B64
:10546000AC420DD0B4F1804F0CD0A5F59435AC42D0
:105470000AD005F58065AC4214BF0424032404E07F
:10548000002402E0012400E0022433B1042B34D0D4
:10549000082B34D00C2B0ED133E01D46042C0AD03F
:1054A0001A4E05EB840406EB0414C4F8882084F833
:1054B000843084F88C10027B03680C2A23D8DFE840
:1054C00002F0072222220C2222221122222216007E
:1054D0009A8992B242F002020DE09A8992B242F0A9
:1054E000040208E09A8992B242F0080203E09A8925
:1054F00092B242F010029A8170BD0125CEE70225DA
:10550000CCE70325CAE770BD002C0140E41D002054
:1055100070B558220D460021044611F027FC0120E9
:10552000802111F021F904F12406E06018B9134B31
:1055300003221A7013E03046802102F08FFA70B116
:1055400002F010FA206250B10D4A046102621DB9E6
:105550000C4B1D886A1C1A802580012070BDE068F4
:1055600018B111F049F90023E3603046FFF76EF8F7
:10557000206A10B102234372002070BD682B002006
:10558000E95E0008040000202DE9F8432E4B054693
:105590009E689846A0B92D48294602F027FB2C4B5F
:1055A00053F825204AB10123AB40334203D00020F9
:1055B000284902F039FB0135F1E7274800211CE0BA
:1055C0000F682649384611F033FC014660B924487B
:1055D00002F00CFB234C54F8042F002AEDD00020DD
:1055E0001C4902F021FBF6E797F800900024184BC5
:1055F00053F8245025B91C48294602F0F7FA1FE059
:105600002946781C11F014FC0146B8B90123B9F100
:105610002D0F03FA04F405D126EA0406C8F8086041
:10562000124803E026431248C8F8086002F0DEFA88
:10563000002010492A4602F0F7FA01E00134D6E7CB
:105640000020BDE8F88300BFA4240020AE96010826
:105650009C840108D1A00108A5A20108B595010804
:10566000C196010898840108D6960108F0960108B1
:10567000FA960108979901082DE9F04F8E4B95B0E5
:105680001A688E4B20209A6005F054FF8C4B1A78D4
:10569000012A0CBF002201221A708A4BDA7A002AF2
:1056A00000F08083884A1278042A40F27B835A787B
:1056B00012B9197C01B91A731B7B13B90AB106F030
:1056C00071F8824A052392F800C014460CF1010CCF
:1056D0009CFBF3F103FB11CC7D4B82F800C01B78DF
:1056E000049302F1080303EB8C0C00237948DFF8E4
:1056F00008E219181E580591774996FBFEF501F14D
:105700000807DD51754F4FF0050907FB056709FBD9
:1057100003FB5E5042F2107697FBF6F601F1100A99
:1057200007951FFA86F85CF80B5053F80A604CF89E
:105730000B70761B06963E44079F43F80A6096FB63
:10574000F9F60EFB076518315D50049922F8028FB7
:105750000129074607D1A8F1020189B2B1F5797F85
:105760009CBF059E35600433082BBFD1524E574D68
:1057700030682B6DC01A0AF09DFE59490AF0A6FF49
:1057800033684FF07E512B6580460BF089F810B9D5
:105790004FF07E5000E0404610AA6865514B0092E1
:1057A00011AA019297E803000CCB05F09AFF109A1A
:1057B000642311984C4992FBF3F20A8090FBF3F3B7
:1057C0004A4A40481380037B80460BB90B80138004
:1057D00095F858303D4E002B37D0716D4FF07E500C
:1057E0000AF074FFF36D81463868C01A0AF066FE4D
:1057F00049460AF0B7FE0BF07BF8326E1FFA80FACA
:1058000078680FFA8AFA801A0AF058FE384B19683D
:105810000AF0A8FE49460AF0A5FE0BF069F8B6F9B1
:10582000663000B2C218B6F964300221534492FBCC
:10583000F1F293FBF1F392B29BB2A6F86A20A6F8BC
:105840006830A6F86620A6F86430012385F8583041
:105850007968386898F808302966E86523B9194BE3
:10586000DB79002B00F09E82224B009304330193DE
:10587000E26E236F05F035FF7B68206FC01A0AF0D7
:105880001DFE1B4B19680AF06DFE0BF031F83A68EB
:10589000E36EC4F880009B1A98F81020E3670C4B65
:1058A0000AB102221A7093F90030012B26D0022B84
:1058B00000F0FC8076E200BF64240020DC0F0020B2
:1058C0005C190020E50C002070230020641F0020DC
:1058D0000C1B00202C1B0020941F0020806967FFF8
:1058E00000007A44101B0020881C00208A1C002025
:1058F00060010020D81F002080969800D4F89450B2
:10590000D4F898600695D4F8A050D4F8847005F1C6
:105910000040089605970AF0EBFF049028460AF02D
:10592000E7FFD4F85480D4F89C400990404607948F
:105930000AF084F9904B044693F814010D460AF0DE
:10594000B9FD0AF07BF98AA3D3E900230AF0CAF96A
:1059500002460B46002089490AF0EEFA22462B4601
:105960000AF00EF802460B46204629460AF0E4FAF1
:10597000CDE90A01824E4FF00009824D55F81970A9
:10598000A5F11403384639F803A00AF097FD0599EC
:105990000AF0E8FD0AF0ACFFCAEB000084B228353B
:1059A00029F8054024B220460AF088FD06990AF03D
:1059B000D9FD0AF09DFF1FFA80FBE0190AF07EFD79
:1059C00008990AF0CFFD41460AF0CCFD31680AF093
:1059D000C1FC0AF08DFF049DA84204DB099DA8428A
:1059E000A8BF284600E004980AF068FD30600AF07D
:1059F0007FFFB36858441FFA80FB184603930AF0F0
:105A00001DF9044670680D46381A0AF057FD4146E4
:105A10000AF05CFE039B0AF1310A19460AF098FC71
:105A20000AF00CF902460B46DDE90A010AF05AF9C0
:105A300002460B462046294609F0A2FF0AF034FC34
:105A40001FFA8AFABAF1620F014630617760B060DE
:105A50000ED907980AF086FD0AF04AFF4A4BB0F5C6
:105A6000FA6FA8BF4FF4FA609842B8BF184600E03A
:105A70000020834440F6B8330FFA8BFB9B45A8BF48
:105A80009B46424B0A229B45B8BF9B4602FB09F24C
:105A90003F4B56F8141B29F803B03E4B09F102099D
:105AA000B9F1040FD1507FF468AF7BE1324AD5F8E9
:105AB00074A0B2F91A919AFBF3F39945A8BF9946DD
:105AC000B5F8A8601FFA89F90FFA89F233B29A4241
:105AD000314C0ADD3149606D0AF044FD0AF008FFDF
