:020000040800F2
:10000000005000201D300108BD30010891F90008A2
:10001000BD300108BD300108BD30010800000000FE
:10002000000000000000000000000000BD300108DA
:10003000BD30010800000000BD300108F5F70008E0
:10004000BD300108BD300108BD300108BD300108D8
:10005000BD300108BD300108BD3001088DF6000833
:10006000BD300108BD300108BD300108BD300108B8
:10007000BD300108BD300108BD300108BD300108A8
:10008000BD300108BD300108BD300108BD30010898
:10009000BD300108BD300108BD30010889F60008F7
:1000A000BD300108BD300108BD3001087BF60008F5
:1000B00071F6000865F6000859F600088DF9000889
:1000C00085F9000889F9000881F90008BD300108A8
:1000D000BD3001089DF7000841F70008DDF6000873
:1000E000BD300108BD300108BD300108000000002E
:1000F0000000000000000000000000000000000000
:0C01000000000000000000005FF808F1A3
:100110002DE9F04F854C9DB023680490062B01F229
:10012000E186DFE813F007001F001F001F00D40462
:100130005F06F00A7E4B1B682BB97E4B4FF47A703A
:100140001B68584300E09847049E726C831A2AB1DA
:10015000F2691A44F261326A01323262049F764ACD
:10016000786413802768714D012F00F0D280022F30
:1001700000F0E181002F40F083847048291DC36F97
:10018000984705F10408002800F09E846C4B1A88FB
:100190009946002A00F0A98010353E46B9F800A023
:1001A000DFF8A4B1BAF57A7FCDF814A008D1052103
:1001B000ABF13C0201FB062200234BF80630136131
:1001C00058F806A05BF8060010F092FA514610F0BD
:1001D000DBF910F0A7FC2A694BF806000132012A6E
:1001E0002A614FF0000305D1C5F804A0C5F800A0AE
:1001F000AB602BE0D5F800C0504661460193CDF8C6
:100200000CC0029210F0BEF9029A8346104610F01C
:100210006FFA0146584610F073FBDDF80CC001463A
:10022000604610F0B1F902461146686050460292ED
:1002300010F0A8F90146584610F0AEFAA96810F07F
:10024000A3F9029A019BE8602A60A860059ADFF88A
:10025000FCB048F80630012A4FF000032BF80730B5
:1002600036D12869012807DD013810F041FA01462E
:10027000E86810F045FB00E0002013F0FFFA314B76
:10028000834693F8660190B110F032FA0146584661
:1002900010F03EFC58B14FF47A73A9F800300023F7
:1002A00023626363A36463652365E36410E0264B04
:1002B0004FF47A72F358DFF894A003F5FA7393FBC6
:1002C000F2F32AF807300A200F21012208F0BCF9C6
:1002D00004360C2E07F1020705F114057FF45EAF1A
:1002E000B9F80030013BA9F8003000250F4E06F1A7
:1002F000580B3BF9050010F0FBF9014658F81500C2
:1003000010F040F948F815000235062DEED101F045
:10031000DEBD0A4E05F16001D6F8943030469847AC
:10032000B04605F1600998B90120CDE30818002016
:10033000F4090020682400207A2B002018000020F7
:10034000E6170020A8240020541800206018002080
:10035000A04B1D889A46002D47D09F4A0026B5F530
:10036000C87FDFF8A8B204BF00234BF806305BF863
:100370000600029210F0BCF959F8061010F004F9CA
:1003800010F0D0FB002349F806304BF80600029A23
:10039000043600230C2E914F22F8023FDFD1012DAD
:1003A0001ED1FA6E8E494FF4C870C83292FBF0F23B
:1003B000A1F86A213A6FC83292FBF0F2A1F86C21E1
:1003C0007A6FC83292FBF0F0B8F89820801A854A0C
:1003D000A1F86E01284629469385D3850DF078FB58
:1003E000BAF80030013BAAF800307D4EB3685A07D6
:1003F00040F184807C4B1D889A46322D13D1B6F88B
:100400006A31A4F87830B6F86C31A4F87A30B6F8CE
:100410006E31A4F87C30734B9A8DDB8DA4F87E206E
:10042000A4F8803001E0002D46D06B4B0027322D20
:10043000DFF8DCB104BF00224BF807205BF80700AF
:10044000019310F055F959F8071010F09DF810F0CD
:1004500069FB002249F807204BF80700019B04378D
:1004600000220C2F23F8022FE1D1012D1FD15F4B69
:100470001A705F4B1D705F4D2B780A2B04D95E48B4
:1004800009F0B6F90A232B70B4F87830B4F87E205E
:10049000A6F86A31B4F87A30A6F86C31B4F87C303A
:1004A000A6F86E314F4B9A85B4F88020DA85BAF8F9
:1004B0000030013BAAF80030504A1378F3B1002312
:1004C000D4F884101370322291FBF2F1A6F86A116D
:1004D000D4F88810B8F8980091FBF2F1A6F86C11E6
:1004E000D4F88C1091FBF2F2121AA6F86E210120BA
:1004F0003C4A01469385D3850DF0EAFAB6F96A01C4
:1005000010F0F6F80146206E10F03CF82066B6F9BF
:100510006C0110F0EDF80146606E10F033F8606683
:10052000B6F96E0110F0E4F80146A06E10F02AF85A
:10053000A0660220C8E2324B324F1B689847D5F8BC
:1005400090300646C31A1846059310F0CDF8D7F838
:100550008810069010F020F9C5F89060214E002513
:1005600096F831900790A846274F0799E85910F060
:1005700013F90DF1400E4EF80500DFF898B0B9F10F
:10058000000F49D0484610F0B3F801464FF07E50B6
:1005900010F0B6F90346194607F1900A4FF07E5065
:1005A00001930FF0EFFF55F80A1010F0F5F8019BDA
:1005B0005C370246E9591846029210F0EDF8029AAB
:1005C000014610460FF0E0FF45F80A0045F80B0021
:1005D00026E000BF6E2B0020102600200818002007
:1005E000A8240020302A0020061B0020081B002021
:1005F000021B00205C01002026850108031B00204F
:10060000F4090020180000200C18002074180020A5
:100610008C180020501C00205C37EB594BF805303B
:10062000404610F065F85BF805708046384610F0DB
:1006300079FA10F05DF8394610F0AEF80146404600
:100640000FF0A2FF10F06EFA04350C2D80468BD10E
:10065000642303FB00F8A84810A9B0F89830A74815
:100660005B4398FBF3F8A8F149081FFA88F804F0F7
:100670009BF9B8F13B0F6ED9A14BD4F8A850B3F950
:10068000000010F035F8014628464FF0010710F041
:100690003FFA00B907469B4B2946D4F8A4005F7384
:1006A00012F04CFF0746C4F8AC00D4F8A000D4F810
:1006B000A89000F10045D4F8A400014610F06CF8B1
:1006C00049468046484610F067F8014640460FF01C
:1006D0005BFF13F0D3F80146284612F02FFF0546C2
:1006E000C4F8B00038460FF0C3FB7FA3D3E9002362
:1006F0000FF012FC0FF0F2FE12F052FEDFF828822B
:10070000A8F8000028460FF0B3FB77A3D3E9002335
:100710000FF002FC0FF0E2FE12F042FE7A4BA8F856
:1007200002001B681B0757D510A9784804F03CF954
:10073000774B4FF0000AB3F864010FF0D5FF4FF08C
:100740007E5181460FF020FF01464FF07E5010F0A1
:10075000D7F8804628E06E4B4FF00008B3F86201EE
:100760000FF0C2FF4FF07E5107460FF00DFF01461C
:100770004FF07E5010F0C4F80546DFF880913846FF
:1007800058F8091010F008F8624B58F803100FF0F1
:10079000FBFE294610F000F849F8080008F10408AB
:1007A000B8F10C0FE9D167E7DFF860B148465AF8B5
:1007B0000B100FF0F1FF584B5AF803100FF0E4FE46
:1007C00041460FF0E9FF4BF80A000AF1040ABAF1BA
:1007D0000C0FE9D158463DE0DFF8409110A948469A
:1007E00004F0E2F8D9F80000D9F804B001460FF09F
:1007F000D3FF5946824658460FF0CEFF0146504679
:100800000FF0C2FED9F808808246414640460FF0FC
:10081000C3FF014650460FF0B7FE13F02FF800213A
:10082000804610F04DF9A0B9D9F80000414610F00B
:1008300067F84146C9F80000D9F8040010F060F8E4
:100840004146C9F80400D9F8080010F059F8C9F871
:100850000800324804F060F9314B3249188006989C
:100860000FF09AFF2E4B804607F10047B3F90000C6
:1008700005F10045139714950FF03AFF00F1004081
:100880000FF0F6FA1AA3D3E900230FF045FB0FF09F
:1008900025FE204B15901A6816A816925A689B6878
:1008A00013A91893179204F07FF896F84830012B9B
:1008B0003CD1144B5B7873B9D4F8C030402093FB23
:1008C000F0F0181A0FF014FF18990FF05DFE10F0F9
:1008D00029F9C4F8C000D4F8C030402093FBF0F0F0
:1008E00027E000BFAFF300803B597E90A9E781402D
:1008F000399D52A246DF913F18000020A818002021
:10090000880B0020E50C0020800B0020BC18002084
:10091000A8240020501C0020A41900204C01002015
:10092000A0230020BD37863580190020BC49B1F8CE
:1009300098000FF0DDFE014618980FF023FEB94B2A
:100940001890196840460FF01FFE014640460FF010
:10095000D7FFD4F8C4708046394618980FF012FEBD
:10096000014640460FF018FF014638460FF00CFED6
:100970000746C4F8C4001698D4F8C88012F010FDD9
:1009800096F8331004F044F94044C4F8C8001798AE
:10099000D4F8CC8012F004FD96F8331004F038F946
:1009A0004044C4F8CC003846D4F8D08012F0F8FCAB
:1009B00096F8321004F02CF99B4B059F1A684044BE
:1009C0003A441A60D4F8D430984D0133C4F8D43086
:1009D00096F8B630C4F8D000002B4FD0D5F8A00060
:1009E000D5F8A48001460FF0D7FE414607464046A1
:1009F0000FF0D2FE014638460FF0C6FDD5F8A860CC
:100A00000746314630460FF0C7FE014638460FF024
:100A1000BBFD12F033FF014630460FF071FF8449F1
:100A2000064610F061F818B10023A5F8D83025E08B
:100A3000304612F031FD7F4B19680FF0ADFE12F019
:100A4000AFFCB0F5617FA8BF4FF461700FF0FEF905
:100A500071A3D3E900230FF089FB0FF03FFD12F0E3
:100A6000DDFC754B064693F8B6000FF041FE3146AB
:100A70000FF092FE12F094FCA5F8D800032023E0BA
:100A80006E4B6F4E5B79012B11D1B5F9DA00400046
:100A90000FF02EFEE9680FF077FD6A490FF030FF86
:100AA00010F040F880B2B080A5F8DA0003E0E86802
:100AB00010F038F8B080606810F034F83080A0682A
:100AC00010F030F870800420206000F018BE5E4BFB
:100AD0005E4A197C584BA1B9B2F906101A8D9142A1
:100AE0003CDBB1F5FA6F93F8264007DA891A4C43DC
:100AF000A2F5FA6294FBF2F4643430E0C4F16404C9
:100B00002DE0B2F906101A8D91420FDB504AB2F96E
:100B1000061093F82620914208DDB1F5FA6F02DA4B
:100B2000891A4A435212C2F1800200E080224949E8
:100B3000B1F90210142909DD93F82600B1F5967F6A
:100B4000A8BF4FF496714143A2EB212293F82640AF
:100B5000C4F18004A242A8BF144600E06424374ACE
:100B600093F8B050B2F8989192F95C2193F8B16083
:100B7000524293F8253092B200212F480692CDF8C8
:100B8000149007930A46314BDDF814A031F903B0F5
:100B900040F2E637CAEB0B0303F2F31EBE4503D85F
:100BA000002BB8BF5B4201E04FF4FA73022ADFF872
:100BB000A0C053D025B1AB42CCBFC5EB030300238B
:100BC0006427DFF8689093FBF7FE09EB4E086FF09F
:100BD000630A0AFB0E3AB8F8DC8009EB4E0EBEF948
:100BE000DE900FFA88FECEEB090E0EFB0AFE9EFB8E
:100BF000F7FEC6442CF801E090F823E003FB0EFE5C
:100C0000154B9EFBF3F33B449BB2634393FBF7F717
:100C100039E000BFAFF30080A2EB0FE5DD16964090
:100C200018000020940B0020742B002008180020CE
:100C30008FC2753C900B0020302A0020A824002091
:100C40009E19002000004040E50C0020B00D00205F
:100C50001A1B0020801900200CFEFFFF26B1B342B2
:100C6000CCBFC6EB03030023DDF818E003FB0EF74F
:100C7000ACF80470079F002BB8BF5B427B43B64FB4
:100C800093FBF7F76437B54B90F80B80134493F858
:100C900001C007FB08F807FB0CFCDFF8FCE264234B
:100CA0009CFBF3FC02F80EC098FBF3F80EF1030C6A
:100CB00002F80C8090F815C0DDF8149007FB0CF7D3
:100CC0000EF1060E97FBF3F3CB4502F80E30A44F5E
:100CD00002DA7B5A5B427B520132032A01F10201A4
:100CE00000F101007FF44FAF9E4BB3F906209E4BFD
:100CF000B3F89A319A4205DBB2F5FA6FA8BF4FF408
:100D0000FA6200E01A46D21A4FF47A714A43C3F5E8
:100D1000FA63B2FBF3F36425944A93FBF5F102EB1B
:100D200041006FF0630606FB0133B0F8F40002EBFC
:100D30004101B1F9F66001B2711A4B4393FBF5F52D
:100D40008B4B28445B7A864CF8809046002B44D02D
:100D5000884BB3F90000884BB3F90030C01A0FF08C
:100D600075F87BA3D3E900230FF0D6F80022834B5C
:100D70000FF0FCF90FF0B2FB054612F0DBFA064665
:100D8000284612F04BFB0546B4F902000FF0B0FC08
:100D90000746B4F900000FF0ABFC314681460FF076
:100DA000FBFC2946824638460FF0F6FC01465046C9
:100DB0000FF0E8FB0FF0B6FE3146208038460FF00A
:100DC000EBFC2946064648460FF0E6FC0146304655
:100DD0000FF0DAFB0FF0A6FE60800523C8F80030A4
:100DE00000F08DBC664BDFF874911A6812F00805AC
:100DF00039D05B4988880F4600F145039BB28A2BA6
:100E000060495C4B2DD85A4E96F805E0BEF1000FB4
:100E100027D0B3F800E00B88767BC3EB0E0189B2D4
:100E20008BB20FFA83FE1EF1B30FBCBF01F5B47392
:100E30009BB219B2B3294C49C4BFA3F5B4739BB29A
:100E400091F85C117EB149B249424B4399F80910BF
:100E50001BB24B436FF01D0193FBF1F31844B880B4
:100E600001E01B880B80570740F1A380404B997924
:100E7000002900F09E801E7C394B002E40F09080AF
:100E800099F8B300404F99F8B21068B3B3F806E090
:100E9000B7F900000FFA8EF7C0EB070CBCF1000F9A
:100EA000B8BFCCF1000C8C4510DD8742DFF8ECC0F8
:100EB000C8BF4942CCF800601FFA8EFE4FF0010611
:100EC000C8BF89B284F80C6171443FE094F80C11FA
:100ED00031B12E490F682E490F60244981F80C6109
:100EE0002C490968084426E0B7F90060B3F9067098
:100EF000BF1B87EAE77EAEEBE77E8E450ADD022167
:100F000097FBF1F70121C4F8107184F8141184F8EB
:100F10000C110DE094F80C7114494FB11B4F81F87E
:100F20001401D7F800E01A4F81F80C01C7F800E06F
:100F30001849086830440C4EB6F84011B6F84261C2
:100F4000884203DBB042B4BF01463146D98030E06D
:100F5000182D4454FB2109400CFEFFFF302A0020CD
:100F60001A1B0020B00D0020A82400200818002023
:100F7000E50C0020A02300202E1B002000806640EE
:100F8000800B00202C1B0020181B00208823002031
:100F9000141B0020281B0020F2180020241B002016
:100FA0009749588891F9A0619649096806FB0101A3
:100FB000598099F8B63053B1934BD97809B91B7958
:100FC0002BB1924BB4F8D800D9880144D980960649
:100FD00040F192838C4BDA7905921AB91A7A002A79
:100FE00000F085831B7BDFF820B2002B00F07F83AD
:100FF000874B1F8838B20FF07BFB86490FF0CCFB84
:10100000064612F00BFA8046304612F093F99BF830
:1010100010300646002B40F0858099F815917E4FE0
:101020007E4DB9F1000F4CD0DFF81CA2B7F90200D9
:10103000BAF80230C9F100041FFA83FB1BB2C01AD0
:1010400003F0A8FFA04203DB4845A8BF484600E0E4
:101050002046BAF800308344B7F900009AB21BB2B8
:101060001FFA8BFBC01AAAF802B0029203F092FF9B
:10107000A042029A03DB4845B4BF04464C461444E0
:10108000A4B2AAF800400FFA8BF00FF031FB07462C
:1010900020B20FF02DFB3146044638460FF07CFBA2
:1010A0004146814620460FF077FB014648460FF047
:1010B00069FA5B490FF024FC0FF034FD28803846B4
:1010C0001DE0B7F902000FF013FB8146B7F90000ED
:1010D0000FF00EFB3146044648460FF05DFB4146DB
:1010E000074620460FF058FB014638460FF04AFAF3
:1010F0004B490FF005FC0FF015FD2880484641468E
:101100000FF04AFB3146074620460FF045FB0146EB
:1011100038460FF039FA42490FF0F2FB0FF002FDAA
:101120006880E9E23F4B404A1888404B9BF813B077
:10113000DB8899F8369106933D4BD3F808803D4BF8
:101140001FFA88FA1E889368CAEB0606B6B2CAEB85
:10115000030A1FFA86FC1FFA8AFABBF1000F06D0B9
:101160000FFA8CF34B45BCBF08EB090393600A23CD
:1011700000B258430193CDF80CC003F00BFF019B64
:10118000DDF80CC090FBF3F000B27DB190FBF3F3FF
:1011900038B29AB2C31A002BB8BF5B420A2B08DDE3
:1011A000254B1B88C82B88BF174602E090FBF3F73E
:1011B000BFB2224D2248D5F818316422CAEB06018D
:1011C00093FBF2F20668D5F8203189B2F31AC72BE7
:1011D000A5F81C21A5F81E11824640F26C82036816
:1011E000184EC5F82031B6F82C3179BBA5F824315A
:1011F000BBF1000F40D0044B0021D9743CE000BF8C
:10120000A8240020281B0020E50C00201A1B002029
:10121000A023002035FA8E3C521B0020481B0020E2
:10122000000020419E230020341B0020B00D002030
:10123000902300208C2300209C23002008180020ED
:1012400068240020302A00204E1B0020B6F8300110
:1012500009B200FB1130B6F82E31B6F82AE19842F7
:1012600003DB7045B4BF03467346A5F82431BBF1D8
:10127000000F01D00029BEDAD71BB8B2059F9E49E6
:101280009E4BE7B1CA7C7AB1B6F824216FF009070A
:101290007A43A5F81E21B6F82A21A5F824210FFAD1
:1012A0008CF2182AD8BF00201A88312A07D80FFAE2
:1012B0008CFCCC4503DD924A08EB09079760897CDA
:1012C0008D4A49B11988092906D800215170D17475
:1012D0008B4A08F1050191601B88092B08D800B2E0
:1012E0000FF006FA87490FF057FA0FF01BFC80B297
:1012F0004FF0640900B209FB00F003F04BFE90FBD5
:10130000F9F01FFA80F90FFA89F3002BB8BF5B429E
:10131000DAF80000AA2BC8BF4FF0AF09D5F8283182
:10132000DFF80482C01A0FF0DFF977490FF0E8FA0E
:10133000DAF80030B5F81EA1C5F828310AF1030328
:101340009BB2062B074606D8D8F8000039460FF0A6
:1013500023FAC8F800000A2202FB0AF292B293B202
:10136000A4F81E3118B2029201930FF0C1F9D4F81B
:10137000301182460FF010FA39460FF00DFAD8F806
:1013800000100FF001F90FF0CDFB6049B0F5FA7FC6
:10139000A8BF4FF4FA708842B8BF08460FF0A8F90A
:1013A0005B49029A8346C8F800000888019B121A1C
:1013B00092B20B8013B2002BB8BF5B42642BC8BF44
:1013C0000022544B03F10A01988823F8020F8B4244
:1013D000FAD1514900230A811846CA5A02331044EF
:1013E0000A2B80B201D080B2F7E700B20FF080F98B
:1013F000D5F834110FF0D0F939460FF081FA0FF01B
:1014000091FB1FFA80F8D5F82C115046A5F83C81C5
:101410000FF0C2F90FF086FB00B20FF069F95946E0
:101420000FF0B2F80FF07EFB1FFA89F909F1030300
:101430009BB2062B1FFA80FA08D8DFF8F0B03946C5
:10144000DBF800000FF0A8F9CBF800004FF00A0C11
:101450000CFB09F91FFA89FC1FFA8CF210B20292F8
:10146000CDF80CC00FF044F9DFF8C090D5F8441166
:1014700083460FF091F939460FF08EF9D9F8001034
:101480000FF082F80FF04EFB204BB0F5FA7FA8BFAB
:101490004FF4FA709842B8BF18460FF029F9034686
:1014A000C9F800001D48DDF80CC00188029AC1EBA4
:1014B0000C0189B202800AB2002AB8BF5242642AE3
:1014C000C8BF0021164A02F10A00B2F804E022F86F
:1014D00002EF8242F9D1134A4FF0000911814846C8
:1014E00032F8091009F102090844B9F10A0F80B273
:1014F0001ED080B2F4E700BFE50C0020961C00204F
:10150000341B0020CDCCCC3D00007A440CFEFFFF04
:10151000D81B0020DC1B0020DE1B0020DA1B002073
:10152000E81B0020EA1B0020D41B0020D01B002059
:1015300000B201930FF0DCF8D4F848110FF02CF949
:1015400039460FF0DDF90FF0EDFA87B2D4F840110B
:10155000A4F8507158460FF01FF90FF0E3FA00B2EB
:101560000FF0C6F8019B0FFA8AFA19460FF00CF833
:101570000FF0D8FAB6F924316FF009014B439AFB0A
:10158000F9FA0FFA8AFAB6F926119A4580B209FBE0
:1015900001F903DBCA45B4BF53464B46B04C02B217
:1015A000B4F920116FF0090048434FF00A0E984437
:1015B00092FBFEF2AB4B1FFA88F88242A3F802803E
:1015C00004DB0EFB01F08242B8BF1046BFB23844C4
:1015D0001880B4F922016FF0090141438A4204DB0B
:1015E0000A2141438A42B8BF11469F4A0F44507CAA
:1015F0009F80114658B194F828210FFA88F852427A
:10160000904503DBC845B4BF42464A465A80C97C70
:10161000964A69B996F83261B2F900006421B6FBC6
:10162000F1F15E880028B8BF404201FB106159808B
:10163000B2F902000FF05CF84FF07C510FF0ACF8FB
:101640000FF070FA8A4BB0F5E17FA8BF4FF4E1705C
:101650001A88B5F82471A2F5E17320EAE0709BB214
:10166000381A642B87B2834E0CD910B2C0F5FA70C9
:101670000FF03EF880490FF08FF80FF053FA3388DF
:1016800018443080B6F90030B4F82E21B3F5FA7F53
:10169000A8BF4FF4FA7323EAE37333803B441BB2D1
:1016A0009342B4F82A1103DB8B42B4BF1A460A46B0
:1016B000724BA3F824216C4A6A4BD17809B911798D
:1016C00021B1927A52B1684A927C3AB9DDF8189009
:1016D0000022A5F824915A801A809A80684AB5F8A9
:1016E0002411D180998893880B44938004E05D4B4A
:1016F00000221A805A809A80604B06221A60049851
:1017000007F038FBEEE35F4BDB6898475E4B93F8DE
:101710000080B8F1030F14D9594BB4F95611B3F93D
:1017200004006FF063030028B8BF40421B1A9942BF
:1017300004DB00F164038B42A8BF0B46A4F85631CA
:101740000BE0B8F1010F08D8504B5A791946013A0D
:10175000D2B2172A00F2D481A3E04148B4F854A1D0
:1017600090F90E11B4F852B1B4F9564149424C43C4
:101770003D49434B0A7C90F81E01897ACDF810A0B0
:10178000DE88B3F804A0424D0694CDF814B0079259
:101790000890099100244445D6D230B20EF0A8FF3B
:1017A000296883460EF0F8FF049B844618B2CDF8F2
:1017B0000CC00EF09DFFA9680EF0EEFFDDF80CC026
:1017C000014660460EF0E0FE059A844610B2CDF860
:1017D0000CC00EF08DFF69680EF0DEFFDDF80CC066
:1017E000014660460EF0D0FE84460698CDF80CC047
:1017F0000EF07EFFE9680EF0CFFFDDF80CC0014669
:1018000060460EF0C1FE0FF08DF9DFF88890079B5F
:10181000670029F81400002B40D0089A002A3BD01A
:10182000099B002B3AD00FFA8AF00EF061FF844634
:101830002046CDF80CC00EF057FF4FF07C510EF053
:10184000A1FEDDF80CC0014660460EF0A5FF014682
:1018500058460EF097FE0FF065F929F807001DE0D5
:10186000302A0020481B0020E50C002080190020B1
:101870009C230020DC1B0020CDCCCC3D0818002090
:101880001A1B00204C010020142A0020A82400204C
:10189000B40B0020162A002027F809600134103507
:1018A00079E7012303FA02F2B94B13406BBBD4066C
:1018B00040F12681B74BB84893F9BE20B0F90240F9
:1018C000B0F900005443322294FBF2F4B3F8BC2088
:1018D000A4B211B21129DCBFB04A32F81120B049CC
:1018E00022440A8093F9C820B3F8C630504332220C
:1018F00090FBF2F01AB2112AD8BFA84B80B2D8BF21
:1019000033F8123003444B80FAE0A64B9B7A43B184
:10191000A54B1A88ADF858205A889B88ADF85A20F4
:101920000AE0A24BB3F85221ADF85820B3F8542185
:10193000B3F85631ADF85A20ADF85C309C4B974A5D
:101940001B88ADF85E30B1F898311189C91AADF82D
:1019500060105189C91AADF862109189C91AADF8A1
:101960006410D189C91AADF866101188C91AADF88A
:1019700068105188C91AADF86A109188D288C91ABE
:10198000D31AADF86E30ADF86C10002384490022F4
:101990005A520233102BF9D1864B15461B7804930B
:1019A0001346DDF810A0554500F08F80824E834C21
:1019B0009119887920B1824F3844007D00287ED06B
:1019C000B05C744E0A2707FB0067B7F8BAE0B7F8B7
:1019D000B86091F904B0C6EB0E06B6B206FB0BFB7D
:1019E000642791F801809BFBF7FB4FEA560C91F8B6
:1019F00003E0CCEB0B0B4FEA48070DF170091FFA1F
:101A00008BFB91F805A04F44BEF1000F03D137F8CE
:101A1000187CE7521BE0E45E37F9187CDFF89C91F4
:101A2000BC4209DAA644A64503DB7745B4BF3C4671
:101A3000744629F803400AE009DDCEEB040EBE45EA
:101A400003DBA645B4BF7746274629F80370DFF8C5
:101A500044E14FF00A0909FB00EEBEF8C0E091F93D
:101A600002104EFA08F818F0010FDFF850814C4CC4
:101A700033F908800FFA8BFB01FB08F14FF0640883
:101A800091FBF8F10CBF4FF0010E4FF0FF3E5945AE
:101A900034F810701FFA8EFE0CDB4FFA8AFB06FB3F
:101AA0000BFB9BFBF8FBCCEB0B0B0FFA8BFB8B457B
:101AB000A8BF8B460BFB0E7B24F810B000E0E05271
:101AC0000135EDB2023307326BE73E4B314A03F189
:101AD000100492F9BE10B3F902500A324D4364214A
:101AE00095FBF1F5B2F8B210ADB208B21128DCBF27
:101AF0002A4931F81010294423F8021FA342E8D1E3
:101B0000314B9A689A4612F0200F224B3BD0B3F823
:101B1000BC00234C02B2112AD8BF20492546D8BFA9
:101B200031F81200B3F8C61020800AB2112ADCBFC7
:101B30001A4931F812101A4A0C4669802049097A6C
:101B400009B393F8101193F9C86011F0020F93F9DB
:101B5000BE7011493AD0B1F90050B1F902106E438C
:101B60007F424F434FF0320E96FBFEF66FF031018D
:101B7000B6B297FBF1F1314497FBFEF708443E44BF
:101B80001080344454800F4A024902F1100532E0BB
:101B900089209800302A002080190020B00D0020F4
:101BA00088010020E50C00201A1B002008180020E6
:101BB000162A0020740C0020750C002060190020EB
:101BC000E01A002086010020A8240020B1F902506C
:101BD000B1F900106F434E43322597FBF5F73844B7
:101BE00096FBF5F510802C44CCE722F8020FAA42B0
:101BF00001F10A010CD0B2F90240B1F9B800B1F814
:101C0000BA608442F1DB30B2A042A8BF2046ECE7C4
:101C100093F81031580705D49A499B4B0C881B78D0
:101C200001220FE0994B9A4D9E7D0024043EA0199D
:101C30000134C0B235F8021FE4B203F0E6FA042C16
:101C4000F5D1E9E79A4208D231F9120024B2A04254
:101C5000A8BF0446A4B20132F4E78E4ABAF8425152
:101C6000107C291B05908C4889B2B0F90600BAF89F
:101C7000987106910490DAF808108848BAF840C1C3
:101C800001F48046B0F9EAB001F010010797B0F90D
:101C9000EC70BAF846010E911FFA8CF1BAF844E1E3
:101CA00008900A9150787E49BAF848819AF80590D0
:101CB000BAF89AA15B000D960C901FFA8EF649892E
:101CC000507C0F93CDF800B0CDF824A00B960023E4
:101CD0000F9EB3426ED022B2AA4208DD059A32B9F5
:101CE000684A069E33F802A0B24423F802A00D9E73
:101CF000644A002E36D0DDF810A0DDF81CB0DA45BD
:101D000032F903A015DDC24503DBAA45A8BFAA46E8
:101D100000E0C246B9F1010F22F803A041D1009AB8
:101D200009B2914203DBB942A8BF394618E00099D5
:101D300016E0F24504DB089EB245A8BFB24600E0BB
:101D4000F246B9F1010F22F803A02AD109B2B94233
:101D500005DBDDF800A05145A8BF514600E039463B
:101D600089B21EE032F903B0E34503DBAB45A8BFFF
:101D7000AB4600E0E34622F803B002EB030ADDF8CD
:101D800010B0099A93450BDA0E9E26B9DDF828B0FB
:101D9000AAF800B005E00B98AAF80000012000E0C6
:101DA00000200C9A22B93F4A985A364A985201208C
:101DB00002338DE7354A3A4C364B6181517D587478
:101DC0001A4600297DD0384E7379013B172B6DD808
:101DD000DFE803F00C6C6C186F6C6C1E6C6C6C6C38
:101DE0006C256C6C6C6C6C18256C6C342B4B93F8FC
:101DF0000F3113B10020618961E050780028F9D1DA
:101E000001465CE00020218903F0FFF90120F2E7A0
:101E10000020E18803F0F9F9012021894FE000203A
:101E2000E18803F0F2F90120218903F0EEF90220A4
:101E3000618903F0EAF90320A18940E00020E188EC
:101E400003F0E3F90120218903F0DFF90220618921
:101E500003F0DBF9A189032003F0D7F9B368104D33
:101E6000D9072ED50420298803F0CFF905206988E9
:101E700003F0CBF90620A98803F0C7F90720E98908
:101E80001DE000BF162A0020142A00209C0B002011
:101E9000B60D0020E50C0020B00D0020302A0020F7
:101EA0008801002086190020A8240020B3689A0623
:101EB00007D50020218803F0A8F96188012003F0EC
:101EC000A4F902F053FD094B00221A600AE0084B06
:101ED0001B689B073EF528AA002333667366B3662A
:101EE000FEF7CCBD00201DB0BDE8F08F0818002023
:101EF000800B0020AFF300802DE9FF4700F124079D
:101F0000044638460D4604F095F924238DF8083030
:101F10004D238DF809303E238DF80A302B780026AA
:101F2000384602A905228DF80B608DF80C3004F0BC
:101F30001FFA30B19DF80C30A4F84A6084F848309C
:101F400008E0A38F2387A38DA387AB4B1A780AB928
:101F500004221A702B78772B00F03C8200F2668105
:101F60006A2B00F0AF8400F29D80452B00F0DF87E4
:101F700018D8422B00F0788709D8402B00F0BF8793
:101F8000412B08BF002300F0C68700F0E2BF432BBF
:101F900000F0D486442B40F0DC87984B01221A7065
:101FA00000F0DBBF662B00F04D8372D8642B00F08D
:101FB0002083652B40F0CD87914B2046198809F08E
:101FC0002BFF904B2046198809F026FF8E4B2046A8
:101FD0001B68C3F3C001C3F38002890041EA4201D8
:101FE000C3F340021143C3F3401241EAC20103F0BC
:101FF0001003194309F010FF844A1579D378AD0016
:1020000045EA430553781D43937945EAC30553795F
:1020100045EA4315537A45EA83157D4BD97945EA5C
:10202000C115197A45EA0125597A45EA4125D17940
:1020300045EA8125117A45EAC125117D927A45EA62
:10204000016545EA02355A7B002145EA42359A7B13
:1020500045EA82351A7C45EA02451A7945EA0215B5
:102060005A7C45EA42459A7C45EA8245DA7C45EA53
:10207000C2451A7D45EA02555A7D45EA42559A7D88
:10208000DB7D45EA825545EAC355624B18780B461D
:10209000C0E2682B00F0088400F20A8420465E4902
:1020A00000F004BC702B00F074843FD86D2B00F05E
:1020B0003C8412D86B2B00F028846C2B40F04987AD
:1020C000564D2046298809F0A7FE2046698809F068
:1020D000A3FE2046524B00F014BC6E2B00F02D8462
:1020E0006F2B40F036874F4D2046E97F0CF062FBA6
:1020F00095F8201020460CF05DFB95F82310204643
:102100000CF058FB95F8251020460CF053FB95F881
:10211000261020460CF04EFB95F8211020460CF0BE
:1021200049FB204695F8221000F0E6BE732B00F024
:1021300086845AD8712B00F04F81722B40F00987AA
:10214000394D2046B5F8981109F066FEB5F84011F2
:10215000204609F061FE334EB5F84211204609F0E1
:102160005BFEB5F84411204609F056FEB6F80A1198
:10217000204609F051FE95F8AB1120460CF01AFBF1
:1021800095F8AC1120460CF015FB95F8AD112046E2
:102190000CF010FB95F87C1120460CF00BFB95F829
:1021A000A11120460CF006FB002120460CF002FB9A
:1021B000B6F92A100A2391FBF3F189B2204609F0FF
:1021C0002BFE95F87D1120460CF0F4FA95F87F115E
:1021D00020460CF0EFFA95F87E1120460CF0EAFA52
:1021E000204695F8801100F087BE752B00F0E4833F
:1021F00000F22E840025F6E36C2B0020E41D002065
:102200007A2B0020140B0020800B0020E50C00200E
:10221000E01A002069210020880100208019002098
:10222000A0230020302A0020A8240020CF2B00F07B
:10223000598100F29380C82B00F0D08054D8A02B95
:1022400000F0F48448D8782B00F035827B2B40F0E6
:102250008086964B964D93F8A01120460CF0AAFA72
:10226000B5F82011204609F0D7FDB5F82211204617
:1022700009F0D2FDB5F82411204609F0CDFDB5F8DE
:102280002611204609F0C8FDB5F82A11204609F0AC
:10229000C3FDB5F82C11204609F0BEFDB5F82E118E
:1022A000204609F0B9FDB5F83011204609F0B4FD1B
:1022B00095F83211204609F0D9FD95F836112046DF
:1022C0000CF078FA2046002109F0D0FD20460021CC
:1022D00009F0CCFD00F034BEA42B00F0B384A62B93
:1022E00000F00B8500F035BECB2B71D009D8C92B7F
:1022F00000F09180CA2B40F02C866E4B03F10A014E
:10230000AFE0CD2B00F04D8400F25584AB6813F89C
:10231000012BAB60664BDA77AA6812F8011BAA6042
:1023200083F82010AA68511CA96051780232AA6073
:1023300083F82510AA6812F8011BAA6083F82610FA
:10234000AA6812F8011BAA6083F82110AA6812F883
:10235000011BAA6083F8221000F0FFBDD82B00F00B
:102360005D8217D8D22B00F02A8107D8D02B00F03D
:102370000F84D12B00F0CC8300F0EBBDD42B00F008
:10238000BB81C0F02F81D62B08BF002600F00D8145
:1023900000F0DFBDF12B00F0D1810CD8EF2B2FD056
:1023A000F02B40F0D685424D2046E98D09F034FDF2
:1023B0002046A98DA6E2FA2B00F00584FE2B00F042
:1023C0000C84F22B40F0C585384B03F17001DFE13E
:1023D00000265AE0002529E30025F3E200262846DE
:1023E0000AF01DFB344B98530236102EF7D1334BB5
:1023F00000221A80324B186806F0BCFC00F0ADBD1C
:1024000028460AF00CFB2A4EF08528460AF007FB06
:10241000B08500F0A2BDAB68284613F8012B294E09
:10242000AB60294BDA72AB6813F8012BAB60274B1A
:102430001A700AF0E5FA306028460AF0E1FA706096
:1024400028460AF0ECFA224B188028460AF0E7FAF0
:10245000204B1880204B1A7942F002021A7100F0CA
:102460007CBDAA68013312F8010B8B42AA60587038
:10247000AA6812F8010BAA60D872AA6812F8010BB8
:10248000AA605875EDD100F068BD144B1B789E42D0
:1024900080F06385124B284616F803800AF0BFFAD5
:1024A000034B013603EB8803D864EEE7A824002031
:1024B000302A00202F2A0020B00D0020FC1A002016
:1024C000FC0C0020401B0020E50C0020AC23002069
:1024D0008C2300209C2300208019002069210020EB
:1024E0005021002028460AF09AFA6FF4AF63C04EDC
:1024F000C318C62B98BFA6F8980128460AF08FFA91
:10250000A6F8400128460AF08AFAA6F842012846B1
:102510000AF085FAA6F8440128460AF080FADFF8A6
:10252000F882AB68A8F80A0113F8012B2846AB60C3
:1025300086F8AB21AB6813F8012BAB6086F8AC21B1
:10254000AB6813F8012BAB6086F8AD21AB6813F8CC
:10255000012BAB6086F87C21AB6813F8012BAB60D4
:1025600086F8A121AB680133AB600AF058FA0A2360
:102570005843AB68A8F82A0013F8012BAB6086F823
:102580007D21AB6813F8012BAB6086F87F21AB6827
:1025900013F8012BAB6086F87E21AB6813F8012B92
:1025A000AB6086F8802100F0D8BC28460AF037FAE4
:1025B000904B98530236102EF7D100F0CEBC8E4BC4
:1025C0005A78002A40F0C984AB68002013F8011B38
:1025D000AB60874B022994BF83F8681583F86825A0
:1025E0000146F7E228460AF01AFA844B188000F0F8
:1025F000B4BCE72120460CF0DDF87D4B204659792C
:102600000CF0D8F8042120460CF0D4F820467C4980
:1026100000F09CBC83420CD27A4A9E5C012202FAF2
:1026200006F62E4218BF9A4003F1010318BF11436A
:10263000F0E7204609F01AFC6D4B204693F8681528
:1026400000F05ABC704B0025B3F898306F4EB3F5CC
:10265000806F0FD970594FF078510EF09DF80EF041
:1026600087FA043581B2204609F0D6FB0C2DF1D152
:1026700000250AE070590EF07BFA043581B220463D
:1026800009F0CAFB0C2DF5D1F2E7614B2046595BEE
:10269000023509F0C1FB062DF7D100255D4BE85846
:1026A0000EF066FA043581B2204609F0B5FB0C2D18
:1026B000F4D100F052BC584D05F15006B5F8B810F1
:1026C000204609F0A9FBB5F8BA10204609F0A4FB92
:1026D000B5F8BC10204609F09FFB95F8BE102046C7
:1026E0000CF068F80A35B5F8B610204609F094FBEE
:1026F000B542E3D100F031BC474E06F15008284600
:102700000AF08DF9A6F8B80028460AF088F9A6F86C
:10271000BA0028460AF083F9A6F8BC00AB68284640
:1027200013F8012B0A36AB6086F8B4200AF077F96B
:10273000A6F8B6004645E2D100F00FBC2C4D05F1DD
:10274000700695F8D01020460CF034F895F8D110AA
:1027500020460CF02FF895F8D21020460CF02AF8FD
:1027600095F8D31020460CF025F895F8D4102046A3
:102770000CF020F895F8D51020460CF01BF8073522
:1027800095F8CF1020460CF015F8B542D9D1E4E306
:10279000AA68073312F8010BAA6083F8C900AA6877
:1027A00012F8010BAA6083F8CA00AA6812F8010B9C
:1027B000AA6083F8CB00AA6812F8010BAA6083F81C
:1027C000CC00AA6812F8010BAA6083F8CD00AA68B1
:1027D00012F8010BAA6083F8CE00AA6812F8010B68
:1027E000AA6083F8CF008B42D2D102F099F8B4E30B
:1027F000A824002086190020E50C00202C1B0020B6
:102800000C0000C05021002018000020501C0020A7
:102810009E190020A4190020302A0020AB68284609
:1028200013F8012B9F4EAB609F4B83F8A0210AF059
:10283000F6F8A6F8200128460AF0F1F8A6F82201D9
:1028400028460AF0ECF8A6F8240128460AF0E7F832
:10285000A6F8260128460AF0E2F8A6F82A0128463A
:102860000AF0DDF8A6F82C0128460AF0D8F8A6F8F8
:102870002E0128460AF0D3F8A6F8300128460AF0BF
:10288000BFF8AB68284613F8012BAB6086F83621F9
:102890000AF0B6F828460AF0B3F828460AF0B0F86D
:1028A00028460AF0ADF858E380492046102286E019
:1028B00000257F4B2046595B023509F0ADFA102DFB
:1028C000F7D14AE37B4B2046D97A0BF073FF7A4B62
:1028D0007A4D197820460BF06DFF2968204609F0E3
:1028E000C5FA6968204609F0C1FA754B2046198877
:1028F00009F092FA734B2046198809F08DFA724B51
:102900002046198809F088FA27E3704B2046198879
:1029100009F082FA6E4B2046198809F07DFA6D4B5A
:102920002046197901F00101E6E26B4B2046196857
:1029300009F09CFA2046694BE3E7694B2046B3F95E
:1029400000104FF6FF7581F30801C9B20BF032FF9A
:10295000644B20461968A942A8BF294621EAE171C3
:1029600089B209F059FA604B2046198809F054FAE7
:102970004D4B93F87C215D4B19680029B8BF494243
:102980000AB10A235943A942A8BF2946204689B261
:10299000B8E7574D05F10A060135697820460BF076
:1029A00009FFE97A20460BF005FF2046697D0BF010
:1029B00001FFB542F0D1D0E24E492046302209F065
:1029C000FFF9CAE24C4B1B789D4280F0C6824B4B0C
:1029D0002046EA5C334B013503EB8203B3F84C101D
:1029E00009F01AFAEEE7444B1B789D4280F2B5825B
:1029F000424B404AEB5C0C2101FB03235E6B01352B
:102A0000304614F057FC314682B2204609F0D8F91E
:102A1000E9E70C33B3F5967F07D0394A1A44127AA6
:102A20008A42F6D120460BF0C5FE0135324B1B78A9
:102A30009D4280F09282314BE95C0023EDE7012555
:102A4000E9B2204601350BF0B5FE092DF8D184E23C
:102A5000AB6813F8011BAB6009B92A4B02E01029DF
:102A600003D1294B1E685D6801E000252E462046F3
:102A70000BF0A0FE3146204609F0F8F92946204621
:102A800009F0F4F9214B2046196809F0EFF900210B
:102A9000204609F0C1F90021204609F0BDF9204681
:102AA000002129E2302A0020A8240020162A002034
:102AB000B00D0020E50C0020AC230020401B0020BE
:102AC0008C2300209C2300209E230020961C0020A5
:102AD000981C002080190020882300205C1C002006
:102AE0002C1C0020401C0020FA1A0020341C00205E
:102AF0002F2A0020A88301086921002050210020EE
:102B0000D883010890230020341B0020141B0020D0
:102B1000AB68284613F8018BAB6009F071FF824661
:102B2000284609F06DFF8146284609F069FF0646F0
:102B3000284609F074FF284609F071FFAB6801339D
:102B4000AB60B8F1000F0FD1AC4B0122C3F8049079
:102B5000C3F800A0AA4B83F807801A73002E00F078
:102B6000FC81A84B1E60F8E1B8F1100F40F0F58130
:102B7000A54BC3F800A0C3F804900EB1A14B1E6092
:102B8000A148A24B0222011D1A7009F09FF9E4E14D
:102B90009B4B5B78002B40F0E08101200BF0B0F8FC
:102BA000DBE1974B5B78002B40F0D781984B4FF4DB
:102BB000C8721A80D1E1924B5A78002A40F0CD8138
:102BC00001229A73C9E18E4B5B78002B40F0C181E2
:102BD000002001210AF07CFFBFE18E4B8E499A89CB
:102BE0008E4B32B10A20B2FBF0F00988821A0A44F7
:102BF00000E00A881A868A4A8A48127900685A864A
:102C0000894A00251168894AB1FBF2F1B0FBF2F262
:102C10004FF47A7000FB0122DA86854B2046595B1F
:102C2000023509F0F9F8082DF7D196E1814D2046DB
:102C3000296809F01BF96968204609F017F9204650
:102C4000A96883E1754E204696F8389000254946DC
:102C50000BF0B0FDB0464D4517D2774E2046715D62
:102C60000BF0A8FD06F12003595D20460BF0A2FDF4
:102C700006F14003595D204660360BF09BFD715D07
:102C800020460BF097FD0135E5E7624B93F8AB3139
:102C9000012B40F06281694A002392F8DD50104612
:102CA00088F83850AB4202F1010215DA624992F815
:102CB000DD6092F8EDE05E5401F1200603F806E0D5
:102CC00092F8FDE001F1400603F806E092F80D618C
:102CD00060315E540133E5E7D0F820310022C8F8B6
:102CE000BC30D0F824313021C8F8C0305A230093CA
:102CF0000120134608F08EFF2FE1514B20461E683D
:102D0000464D16F0200609D0002109F0AFF8D5F89D
:102D1000C010D5F8BC302046C91A04E0314609F08D
:102D2000A5F82046314609F0A1F8D5F8C410204690
:102D300009F09CF82046D5F8C81007E1AB68354E7D
:102D400013F8012B2846AB6000237271B36009F0C1
:102D500057FEB368DFF8F0901843AB68B06013F823
:102D6000012B2846AB6086F8942109F058FEA6F89E
:102D70005601284609F053FEA6F85801284609F0E6
:102D80004EFEA6F85A01284609F049FEA6F8780139
:102D9000284609F044FEA6F87A01284609F03FFECD
:102DA000AB68A6F84E0113F8012B2846AB6089F8F2
:102DB0002320AB6813F8012BAB6089F82420AB68A3
:102DC00013F8012BAB6086F88121AB6813F8012B57
:102DD000AB6089F8492009F022FEB2898046904212
:102DE0003BD0184B2AB188B31868414606F0D4F995
:102DF00031E058B31868032142462AE090230020AE
:102E0000E50C0020141B0020341B0020301B002088
:102E10006E2B0020A82400207A2B0020801900208F
:102E20007C240020F0090020EC09002040420F0023
:102E3000B0190020E0090020B9190020F80F002087
:102E4000800B0020EC170020302A00201868012198
:102E5000642206F0B7F9A6F80C80AB6813F8012BD2
:102E6000AB6089F8302078E0504D204669790BF04E
:102E7000A1FCA968204608F0F9FF95F894112046B6
:102E80000BF098FCB5F85611204608F0C5FFB5F8D0
:102E90005811204608F0C0FFB5F85A11204608F036
:102EA000BBFFB5F878112046414E08F0B5FFB5F8E4
:102EB0007A11204608F0B0FFB5F84E11204608F010
:102EC000ABFF96F8231020460BF074FC96F8241004
:102ED00020460BF06FFC95F8811120460BF06AFC40
:102EE00096F8491020460BF065FCA989204608F0A9
:102EF00093FF96F8301020460BF05CFC2DE0002587
:102F00002A4B20462B4493F8821101350BF052FCDA
:102F1000082DF5D121E0AA6812F8011BAA60234A06
:102F20001A440133082B82F88211F4D115E00025F0
:102F3000204B2046595D01350BF03CFC0B2DF7D1A1
:102F40000021204608F092FF2046002108F08EFF65
:102F500003E0204629460BF053FCA28FA38D0332D9
:102F600092FBF3F103FB1123616BB4F84A2038465E
:102F7000CA5494F8481094F84A30594084F84810DC
:102F800003F039FAA38D28B1A3876368D86905F0E7
:102F9000F1FE07E0A28FA387074B22871A780AB9B0
:102FA00004221A7004B0BDE8F08700BFA8240020F6
:102FB000302A0020729501086C2B00202DE9F04F7B
:102FC000AE4E85B0B368AE4F13F0080803D1AD4CD8
:102FD0004546A14631E0002439E0AB4BE8B21B681E
:102FE0009847A0F2EE2240F2DC5392B29A4288BF98
:102FF000A24BD9F8902088BFB3F89801A34B134097
:10300000002B03DA013B63F0030301339D4A03EB1A
:10301000850322F813002288638801351344A288AF
:103020000834134434F8022C13441BB2042293FBDB
:10303000F2F327F8083008F1020896F8AA319D4209
:10304000CBDBD9F890300133C9F890300BE096F81B
:10305000AA319C4207DA8C4BE0B21B68984727F8EC
:1030600014000134F3E7B368864C13F4804F04D0A6
:1030700094F894300BB904F00BFE96F8A1217F4B25
:10308000E2B1033237F91200B3F8A251B0F57A7009
:1030900003D4A842A8BF284600E000200DF028FB7A
:1030A000804628460DF020FB014640460DF028FCE6
:1030B00077490DF071FB0DF05BFD14E093F8A4016E
:1030C00090B1744AD179744A32F81120B3F8A8113A
:1030D00092B2521A9002B3F8A631801A90FBF3F024
:1030E00000B280F30A0080B2B368A4F8AE0013F413
:1030F000024F63D0634B694DB3F8B09095F8083137
:10310000052253430FFA89F898453ADD644B5A7803
:103110009B46002A35D0594BB3F898313B807B80D1
:10312000BB80B5F80A31FB805E4B1A789A46032AB9
:1031300005D95D4806F05CFB03238AF8003095F85A
:10314000082195F80931134405225343984513DDAE
:103150009BF812B0BBF1000F0ED104F099FD504B5B
:1031600083F800B09AF80030042B05D94F4806F0D8
:103170003FFB4C4B04221A70B4F8B2300133A4F870
:10318000B23095F8083105225343984512DD444D7D
:1031900095F80180B8F1000F0CD104F079FD85F8A5
:1031A0000080404D2B78042B04D9404806F020FBCA
:1031B00004232B7009F10109A4F8B0900022B6F89D
:1031C0009A11B6F89C511346B85E9B088842C4BF5A
:1031D00063F07F03DBB20232A842B8BF43F0400382
:1031E000082AF1D194F8B400264A984205D192F801
:1031F000B500F92804D8013000E0002082F8B500BD
:1032000084F8B430B3681D4A13F48048234DB7F9ED
:1032100006300AD0B2F89811B2F84C21881A8342CD
:1032200006DD0A44934206DB02E08B4203DB17E033
:103230004FF0000814E00023C4F8B031C4F8B431F2
:10324000C4F8B831C4F8C030C4F8C430EB6C2BB14A
:103250000C4B93F89430002B40F084834FF001081E
:10326000EB6C43B394F894302BBB0D4B5B7813B3EA
:1032700096F89F31E3B104F00BFD1CE0A824002078
:10328000B00D00204C1A0020D40D00200300008057
:1032900000C07F44440B00204C0B0020302A00204B
:1032A000E50C00205C010020108501082385010841
:1032B000B8F1000FDFD194F8B5208C4B142A40F000
:1032C000A6808B4A50789146C0B1EA6C2AB993F82F
:1032D000B4305F2B01D104F0DBFC96F89E31002B5B
:1032E00000F09580EB6C002B40F0918094F8B430A6
:1032F0007D2B40F08C8004F0CBFC88E093F8B42068
:10330000572A15D17B4B4FF47A721A80B368DB05CC
:1033100001D501F017FE784B1B68580702D5774A94
:103320000A21118013F0080334D1754A138031E06B
:10333000B168490725D55A2A23D193F8B6202AB176
:10334000012283F8B60083F8B72023E093F8B82071
:10335000DFF8C4A182F0010283F8B8209AF80030A7
:1033600032B10A2B16D9674806F042FA0A2305E063
:103370000B2B0FD9644806F03BFA0B238AF8003078
:1033800008E05D2A00F0F6825B2A00F0F5825E2AF2
:1033900000F0F482EB6C33B994F8B4206F2A02D1B8
:1033A0000CF00CFB15E096F89E2122B11BB994F8A5
:1033B000B4307E2BF4D094F8B430972B04D1534B17
:1033C0004FF4C8721A8004E0A72B04BF012389F8C8
:1033D0000E3094F8B430BB2B02D1EB8D023303E0F6
:1033E000B72B03D1EB8D023BEB8509E0BE2B02D15D
:1033F000AB8D023303E0BD2B09D1AB8D023BAB8516
:10340000012001460AF064FB002384F8B530B0685F
:10341000420731D594F8B820344B8AB1344A5278F7
:1034200072B13B4AB7F90610B2F89A21914207DD12
:1034300093F8942022B93221A3F8BA1083F8B82067
:1034400094F8A520294B62B193F8BC202AB993F8CF
:10345000B62012B93222A3F8BA20012384F8BC3076
:103460000AE093F8B6203AB1214A527822B983F89B
:10347000B620012283F8B720264B002193F8149040
:1034800001220B464B4549DA07EB43052D8940F2F3
:10349000A46A0FFA85FCD44502F1010BD4BF4FF0AA
:1034A000000A4FF0010A0AFA0BFA40F2135BDC45FE
:1034B0004FF0030B0BFB03FBA5F21555ADB2CCBFD0
:1034C0004FF0000C4FF0010CB5F5C77F0CFA0BFC68
:1034D0008CBF0025012595404AEA0C0C4CEA050CEE
:1034E00041EA0C0101330332CCE700BF4C1A002043
:1034F000E50C0020E6170020800B0020E8170020D4
:10350000A0230020268501082B8501086E2B0020B2
:10351000A82400209C0B00205C01002000239D4D6E
:103520009D4A05EB8309D9F84C9002F1940C11EAFD
:10353000090F0CBF4FF000094FF0010903F80C9080
:103540000133192BA946EAD192F8AC30934D2B7573
:1035500023B1012382F89F3082F8963094F8953099
:103560008F4A53B98C4B4FF0050CB3F9B01099F852
:1035700008310CFB03F399421DDD11688B071AD546
:10358000EB7843B9C4F8C030C4F8C430834B4FF073
:10359000010C83F803C0000410D599F808314FF0EE
:1035A000050C0CFB03F3B4F9B000984206DD890664
:1035B00004D5012301E00023EB70AB7494F896303E
:1035C00075495BB10023EB702B7943B9C1F8C0306A
:1035D000C1F8C430714B0121197100E02B7194F8CE
:1035E00094300BB901232B7095F803C06D4BBCF1DF
:1035F000000F02D16949097911B11021596101E027
:103600001021196111684B0725D594F89720624B5A
:103610009AB1A87990B9614A4FF0010A82F806A0E0
:10362000614AC3F8D8001268C3F8DC00C3F8C820A8
:10363000B3F8D420A3F8CC2000E0AA71B3689804B2
:1036400009D594F898302BB1EB7B23B9534B012269
:10365000DA7300E0EB7311F00A0F20D094F8993080
:1036600053B16B794BB94D4B01225A714F4B1A88AC
:10367000494BA3F8E02000E06B7194F89A302BB12D
:103680006B7A23B9454B01225A7200E06B7294F8B1
:103690009B3023B1454B1A883F4BA3F8E2208906A3
:1036A00040F1F880EA7A3D4B002A00F0EE80404A73
:1036B0001278042A40F2E98094F9E42032B11A79B0
:1036C00022B9BCF1000F01D10122DA7094F89E20DA
:1036D000314BDFF8E8A01AB9AA7CDFF8C0B0CAB154
:1036E000EB79DFF8B8B0002B40F0BD803148012203
:1036F000011D8BF808308AF801308BF80720019201
:1037000008F0E4FB022384F8E4302B4B1B88C4F858
:10371000F0303BE08BF8072093F89F20002A4FD031
:10372000B3F9CE10B9F81C210029B8BF4942914223
:1037300046DAB3F9D0100029B8BF494291423FDAC6
:103740009BF80820002A40F08E80D3F8F4104FF048
:10375000010CC3F8E810D3F8F81003F1E800C3F83F
:10376000EC1003F1EC018BF808C08AF801200393F8
:10377000CDF808C0019208F0A9FB0F49039BDDF8C2
:1037800008C0098883F8E4C0C3F8F010019A8BF8E8
:10379000132068E0302A00204C1A0020E50C00209D
:1037A000800B0020000C014088230020A023002073
:1037B000AC230020902300208C2300205C010020FB
:1037C0009AF8011000232B7200294CD1764B01226C
:1037D0005A708C46754B002203F1FC002CF8002037
:1037E00003F581702CF8002003F583702CF800207D
:1037F00003F5867B002041F80B008B44CBF80420B6
:10380000CBF8080003F59A7B41F80B008B44CBF80A
:103810000420CBF808000CF1020C03F5AE7B41F854
:103820000B00BCF1040F8B44CBF80420CBF808004C
:1038300001F11401CED1297C11B90023EB7412E0FF
:10384000C3F88401C3F88801A3F88C21A3F88E2162
:10385000A3F890215649002353520C31535202329F
:103860000A2AF7D1E9E79AF800300C2B12D994F81C
:10387000AA317BB94F4805F0BBFF4B4B0C221A70A5
:103880004A4B012283F8AA2104E00023EB712B723A
:1038900084F8E43094F8A0302BB1AB7C1BB9464BD4
:1038A00001229A7201E00023AB72297C424B31B3B2
:1038B000B26800209205587221D599F808214FF07E
:1038C000060909FB02F2B4F9B0C0944517DD0122E4
:1038D000DA703A4A9872B2F8980182B23A807A80E5
:1038E000BA80374AB2F80A21FA80DA7A3AB9354F03
:1038F0003F78052F03D89A74334B32381880B2685A
:103900002E4BD2064BD56A78002A48D0002946D1E2
:10391000B8F1000F1FD02D49D4F8AC2109684AB97D
:1039200093F876314FF47A7202FB03121F4BC3F8FF
:10393000AC2106E08A4204D293F876310BB104F050
:10394000A7F9194C2378092B29D9214805F050FFF4
:103950000923237023E0D4F8AC3103B3134BC3F82D
:10396000AC811CE0144B1B78002B3FF477AC0CF0BF
:1039700025F873E4012202E0022200E003225FFA4C
:1039800082FA00200AF1FF33014686F868350AF012
:103990009FF802202821524604F056FEFAE4002047
:1039A00005B0BDE8F08F00BF5C0100204C1A00207C
:1039B000DE1B002032850108E50C0020A824002031
:1039C000302A0020AC230020B00D00206824002005
:1039D000238501082DE9F04F7A4C87B0A3689D0735
:1039E00040F19580784D794B06221F882B681F4443
:1039F0002B792F600133DBB2B3FBF2F62B7102FBA4
:103A0000163313F0FF0667D1DFF80C92D5F808A043
:103A100099F80130DFF8048250464FF0785138F8B9
:103A200013B00CF0B9FE014650460CF0ABFD1FFA86
:103A30008BFB824658460CF05BFE65490CF0ACFEF1
:103A400064490CF05DFF834694F87D010CF050FE54
:103A5000014658460CF0A0FE014650460CF094FD7D
:103A60004FF07851A8600CF097FE0DF081F894F8B3
:103A70008131A88183B399F80530B4F8781138F80A
:103A8000132040F6E44392B25A4340F6FF73B2FB70
:103A9000F3F2B4F87A312869D21A4FF47A735A43A0
:103AA000B2FBF1F2082190FBF1FECEEB00000244E4
:103AB0002A6192FBF1F25743D5E9060197FBF3F334
:103AC000C01841EBE3716A61C5E90601424A00236F
:103AD0000DF06EF82E602862404AAB8912889A4237
:103AE00008D33F4D2B78012B11D93E4805F080FEBD
:103AF00001230BE03C4A12889A4208D3384D2B78B8
:103B0000022B04D9394805F073FE02232B70384E7E
:103B1000737B5BB3324D2B78082B27D9A368D8056C
:103B20001FD5344BDB7AE3B1334B1878042818D90E
:103B30000023324905275A185F540F275770122B5C
:103B400003F10207FAB204D0B0EB520F3B46F0D8B3
:103B500000E014220A4464235370F0239370274832
:103B600000E0274805F044FE08232B70254B1A88F7
:103B70001AB1254B1B68990707D4244B1B8823B91E
:103B8000234B1B780BB107F001FB224B1A7832B1A3
:103B90000D4C94F82430002B00F01383C1E2A2688E
:103BA000084B1205F4D51A4A1278002AF0D093F87F
:103BB000BB21002A3AD193F8BC318BBB0D4B5B780B
:103BC0002FE000BFA8240020201C00207A2B00201A
:103BD0003333534000F07F45407E0500560B0020F4
:103BE0005C0100204D850108540B00205085010820
:103BF000E01A0020E50C0020AC230020081C002067
:103C0000418501086E2B0020800B0020E617002064
:103C1000E4170020782B0020440B00204C0B0020E0
:103C2000337D003318BF0123002BB1D094F8BA3193
:103C3000002B40F06781C24BD86802F003FB0028DC
:103C400040F06081BF4AC04D1368A96A591A7C29A7
:103C500040F25881AB6295F82C300746013385F865
:103C60002C3007F12400C0B205F06EFDB74BB64E04
:103C7000B3F898000CF03CFD06F13008014658F806
:103C800027000CF03DFEB2490CF086FD0CF04AFF17
:103C9000013700B205F084FD032FE2D1302005F09A
:103CA00053FDB6F93C0005F07BFD05F05BFD96F891
:103CB0002C0010F0030828D1102005F045FD336CCE
:103CC000642793FBF7F000B205F06AFD212005F0B0
:103CD0003BFD336C93FBF7F007FB103787EAE77087
:103CE000A0EBE77000B205F05BFD142005F02CFDA1
:103CF000984BB3F9000005F053FD1C2005F024FD9E
:103D0000404605F04DFD05F02DFD95F82C308E4E0A
:103D10005B0740F0D180022005F016FD8E49706CE3
:103D20000CF0EEFD0CF0FEFE00B205F039FDA368CC
:103D30009F075ED5B3896E275F43152397FBF3F783
:103D4000BFB24FF0640B3A2005F0FEFCB7FBFBF866
:103D50000FFA88F005F024FD3B2005F0F5FC0BFB85
:103D6000187080B24FF00A0805307C4F90FBF8F0D5
:103D700000B205F015FD3B78B28940F6340192FBA4
:103D8000F3F24A432A21B2FBF1F2B6F848100620BA
:103D900091FBF3FB03FB1B1B4FEA0B1B1FFA8BFB77
:103DA0004BEA022B1FFA8BFBC2F303224BEA020BF6
:103DB00005F0CAFC0FFA8BF005F0F2FCB6F84820CB
:103DC0003B78013292B292FBF3F103FB11232820DE
:103DD000A6F8483005F0B8FC706990FBF8F000B226
:103DE00005F0DEFC042005F0AFFCB6F9200005F07C
:103DF000D7FC5B4B1B6898065CD55A4FDFF86C818B
:103E00003B68594E002BB8BF5B4293FBF8F106FBB1
:103E100001334FF03C0909FB03FA1320039105F02D
:103E200093FC039964229AFBF8FB02FB01B000B2F9
:103E3000039205F0B5FC1B2005F086FC06FB0BA3E6
:103E40004FF47A7B93FBFBF000B205F0A9FC232032
:103E500005F07AFC38680028ACBF4E20532005F0EE
:103E60009FFC7B681220002BB8BF5B4293FBF8FAE3
:103E700006FB0A3309FB03F905F066FC039A99FB7C
:103E8000F8F802FB0A8006FB089800B205F088FCEF
:103E90001A2005F059FC98FBFBF000B205F080FCFD
:103EA000222005F051FC78680028ACBF452057203F
:103EB00005F076FC05F056FC95F82C30282B21D126
:103EC000214B002283F82C201E4A4FF47A73176886
:103ED0003C25B7FBF3F7172005F036FCB7FBF5F6EA
:103EE000B6FBF5F005FB1060000200B205F058FCCF
:103EF000182005F029FC05FB167000B205F050FCF7
:103F000005F030FC94F8BA31012B7FF441AE0C4C33
:103F1000E06802F097F900283FF43AAEE468636B7A
:103F200023B19B6820469847054637E0A368201DCB
:103F3000F3B10DF117019847003018BF01202CE0B4
:103F40009C0B002068240020201C0020180000206A
:103F500000007A44A0230020000020411600002029
:103F6000800B0020401B0020806967FF809698002E
:103F7000226A7AB101210DF1170005F01BFC0546FC
:103F8000206A02F06AF9E38D834205D8606A04F082
:103F9000F1FE01E0104600E02846C5B2052002F01F
:103FA00069FC8A2D31D08E2DB1D1B04C00212E224A
:103FB00004F17A0012F0FAFF7C2384F87A30E023CF
:103FC00084F87D307D2384F8A630A38984F87B5063
:103FD000DAB21B0A84F8993084F88F30142384F8FD
:103FE000923084F893304FF4FA73A4F89430482355
:103FF000A4F89C30782384F8982084F88E2084F8E4
:104000009E3004F17A002E2188E0994B1B689906B6
:104010007FF57DAF954C002104F14A002C2212F06F
:10402000C5FF7C2384F84A30A02384F84D307D23DB
:1040300084F875308F4B84F84B501B7884F86430CB
:104040008D4BDB7A002B64D08C498D480A688D4EED
:1040500092FBF0FC5FFA8CFC06FB0C2706256F43F5
:10406000662384F87330D30F84F8533042F2107310
:10407000B7FBF3FE03FB1E77496884F8567091FB8B
:10408000F0F03F0AC0B284F85770CF0F06FB001162
:104090006943B1FBF3F503FB151384F85B301B0A8E
:1040A00084F85C30784B64221B885FFA8EFEE9B29C
:1040B00002FB0CEE02FB0011B3FBF2F224235A4385
:1040C000B4F876301FFA8EFE84F85D301B0A84F84F
:1040D0005E306E4B89B21B8892B284F85F301B0A47
:1040E00084F86030B4F8783084F854E084F85910DB
:1040F0004FEA1E2E090A84F85120120A84F855E06E
:1041000084F8587084F85A1084F8522084F8663085
:1041100002E0202384F873305D482C2103F0AEF8D0
:10412000F5E6D4F8B020002384F824305362D3623B
:104130001363C4F8B030574B1E68574B1D78002DE1
:104140003FD101272946642204F5B0701F7012F098
:104150002DFF84F860710720009529464F4A04F529
:10416000B07304F0B7FD04F5B077C4F8880108B166
:104170004B4B0360802005F0ABFA3C4DC4F8840142
:10418000F8B1331DC5F88031464BB7623363464BF7
:1041900001207363202112F007FCC5F8900118B9C3
:1041A000424B03221A700CE0202385F88F31404BDC
:1041B0004048C5F8B831404B0021C5F8BC3105F086
:1041C00027FB94F8C43123B106F016F93B4A3C4B67
:1041D000DA603C48D0F880300BB13B4998473B4A05
:1041E000234D138813B12B689A0702D4384B1B88D0
:1041F00013B100F046FB0AE01F4B9A7812B1354A22
:10420000082111615B7813B1324B08225A6194F88E
:10421000C53123B1154A013B82F8C5310BE0164B7D
:104220005A7B1AB99A7000F02CFB01E001229A70B7
:10423000092384F8C5312B689B0613D594F8C63141
:1042400023B10A4A013B82F8C6310BE0094B1B78C7
:10425000042B04D91F4BDA6882F01002DA600223C3
:1042600084F8C631002007B0BDE8F08F201C002084
:10427000800B0020AC230020E50C0020401B002018
:10428000A08601006079FEFF9C2300208C23002083
:104290006A1C00209C0B0020782B002087EA000875
:1042A0004D960108E98E0008EDD900086C2B00201E
:1042B0005885010856960108519601080400FA0530
:1042C00000ED00E018000020641C00206E2B002090
:1042D000E6170020000C014010B5094A094913688F
:1042E0008C6812689342F8D1074A106811684FF43D
:1042F0007A725043001BB0FBF1F002FB030010BDCB
:104300006424002010E000E0000B0020034B4FF479
:10431000805208B11A6170475A6170470008014025
:10432000034B4FF4805208B15A6170471A617047CD
:1043300000080140014B33F810007047B00D002019
:1043400007B50F4B02A941F8040D18684368984758
:1043500003680C4AB3F5967FC8BF4FF0FF33019353
:10436000019B1360084B18680BF070FD0022074B8F
:104370000BF0FCFE0CF0B2F803B05DF804FB00BFDC
:1043800008130020440100201C2000200000594098
:1043900008B5094BB0F5967FC8BF4FF0FF301860E5
:1043A000064B18680BF052FD0022054B0BF0DEFEA9
:1043B0000CF094F808BD00BF440100201C20002030
:1043C00000005940034B184490F88221024B33F807
:1043D00012007047A8240020E4200020014B0D2289
:1043E0001A7070475C01002003789B070AD5826C25
:1043F000831883F85811C36B0132B2FBF3F103FB4E
:10440000112383647047037813F001030BD0426CCF
:10441000036C9A4205D09CBF806B1218D31AD8B295
:1044200070470020704718467047037810B513F0A6
:10443000010304460FD0FFF7E6FF68B1236CE218D2
:1044400092F85400A26BC0B2013A934234BF0133D8
:104450000023236410BD184610BD826CC06C121A74
:104460005042504170470170704770B50B78044658
:10447000012B314D51D14B78022B1BD0122B4CD13B
:1044800000F13801D1E9000100222C4B0BF06EFE47
:104490000CF004F82A4B00221880284BD4E91001B4
:1044A0000BF03AFD0BF0FAFF264B18802B7843F007
:1044B000020331E090F859302349C3F30003DAB224
:1044C000CB7202B31AA3D3E9002300F12001D1E992
:1044D00000010BF021FD0BF0B9FF15A3D3E9002378
:1044E0001A4E3060D4E90A010BF016FD0BF0AEFF56
:1044F000174B94F8582070601A70D4E90C010BF037
:10450000CDFF144B1880A36C134A1360134BE26C5D
:104510001A602B7843F001032B702B780020032BBB
:1045200002D1054B1870012070BD00BFAFF30080B1
:1045300000000000D0126341E81D0020000024406C
:104540009C2300209E230020E50C0020401B00201F
:10455000AC2300208C230020441A0020481A00209D
:10456000032970B504462C4D1BD00A2946D100F111
:104570003001D1E900010022284B0BF0F7FD0BF0D0
:104580008DFF274B00221880244BD4E90E010BF03D
:10459000C3FC0BF083FF234B18802B7843F00203FE
:1045A0002BE090F851302049C3F30003DAB2CB720C
:1045B00002B317A3D3E9002300F11801D1E90001E8
:1045C0000BF0AAFC0BF042FF11A3D3E90023174E16
:1045D0003060D4E908010BF09FFC0BF037FF144B5F
:1045E00094F8502070601A70D4E90A010BF056FF5D
:1045F000104B18802B7843F001032B702B78002090
:10460000032B02D1044B1870012070BDAFF3008062
:1046100000000000D0126341E81D0020000024408B
:104620009C2300209E230020E50C0020401B00203E
:10463000AC2300208C2300200A4B10B553F8200037
:1046400000244268138823F001031B041B0C138011
:1046500083681C800368198013889BB243F00103B0
:10466000138010BD040D0020024B53F820301B684E
:1046700019807047040D0020074BA1F57A7153F89B
:1046800020304FF47A701A689B894B4393FBF0F308
:104690009BB21380704700BF040D002001207047BB
:1046A00001207047054A064B128808B11A6100E0E4
:1046B0005A61044B00221A70704700BFF41D00209D
:1046C000000C01401723002008B502F100620846E3
:1046D00002F5F8311A460BF0F1F9012008BD013A54
:1046E0002DE9F84305460C46072A58D8DFE802F0C2
:1046F000040C141E2C353D45B0F900000BF0F8FFFA
:104700002060B5F9020019E0B0F902000BF0F0FFEB
:104710002060B5F9000007E0B0F9000040420BF05E
:10472000E7FF2060B5F90200404207E0B0F902005F
:1047300040420BF0DDFF2060B5F900000BF0D8FF20
:104740006060B5F9040027E0B0F9000040420BF0CA
:10475000CFFF2060B5F9020018E0B0F902000BF0BD
:10476000C7FF2060B5F9000010E0B0F900000BF0C1
:10477000BFFF2060B5F9020007E0B0F90200404237
:104780000BF0B6FF2060B5F9000040420BF0B0FF1F
:104790006060B5F9040040420BF0AAFFA0602E4B08
:1047A0001B78002B55D12D4DD4F800802968404648
:1047B0000BF0F2FF67688146E96838460BF0ECFFC2
:1047C000014648460BF0E0FEA6688146A9693046DE
:1047D0000BF0E2FF014648460BF0D6FE0EF0E0FD7E
:1047E0000BF086FF2060696840460BF0D5FF296911
:1047F000814638460BF0D0FF014648460BF0C4FE18
:10480000E969814630460BF0C7FF014648460BF088
:10481000BBFE0EF0C5FD0BF06BFF6060A968404663
:104820000BF0BAFF6969804638460BF0B5FF0146C8
:1048300040460BF0A9FE296A074630460BF0ACFF54
:10484000014638460BF0A0FE0EF0AAFD0BF050FF1B
:10485000A060BDE8F88300BF17000020580B0020BF
:1048600008B5436B0BB15B69984708BD426B08B54F
:1048700012B1D368984702E04268043090470120A3
:1048800008BD034BDA6882F00802DA60704700BFA7
:10489000000C014008B5024B1B68984708BD00BFDB
:1048A000702B002009B1012000E00846F2E72DE955
:1048B000F0410F88002347FA03F2D2072BD58A78FC
:1048C00003F0070512F0100F18BF91F803C002F0B3
:1048D0000F0618BF46EA0C06AD004FF00F0C0CFA9D
:1048E00005FC06FA05F5DC0850F82480282A28EA99
:1048F0000C0C45EA0C0540F8245005D101229A40E1
:10490000C46824EA020205E0482A04D101229A4040
:10491000C4682243C2600133102BCCD1BDE8F081C2
:1049200038B500240E4D21460E4870222C7012F02E
:104930003DFB21460C4B0B4493F9D2207AB1094838
:1049400053F8D04F0A180C5098889B79073193710F
:104950002B78702903F1010390802B70EAD138BDC8
:10496000740C0020750C0020A824002010B5002431
:10497000094B1B78A3420DD9084B33F81410084B90
:104980001B78A34203D9074B20461B689847013484
:10499000E4B2EDE710BD00BF142A0020162A002063
:1049A000030D0020AC0D00202DE9F04F0C6883684A
:1049B00089B0D0F800A0D0F80480064620460393C2
:1049C0008B460EF0B7FC074620460EF027FDDBF8BD
:1049D0000440814620460EF0ADFC054620460EF010
:1049E0001DFDDBF808200446104601920EF0A2FCE3
:1049F000019A834610460EF011FD39460290584642
:104A00000BF0CAFE3946049002980BF0C5FE5946D9
:104A1000059048460BF0C0FE0299069048460BF000
:104A2000BBFE2946079058460BF0B6FE014650469D
:104A30000BF0B2FE2146834606980BF0ADFE014610
:104A400005980BF0A1FD014640460BF0A5FE01467E
:104A500058460BF099FD2146834604980BF09CFEC6
:104A6000014607980BF08EFD014603980BF094FE6B
:104A7000014658460BF088FD3060029905F1004070
:104A80000BF08AFE014650460BF086FE2146834617
:104A900007980BF081FE014604980BF073FD014668
:104AA00040460BF079FE014658460BF06DFD21465D
:104AB000834605980BF070FE014606980BF064FDE6
:104AC000014603980BF068FE014658460BF05CFD6A
:104AD0002146706050460BF05FFE2946044609F1FE
:104AE00000400BF059FE014640460BF055FE0146D2
:104AF00020460BF049FD3946044628460BF04CFE93
:104B0000014603980BF048FE014620460BF03CFDA1
:104B1000B06009B0BDE8F08F2DE9F84F384E04467B
:104B2000376838460EF006FC054638460EF076FC2F
:104B30007668804630460EF0FDFB834630460EF028
:104B40006DFCD4F804900646294648460BF024FE36
:104B5000A7688246414638460BF01EFE0146504685
:104B60000BF010FD2168824658460BF015FE4146B9
:104B7000044648460BF010FE31460BF00DFE014690
:104B800020460BF001FD3146044638460BF004FE8A
:104B900029460BF001FE014620460BF0F5FC0146CC
:104BA00050460EF0CBFC17490BF0F6FD0BF060F908
:104BB00011A3D3E900230BF0D9FA134B0446D3F821
:104BC000AC000D460BF054F902460B462046294630
:104BD0000AF0F0FF00220D4B0BF0C8FA0BF07EFC40
:104BE0000EF0DEFB83B2190444BF00F5B4739BB230
:104BF00018B2BDE8F88F00BF182D4454FB210940BE
:104C0000B41800200000E1441800002000002440F7
:104C100080EAE073A3EBE0738B4206DB002801DD42
:104C2000401A704702D0084470470020704770B5A2
:104C30000546441E14F8011F61B1074E304612F0BC
:104C400061FA0028F6D0861B0448631B304480F8C4
:104C50008231EFE770BD00BFBB9E0108A824002091
:104C600070B540F26C55284611F0DEFE044660B384
:104C7000174E4C213068C3699847024610B330681C
:104C80002146066A2B46B047E0B123784C2B19D158
:104C90006388AB4216D12379BE2B13D194F86A35C1
:104CA000EF2B0FD100231A4640F26C518B4203D0F8
:104CB000E15C01334A40F7E722B9204611F0BCFE1F
:104CC000012070BD204611F0B7FE002070BD00BF6E
:104CD00004180020024B1A6810431860704700BF88
:104CE000800B00202DE9F04102780346202A00F1D4
:104CF0000100F9D0092AF7D02D2A02D10346414DEF
:104D000004E02B2A08BF03464FF07E551E460024C0
:104D1000334616F8012BA2F13007F9B209290DD854
:104D2000394920460BF038FD044638460BF0E0FCCC
:104D3000014620460BF028FC0446E9E72E2A17D14D
:104D4000314F334616F8010B3038C2B2092A0FD85A
:104D50000BF0CEFC39460BF0D3FD014620460BF09C
:104D600013FC2949044638460BF016FD0746E8E7D0
:104D70001A7802F0DF02452A38D15A782D2A02D15A
:104D80000233012604E02B2A14BF0133023300262C
:104D9000013B002713F8012F303AD1B2092903D87B
:104DA0000A2101FB0727F5E7B7F59A7F28BF4FF4E3
:104DB0009A77B8464FF07E51B8F1070F07D90846E9
:104DC00012490BF0E9FCA8F108080146F4E707F0E6
:104DD000070737B108460C490BF0DEFC013F0146DE
:104DE000F7E72EB120460BF08BFD04E04FF07E512B
:104DF00020460BF0D1FC014628460BF0CDFCBDE867
:104E0000F08100BF000080BF0000204120BCBE4CEC
:104E100070B50646B6FBF2F40846154614B12046B6
:104E2000FFF7F6FF05FB1464024B1B5D00F8013B26
:104E300070BD00BFB498010890F85B3210B57BB923
:104E400090F85A3290F85922934209D201219940A0
:104E5000B0F8604201332143A0F86012DBB2F3E7FF
:104E600010BD90F862321BB1D1F1010138BF0021B1
:104E7000D0F854315A689B6809B113617047536187
:104E80007047F8B5101A0C461F460BF031FC05466A
:104E9000381B0BF02DFC184B079E19680BF07CFC9F
:104EA0002946044628460BF077FC21460746204653
:104EB0000BF072FC014638460BF066FB0EF0DEFC90
:104EC0000E490BF069FC0BF02DFE069B2146186085
:104ED00005F100400EF032FB09490BF05DFC094979
:104EE0000BF052FB0BF01EFE0028BCBF00F50C407F
:104EF000A0303060F8BD00BF640100202C7D8E3FE3
:104F0000A00CB34500A00C4610B50BF0F1FB00213E
:104F100004460BF0FDFD08B1204601E004F100401D
:104F200005490BF0EDFC05490BF036FC0EF002FADA
:104F3000034B186010BD00BF8096184B35FA8E3CAD
:104F40006401002038B50C4DEB7AA3B10B4B1B78F4
:104F5000042B10D90A4B0B4C18685B682060636007
:104F6000FFF7D2FF084B1A88084B1A80084B1B88A2
:104F7000A36001232B7338BDE50C0020AC23002077
:104F8000401B002090230020A0230020CE1F0020E3
:104F90008C23002044F25063984203DDA0F50C40BE
:104FA000A0387047034B9842BCBF00F50C40A030BE
:104FB000704700BFB0B9FFFF70B52D4C2D4D607923
:104FC0000BF092FB2C490BF09BFC2860E07B0BF074
:104FD0008BFB29490BF094FC284E6860EE60A079A9
:104FE0000BF082FB26490BF08BFC264D2860207CC1
:104FF0000BF07AFB20490BF083FC6860A07E0BF07D
:1050000073FB21490BF07CFCEE60A860E0790BF0AB
:105010006BFB1B490BF074FC1C4D2860607C0BF093
:1050200063FB15490BF06CFC6860E07E0BF05CFBE9
:1050300015490BF065FC164BA8601B7CEE60ABB10C
:1050400020790BF051FB0E490BF05AFC114D2860F2
:10505000A07B0BF049FB08490BF052FC6860207EF6
:105060000BF042FB08490BF04BFCA86070BD00BF81
:10507000302A0020A01F00200000C8420000FA448F
:1050800000002041B01F002000007A444819002091
:10509000E50C0020341900202DE9F0472F4A0023A9
:1050A00092F82050D47F03FB03F01938684300F6D0
:1050B000C4105843604340F6C41190FBF1F02849F6
:1050C00021F813000133072BEDD192F82110254B65
:1050D0000A274F43B3F84051B3F8429192F8226047
:1050E000C1F1640C48425FFA8CFCC6F16408C5EB60
:1050F000090980B2002384B222B2002A04DC002C09
:1051000014BF0C46012400E0644602FB02FA64432B
:105110000AFB06FA9AFBF4F4444454434FF00A0A9B
:1051200094FBFAF43C4424B204FB09F44FF47A7281
:1051300094FBF2F40C4A2C449C5202335044182B3A
:1051400080B2D8D1054BBDE8F0471B78012B18BFC2
:10515000064A074B08BF074A1A602DE7302A00208D
:10516000E4180020A8240020FC18002031CA000800
:10517000580100209DCC00080449054B0968002215
:1051800018701A615961DA601A7670476824002035
:10519000DC0F00200A4B1B7883B10A4B9A89988157
:1051A0001A89D007FCD5074B9889C0B2054B1A89DC
:1051B0009107FBD51A891206FCD470471846704730
:1051C000120B002000380040054B1B7833B1054B13
:1051D0004FF4805208B15A6170471A61704700BF9E
:1051E000120B0020000C014038B5044601200D468A
:1051F000FFF7EAFF2046FFF7CDFF2846FFF7CAFF7B
:105200000020FFF7E1FF012038BD054B1B788342EA
:1052100004D9044B53F820301B681980704700BF35
:10522000340D0020380D002003280E4B09D80E4AFB
:1052300012888A4205D2012202FA00F05A781043FD
:1052400058705B780F2B0BD1064B00225A70074B1E
:10525000198808B2142802DD1439198070471A80A1
:10526000704700BFE81D002040010020FC1A00200C
:1052700038B50D4C23689847616805460BF020FC53
:1052800088B90A4928460BF087FA09490BF07CF9DE
:1052900008490BF035FB01464FF080400BF030FB26
:1052A000054B6560186138BDEC1D00209A99193FC7
:1052B000CDCCA54300401C4618230020F0B5434B3D
:1052C00085B01B6805460F460BB909221FE0404C0C
:1052D000002120222046002611F068FE00960220C0
:1052E00032213C4A234603F0F5FCE06000286AD0F6
:1052F000394A0260394A1388591C2381384B11807E
:105300002361384B2360384B63601DB90122374B52
:105310001A7058E0294603F03FFFE36802251E712A
:10532000334B01240722334E5A731F601C815D8169
:105330001C733148102303A98DF80E303560ADF889
:105340000C408DF80F50FFF7B2FA04232A4803A946
:105350008DF80E30ADF80C50FFF7A9FA274B9A687C
:1053600022F0F0029A609A6842F010029A60326865
:10537000C3F81424D3F80004D1430840C3F8000450
:10538000D3F804040840C3F80404D3F8000410431D
:10539000C3F80004D3F808040840C3F80804D3F89D
:1053A0000C040140C3F80C14D3F808142046114330
:1053B000C3F80814D3F80C140A43C3F80C24104B98
:1053C00080221A6000E0002005B0F0BDF409002042
:1053D00018230020C5C50008D99801080400002042
:1053E00031D46842A5460008715200086C2B002099
:1053F000EC1D002038230020000C0140000001407B
:1054000000E100E070B50468294D037BAC420DD08B
:10541000B4F1804F0CD0A5F59435AC420AD005F517
:105420008065AC4214BF0424032404E0002402E09D
:10543000012400E0022433B1042B31D0082B31D0F9
:105440000C2B0BD130E01D46042C07D0194E05EB78
:10545000840406EB0414A26123752177027B0368A0
:105460000C2A23D8DFE802F0072222220C22222273
:105470001122222216009A8992B242F002020DE015
:105480009A8992B242F0040208E09A8992B242F0FC
:10549000080203E09A8992B242F010029A8170BD2C
:1054A0000125D1E70225CFE70325CDE770BD00BF79
:1054B000002C0140EC1D00202DE9F74F85680446C3
:1054C00068688A4693461E4600283CD0EB6A002B4B
:1054D00038D10122EC62984622712EB3B5F828909B
:1054E00020784E4538BFB1465FFA89F9CDF8009073
:1054F00008EB0A0101220BEB08036F68B84708B1FB
:1055000002280CE0114B19682279012A05D118688C
:105510006288401A9042F7D90AE02379032B07D01A
:10552000C844C9EB0606D8E7EE62012026710AE0FE
:105530002B88002001332B80054B0A22E8621A7069
:10554000207100E0002003B0BDE8F08F6824002047
:105550006C2B00200123AFE7AEE737B506230546E5
:105560000C46806843216A46FFF7F6FF40B39DF87A
:1055700001309DF800009DF8022003EB00209DF80B
:1055800003309DF8041003EB02229DF8053080B231
:1055900003EB012392B29BB220806280A380297822
:1055A00069B100B290FBF1F12180297812B292FB2F
:1055B000F1F262802A781BB293FBF2F3A380012000
:1055C00003B030BD37B5062305460C4680683B2145
:1055D0006A46FFF7C1FF40B39DF801309DF8000017
:1055E0009DF8022003EB00209DF803309DF8041085
:1055F00003EB02229DF8053080B203EB012392B247
:105600009BB220806280A380697869B100B290FB70
:10561000F1F12180697812B292FBF1F262806A782E
:105620001BB293FBF2F3A380012003B030BD30B571
:1056300085B005460C464068062101AAFFF78AFF9F
:1056400008B39DF8040010F001001CD06868002128
:1056500002AA0623FFF780FFA8B19DF809209DF854
:105660000830012003EB022323809DF80B209DF8D6
:105670000A3003EB0223A3809DF80D209DF80C3027
:1056800003EB0223638005B030BD37B504460D46F9
:10569000006909216A46FFF75DFF08B9002039E07B
:1056A0009DF80030DB07F9D5206903216A460623FF
:1056B000FFF752FF0028F1D09DF801309DF800005F
:1056C00003EB002000B20BF013F821680BF064F834
:1056D0000BF028FA9DF8033028809DF8020003EBB8
:1056E000002000B20BF004F8A1680BF055F80BF0A5
:1056F00019FA9DF80530A8809DF8040003EB0020FE
:1057000000B20AF0F5FF61680BF046F80BF00AFAF8
:105710006880012003B030BD2DE9F743C468054619
:1057200094F82E30013B032B00F2EB80DFE803F00E
:10573000021C3059754B4FF000021B6860682363F0
:10574000012363F30102237AF42163F38402637A71
:1057500063F34712D2B200F0F3FE002800F0D180CC
:10576000022384F82E30CCE06068F3216A46FFF70C
:10577000F1FE002800F0C5809DF800301A0740F1C6
:10578000C080032384F82E30284603F0F3FAB8E0F3
:105790006068F7216A460623FFF7DEFE002800F066
:1057A000B0809DF800309DF801201B0343EA0213EE
:1057B0009DF80220042643EA121363639DF8033028
:1057C0009DF804201B0343EA02139DF8052084F88A
:1057D0002E6043EA1213A363284603F0CBFA304647
:1057E00090E0A26B268AB4F91A10C6EB22135B4331
:1057F0007600C6EBE202B4F912601B135643B4F90B
:105800001420B4F8208053439B1303EBE626721058
:10581000A2F57A42901040434FEA603909FB01F14A
:10582000B4F91890A66202FB09F94FEA690909EB7D
:10583000E1018914B4F8169001F5004109FB01F16A
:10584000C913636BB4F81EC0A78B36D00FFA8CFC5B
:105850000CFB02F20FFA88F85200C01208FB00207D
:105860003F0407EBA0075B4240F63542A3EB27332A
:10587000534303F1434313F5A0034DBFB3FBF1F3CF
:105880005B00B3FBF1F35B00DA085243B4F9261076
:10589000500B4843B4F924109A085143491301EBC3
:1058A0002030B4F92210084403EB20100AF01CFF4A
:1058B00017490BF025F8804601E04FF00008E76B30
:1058C00067B10520464306F1800000120AF010FF80
:1058D0000F490BF015F801464046B8470B4B1868C6
:1058E000236BC01AA38D80B2984202D2181A80B2DC
:1058F00003E0284603F03EFA0420012384F82E300A
:1059000000E0042003B0BDE8F08300BF682400205D
:105910000000C84213B5104A044610480D218260A9
:105920000022027101230DF107020170FFF714FE3E
:1059300070B19DF80730FF2B0AD1094B0120C4F844
:105940009C30084BC4F8A030074BC4F8A43000E0EA
:10595000002002B010BD00BF140B0020C4220020A4
:10596000E198010895B80008D9D9000837B5062391
:1059700005460C46806843216A46FFF7EDFD40B3BB
:105980009DF801309DF800009DF8022003EB0020F7
:105990009DF803309DF8041003EB02229DF80530BA
:1059A00080B203EB012392B29BB220806280A3807D
:1059B000297869B100B290FBF1F12180297812B207
:1059C00092FBF1F262802A781BB293FBF2F3A38080
:1059D000012003B030BD37B5062305460C4680686C
:1059E0003B216A46FFF7B8FD40B39DF801309DF8B2
:1059F00000009DF8022003EB00209DF803309DF885
:105A0000041003EB02229DF8053080B203EB012362
:105A100092B29BB220806280A380697869B100B2A3
:105A200090FBF1F12180697812B292FBF1F2628071
:105A30006A781BB293FBF2F3A380012003B030BD60
:105A400037B5062305460C4640681D216A46FFF718
:105A500083FD28B39DF801309DF800009DF80220D9
:105A600043EA00209DF803309DF8041043EA022227
:105A70009DF80530208043EA01236280A3802978C5
:105A800069B100B290FBF1F12180297812B292FB4A
:105A9000F1F262802A781BB293FBF2F3A38001201B
:105AA00003B030BD37B514461D460DF10702012382
:105AB000FFF702FD58B1E3B201209DF8072000FA7C
:105AC00003F3240A42FA04F4013B1C402C7003B097
:105AD00030BD10B50446054800F0AAFC20B1044BC7
