:020000040800F2
:1000000000500020E52A0108852B0108F1EF0008C7
:10001000852B0108852B0108852B010800000000B5
:10002000000000000000000000000000852B010817
:10003000852B010800000000852B010855EE000803
:10004000852B0108852B0108852B0108852B0108CC
:10005000852B0108852B0108852B0108E5E60008A2
:10006000852B0108852B0108852B0108852B0108AC
:10007000852B0108852B0108852B0108852B01089C
:10008000852B0108852B0108852B0108852B01088C
:10009000852B0108852B0108852B0108E1E6000866
:1000A000852B0108852B0108852B0108D3E6000864
:1000B000C9E60008BDE60008B1E60008EDEF00085B
:1000C000E5EF0008E9EF0008E1EF0008852B0108E3
:1000D000852B0108FDED0008A1ED00083DED0008AD
:1000E000852B0108852B0108852B010800000000E5
:1000F0000000000000000000000000000000000000
:0C01000000000000000000005FF808F1A3
:100110002DE9F04FAF4C9DB023680490062B01F2FF
:10012000C486DFE813F007001F001F001F00C20491
:100130004306CE0AA84B1B682BB9A84B4FF47A7024
:100140001B68584300E09847049E726C831A2AB1DA
:10015000F2691A44F261326A01323262049FA04AA3
:100160007864138027689B4D012F00F0BE80022F1A
:1001700000F0BF81002F40F079849A48291DD0F803
:100180008030984705F10408002800F08A84964BD7
:1001900005F1540A1A889946002A00F098800C3517
:1001A0003E46B9F800B0914BBBF57A7FCDF814B05C
:1001B00007D10A20A3F13C0100FB06110022DA510D
:1001C0000A61DA5938F906000244DA510FF0CEFF1D
:1001D0002B690133012B2B6104D100236860286057
:1001E000AB602AE0D5F800C001936146CDF80CC0A1
:1001F00002900FF005FF019B834618460FF0B6FFF3
:100200000146584610F0BAF8DDF80CC001466046C9
:100210000FF0F8FE029A03461946686010460193F3
:100220000FF0EEFE014658460FF0F4FFA9680FF0FC
:10023000E9FE019BE8602B60A860059A0023012A73
:1002400028F806302AF8063034D12869012807DD5D
:1002500001380FF08BFF0146E86810F08FF800E0DE
:10026000002013F06FF8624B834693F8660190B15B
:100270000FF07CFF0146584610F088F958B14FF452
:100280007A73A9F800300023E36123636364236574
:10029000E364A3640EE0554B4FF47A72FB580A20D6
:1002A00003F5FA7393FBF2F32AF806300F210122CB
:1002B0000BF0EEF90236062E07F1040705F11405DE
:1002C0007FF46FAFB9F80030013BA9F8003000238C
:1002D00038F803003AF803103E4A411A28F8031090
:1002E0000233062BF4D101F0D0BD3E4E05F15A0188
:1002F000D6F8983030469847B0465A35002800F076
:10030000D1833C4F3A4E3888002844D000231A4607
:10031000DFF8ECC0B0F5C87F04BF00214CF8021034
:1003200035F903905CF80210DFF8A8E049444CF876
:100330000210002106EB0309E9520233062BDFF815
:10034000B0C0A9F86A1102F10402E1D101281FD15D
:10035000DEF860304FF4C872C83393FBF2F3ACF8A8
:100360006A31DEF86430C83393FBF2F3ACF86C31D9
:10037000DEF86830C83393FBF2F2B8F89C30D21A3A
:100380001D4BACF86E219985D98501460BF0F0F92B
:100390003B88013B3B80B268154B520740F192808D
:1003A00016490A888946322A2CD1B3F86A11A4F872
:1003B0006C10B3F86C11B3F86E31A4F86E10A4F899
:1003C00070300D4B998DDB8DA4F87210A4F8743049
:1003D0001AE000BF10180020F40900205C2400205F
:1003E000702B002018000020EE1700205818002065
:1003F0009C240020662B0020242A0020041B0020BF
:1004000070180020002A3DD000231946322AB04F30
:1004100004BF0020785035F903E0785870447850D4
:10042000002006EB030EE8520233062BAEF86A01F9
:1004300001F10401EAD1012A1FD1A64BA64D187083
:10044000A64B1A702B780A2B04D9A54806F064F93C
:100450000A232B70B4F86C30B4F87220A6F86A3115
:10046000B4F86E30A6F86C31B4F87030A6F86E317E
:100470009C4B9A85B4F87420DA85B9F80030013BBA
:10048000A9F80030984A1378E3B10023A16F1370E4
:10049000322291FBF2F1A6F86A11E16FB8F89C00E4
:1004A00091FBF2F1A6F86C11D4F8801091FBF2F2F6
:1004B000121AA6F86E2101208A4A01469385D38537
:1004C0000BF056F9B4F85A20B6F86A310227D31A5D
:1004D000A4F85A30B4F85C20B6F86C31D31AA4F8FA
:1004E0005C30B4F85E20B6F86E31D31AA4F85E30F2
:1004F000D8E27E4B7E4F1B689847D5F8843006467D
:10050000C31A184605930FF02DFED7F88C100690ED
:100510000FF080FE734BC5F8846093F8319000268D
:1005200007903546B3461F46DFF8E48138F90500E9
:100530000FF01CFE07990FF06DFE10AB9851B9F14A
:10054000000F2CD048460FF011FE01464FF07E50B0
:100550000FF014FF0346194608F1840A4FF07E504D
:1005600001930FF04DFD56F80A100FF053FE08F1FD
:100570005608024638F9050002920FF0F7FD019B7C
:1005800019460FF047FE029A014610460FF03AFD59
:100590004AF8060010F004F8564B585305E008F1ED
:1005A000560835F80820534BEA52524B0436EB5E9E
:1005B0000235062D03FB03BBB6D14D4E642303FB6E
:1005C0000BFBB6F89C304C485B439BFBF3FBABF159
:1005D000490B10A91FFA8BFB02F0F2F9BBF13B0F9C
:1005E00040F29A80454BD4F89C50B3F900000FF0CC
:1005F000BDFD014628464FF001060FF0C7FF00B9C8
:1006000006463F4B2946D4F898005E7312F0FAFC78
:100610000646C4F8A000D4F89400D4F89C9000F1E9
:100620000045D4F8980001460FF0F4FD4946804695
:1006300048460FF0EFFD014640460FF0E3FC12F094
:1006400081FE0146284612F0DDFC0546C4F8A400F0
:1006500030460FF04BF91CA3D3E900230FF09AF9B1
:100660000FF07AFC12F000FCDFF8A880A8F8000078
:1006700028460FF03BF914A3D3E900230FF08AF9C1
:100680000FF06AFC12F0F0FB1E4BA8F802001B688A
:100690001B0740F18E8010A91B4802F091F91B4BFB
:1006A0004FF0000AB3F864010FF05CFD4FF07E518B
:1006B00081460FF0A7FC01464FF07E500FF05EFE22
:1006C000804657E0AFF300803B597E90A9E7814018
:1006D00088180020061B002060010020001B00205D
:1006E00016800108242A0020011B0020F4090020A4
:1006F000180000205A1C0020A4180020880B00209D
:10070000E50C0020800B0020B81800209C2400205D
:100710001418002080190020B14B4FF00008B3F8E6
:1007200062010FF01FFD4FF07E5106460FF06AFC8C
:1007300001464FF07E500FF021FE0546DFF8D492BF
:10074000304659F818100FF065FDA64B824633F974
:1007500008000FF00BFD014650460FF053FC2946F0
:100760000FF058FD49F8180008F10208B8F1060F1B
:10077000E4D137E7DFF8A0B248465BF81A100FF073
:1007800049FD994A034632F90A0001930FF0EEFC45
:10079000019B014618460FF035FC41460FF03AFD2B
:1007A0004BF81A000AF1020ABAF1060FE2D15846D4
:1007B0003DE0DFF8389210A9484602F001F9D9F877
:1007C0000000D9F804B001460FF024FD59468246D6
:1007D00058460FF01FFD014650460FF013FCD9F8A4
:1007E00008808246414640460FF014FD01465046BF
:1007F0000FF008FC12F0A6FD002180460FF09EFECF
:10080000A0B9D9F8000041460FF0B8FD4146C9F83B
:100810000000D9F804000FF0B1FD4146C9F804000A
:10082000D9F808000FF0AAFDC9F808006F4802F0D7
:100830007FF96F4B6F49188006980FF0EBFC6C4BFB
:1008400005F10045804606F10046B3F90000149515
:1008500013960FF08BFC00F100400FF047F85EA3F9
:10086000D3E900230FF096F80FF076FB5D4D15905D
:10087000B5F900000FF07AFC1690B5F902000FF000
:1008800075FC1790B5F904000FF070FC13A91890CF
:1008900016A802F095F8584B93F84830012B17D161
:1008A000564B5B7873B9D4F8B430402093FBF0F02A
:1008B000181A0FF05BFC18990FF0A4FB0FF070FEF4
:1008C000C4F8B400D4F8B430402093FBF0F002E058
:1008D0004B49B1F89C000FF049FC014618980FF005
:1008E0008FFB484B1890196840460FF08BFB014670
:1008F00040460FF043FDD4F8B86080463146189862
:100900000FF07EFB014640460FF084FC0146304666
:100910000FF078FB0646C4F8B8001698D4F8BC80EF
:1009200012F0A2FA97F8331002F07EF94044C4F8AE
:10093000BC001798D4F8C08012F096FA97F83310DC
:1009400002F072F94044C4F8C0003046D4F8C480C4
:1009500012F08AFA97F8321002F066F92A4B059ED7
:100960001A68404432441A60D4F8C830274D013325
:10097000C4F8C83097F8B630C4F8C400002B73D060
:10098000D5F89400D5F8988001460FF043FC414615
:10099000074640460FF03EFC014638460FF032FB5A
:1009A000D5F89C600746314630460FF033FC0146CF
:1009B00038460FF027FB12F0C5FC014630460FF019
:1009C000DDFC134906460FF0CDFD38B30023A5F832
:1009D000CC3049E0AFF30080399D52A246DF913F11
:1009E0009C2400205A1C0020A41900205001002043
:1009F000FE1A0020BD378635242A0020E50C002091
:100A000018000020940B00206C2B002010180020F0
:100A10008FC2753CA4180020B8180020304612F090
:100A20009FFA9F4B19680FF0F5FB12F01DFAB0F515
:100A3000617FA8BF4FF461700EF046FF96A3D3E923
:100A400000230FF0D1F80FF087FA12F04BFA954B14
:100A5000064693F8B6000FF089FB31460FF0DAFB3B
:100A600012F002FAA5F8CC0003271BE08E4B5B794D
:100A7000012B8E4B0DD1B5F9CE10B5F9082002EB44
:100A80004102032192FBF1F292B29A80A5F8CE20A6
:100A900001E02A899A80A28804271A80E2885A8075
:100AA00000E00746276000F008BE814B814A197CB0
:100AB0007C4BA1B9B2F906101A8D91423CDBB1F51D
:100AC000FA6F93F8264007DA891A4C43A2F5FA62C6
:100AD00094FBF2F4643430E0C4F164042DE0B2F924
:100AE00006101A8D91420FDB734AB2F9061093F883
:100AF0002620914208DDB1F5FA6F02DA891A4A43DD
:100B00005212C2F1800200E080226C49B1F9021059
:100B1000142909DD93F82600B1F5967FA8BF4FF49C
:100B200096714143A2EB212293F82640C4F1800440
:100B3000A242A8BF144600E064245B4A93F8B05078
:100B4000B2F8987192F95C2193F8B160524293F82F
:100B5000253092B2002153480692059707930A4622
:100B6000544BDDF8149031F903B040F2E637C9EB8D
:100B70000B0303F2F31EBE4503D8002BB8BF5B4244
:100B800001E04FF4FA73022ADFF82CC12ED025B110
:100B9000AB42CCBFC5EB030300236427DFF82491ED
:100BA00093FBF7FE09EB4E086FF0630A0AFB0E3A5F
:100BB000B8F8D08009EB4E0EBEF9D2900FFA88FE3D
:100BC000CEEB090E0EFB0AFE9EFBF7FEC6442CF888
:100BD00001E090F823E003FB0EFE394B9EFBF3F39C
:100BE0003B449BB2634393FBF7F716E026B1B34255
:100BF000CCBFC6EB03030023DDF818A0DDF81CE032
:100C000003FB0AF7002BB8BF5B4203FB0EF3ACF803
:100C100004702B4F93FBF7F76437224B90F80B804F
:100C2000134493F801C007FB08F807FB0CFCDFF83E
:100C300098E064239CFBF3FC02F80EC098FBF3F8E9
:100C40000EF1030C02F80C8090F815C00EF1060EA0
:100C500007FB0CF797FBF3F302F80E30059B164FDA
:100C60009B4502DA7B5A5B427B520132032A01F137
:100C7000020100F101007FF473AF0E4BB3F90620BF
:100C8000094BB3F89A319A4220DBB2F5FA6FA8BF4C
:100C90004FF4FA621BE000BFA2EB0FE5DD169640B1
:100CA000900B0020242A00209C2400209E19002064
:100CB000E50C0020B00D00201A1B00208019002038
:100CC0000CFEFFFF10180020EE1800201A46D21A62
:100CD0004FF47A714A43C3F5FA63B2FBF3F3642528
:100CE0008F4A93FBF5F102EB41006FF0630606FBC0
:100CF0000133B0F8E80002EB4101B1F9EA6001B25A
:100D0000711A4B4393FBF5F5864B28445B7A864C6E
:100D1000F8809046002B44D0844BB3F90000844BFC
:100D2000B3F90030C01A0EF0CFFD7BA3D3E9002346
:100D30000EF030FE00227F4B0EF056FF0FF00CF944
:100D4000054612F05BF80646284612F0CBF8054639
:100D5000B4F902000FF00AFA0746B4F900000FF0E8
:100D600005FA314681460FF055FA29468246384643
:100D70000FF050FA014650460FF042F90FF010FC08
:100D80003146208038460FF045FA29460646484647
:100D90000FF040FA014630460FF034F90FF000FC36
:100DA00060800523C8F8003000F087BC624BDFF894
:100DB000A4911A6812F0080539D05B4988880F465B
:100DC00000F145039BB28A2B5C49584B2DD8554EF8
:100DD00096F805E0BEF1000F27D0B3F800E00B88CD
:100DE000767BC3EB0E0189B28BB20FFA83FE1EF144
:100DF000B30FBCBF01F5B4739BB219B2B32950490C
:100E0000C4BFA3F5B4739BB291F85C117EB149B233
:100E100049424B4399F809101BB24B436FF01D0137
:100E200093FBF1F31844B88001E01B880B8057074F
:100E300040F19D803B4B9979002900F098801E7C01
:100E4000394B002E40F08A8099F8B3003D4F99F855
:100E5000B21068B3B3F806E0B7F900000FFA8EF7E6
:100E6000C0EB070CBCF1000FB8BFCCF1000C8C45F7
:100E700010DD8742DFF8E0C0C8BF4942CCF800600F
:100E80001FFA8EFE4FF00106C8BF89B284F80061D8
:100E900071443FE094F8001131B12B490F682B49A0
:100EA0000F601F4981F8006129490968084426E05C
:100EB000B7F90060B3F90670BF1B87EAE77EAEEBB7
:100EC000E77E8E450ADD022197FBF1F70121C4F888
:100ED000047184F8081184F800110DE094F8007191
:100EE0000F494FB1184F81F80801D7F800E0174FAC
:100EF00081F80001C7F800E0154908683044104E39
:100F0000B6F84011B6F84261884203DBB042B4BF84
:100F100001463146D9802AE0182D4454FB2109406E
:100F200010180020E50C00201A1B0020FE1A0020DB
:100F30002E1B002000806640800B00202C1B002010
:100F40009C240020181B0020141B0020101B0020D4
:100F5000281B0020242A0020241B002097495888A1
:100F600091F9A0619649096806FB0101598099F839
:100F7000B63053B1934BD97809B91B792BB1924B49
:100F8000B4F8CC00D9880144D980960640F1928308
:100F90008C4BDE7905961EB91A7A002A00F08583FB
:100FA0001B7BDFF820B2002B00F07F83874B1F886C
:100FB00038B20FF0DBF886490FF02CF9064611F035
:100FC00091FF8046304611F019FF9BF8103006461D
:100FD000002B40F0858099F815917E4F7E4DB9F138
:100FE000000F4CD0DFF81CA2B7F90200BAF80230AB
:100FF000C9F100041FFA83FB1BB2C01A01F0D6FF2F
:10100000A04203DB4845A8BF484600E02046BAF8A6
:1010100000308344B7F900009AB21BB21FFA8BFB71
:10102000C01AAAF802B0029201F0C0FFA042029AD0
:1010300003DB4845B4BF04464C461444A4B2AAF8A6
:1010400000400FFA8BF00FF091F8074620B20FF036
:101050008DF83146044638460FF0DCF841468146AB
:1010600020460FF0D7F8014648460EF0C9FF5B490D
:101070000FF084F90FF094FA288038461DE0B7F994
:1010800002000FF073F88146B7F900000FF06EF818
:101090003146044648460FF0BDF841460746204613
:1010A0000FF0B8F8014638460EF0AAFF4B490FF092
:1010B00065F90FF075FA2880484641460FF0AAF806
:1010C0003146074620460FF0A5F8014638460EF097
:1010D00099FF42490FF052F90FF062FA6880E9E295
:1010E0003F4B404A1888404B9BF813B0DB8899F877
:1010F000369106933D4BD3F808803D4B1FFA88FA92
:101100001E889368CAEB0606B6B2CAEB030A1FFA3A
:1011100086FC1FFA8AFABBF1000F06D00FFA8CF397
:101120004B45BCBF08EB090393600A2300B2584348
:101130000193CDF80CC001F039FF019BDDF80CC024
:1011400090FBF3F000B27DB190FBF3F338B29AB2AA
:10115000C31A002BB8BF5B420A2B08DD254B1B8846
:10116000C82B88BF174602E090FBF3F7BFB2224DB1
:101170002248D5F80C316422CAEB060193FBF2F247
:101180000668D5F8143189B2F31AC72BA5F81021D7
:10119000A5F81211824640F26C820368184EC5F819
:1011A0001431B6F82C3179BBA5F81831BBF1000F1A
:1011B00040D0044B0021D9743CE000BF9C240020A7
:1011C000281B0020E50C00201A1B0020FE1A00201E
:1011D00035FA8E3C621B0020581B00200000204185
:1011E000AA190020401B0020B00D0020341B002055
:1011F0004C1B0020981C0020101800205C240020AC
:10120000242A00205E1B0020B6F8300109B200FB42
:101210001130B6F82E31B6F82AE1984203DB70455A
:10122000B4BF03467346A5F81831BBF1000F01D0D7
:101230000029BEDAD71BB8B2059F9E499E4BE7B185
:10124000CA7C7AB1B6F824216FF009077A43A5F871
:101250001221B6F82A21A5F818210FFA8CF2182AC3
:10126000D8BF00201A88312A07D80FFA8CFCCC4549
:1012700003DD924A08EB09079760897C8D4A49B1E2
:101280001988092906D800215170D1748B4A08F1B8
:10129000050191601B88092B08D800B20EF066FF8B
:1012A00087490EF0B7FF0FF07BF980B24FF0640969
:1012B00000B209FB00F001F079FE90FBF9F01FFA93
:1012C00080F90FFA89F3002BB8BF5B42DAF800000F
:1012D000AA2BC8BF4FF0AF09D5F81C31DFF8048244
:1012E000C01A0EF03FFF77490FF048F8DAF80030E7
:1012F000B5F812A1C5F81C310AF103039BB2062B05
:10130000074606D8D8F8000039460EF083FFC8F823
:1013100000000A2202FB0AF292B293B2A4F8123140
:1013200018B2029201930EF021FFD4F824118246E4
:101330000EF070FF39460EF06DFFD8F800100EF079
:1013400061FE0FF02DF96049B0F5FA7FA8BF4FF4A8
:10135000FA708842B8BF08460EF008FF5B49029A4F
:101360008346C8F800000888019B121A92B20B80CD
:1013700013B2002BB8BF5B42642BC8BF0022544B92
:1013800003F10A01988823F8020F8B42FAD15149E0
:1013900000230A811846CA5A023310440A2B80B22D
:1013A00001D080B2F7E700B20EF0E0FED5F82811C8
:1013B0000EF030FF39460EF0E1FF0FF0F1F81FFAA2
:1013C00080F8D5F820115046A5F830810EF022FFA4
:1013D0000FF0E6F800B20EF0C9FE59460EF012FE0C
:1013E0000FF0DEF81FFA89F909F103039BB2062B0F
:1013F0001FFA80FA08D8DFF8F0B03946DBF80000B1
:101400000EF008FFCBF800004FF00A0C0CFB09F9B6
:101410001FFA89FC1FFA8CF210B20292CDF80CC0B0
:101420000EF0A4FEDFF8C090D5F8381183460EF018
:10143000F1FE39460EF0EEFED9F800100EF0E2FD96
:101440000FF0AEF8204BB0F5FA7FA8BF4FF4FA705A
:101450009842B8BF18460EF089FE0346C9F800004E
:101460001D48DDF80CC00188029AC1EB0C0189B25D
:1014700002800AB2002AB8BF5242642AC8BF0021C3
:10148000164A02F10A00B2F804E022F802EF8242A2
:10149000F9D1134A4FF000091181484632F809107A
:1014A00009F102090844B9F10A0F80B21ED080B2D6
:1014B000F4E700BFE50C00209A1C0020401B002030
:1014C000CDCCCC3D00007A440CFEFFFFE81B002091
:1014D000EC1B0020EE1B0020EA1B0020F81B002064
:1014E000FA1B0020E41B0020E01B002000B2019347
:1014F0000EF03CFED4F83C110EF08CFE39460EF096
:101500003DFF0FF04DF887B2D4F83411A4F84471C0
:1015100058460EF07FFE0FF043F800B20EF026FEA4
:10152000019B0FFA8AFA19460EF06CFD0FF038F89D
:10153000B6F924316FF009014B439AFBF9FA0FFA1F
:101540008AFAB6F926119A4580B209FB01F903DB44
:10155000CA45B4BF53464B46B04C02B2B4F9201151
:101560006FF0090048434FF00A0E984492FBFEF2D8
:10157000AB4B1FFA88F88242A3F8028004DB0EFB13
:1015800001F08242B8BF1046BFB238441880B4F9A7
:1015900022016FF0090141438A4204DB0A214143E1
:1015A0008A42B8BF11469F4A0F44507C9F80114623
:1015B00058B194F828210FFA88F85242904503DB7D
:1015C000C845B4BF42464A465A80C97C964A69B962
:1015D00096F83261B2F900006421B6FBF1F15E8841
:1015E0000028B8BF404201FB10615980B2F90200E7
:1015F0000EF0BCFD4FF07C510EF00CFE0EF0D0FF53
:101600008A4BB0F5E17FA8BF4FF4E1701A88B5F8B6
:101610001871A2F5E17320EAE0709BB2381A642BCE
:1016200087B2834E0CD910B2C0F5FA700EF09EFD51
:1016300080490EF0EFFD0EF0B3FF33881844308080
:10164000B6F90030B4F82E21B3F5FA7FA8BF4FF4F5
:10165000FA7323EAE37333803B441BB29342B4F83A
:101660002A1103DB8B42B4BF1A460A46724BA3F819
:1016700018216C4A6A4BD17809B9117921B1927A53
:1016800052B1684A927C3AB9DDF818900022A5F868
:1016900018915A801A809A80684AB5F81811D1803A
:1016A000998893880B44938004E05D4B00221A8054
:1016B0005A809A80604B06221A6004980BF09CFEB8
:1016C000F3E35F4BDB6898475E4B93F80080B8F11B
:1016D000030F14D9594BB4F94A11B3F904006FF050
:1016E00063030028B8BF40421B1A994204DB00F193
:1016F00064038B42A8BF0B46A4F84A310BE0B8F153
:10170000010F08D8504B5A791946013AD2B2172A1C
:1017100000F2D481A3E04148B4F848A190F90E1139
:10172000B4F846B1B4F94A4149424C433D49434BB0
:101730000A7C90F81E01897ACDF810A0DE88B3F8F3
:1017400004A0424D0694CDF814B007920890099178
:1017500000244445D6D230B20EF008FD29688346F5
:101760000EF058FD049B844618B2CDF80CC00EF064
:10177000FDFCA9680EF04EFDDDF80CC00146604688
:101780000EF040FC059A844610B2CDF80CC00EF065
:10179000EDFC69680EF03EFDDDF80CC001466046C8
:1017A0000EF030FC84460698CDF80CC00EF0DEFC3E
:1017B000E9680EF02FFDDDF80CC0014660460EF022
:1017C00021FC0EF0EDFEDFF88890079B670029F8FA
:1017D0001400002B40D0089A002A3BD0099B002B14
:1017E0003AD00FFA8AF00EF0C1FC84462046CDF8BC
:1017F0000CC00EF0B7FC4FF07C510EF001FCDDF890
:101800000CC0014660460EF005FD014658460EF03C
:10181000F7FB0EF0C5FE29F807001DE0242A002082
:10182000581B0020E50C002080190020981C002087
:10183000EC1B0020CDCCCC3D101800201A1B002042
:1018400050010020082A00209C240020B40B002016
:101850000A2A002027F809600134103579E70123AE
:1018600003FA02F2B94B13406BBBD00640F126815C
:10187000B74BB84893F9BE20B0F90240B0F9000068
:101880005443322294FBF2F4B3F8BC20A4B211B258
:101890001129DCBFB04A32F81120B04922440A8035
:1018A00093F9C820B3F8C6305043322290FBF2F0CF
:1018B0001AB2112AD8BFA84B80B2D8BF33F8123061
:1018C00003444B80FAE0A64B9B7A43B1A54B1A88A0
:1018D000ADF858205A889B88ADF85A200AE0A24BF0
:1018E000B3F84621ADF85820B3F84821B3F84A318F
:1018F000ADF85A20ADF85C309C4B974A1B88ADF888
:101900005E30B1F898311189C91AADF8601051896B
:10191000C91AADF862109189C91AADF86410D1895D
:10192000C91AADF866101188C91AADF86810518847
:10193000C91AADF86A109188D288C91AD31AADF8BD
:101940006E30ADF86C100023844900225A520233E5
:10195000102BF9D1864B15461B7804931346DDF8FE
:1019600010A0554500F08F80824E834C91198879E4
:1019700020B1824F3844007D00287ED0B05C744E88
:101980000A2707FB0067B7F8BAE0B7F8B86091F923
:1019900004B0C6EB0E06B6B206FB0BFB642791F84B
:1019A00001809BFBF7FB4FEA560C91F803E0CCEB70
:1019B0000B0B4FEA48070DF170091FFA8BFB91F8EA
:1019C00005A04F44BEF1000F03D137F8187CE75251
:1019D0001BE0E45E37F9187CDFF89C91BC4209DA21
:1019E000A644A64503DB7745B4BF3C46744629F8B8
:1019F00003400AE009DDCEEB040EBE4503DBA6453D
:101A0000B4BF7746274629F80370DFF844E14FF06A
:101A10000A0909FB00EEBEF8C0E091F902104EFA87
:101A200008F818F0010FDFF850814C4C33F90880AA
:101A30000FFA8BFB01FB08F14FF0640891FBF8F102
:101A40000CBF4FF0010E4FF0FF3E594534F81070B7
:101A50001FFA8EFE0CDB4FFA8AFB06FB0BFB9BFB8F
:101A6000F8FBCCEB0B0B0FFA8BFB8B45A8BF8B461F
:101A70000BFB0E7B24F810B000E0E0520135EDB214
:101A8000023307326BE73E4B314A03F1100492F9FF
:101A9000BE10B3F902500A324D43642195FBF1F5B3
:101AA000B2F8B210ADB208B21128DCBF2A4931F841
:101AB0001010294423F8021FA342E8D1314B9A6841
:101AC0009A4612F0200F224B3BD0B3F8BC00234CB7
:101AD00002B2112AD8BF20492546D8BF31F81200DA
:101AE000B3F8C61020800AB2112ADCBF1A4931F8B7
:101AF00012101A4A0C4669802049097A09B393F8F2
:101B0000101193F9C86011F0020F93F9BE701149DA
:101B10003AD0B1F90050B1F902106E437F424F4301
:101B20004FF0320E96FBFEF66FF03101B6B297FB26
:101B3000F1F1314497FBFEF708443E4410803444F1
:101B400054800F4A024902F1100532E089209800C2
:101B5000242A002080190020B00D00208C010020D4
:101B6000E50C00201A1B0020101800200A2A002073
:101B7000740C0020750C00205C190020DC1A002079
:101B80008A0100209C240020B1F90250B1F9001014
:101B90006F434E43322597FBF5F7384496FBF5F536
:101BA00010802C44CCE722F8020FAA4201F10A016E
:101BB0000CD0B2F90240B1F9B800B1F8BA60844271
:101BC000F1DB30B2A042A8BF2046ECE793F8103119
:101BD000590705D49A499B4B0C881B7801220FE0CA
:101BE000994B9A4D9E7D0024043EA0190134C0B249
:101BF00035F8021FE4B201F014FB042CF5D1E9E73B
:101C00009A4208D231F9120024B2A042A8BF044679
:101C1000A4B20132F4E78E4ABAF84251107C291B73
:101C200005908C4889B2B0F90600BAF8987106910F
:101C30000490DAF808108848BAF840C101F48046E8
:101C4000B0F9EAB001F010010797B0F9EC70BAF8FA
:101C500046010E911FFA8CF1BAF844E108900A91FE
:101C600050787E49BAF848819AF80590BAF89AA156
:101C70005B000D960C901FFA8EF64989507C0F93ED
:101C8000CDF800B0CDF824A00B9600230F9EB342F0
:101C90006ED022B2AA4208DD059A32B9684A069E81
:101CA00033F802A0B24423F802A00D9E644A002E2D
:101CB00036D0DDF810A0DDF81CB0DA4532F903A00B
:101CC00015DDC24503DBAA45A8BFAA4600E0C2460F
:101CD000B9F1010F22F803A041D1009A09B2914253
:101CE00003DBB942A8BF394618E0009916E0F24577
:101CF00004DB089EB245A8BFB24600E0F246B9F147
:101D0000010F22F803A02AD109B2B94205DBDDF8A0
:101D100000A05145A8BF514600E0394689B21EE0F7
:101D200032F903B0E34503DBAB45A8BFAB4600E0A7
:101D3000E34622F803B002EB030ADDF810B0099A7B
:101D400093450BDA0E9E26B9DDF828B0AAF800B04C
:101D500005E00B98AAF80000012000E000200C9A92
:101D600022B93F4A985A364A9852012002338DE7E9
:101D7000354A3A4C364B6181517D58741A460029D8
:101D80007DD0384E7379013B172B6DD8DFE803F017
:101D90000C6C6C186F6C6C1E6C6C6C6C6C256C6CC9
:101DA0006C6C6C18256C6C342B4B93F80F3113B1A1
:101DB0000020618961E050780028F9D101465CE09B
:101DC0000020218901F02DFA0120F2E70020E188AE
:101DD00001F027FA012021894FE00020E18801F07D
:101DE00020FA0120218901F01CFA0220618901F00A
:101DF00018FA0320A18940E00020E18801F011FADF
:101E00000120218901F00DFA0220618901F009FA0F
:101E10000320A18901F005FAB368104DDA072ED529
:101E20000420298801F0FDF90520698801F0F9F9FD
:101E30000620A98801F0F5F90720E9891DE000BF17
:101E40000A2A0020082A00209C0B0020B60D002042
:101E5000E50C0020B00D0020242A00208C01002079
:101E6000861900209C240020B3689B0607D500201B
:101E7000218801F0D6F96188012001F0D2F900F043
:101E800081FD0C4B00221A600FE00B4B1B6813F016
:101E9000020307D1A2F85A30A2F85C30A2F85E30F3
:101EA000FEF7E2BD0127FEF7FDBD00201DB0BDE835
:101EB000F08F00BF10180020800B0020AFF30080CF
:101EC00010B5C468A36A43B1616809B1206A03E030
:101ED000A26912B1206A0F499847E36ABBB1A168B1
:101EE00011B1206A984712E0626982B1206A0A49FA
:101EF000984760B194F824304BB9012384F824301A
:101F0000E36823B12046984708B984F824000020EC
:101F100010BD00BF81C800087DD9000870B5174CFE
:101F2000174D002B0CBF2B46234672B1013A94008B
:101F3000002221FA04F606F00F0601329E5D851894
:101F4000043C05F8016CF4D515E089B101251C2489
:101F500021FA04F606F00F0605B126B19D5D855401
:101F60000132002500E00125043C261DF0D102E0ED
:101F7000302303700122104670BD00BF1E9001087F
:101F80002F90010830B562B1531E013821FA03F4D5
:101F900004F00104303413F1FF3300F8014FF5D29F
:101FA00015E089B101241F2321FA03F505F001058D
:101FB00004B125B1303585540024013200E00124FC
:101FC00013F1FF33F0D202E03023037001221046F8
:101FD00030BD074B9B788342064B02D8B3F898017B
:101FE0007047184490F88221034B33F82200704761
:101FF000F80D00209C240020D80D0020034B18442D
:1020000090F88221024B33F8220070479C24002074
:10201000F01D0020034B184490F88221024B33F846
:10202000220070479C240020580E0020034B1844C7
:1020300090F88221024B33F8120070479C24002054
:102040002C0F002010B5094A094913688C681268E2
:102050009342F8D1074A106811684FF47A725043DE
:10206000001BB0FBF1F002FB030010BD5824002060
:1020700010E000E0000B0020034B4FF4805208B149
:102080001A6170475A61704700080140034B4FF4D2
:10209000805208B15A6170471A61704700080140C8
:1020A000014B33F810007047B00D002007B50F4BFF
:1020B00002A941F8040D18684368984703680C4A60
:1020C000B3F5967FC8BF4FF0FF330193019B1360B8
:1020D000084B18680DF0F8FB0022074B0DF084FD4B
:1020E0000DF03AFF03B05DF804FB00BF10130020B1
:1020F00044010020482200200000594008B5094B47
:10210000B0F5967FC8BF4FF0FF301860064B1868D7
:102110000DF0DAFB0022054B0DF066FD0DF01CFF03
:1021200008BD00BF440100204822002000005940A3
:10213000034B184490F88221024B33F81200704789
:102140009C24002010230020014B0D221A707047A0
:102150006001002003789B070AD5826C831883F8FE
:102160005811C36B0132B2FBF3F103FB11238364FB
:102170007047037813F001030BD0426C036C9A4252
:1021800005D09CBF806B1218D31AD8B270470020BC
:10219000704718467047037810B513F001030446E2
:1021A0000FD0FFF7E6FF68B1236CE21892F85400F5
:1021B000A26BC0B2013A934234BF013300232364BF
:1021C00010BD184610BD826CC06C121A50425041AE
:1021D000704701707047034B00290CBF0221012199
:1021E000D9617047DC0F00200A4B10B553F820006E
:1021F00000244268138823F001031B041B0C138086
:1022000083681C800368198013889BB243F0010324
:10221000138010BD040D0020024B53F820301B68C2
:1022200019807047040D0020074BA1F57A7153F80F
:1022300020304FF47A701A689B894B4393FBF0F37C
:102240009BB21380704700BF040D0020012070472F
:1022500001207047054A064B128808B11A6100E058
:102260005A61044B00221A70704700BFA81E00205C
:10227000000C0140B51E002008B502F100620846BE
:1022800002F5F8311A460DF057F9012008BD038B0D
:1022900002899A4288BF8382838A03837047C28AF5
:1022A000838A934224BF01895218D31A9BB2581EC5
:1022B00080B27047426B08B512B15368984708BDA9
:1022C000C069FFF7ECFFC0B208BD828AC38A9A4298
:1022D0003CBF00891218D31A98B2704770B50379C1
:1022E0000446C3F34103012B0D4606D0022B33D124
:1022F000FFF7EBFF628B134618E0C38A808A002247
:10230000834229D02169CE5CA17E8E4201D1AA42AE
:102310001FD8218901339BB28B4228BFC1EB030335
:1023200002F1010228BF9BB292B2E9E79D4202D9B5
:1023300013449BB2FAE7834208D2E28A134422890B
:102340009BB29342E38205D39B1A02E0854203D8F5
:10235000A38AE382012070BD002070BD70B5858A1C
:1023600003890135ADB2AB4298BF0025C38A04464C
:10237000AB420E4607D10121FFF7B0FF18B9054B5C
:1023800004221A7070BDA28A236901209E54A5827E
:1023900070BD00BF642B00200346406910B588B1B2
:1023A00002685A611A69026002B150609A6800F1CD
:1023B0000804013218619A60204600211A6814F05E
:1023C00059FB204610BD10B511E90C00A1F108041D
:1023D0000BB11A6000E0026151F8082C02B15360A1
:1023E000436941F8083C002341F8043C8368446198
:1023F000013B836010BD09B11030E4E77047002352
:1024000030B5054618469AB28A4217D2EA5C80EA8D
:102410000220082210F4004F4FEA400418BF84F451
:10242000815002F1FF3218BF80F0010092B214BF58
:1024300080B2A0B2002AEDD10133E4E730BDF0B59F
:1024400085B001AF0D4606461446384600210B22E2
:1024500014F010FB65B30022531C092D99B209D961
:102460000A20B5FBF0F100FB11503030B8540D4696
:102470001A46F1E704A80244303502F80C5C14B1A6
:10248000A14203D3002426441A4609E0641AA4B2E8
:10249000002291B28C42F6D03021B1540132F8E7DB
:1024A000013AB95C06F8011B002AF9D118190AE0B3
:1024B000284601303318302203F8012C1CB1013CAE
:1024C000A4B2002CF5D105B0F0BD2DE9F74F0746B9
:1024D0000E469046002498F80030002B00F0F9805A
:1024E000252B40F0F18000231D4618F8012F642AA7
:1024F0003AD017D8392A06D8302A25D2252A40F0D2
:10250000E5803A55E1E0622A25D000F2D980582AC8
:1025100040F0DC8032683819131D336011680123E4
:102520002A4650E06C2A01D10123DEE704D8662A4E
:102530004CD0692A18D0C9E0752A2DD0782A35D018
:10254000732A40F0C3809EE00A214D43303AADB279
:102550001544ADB2C9E732683819131D11683360EC
:102560002A46FFF70FFD1FE032681168131D00298E
:10257000336008DA2D2304F101093B5549421DB1AE
:10258000013DADB200E0A14607EB09002A46FFF786
:1025900056FF09EB000499E032683819131D1168E1
:1025A00033602A46FFF74BFF04448FE03268381946
:1025B0002BB1131D3360116800232A4603E0111D5F
:1025C000316011682A46FFF7A9FCEDE7336807EB95
:1025D0000409073323F0070303F10802D3F804A02A
:1025E00032601A68514601921046002300220DF015
:1025F00043FC30B12D233B550AF1004A4FF0010B4B
:1026000000E08346514601980DF086FC03461946CA
:1026100009EB0B0000220093FFF711FF584480B232
:102620002E2209F80020009B00F1010B18460DF046
:102630003BF902460B46019851460CF0F7FF1FFA92
:102640008BFB002D08BF062502460B464FF0000A03
:10265000104619460022214B0DF09CF90AF1010A9F
:102660001FFA8AFAAA4502460B46F1D10DF054FC36
:10267000D944014652464846FFF7E1FE58441FFA46
:1026800080FB5C4422E033681A1D3260D3F800906E
:10269000B9F1000F1AD0484614F070FB03197E2BD5
:1026A000054607EB040003D8494614F009FB05E092
:1026B000C4F17F0549462A4614F0BAFB2C4405E0D4
:1026C00033681A1D1B6832603B55013408F101085C
:1026D00001E73B5503B0BDE8F08F00BF0000244088
:1026E0000EB403B503AB53F8042B02A941F8043D23
:1026F000FFF7EBFE02B05DF804EB03B0704770B576
:10270000054C054623689847064623689847801B72
:1027100080B2A842F9D370BDF4090020034B1968B8
:102720001A68521A92B28242FAD370475C2400208F
:10273000013A2DE9F8430C46072A30D8DFE802F0C9
:1027400004080C12191E222603880B8043880DE012
:1027500043880B80038803E003885B420B80438837
:102760005B4203E043885B420B800388638083887D
:1027700014E003885B420B8043880CE043880B80A5
:10278000038808E003880B80438803E043885B42AA
:102790000B8003885B42638083885B42A380304B5D
:1027A0001B78002B5AD1B4F900000DF0DFFC8046F5
:1027B000B4F902000DF0DAFC0746B4F904000DF09C
:1027C000D5FC284D0646296840460DF023FDE968F2
:1027D000814638460DF01EFD014648460DF012FCBC
:1027E000A969814630460DF015FD014648460DF0B9
:1027F00009FC10F039FB6968208040460DF00AFDA5
:102800002969814638460DF005FD014648460DF020
:10281000F9FBE969814630460DF0FCFC014648466B
:102820000DF0F0FB10F020FBA968608040460DF031
:10283000F1FC6969804638460DF0ECFC01464046E3
:102840000DF0E0FB296A074630460DF0E3FC014637
:1028500038460DF0D7FB10F007FBA080BDE8F883E9
:1028600017000020580B002008B5436B0BB15B69C3
:10287000984708BD426B08B512B1D368984702E08B
:10288000426804309047012008BD034BDA6882F0AB
:102890001002DA60704700BF000C0140024BDA689A
:1028A00082F00802DA607047000C014008B5024B64
:1028B0001B68984708BD00BF682B002009B10120A4
:1028C00000E00846F2E72DE9F0410F88002347FABF
:1028D00003F2D2072BD58A7803F0070512F0100F08
:1028E00018BF91F803C002F00F0618BF46EA0C06A5
:1028F000AD004FF00F0C0CFA05FC06FA05F5DC08EC
:1029000050F82480282A28EA0C0C45EA0C0540F8E7
:10291000245005D101229A40C46824EA020205E04D
:10292000482A04D101229A40C4682243C26001337C
:10293000102BCCD1BDE8F08138B500240E4D2146D6
:102940000E4870222C7014F095F821460C4B0B4465
:1029500093F9D2207AB1094853F8D04F0A180C5095
:1029600098889B79073193712B78702903F10103C3
:1029700090802B70EAD138BD740C0020750C0020BB
:102980009C24002010B50024094B1B78A3420DD9CC
:10299000084B33F81410084B1B78A34203D9074B9C
:1029A00020461B6898470134E4B2EDE710BD00BF34
:1029B000082A00200A2A0020030D0020AC0D002068
:1029C0002DE9F04F0C68836889B0D0F800A0D0F8EA
:1029D00004800646204603938B4610F00FFA074604
:1029E000204610F07FFADBF804408146204610F0C4
:1029F00005FA0546204610F075FADBF80820044673
:102A00001046019210F0FAF9019A8346104610F030
:102A100069FA3946029058460DF0FCFB394604909D
:102A200002980DF0F7FB5946059048460DF0F2FB71
:102A30000299069048460DF0EDFB2946079058464E
:102A40000DF0E8FB014650460DF0E4FB21468346BD
:102A500006980DF0DFFB014605980DF0D3FA01460C
:102A600040460DF0D7FB014658460DF0CBFA214603
:102A7000834604980DF0CEFB014607980DF0C0FA8E
:102A8000014603980DF0C6FB014658460DF0BAFA10
:102A90003060029905F100400DF0BCFB0146504644
:102AA0000DF0B8FB2146834607980DF0B3FB0146B5
:102AB00004980DF0A5FA014640460DF0ABFB014627
:102AC00058460DF09FFA2146834605980DF0A2FB6B
:102AD000014606980DF096FA014603980DF09AFB10
:102AE000014658460DF08EFA2146706050460DF0B2
:102AF00091FB2946044609F100400DF08BFB01468D
:102B000040460DF087FB014620460DF07BFA394622
:102B1000044628460DF07EFB014603980DF07AFB33
:102B2000014620460DF06EFAB06009B0BDE8F08FA6
:102B30002DE9F84F384E04463768384610F05EF9F4
:102B40000546384610F0CEF976688046304610F0DB
:102B500055F98346304610F0C5F9D4F8049006467E
:102B6000294648460DF056FBA7688246414638463E
:102B70000DF050FB014650460DF042FA21688246A6
:102B800058460DF047FB4146044648460DF042FBCF
:102B900031460DF03FFB014620460DF033FA314639
:102BA000044638460DF036FB29460DF033FB01464E
:102BB00020460DF027FA0146504610F023FA174937
:102BC0000DF028FB0CF092FE11A3D3E900230DF0C9
:102BD0000BF8134B0446D3F8B0000D460CF086FEFC
:102BE00002460B46204629460CF022FD00220D4BE2
:102BF0000CF0FAFF0DF0B0F910F036F983B21904B9
:102C000044BF00F5B4739BB218B2BDE8F88F00BFA3
:102C1000182D4454FB210940B01800200000E14465
:102C2000180000200000244080EAE073A3EBE0736A
:102C30008B4206DB002801DD401A704702D00844B1
:102C400070470020704770B50546441E14F8011FF8
:102C500061B1074E304613F0B9FF0028F6D0861B4D
:102C60000448631B304480F88231EFE770BD00BF39
:102C7000E19901089C24002070B540F26C5528466B
:102C800013F036FC044660B3174E4C213068C3691C
:102C90009847024610B330682146066A2B46B04773
:102CA000E0B123784C2B19D16388AB4216D123793C
:102CB000BE2B13D194F86A35EF2B0FD100231A469F
:102CC00040F26C518B4203D0E15C01334A40F7E79C
:102CD00022B9204613F014FC012070BD204613F0E9
:102CE0000FFC002070BD00BF0C180020024B1A68BA
:102CF00010431860704700BF800B00202DE9F041A1
:102D000002780346202A00F10100F9D0092AF7D001
:102D10002D2A02D10346414D04E02B2A08BF034669
:102D20004FF07E551E460024334616F8012BA2F1C3
:102D30003007F9B209290DD8394920460DF06AFA51
:102D4000044638460DF012FA014620460DF05AF9B5
:102D50000446E9E72E2A17D1314F334616F8010B06
:102D60003038C2B2092A0FD80DF000FA39460DF0FA
:102D700005FB014620460DF045F929490446384631
:102D80000DF048FA0746E8E71A7802F0DF02452A14
:102D900038D15A782D2A02D10233012604E02B2A99
:102DA00014BF013302330026013B002713F8012F23
:102DB000303AD1B2092903D80A2101FB0727F5E7E8
:102DC000B7F59A7F28BF4FF49A77B8464FF07E51F7
:102DD000B8F1070F07D9084612490DF01BFAA8F100
:102DE00008080146F4E707F0070737B108460C4921
:102DF0000DF010FA013F0146F7E72EB120460DF025
:102E0000BDFA04E04FF07E5120460DF003FA014672
:102E100028460DF0FFF9BDE8F08100BF000080BF3B
:102E20000000204120BCBE4C70B50646B6FBF2F453
:102E30000846154614B12046FFF7F6FF05FB14645B
:102E4000024B1B5D00F8013B70BD00BF40900108C4
:102E500090F85B3210B57BB990F85A3290F859224D
:102E6000934209D201219940B0F8604201332143D5
:102E7000A0F86012DBB2F3E710BD90F862321BB12C
:102E8000D1F1010138BF0021D0F854315A689B6854
:102E900009B11361704753617047F8B5101A0C46B9
:102EA0001F460DF063F90546381B0DF05FF9184B0E
:102EB000079E19680DF0AEF92946044628460DF024
:102EC000A9F92146074620460DF0A4F901463846E7
:102ED0000DF098F810F036FA0E490DF09BF90DF050
:102EE0005FFB069B2146186005F1004010F08AF850
:102EF00009490DF08FF909490DF084F80DF050FBE8
:102F00000028BCBF00F50C40A0303060F8BD00BF09
:102F1000680100202C7D8E3FA00CB34500A00C461C
:102F200010B50DF023F9002104460DF02FFB08B178
:102F3000204601E004F1004005490DF01FFA054963
:102F40000DF068F90FF05AFF034B186010BD00BF79
:102F50008096184B35FA8E3C6801002038B50C4D30
:102F6000EB7AA3B10B4B1B78042B10D90A4B0B4CFB
:102F700018685B6820606360FFF7D2FF084B1A880F
:102F8000084B1A80084B1B88A36001232B7338BDA4
:102F9000E50C002041230020501B0020341B0020A2
:102FA000FE1A00206A2000204C1B002044F25063CF
:102FB000984203DDA0F50C40A0387047034B9842BF
:102FC000BCBF00F50C40A030704700BFB0B9FFFF98
:102FD00070B52D4C2D4D60790DF0C4F82C490DF0D5
:102FE000CDF92860E07B0DF0BDF829490DF0C6F958
:102FF000284E6860EE60A0790DF0B4F826490DF017
:10300000BDF9264D2860207C0DF0ACF820490DF06C
:10301000B5F96860A07E0DF0A5F821490DF0AEF974
:10302000EE60A860E0790DF09DF81B490DF0A6F95F
:103030001C4D2860607C0DF095F815490DF09EF947
:103040006860E07E0DF08EF815490DF097F9164B8B
:10305000A8601B7CEE60ABB120790DF083F80E49BF
:103060000DF08CF9114D2860A07B0DF07BF808491C
:103070000DF084F96860207E0DF074F808490DF0B9
:103080007DF9A86070BD00BF242A00203C200020EC
:103090000000C8420000FA44000020414C200020FB
:1030A00000007A4444190020E50C0020301900206B
:1030B0002DE9F0472F4A002392F82050D47F03FBDC
:1030C00003F01938684300F6C4105843604340F6D3
:1030D000C41190FBF1F0284921F813000133072BAC
:1030E000EDD192F82110254B0A274F43B3F84051F8
:1030F000B3F8429192F82260C1F1640C48425FFA41
:103100008CFCC6F16408C5EB090980B2002384B2C7
:1031100022B2002A04DC002C14BF0C46012400E07B
:10312000644602FB02FA64430AFB06FA9AFBF4F4D3
:10313000444454434FF00A0A94FBFAF43C4424B24A
:1031400004FB09F44FF47A7294FBF2F40C4A2C4419
:103150009C5202335044182B80B2D8D1054BBDE8A5
:10316000F0471B78012B18BF064A074B08BF074AD8
:103170001A602DE7242A0020E01800209C2400205B
:10318000F8180020457200085C010020B1740008A6
:103190000449054B0968002218701A615961DA6008
:1031A0001A7670475C240020DC0F00200A4B1B7845
:1031B00083B10A4B9A8998811A89D007FCD5074BAD
:1031C0009889C0B2054B1A899107FBD51A89120656
:1031D000FCD4704718467047120B0020003800409E
:1031E000054B1B7833B1054B4FF4805208B15A613F
:1031F00070471A61704700BF120B0020000C01409D
:1032000038B5044601200D46FFF7EAFF2046FFF7D8
:10321000CDFF2846FFF7CAFF0020FFF7E1FF01209E
:1032200038BD054B1B78834204D9044B53F820303A
:103230001B681980704700BF340D0020380D002036
:1032400003280E4B09D80E4A12888A4205D2012261
:1032500002FA00F01A78104318701B780F2B0BD16C
:10326000064B00221A70074B198808B2142802DD99
:103270001439198070471A80704700BF7C190020EC
:1032800040010020F81A00202DE9F34700F124073F
:10329000044638460D46FEF7FAFF24238DF8003029
:1032A0004D238DF801303E238DF802302B78002617
:1032B0003846694605228DF803608DF804300AF01F
:1032C00032FB30B19DF80430A4F84A6084F84830ED
:1032D00008E0A38F2387A38DA387AB4B1A780AB985
:1032E00004221A702B78772B00F03C8200F2668162
:1032F0006A2B00F0A78400F29C80452B00F0D58754
:1033000018D8422B00F06E8709D8402B00F0B58703
:10331000412B08BF002300F0BC8700F0D8BF432B2F
:1033200000F0CA86442B40F0D287984B01221A70D5
:1033300000F0D1BF662B00F04D8372D8642B00F0F3
:103340002083652B40F0C387914B2046198809F0F4
:1033500019FE904B2046198809F014FE8E4B20462A
:103360001B68C3F3C001C3F38002890041EA420134
:10337000C3F340021143C3F3401241EAC20103F018
:103380001003194309F0FEFD844A1579D378AD0086
:1033900045EA430553781D43937945EAC3055379BC
:1033A00045EA4315537A45EA83157D4BD97945EAB9
:1033B000C115197A45EA0125597A45EA4125D1799D
:1033C00045EA8125117A45EAC125117D927A45EABF
:1033D000016545EA02355A7B002145EA42359A7B70
:1033E00045EA82351A7C45EA02451A7945EA021512
:1033F0005A7C45EA42459A7C45EA8245DA7C45EAB0
:10340000C2451A7D45EA02555A7D45EA42559A7DE4
:10341000DB7D45EA825545EAC355624B18780B4679
:10342000C0E2682B00F0008400F2028420465E496E
:10343000FCE3702B00F06E843FD86D2B00F03584D8
:1034400012D86B2B00F021846C2B40F04087574D35
:103450002046298809F096FD2046698809F092FDEA
:103460002046534B00F028BC6E2B00F027846F2BB6
:1034700040F02D874F4D2046E97F0AF0C9FE95F8B0
:10348000201020460AF0C4FE95F8231020460AF0CA
:10349000BFFE95F8251020460AF0BAFE95F82610D2
:1034A00020460AF0B5FE95F8211020460AF0B0FE3D
:1034B000204695F8221000F0DDBE732B00F08084CA
:1034C0005AD8712B00F05081722B40F000873A4D92
:1034D0002046B5F8981109F055FDB5F84011204681
:1034E00009F050FD334EB5F84211204609F04AFD6F
:1034F000B5F84411204609F045FDB6F80A112046FA
:1035000009F040FD95F8AB1120460AF081FE95F8D0
:10351000AC1120460AF07CFE95F8AD1120460AF069
:1035200077FE95F87C1120460AF072FE95F8A111FD
:1035300020460AF06DFE002120460AF069FEB6F929
:103540002A100A2391FBF3F189B2204609F01AFDF3
:1035500095F87D1120460AF05BFE95F87F11204614
:103560000AF056FE95F87E1120460AF051FE2046DC
:1035700095F8801100F07EBE752B00F0DE8300F21E
:1035800028840025F0E300BF642B0020E81D002004
:10359000702B0020140B0020800B0020E50C002075
:1035A000DC1A0020412100208C010020801900201D
:1035B000FE1A0020242A00209C240020CF2B00F09B
:1035C000598100F29380C82B00F0D08054D8A02BF2
:1035D00000F0EC8448D8782B00F02C827B2B40F054
:1035E0007686964B964D93F8A01120460AF010FE71
:1035F000B5F82011204609F0C5FCB5F82211204687
:1036000009F0C0FCB5F82411204609F0BBFCB5F860
:103610002611204609F0B6FCB5F82A11204609F01B
:10362000B1FCB5F82C11204609F0ACFCB5F82E1110
:10363000204609F0A7FCB5F83011204609F0A2FC9D
:1036400095F83211204604F05BFF95F836112046BC
:103650000AF0DEFD2046002104F052FF2046002142
:1036600004F04EFF00F02ABEA42B00F0AB84A62B82
:1036700000F0018500F02BBECB2B71D009D8C92BEF
:1036800000F09180CA2B40F022866E4B03F10A01B4
:10369000AFE0CD2B00F0458400F24D84AB6813F809
:1036A000012BAB60664BDA77AA6812F8011BAA609F
:1036B00083F82010AA68511CA96051780232AA60D0
:1036C00083F82510AA6812F8011BAA6083F8261057
:1036D000AA6812F8011BAA6083F82110AA6812F8E0
:1036E000011BAA6083F8221000F0F5BDD82B00F072
:1036F000558217D8D22B00F02A8107D8D02B00F0A2
:103700000784D12B00F0C48300F0E1BDD42B00F07E
:10371000B281C0F02F81D62B08BF002600F00D81AA
:1037200000F0D5BDF12B00F0C8810CD8EF2B2FD0C5
:10373000F02B40F0CC85424D2046E98D09F022FC6B
:103740002046A98D9EE2FA2B00F0FD83FE2B00F0AF
:103750000484F22B40F0BB85384B03F17001D6E1B5
:1037600000265AE0002522E30025ECE20026284648
:1037700005F0FBFF344B98530236102EF7D1334B34
:1037800000221A80324B186809F036FE00F0A3BD03
:10379000284605F0EAFF2A4EF085284605F0E5FFA9
:1037A000B08500F098BDAB68284613F8012B294E70
:1037B000AB60294BDA72AB6813F8012BAB60274B77
:1037C0001A7005F0C3FF3060284605F0BFFF706037
:1037D000284605F0CAFF224B1880284605F0C5FF91
:1037E000204B1880204B1A7942F002021A7100F027
:1037F00072BDAA68013312F8010B8B42AA6058709F
:10380000AA6812F8010BAA60D872AA6812F8010B14
:10381000AA605875EDD100F05EBD144B1B789E4236
:1038200080F05985124B284616F8038005F09DFF5D
:10383000034B013603EB8803D864EEE79C24002099
:10384000242A0020232A0020B00D0020F81A00208E
:10385000FC0C0020501B0020E50C00204123002020
:103860004C1B0020981C00208019002041210020C2
:1038700028210020284605F078FF6FF4AF63BC4E86
:10388000C318C62B98BFA6F89801284605F06DFF0F
:10389000A6F84001284605F068FFA6F84201284630
:1038A00005F063FFA6F84401284605F05EFFDFF847
:1038B000E882AB68A8F80A0113F8012B2846AB6030
:1038C00086F8AB21AB6813F8012BAB6086F8AC210E
:1038D000AB6813F8012BAB6086F8AD21AB6813F829
:1038E000012BAB6086F87C21AB6813F8012BAB6031
:1038F00086F8A121AB680133AB6005F036FF0A23DF
:103900005843AB68A8F82A0013F8012BAB6086F87F
:103910007D21AB6813F8012BAB6086F87F21AB6883
:1039200013F8012BAB6086F87E21AB6813F8012BEE
:10393000AB6086F8802100F0CEBC284605F015FF6C
:103940008C4B98530236102EF7D100F0C4BC8A4B32
:103950005A78002A40F0BF84AB68002013F8011B9E
:10396000AB60834B022994BF83F8681583F8682500
:103970000146EFE2284605F0F8FE804B188000F083
:10398000AABCE72120460AF043FC794B204659792E
:103990000AF03EFC042120460AF03AFC2046784911
:1039A00000F092BC83420CD2764A9E5C012202FA5D
:1039B00006F62E4218BF9A4003F1010318BF1143C7
:1039C000F0E7204604F09CFD694B204693F868150B
:1039D00000F050BC6C4B0025B3F89C306B4EB3F537
:1039E000806F0CD9715F082391FBF3F1204689B2F7
:1039F000023509F0C7FA062DF4D1002507E0715B06
:103A00002046023509F0BEFA062DF8D1F5E7604BE5
:103A10002046595B023509F0B5FA062DF7D100258D
:103A20005C4B2046595B023509F0ACFA062DF7D104
:103A300000F051BC584D05F15006B5F8B8102046BD
:103A400009F0A0FAB5F8BA10204609F09BFAB5F8CB
:103A5000BC10204609F096FA95F8BE1020460AF0F0
:103A6000D7FB0A35B5F8B610204609F08BFAB542F7
:103A7000E3D100F030BC484E06F15008284605F06E
:103A800074FEA6F8B800284605F06FFEA6F8BA0046
:103A9000284605F06AFEA6F8BC00AB68284613F875
:103AA000012B0A36AB6086F8B42005F05EFEA6F85E
:103AB000B6004645E2D100F00EBC2D4D05F1700672
:103AC00095F8D01020460AF0A3FB95F8D1102046B7
:103AD0000AF09EFB95F8D21020460AF099FB95F863
:103AE000D31020460AF094FB95F8D41020460AF033
:103AF0008FFB95F8D51020460AF08AFB073595F81C
:103B0000CF1020460AF084FBB542D9D1E3E3AA687E
:103B1000073312F8010BAA6083F8C900AA6812F8EB
:103B2000010BAA6083F8CA00AA6812F8010BAA6008
:103B300083F8CB00AA6812F8010BAA6083F8CC00C6
:103B4000AA6812F8010BAA6083F8CD00AA6812F8DF
:103B5000010BAA6083F8CE00AA6812F8010BAA60D4
:103B600083F8CF008B42D2D1FEF7E6FEB3E300BF6D
:103B70009C24002086190020E50C00202C1B00202E
:103B80000C0000C028210020180000205A1C002032
:103B90009E190020A4190020242A0020AB68284682
:103BA00013F8012BA04EAB60A04B83F8A02105F0C9
:103BB000DCFDA6F82001284605F0D7FDA6F8220175
:103BC000284605F0D2FDA6F82401284605F0CDFDD3
:103BD000A6F82601284605F0C8FDA6F82A012846C1
:103BE00005F0C3FDA6F82C01284605F0BEFDA6F899
:103BF0002E01284605F0B9FDA6F83001284605F04B
:103C0000A5FDAB68284613F8012BAB6086F836217A
:103C100005F09CFD284605F099FD284605F096FD27
:103C2000284605F093FD56E381492046102287E09F
:103C30000025804B2046595B023509F0A3F9102D71
:103C4000F7D148E37C4B2046D97A0AF0E1FA7B4B66
:103C50007B4D197820460AF0DBFA2968204604F0EB
:103C60004FFC6968204604F04BFC764B20461988CF
:103C700009F088F9744B2046198809F083F9734BD1
:103C80002046598D09F07EF925E3714B20461988AD
:103C900009F078F96F4B2046198809F073F96B4BDE
:103CA0002046197901F00101E4E26B4B20461968C6
:103CB00004F026FC694B20461988E3E7684B204650
:103CC000B3F900104FF6FF7581F30801C9B20AF08D
:103CD0009FFA644B20461968A942A8BF294621EAE9
:103CE000E17189B209F04EF95F4B2046198809F05D
:103CF00049F94E4B93F87C215C4B19680029B8BFF9
:103D000049420AB10A235943A942A8BF294620467D
:103D100089B2B7E7564D05F10A06013569782046A4
:103D20000AF076FAE97A20460AF072FA2046697DAE
:103D30000AF06EFAB542F0D1CDE24E49204630226B
:103D400004F0B2FBC7E24C4B1B789D4280F0C3826B
:103D50004A4B2046EA5C344B013503EB8203B3F84F
:103D60004C1009F00FF9EEE7434B1B789D4280F2AF
:103D7000B282424B3F4AEB5C0C2101FB03235E6B9A
:103D80000135304612F0FAFF314682B2204604F087
:103D90008BFBE9E70C33B3F5967F07D0384A1A441A
:103DA000127A8A42F6D120460AF032FA0135324BB5
:103DB0001B789D4280F08F82304BE95C0023EDE759
:103DC0000125E9B2204601350AF022FA092DF8D181
:103DD00081E2AB6813F8011BAB6009B9294B02E023
:103DE000102903D1284B1E685D6801E000252E468E
:103DF00020460AF00DFA3146204604F081FB2946A0
:103E0000204604F07DFB214B2046196804F078FB26
:103E10000021204609F0B6F80021204609F0B2F84A
:103E20002046002126E200BF242A00209C240020F6
:103E30000A2A0020B00D0020E50C002041230020BC
:103E4000501B00204C1B0020981C002080190020D3
:103E50009A1C00209C1C0020141B0020601C0020C9
:103E60003C1C0020501C0020F61A0020441C00209E
:103E7000232A0020987E01084121002028210020CB
:103E8000C87E0108341B0020401B0020101B0020AE
:103E9000AB68284613F8018BAB6005F057FC8246EF
:103EA000284605F053FC8146284605F04FFC06469F
:103EB000284605F05AFC284605F057FCAB6801334C
:103EC000AB60B8F1000F0FD1B24B0122C3F80490E0
:103ED000C3F800A0B04B83F807801A73002E00F0DF
:103EE000FA81AE4B1E60F6E1B8F1100F40F0F3819D
:103EF000AB4BC3F800A0C3F804900EB1A74B1E60F3
:103F0000A748A84B0222011D1A7009F065F8E2E1EA
:103F1000A14B5B78002B40F0DE81012007F022FDF1
:103F2000D9E19D4B5B78002B40F0D5819E4B4FF43F
:103F3000C8721A80CFE1984B5A78002A40F0CB81A2
:103F400001229A73C7E1944B5B78002B40F0BF814C
:103F50000020012107F00CFCBDE1944B94499A89A3
:103F6000944B32B10A20B2FBF0F00988821A0A445D
:103F700000E00A889A85904A904812790068DA85AC
:103F80008F4A002511688F4AB1FBF2F1B0FBF2F2C3
:103F90004FF47A7000FB01225A868B4B2046595B06
:103FA000023508F0EFFF082DF7D194E1874D204648
:103FB000296804F0A5FA6968204604F0A1FA2046B1
:103FC000A96881E17B4E204696F834900025494649
:103FD0000AF01EF9B0464D4517D27D4E2046715D60
:103FE0000AF016F906F12003595D20460AF010F98F
:103FF00006F14003595D204660360AF009F9715D0B
:1040000020460AF005F90135E5E7684B93F8AB3136
:10401000012B40F060816F4A002392F878501046DF
:1040200088F83450AB4202F1010215DA684992F87F
:10403000786092F888E05E5401F1200603F806E00B
:1040400092F898E001F1400603F806E092F8A860C3
:1040500060315E540133E5E7D0F8BC300022C8F887
:10406000B830D0F8C0303021C8F8BC300120134639
:1040700002F02AFA2FE1584B20461E684D4D16F0EB
:10408000200609D0002104F03BFAD5F8BC10D5F881
:10409000B8302046C91A04E0314604F031FA20460F
:1040A000314604F02DFAD5F8C010204604F028FA65
:1040B0002046D5F8C41007E1AB683C4E13F8012B3D
:1040C0002846AB6000237271B36005F03FFBB36814
:1040D000DFF80C911843AB68B06013F8012B284649
:1040E000AB6086F8942105F040FBA6F856012846FF
:1040F00005F03BFBA6F85801284605F036FBA6F86C
:104100005A01284605F031FBA6F87801284605F04B
:104110002CFBA6F87A01284605F027FBAB68A6F829
:104120004E0113F8012B2846AB6089F82320AB68B9
:1041300013F8012BAB6089F82420AB6813F8012B2E
:10414000AB6086F88121AB6813F8012BAB6089F86E
:10415000492005F00AFBB2898046904213D01F4BDC
:104160002AB148B11868414609F0B8F909E018B118
:1041700018680321424602E018680121642209F010
:104180005DFAA6F80C80AB6813F8012BAB6089F8D8
:104190003020A0E0341B0020E50C0020101B002084
:1041A000401B0020301B0020662B00209C24002098
:1041B000702B00208019002070240020F0090020BE
:1041C000EC09002040420F00AC190020E00900205B
:1041D000B519002070100020800B0020F41700207B
:1041E000242A0020504D204669790AF011F8A96868
:1041F000204604F085F995F8941120460AF008F855
:10420000B5F85611204608F0BDFEB5F85811204605
:1042100008F0B8FEB5F85A11204608F0B3FEB5F81C
:1042200078112046414E08F0ADFEB5F87A112046CF
:1042300008F0A8FEB5F84E11204608F0A3FE96F847
:104240002310204609F0E4FF96F82410204609F0D8
:10425000DFFF95F88111204609F0DAFF96F8491042
:10426000204609F0D5FFA989204608F08BFE96F874
:104270003010204609F0CCFF2DE000252A4B2046C7
:104280002B4493F88211013509F0C2FF082DF5D1B6
:1042900021E0AA6812F8011BAA60234A1A440133DC
:1042A000082B82F88211F4D115E00025204B20461E
:1042B000595D013509F0ACFF0B2DF7D100212046E7
:1042C00004F01EF92046002104F01AF903E020460C
:1042D000294609F0C3FFA28FA38D033292FBF3F1AD
:1042E00003FB1123616BB4F84A203846CA5494F892
:1042F000481094F84A30594084F84810FEF72EF8D8
:10430000A38D28B1A3876368D86909F075F807E021
:10431000A28FA387074B22871A780AB904221A7042
:1043200002B0BDE8F08700BF9C240020242A0020B2
:1043300065900108642B00202DE9F04FAE4E85B04A
:10434000B368AE4F13F0080803D1AD4C4546A14603
:1043500031E0002439E0AB4BE8B21B689847A0F28B
:10436000EE2240F2DC5392B29A4288BFA24BD9F8B7
:10437000902088BFB3F89801A34B1340002B03DAB9
:10438000013B63F0030301339D4A03EB850322F8ED
:1043900013002288638801351344A288083413442B
:1043A00034F8022C13441BB2042293FBF2F327F8D7
:1043B000083008F1020896F8AA319D42CBDBD9F803
:1043C00090300133C9F890300BE096F8AA319C4246
:1043D00007DA8C4BE0B21B68984727F814000134C9
:1043E000F3E7B368864C13F4804F04D094F894300C
:1043F0000BB904F03BF896F8A1217F4BE2B10332F0
:1044000037F91200B3F8A251B0F57A7003D4A8427C
:10441000A8BF284600E000200BF0A8FE80462846F2
:104420000BF0A0FE014640460BF0A8FF77490BF0C9
:10443000F1FE0CF0DBF814E093F8A40190B1744A9B
:10444000D179744A32F81120B3F8A81192B2521AF5
:104450009002B3F8A631801A90FBF3F000B280F31B
:104460000A0080B2B368A4F8AE0013F4024F63D020
:10447000634B694DB3F8B09095F80831052253436A
:104480000FFA89F898453ADD644B5A789B46002A22
:1044900035D0594BB3F898313B807B80BB80B5F861
:1044A0000A31FB805E4B1A789A46032A05D95D488B
:1044B00002F032F903238AF8003095F8082195F8C4
:1044C0000931134405225343984513DD9BF812B07C
:1044D000BBF1000F0ED103F0C9FF504B83F800B0C1
:1044E0009AF80030042B05D94F4802F015F94C4BCF
:1044F00004221A70B4F8B2300133A4F8B23095F83F
:10450000083105225343984512DD444D95F801804A
:10451000B8F1000F0CD103F0A9FF85F80080404DE1
:104520002B78042B04D9404802F0F6F804232B70B2
:1045300009F10109A4F8B0900022B6F89A11B6F872
:104540009C511346B85E9B088842C4BF63F07F034A
:10455000DBB20232A842B8BF43F04003082AF1D1CF
:1045600094F8B400264A984205D192F8B500F9288B
:1045700004D8013000E0002082F8B50084F8B4309F
:10458000B3681D4A13F48048234DB7F906300AD0AA
:10459000B2F89811B2F84C21881A834206DD0A4419
:1045A000934206DB02E08B4203DB17E04FF000088A
:1045B00014E00023C4F8C431C4F8C831C4F8CC31C5
:1045C000C4F8C030C4F8C430EB6C2BB10C4B93F87A
:1045D0009430002B40F07C834FF00108EB6C43B328
:1045E00094F894302BBB0D4B5B7813B396F89F3146
:1045F000E3B103F03BFF1CE09C240020B00D002041
:10460000481A0020D40D00200300008000C07F4421
:10461000440B00204C0B0020242A0020E50C002035
:10462000600100200080010813800108B8F1000F2C
:10463000DFD194F8B5208C4B142A40F0A6808B4A29
:1046400050789146C0B1EA6C2AB993F8B4305F2B28
:1046500001D103F00BFF96F89E31002B00F09580FE
:10466000EB6C002B40F0918094F8B4307D2B40F03F
:104670008C8003F0FBFE88E093F8B420572A15D114
:104680007B4B4FF47A721A80B368DB0501D5FEF7D5
:1046900065FC784B1B68580702D5774A0A211180C0
:1046A00013F0080334D1A4F8B63031E0B1684907FB
:1046B00025D55A2A23D193F8B8202AB1012283F8AC
:1046C000B80083F8B92023E093F8BA20DFF8C0A13E
:1046D00082F0010283F8BA209AF8003032B10A2B36
:1046E00016D9664802F018F80A2305E00B2B0FD9FB
:1046F000634802F011F80B238AF8003008E05D2AC5
:1047000000F0EE825B2A00F0ED825E2A00F0EC827F
:10471000EB6C33B994F8B4206F2A02D10AF064F834
:1047200015E096F89E2122B11BB994F8B4307E2B87
:10473000F4D094F8B430972B04D1524B4FF4C87294
:104740001A8004E0A72B04BF012389F80E3094F8E7
:10475000B430BB2B02D1EB8D023303E0B72B03D176
:10476000EB8D023BEB8509E0BE2B02D1AB8D023312
:1047700003E0BD2B09D1AB8D023BAB850120014687
:1047800006F0F6FF002384F8B530B068420731D553
:1047900094F8BA20344B8AB1344A527872B13A4A0A
:1047A000B7F90610B2F89A21914207DD93F89420E8
:1047B00022B93221A3F8BC1083F8BA2094F8A520BE
:1047C000294B62B193F8BE202AB993F8B82012B9E8
:1047D0003222A3F8BC20012384F8BE300AE093F80B
:1047E000B8203AB1214A527822B983F8B820012280
:1047F00083F8B920254B002193F8149001220B4631
:104800004B4547DA07EB43052D8940F2A46A0FFABE
:1048100085FCD44502F1010BD4BF4FF0000A4FF0E4
:10482000010A0AFA0BFA40F2135BDC454FF0030B66
:104830000BFB03FBA5F21555ADB2CCBF4FF0000C3E
:104840004FF0010CB5F5C77F0CFA0BFC8CBF0025AF
:10485000012595404AEA0C0C4CEA050C41EA0C0192
:1048600001330332CCE700BF481A0020E50C0020DA
:10487000EE170020800B0020F017002016800108A2
:104880001B800108662B00209C2400209C0B00202C
:104890006001002000239D4D9D4A05EB8309D9F856
:1048A0004C9002F1940C11EA090F0CBF4FF0000973
:1048B0004FF0010903F80C900133192BA946EAD1F6
:1048C00092F8AC30934D2B7523B1012382F89F30C1
:1048D00082F8963094F895308F4A53B98C4B4FF04C
:1048E000050CB3F9B01099F808310CFB03F39942A9
:1048F0001DDD11688B071AD5EB7843B9C4F8C030B9
:10490000C4F8C430834B4FF0010C83F803C000049B
:1049100010D599F808314FF0050C0CFB03F3B4F9EE
:10492000B000984206DD890604D5012301E000238A
:10493000EB70AB7494F8963075495BB10023EB7063
:104940002B7943B9C1F8C030C1F8C430714B012193
:10495000197100E02B7194F894300BB901232B707E
:1049600095F803C06D4BBCF1000F02D1694909797C
:1049700011B11021596101E01021196111684B0733
:1049800025D594F89720624B9AB1A87990B9614ADD
:104990004FF0010A82F806A0D3F8CC20C3F8DC005F
:1049A000C3F8C820B3F8D820C3F8E000A3F8D0209B
:1049B00000E0AA71B368980409D594F898302BB137
:1049C000EB7B23B9534B0122DA7300E0EB7311F058
:1049D0000A0F20D094F899304D4A4BB16B7943B906
:1049E0004C4B01205871B2F8B630A2F8E43000E028
:1049F0006B7194F89A302BB16B7A23B9454B012235
:104A00005A7200E06B7294F89B20414B1AB1B3F8D4
:104A1000B620A3F8E620890640F1F280EA7A3D4B01
:104A2000002A00F0E8803E4A1278042A40F2E3802F
:104A300094F9E82032B11A7922B9BCF1000F01D102
:104A40000122DA7094F89E20314BDFF8DCA01AB90D
:104A5000AA7CDFF8C0B0CAB1EB79DFF8B8B0002BA0
:104A600040F0B7802F480122011D8BF808308AF8EA
:104A700001308BF80720019208F0AEFA022384F887
:104A8000E830B4F80431C4F800313BE08BF807207B
:104A900093F89F20002A49D0B3F9D210B9F81C210D
:104AA0000029B8BF4942914240DAB3F9D410002935
:104AB000B8BF4942914239DA9BF80820002A40F0F9
:104AC0008880D3F808114FF0010CC3F8F810D3F820
:104AD0000C1103F1F800C3F8FC1003F1FC018BF892
:104AE00008C08AF801200393CDF808C0019208F0AD
:104AF00073FA039BDDF808C0B3F8041183F8E8C02B
:104B0000C3F80011019A8BF8132062E0242A0020D8
:104B1000481A0020E50C0020800B0020000C01400A
:104B200041230020341B0020600100209AF801106E
:104B300000232B7200294CD1764B01225A708C46EF
:104B4000754B002203F588702CF8002003F58B705C
:104B50002CF8002003F58D702CF8002003F5907BD5
:104B6000002041F80B008B44CBF80420CBF8080060
:104B700003F5A47B41F80B008B44CBF80420CBF861
:104B800008000CF1020C03F5B87B41F80B00BCF1F6
:104B9000040F8B44CBF80420CBF8080001F114017A
:104BA000CED1297C11B90023EB7412E0C3F898012F
:104BB000C3F89C01A3F8A021A3F8A221A3F8A42183
:104BC0005649002353520C31535202320A2AF7D16C
:104BD000E9E79AF800300C2B12D994F8BE317BB972
:104BE0004F4801F099FD4B4B0C221A704A4B0122A1
:104BF00083F8BE2104E00023EB712B7284F8E830C7
:104C000094F8A0302BB1AB7C1BB9464B01229A72B1
:104C100001E00023AB72297C424B31B3B268002023
:104C20009205587221D599F808214FF0060909FB21
:104C300002F2B4F9B0C0944517DD0122DA703A4AA5
:104C40009872B2F8980182B23A807A80BA80374A74
:104C5000B2F80A21FA80DA7A3AB9354F3F78052F4F
:104C600003D89A74334B32381880B2682E4BD20670
:104C70004BD56A78002A48D0002946D1B8F1000FF8
:104C80001FD02D49D4F8C02109684AB993F876316C
:104C90004FF47A7202FB03121F4BC3F8C02106E0E7
:104CA0008A4204D293F876310BB103F0DFFB194C42
:104CB0002378092B29D9214801F02EFD09232370DF
:104CC00023E0D4F8C03103B3134BC3F8C0811CE018
:104CD000144B1B78002B3FF47FAC09F085FD7BE47F
:104CE000012202E0022200E003225FFA82FA0020A1
:104CF0000AF1FF33014686F8683506F039FD0220D7
:104D00002821524606F0C4FC02E5002005B0BDE8AB
:104D1000F08F00BF60010020481A0020EE1B002029
:104D200022800108E50C00209C240020242A002079
:104D300041230020B00D00205C24002013800108D6
:104D40002DE9F04F7A4C87B0A3689B0740F195801E
:104D5000784D794B06221F882B681F442B792F60D2
:104D60000133DBB2B3FBF2F62B7102FB163313F007
:104D7000FF0667D1DFF81092D5F808A099F8013046
:104D8000DFF8088250464FF0785138F813B00BF036
:104D900041FA014650460BF033F91FFA8BFB82466D
:104DA00058460BF0E3F965490BF034FA64490BF00F
:104DB000E5FA834694F87D010BF0D8F90146584690
:104DC0000BF028FA014650460BF01CF94FF07851D1
:104DD000A8600BF01FFA0BF009FC94F88131A88150
:104DE00083B399F80530B4F8781138F8132040F6F9
:104DF000E44392B25A4340F6FF73B2FBF3F2B4F8C5
:104E00007A312869D21A4FF47A735A43B2FBF1F21D
:104E1000082190FBF1FECEEB000002442A6192FBD8
:104E2000F1F25743D5E9060197FBF3F3C01841EBC4
:104E3000E3716A61C5E90601424A00230BF0F6FB03
:104E40002E602862404AAB8912889A4208D33F4DAF
:104E50002B78012B11D93E4801F05EFC01230BE0B9
:104E60003C4A12889A4208D3384D2B78022B04D939
:104E7000394801F051FC02232B70384E737B5BB331
:104E8000324D2B78082B27D9A368DF051FD5344B6B
:104E9000DB7AE3B1334B1878042818D90023324960
:104EA00005275A185F540F275770122B03F102077A
:104EB000FAB204D0B0EB520F3B46F0D800E0142217
:104EC0000A4464235370F0239370274800E0274876
:104ED00001F022FC08232B70254B1A881AB1254BB0
:104EE0001B68980707D4244B1B8823B9234B1B78D6
:104EF0000BB107F0BDF9224B1A7832B1214A0D4CA3
:104F00001378002B00F01683C5E2A268084B110548
:104F1000F4D51A4A1278002AF0D093F8BB21002A5F
:104F20003CD193F8BC319BBB0D4B5B7831E000BFAB
:104F30009C240020301C0020702B00203333534071
:104F400000F07F45407E0500560B002060010020E8
:104F50003D800108540B002040800108DC1A00202D
:104F6000E50C002041230020181C0020318001089E
:104F7000662B0020800B0020EE170020EC1700208D
:104F8000782B002044230020440B00204C0B0020F1
:104F9000337D003318BF0123002BAFD094F8BA3112
:104FA000002B40F06A81C44BD868FDF783F90028D4
:104FB00040F06381C14AC24D1368696A591A7C295D
:104FC00040F25B816B6295F828300746013385F823
:104FD000283007F12400BA4EC0B201F049FB06F1B7
:104FE0002A0333F917000BF0C1F8B64B8046B3F82B
:104FF0009C000BF0BBF8014640460BF0BFF9B249EC
:105000000BF008F90BF0CCFA013700B201F05CFBB1
:10501000032FDED1302001F02BFBB6F9300001F078
:1050200053FB01F033FB96F8280010F0030828D159
:10503000102001F01DFB736B642793FBF7F000B2A7
:1050400001F042FB212001F013FB736B93FBF7F09F
:1050500007FB103787EAE770A0EBE77000B201F0BA
:1050600033FB142001F004FB984BB3F9000001F06E
:105070002BFB1C2001F0FCFA404601F025FB01F05F
:1050800005FB95F828308E4E5A0740F0D08002205C
:1050900001F0EEFAB6F938000A2790FBF7F001F0BC
:1050A00013FBA3689B075FD5B3894FF06E0808FB1D
:1050B00003F8152398FBF3F81FFA88F83A204FF00D
:1050C000640901F0D5FAB8FBF9FB0FFA8BF001F097
:1050D000FBFA3B2001F0CCFA09FB1B8080B20530C3
:1050E000DFF8F88190FBF7F000B201F0EDFA98F8E4
:1050F0000030B28940F6340192FBF3F24A432A2190
:10510000B2FBF1F2718F062091FBF3FB03FB1B1B3B
:105110004FEA0B1B1FFA8BFB4BEA022B1FFA8BFB90
:10512000C2F303224BEA020B01F0A2FA0FFA8BF052
:1051300001F0CAFA728F98F80030013292B292FBF5
:10514000F3F103FB11232820738701F091FA7069B2
:1051500090FBF7F000B201F0B7FA042001F088FAF2
:10516000B6F9200001F0B0FA594B1B6898065CD5DF
:10517000584FDFF86C813B68574E002BB8BF5B423D
:1051800093FBF8F106FB01334FF03C0909FB03FAEE
:105190001320039101F06CFA039964229AFBF8FB47
:1051A00002FB01B000B2039201F08EFA1B2001F065
:1051B0005FFA06FB0BA34FF47A7B93FBFBF000B284
:1051C00001F082FA232001F053FA38680028ACBFBE
:1051D0004E20532001F078FA7B681220002BB8BFD4
:1051E0005B4293FBF8FA06FB0A3309FB03F901F073
:1051F0003FFA039A99FBF8F802FB0A8006FB08982D
:1052000000B201F061FA1A2001F032FA98FBFBF0CB
:1052100000B201F059FA222001F02AFA7868002839
:10522000ACBF4520572001F04FFA01F02FFA95F856
:105230002830282B21D1224B002283F828201F4A16
:105240004FF47A7317683C25B7FBF3F7172001F08A
:105250000FFAB7FBF5F6B6FBF5F005FB10600002A0
:1052600000B201F031FA182001F002FA05FB1670C5
:1052700000B201F029FA01F009FA94F8BA31012BD1
:105280007FF43CAE0C4CE068FDF714F800283FF4C6
:1052900035AEE468636B23B19B68204698470546AA
:1052A00036E0A368201DEBB10DF1170198470030DF
:1052B00018BF01202BE000BF9C0B00205C240020C5
:1052C000301C00201800002000007A44FE1A002044
:1052D000800B0020501B0020806967FF1600002013
:1052E00080969800E2697AB101210DF1170001F072
:1052F000F5F90546E069FCF7E8FF638D834205D8C0
:10530000206A08F079F801E0104600E02846C5B2AE
:105310000520FDF703FA8A2D31D08E2DB2D1AE4C87
:1053200000212E2204F16E0011F0A4FB7C2384F8EE
:105330006E30E02384F871307D2384F89A30A3899D
:1053400084F86F50DAB21B0A84F88D3084F8833009
:10535000142384F8863084F887304FF4FA73A4F865
:1053600088304823A4F89030782384F88C2084F87F
:10537000822084F8923004F16E002E2188E0974B51
:105380001B6899067FF57EAF934C002104F13C0029
:105390002C2211F06FFB7C2384F83C30A02384F88E
:1053A0003F307D2384F867308D4B84F83D501B7867
:1053B00084F856308B4BDB7A002B64D08A498B48BB
:1053C0000A688B4E92FBF0FC5FFA8CFC06FB0C2704
:1053D00006256F43662384F86530D30F84F8453083
:1053E00042F21073B7FBF3FE03FB1E77496884F8A3
:1053F000487091FBF0F03F0AC0B284F84970CF0FBB
:1054000006FB00116943B1FBF3F503FB151384F8A8
:105410004D301B0A84F84E30B4F8683064225FFACD
:105420008EFEE9B202FB0CEE02FB0011B3FBF2F2BE
:1054300024235A43B4F86A301FFA8EFE84F84F30A2
:105440001B0A84F850306B4B89B21B8892B284F8E7
:1054500051301B0A84F85230B4F86C3084F846E0BE
:1054600084F84B104FEA1E2E090A84F84320120AD2
:1054700084F847E084F84A7084F84C1084F844209B
:1054800084F8583002E0202384F865305A482C21F3
:1054900003F042FDF6E600231370D4F8A420C4F80C
:1054A000A43013629362D362544B1E68544B1D7830
:1054B000002D3FD101272946642204F5AA701F70F0
:1054C00011F0D8FA84F854710720009529464D4A06
:1054D00004F5AA7307F040FF04F5AA77C4F87C012D
:1054E00008B1494B0360802001F086F83A4DC4F8BA
:1054F0007801F8B1331DC5F87431444B7762F3621B
:10550000434B01203363202110F0B2FFC5F8840122
:1055100018B9404B03221A700CE0202385F8833120
:105520003D4B3E48C5F8AC313D4B0021C5F8B0318C
:1055300001F002F994F8B83123B106F0F1FB394AD1
:10554000394BDA603948D0F884300BB13849984784
:10555000384A224D138813B12B689A0702D4364B70
:105560001B8813B1FDF79AF90AE01E4B9A7812B125
:10557000324A082111615B7813B1304B08225A611D
:1055800094F8B93123B1144A013B82F8B9310BE0E8
:10559000144B5A7B1AB99A70FDF780F901E0012289
:1055A0009A70092384F8B9312B689B0610D594F8BA
:1055B000BA3123B1084A013B82F8BA3108E0084BFE
:1055C0001B78042B01D9FDF760F9022384F8BA3166
:1055D000002007B0BDE8F08F301C0020800B0020B9
:1055E00041230020E50C0020501B0020A086010074
:1055F0006079FEFF4C1B00206C1C00209C0B0020DF
:10560000782B0020D163000840910108EDD60008F6
:1056100035760008642B002040820108499101087A
:10562000449101080400FA0500ED00E01800002094
:10563000681C0020662B0020EE170020000C0140A3
:10564000038A064A3C21A3F5807301FB03239B6B6D
:105650000120DA6842F08002DA607047A42300205B
:10566000024B9A6842F002029A6070479C24002024
:1056700037B5062305460C4640681D216A4605F0ED
:1056800055F828B39DF801309DF800009DF80220E0
:1056900043EA00209DF803309DF8041043EA0222FB
:1056A0009DF80530208043EA01236280A380297899
:1056B00069B100B290FBF1F12180297812B292FB1E
:1056C000F1F262802A781BB293FBF2F3A3800120EF
:1056D00003B030BD1FB50123ADF80830ADF804109C
:1056E000002301A9ADF80A30ADF80C30ADF8062062
:1056F00005F07EFA05B05DF804FB4FF41A735843C9
:105700002A4B10B5C418C35CDB074DD594F858324A
:105710001BB3236D1868828DC2F34E02828494F805
:105720005C2222B1B4F864220132A4F8642294F815
:105730006222197B002A14BF02220022FFF7CAFF4F
:10574000012384F85B32002384F8593284F85A32FA
:1057500084F85832A4F8603210BD94F85B322046C9
:10576000012B04BF94F8593284F85A32FDF770FBCC
:1057700094F85B12236D94F8622249B9012184F8F0
:105780005B121868197B002A14BF0222002208E06D
:10579000002184F85B121868197B002A0CBF0222D2
:1057A0000022BDE8104095E710BD00BF1413002093
:1057B00070B54FF41A764643424D741994F85C2242
:1057C000CAB9E36CA16C99422AD0591C234493F8BE
:1057D0005801E36BC0B299424FEA400343F40073AF
:1057E000A4F85E324FF00A03E16484F85D3228BF0A
:1057F000E264012312E094F95D327BB1B4F85E12E9
:1058000020464B08A4F85E3201F00101FDF735FB9C
:1058100094F85D32013B84F85D3201E084F85C323B
:1058200094F85832002B4BD194F859320133DBB243
:10583000092B84F8593204D12046BDE87040FDF7A9
:1058400007BB0A2B3CD194F85B222AB9B4F860322A
:1058500043F00103A4F86032735DDD071AD5B4F894
:10586000603203F4007189B209B9D80705D4B4F8DD
:1058700066320133A4F866320CE0C3F34705636C6B
:10588000E01880F85450A06B0138834236BF0133D2
:1058900061646364012100238A4284F8593284F8E8
:1058A00058120DD184F85B3294F86222236D002ADD
:1058B0000CBF022200221868197BBDE8704009E77E
:1058C00070BD00BF1413002038B50D4B0C469B680B
:1058D00015469B0503D40B4A0023138004E003F014
:1058E00021FF0028F7D038BDE15A074A9952023308
:1058F000102BF9D12846BDE8384007F07DBD00BF28
:105900009C240020F81A00202C0F00200F4B70B5AB
:105910009B6816469A0504460D4604D40C4A00239B
:105920001380A27804E003F0FDFE0028F6D070BDDD
:10593000934206DA35F81300064941F82300013393
:10594000F6E73046BDE8704007F056BD9C240020C5
:10595000F81A0020D80D002038B50D4B0C469B6876
:105960001546990503D40B4A0023138004E003F085
:10597000D9FE0028F7D038BDE15A074A42F8131083
:105980000233102BF8D12846BDE8384007F034BD6B
:105990009C240020F81A0020F01D002038B50D4B83
:1059A0000C469B6815469B0503D40B4A00231380C5
:1059B00004E003F0B7FE0028F7D038BDE15A074AEB
:1059C00042F813100233102BF8D12846BDE83840B6
:1059D00007F012BD9C240020F81A0020580E002069
:1059E00003460A466820194608F084BB73B5202395
:1059F000ADF804300423022406460D461D480DEB85
:105A000003018DF806308DF80740FCF75CFF2A2172
:105A100000221C2008F06EFB0E2122461C2008F0FC
:105A200069FB0F2103221C2008F064FB2B211222AA
:105A30001C2008F05FFB2C2122461C2008F05AFB9A
:105A40002D2101221C2008F055FB2E2100221C20B4
:105A500008F050FB1C202A21052208F04BFB4FF4D4
:105A60008073A6F89C300DB1034B1D70012002B06D
:105A700070BD00BF000801406201002038B5082257
:105A800005460C4618200F2108F034FB1820102181
:105A90000E2208F02FFB4FF48053A5F89C300CB178
:105AA000014B5C70012038BD6201002008B509B1CE
:105AB000044B99700A2101220C2008F01BFB0120E5
:105AC00008BD00BF6201002010B564200C46FCF741
:105AD00025FE68202321F02208F00CFB10B90320DA
