:020000040800F2
:10000000005000200D280108AD28010871EF0008FC
:10001000AD280108AD280108AD2801080000000046
:10002000000000000000000000000000AD280108F2
:10003000AD28010800000000AD280108EDED000822
:10004000AD280108AD280108AD280108AD28010838
:10005000AD280108AD280108AD280108DDE300083E
:10006000AD280108AD280108AD280108AD28010818
:10007000AD280108AD280108AD280108AD28010808
:10008000AD280108AD280108AD280108AD280108F8
:10009000AD280108AD280108AD280108D9E3000802
:1000A000AD280108AD280108AD280108CBE3000800
:1000B000C1E30008B5E30008A9E300086DEF0008FC
:1000C00065EF000869EF000861EF0008AD2801083E
:1000D000AD28010895ED000839ED0008D5EC0008C1
:1000E000AD280108AD280108AD2801080000000076
:1000F0000000000000000000000000000000000000
:0C01000000000000000000005FF808F1A3
:100110002DE9F04FA84C9DB023780790012B1D4688
:1001200000F0D7801DD3022B40F04A84A34B002659
:100130001B689847D4F884300546C31A18460493C0
:100140000FF054FF9E4B059059690FF0A7FF9D4A91
:10015000C4F88450069092F831903546B3469046E4
:10016000C3E1974BA01C9B68984704F10208002844
:1001700000F06484944B04F1500A1A889946002ACE
:1001800000F09980002704F108053E46B9F80020E8
:100190008E4BB2F57A7F049207D10A20A3F13C017D
:1001A00000FB06110022DA510A61DA5938F906001B
:1001B0000244DA510FF01EFF2B690133012B2B6132
:1001C00004D1002368602860AB602AE0D5F800C045
:1001D00002936146CDF80CC001900FF055FE029BD2
:1001E000834618460FF006FF0146584610F00AF8FD
:1001F000DDF80CC0014660460FF048FE019A034648
:1002000019466860104602930FF03EFE01465846BC
:100210000FF044FFA9680FF039FE029BE8602B60E5
:10022000A860002328F806302AF80630049B012B2A
:1002300034D12869012807DD01380FF0DBFE0146C3
:10024000E8680FF0DFFF00E0002012F00FFF604BC6
:10025000834693F8660190B10FF0CCFE01465846F4
:1002600010F0D8F858B14FF47A73A9F80030002391
:10027000A361E3622364E364A36463640EE0534B0D
:100280004FF47A72FB580A2003F5FA7393FBF2F3EA
:100290002AF806300F21012209F0C8FD0236062E89
:1002A00007F1040705F114057FF470AFB9F80030C9
:1002B000013BA9F80030002338F803003AF8031096
:1002C0003D4A411A28F803100233062BF4D101F0FD
:1002D0007CBD3B4B04F156001B6A984704F156075E
:1002E000002800F0AB833B4E394D3088002844D0C5
:1002F00000231A46DFF8E480B0F5C87F04BF002170
:1003000048F8021037F9039058F80210DFF8A8C037
:10031000494448F80210002105EB0309F952023361
:10032000062BDFF8AC80A9F86A1102F10402E1D1D2
:1003300001281FD1DCF85C304FF4C872C83393FB3E
:10034000F2F3A8F86A31DCF86030C83393FBF2F3BB
:10035000A8F86C31DCF86430C83393FBF2F21E4B22
:100360001B88D21A174BA8F86E219985D9850146AA
:1003700009F07DFD3388013B3380AB68144A5B078D
:1003800040F18F80B4F868600B4B322E28D1B2F860
:100390006A11A3F86A10B2F86C11B2F86E21A3F8D2
:1003A0006C10A3F86E20074A918DD28DA3F87010BF
:1003B000A3F8722016E000BFD01C002074090020B2
:1003C000300B0020BC2E0020B61C0020141D002085
:1003D00034290020FE2F0020780000202C1D002052
:1003E000002E3DD000231A46322EB74804BF00210C
:1003F000815037F903808158DFF8DCC241448150D5
:10040000002105EB0308F9520233062BA8F86A1104
:1004100002F10402E8D1012E1FD1AC4F8CF88010FC
:100420003B788CF881600A2B04D9A94805F03CFB85
:100430000A233B70B4F86A30B4F87020A5F86A312A
:10044000B4F86C30A5F86C31B4F86E30A5F86E31A4
:10045000A04B9A85B4F87220DA85013EA4F8686052
:1004600094F882209C4BE2B1586F3221002290FB1D
:10047000F1F083F88220A5F86A01986FDB6F90FB9A
:10048000F1F093FBF1F1954BA5F86C011B8801206D
:10049000C91A904BA5F86E1101469A85DA8509F0C4
:1004A000E6FCB4F85620B5F86A31D31AA4F85630F1
:1004B000B4F85820B5F86C31D31AA4F85830B4F811
:1004C0005A20B5F86E310225D31AA4F85A30B5E295
:1004D00007F192025437E95BA952814F0436EA5F73
:1004E0000235062D02FB02BB3BD07E4F0DF1400AC8
:1004F000785F0FF07FFD06990FF0D0FD4AF80600F7
:10050000B9F1000FE4D048460FF074FD01464FF0FA
:100510007E500FF077FE0246114607F1860A4FF033
:100520007E5001920FF0B0FC56F80A100FF0B6FDA5
:1005300007F154018446485FCDF80CC00FF05AFD16
:10054000019A923711460FF0A9FDDDF80CC0014663
:1005500060460FF09BFC4AF806000FF065FF7853E9
:10056000BBE75E4A6425128805FB0BF3524393FBFD
:10057000F2F5493D07F1080010A9ADB20DF0C2F83F
:100580003B2D6DD9584BD4F8A450B3F900000FF0AF
:1005900031FD014628464FF001060FF03BFF00B940
:1005A0000646524B2946D4F8A0005E7312F0BEFBFB
:1005B0000646C4F8A800D4F89C00D4F8A49000F132
:1005C0000045D4F8A00001460FF068FD49460746F3
:1005D00048460FF063FD014638460FF057FC12F015
:1005E00045FD0146284612F0A1FB0546C4F8AC00C3
:1005F00030460FF0BFF832A3D3E900230FF00EF915
:100600000FF0EEFB12F0C4FAA4F8B00028460FF089
:10061000B1F82BA3D3E900230FF000F90FF0E0FBB2
:1006200012F0B6FA324BA4F8B2001B681F0740F173
:100630008E8010A92F480DF065F82F4B4FF0000B5E
:10064000B3F864010FF0D2FC4FF07E5182460FF0F8
:100650001DFC01464FF07E500FF0D4FD81464FE067
:10066000254B4FF00009B3F862010FF0BFFC4FF0CB
:100670007E5106460FF00AFC01464FF07E500FF007
:10068000C1FD0546DFF874A030465AF819100FF086
:1006900005FD834637F909000FF0ACFC01465846CA
:1006A0000FF0F4FB29460FF0F9FC4AF8190009F1A4
:1006B0000209B9F1060FE5D164E700BFAFF300808E
:1006C0003B597E90A9E78140441D00208400002012
:1006D000C07B0108BC2E0020D01C00207800002028
:1006E000641D0020D21C0020980B0020F50C002077
:1006F000900B0020841D0020342900206C1D002058
:10070000BD4F504607F1B40353F81B1002930FF08E
:10071000C5FC07F1C001024631F90B0001920FF050
:1007200069FC019A014610460FF0B0FB49460FF0F4
:10073000B5FC029B43F81B000BF1020BBBF1060F4B
:10074000DED118460DF096F8A7F8C60042E0DFF8B3
:10075000D49210A909F104000CF0D4FFD9F80400D8
:10076000D9F808B001460FF099FC5946074658469B
:100770000FF094FC014638460FF088FBD9F80CA026
:100780000746514650460FF089FC014638460FF0A7
:100790007DFB12F06BFC002107460FF013FEA0B9A1
:1007A000D9F8040039460FF02DFD3946C9F8040088
:1007B000D9F808000FF026FD3946C9F80800D9F825
:1007C0000C000FF01FFDC9F80C008C480DF052F81A
:1007D000A4F8C6008A4905980FF060FC05F10045B1
:1007E000074606F10046B4F9C600149513960FF0BB
:1007F00001FC00F100400EF0BDFF7BA3D3E9002314
:100800000FF00CF80FF0ECFA1590B4F994000FF01B
:10081000F1FB1690B4F996000FF0ECFB1790B4F9C9
:1008200098000FF0E7FB13A9189016A80CF06AFFC8
:10083000744B714D93F84830012B17D1724B5B7894
:1008400073B9D5F8C830402093FBF0F0181A0FF0B8
:10085000D1FB18990FF01AFB0FF0E6FDC5F8C800A0
:10086000D4F8C830402093FBF0F001E0674B1888C3
:100870000FF0C0FB014618980FF006FB644B189070
:10088000196838460FF002FB014638460FF0BAFCF3
:10089000D4F8CC600746314618980FF0F5FA0146B7
:1008A00038460FF0FBFB014630460FF0EFFA0646E4
:1008B000C4F8CC001698D4F8D07012F069F998F802
:1008C00033100DF051F83844C4F8D0001798D4F81C
:1008D000D47012F05DF998F833100DF045F83844F3
:1008E000C4F8D4003046D4F8D87012F051F998F812
:1008F00032100DF039F8474BDDF810B01A68384463
:100900005A441A60D4F8DC303B4D0133C4F8DC3073
:1009100098F8B630C4F8D800002B4FD0D5F89C001A
:10092000D5F8A08001460FF0B9FB41460746404686
:100930000FF0B4FB014638460FF0A8FAD5F8A460D2
:100940000746314630460FF0A9FB014638460FF006
:100950009DFA12F08BFB014630460FF053FC2E49F6
:1009600006460FF043FD18B10023A5F8E03025E05E
:10097000304612F089F9294B19680FF08FFB12F0FD
:1009800007F9B0F5617FA8BF4FF461700EF0E0FE8B
:1009900017A3D3E900230FF06BF80FF021FA12F040
:1009A00035F9184B064693F8B6000FF023FB314695
:1009B0000FF074FB12F0ECF8A5F8E00003253DE021
:1009C000174B5B79012B2FD1B4F9E220B4F9063033
:1009D00003EB4203032293FBF2F39BB2A4F8E8304B
:1009E000A4F8E23023E000BF399D52A246DF913FD8
:1009F000A2EB0FE5DD169640D01C002088000020F9
:100A0000BD378635BC2E0020F50C00207800002074
:100A1000A40B0020043000208FC2753CA00B0020E6
:100A20003429002084000020E388A4F8E83063889B
:100A30000425A4F8E430A388A4F8E630EDB2032D31
:100A4000884E257004D8079C0123637001F0CDB94E
:100A5000854B1B689847854B1A681860844B821A2F
:100A6000A6F8EA2093F810B0824A834BB2F9061038
:100A70001A8DBBF1000F11D1914237DBB1F5FA6F3E
:100A800093F8265007DA891A4D43A2F5FA6295FBCE
:100A9000F2F564352BE0C5F1640528E091420EDBE8
:100AA000B6F9F21093F82620914208DDB1F5FA6FFD
:100AB00002DA891A4A435212C2F1800200E080220F
:100AC000B4F9B210142909DD93F82600B1F5967F28
:100AD000A8BF4FF496714143A2EB212293F8265010
:100AE000C5F18005AA42A8BF154600E06425634A07
:100AF00093F8B170B2F8986192F95C210496524271
:100B000093F8B06093F8253092B200215A480592CC
:100B100006930A46574BDDF8109031F903A040F2D6
:100B2000E634C9EB0A0303F2F31EA64503D8002BF3
:100B3000B8BF5B4201E04FF4FA73022A32D026B10B
:100B4000B342CCBFC6EB030300236424DFF814C117
:100B500093FBF4F8DFF80C910CEB480E6FF0630C8C
:100B60000CFB083CBEF8F4E009EB4808B8F9F69035
:100B70000FFA8EF8C8EB090808FB0CF8DFF80891AB
:100B800098FBF4F8C64421F809E090F823E003FB51
:100B90000EFE3B4B9EFBF3F323449BB26B4393FB54
:100BA000F4F417E027B1BB42CCBFC7EB030300232B
:100BB000DDF814E0DDF8189003FB0EFC002BB8BF45
:100BC0005B42284C03FB09F3A4F8F0C02C4C93FBC8
:100BD000F4F46434DFF8A0E090F80B8096449EF8BB
:100BE00001C004FB08F804FB0CFC264B4FF0640E1C
:100BF0009CFBFEFC98FBFEF802F803C003F1030C1B
:100C000002F80C8090F8158003F1060C04FB08F440
:100C100094FBFEF402F80C40DDF810C0A3F58174DB
:100C2000E24507DA04F1EC0331F803E0CEF1000EFF
:100C300021F803E00132032A01F1020100F1010071
:100C40007FF468AF0B4BDB881AB205930B4BB3F8FC
:100C50009A319A421ADBB2F5FA6FA8BF4FF4FA62E2
:100C600015E000BFD01C002074090020F82F0020E0
:100C7000F50C002090120020BC2E0020342900200A
:100C80000CFEFFFFD21D0020BC1D00201A46D21A08
:100C90004FF47A714A43C3F5FA63B2FBF3F364206D
:100CA00093FBF0F204EB42016FF0630808FB0233A0
:100CB000B1F80C1104EB4202B2F90E810AB2C2EB98
:100CC000080808FB03F8AC4B98FBF0F888441FFABF
:100CD00088F85B7A1FFA88FAA84DA4F8F2A0002BD6
:100CE00047D0B5F92431B5F9C600C01A0EF030FD71
:100CF0009FA3D3E900230EF091FDA14B00220EF03B
:100D0000B7FE0FF06DF8064611F00CFF07463046AF
:100D100011F07CFF0646B5F9EE000FF06BF9814645
:100D2000B5F9EC000FF066F9394602900FF0B6F90C
:100D300031460246484601920FF0B0F9019A014649
:100D400010460FF0A1F80FF06FFB3946A5F8EC0044
:100D500048460FF0A3F9029B0746314618460FF0AC
:100D60009DF9014638460FF091F80FF05DFBA5F8AC
:100D7000EE00844BDFF818921A6812F0080306930D
:100D800036D0B4F8F0107D4D01F145039BB28A2BAB
:100D90002AD8794B58791F4630B3B5F82631B5F8C3
:100DA000C600C01A80B283B21DB2B335BCBF00F515
:100DB000B4739BB218B2B3287D7B7348C4BFA3F54C
:100DC000B4739BB290F85C0195B140B2404243438A
:100DD00099F809001BB243436FF01D0093FBF0F339
:100DE0001944A4F8F01003E0B4F8C630A4F8263192
:100DF000560774D5604B9B79002B70D0BBF1000F68
:100E000062D199F8B33099F8B2100FFA8AFA4BB35D
:100E1000B4F92801594BC0EB0A05002DB8BF6D424B
:100E20008D420CDD8245C4BF494289B2012541444F
:100E3000C3F82CB183F83051A4F8F2104FE093F8C6
:100E4000301129B1D3F8381183F830B1C3F8341117
:100E5000D4F83C314C491844B1F84031B1F8421152
:100E6000984229E0B4F92851444BC5EB0A0A8AEAB2
:100E7000EA70A0EBEA7088420ADD02219AFBF1F1E8
:100E8000C3F84011012183F8441183F830110AE0BE
:100E900093F8301139B1D3F8380183F844B1C3F86D
:100EA000340183F830B13848D4F83C11B0F84031FF
:100EB0002944B0F84201994203DB8142B4BF0B469A
:100EC0000346A4F8F2300AE02F4BB4F8EE1093F981
:100ED000A001D4F83C3100FB0313A4F8EE3099F8DC
:100EE000B6305BB1244BD97809B91B7933B1B4F86A
:100EF000F230B4F8E0100B44A4F8F230950640F15B
:100F000093831D4BDE7904961EB91A7A002A00F0ED
:100F100084831B7B002B00F08083B4F8C670174ECF
:100F200038B20FF067F819490FF0B8F8054611F01C
:100F30006DFE8046284611F0F5FD0546BBF1000F19
:100F400040F0A88099F81571B6F94C01002F70D0C7
:100F5000B6F848317E421FFA83F91BB2C01A0CF072
:100F6000C5FEB04216DBB842A8BF384613E000BF4A
:100F7000182D4454FB210940F50C0020D01C002002
:100F800000806640900B00203429002035FA8E3C0A
:100F9000BC2E00203046B4F846318144B4F94A01F1
:100FA0001FFA83FA1BB21FFA89F9C01AA4F84891F4
:100FB0000CF09CFEB04203DBB842B4BF06463E468E
:100FC00068485644B6B2A0F846610FFA89F00FF0AF
:100FD00011F8074630B20FF00DF82946064638469C
:100FE0000FF05CF84146814630460FF057F8014655
:100FF00048460EF049FF5C490FF004F90FF014FA6F
:101000005849A1F84E01384641460FF047F82946A5
:10101000074630460FF042F8014638460EF036FFDC
:1010200051490FF0EFF80FF0FFF94E4AA2F85001C6
:10103000FAE20EF0DFFF0746B6F94A010EF0DAFFDA
:101040002946824638460FF029F8414681465046E7
:101050000FF024F8014648460EF016FF42490FF003
:10106000D1F80FF0E1F94146A6F84E0138460FF0ED
:1010700015F82946074650460FF010F80146384645
:101080000EF004FF38490FF0BDF80FF0CDF9A6F8C7
:101090005001C9E2D6F86081D6F87031B6F86451D3
:1010A0001FFA88FACAEB0505CAEB030A2F4BADB24B
:1010B000DB7CB6F8541199F836911FFA85FB1FFABC
:1010C0008AFA3BB10FFA8BF04845BCBF08EB090028
:1010D000C6F870010A2208B25043019202930CF044
:1010E00005FE019A069E90FBF2F000B2029B7EB1D3
:1010F00090FBF2F238B291B2821A002AB8BF524283
:101100000A2A08DDB4F87421C82A88BF0F4602E015
:1011100090FBF2F7BFB2CAEB0505D4F878211FFAAD
:1011200085FC134D642192FBF1F12E68D4F88021E7
:101130000C48B21AC72AA4F87C11A4F87EC10B4E41
:10114000AA4640F24A822A680A4DC0F88021B5F8C2
:101150002C21BCF1000F0FD1A0F884210BB3002388
:10116000F3741EE0D01C002000002041F50C00208C
:10117000FC280020BC2E0020B5F830E10FFA8CF0DE
:101180000EFB102EB5F82E21B5F82AC1964503DBCB
:10119000E645B4BF72466246A4F884210BB100282C
:1011A000DDDA049ACF1BB8B2F2B1F37C7BB1B5F8AB
:1011B00024316FF009025343A4F87E31B5F82A3187
:1011C000A4F884310FFA8BF3182BD8BF0020B4F8A1
:1011D0008631312B08D80FFA8BFBCB4504DD934BBE
:1011E00008EB0902C3F87021B27C914B5AB1B4F8F4
:1011F0008621092A07D800225A70DA748B4B08F12D
:101200000502C3F87021B4F88631092B08D800B262
:101210000EF0F0FE87490EF041FF0FF005F980B2A5
:101220004FF0640900B209FB00F00CF05FFD90FB89
:10123000F9F01FFA80F90FFA89F3002BB8BF5B426F
:10124000DAF80000AA2BC8BF4FF0AF09D4F88831F4
:10125000DFF8D881C01A0EF0C9FE77490EF0D2FF30
:10126000DAF80030B4F87EA1C4F888310AF103033B
:101270009BB2062B074606D8D8F88C0139460EF0EB
:101280000DFFC8F88C010A2101FB0AFA1FFA8AFA3D
:101290001FFA8AF8A4F87E810FFA88F00EF0AAFEF1
:1012A000D4F8941183460EF0F9FE39460EF0F6FE9E
:1012B000D4F88C110EF0EAFD0FF0B6F85F4BB0F5E4
:1012C000FA7FA8BF4FF4FA709842B8BF18460EF0E4
:1012D00091FEB4F8A0110246C1EB0A0189B20BB22B
:1012E000002BB8BF5B42642BC8BF0021544BC4F82D
:1012F0008C01A4F8A08103F10A00B3F804E023F8FC
:1013000002EF8342F9D10023A4F8AA111846DFF8AE
:101310001C8108F5D171595A023308440A2B80B256
:1013200001D080B2F3E700B201920EF063FED8F86C
:1013300098110EF0B3FE39460EF064FF0FF074F80A
:101340001FFA80FAD8F890115846A8F8AEA10EF00E
:10135000A5FE0FF069F800B20EF04CFE019A1FFADC
:1013600089F911460EF092FD0FF05EF809F10303C2
:101370009BB2062B1FFA80FB06D8D8F8B00139467D
:101380000EF08CFEC8F8B0010A2303FB09F91FFA1E
:1013900089F81FFA88F90FFA89F00EF02BFED4F8BD
:1013A000B81104900EF07AFE39460EF077FED4F8AC
:1013B000B0110EF06BFD0FF037F8204AB0F5FA7F50
:1013C000A8BF4FF4FA709042B8BF10460EF012FE5C
:1013D000B4F8C4110246C1EB080189B20BB2002B6C
:1013E000B8BF5B42642BC8BF0021164BC4F8B001E4
:1013F000A4F8C49103F10A00B3F804E023F802EF63
:101400008342F9D14FF00009A4F8CE114846DFF825
:101410001C8008F5E37139F8011009F1020908444C
:10142000B9F10A0F80B20FD080B2F0E7D01C0020D3
:10143000F50C0020CDCCCC3D00007A440CFEFFFF23
:10144000701E0020941E002000B201920EF0D2FD0A
:10145000D8F8BC110EF022FE39460EF0D3FE0EF085
:10146000E3FF87B2D8F8B411A8F8D27104980EF04F
:1014700015FE0EF0D9FF00B20EF0BCFD019A0FFA76
:101480008BFB11460EF002FD0EF0CEFFB5F92421C4
:101490006FF009014A439BFBF9FB0FFA8BFBB5F98F
:1014A0002611934580B209FB01F903DBCB45B4BF9C
:1014B0005A464A4603B2B3489244B0F920216FF02D
:1014C000090151434FF00A0EDFF8BC8293FBFEF393
:1014D0001FFA8AFA8B42A8F850A1834604DB0EFB60
:1014E00002F18B42B8BF1946BFB23944A8F84E1179
:1014F000BBF922116FF009024A43934204DB0A222E
:101500004A439342B8BF1A46737C1744A8F85271F5
:1015100063B19BF828310FFA8AF25B429A4203DBEF
:101520004A45B4BF13464B46A8F85031F37C7BB90B
:1015300095F83211B8F9B0206423B1FBF3F3B8F891
:101540005011002AB8BF524203FB1213A8F85031C1
:10155000B8F9B2000EF04EFD4FF07C510EF09EFD3A
:101560000EF062FFB8F87421B0F5E17FA8BF4FF428
:10157000E170B8F88471A2F5E17320EAE0709BB2E3
:10158000381A642B804D87B20ED910B2C0F5FA70AC
:101590000EF030FD7D490EF081FD0EF045FFB5F8EF
:1015A000D4311844A5F8D401B8F9D431BBF82E21B0
:1015B000B3F5FA7FA8BF4FF4FA7323EAE373A8F8F0
:1015C000D4313B441BB29342BBF82A1103DB8B425C
:1015D000B4BF1A460A46A8F88421F37813B96C4BB5
:1015E0001B7923B1B37A63B1694B9B7C4BB9059EE0
:1015F0000023A4F88461A4F85031A4F84E31A4F873
:101600005231B4F88431B4F85221A4F8F230B4F86D
:10161000F0301344A4F8F03006E00023A4F84E3173
:10162000A4F85031A4F852315A4B1B6998475A4BD1
:1016300093F80080B8F1030F13D9B4F9F000B4F9AE
:10164000DA110028B8BF40426FF063031B1A9942B9
:1016500004DB00F164038B42A8BF0B46A4F8DA3127
:101660000BE0B8F1010F08D84C4B5A791946013AF2
:10167000D2B2172A00F2C98196E04249B4F9DA01E0
:1016800091F90E31B4F8D6A15B425843404BB4F8FF
:10169000D8911A7C91F81E119B7A414DB4F8F260F2
:1016A000CDF814A0CDF81090B4F8F0A006900792F1
:1016B0000891099300244445D6D230B20EF09AFC2A
:1016C000296883460EF0EAFC049B844618B2CDF8E4
:1016D0000CC00EF08FFCA9680EF0E0FCDDF80CC029
:1016E000014660460EF0D2FB059A844610B2CDF852
:1016F0000CC00EF07FFC69680EF0D0FCDDF80CC069
:10170000014660460EF0C2FB84460698CDF80CC038
:101710000EF070FCE9680EF0C1FCDDF80CC001466B
:1017200060460EF0B3FB0EF07FFEDFF87890079B6B
:10173000670029F8140013B3089AF2B1099BF3B1BA
:101740000FFA8AF00EF056FC84462046CDF80CC005
:101750000EF04CFC4FF07C510EF096FBDDF80CC007
:10176000014660460EF09AFC014658460EF08CFB8E
:101770000EF05AFE29F8070001E027F8096001344D
:10178000103598E7BC2E0020D01C0020CDCCCC3DDD
:10179000F50C002084000020A02E00203429002019
:1017A000C40B0020A22E0020012303FA02F2C14B39
:1017B00013406BBBD00640F12881BF4BBF4893F963
:1017C000BE20B0F9B240B0F9B0005443322294FBCD
:1017D000F2F4B3F8BC20A4B211B21129DCBFB84AAC
:1017E00032F81120B74922440A8093F9C820B3F88F
:1017F000C6305043322290FBF2F01AB2112AD8BF01
:10180000AF4B80B2D8BF33F8123003444B80FCE0BA
:10181000AD4B9A7AA94B52B1B3F8EC20ADF85820F1
:10182000B3F8EE20B3F8F030ADF85A2009E0B3F881
:10183000D621ADF85820B3F8D821B3F8DA31ADF895
:101840005A20ADF85C30A14B9D4A1B88ADF85E3044
:10185000B1F898311189C91AADF860105189C91AC7
:10186000ADF862109189C91AADF86410D189C91A0E
:10187000ADF866101188C91AADF868105188C91AF8
:10188000ADF86A109188D288C91AD31AADF86E30B3
:10189000ADF86C1000238B4900225A520233102BF2
:1018A000F9D18B4B15461B7804931346DDF810A035
:1018B000554500F08F80874E874C9119887920B16B
:1018C000204410F8060C00287ED0B05C7A4E0A271F
:1018D00007FB0067B7F8BAE0B7F8B86091F904B051
:1018E000C6EB0E06B6B206FB0BFB642791F801802F
:1018F0009BFBF7FB4FEA560C91F803E0CCEB0B0B8C
:101900004FEA48070DF170091FFA8BFB91F805A00B
:101910004F44BEF1000F03D137F8187CE7521BE0AB
:10192000E45E37F9187CDFF8B091BC4209DAA644CE
:10193000A64503DB7745B4BF3C46744629F803400F
:101940000AE009DDCEEB040EBE4503DBA645B4BFBD
:101950007746274629F80370DFF85CE14FF00A0963
:1019600009FB00EEBEF8C0E091F902104EFA08F84B
:1019700018F0010FDFF86081524C33F908800FFA3C
:101980008BFB01FB08F14FF0640891FBF8F10CBFF1
:101990004FF0010E4FF0FF3E594534F810701FFA1A
:1019A0008EFE0CDB4FFA8AFB06FB0BFB9BFBF8FB66
:1019B000CCEB0B0B0FFA8BFB8B45A8BF8B460BFBBD
:1019C0000E7B24F810B000E0E0520135EDB2023396
:1019D00007326BE7414B384A03F1100492F9BE100D
:1019E000B3F902500A324D43642195FBF1F5B2F888
:1019F000B210ADB208B21128DCBF314931F8101075
:101A0000294423F8021FA342E8D1354B9A689A462D
:101A100012F0200F284B3CD0B3F8BC00B3F8C640FE
:101A200002B2112ADCBF264931F8120022B2112A73
:101A3000D8BF234C2349D8BF34F8124008804C80CB
:101A400025461E4C1F4A94F8E41111B393F8101167
:101A5000B4F9B07011F0020F93F9C8604FF0320181
:101A600093F9BEE0B4F9B24018D07E43CEF1000E37
:101A700004FB0EF496FBF1F66FF03107B6B294FB5F
:101A8000F7F7374494FBF1F438442644108035448A
:101A90005580124A084902F1100529E004FB0EF4B2
:101AA0007E4394FBF1F4204496FBF1F110800D4449
:101AB000EEE700BF89209800BC2E0020D01C00203B
:101AC00090120020C0000020F50C0020A22E002063
:101AD000840C0020850C0020C61E0020BE000020C3
:101AE0003429002022F8020FAA4201F10A010CD089
:101AF000B2F90240B1F9B800B1F8BA608442F1DB42
:101B000030B2A042A8BF2046ECE793F81031590745
:101B100005D49B499B4B0C881B7801220FE09A4B04
:101B20009A4D9E7D0024043EA0190134C0B235F8C0
:101B3000021FE4B20CF015FA042CF5D1E9E79A4241
:101B400008D231F9120024B2A042A8BF0446A4B2C0
:101B50000132F4E78E4ABAF84251107C291B89B24F
:101B600005908C480691DAF80810BAF846C1B0F929
:101B70000600BAF844E101F4804601F01001BAF819
:101B800098910490CDF820C08348BAF840C10E91D6
:101B90001FFA8EF10B918149B0F9EAB00D96CDF89C
:101BA0001C90BAF848819AF80590B0F9EC70BAF830
:101BB0009AA11FFA8CF056785B000A904989507CF4
:101BC0000F93CDF800B0CDF824A00C9600230F9E03
:101BD000B3426ED022B2AA4208DD059A32B9684AF1
:101BE000069E33F802A0B24423F802A00D9E644A78
:101BF000002E36D0DDF810A0DDF81CB0DA4532F941
:101C000003A015DDC24503DBAA45A8BFAA4600E034
:101C1000C246B9F1010F22F803A041D1009A09B2DE
:101C2000914203DBB942A8BF394618E0009916E09B
:101C3000F24504DB089EB245A8BFB24600E0F2467A
:101C4000B9F1010F22F803A02AD109B2B94205DB8C
:101C5000DDF800A05145A8BF514600E0394689B2E1
:101C60001EE032F903B0E34503DBAB45A8BFAB464A
:101C700000E0E34622F803B002EB030ADDF810B0FF
:101C8000099A93450BDA0E9E26B9DDF828B0AAF81A
:101C900000B005E00B98AAF80000012000E0002049
:101CA0000C9A22B93E4A985A354A9852012002337A
:101CB0008DE7354A394C364B6181517D58741A464F
:101CC00000297CD0374E7379013B172B6CD8DFE8A5
:101CD00003F00C6B6B186E6B6B1E6B6B6B6B6B2579
:101CE0006B6B6B6B6B18256B6B342B4B93F80F3155
:101CF00013B10020618960E050780028F9D10146D5
:101D00005BE0002021890CF02CF90120F2E7002093
:101D1000E1880CF026F9012021894EE00020E188BD
:101D20000CF01FF9012021890CF01BF902206189B8
:101D30000CF017F90320A1893FE00020E1880CF0A6
:101D400010F9012021890CF00CF9022061890CF0B6
:101D500008F90320A1890CF004F9B3680F4DDA07E4
:101D60002DD5042029880CF0FCF8052069880CF09A
:101D7000F8F80620A9880CF0F4F80720E9891CE09F
:101D8000A22E0020A02E0020AC0B002096120020D6
:101D9000F50C002090120020BC2E0020C000002076
:101DA000E61E002034290020B3689B0607D50020DA
:101DB00021880CF0D6F8618801200CF0D2F80BF0E5
:101DC00083FC0C4B00221A700FE00B4B1B6813F0C6
:101DD000020307D1A2F85630A2F85830A2F85A30C0
:101DE000FEF7ECBD0125FEF729BE00201DB0BDE8C1
:101DF000F08F00BFD01C0020900B0020AFF30080BC
:101E00002DE9F14F0489C04BD822A4F5887402FB58
:101E100004344A6804F154072265C4F8D4700B787E
:101E20000646772B0D4600F06E8200F285816A2B04
:101E300000F0168500F2AA80452B01F0F2801FD831
:101E4000422B01F077800CD8402B01F0C980412B48
:101E500041F004810022134606F086FA002301F0C7
:101E6000D4B8432B00F0F187442B41F0F7800022D7
:101E7000134606F079FAA54B01221A7001F002B957
:101E8000662B00F08E8378D8642B00F05883652B86
:101E900041F0E4809E4BD434B3F90010204607F0A3
:101EA000E8FA9C4B2046B3F9001007F0E2FA9A4B8F
:101EB00020461B68C3F3C001C3F38002890041EAD6
:101EC0004201C3F340021143C3F3401241EAC2018D
:101ED00003F01003194307F0CCFA904A92F804E09B
:101EE000D3784FEA8E0E4EEA430E53784EEA030E35
:101EF00093794EEAC30E53794EEA431E537A4EEA63
:101F0000831E874BD9794EEAC11E197A4EEA012EFB
:101F1000597A4EEA412ED1794EEA812E117A4EEA53
:101F2000C12E117D927A4EEA016E4EEA023E5A7B34
:101F300000214EEA423E9A7B4EEA823E1A7C4EEAED
:101F4000024E1A794EEA021E5A7C4EEA424E9A7CA2
:101F50004EEA824EDA7C4EEAC24E1A7D4EEA025EAC
:101F60005A7D4EEA425E9A7DDB7D4EEA825E4EEA03
:101F7000C35E6C4B18780B46F4E2682B01F0758059
:101F800040F2B2854FF0000800F05DBC702B00F00D
:101F9000EF8447D86D2B00F0A68416D86B2B00F089
:101FA00089846C2B41F05A80DFF88881D434204634
:101FB000B8F9001007F05DFA2046B8F9021007F0F2
:101FC00058FA2046584B00F096BC6E2B00F09C84CB
:101FD0006F2B41F0438004F1D408544C4046E17F1C
:101FE00007F050FA404694F8201007F04BFA4046AC
:101FF00094F8231007F046FA404694F8251007F0AD
:1020000041FA404694F8261007F03CFA404694F80E
:10201000211007F037FA404694F8221007F032FA00
:1020200000F0A1BC732B00F06F8561D8712B00F01C
:102030006F81722B41F01280DFF8F480D434204697
:10204000B8F9981107F015FA2046B8F9401107F0D1
:1020500010FADFF8D8902046B8F9421107F009FAD3
:102060002046B8F9441107F004FA2046B9F90A11DC
:1020700007F0FFF9204698F8AB1107F003FA204665
:1020800098F8AC1107F0FEF9204698F8AD1107F06A
:10209000F9F9204698F87C1107F0F4F9204698F8F1
:1020A000A11107F0EFF92046002107F0EBF9B9F98B
:1020B0002A100A2391FBF3F1204607F0DAF92046B3
:1020C00098F87D1107F0DEF9204698F87F1107F0A7
:1020D000D9F9204698F87E1107F0D4F9204698F8EF
:1020E000801107F0CFF9304629463A46162339E1E8
:1020F000752B00F00B8100F219854FF0000A4FF0AC
:10210000010800F086BC00BF882100209C2300202D
:10211000BA1D0020500A0020900B0020F50C002072
:10212000AC1E002061260020961D0020BC2E002041
:1021300034290020801D0020CF2B00F0818100F287
:102140009880C82B00F0E78061D8A02B00F0B18503
:1021500055D8782B00F063827B2B40F07F87A94B0A
:10216000D434DFF8A88293F8A011204607F08AF94A
:102170002046B8F9201107F07CF92046B8F9221161
:1021800007F077F92046B8F9241107F072F92046D4
:10219000B8F9261107F06DF92046B8F92A1107F0B1
:1021A00068F92046B8F92C1107F063F92046B8F910
:1021B0002E1107F05EF92046B8F9301107F059F9F1
:1021C000204698F8321107F045F9204698F8361164
:1021D00007F058F92046002107F03CF9204600217D
:1021E00007F038F92046002107F034F92046002195
:1021F00007F030F9304629463A462623B2E0A42BB0
:1022000000F06C85A62B00F0D38500F027BFCB2B08
:1022100077D009D8C92B00F0AA80CA2B40F01E87BE
:10222000794B03F10A00C8E0CD2B00F0058500F2E0
:102230000E85134613F8011B101D2365734BD977C8
:10224000517883F82010D11C2165D178206583F85E
:1022500025101179501D206583F826105179901DA5
:10226000206583F8211091790732226583F82210C6
:1022700074E0D82B00F0998217D8D22B00F0468159
:1022800007D8D02B00F0CE84D12B00F0838400F04F
:10229000E5BED42B00F0EB81C0F04A81D62B08BFFD
:1022A000002700F0298100F0D9BEF12B00F0078251
:1022B00016D8EF2B48D0F02B40F0D08604F1D4088C
:1022C000524C4046B4F92E1007F0D3F84046B4F90A
:1022D0002C1007F0CEF8304629463A46042341E058
:1022E000FA2B00F0BD84FE2B00F0C584F22B40F0E9
:1022F000B5860022134606F037F8424A02F1700014
:1023000026E200276DE04FF00008B6E3404A4DE3B7
:102310004FF0000859E3002704F1500007F0C1F81E
:102320003C4BD8530237102FF6D1002213463046CB
:10233000294606F019F8384B00221A80374B012243
:102340001B685A7000F09EBE5034204607F0A9F872
:102350002E4FF885204607F0A4F8B88500223046B5
:102360002946134601B0BDE8F04F05F0FDBF134606
:1023700013F8011B02322365294B2A4FD97212F838
:10238000011C294B44F8502F2046197007F080F8A3
:102390003860204607F07CF87860204607F081F826
:1023A000224B1880204607F07CF8214B1880214BE7
:1023B0001A7842F002021A70D0E7226D01331146FA
:1023C00011F8017B834221655F70517802F10207A9
:1023D0002765D972917802F1030222655975ECD113
:1023E000BCE7154B1B789F42B8D2144B04F1500048
:1023F00017F8038007F055F8044B013703EB880307
:10240000D864EEE734290020BB2E0020BC2E00202B
:10241000077C0108901200204A200020C01C0020E8
:10242000F50C00206020002015280020341E00201C
:10243000441E0020181F002061260020482600208E
:1024400004F15008404607F02CF86FF4AF63B54F25
:10245000C318C62B98BFA7F89801404607F021F88B
:10246000A7F84001404607F01CF8A7F84201404693
:1024700007F017F8A7F84401404607F012F8DFF814
:10248000C892236DA9F80A011A4612F8011B4046AA
:10249000226587F8AB115A78991C216587F8AC2121
:1024A0009A78D91C216587F8AD21DA78191D216544
:1024B00087F87C211A790633236587F8A12106F075
:1024C000F0FF0A235843236DA9F82A001A4612F890
:1024D000011B226587F87D115A78991C216587F8C0
:1024E0007F219A78D91C216587F87E21DA78043318
:1024F000236587F8802131E704F1500006F0D1FF11
:10250000894BD8530237102FF6D127E7874B5B78DA
:10251000002B7FF423AF12F8011B00202265814AB3
:10252000022994BF82F8681582F8683501469EE357
:1025300004F1500006F0B5FF7D4B18800EE7D4344F
:102540002046E72106F09EFF764B2046597906F09B
:1025500099FF2046042106F095FF2046754906F0B4
:1025600079FF00E283420ED2734A13F802C00122BF
:1025700002FA0CFC1CEA0E0F18BF9A4003F101038B
:1025800018BF1143EEE7204606F064FF654B204676
:1025900093F8681506F076FF304629463A460B2335
:1025A000E0E6664B4FF000081B88D434B3F5806F2B
:1025B000DFF898910FD939F908100823204691FBCC
:1025C000F3F108F1020806F054FFB8F1060FF2D15A
:1025D0004FF000080AE039F90810204608F1020817
:1025E00006F047FFB8F1060FF5D1F1E7544B20464E
:1025F00033F9081008F1020806F03BFFB8F1060FA6
:10260000F4D14FF000084F4B204633F9081008F181
:10261000020806F02EFFB8F1060FF4D1B4E2DFF89D
:10262000288108F1500A04F1D409B8F9B8104846D5
:1026300006F01FFFB8F9BA10484606F01AFFB8F9BD
:10264000BC10484606F015FF98F8BE10484606F044
:1026500019FF08F10A08B8F9B610484606F009FF54
:10266000D045E0D1304629463A4648237AE6002252
:10267000134605F079FE344D05F1500704F150067C
:10268000304606F00EFFA5F8B800304606F009FF08
:10269000A5F8BA00304606F004FF236DA5F8BC008B
:1026A00013F8012B304685F8BE20236506F0F9FEAD
:1026B0000A35A5F8B600BD42E0D100F0E3BCDFF872
:1026C000648008F1700A04F1D40998F8D0104846E3
:1026D00006F0D8FE98F8D110484606F0D3FE98F8D8
:1026E000D210484606F0CEFE98F8D310484606F0C1
:1026F000C9FE98F8D410484606F0C4FE98F8D510E4
:10270000484606F0BFFE08F1070898F8CF10484683
:1027100006F0B8FED045D6D1304629463A46702359
:1027200020E600BF34290020E61E0020F50C002022
:10273000F61D00200C0000C0482600207800002074
:10274000B41D0020901D0020BC2E0020641D002020
:10275000236D0732194611F8015B216582F8C950D3
:1027600059789D1C256582F8CA109978DD1C25656D
:1027700082F8CB10D9781D1D256582F8CC10197907
:102780005D1D256582F8CD1059799D1D82F8CE100A
:1027900025659979073382F8CF1082422365D7D116
:1027A00001B0BDE8F04F0AF069BF0022134605F002
:1027B000DBFD236D254613F8012BB44E45F8503F41
:1027C000B34B284683F8A02106F06BFEA6F8200143
:1027D000284606F066FEA6F82201284606F061FEAD
:1027E000A6F82401284606F05CFEA6F82601284635
:1027F00006F057FEA6F82A01284606F052FEA6F873
:102800002C01284606F04DFEA6F82E01284606F0BB
:1028100048FEA6F83001284606F03AFE236D284609
:1028200013F8012B236586F8362106F031FE284681
:1028300006F02EFE284606F02BFE284601B0BDE825
:10284000F04F06F025BE934B04F1D40033F9081085
:1028500008F1020806F00DFEB8F1100FF3D1CEE337
:102860008D4BD4342046D97A06F00CFE8B4BDFF822
:1028700070821978204606F005FE2046D8F8001030
:1028800006F0E8FD2046D8F8041006F0E3FD844B7E
:102890002046B3F9001006F0ECFD824B2046B3F958
:1028A000001006F0E6FD804B2046B3F9001006F05C
:1028B000E0FDC4E27D4BD434B3F90010204606F0AD
:1028C000D8FD7B4B2046B3F9001006F0D2FD794BC2
:1028D0002046197801F0010106F0D4FD3046294662
:1028E0003A4605233EE5744BD4342046196806F079
:1028F000B1FD724B2046B3F9001006F0BAFD304628
:1029000029463A4606232DE56D4BD434B3F9001021
:10291000204681F30801C9B206F0B4FD694B4FF6B9
:10292000FF78196820464145A8BF414621EAE17178
:1029300009B206F09EFD644B2046B3F9001006F084
:1029400098FD534B93F87C21604B19680029B8BF60
:1029500049420AB10A2359434145A8BF414620468E
:1029600009B206F086FD304629463A460723F9E4C7
:10297000DFF8708108F10A0A08F1010804F1D409AE
:10298000484698F8011006F07DFD484698F80B106F
:1029900006F078FD484698F8151006F073FDD0450E
:1029A000EAD1304629463A461E23DBE412F8013FBD
:1029B00033B1D4F8D410481CC4F8D4000B70F5E738
:1029C000304629463A462F23CCE4414B1B789845A4
:1029D0000ED2404B04F1D40018F803202B4B08F121
:1029E000010803EB8203B3F94C1006F042FDECE75B
:1029F000304629463A465B00B4E4824409F10109B5
:102A0000334B1B78994507DBB8F1000F20D04FF00E
:102A100000084FF00009F3E72E4B2F4A19F8033056
:102A20000C2101FB0323D3F834B0584614F03AF8D4
:102A3000B8F1000FE1D142468242DFDAD4F8D43057
:102A4000591CC4F8D4101BF8021001321970F3E7B6
:102A5000304629463A461FFA8AF383E40C33B3F52D
:102A6000967F08D01D4A1A44127A8A42F6D104F1A0
:102A7000D40006F007FD08F10108154B1B789845B6
:102A80003ED2144B18F803100023EBE7BC2E0020B5
:102A90003429002090120020F50C00201528002079
:102AA000341E0020441E0020241E0020561E00203C
:102AB00058210020181F0020081E0020202100207F
:102AC000FC200020102100204820002004210020AC
:102AD0006126002048260020087C0108387C010877
:102AE00060200020BB2E00200023D4F8D420511CED
:102AF000C4F8D410B849595C0133102B1170F4D1CB
:102B0000304629463A462DE44FF001085FFA88F135
:102B100004F1D40008F1010806F0B4FCB8F1090F83
:102B2000F4D1304629463A4608231BE412F8011B2B
:102B3000226509B9A94B02E0102905D1A84BD3F8A9
:102B40000090D3F8048002E04FF00008C146D4346E
:102B5000204606F097FC2046494606F07BFC2046BE
:102B6000414606F077FC9F4B2046196806F072FC40
:102B70002046002106F07DFC2046002106F079FC6D
:102B80002046002106F07EFC304629463A461223B4
:102B9000FFF7E8BB12F8019B274647F8502F38464D
:102BA00006F076FC8346384606F072FC82463846CC
:102BB00006F06EFC8046384606F073FC384606F098
:102BC00070FC236D01332365B9F1000F12D1834BE3
:102BD0000122C3F804A0C3F800B0834B83F8079028
:102BE0001A73B8F1000F3FF4B9AB7E4BC3F8008005
:102BF000FFF7B4BBB9F1100F7FF4B0AB784BC3F85B
:102C000000B0C3F804A0B8F1000F02D0754BC3F8B0
:102C100000807348754B0222011D1A7003F07EFF7D
:102C2000FFF79CBB704B5B78002B7FF497AB0120C8
:102C300007F06CF9FFF792BB6B4B5B78002B7FF4CE
:102C40008DAB6B4B4FF4C8721A80FFF787BB664B96
:102C50005A78002A7FF482AB01229A73FFF77EBB79
:102C6000614B5B78002B40F0F9810020012107F0D7
:102C7000FEF8FFF773BB5F4B5F491A6809685F4B4B
:102C80004FF00008B2FBF3F2B1FBF3F34FF47A71AB
:102C900001FB02335A4A13815A4B04F1D40033F931
:102CA000081008F1020806F0E4FBB8F1080FF3D1B0
:102CB000A5E104F1D408544C4046216806F0CAFB53
:102CC0004046616806F0C6FB4046A16806F0C2FBBC
:102CD000304629463A460C23FFF744BBDFF82091E3
:102CE000D43499F80AB02046594606F0CBFB4FF091
:102CF0000008D8451ED2DFF81CA120461AF808109B
:102D000006F0C0FB0AF1200313F80810204606F075
:102D1000B9FB0AF1400313F8081020460AF1600AD3
:102D200006F0B0FB1AF80810204606F0ABFB08F1DD
:102D30000108DEE74FEA8B030133304629463A4665
:102D400005F012FB314B93F8AB31012B40F09A8127
:102D50002F4A002392F87840104689F80A40A3428F
:102D600002F1010213DA2B4992F8785092F8886048
:102D70005D5401F120055E5592F8986001F140051F
:102D80005E5592F8A85060315D540133E7E7D0F802
:102D9000BC300022C9F88C30D0F8C0303021C9F8DE
:102DA00090300120134601B0BDE8F04F02F05EBD47
:102DB000194BD4341B68DFF8488013F020092046F3
:102DC0002CD0002106F046FBD8F89010D8F88C30B3
:102DD0002046C91A27E000BFC0000020281E00209E
:102DE000381E0020041E0020F50C00205C2000206E
:102DF000FE2F00206C0900207009002040420F00C7
:102E0000181F00201A1F002060090020342900200C
:102E100038150020231F0020900B0020494606F0A3
:102E200019FB2046494606F015FB2046D8F89410B9
:102E300006F010FB2046D8F8981006F00BFB304641
:102E400029463A461023FFF78DBA0022134605F0B3
:102E50008BFA236D264613F8012B8C4D46F8503F14
:102E6000304600236A71AB6006F012FBAB68884FF6
:102E70001843236DA86013F8012B3046236585F8AD
:102E8000942106F00EFBA5F85601304606F009FB2A
:102E9000A5F85801304606F004FBA5F85A01304663
:102EA00006F0FFFAA5F87801304606F0FAFAA5F820
:102EB0007A01304606F0F5FA236DA5F84E011A4660
:102EC00012F8011B3046226587F823105A78991CA6
:102ED000216587F824209A78D91C216585F88121FD
:102EE000DA780433236587F8492006F0DAFAAA89EC
:102EF0000646904217D0674B52B170B11B689A7961
:102F0000023A012A85BF644B092218811A7009E030
:102F100018B118680321324602E0186801216422C2
:102F200008F068FDAE81236D13F8012B236587F847
:102F30003020A7E0DFF85481D434204698F80510FB
:102F400006F0A0FA2046D8F8081006F083FA2046CA
:102F500098F8941106F096FA2046B8F9561106F042
:102F600088FA2046B8F9581106F083FA2046B8F9D5
:102F70005A1106F07EFA2046B8F9781106F079FA6F
:102F8000DFF80C912046B8F97A1106F072FA204663
:102F9000B8F94E1106F06DFA204699F8231006F0A4
:102FA00071FA204699F8241006F06CFA204698F839
:102FB000811106F067FA204699F8491006F062FA86
:102FC0002046B8F90C1006F054FA204699F8301053
:102FD00006F058FA304629463A461923FFF7C2B997
:102FE0004FF00008294B04F1D400434493F88211B8
:102FF00008F1010806F046FAB8F1080FF2D13046A0
:1030000029463A464346FFF7ADB9226D12F8011B37
:1030100022651E4A1A440133082B82F88211F4D12A
:1030200030E04FF000081D4B04F1D40913F80810EC
:10303000484608F1010806F025FAB8F10B0FF2D165
:103040004846002106F006FA4846002106F002FA3A
:10305000304629463A461323FFF784B930462946BD
:1030600001B0BDE8F04F07F02DB90023D4F8D4200B
:10307000511CC4F8D4100A49595C0133102B11704B
:10308000F4D13DE501B0BDE8F08F00BF3429002048
:10309000BC2E0020BC1C0020FC2F00209C8C0108B2
:1030A000A22E00202DE9F04FAD4E85B0B368AD4F94
:1030B00013F0080803D1AC4C4546A14631E000248A
:1030C00039E0AA4BE8B21B689847A0F2EE2240F222
:1030D000DC5392B29A4288BFA14BD9F8902088BFA6
:1030E000B3F89801A24B1340002B03DA013B63F0C5
:1030F000030301339C4A03EB850322F81300228863
:10310000638801351344A2880834134434F8022C30
:1031100013441BB2042293FBF2F327F8083008F1A2
:10312000020896F8AA319D42CBDBD9F890300133E2
:10313000C9F890300BE096F8AA319C4207DA8B4B25
:10314000E0B21B68984727F814000134F3E7B3682E
:103150005A0404D5874B1B780BB905F0E7F896F8AD
:10316000A1217F4BE2B1033237F91200B3F8A2413B
:10317000B0F57A7003D4A042A8BF204600E000203A
:103180000CF038FF054620460CF030FF014628467B
:103190000DF038F878490CF081FF0DF06BF914E070
:1031A00093F8A40190B1754AD179754A32F811208B
:1031B000B3F8A81192B2521A9002B3F8A631801A4D
:1031C00090FBF3F000B280F30A0080B2B368664C63
:1031D00013F4024FA4F8940062D06A4D052295F8CA
:1031E0000831B4F8969053430FFA89F898453ADDC0
:1031F000654B5A789B46002A35D0594BB3F8983125
:103200003B807B80BB80B5F80A31FB805F4B1A782E
:103210009A46032A05D95E4802F046FC03238AF841
:10322000003095F8082195F80931134405225343DD
:10323000984513DD9BF812B0BBF1000F0ED105F0DD
:1032400075F8514B83F800B09AF80030042B05D97B
:10325000504802F029FC4D4B04221A70B4F8983003
:103260000133A4F8983095F8083105225343984566
:1032700012DD454D95F80180B8F1000F0CD105F035
:1032800055F885F80080414D2B78042B04D941482E
:1032900002F00AFC04232B7009F10109A4F89690AE
:1032A0000022B6F89A11B6F89C511346B85E9B08F6
:1032B0008842C4BF63F07F03DBB20232A842B8BFCA
:1032C00043F04003082AF1D194F89A00264A984224
:1032D00005D192F89B00F92804D8013000E00020C5
:1032E00082F89B0084F89A30B3681D4A13F4804931
:1032F000244DB7F906300AD0B2F89811B2F84C2133
:10330000881A834206DD0A44934206DB02E08B42C0
:1033100003DB16E04FF0000913E00023C4F830315E
:10332000C4F83431C4F83831C4F8A030C4F8A4303B
:10333000EB6C23B10F4B1B78002B40F092834FF0C6
:103340000109EB6C5BB30B4B1B7843BB0E4B5B78FB
:103350002BB396F89F31FBB104F0E8FF1FE000BFEC
:103360003429002090120020B41F0020B412002045
:1033700003000080AC1E002000C07F44800A0020B3
:10338000880A0020BC2E0020F50C002084000020BC
:10339000DA7B0108D17B0108B9F1000FDCD194F888
:1033A0009B308A4A142B40F0A780894B58789A4664
:1033B000C0B1EB6C2BB992F89A305F2B01D104F0BD
:1033C000B5FF96F89E31002B00F09680EB6C002B39
:1033D00040F0928094F89A307D2B40F08D8004F07C
:1033E000A5FF89E092F89A30572B15D1794B4FF40D
:1033F0007A721A80B368DB0501D50AF04FFC764B70
:103400001B68580702D5754A0A21118013F008037A
:1034100035D1734A138032E0B168490726D55A2B5B
:1034200024D1704B197821B118706F4B01221A709A
:1034300025E092F89C30DFF8D48183F0010382F814
:103440009C3043B198F800300A2B18D9674802F035
:103450002BFB0A2307E098F800300B2B0FD96448A8
:1034600002F022FB0B2388F8003008E05D2B00F00F
:1034700000835B2B00F0FF825E2B00F0FE82EB6C82
:1034800033B994F89A206F2A02D10BF0B1FB15E002
:1034900096F89E2122B11BB994F89A307E2BF4D075
:1034A00094F89A30972B04D1524B4FF4C8721A807B
:1034B00004E0A72B04BF01238AF80E3094F89A3059
:1034C000BB2B02D1EB8D023303E0B72B03D1EB8D85
:1034D000023BEB8509E0BE2B02D1AB8D023303E04A
:1034E000BD2B09D1AB8D023BAB850120014606F017
:1034F000BEFC002384F89B30B06842072CD594F8BA
:103500009C203D4B8AB1324A527872B13B4AB7F99E
:103510000610B2F89A21914207DD1A782AB9384983
:1035200032250D80294981F89C205B7C53B1354BB5
:103530001A782AB92B4A127812B9314A32211180ED
:10354000012208E0274B1A7832B1214A52781AB981
:103550001A70254B01221A702B4B002293F814800D
:1035600001211346434553DA07EB43052D8940F209
:10357000A46A0FFA85FCD44501F1010BD4BF4FF0CA
:10358000000A4FF0010A0AFA0BFA40F2135BDC451D
:103590004FF0030B0BFB03FBA5F21555ADB2CCBFEF
:1035A0004FF0000C4FF0010CB5F5C77F0CFA0BFC87
:1035B0008CBF002501258D404AEA0C0C4CEA050C15
:1035C00042EA0C0201330331CCE700BFB41F0020F4
:1035D000F50C0020B61C0020900B0020B81C002029
:1035E000961D0020511D0020521D0020C07B0108A7
:1035F000ED7B0108FE2F0020AC1E002034290020A6
:10360000381D0020501D0020AC0B0020840000203D
:1036100000239A499A4D01EB830CDCF84CC0A84674
:1036200012EA0C0F0CBF4FF0000C4FF0010C03F826
:1036300005C00133192B8B46EBD12B7E914D2B7599
:1036400023B1012388F80B3088F8023098F8013054
:103650008D4A4BB99BF808314FF0050C0CFB03F376
:10366000B4F9961099421DDD11688B071AD5EB78D5
:1036700043B9C4F8A030C4F8A430824B4FF0010C19
:1036800083F803C0000410D59BF808314FF0050CF7
:103690000CFB03F3B4F99600984206DD8B0604D5C3
:1036A000012301E00023EB70AB7498F802305BB1AA
:1036B0000023EB702B7943B9C4F8A030C4F8A430D0
:1036C000704B0121197100E02B7198F800300BB993
:1036D00001232B70E9786D4B11B96A48007910B15C
:1036E0001020586101E0102018611368580728D590
:1036F00098F80320BAB1AA79B2B962484FF0010C28
:1037000080F806C06248D0F800C06248C0F800C027
:103710006148B0F806C06148A0F800C06048026087
:103720006048026000E0AA71B268920409D598F876
:1037300004202AB1EA7B22B9524A0120D07300E06A
:10374000EA7313F00A0F1ED098F805204AB16A797F
:1037500042B94C4A01205071534A1088534A108094
:1037600000E06A7198F806202AB16A7A22B9454ABF
:103770000120507200E06A7298F807201AB14A4A94
:1037800010884B4A1080980640F10381EA7A3D4B3D
:10379000002A00F0F980474A1278042A40F2F480A7
:1037A00094F9A82022B11A7912B909B90122DA7064
:1037B00098F80A3013B9AA7C324BE2B1EB79DFF802
:1037C000C4A0002B40F0CC803B493C4801220B7048
:1037D000011D8AF807208AF80830029203F09EF94A
:1037E000022384F8A830364B029A1988354B8AF8A0
:1037F00013209960B4E0DA71214AD27A002A65D0A8
:103800002549BBF81C21B1F900000028B8BF40428F
:1038100090425BDAB1F902100029B8BF49429142E7
:1038200054DA1A7A002A40F09B804FF00101197295
:10383000DFF894C02049DFF88CA00A70DCF8AC10E7
:103840005046CAF80010DCF8B010CAF804100AF1AB
:10385000040102920193CDF80CC003F05FF9DDF88A
:103860000CC04FF001018CF8A8101549029A098884
:10387000019BCAF80810DA7472E000BFBC2E002069
:10388000AC1E0020F50C0020900B0020000C014025
:10389000081E0020041E0020BC1D0020F81D002072
:1038A000FC1D00200C1E0020961D0020F61D00208F
:1038B000F41D00201528002098000020281E00205C
:1038C000341E0020381E0020B41F002000232B725D
:1038D000744B1A78002A43D101211970104672499D
:1038E000002343527149DFF810C2435270490CEB78
:1038F000020A4352002142F80C100230CAF8043088
:10390000CAF808100CF1280A0CF1500C42F80A1001
:1039100042F80C10924494440428CAF80430CAF8BF
:103920000810CCF80430CCF8081002F11402D6D1FB
:103930002A7C12B90023EB7412E05E4A11605E4AE1
:1039400011605E4A13805E4A13805E4A13805E49AE
:1039500000225A525D495A5202330A2BF7D1E9E745
:103960005B4B1A780C2A14D9DFF890A19AF8002042
:103970007AB95848019302F097F8019B0C221A700B
:1039800001238AF8003004E00023EB712B7284F8E5
:10399000A83098F80C302BB1AB7C1BB94E4B0122F0
:1039A0009A7201E00023AB72297C4B4B31B3B268B1
:1039B00000209205587221D59BF808214FF0060887
:1039C00008FB02F2B4F996C0944517DD0122DA70C3
:1039D000424A9872B2F8980182B23A807A80BA80EC
:1039E0003F4AB2F80A21FA80DA7A3AB93D4F3F7875
:1039F000052F03D89A743C4B32381880B268374B85
:103A0000D2064BD56A78002A48D0002946D1B9F1B0
:103A1000000F1FD03549D4F82C2109684AB993F812
:103A200076314FF47A7202FB0312314BC3F82C212A
:103A300006E08A4204D293F876310BB104F076FCAA
:103A4000234C2378092B29D92A4802F02DF8092381
:103A5000237023E0D4F82C3103B3254BC3F82C9109
:103A60001CE01D4B1B78002B3FF469AC0BF0C0F839
:103A700065E4012202E0022200E003225FFA82F8FC
:103A8000002008F1FF33014686F8683506F0EFF9AB
:103A900002202821424606F0C9F9F0E4002005B0D2
:103AA000BDE8F08F980000201E1E0020161E00208A
:103AB0001A1E0020801E00205C1E0020701E0020A8
:103AC000941E0020A41E0020721E0020961E0020BE
:103AD00084000020F77B0108F50C00203429002029
:103AE000BC2E00201528002090120020FC28002069
:103AF000B41F0020D17B010868200020141F002083
:103B00002DE9F04F7A4C87B0A3689B0740F1958070
:103B1000784D794B06221F882B681F442B792F6024
:103B20000133DBB2B3FBF2F62B7102FB163313F059
:103B3000FF0667D1DFF80C92D5F808A099F801309C
:103B4000DFF8048250464FF0785138F813B00CF08B
:103B5000A5FA014650460CF097F91FFA8BFB8246F6
:103B600058460CF047FA65490CF098FA64490CF095
:103B700049FB834694F87D010CF03CFA0146584617
:103B80000CF08CFA014650460CF080F94FF0785159
:103B9000A8600CF083FA0CF06DFC94F88131A881D8
:103BA00083B399F80530B4F8781138F8132040F64B
:103BB000E44392B25A4340F6FF73B2FBF3F2B4F817
:103BC0007A312869D21A4FF47A735A43B2FBF1F270
:103BD000082190FBF1FECEEB000002442A6192FB2B
:103BE000F1F25743D5E9060197FBF3F3C01841EB17
:103BF000E3716A61C5E90601424A00230CF05AFCF0
:103C00002E602862404AAB8912889A4208D33F4D01
:103C10002B78012B11D93E4801F046FF01230BE020
:103C20003C4A12889A4208D3384D2B78022B04D98B
:103C3000394801F039FF02232B70384E737B5BB398
:103C4000324D2B78082B27D9A368DF051FD5344BBD
:103C5000DB7AE3B1334B1878042818D900233249B2
:103C600005275A185F540F275770122B03F10207CC
:103C7000FAB204D0B0EB520F3B46F0D800E0142269
:103C80000A4464235370F0239370274800E02748C8
:103C900001F00AFF08232B70254B1A881AB1254B17
:103CA0001B68980707D4244B1B8823B9234B1B7828
:103CB0000BB104F091FE224B1A7832B10D4C94F8FE
:103CC0002430002B00F01383C3E2A268084B1105D7
:103CD000F4D51A4A1278002AF0D093F8BB21002AB2
:103CE0003AD193F8BC318BBB0D4B5B782FE000BF12
:103CF00034290020F0200020BA1D00203333534027
:103D000000F07F45407E0500920A002084000020DC
:103D1000D47B0108900A0020D77B0108AC1E00204C
:103D2000F50C002015280020FE1E0020C57B010890
:103D3000FE2F0020900B0020B61C0020B41C002099
:103D400008300020800A0020880A0020337D0033DC
:103D500018BF0123002BB1D094F8BA31002B40F0EA
:103D60006881C34BD86805F033F8002840F06181C2
:103D7000C04AC14D1368A96A591A7C2940F2598179
:103D8000AB6295F82C300646013385F82C3006F1ED
:103D90002400C0B201F034FEB84B33F916000CF029
:103DA00029F9B74B074618880CF024F90146384624
:103DB0000CF028FAB3490CF071F90CF035FB013620
:103DC00000B201F049FE032EE1D1302001F018FECF
:103DD000B5F9300001F040FE01F020FE95F82C000E
:103DE000A54F10F0030828D1102001F009FE7B6BCD
:103DF000642693FBF6F000B201F02EFE212001F0C4
:103E0000FFFD7B6B93FBF6F006FB103686EAE6704F
:103E1000A0EBE67000B201F01FFE142001F0F0FDEF
:103E2000994BB3F9000001F017FE1C2001F0E8FDEA
:103E3000404601F011FE01F0F1FD95F82C308E4E58
:103E40005A0740F0D080022001F0DAFDB6F93800C0
:103E50000A2790FBF7F001F0FFFDA3689B075FD5F1
:103E6000B3894FF06E0808FB03F8152398FBF3F8AD
:103E70001FFA88F83A204FF0640901F0C1FDB8FB41
:103E8000F9FB0FFA8BF001F0E7FD3B2001F0B8FDE4
:103E900009FB1B8080B20530DFF8FC8190FBF7F056
:103EA00000B201F0D9FD98F80030B28940F6340133
:103EB00092FBF3F24A432A21B2FBF1F2718F062002
:103EC00091FBF3FB03FB1B1B4FEA0B1B1FFA8BFB46
:103ED0004BEA022B1FFA8BFBC2F303224BEA020BC5
:103EE00001F08EFD0FFA8BF001F0B6FD728F98F89D
:103EF0000030013292B292FBF3F103FB1123282030
:103F0000738701F07DFD706990FBF7F000B201F05E
:103F1000A3FD042001F074FDB6F9200001F09CFD22
:103F20005A4B1B6898065CD5594FDFF870813B6887
:103F3000584E002BB8BF5B4293FBF8F106FB0133F0
:103F40004FF03C0909FB03FA1320039101F058FDDF
:103F5000039964229AFBF8FB02FB01B000B20392C2
:103F600001F07AFD1B2001F04BFD06FB0BA34FF483
:103F70007A7B93FBFBF000B201F06EFD232001F091
:103F80003FFD38680028ACBF4E20532001F064FD8F
:103F90007B681220002BB8BF5B4293FBF8FA06FB4C
:103FA0000A3309FB03F901F02BFD039A99FBF8F89A
:103FB00002FB0A8006FB089800B201F04DFD1A20B2
:103FC00001F01EFD98FBFBF000B201F045FD222040
:103FD00001F016FD78680028ACBF4520572001F09D
:103FE0003BFD01F01BFD95F82C30282B21D1224BF5
:103FF000002283F82C201F4A4FF47A7317683C255F
:10400000B7FBF3F7172001F0FBFCB7FBF5F6B6FBA7
:10401000F5F005FB1060000200B201F01DFD182054
:1040200001F0EEFC05FB167000B201F015FD01F089
:10403000F5FC94F8BA31012B7FF440AE0C4CE068EB
:1040400004F0C6FE00283FF439AEE468636B23B188
:104050009B6820469847054638E0A368201DFBB1C1
:104060000DF117019847003018BF01202DE000BF67
:10407000AC0B0020FC280020F0200020641D002054
:104080007800002000007A44961D0020900B00204C
:1040900060200020806967FF16000020809698004D
:1040A000E2697AB101210DF1170001F0DFFC05464C
:1040B000E06904F098FE638D834205D8236A0122EB
:1040C0005A7001E0104600E02846C5B2052005F010
:1040D000B3F88A2D31D08E2DB0D1AD4C00212E22D7
:1040E00004F16A0012F05AFB7C2384F86A30E02362
:1040F00084F86D307D2384F89630A38984F86B5062
:10410000DAB21B0A84F8893084F87F30142384F8EB
:10411000823084F883304FF4FA73A4F88430482353
:10412000A4F88C30782384F8882084F87E2084F8E2
:104130008E3004F16A002E2188E0964B1B689906A8
:104140007FF57CAF924C002104F13C002C2212F050
:1041500025FB7C2384F83C30A02384F83F307D236A
:1041600084F867308C4B84F83D501B7884F85630C7
:104170008A4BDB7A002B64D089498A480A688A4EC8
:1041800092FBF0FC5FFA8CFC06FB0C2706256F43C4
:10419000662384F86530D30F84F8453042F21073FB
:1041A000B7FBF3FE03FB1E77496884F8487091FB68
:1041B000F0F03F0AC0B284F84970CF0F06FB00113F
:1041C0006943B1FBF3F503FB151384F84D301B0A6B
:1041D00084F84E30754B64221B885FFA8EFEE9B27C
:1041E00002FB0CEE02FB0011B3FBF2F224235A4354
:1041F0006F4B1FFA8EFE1B8889B284F84F301B0A62
:1042000084F850306B4B92B21B8884F846E084F8F7
:1042100051301B0A84F85230B4F868304FEA1E2E31
:1042200084F84B1084F84320090A120A84F847E006
:1042300084F84A7084F84C1084F8442084F858308C
:1042400002E0202384F865305B482C2102F07CFEDC
:10425000F4E6D4F8A820002384F824301362936293
:10426000D362C4F8A830554B1F68554B1D78002DFC
:104270003DD104F5127801262946642240461E707D
:1042800012F08CFA84F8486231464E4A4346009553
:10429000022007F079FBC4F87002802001F074FB63
:1042A000C4F86C0218B33B1DC4F86832464BC7F81B
:1042B0002480FB62454B30463B63202111F06CFFAC
:1042C000C4F8780218B9424B03221A700FE0202379
:1042D00084F877323F4B4048C4F8A0323033C4F8FA
:1042E000A4323E4B2946C4F8A83207F0D7FD94F813
:1042F000AC3223B10AF010FF394A3A4BDA603A4B3C
:10430000DB680BB139489847394A224D138813B1FD
:104310002B689A0702D4374B1B8813B105F04CF871
:104320000AE01E4B9A7812B1334A082111615B787A
:1043300013B1314B08225A6194F8AD3223B1144ABB
:10434000013B82F8AD320BE0144B5A7B1AB99A70DC
:1043500005F032F801E001229A70092384F8AD32A9
:104360002B689B0610D594F8AE3223B1084A013B66
:1043700082F8AE3208E0084B1B78042B01D905F017
:1043800012F8022384F8AE32002007B0BDE8F08FA7
:10439000F0200020900B002015280020F50C0020B4
:1043A00060200020A08601006079FEFF441E0020EE
:1043B000561E0020341E00202C210020AC0B0020B3
:1043C0000830002069BD000889BA00084D9D00082A
:1043D000FC2F0020707D01087C8D0108778D01087D
:1043E0000400FA0500ED00E0300B00202821002039
:1043F000FE2F0020B61C0020000C0140084BDA689C
:10440000D10709D4DA68520708D4DB6813F0100F1B
:104410000CBF042003207047012070470220704722
:104420000020024090F8340070472DE9F84F1C46F8
:10443000036B0646B3F806B089469246002584B160
:104440005C4534BFA046D846F76A304605EB090103
:104450000AEB05024346B84720B14544C8EB0404C3
:10446000EDE70120BDE8F88F30B590F8345035B154
:10447000046B8988E4886143BDE83040D5E7024B8E
:104480000F221A70284630BDFC2F0020026B4FF619
:10449000FF7193898B4203D1054A0421117005E015
:1044A000416C0C2000FB0311C988918118467047AC
:1044B000FC2F002070B5C46806462369227D9D5CF0
:1044C000237B013B032B35D8DFE803F00D020B27DC
:1044D000A369A08800219847237D01332375032316
:1044E00009E0EF2D09D8A369A08801219847237D11
:1044F00001332375022323731CE0F02D0AD0637D62
:104500001035EDB2AB4205D201330022637522753E
:10451000012300E0042323730FE0A369A088002196
:1045200098470023237323680BB1A0889847012381
:10453000337002E00A20684370BD012070BD2DE990
:10454000F04F836985B004460191002B67D0354F49
:10455000036D3A6800F12C06D31A042B84BF0023A4
:1045600080F83C303B680365A06A0DF10F01019BA8
:104570009847002853D094F83C305A1C84F83C20CB
:104580009DF80F20F25494F83C30022B0DD194F892
:104590002D30012BE8D0122BE6D003F0EF03A22B35
:1045A000E2D0002384F83C30DEE70F2BDCD9E3684F
:1045B00094F83E90013394F83DA094F802B0E36083
:1045C0000225735D43FA09FC0CEA0A0CDC4516D29D
:1045D00094F83F200CF1200813407219507800EB3A
:1045E00003200BF0B5F8D4E908230BF041FA0022C0
:1045F0000D4B0AF061FF0BF0D3FB24F818000235D5
:10460000102DDED13B68A360002384F83C30A36901
:10461000002BA9D0204604F140019847A4E705B03B
:10462000BDE8F08FFC28002000E08E40F0B58369E3
:104630008BB004460E46002B00F00481824DC36B04
:104640002A6800F12107D31A022B84BF002380F8C7
:1046500020302B68C363E0690DF10301B0470028E7
:1046600000F0F08094F820309DF803200BB90F2A59
:10467000F1D1591C84F82010FA5494F82030192BE9
:10468000E9D1002384F8203094F839301BB1236934
:1046900001332361DFE72B6894F82220A36094F8AC
:1046A000233094F8250042EA0322C2F30A02ADF84F
:1046B000042094F82420DB0843EA4213C3F30A03DE
:1046C000ADF8063094F82630990241EA800141EABB
:1046D0009212C2F30A02ADF8082094F827205B0872
:1046E00043EAC213C3F30A03ADF80A3094F8283042
:1046F000120942EA0312C2F30A02ADF80C2094F840
:104700002A2094F82900510241EA400141EAD313DA
:10471000C3F30A03ADF80E3094F82B30920842EA46
:104720008312C2F30A02ADF8102094F82C205B0922
:1047300043EAC203ADF8123094F82D2094F82E30DD
:1047400094F8300042EA0322C2F30A02ADF81420C2
:1047500094F82F20DB0843EA4213C3F30A03ADF8B1
:10476000163094F83130990241EA800141EA921200
:10477000C2F30A02ADF8182094F832205B0843EA2D
:10478000C213C3F30A03ADF81A3094F83330120998
:1047900042EA0312C2F30A02ADF81C2094F8352055
:1047A00094F83400510241EA400141EAD313C3F3C3
:1047B0000A03ADF81E3094F83630920842EA8312AC
:1047C000C2F30A02ADF8202094F837205B0943EACF
:1047D000C203ADF8223094F8383040F2FF7213F083
:1047E000010F0CBF0021114613F0020F08BF002279
:1047F000ADF82620C3F3C002ADF8241002B10122A7
:104800005807E27003D56369013363611AE0E36816
:104810000DF102050133E3600DF1260668880BF007
:10482000E9FB0A490BF03AFC09490BF02FFB0BF0AE
:1048300021FE25F8020FB542F0D1A36913B120463D
:1048400001A998470BB0F0BDFC2800200000203FD4
:1048500000005C4438B590F83440036B1CB9114B30
:104860000F221A701CE05B894FF6FF72934212D040
:104870000C256B43426CD418D35A8B4209D1204685
:10488000062104F04AFB6389834209D0054B1D7061
:1048900004E0E388E8E7034B0E221A70002038BDDD
:1048A000204638BDFC2F00202DE9F74F076B8DE81F
:1048B0000600FB88FF291A4402F1FF3292FBF3F253
:1048C000054608BF012211D090F834401CB94E4B68
:1048D0000F221A7093E0B7F80A904FF6FF76B145B1
:1048E00015D13B8992B2934203D20422464B1A70EF
:1048F00021E0B0F83C80FFF7C9FD6B6C0C2404FB91
:1049000000347B89A4F80890E380788161E0416CF1
:104910000C2404FB091AB0F83C80BAF804B0C34573
:104920001FD0C8EB0B0B1FFA82FCE34519DBFFF726
:10493000ADFDB04201D1002062E06B6C04FB00349D
:104940007B892681E3807881AAF8080041E00AFB90
:104950000410B0F804C090B2C8EB0C0C844527DA00
:10496000A1464FF00C0A0AFB0916B6F80280B0887F
:10497000984408F1FF38F48898FBF3F84FF6FF7B72
:1049800080445C451FFA88F8E1D13B8992B2C8EBBC
:1049900003039342A9DB2846FFF778FDA042CAD063
:1049A0006C6CF3880AFB0044E380A4F808900FE0E5
:1049B0002846FFF76BFD5845BDD06B6CF2880AFBAB
:1049C0000034E280F288A4F808900AFB02331881D0
:1049D000F080019B009963802180A4F80480062167
:1049E000204604F09AFA002160812A6C2846AB6BBD
:1049F000FFF71BFD18B9044B0D221A7000E020468A
:104A000003B0BDE8F08F00BFFC2F00202DE9F0417E
:104A1000836992B004460F46002B73D03B4E836EE1
:104A2000326800F12005D31A032B84BF002380F8DD
:104A3000663033688366E0690DF10701B8470028E6
:104A400060D094F866305A1C84F866209DF80720E0
:104A5000EA5494F86630012B04D194F82030A82B46
:104A60000BD1E8E7022B14D194F8213003F07F0238
:104A7000012A06D0236901332361002384F86630BC
:104A8000D9E7B3F1810EDEF1000353EB0E03E370BF
:104A9000D1E7032B94F8222005D1931EDBB21E2B05
:104AA000E8D8A270C7E70232B3EB420FC3DD94F837
:104AB000028028464FEA4801053104F02EFA00280A
:104AC000D8D1E368EA1C0133E3600346434502F1B1
:104AD00002020BDA12F8011C12F8020C01EB0020A2
:104AE000C01002A921F813000133EFE73368A36077
:104AF000002384F86630A369002B9CD0204602A9CD
:104B0000984798E712B0BDE8F08100BFFC2800206C
:104B10002DE9F8430546076B90F8340008B90F22D9
:104B200038E07E8900E0E6884FF6FF78464538D0C9
:104B30004FF00C0909FB06F36A6CD418D35A8B4268
:104B4000F1D12046FF21062211F028FE238943459A
:104B500024D06A6CE18809FB0322D180E2884FF6F9
:104B6000FF718A4205D0686C4FF00C0E0EFB0202FA
:104B70001381BB892046E3802181062104F0CDF911
:104B8000002160812A6CBE812846AB6BFFF74DFC8B
:104B900068B90D22074B1A70BDE8F883E2887A8164
:104BA000DCE7044B0E221A700020BDE8F8830120D8
:104BB000BDE8F883FC2F00202DE9FF41056B4FF67F
:104BC000FF73002604466B810A21AE81284604F05B
:104BD000A4F9A26BE881206CFF211030103A11F08B
:104BE000DDFD334669790C264A1E9342626C0ADA6F
:104BF00006FB03265F1CF7803046062104F08DF982
:104C00003B467081EEE706FB01260C3E062130464E
:104C100004F083F900217081226C2046A36BFFF71A
:104C200004FC18B194F8385000260CE0164B0D2205
:104C30001A7026E00131CBB2434514D34644C8EB89
:104C40000505F6B2EDB2CDB1102D34BFA8464FF038
:104C50001008A76A2046694632464346B8470028EE
:104C6000E4D0226C00219319585C1DF80130984261
:104C7000E0D0054B0F221A70002002E0012084F8DA
:104C8000340004B0BDE8F081FC2F002038B5C468C2
:104C9000238B03B1013B2383B4F91630002B1FDBB8
:104CA000B4F91820E2B9227D022A0CD1656855B109
:104CB0004FF47A7058430BF09DF921690BF0A2FA7A
:104CC0000BF0B2FBA8472368012098470A2004F0A4
:104CD000A4FA23680020984701232375E38A2383DD
:104CE000237D032B05D163680BB1206A984700230D
:104CF0002375002038BDF0B583698BB004460F469C
:104D0000002B00F0E480734DD0F898302A68D31A55
:104D1000022B84BF002380F874302B68C0F89830D1
:104D200090F87430032B4AD8206A03A9B8470028AA
:104D300045D094F87430032BF6D8DFE803F0021264
:104D4000252B9DF80C301A1FD2B21C2AECD8624ACF
:104D500000211170D91EDB43538084F875100123A4
:104D60002AE05D4B9DF80C001E785988721C264481
:104D7000D2B286F87600081A1A70588094F8753006
:104D80009342D1D1022317E0534B9DF80C201A71A6
:104D9000032311E0504B9DF80C105A881B7903EB4C
:104DA00001239A4204D1E3680133E360042303E062
:104DB000236901332361002384F87430B4E794F845
:104DC0007420042A40F083802B6894F87650A36006
:104DD000402D19D12246012323F001010AA80144E4
:104DE00092F8785092F87700023340EA05201D2BA4
:104DF00021F81C0C02F10202EED1A369002B58D05D
:104E0000204603A9984754E0236A5869002850D0E7
:104E1000217F05F00F0399424BD3002B49D094F822
:104E20007510012945D1DE1C05F0F00504EBC6061E
:104E3000902D06F104010AD0A02D15D0802D38D177
:104E4000803B8DF804208DF80530022235E0703B60
:104E50008DF80530337906258DF806304B788DF8BE
:104E600004508DF8073028E0603B4D788DF8053010
:104E70004B682E1D1912042D8DF804608DF8063034
:104E80008DF8071019D11A141B0E8DF808208DF813
:104E90000930062211E0ED430AAB1344ADB203F82A
:104EA000245C0AAB13442D0A023203F8235C06F09B
:104EB0007CFE002384F8743009E000231D4699B27B
:104EC000914201A9E7D2C95C01330D44F7E70BB069
:104ED000F0BD00BFFC280020A023002010B5044630
:104EE000FFF78CFA012806D11CB1FFF787FA013CC5
:104EF000F8E7052010BD002C08BF052010BD10B537
:104F00000F4B4178DB688478DB43C3F30223C3F1A2
:104F1000040201FA02F20F21D94021401143094B4A
:104F200002780901C9B21A4482F8001302780120FC
:104F3000510902F01F0200FA02F243F8212010BDCD
:104F400000ED00E000E100E02DE9F84FBDF828B0E9
:104F50000746894692461C46002584B15C4534BF0D
:104F6000A046D846384609EB050105EB0A02434640
:104F7000BE6AB04720B14544C8EB0404EDE7012008
:104F8000BDE8F88F37B590F834401CB9074B0F22B5
:104F90001A7007E0046B9288E48800946243FFF77C
:104FA000D3FF0446204603B030BD00BFFC2F0020D5
:104FB00007291CD8DFE801F004070A0D10131619A1
:104FC00040F25A5312E040F242430FE04FF44D7367
:104FD0000CE04FF4257309E04FF4DC7306E04FF466
:104FE000C37303E04FF4A57300E0E623038070472A
:104FF00083883BB1074A116882688A1A9A4294BF33
:1050000000230123C278002A0CBF18460120C0B239
:10501000704700BFFC28002038B51B4B1B4C1B6899
:105020009847216805460BF0CDF9E8B928460AF003
:10503000A1FB0FA3D3E900230AF0F0FB0EA3D3E9F1
:1050400000230AF039FA0EA3D3E900230AF010FD79
:105050000B4602464FF0804100200AF009FD0AF09D
:10506000BFFE0B4B2560186138BD00BFAFF3008059
:10507000333333333333E33F9A99999999B9744071
:10508000000000000088C340D0230020A823002097
:10509000AC2300202DE9F34745680446A8688946FB
:1050A0009246002837D0EB6A002B33D10122EC6204
:1050B0009846A2702E8D2078012E28BF01260096DA
:1050C000AF6808EB090101220AEB0803B84708B1F1
:1050D00002280CE0114B1968A278012A05D1186842
:1050E0006278401A9042F7D90AE0A378032B07D0E0
:1050F000012EB044DED10023EB623046A3700AE0FB
:105100002B88002001332B80054B0A22E8621A709D
:10511000A07000E0002002B0BDE8F087FC2800206D
:10512000FC2F002010B1024B83F8200001207047B3
:10513000B80A002008B1024B18750120704700BF63
:10514000B80A0020023A2DE9F8430C46062A2AD86C
:10515000DFE802F004080E13181C200043880B80BF
:10516000038803E003885B420B8043885B421DE0B9
:1051700043885B420B80038818E003885B420B8006
:1051800043880CE043880B80038808E003880B8089
:10519000438803E043885B420B8003885B42638063
:1051A00083885B4204E003880B80438863808388A4
:1051B000304DA38095F85030002B59D0B4F9000041
:1051C0000AF018FF8046B4F902000AF013FF074600
:1051D000B4F904000AF00EFF696D064640460AF075
:1051E0005DFF296E814638460AF058FF0146484661
:1051F0000AF04CFEE96E814630460AF04FFF014648
:1052000048460AF043FE0DF0C3FCA96D20804046DD
:105210000AF044FF696E814638460AF03FFF0146B6
:1052200048460AF033FE296F814630460AF036FFC1
:10523000014648460AF02AFE0DF0AAFCE96D60809E
:1052400040460AF02BFFA96E804638460AF026FF3A
:10525000014640460AF01AFE696F074630460AF0DA
:105260001DFF014638460AF011FE0DF091FCA080AA
:10527000BDE8F883B80A002037B5094C0546237805
:1052800013F001000AD0A369E0696946984728B184
:1052900068462946227DFFF755FF012003B030BD47
:1052A000B80A002037B50B4C0546237803F00203FB
:1052B00003F0FF005BB1636AA06A6946984730B1AA
:1052C0006846294694F82020FFF73CFF012003B0F0
:1052D00030BD00BFB80A002037B50B4C0546237817
:1052E00003F0040303F0FF005BB1236B606B6946BE
:1052F000984730B16846294694F82C20FFF722FFE2
:10530000012003B030BD00BFB80A0020034B0620C7
:105310001A6822F020021A6008F0DABD900B002013
:10532000012873B50E4625D12D4B00209A682D49D2
:1053300006F0CEFD2C4B00202C491A7806F0C8FD53
:1053400000202B4906F0C4FD00242A4BE10053F84D
:1053500034206AB10B44284900200968E14001F07B
:10536000010100915B68254906F0B2FD0134ECE7CC
:10537000104633E002282CDD8B681B78462B0BD0BF
:1053800003D8302B08D0312B04E0662B04D0742BCB
:1053900004D0542B20D101E0002500E00125002499
:1053A000144BE10053F83420B2B10B4470685968D3
:1053B00009F05EFF58B9104B012202FA04F4196893
:1053C0000DB1214301E021EA0401196006E0013436
:1053D000E6E76FF0020001E06FF0030002B070BD7D
:1053E00078090020D38F0108FC2F0020E38F0108EB
:1053F000EE8F01087C7E01080C300020F58F01083B
:1054000013B5064B0024019320460094044922461C
:10541000012306F05DFD204602B010BD9C8C010802
:10542000039001082DE9F74F4568044668688A46ED
:1054300093461E4600283CD0EB6A002B38D101224F
:10544000EC629846A2702EB3B5F8289020784E45AD
:1054500038BFB1465FFA89F9CDF8009008EB0A0130
:1054600001220BEB08036F68B84708B102280CE073
:10547000114B1968A278012A05D118686278401A80
:105480009042F7D90AE0A378032B07D0C844C9EBB0
:105490000606D8E7EE620120A6700AE02B880020FD
:1054A00001332B80054B0A22E8621A70A07000E0DD
:1054B000002003B0BDE8F08FFC280020FC2F002066
:1054C000174B072873B504461D691E4604D9154BB2
:1054D00006221A70002021E0012128460DF1070262
:1054E0000B46FFF79FFFC8B19DF80720B4EB521F92
:1054F0000ED002F01F0242EA441302AA02F8023D53
:1055000028460121FFF7C6FD003018BF012028B151
:10551000706921461230FFF74BFD012002B070BDCB
:1055200028250020FC2F002008B5044803F0C2FC09
:1055300018B1034B43600A23437008BD600A002082
:10554000500A002007B502AB03F8012D1A46FFF7F9
:10555000A1FD03B05DF804FB254B10B55343254A6C
:10556000254C12680139B2FBF3F20388013AA042DC
:1055700089B292B29BB212D004F50064A0420ED060
:10558000B0F1804F0BD0A4F59834A04207D004F5B9
:105590008064A04203D004F58064A04202D123F0CD
:1055A00070039BB2154CA04206D004F58064A04263
:1055B0001CBF23F440739BB203800F4B818598423C
:1055C00002850FD003F5006398420BD003F54063CA
:1055D000984207D003F58063984203D003F58063B7
:1055E000984201D1002303860123838210BD00BFAE
:1055F00040420F00BC000020002C01400010004081
:105600000A88F0B54B880E89CD88002A3AD1048CDF
:10561000834A24F001042404240C0484018B048CA8
:1056200089B221F0F30141EA0616B6B29042A4B263
:1056300046F0010643F0010315D002F500629042E6
:1056400011D0B0F1804F0ED0A2F5983290420AD01E
:1056500002F58062904206D002F58062904218BF47
:1056600024F00A0401D124F00204234306830384B6
:10567000038B23F00C031B041B0C0383038B9BB2D3
:105680001D4345E0042A8F8844D1048C644A24F0E9
:1056900010042404240C0484018B048C21F4407134
:1056A0000905090D41EA0636B6B246EA07279042D7
:1056B000A4B2BFB212D002F5006290420ED0B0F197
:1056C000804F0BD0A2F59832904207D002F580624D
:1056D000904203D002F58062904207D124F020046A
:1056E00044EA03139BB243F0100304E024F0A00447
:1056F00043F01003234307830384038B23F44063A5
:105700001B041B0C0383038B9BB243EA0525ADB23C
:105710000583F0BD082A018C3ED121F48071090473
:10572000090C0184818B3E4A89B221F0F301048C7B
:1057300041EA0616B6B29042A4B246EA070712D072
:1057400002F5006290420ED0B0F1804F0BD0A2F56E
:105750009832904207D002F58062904203D002F561
:105760008062904207D124F4007444EA03239BB280
:1057700043F4807304E024F4206443F480732343EF
:1057800087830384838B23F00C031B041B0C83830C
:10579000838B9BB21D4341E021F480510904090C25
:1057A0000184828B048C22F440721205120D42EAAD
:1057B000072242EA06361A4AA4B29042B6B212D082
:1057C00002F5006290420ED0B0F1804F0BD0A2F5EE
:1057D0009832904207D002F58062904203D002F5E1
:1057E0008062904207D124F4005242EA033292B21E
:1057F00042F4805205E047F6FF52224043F48053C2
:105800001A4386830284838B23F440631B041B0C9E
:105810008383838B9BB243EA0525ADB28583F0BDBC
:10582000002C01401FB50123ADF808300023ADF86E
:105830000A30074BADF804101B7801A9ADF806201B
:10584000ADF80C30FFF7DCFE05B05DF804FB00BFDF
:105850000A0D002008B5044803F02CFB10B100230A
:105860000372437208BD00BF182900202DE9FF41D3
:105870002E4C1F4694F87862B5238DF808306223C9
:1058800015468DF809301EB1294B02221A702DE001
:105890005FFA82F8130A8DF80A008DF80B100DF1EB
:1058A0000A0039468DF80C808DF80D3005F048FF60
:1058B000B4F870328DF80000000A8DF8010008F18C
:1058C000080804F5177001A90422A4F874328DF8B1
:1058D00004808DF805608DF806608DF8076006F08D
:1058E00064F928B9B4F87432A4F8703200201AE0D0
:1058F00004F5177002A9062206F057F90028F1D026
:1059000045B90C486946022206F04FF90028E9D053
:10591000012008E004F5177039462A4606F045F9DB
:105920000028DFD0EDE704B0BDE8F0813815002095
:10593000FC2F00209417002070B50D46044600B1DE
:1059400021B90F4B01221A70002070BD00211C22CA
:1059500010F024FF0120294610F01EFC206130B910
:10596000074B032220461A7006F000F9ECE7054ABF
:10597000258113880120591C1180238070BD00BF30
:10598000FC2F00200400002038B505461C2010F034
:1059900043FC044618B9094B03221A7038BD294646
:1059A000FFF7CAFF0546204635B906F0DFF8204666
:1059B00010F03AFC284638BD38BD00BFFC2F00204F
:1059C00013B5426B8DF807101AB11368C9B2984726
:1059D0000EE0C4682CB10DF1070101220430A0478C
:1059E00006E0806920B10DF10701012206F0DDF823
:1059F00002B010BD014B1868E2E700BFAC0B0020FD
:105A000038B5054C05465E21E068FFF7D9FFE06830
:105A10002946BDE83840D3E7AC0B0020014B5E219E
:105A2000D868CDE7AC0B002010B50A4C5E280146C3
:105A3000E06805D15D21FFF7C3FFE0683E2105E086
:105A40005D2903D1FFF7BCFFE0683D21BDE81040B0
:105A5000B6E700BFAC0B002010B50446C0B2FFF79C
:105A6000E3FFC4F30720BDE81040DDE7D38A70B53B
:105A70001489A34224BFC4EB03039BB20024A5B244
:105A80008D420FD21669F65C0133065516899BB21A
:105A90009E4298BF0023968A01349E42EFD1681C33
:105AA00080B270BD084670BD064B00219A6832B1C5
:105AB00018610120197559751873117070471046D7
:105AC000704700BF180A0020F0B5424B85B01B6834
:105AD00006460F461BB9404B09221A7077E03F4C2F
