:020000040800F2
:1000000000500020CD2A01086D2B01080DF30008D7
:100010006D2B01086D2B01086D2B010800000000FD
:100020000000000000000000000000006D2B01082F
:100030006D2B0108000000006D2B010871F1000814
:100040006D2B01086D2B01086D2B01086D2B01082C
:100050006D2B01086D2B01086D2B010809F00008BC
:100060006D2B01086D2B01086D2B01086D2B01080C
:100070006D2B01086D2B01086D2B01086D2B0108FC
:100080006D2B01086D2B01086D2B01086D2B0108EC
:100090006D2B01086D2B01086D2B010805F0000880
:1000A0006D2B01086D2B01086D2B0108F7EF00087F
:1000B000EDEF0008E1EF0008D5EF000809F30008B4
:1000C00001F3000805F30008FDF200086D2B01089C
:1000D0006D2B010819F10008BDF0000859F0000867
:1000E0006D2B01086D2B01086D2B0108000000002D
:1000F0000000000000000000000000000000000000
:0C01000000000000000000005FF808F1A3
:100110002DE9F04F824C9DB023780490062B01F21C
:10012000BE86DFE813F007001F001F001F00AD04AC
:100130003606C80A7B4B1B682BB97B4B4FF47A7091
:100140001B68584300E09847049E326C831A2AB11A
:10015000B2691A44B261F2690132F261049F734AD2
:100160003864138023786E4D012B1E4600F0EA8020
:100170001DD3022B40F067846A4B6D4F1B68984774
:10018000D5F880300646C31A1846059310F020F8BB
:10019000684B0790596910F073F897F83130C5F83B
:1001A00080600026089006933546B346BEE1614B59
:1001B000A81C9B68984705F10208002800F05D84A0
:1001C0005D4B05F1500A1A889946002A00F0998083
:1001D000002708353E46B9F800B0584BBBF57A7F8A
:1001E000CDF814B007D10A20A3F13C0100FB0611A1
:1001F0000022DA510A61DA5938F906000244DA516C
:100200000FF0EAFF2B690133012B2B6104D100238E
:1002100068602860AB602AE0D5F800C001936146B1
:10022000CDF80CC002900FF021FF019B83461846C9
:100230000FF0D2FF0146584610F0D6F8DDF80CC09A
:10024000014660460FF014FF029A034619466860A3
:10025000104601930FF00AFF0146584610F010F8BF
:10026000A9680FF005FF019BE8602B60A860059A64
:100270000023012A28F806302AF8063034D12869EC
:10028000012807DD01380FF0A7FF0146E86810F0EC
:10029000ABF800E0002013F049F8294B834693F8AF
:1002A000660190B10FF098FF0146584610F0A4F98E
:1002B00058B14FF47A73A9F800300023A361E362C8
:1002C0002364E364A36463640EE01C4B4FF47A720E
:1002D000FB580A2003F5FA7393FBF2F32AF8063071
:1002E0000F21012205F0A8FC0236062E07F10407B3
:1002F00005F114057FF46FAFB9F80030013BA9F8A0
:100300000030002338F803003AF80310044A411A79
:1003100028F803100233062BF4D101F0B0BD00BF62
:100320002018002074090020682500207A2C002065
:10033000302B0020300B0020FE1700206418002016
:10034000A8250020994B05F156001B6A98475635A1
:10035000002800F09283964F964E3888002844D0AB
:1003600000231A46DFF878E2B0F5C87F04BF002109
:100370004EF8021035F903805EF80210DFF864C20F
:1003800041444EF80210002106EB0308E952023303
:10039000062BDFF820E2A8F86A1102F10402E1D18D
:1003A00001281FD1DCF85C304FF4C872C83393FBCE
:1003B000F2F3AEF86A31DCF86030C83393FBF2F345
:1003C000AEF86C31DCF86430C83393FBF2F27A4B50
:1003D0001B88D21A794BAEF86E219985D9850146D2
:1003E00005F04BFC3B88013B3B80B268714B5207E8
:1003F00077D573490A888846322A13D1B3F86A112F
:10040000A4F86810B3F86C11B3F86E31A4F86A1050
:10041000A4F86C30694B998DDB8DA4F86E10A4F8AC
:10042000703001E0002A3DD000231946322A654F82
:1004300004BF0020785035F903E0785870447850B4
:10044000002006EB030EE8520233062BAEF86A01D9
:1004500001F10401EAD1012A1FD15B4B5B4D1870F9
:100460005B4B1A702B780A2B04D95A4806F070FCA3
:100470000A232B70B4F86830B4F86E20A6F86A31FD
:10048000B4F86A30A6F86C31B4F86C30A6F86E3166
:100490004A4B9A85B4F87020DA85B8F80030013BF1
:1004A000A8F800304C4A1378DBB10023616F137059
:1004B000322291FBF2F1A6F86A11A16F91FBF2F1E1
:1004C000A6F86C11E16F91FBF2F23B490888121A11
:1004D000A6F86E210120394A01469385D38505F09F
:1004E000CCFBB4F85620B6F86A31D31AA4F85630CB
:1004F000B4F85820B6F86C31D31AA4F85830B4F8D0
:100500005A20B6F86E310226D31AA4F85A30B4E253
:1005100009F1540935F8093028F805302F4B043615
:10052000EB5E0235062D03FB03BB5FD0DFF8B8900E
:100530000DF1400A39F905000FF04EFE08990FF051
:100540009FFE069A4AF80600DFF89080002ADFD066
:1005500010460FF041FE01464FF07E500FF044FF71
:100560000346194609F1820A4FF07E5001930FF0BD
:100570007DFD56F80A100FF083FE09F1540902467A
:1005800039F9050002920FF027FE019B19460FF082
:1005900077FE029A014610460FF06AFD4AF80600FF
:1005A00010F034F828F80500B8E700BF300B002041
:1005B0006E2C0020A825002078000020302B002081
:1005C000481A0020941800204A1A002094000020A5
:1005D000441A0020967E0108451A00206E1C002057
:1005E0007C1800202018002022180020642303FB20
:1005F0000BFBB34BB3481B8810A95B439BFBF3FB7E
:10060000ABF1490B1FFA8BFB02F04EFABBF13B0F2B
:100610006ED9AD4BD4F89850B3F900000FF0DCFD63
:10062000014628464FF001060FF0E6FF00B90646E6
:10063000A64B2946D4F894005E7312F0D7FC064608
:10064000C4F89C00D4F89000D4F898A000F10045BC
:10065000D4F8940001460FF013FE514681465046EF
:100660000FF00EFE014648460FF002FD12F05EFE4E
:100670000146284612F0BAFC0546C4F8A0003046F0
:100680000FF06AF98AA3D3E900230FF0B9F90FF04C
:1006900099FC12F0DDFBDFF85892A9F8000028461B
:1006A0000FF05AF982A3D3E900230FF0A9F90FF054
:1006B00089FC12F0CDFB864BA9F802001B681B07D2
:1006C00064D510A9834802F0EFF9834B4FF0000B7B
:1006D000B3F864010FF07CFD4FF07E5182460FF0BD
:1006E000C7FC01464FF07E500FF07EFE81462DE0A4
:1006F000794B4FF00009B3F862010FF069FD4FF03C
:100700007E5106460FF0B4FC01464FF07E500FF0CC
:100710006BFE0546DFF8ACA130465AF819100FF011
:10072000AFFD6E4B834633F909000FF055FD0146CE
:1007300058460FF09DFC29460FF0A2FD4AF819001B
:1007400009F10209B9F1060FE4D162E7614B5046A5
:1007500053F81B1001930FF093FD6149024631F9E4
:100760000B0002920FF038FD029A014610460FF07E
:100770007FFC49460FF084FD019B43F81B000BF101
:10078000020BBBF1060FE1D118463FE0DFF854A1A0
:1007900010A9504602F088F9DAF80000DAF80430BF
:1007A0000146DAF8089001930FF06AFD019B834639
:1007B000194618460FF064FD014658460FF058FCE4
:1007C0004946834648460FF05BFD014658460FF008
:1007D0004FFC12F0ABFD002181460FF0E5FEA0B901
:1007E000DAF8000049460FF0FFFD4946CAF800005C
:1007F000DAF804000FF0F8FD4946CAF80400DAF808
:1008000008000FF0F1FDCAF80800364802F004FABB
:10081000354B3649188007980FF032FD324B814630
:1008200006F10046B3F9000005F100451396149552
:100830000FF0D2FC00F100400FF08EF81EA3D3E9B8
:1008400000230FF0DDF80FF0BDFB1590B8F90000A4
:100850000FF0C2FC1690B8F902000FF0BDFC179023
:10086000B8F904000FF0B8FC13A9189016A802F00C
:100870001BF997F84830012B3CD1144B5B7873B9C6
:10088000D4F8B030402093FBF0F0181A0FF0A4FC1D
:1008900018990FF0EDFB0FF0B9FEC4F8B000D4F8D2
:1008A000B030402093FBF0F026E000BFAFF30080B3
:1008B0003B597E90A9E78140399D52A246DF913F86
:1008C00078000020B0180020980B0020F50C0020C4
:1008D000900B0020C4180020A82500206E1C0020CA
:1008E000981B002084000020421A0020BD37863566
:1008F000741B0020B64B18880FF06EFC0146189848
:100900000FF0B4FBB34B1890196848460FF0B0FBDA
:10091000014648460FF068FDD4F8B4608046314681
:1009200018980FF0A3FB014640460FF0A9FC0146C2
:1009300030460FF09DFB0646C4F8B4001698D4F874
:10094000B88012F085FA97F8331002F0E1F94044CC
:10095000C4F8B8001798D4F8BC8012F079FA97F868
:10096000331002F0D5F94044C4F8BC003046D4F846
:10097000C08012F06DFA97F8321002F0C9F9964B68
:10098000059E1A68404432441A60D4F8C430934D2E
:100990000133C4F8C43097F8B630C4F8C000002B57
:1009A0004FD0D5F89000D5F8948001460FF068FC40
:1009B0004146074640460FF063FC014638460FF0BB
:1009C00057FBD5F898600746314630460FF058FC83
:1009D000014638460FF04CFB12F0A8FC01463046A9
:1009E0000FF002FD7E4906460FF0F2FD18B100231C
:1009F000A5F8C83025E0304612F0A6FA794B196800
:100A00000FF03EFC12F024FAB0F5617FA8BF4FF45E
:100A100061700EF08FFF6CA3D3E900230FF01AF979
:100A20000FF0D0FA12F052FA6F4B064693F8B60068
:100A30000FF0D2FB31460FF023FC12F009FAA5F8B3
:100A4000C800032619E0694B5B79012B684B0DD177
:100A5000B5F9CA10B5F9062002EB4102032192FB59
:100A6000F1F292B29A80A5F8CA2001E0EA889A8051
:100A7000628804261A80A2885A80267000F017BE69
:100A80005C4B5D4A197C584BA1B9B2F906101A8D1E
:100A900091423CDBB1F5FA6F93F8264007DA891AE8
:100AA0004C43A2F5FA6294FBF2F4643430E0C4F1F2
:100AB00064042DE0B2F906101A8D91420FDB4F4A03
:100AC000B2F9061093F82620914208DDB1F5FA6FCD
:100AD00002DA891A4A435212C2F1800200E08022EF
:100AE0004749B1F90210142909DD93F82600B1F540
:100AF000967FA8BF4FF496714143A2EB212293F851
:100B00002640C4F18004A242A8BF144600E0642439
:100B1000364A93F8B050B2F8987192F95C2193F884
:100B2000B160524293F8253092B200212E480692CD
:100B3000059707930A46304BDDF8149031F903B05E
:100B400040F2E637C9EB0B0303F2F31EBE4503D8B0
:100B5000002BB8BF5B4201E04FF4FA73022ADFF8C2
:100B60009CC051D025B1AB42CCBFC5EB03030023E1
:100B70006427DFF8689093FBF7FE09EB4E086FF0EF
:100B8000630A0AFB0E3AB8F8CC8009EB4E0EBEF9A8
:100B9000CE900FFA88FECEEB090E0EFB0AFE9EFBEE
:100BA000F7FEC6442CF801E090F823E003FB0EFEAC
:100BB000144B9EFBF3F33B449BB2634393FBF7F769
:100BC00039E000BFAFF30080A2EB0FE5DD169640E1
:100BD00078000020A40B0020742C00202018002096
:100BE0008FC2753CA00B0020302B0020A8250020D0
:100BF000921B0020F50C0020C00D00205E1A002082
:100C0000741B00200CFEFFFF26B1B342CCBFC6EB25
:100C100003030023DDF818A0DDF81CE003FB0AF74E
:100C2000002BB8BF5B4203FB0EF3ACF80470B64F69
:100C300093FBF7F76437B54B90F80B80134493F8A8
:100C400001C007FB08F807FB0CFCDFF8FCE264239B
:100C50009CFBF3FC02F80EC098FBF3F80EF1030CBA
:100C600002F80C8090F815C00EF1060E07FB0CF789
:100C700097FBF3F302F80E30059BA54F9B4502DA74
:100C80007B5A5B427B520132032A01F1020100F1DF
:100C900001007FF450AF9F4BB3F906209E4BB3F891
:100CA0009A319A4205DBB2F5FA6FA8BF4FF4FA62A7
:100CB00000E01A46D21A4FF47A714A43C3F5FA6338
:100CC000B2FBF3F36425954A93FBF5F102EB410087
:100CD0006FF0630606FB0133B0F8E40002EB41015C
:100CE000B1F9E66001B2711A4B4393FBF5F58C4BF9
:100CF00028445B7A864CF8809046002B44D0894B80
:100D0000B3F90000884BB3F90030C01A0EF012FEA0
:100D10007BA3D3E900230EF073FE0022834B0EF079
:100D200099FF0FF04FF9054612F05CF80646284689
:100D300012F0CCF80546B4F902000FF04DFA074660
:100D4000B4F900000FF048FA314681460FF098FAE6
:100D50002946824638460FF093FA014650460FF076
:100D600085F90FF053FC3146208038460FF088FAA1
:100D70002946064648460FF083FA014630460FF0F2
:100D800077F90FF043FC6080052388F8003000F00D
:100D90008EBC674BDFF874911A6812F0080539D0E1
:100DA0005B4988880F4600F145039BB28A2B614955
:100DB0005C4B2DD85A4E96F805E0BEF1000F27D0B7
:100DC000B3F800E00B88767BC3EB0E0189B28BB2DF
:100DD0000FFA83FE1EF1B30FBCBF01F5B4739BB2D3
:100DE00019B2B3294C49C4BFA3F5B4739BB291F8AF
:100DF0005C117EB149B249424B4399F809101BB2CC
:100E00004B436FF01D0193FBF1F31844B88001E0F0
:100E10001B880B80570740F1A480414B997900292A
:100E200000F09F801E7C3A4B002E40F0918099F894
:100E3000B300414F99F8B21068B3B3F806E0B7F9C0
:100E400000000FFA8EF7C0EB070CBCF1000FB8BF23
:100E5000CCF1000C8C4510DD8742DFF8F0C0C8BF34
:100E60004942CCF800601FFA8EFE4FF00106C8BF61
:100E700089B284F8FC6071443FE094F8FC1031B111
:100E80002E490F682E490F60244981F8FC602D49D6
:100E90000968084426E0B7F90060B3F90670BF1B83
:100EA00087EAE77EAEEBE77E8E450ADD022197FBFF
:100EB000F1F70121C4F8007184F8041184F8FC10E2
:100EC0000DE094F8FC7015494FB11C4F81F80401F6
:100ED000D7F800E01A4F81F8FC00C7F800E0194984
:100EE000086830440C4EB6F84011B6F842618842AA
:100EF00003DBB042B4BF01463146D98031E000BFC8
:100F0000182D4454FB2109400CFEFFFF302B00201C
:100F10005E1A0020C00D0020A82500202018002007
:100F2000F50C0020421A0020721A00200080664052
:100F3000900B0020701A00205C1A0020581A002024
:100F4000541A00206C1A0020FA180020681A002099
:100F50009749588891F9A0619649096806FB0101F3
:100F6000598099F8B63053B1934BD97809B91B79A8
:100F70002BB1924BB4F8C800D9880144D9809606A9
:100F800040F192838C4BDE7905961EB91A7A002ABD
:100F900000F085831B7BDFF820B2002B00F07F83FD
:100FA000874B1F8838B20FF017F986490FF068F9A0
:100FB000064611F08BFF8046304611F013FF9BF878
:100FC00010300646002B40F0858099F815917E4F31
:100FD0007E4DB9F1000F4CD0DFF81CA2B7F902002A
:100FE000BAF80230C9F100041FFA83FB1BB2C01A21
:100FF00002F050F8A04203DB4845A8BF484600E095
:101000002046BAF800308344B7F900009AB21BB208
:101010001FFA8BFBC01AAAF802B0029202F03AF84B
:10102000A042029A03DB4845B4BF04464C46144430
:10103000A4B2AAF800400FFA8BF00FF0CDF80746E3
:1010400020B20FF0C9F83146044638460FF018F9BF
:101050004146814620460FF013F9014648460FF0FD
:1010600005F85B490FF0C0F90FF0D0FA2880384638
:101070001DE0B7F902000FF0AFF88146B7F90000A4
:101080000FF0AAF83146044648460FF0F9F84146F9
:10109000074620460FF0F4F8014638460EF0E6FF0A
:1010A0004B490FF0A1F90FF0B1FA288048464146AC
:1010B0000FF0E6F83146074620460FF0E1F801460A
:1010C00038460EF0D5FF42490FF08EF90FF09EFA28
:1010D0006880E9E23F4B404A1888404B9BF813B0C8
:1010E000DB8899F8369106933D4BD3F808803D4B49
:1010F0001FFA88FA1E889368CAEB0606B6B2CAEBD6
:10110000030A1FFA86FC1FFA8AFABBF1000F06D009
:101110000FFA8CF34B45BCBF08EB090393600A231D
:1011200000B258430193CDF80CC001F0B3FF019B0E
:10113000DDF80CC090FBF3F000B27DB190FBF3F34F
:1011400038B29AB2C31A002BB8BF5B420A2B08DD33
:10115000254B1B88C82B88BF174602E090FBF3F78E
:10116000BFB2224D2248D5F808316422CAEB0601ED
:1011700093FBF2F20668D5F8103189B2F31AC72B47
:10118000A5F80C21A5F80E11824640F26C82036886
:10119000184EC5F81031B6F82C3179BBA5F81431CA
:1011A000BBF1000F40D0044B0021D9743CE000BFDC
:1011B000A82500206C1A0020F50C00205E1A0020E3
:1011C000421A002035FA8E3CA61A00209C1A0020F4
:1011D000000020419E1B0020841A0020C00D00202A
:1011E000781A0020901A0020AC1C00202018002043
:1011F00068250020302B0020A21A0020B6F830010C
:1012000009B200FB1130B6F82E31B6F82AE1984247
:1012100003DB7045B4BF03467346A5F81431BBF138
:10122000000F01D00029BEDAD71BB8B2059F9E4936
:101230009E4BE7B1CA7C7AB1B6F824216FF009075A
:101240007A43A5F80E21B6F82A21A5F814210FFA41
:101250008CF2182AD8BF00201A88312A07D80FFA32
:101260008CFCCC4503DD924A08EB09079760897C2A
:101270008D4A49B11988092906D800215170D174C5
:101280008B4A08F1050191601B88092B08D800B230
:101290000EF0A2FF87490EF0F3FF0FF0B7F980B20E
:1012A0004FF0640900B209FB00F001F0F3FE90FB7F
:1012B000F9F01FFA80F90FFA89F3002BB8BF5B42EF
:1012C000DAF80000AA2BC8BF4FF0AF09D5F81831E3
:1012D000DFF80482C01A0EF07BFF77490FF084F824
:1012E000DAF80030B5F80EA1C5F818310AF1030399
:1012F0009BB2062B074606D8D8F8000039460EF0F8
:10130000BFFFC8F800000A2202FB0AF292B293B2B1
:10131000A4F80E3118B2029201930EF05DFFD4F8DA
:10132000201182460EF0ACFF39460EF0A9FFD8F826
:1013300000100EF09DFE0FF069F96049B0F5FA7FDC
:10134000A8BF4FF4FA708842B8BF08460EF044FFB9
:101350005B49029A8346C8F800000888019B121A6C
:1013600092B20B8013B2002BB8BF5B42642BC8BF94
:101370000022544B03F10A01988823F8020F8B4294
:10138000FAD1514900230A811846CA5A023310443F
:101390000A2B80B201D080B2F7E700B20EF01CFF3A
:1013A000D5F824110EF06CFF39460FF01DF80FF040
:1013B0002DF91FFA80F8D5F81C115046A5F82C819C
:1013C0000EF05EFF0FF022F900B20EF005FF594655
:1013D0000EF04EFE0FF01AF91FFA89F909F1030316
:1013E0009BB2062B1FFA80FA08D8DFF8F0B0394616
:1013F000DBF800000EF044FFCBF800004FF00A0CC1
:101400000CFB09F91FFA89FC1FFA8CF210B2029248
:10141000CDF80CC00EF0E0FEDFF8C090D5F8341126
:1014200083460EF02DFF39460EF02AFFD9F8001042
:101430000EF01EFE0FF0EAF8204BB0F5FA7FA8BFC1
:101440004FF4FA709842B8BF18460EF0C5FE034636
:10145000C9F800001D48DDF80CC00188029AC1EBF4
:101460000C0189B202800AB2002AB8BF5242642A33
:10147000C8BF0021164A02F10A00B2F804E022F8BF
:1014800002EF8242F9D1134A4FF000091181484618
:1014900032F8091009F102090844B9F10A0F80B2C3
:1014A0001ED080B2F4E700BFF50C0020AE1C002077
:1014B000841A0020CDCCCC3D00007A440CFEFFFF06
:1014C0002C1B0020301B0020321B00202E1B002074
:1014D0003C1B00203E1B0020281B0020241B00205A
:1014E00000B201930EF078FED4F838110EF0C8FE69
:1014F00039460EF079FF0FF089F887B2D4F8301131
:10150000A4F8407158460EF0BBFE0FF07FF800B211
:101510000EF062FE019B0FFA8AFA19460EF0A8FD42
:101520000FF074F8B6F924316FF009014B439AFBC0
:10153000F9FA0FFA8AFAB6F926119A4580B209FB30
:1015400001F903DBCA45B4BF53464B46B04C02B267
:10155000B4F920116FF0090048434FF00A0E984487
:1015600092FBFEF2AB4B1FFA88F88242A3F802808E
:1015700004DB0EFB01F08242B8BF1046BFB2384414
:101580001880B4F922016FF0090141438A4204DB5B
:101590000A2141438A42B8BF11469F4A0F44507CFA
:1015A0009F80114658B194F828210FFA88F85242CA
:1015B000904503DBC845B4BF42464A465A80C97CC1
:1015C000964A69B996F83261B2F900006421B6FB17
:1015D000F1F15E880028B8BF404201FB10615980DC
:1015E000B2F902000EF0F8FD4FF07C510EF048FE0B
:1015F0000FF00CF88A4BB0F5E17FA8BF4FF4E17013
:101600001A88B5F81471A2F5E17320EAE0709BB274
:10161000381A642B87B2834E0CD910B2C0F5FA7019
:101620000EF0DAFD80490EF02BFE0EF0EFFF33884E
:1016300018443080B6F90030B4F82E21B3F5FA7FA3
:10164000A8BF4FF4FA7323EAE37333803B441BB221
:101650009342B4F82A1103DB8B42B4BF1A460A4600
:10166000724BA3F814216C4A6A4BD17809B91179ED
:1016700021B1927A52B1684A927C3AB9DDF8189059
:101680000022A5F814915A801A809A80684AB5F809
:101690001411D180998893880B44938004E05D4BAA
:1016A00000221A805A809A80604B06221A70049891
:1016B00006F056FFF3E35F4BDB6898475E4B93F809
:1016C0000080B8F1030F14D9594BB4F94611B3F99E
:1016D00004006FF063030028B8BF40421B1A994210
:1016E00004DB00F164038B42A8BF0B46A4F846312B
:1016F0000BE0B8F1010F08D8504B5A791946013A5E
:10170000D2B2172A00F2D481A3E04148B4F844A130
:1017100090F90E11B4F842B1B4F9464149424C4334
:101720003D49434B0A7C90F81E01897ACDF810A000
:10173000DE88B3F804A0424D0694CDF814B00792A9
:101740000890099100244445D6D230B20EF044FDF1
:10175000296883460EF094FD049B844618B2CDF8A8
:101760000CC00EF039FDA9680EF08AFDDDF80CC042
:10177000014660460EF07CFC059A844610B2CDF816
:101780000CC00EF029FD69680EF07AFDDDF80CC082
:10179000014660460EF06CFC84460698CDF80CC0FD
:1017A0000EF01AFDE9680EF06BFDDDF80CC0014685
:1017B00060460EF05DFC0EF029FFDFF88890079B75
:1017C000670029F81400002B40D0089A002A3BD06B
:1017D000099B002B3AD00FFA8AF00EF0FDFC8446EC
:1017E0002046CDF80CC00EF0F3FC4FF07C510EF00B
:1017F0003DFCDDF80CC0014660460EF041FD01469F
:1018000058460EF033FC0EF001FF29F807001DE0EA
:10181000302B00209C1A0020F50C0020741B0020A7
:10182000AC1C0020301B0020CDCCCC3D201800206B
:101830005E1A002084000020142B0020A825002020
:10184000C40B0020162B002027F809600134103546
:1018500079E7012303FA02F2B94B13406BBBD006C0
:1018600040F12681B74BB84893F9BE20B0F9024049
:10187000B0F900005443322294FBF2F4B3F8BC20D8
:10188000A4B211B21129DCBFB04A32F81120B0491C
:1018900022440A8093F9C820B3F8C630504332225C
:1018A00090FBF2F01AB2112AD8BFA84B80B2D8BF71
:1018B00033F8123003444B80FAE0A64B9B7A43B1D5
:1018C000A54B1A88ADF858205A889B88ADF85A2045
:1018D0000AE0A24BB3F84221ADF85820B3F84421F6
:1018E000B3F84631ADF85A20ADF85C309C4B974ABE
:1018F0001B88ADF85E30B1F898311189C91AADF87E
:1019000060105189C91AADF862109189C91AADF8F1
:101910006410D189C91AADF866101188C91AADF8DA
:1019200068105188C91AADF86A109188D288C91A0E
:10193000D31AADF86E30ADF86C1000238449002244
:101940005A520233102BF9D1864B15461B7804935B
:101950001346DDF810A0554500F08F80824E834C71
:101960009119887920B1824F3844007D00287ED0BB
:10197000B05C744E0A2707FB0067B7F8BAE0B7F807
:10198000B86091F904B0C6EB0E06B6B206FB0BFBCD
:10199000642791F801809BFBF7FB4FEA560C91F806
:1019A00003E0CCEB0B0B4FEA48070DF170091FFA6F
:1019B0008BFB91F805A04F44BEF1000F03D137F81F
:1019C000187CE7521BE0E45E37F9187CDFF89C9145
:1019D000BC4209DAA644A64503DB7745B4BF3C46C2
:1019E000744629F803400AE009DDCEEB040EBE453B
:1019F00003DBA645B4BF7746274629F80370DFF816
:101A000044E14FF00A0909FB00EEBEF8C0E091F98D
:101A100002104EFA08F818F0010FDFF850814C4C14
:101A200033F908800FFA8BFB01FB08F14FF06408D3
:101A300091FBF8F10CBF4FF0010E4FF0FF3E5945FE
:101A400034F810701FFA8EFE0CDB4FFA8AFB06FB8F
:101A50000BFB9BFBF8FBCCEB0B0B0FFA8BFB8B45CB
:101A6000A8BF8B460BFB0E7B24F810B000E0E052C1
:101A70000135EDB2023307326BE73E4B314A03F1D9
:101A8000100492F9BE10B3F902500A324D4364219A
:101A900095FBF1F5B2F8B210ADB208B21128DCBF77
:101AA0002A4931F81010294423F8021FA342E8D133
:101AB000314B9A689A4612F0200F224B3BD0B3F874
:101AC000BC00234C02B2112AD8BF20492546D8BFFA
:101AD00031F81200B3F8C61020800AB2112ADCBF18
:101AE0001A4931F812101A4A0C4669802049097ABD
:101AF00009B393F8101193F9C86011F0020F93F92C
:101B0000BE7011493AD0B1F90050B1F902106E43DC
:101B10007F424F434FF0320E96FBFEF66FF03101DD
:101B2000B6B297FBF1F1314497FBFEF708443E440F
:101B30001080344454800F4A024902F1100532E00B
:101B400089209800302B0020741B0020C00D00203D
:101B5000C0000020F50C00205E1A00202018002094
:101B6000162B0020840C0020850C00206819002012
:101B7000201A0020BE000020A8250020B1F9025044
:101B8000B1F900106F434E43322597FBF5F7384407
:101B900096FBF5F510802C44CCE722F8020FAA4200
:101BA00001F10A010CD0B2F90240B1F9B800B1F864
:101BB000BA608442F1DB30B2A042A8BF2046ECE715
:101BC00093F81031590705D49A499B4B0C881B7820
:101BD00001220FE0994B9A4D9E7D0024043EA019EE
:101BE0000134C0B235F8021FE4B201F08EFB042CC0
:101BF000F5D1E9E79A4208D231F9120024B2A042A5
:101C0000A8BF0446A4B20132F4E78E4ABAF84251A2
:101C1000107C291B05908C4889B2B0F90600BAF8EF
:101C2000987106910490DAF808108848BAF840C113
:101C300001F48046B0F9EAB001F010010797B0F95D
:101C4000EC70BAF846010E911FFA8CF1BAF844E133
:101C500008900A9150787E49BAF848819AF8059020
:101C6000BAF89AA15B000D960C901FFA8EF649897E
:101C7000507C0F93CDF800B0CDF824A00B96002334
:101C80000F9EB3426ED022B2AA4208DD059A32B945
:101C9000684A069E33F802A0B24423F802A00D9EC3
:101CA000644A002E36D0DDF810A0DDF81CB0DA450D
:101CB00032F903A015DDC24503DBAA45A8BFAA4639
:101CC00000E0C246B9F1010F22F803A041D1009A09
:101CD00009B2914203DBB942A8BF394618E0009926
:101CE00016E0F24504DB089EB245A8BFB24600E00C
:101CF000F246B9F1010F22F803A02AD109B2B94284
:101D000005DBDDF800A05145A8BF514600E039468B
:101D100089B21EE032F903B0E34503DBAB45A8BF4F
:101D2000AB4600E0E34622F803B002EB030ADDF81D
:101D300010B0099A93450BDA0E9E26B9DDF828B04B
:101D4000AAF800B005E00B98AAF80000012000E016
:101D500000200C9A22B93F4A985A364A98520120DC
:101D600002338DE7354A3A4C364B6181517D5874C8
:101D70001A4600297DD0384E7379013B172B6DD858
:101D8000DFE803F00C6C6C186F6C6C1E6C6C6C6C88
:101D90006C256C6C6C6C6C18256C6C342B4B93F84C
:101DA0000F3113B10020618961E050780028F9D12A
:101DB00001465CE00020218901F0A7FA0120F2E74A
:101DC0000020E18801F0A1FA012021894FE00020E4
:101DD000E18801F09AFA0120218901F096FA0220A7
:101DE000618901F092FA0320A18940E00020E18896
:101DF00001F08BFA0120218901F087FA0220618924
:101E000001F083FA0320A18901F07FFAB368104D35
:101E1000DA072ED50420298801F077FA0520698891
:101E200001F073FA0620A98801F06FFA0720E9890A
:101E30001DE000BF162B0020142B0020AC0B00204F
:101E4000C60D0020F50C0020C00D0020302B002016
:101E5000C00000207A1B0020A8250020B3689B0644
:101E600007D50020218801F050FA6188012001F097
:101E70004CFA00F0FBFD0C4B00221A700FE00B4BEC
:101E80001B6813F0020307D1A2F85630A2F85830AD
:101E9000A2F85A30FEF7D5BD0126FEF7EEBD0020B0
:101EA0001DB0BDE8F08F00BF20180020900B00206F
:101EB00010B58468A36A43B1616809B1206A03E080
:101EC000A26912B1206A0F499847E36ABBB1A168C1
:101ED00011B1206A984712E0626982B1206A0A490A
:101EE000984760B194F824304BB9012384F824302A
:101EF000E36823B12046984708B984F824000020FD
:101F000010BD00BF01980008B923000870B5174C38
:101F1000174D002B0CBF2B46234672B1013A94009B
:101F2000002221FA04F606F00F0601329E5D8518A4
:101F3000043C05F8016CF4D515E089B101251C2499
:101F400021FA04F606F00F0605B126B19D5D855411
:101F50000132002500E00125043C261DF0D102E0FD
:101F6000302303700122104670BD00BF5C8F010852
:101F70006D8F010830B562B1531E013821FA03F4A8
:101F800004F00104303413F1FF3300F8014FF5D2AF
:101F900015E089B101241F2321FA03F505F001059D
:101FA00004B125B1303585540024013200E001240C
:101FB00013F1FF33F0D202E0302303700122104608
:101FC00030BD074B9B788342064B02D8B3F898018B
:101FD0007047184490F88221034B33F82200704771
:101FE000080E0020A8250020E80D0020034B18440F
:101FF00090F88221024B33F822007047A825002078
:10200000F0230020034B184490F88221024B33F850
:1020100022007047A8250020680E0020034B1844BA
:1020200090F88221024B33F812007047A825002057
:102030003C0F002010B5094A094913688C681268E2
:102040009342F8D1074A106811684FF47A725043EE
:10205000001BB0FBF1F002FB030010BD6425002063
:1020600010E000E03C0A0020034B4FF4805208B11E
:102070001A6170475A61704700080140034B4FF4E2
:10208000805208B15A6170471A61704700080140D8
:10209000014B33F810007047C00D002007B50F4BFF
:1020A00002A941F8040D18684368984703680C4A70
:1020B000B3F5967FC8BF4FF0FF330193019B1360C8
:1020C000084B18680DF036FC0022074B0DF0C2FDDE
:1020D0000DF078FF03B05DF804FB00BF2013002073
:1020E0007C000020981F00200000594008B5094BD3
:1020F000B0F5967FC8BF4FF0FF301860064B1868E8
:102100000DF018FC0022054B0DF0A4FD0DF05AFF58
:1021100008BD00BF7C000020981F0020000059402F
:10212000034B184490F88221024B33F81200704799
:10213000A825002060200020014B0D221A70704756
:102140009400002003789B070AD5826C831883F8DB
:102150005811C36B0132B2FBF3F103FB112383640B
:102160007047037813F001030BD0426C036C9A4262
:1021700005D09CBF806B1218D31AD8B270470020CC
:10218000704718467047037810B513F001030446F2
:102190000FD0FFF7E6FF68B1236CE21892F8540005
:1021A000A26BC0B2013A934234BF013300232364CF
:1021B00010BD184610BD826CC06C121A50425041BE
:1021C000704701707047034B00290CBF02210121A9
:1021D000D9617047EC0F00200A4B10B553F820006E
:1021E00000244268138823F001031B041B0C138096
:1021F00083681C800368198013889BB243F0010335
:10220000138010BD140D0020024B53F820301B68C2
:1022100019807047140D0020074BA1F57A7153F80F
:1022200020304FF47A701A689B894B4393FBF0F38C
:102230009BB21380704700BF140D0020012070472F
:1022400001207047054A064B128808B11A6100E068
:102250005A61044B00221A70704700BFA42200206C
:10226000000C01408024002008B502F100620846FD
:1022700002F5F8311A460DF077F8012008BDC28A40
:10228000838A934224BF01895218D31A9BB2581EE5
:1022900080B27047426B08B512B15368984708BDC9
:1022A000C069FFF7ECFFC0B208BD828AC38A9A42B8
:1022B0003CBF00891218D31A98B2704738B50D4642
:1022C0000446FFF7F2FF854202D3A38AE38238BDBA
:1022D000E38A1D44238995FBF3F203FB1255E58243
:1022E00038BD70B503790446C3F34103012B0D4695
:1022F00006D0022B33D1FFF7D8FF628B134618E0CC
:10230000C38A808A0022834229D02169CE5CA17EC3
:102310008E4201D1AA421FD8218901339BB28B4240
:1023200028BFC1EB030302F1010228BF9BB292B2A6
:10233000E9E79D4202D913449BB2FAE7834208D2EF
:10234000E28A134422899BB29342E38205D39B1A0B
:1023500002E0854203D8A38AE382012070BD0020F9
:1023600070BD70B5154604460E46FFF788FF8542DE
:1023700001D800230AE0291A89B22046FFF7B1FFED
:102380000028F6D10B4B04221A7070BD9AB2AA42F3
:102390000ED2F05CA18A226901335054A28A2189AD
:1023A000013292B29142A2829CBF0022A282EDE74A
:1023B000012070BD6C2C002070B545690E46284682
:1023C0001446FFF75CFF08B9002070BDA04238BF7B
:1023D0000446A4B2284631462246FFF7C2FF002831
:1023E000F2D0204670BD70B5858A03890135ADB243
:1023F000AB4298BF0025C38A0446AB420E4607D1C4
:102400000121FFF76EFF18B9044B04221A7070BD4A
:10241000A28A236901209E54A58270BD6C2C0020E5
:102420000346406910B588B102685A611A690260B2
:1024300002B150609A6800F10804013218619A6094
:10244000204600211A6814F009FB204610BD10B583
:1024500011E90C00A1F108040BB11A6000E002615F
:1024600051F8082C02B15360436941F8083C00233D
:1024700041F8043C83684461013B836010BD09B1AD
:102480001030E4E77047002330B5054618469AB28D
:102490008A4217D2EA5C80EA0220082210F4004F38
:1024A0004FEA400418BF84F4815002F1FF3218BF94
:1024B00080F0010092B214BF80B2A0B2002AEDD128
:1024C0000133E4E730BDF0B585B001AF0D460646F7
:1024D0001446384600210B2214F0C0FA65B30022DE
:1024E000531C092D99B209D90A20B5FBF0F100FB64
:1024F00011503030B8540D461A46F1E704A8024492
:10250000303502F80C5C14B1A14203D300242644F8
:102510001A4609E0641AA4B2002291B28C42F6D0A5
:102520003021B1540132F8E7013AB95C06F8011BD9
:10253000002AF9D118190AE0284601303318302250
:1025400003F8012C1CB1013CA4B2002CF5D105B05C
:10255000F0BD2DE9F74F07460E469046002498F847
:102560000030002B00F0F980252B40F0F180002393
:102570001D4618F8012F642A3AD017D8392A06D8F0
:10258000302A25D2252A40F0E5803A55E1E0622A3A
:1025900025D000F2D980582A40F0DC803268381902
:1025A000131D3360116801232A4650E06C2A01D1C3
:1025B0000123DEE704D8662A4CD0692A18D0C9E086
:1025C000752A2DD0782A35D0732A40F0C3809EE03A
:1025D0000A214D43303AADB21544ADB2C9E7326875
:1025E0003819131D116833602A46FFF7C3FC1FE03A
:1025F00032681168131D0029336008DA2D2304F1B5
:1026000001093B5549421DB1013DADB200E0A14673
:1026100007EB09002A46FFF756FF09EB000499E093
:1026200032683819131D116833602A46FFF74BFFD3
:1026300004448FE0326838192BB1131D33601168E0
:1026400000232A4603E0111D316011682A46FFF776
:102650005DFCEDE7336807EB0409073323F007035C
:1026600003F10802D3F804A032601A6851460192BF
:102670001046002300220DF035FC30B12D233B55D0
:102680000AF1004A4FF0010B00E0834651460198E1
:102690000DF078FC0346194609EB0B00002200936D
:1026A000FFF711FF584480B22E2209F80020009B4A
:1026B00000F1010B18460DF02DF902460B4601986A
:1026C00051460CF0E9FF1FFA8BFB002D08BF0625D1
:1026D00002460B464FF0000A104619460022214BD5
:1026E0000DF08EF90AF1010A1FFA8AFAAA4502468C
:1026F0000B46F1D10DF046FCD944014652464846FE
:10270000FFF7E1FE58441FFA80FB5C4422E0336887
:102710001A1D3260D3F80090B9F1000F1AD0484664
:1027200014F020FB03197E2B054607EB040003D8A9
:10273000494614F0B9FA05E0C4F17F0549462A4636
:1027400014F06AFB2C4405E033681A1D1B683260E4
:102750003B55013408F1010801E73B5503B0BDE8E2
:10276000F08F00BF000024400EB403B503AB53F854
:10277000042B02A941F8043DFFF7EBFE02B05DF81F
:1027800004EB03B0704770B5054C054623689847C5
:10279000064623689847801B80B2A842F9D370BDD3
:1027A00074090020034B19681A68521A92B28242C7
:1027B000FAD3704768250020013A2DE9F8430C460A
:1027C000072A30D8DFE802F004080C12191E22266E
:1027D00003880B8043880DE043880B80038803E067
:1027E00003885B420B8043885B4203E043885B4283
:1027F0000B8003886380838814E003885B420B802E
:1028000043880CE043880B80038808E003880B8032
:10281000438803E043885B420B8003885B4263800C
:1028200083885B42A380304B1B78002B5AD1B4F9CC
:1028300000000DF0D1FC8046B4F902000DF0CCFC94
:102840000746B4F904000DF0C7FC284D0646296878
:1028500040460DF015FDE968814638460DF010FD43
:10286000014648460DF004FCA969814630460DF04A
:1028700007FD014648460DF0FBFB10F0E9FA6968D8
:10288000208040460DF0FCFC2969814638460DF059
:10289000F7FC014648460DF0EBFBE96981463046FE
:1028A0000DF0EEFC014648460DF0E2FB10F0D0FAC8
:1028B000A968608040460DF0E3FC696980463846AF
:1028C0000DF0DEFC014640460DF0D2FB296A0746BA
:1028D00030460DF0D5FC014638460DF0C9FB10F02E
:1028E000B7FAA080BDE8F88317000020940A002002
:1028F00008B5436B0BB15B69984708BD426B08B5DF
:1029000012B1D368984702E0426804309047012032
:1029100008BD034BDA6882F01002DA60704700BF2E
:10292000000C0140024BDA6882F00802DA6070475E
:10293000000C014008B5024B1B68984708BD00BF5A
:10294000702C002009B1012000E00846F2E72DE9D3
:10295000F0410F88002347FA03F2D2072BD58A787B
:1029600003F0070512F0100F18BF91F803C002F032
:102970000F0618BF46EA0C06AD004FF00F0C0CFA1C
:1029800005FC06FA05F5DC0850F82480282A28EA18
:102990000C0C45EA0C0540F8245005D101229A4060
:1029A000C46824EA020205E0482A04D101229A40C0
:1029B000C4682243C2600133102BCCD1BDE8F08142
:1029C00003680A0A197003685A7003680A0C9A703F
:1029D0000368090ED9700368043303607047036805
:1029E0001970036809125970036802330360704755
:1029F00003681970036801330360704703681A782D
:102A00005978043302EB0122036090B270470368E7
:102A1000597813F8022B02EB0122036090B2704741
:102A200038B500240E4D21460E4870222C7014F04B
:102A300015F821460C4B0B4493F9D2207AB1094882
:102A400053F8D04F0A180C5098889B79073193712E
:102A50002B78702903F1010390802B70EAD138BDE7
:102A6000840C0020850C0020A825002010B500242F
:102A7000094B1B78A3420DD9084B33F81410084BAF
:102A80001B78A34203D9074B20461B6898470134A3
:102A9000E4B2EDE710BD00BF142B0020162B002080
:102AA000130D0020BC0D00202DE9F04F0C68836849
:102AB00089B0D0F800A0D0F80480064620460393E1
:102AC0008B4610F08FF90746204610F0FFF9DBF82F
:102AD00004408146204610F085F90546204610F056
:102AE000F5F9DBF8082004461046019210F07AF957
:102AF000019A8346104610F0E9F93946029058468B
:102B00000DF0BEFB3946049002980DF0B9FB594612
:102B1000059048460DF0B4FB0299069048460DF02A
:102B2000AFFB2946079058460DF0AAFB01465046D8
:102B30000DF0A6FB2146834606980DF0A1FB014649
:102B400005980DF095FA014640460DF099FB0146B7
:102B500058460DF08DFA2146834604980DF090FBFF
:102B6000014607980DF082FA014603980DF088FBA4
:102B7000014658460DF07CFA3060029905F100409C
:102B80000DF07EFB014650460DF07AFB2146834650
:102B900007980DF075FB014604980DF067FA0146A1
:102BA00040460DF06DFB014658460DF061FA214696
:102BB000834605980DF064FB014606980DF058FA1F
:102BC000014603980DF05CFB014658460DF050FAA3
:102BD0002146706050460DF053FB2946044609F12A
:102BE00000400DF04DFB014640460DF049FB01460B
:102BF00020460DF03DFA3946044628460DF040FBCC
:102C0000014603980DF03CFB014620460DF030FADA
:102C1000B06009B0BDE8F08F2DE9F84F384E04469A
:102C20003768384610F0DEF80546384610F04EF9A1
:102C300076688046304610F0D5F88346304610F06E
:102C400045F9D4F804900646294648460DF018FB8D
:102C5000A7688246414638460DF012FB01465046B1
:102C60000DF004FA2168824658460DF009FB4146F2
:102C7000044648460DF004FB31460DF001FB0146C9
:102C800020460DF0F5F93146044638460DF0F8FAC5
:102C900029460DF0F5FA014620460DF0E9F9014606
:102CA000504610F0A3F917490DF0EAFA0CF054FE63
:102CB00011A3D3E900230CF0CDFF134B0446986D0C
:102CC0000D460CF049FE02460B46204629460CF004
:102CD000E5FC00220D4B0CF0BDFF0DF073F910F078
:102CE000B7F883B2190444BF00F5B4739BB218B2AD
:102CF000BDE8F88FAFF30080182D4454FB21094044
:102D0000BC1800200000E144300B002000002440EB
:102D100080EAE073A3EBE0738B4206DB002801DD61
:102D2000401A704702D0084470470020704770B5C1
:102D30000546441E14F8011F61B1074E304613F0DA
:102D400039FF0028F6D0861B0448631B304480F806
:102D50008231EFE770BD00BF9B9D0108A8250020D0
:102D600070B540F26C55284613F0B6FB044660B3CC
:102D7000174E4C213068C3699847024610B330683B
:102D80002146066A2B46B047E0B123784C2B19D177
:102D90006388AB4216D12379BE2B13D194F86A35E0
:102DA000EF2B0FD100231A4640F26C518B4203D017
:102DB000E15C01334A40F7E722B9204613F094FB67
:102DC000012070BD204613F08FFB002070BD00BFB6
:102DD000380A0020024B1A6810431860704700BF81
:102DE000900B00202DE9F04102780346202A00F1E3
:102DF0000100F9D0092AF7D02D2A02D10346414D0E
:102E000004E02B2A08BF03464FF07E551E460024DF
:102E1000334616F8012BA2F13007F9B209290DD873
:102E2000394920460DF02CFA044638460DF0D4F905
:102E3000014620460DF01CF90446E9E72E2A17D179
:102E4000314F334616F8010B3038C2B2092A0FD879
:102E50000DF0C2F939460DF0C7FA014620460DF0D3
:102E600007F92949044638460DF00AFA0746E8E70B
:102E70001A7802F0DF02452A38D15A782D2A02D179
:102E80000233012604E02B2A14BF0133023300264B
:102E9000013B002713F8012F303AD1B2092903D89A
:102EA0000A2101FB0727F5E7B7F59A7F28BF4FF402
:102EB0009A77B8464FF07E51B8F1070F07D9084608
:102EC00012490DF0DDF9A8F108080146F4E707F012
:102ED000070737B108460C490DF0D2F9013F01460A
:102EE000F7E72EB120460DF07FFA04E04FF07E5157
:102EF00020460DF0C5F9014628460DF0C1F9BDE8A0
:102F0000F08100BF000080BF0000204120BCBE4C0B
:102F100070B50646B6FBF2F40846154614B12046D5
:102F2000FFF7F6FF05FB1464024B1B5D00F8013B45
:102F300070BD00BF7E8F010890F85B3210B57BB981
:102F400090F85A3290F85922934209D201219940BF
:102F5000B0F8604201332143A0F86012DBB2F3E71E
:102F600010BD90F862321BB1D1F1010138BF0021D0
:102F7000D0F854315A689B6809B1136170475361A6
:102F80007047F8B5101A0C461F460DF025F9054696
:102F9000381B0DF021F9184B079E19680DF070F9D8
:102FA0002946044628460DF06BF92146074620467F
:102FB0000DF066F9014638460DF05AF810F0B6F9F2
:102FC0000E490DF05DF90DF021FB069B21461860BE
:102FD00005F1004010F00AF809490DF051F90949CE
:102FE0000DF046F80DF012FB0028BCBF00F50C40B8
:102FF000A0303060F8BD00BF9C0000202C7D8E3FCB
:10300000A00CB34500A00C4610B50DF0E5F800216A
:1030100004460DF0F1FA08B1204601E004F1004049
:1030200005490DF0E1F905490DF02AF90FF0DAFE36
:10303000034B186010BD00BF8096184B35FA8E3CCC
:103040009C00002038B50C4DEB7AA3B10B4B1B78DC
:10305000042B10D90A4B0B4C18685B682060636026
:10306000FFF7D2FF084B1A88084B1A80084B1B88C1
:10307000A36001232B7338BDF50C0020AD24002084
:10308000941A0020781A0020421A002056210020AD
:10309000901A002044F25063984203DDA0F50C40E2
:1030A000A0387047034B9842BCBF00F50C40A030DD
:1030B000704700BFB0B9FFFF70B52D4C2D4D607942
:1030C0000DF086F82C490DF08FF92860E07B0DF0AB
:1030D0007FF829490DF088F9284E6860EE60A079E4
:1030E0000DF076F826490DF07FF9264D2860207CFA
:1030F0000DF06EF820490DF077F96860A07E0DF0B4
:1031000067F821490DF070F9EE60A860E0790DF0E4
:103110005FF81B490DF068F91C4D2860607C0DF0CC
:1031200057F815490DF060F96860E07E0DF050F831
:1031300015490DF059F9164BA8601B7CEE60ABB138
:1031400020790DF045F80E490DF04EF9114D28602B
:10315000A07B0DF03DF808490DF046F96860207E2F
:103160000DF036F808490DF03FF9A86070BD00BFBA
:10317000302B0020282100200000C8420000FA4423
:10318000000020413821002000007A44501900201E
:10319000F50C00203C1900202DE9F0472F4A0023B0
:1031A00092F82050D47F03FB03F01938684300F6EF
:1031B000C4105843604340F6C41190FBF1F0284915
:1031C00021F813000133072BEDD192F82110254B84
:1031D0000A274F43B3F84051B3F8429192F8226066
:1031E000C1F1640C48425FFA8CFCC6F16408C5EB7F
:1031F000090980B2002384B222B2002A04DC002C28
:1032000014BF0C46012400E0644602FB02FA64434A
:103210000AFB06FA9AFBF4F4444454434FF00A0ABA
:1032200094FBFAF43C4424B204FB09F44FF47A72A0
:1032300094FBF2F40C4A2C449C5202335044182B59
:1032400080B2D8D1054BBDE8F0471B78012B18BFE1
:10325000064A074B08BF074A1A602DE7302B0020AB
:10326000EC180020A82500200419002049E20008DD
:1032700090000020B5E400080449054B09680022CD
:1032800018701A615961DA601A7670476825002053
:10329000EC0F00200A4B1B7883B10A4B9A89988166
:1032A0001A89D007FCD5074B9889C0B2054B1A89FB
:1032B0009107FBD51A891206FCD47047184670474F
:1032C0004E0A002000380040054B1B7833B1054BF7
:1032D0004FF4805208B15A6170471A61704700BFBD
:1032E0004E0A0020000C014038B5044601200D466E
:1032F000FFF7EAFF2046FFF7CDFF2846FFF7CAFF9A
:103300000020FFF7E1FF012038BD054B1B78834209
:1033100004D9044B53F820301B681980704700BF54
:10332000440D0020480D002003280E4B09D80E4AFA
:1033300012888A4205D2012202FA00F01A7810435C
:1033400018701B780F2B0BD1064B00221A70074BFD
:10335000198808B2142802DD1439198070471A80C0
:10336000704700BF881900207A0000203C1A002016
:103370002DE9F04FAE4E85B0B368AE4F13F008089C
:1033800003D1AD4C4546A14631E0002439E0AB4BBA
:10339000E8B21B689847A0F2EE2240F2DC5392B2EA
:1033A0009A4288BFA24BD9F8902088BFB3F8980101
:1033B000A34B1340002B03DA013B63F003030133FB
:1033C0009D4A03EB850322F81300228863880135A8
:1033D0001344A2880834134434F8022C13441BB25B
:1033E000042293FBF2F327F8083008F1020896F85C
:1033F000AA319D42CBDBD9F890300133C9F8903027
:103400000BE096F8AA319C4207DA8C4BE0B21B68BD
:10341000984727F814000134F3E7B368864C13F497
:10342000804F04D094F894300BB90AF0EFFB96F873
:10343000A1217F4BE2B1033237F91200B3F8A25158
:10344000B0F57A7003D4A842A8BF284600E0002057
:103450000CF0C2FE804628460CF0BAFE01464046FB
:103460000CF0C2FF77490CF00BFF0DF0F5F814E0FB
:1034700093F8A40190B1744AD179744A32F81120BA
:10348000B3F8A81192B2521A9002B3F8A631801A7A
:1034900090FBF3F000B280F30A0080B2B368A4F8A6
:1034A000AE0013F4024F63D0634B694DB3F8B09094
:1034B00095F80831052253430FFA89F898453ADD0B
:1034C000644B5A789B46002A35D0594BB3F8983153
:1034D0003B807B80BB80B5F80A31FB805E4B1A785D
:1034E0009A46032A05D95D4803F032FC03238AF883
:1034F000003095F8082195F809311344052253430B
:10350000984513DD9BF812B0BBF1000F0ED10AF005
:103510007DFB504B83F800B09AF80030042B05D99E
:103520004F4803F015FC4C4B04221A70B4F8B2302B
:103530000133A4F8B23095F8083105225343984579
:1035400012DD444D95F80180B8F1000F0CD10AF05E
:103550005DFB85F80080404D2B78042B04D9404852
:1035600003F0F6FB04232B7009F10109A4F8B090D5
:103570000022B6F89A11B6F89C511346B85E9B0823
:103580008842C4BF63F07F03DBB20232A842B8BFF7
:1035900043F04003082AF1D194F8B400264A984237
:1035A00005D192F8B500F92804D8013000E00020D8
:1035B00082F8B50084F8B430B3681D4A13F480482B
:1035C000234DB7F906300AD0B2F89811B2F84C2161
:1035D000881A834206DD0A44934206DB02E08B42EE
:1035E00003DB17E04FF0000814E00023C4F8C431F7
:1035F000C4F8C831C4F8CC31C4F8C030C4F8C43001
:10360000EB6C2BB10C4B93F89430002B40F07C8387
:103610004FF00108EB6C43B394F894302BBB0D4B87
:103620005B7813B396F89F31E3B10AF0EFFA1CE030
:10363000A8250020C00D00208C190020E40D0020DA
:103640000300008000C07F44800A0020880A002018
:10365000302B0020F50C002094000020807E010813
:10366000937E0108B8F1000FDFD194F8B5208C4BA0
:10367000142A40F0A6808B4A50789146C0B1EA6C7B
:103680002AB993F8B4305F2B01D10AF0BFFA96F84B
:103690009E31002B00F09580EB6C002B40F0918068
:1036A00094F8B4307D2B40F08C800AF0AFFA88E0BB
:1036B00093F8B420572A15D17B4B4FF47A721A80B5
:1036C000B368DB0501D5FFF7BDFC784B1B685807D5
:1036D00002D5774A0A21118013F0080334D1A4F8E7
:1036E000B63031E0B168490725D55A2A23D193F87D
:1036F000B8202AB1012283F8B80083F8B92023E06A
:1037000093F8BA20DFF8C0A182F0010283F8BA2052
:103710009AF8003032B10A2B16D9664803F018FB2C
:103720000A2305E00B2B0FD9634803F011FB0B2391
:103730008AF8003008E05D2A00F0EE825B2A00F093
:10374000ED825E2A00F0EC82EB6C33B994F8B42081
:103750006F2A02D10AF010FA15E096F89E2122B1E4
:103760001BB994F8B4307E2BF4D094F8B430972B76
:1037700004D1524B4FF4C8721A8004E0A72B04BF47
:10378000012389F80E3094F8B430BB2B02D1EB8DB5
:10379000023303E0B72B03D1EB8D023BEB8509E04D
:1037A000BE2B02D1AB8D023303E0BD2B09D1AB8D13
:1037B000023BAB850120014602F05FFA002384F84A
:1037C000B530B068420731D594F8BA20344B8AB18D
:1037D000344A527872B13A4AB7F90610B2F89A21CF
:1037E000914207DD93F8942022B93221A3F8BC104E
:1037F00083F8BA2094F8A520294B62B193F8BE2033
:103800002AB993F8B82012B93222A3F8BC200123B8
:1038100084F8BE300AE093F8B8203AB1214A5278D1
:1038200022B983F8B820012283F8B920254B002162
:1038300093F8149001220B464B4547DA07EB4305FA
:103840002D8940F2A46A0FFA85FCD44502F1010BE0
:10385000D4BF4FF0000A4FF0010A0AFA0BFA40F207
:10386000135BDC454FF0030B0BFB03FBA5F2155577
:10387000ADB2CCBF4FF0000C4FF0010CB5F5C77FD7
:103880000CFA0BFC8CBF0025012595404AEA0C0C74
:103890004CEA050C41EA0C0101330332CCE700BFCE
:1038A0008C190020F50C0020FE170020900B002042
:1038B00000180020967E01089B7E01086E2C0020D7
:1038C000A8250020AC0B00209400002000239D4D73
:1038D0009D4A05EB8309D9F84C9002F1940C11EA4A
:1038E000090F0CBF4FF000094FF0010903F80C90CD
:1038F0000133192BA946EAD192F8AC30934D2B75C0
:1039000023B1012382F89F3082F8963094F89530E5
:103910008F4A53B98C4B4FF0050CB3F9B01099F89E
:1039200008310CFB03F399421DDD11688B071AD592
:10393000EB7843B9C4F8C030C4F8C430834B4FF0BF
:10394000010C83F803C0000410D599F808314FF03A
:10395000050C0CFB03F3B4F9B000984206DD8906B0
:1039600004D5012301E00023EB70AB7494F896308A
:1039700075495BB10023EB702B7943B9C1F8C030B6
:10398000C1F8C430714B0121197100E02B7194F81A
:1039900094300BB901232B7095F803C06D4BBCF12B
:1039A000000F02D16949097911B11021596101E073
:1039B0001021196111684B0725D594F89720624BA7
:1039C0009AB1A87990B9614A4FF0010A82F806A02D
:1039D000D3F8CC20C3F8DC00C3F8C820B3F8D82053
:1039E000C3F8E000A3F8D02000E0AA71B3689804FF
:1039F00009D594F898302BB1EB7B23B9534B0122B6
:103A0000DA7300E0EB7311F00A0F20D094F89930CC
:103A10004D4A4BB16B7943B94C4B01205871B2F808
:103A2000B630A2F8E43000E06B7194F89A302BB114
:103A30006B7A23B9454B01225A7200E06B7294F8FD
:103A40009B20414B1AB1B3F8B620A3F8E6208906B3
:103A500040F1F280EA7A3D4B002A00F0E8803E4ACD
:103A60001278042A40F2E38094F9E82032B11A79FE
:103A700022B9BCF1000F01D10122DA7094F89E2026
:103A8000314BDFF8DCA01AB9AA7CDFF8C0B0CAB1AC
:103A9000EB79DFF8B8B0002B40F0B7802F48012257
:103AA000011D8BF808308AF801308BF8072001924D
:103AB00006F0C6FC022384F8E830B4F80431C4F8F8
:103AC00000313BE08BF8072093F89F20002A49D073
:103AD000B3F9D210B9F81C210029B8BF494291426C
:103AE00040DAB3F9D4100029B8BF4942914239DA1B
:103AF0009BF80820002A40F08880D3F808114FF086
:103B0000010CC3F8F810D3F80C1103F1F800C3F856
:103B1000FC1003F1FC018BF808C08AF80120039324
:103B2000CDF808C0019206F08BFC039BDDF808C0BD
:103B3000B3F8041183F8E8C0C3F80011019A8BF8B8
:103B4000132062E0302B00208C190020F50C00209F
:103B5000900B0020000C0140AD240020781A0020BA
:103B6000940000209AF8011000232B7200294CD1F8
:103B7000764B01225A708C46754B002203F58870F3
:103B80002CF8002003F58B702CF8002003F58D70C5
:103B90002CF8002003F5907B002041F80B008B44AB
:103BA000CBF80420CBF8080003F5A47B41F80B0008
:103BB0008B44CBF80420CBF808000CF1020C03F581
:103BC000B87B41F80B00BCF1040F8B44CBF8042008
:103BD000CBF8080001F11401CED1297C11B90023E2
:103BE000EB7412E0C3F89801C3F89C01A3F8A0217C
:103BF000A3F8A221A3F8A4215649002353520C3163
:103C0000535202320A2AF7D1E9E79AF800300C2B16
:103C100012D994F8BE317BB94F4803F099F84B4B59
:103C20000C221A704A4B012283F8BE2104E00023C3
:103C3000EB712B7284F8E83094F8A0302BB1AB7C98
:103C40001BB9464B01229A7201E00023AB72297C1A
:103C5000424B31B3B26800209205587221D599F8D1
:103C600008214FF0060909FB02F2B4F9B0C09445EF
:103C700017DD0122DA703A4A9872B2F8980182B2DE
:103C80003A807A80BA80374AB2F80A21FA80DA7A22
:103C90003AB9354F3F78052F03D89A74334B3238F1
:103CA0001880B2682E4BD2064BD56A78002A48D0CD
:103CB000002946D1B8F1000F1FD02D49D4F8C021FA
:103CC00009684AB993F876314FF47A7202FB03120D
:103CD0001F4BC3F8C02106E08A4204D293F8763124
:103CE0000BB109F093FF194C2378092B29D92148EE
:103CF00003F02EF80923237023E0D4F8C03103B376
:103D0000134BC3F8C0811CE0144B1B78002B3FF40D
:103D10007FAC09F031FF7BE4012202E0022200E0E7
:103D200003225FFA82FA00200AF1FF33014686F887
:103D3000683501F0A2FF02202821524601F07CFFE5
:103D400002E5002005B0BDE8F08F00BF9400002020
:103D50008C190020321B0020A27E0108F50C0020E7
:103D6000A8250020302B0020AD240020C00D00200D
:103D700068250020937E01082DE9F14F0489C04B8E
:103D8000D822A4F5887402FB04344A6804F154076D
:103D90002265C4F8D4700B780646772B0D4600F0E8
:103DA0006E8200F285816A2B00F0188500F2AA80ED
:103DB000452B01F0F5801FD8422B01F07A800CD8FA
:103DC000402B01F0CC80412B41F0078100221346AB
:103DD00006F0E6FA002301F0D7B8432B00F0F9878C
:103DE000442B41F0FA800022134606F0D9FAA54B85
:103DF00001221A7001F005B9662B00F0908378D883
:103E0000642B00F05A83652B41F0E7809E4BD4343D
:103E1000B3F900102046FEF7E2FD9C4B2046B3F9B3
:103E20000010FEF7DCFD9A4B20461B68C3F3C0016F
:103E3000C3F38002890041EA4201C3F34002114307
:103E4000C3F3401241EAC20103F010031943FEF725
:103E5000C6FD904A92F804E0D3784FEA8E0E4EEAFF
:103E6000430E53784EEA030E93794EEAC30E53790C
:103E70004EEA431E537A4EEA831E874BD9794EEAA7
:103E8000C11E197A4EEA012E597A4EEA412ED17995
:103E90004EEA812E117A4EEAC12E117D927A4EEAB7
:103EA000016E4EEA023E5A7B00214EEA423E9A7B68
:103EB0004EEA823E1A7C4EEA024E1A794EEA021E01
:103EC0005A7C4EEA424E9A7C4EEA824EDA7C4EEAA8
:103ED000C24E1A7D4EEA025E5A7D4EEA425E9A7DDD
:103EE000DB7D4EEA825E4EEAC35E6C4B18780B4671
:103EF000F6E2682B01F0788040F2BA854FF00008B6
:103F000000F05FBC702B00F0F98447D86D2B00F0F7
:103F1000A88416D86B2B00F08B846C2B41F05D804D
:103F2000DFF88881D4342046B8F90010FEF757FD39
:103F30002046B8F90210FEF752FD2046584B00F01B
:103F400098BC6E2B00F09E846F2B41F0468004F1EC
:103F5000D408544C4046E17FFEF74AFD404694F8B1
:103F60002010FEF745FD404694F82310FEF740FD73
:103F7000404694F82510FEF73BFD404694F8261085
:103F8000FEF736FD404694F82110FEF731FD40461D
:103F900094F82210FEF72CFD00F0ABBC732B00F060
:103FA000778561D8712B00F06F81722B41F01580FD
:103FB000DFF8F480D4342046B8F99811FEF70FFDED
:103FC0002046B8F94011FEF70AFDDFF8D8902046E8
:103FD000B8F94211FEF703FD2046B8F94411FEF787
:103FE000FEFC2046B9F90A11FEF7F9FC204698F8C4
:103FF000AB11FEF7FDFC204698F8AC11FEF7F8FC7B
:10400000204698F8AD11FEF7F3FC204698F87C1195
:10401000FEF7EEFC204698F8A111FEF7E9FC2046D9
:104020000021FEF7E5FCB9F92A100A2391FBF3F110
:104030002046FEF7D4FC204698F87D11FEF7D8FC08
:10404000204698F87F11FEF7D3FC204698F87E11A1
:10405000FEF7CEFC204698F88011FEF7C9FC3046EA
:1040600029463A4616233AE1752B00F00B8100F2FF
:1040700021854FF0000A4FF0010800F090BC00BF0E
:10408000E01C0020F41E00207A2C0020500A0020A2
:10409000900B0020F50C0020201A00208522002023
:1040A000421A0020302B0020A8250020741B00207D
:1040B000CF2B00F0838100F29880C82B00F0E780BE
:1040C00061D8A02B00F0B98555D8782B00F0658217
:1040D0007B2B40F08287AA4BD434DFF8AC8293F874
:1040E000A0112046FEF784FC2046B8F92011FEF707
:1040F00076FC2046B8F92211FEF771FC2046B8F98B
:104100002411FEF76CFC2046B8F92611FEF767FC77
:104110002046B8F92A11FEF762FC2046B8F92C11A6
:10412000FEF75DFC2046B8F92E11FEF758FC20463C
:10413000B8F93011FEF753FC204698F83211FEF71B
:104140003FFC204698F83611FEF752FC204600212D
:10415000FEF736FC20460021FEF732FC2046002107
:10416000FEF72EFC20460021FEF72AFC30462946A9
:104170003A462623B3E0A42B00F07485A62B00F06A
:10418000DB8500F02ABFCB2B77D009D8C92B00F0F4
:10419000AB80CA2B40F021877A4B03F10A00C9E0BB
:1041A000CD2B00F00D8500F21685134613F8011B88
:1041B000101D2365744BD977517883F82010D11CDA
:1041C0002165D178206583F825101179501D20656F
:1041D00083F826105179901D206583F8211091797C
:1041E0000732226583F8221075E0D82B00F09B82FD
:1041F00017D8D22B00F0488107D8D02B00F0D684F6
:10420000D12B00F08B8400F0E8BED42B00F0ED81C0
:10421000C0F04C81D62B08BF002700F02B8100F0A6
:10422000DCBEF12B00F0098216D8EF2B49D0F02B21
:1042300040F0D38604F1D408534C4046B4F92E1014
:10424000FEF7CDFB4046B4F92C10FEF7C8FB304614
:1042500029463A46042342E0FA2B00F0C584FE2B9F
:1042600000F0CD84F22B40F0B8860022134606F011
:1042700097F8434A02F1700028E200276EE04FF001
:104280000008C0E3414A57E34FF0000863E300270A
:1042900004F15000FEF7BBFB3D4BD8530237102F03
:1042A000F6D1002213463046294606F079F8394BFC
:1042B00000221A80384B186801B0BDE8F04F04F0B6
:1042C0004FB950342046FEF7A2FB2F4FF885204609
:1042D000FEF79DFBB885002230462946134601B003
:1042E000BDE8F04F06F05CB8134613F8011B02322C
:1042F00023652A4B2A4FD97212F8011C294B44F826
:10430000502F20461970FEF779FB38602046FEF7E3
:1043100075FB78602046FEF77AFB234B1880204619
:10432000FEF775FB214B1880214B1A7942F00202EF
:104330001A71D0E7226D0133114611F8017B8342D7
:1043400021655F70517802F102072765D972917873
:1043500002F1030222655975ECD1BCE7154B1B78BD
:104360009F42B8D2144B04F1500017F80380FEF7B7
:104370004EFB054B013703EB8803D864EEE700BF23
:10438000A82500202F2B0020302B0020C77E0108FD
:10439000C00D00203C1A00200C0D0020F50C002060
:1043A000941A0020AD240020901A0020AC1C00209C
:1043B000741B0020852200206C22002004F150088C
:1043C0004046FEF724FB6FF4AF63B54FC318C62B0E
:1043D00098BFA7F898014046FEF719FBA7F84001DF
:1043E0004046FEF714FBA7F842014046FEF70FFBDC
:1043F000A7F844014046FEF70AFBDFF8C892236D98
:10440000A9F80A011A4612F8011B4046226587F8EE
:10441000AB115A78991C216587F8AC219A78D91C80
:10442000216587F8AD21DA78191D216587F87C218F
:104430001A790633236587F8A121FEF7E8FA0A23E3
:104440005843236DA9F82A001A4612F8011B226569
:1044500087F87D115A78991C216587F87F219A7811
:10446000D91C216587F87E21DA780433236587F823
:10447000802130E704F15000FEF7C9FA894BD85388
:104480000237102FF6D126E7874B5B78002B7FF49D
:1044900022AF12F8011B00202265814A022994BF35
:1044A00082F8681582F868350146A4E304F15000EB
:1044B000FEF7ADFA7D4B18800DE7D4342046E72196
:1044C000FEF796FA764B20465979FEF791FA204688
:1044D0000421FEF78DFA20467549FEF771FA08E2CD
:1044E00083420ED2734A13F802C0012202FA0CFC76
:1044F0001CEA0E0F18BF9A4003F1010318BF1143C5
:10450000EEE72046FEF75CFA654B204693F8681507
:10451000FEF76EFA304629463A460B23DFE6664B35
:104520004FF000081B88D434B3F5806FDFF8989102
:104530000FD939F908100823204691FBF3F108F14F
:104540000208FEF74CFAB8F1060FF2D14FF000085E
:104550000AE039F90810204608F10208FEF73FFA90
:10456000B8F1060FF5D1F1E7544B204633F90810A6
:1045700008F10208FEF733FAB8F1060FF4D14FF054
:1045800000084F4B204633F9081008F10208FEF7E7
:1045900026FAB8F1060FF4D1BAE2DFF8288108F163
:1045A000500A04F1D409B8F9B8104846FEF717FAD2
:1045B000B8F9BA104846FEF712FAB8F9BC104846E6
:1045C000FEF70DFA98F8BE104846FEF711FA08F10A
:1045D0000A08B8F9B6104846FEF701FAD045E0D10E
:1045E000304629463A46482379E60022134605F02C
:1045F000D7FE344D05F1500704F150063046FEF762
:1046000006FAA5F8B8003046FEF701FAA5F8BA0098
:104610003046FEF7FCF9236DA5F8BC0013F8012B1A
:10462000304685F8BE202365FEF7F1F90A35A5F876
:10463000B600BD42E0D100F0E4BCDFF8648008F1D0
:10464000700A04F1D40998F8D0104846FEF7D0F962
:1046500098F8D1104846FEF7CBF998F8D2104846A2
:10466000FEF7C6F998F8D3104846FEF7C1F998F856
:10467000D4104846FEF7BCF998F8D5104846FEF726
:10468000B7F908F1070898F8CF104846FEF7B0F9D7
:10469000D045D6D1304629463A4670231FE600BFA2
:1046A000A82500207A1B0020F50C0020701A00209D
:1046B0000C0000C06C22002078000020921B00201B
:1046C000981B0020302B00206E1C0020236D073229
:1046D000194611F8015B216582F8C95059789D1C73
:1046E000256582F8CA109978DD1C256582F8CB1003
:1046F000D9781D1D256582F8CC1019795D1D2565B9
:1047000082F8CD1059799D1D82F8CE1025659979D2
:10471000073382F8CF1082422365D7D101B0BDE8BC
:10472000F04FFEF77DB90022134605F039FE236DE8
:10473000254613F8012BB84E45F8503FB74B284695
:1047400083F8A021FEF763F9A6F820012846FEF7BA
:104750005EF9A6F822012846FEF759F9A6F82401C9
:104760002846FEF754F9A6F826012846FEF74FF929
:10477000A6F82A012846FEF74AF9A6F82C01284691
:10478000FEF745F9A6F82E012846FEF740F9A6F8EF
:1047900030012846FEF732F9236D284613F8012B25
:1047A000236586F83621FEF729F92846FEF726F913
:1047B0002846FEF723F9284601B0BDE8F04FFEF782
:1047C0001DB9974B04F1D40033F9081008F1020821
:1047D000FEF705F9B8F1100FF3D1CFE3914BD434C4
:1047E0002046D97AFEF704F98F4BDFF87C821978DE
:1047F0002046FEF7FDF82046D8F80010FEF7E0F856
:104800002046D8F80410FEF7DBF8884B2046B3F9B1
:104810000010FEF7E4F8864B2046B3F90010FEF7CF
:10482000DEF8844B2046B3F92A10FEF7D8F8CAE226
:10483000814BD434B3F900102046FEF7D0F87F4BFB
:104840002046B3F90010FEF7CAF87A4B20461979D2
:1048500001F00101FEF7CCF8304629463A4605231F
:104860003DE5774BD43420461968FEF7A9F8754B1F
:104870002046B3F90010FEF7B2F8304629463A4612
:1048800006232CE5704BD434B3F90010204681F395
:104890000801C9B2FEF7ACF86C4B4FF6FF78196807
:1048A00020464145A8BF414621EAE17109B2FEF721
:1048B00096F8674B4FF00A091979204609FB01F178
:1048C000FEF78DF8554B93F87C21624B32B11B6893
:1048D000002BB8BF5B4209FB03F103E01968002914
:1048E000B8BF49424145A8BF4146204609B2FEF73C
:1048F00076F8304629463A460723F0E4DFF86C8123
:1049000008F10A0A08F1010804F1D409484698F8A8
:104910000110FEF76DF8484698F80B10FEF768F89E
:10492000484698F81510FEF763F8D045EAD13046AE
:1049300029463A461E23D2E412F8013F33B1D4F897
:10494000D410481CC4F8D4000B70F5E73046294653
:104950003A462F23C3E4404B1B7898450ED23F4B79
:1049600004F1D40018F803202B4B08F1010803EBE5
:104970008203B3F94C10FEF732F8ECE730462946D3
:104980003A465B00ABE4824409F10109324B1B78E3
:10499000994507DBB8F1000F20D04FF000084FF029
:1049A0000009F3E72D4B2E4A19F803300C2101FBC7
:1049B0000323D3F834B0584612F0D4F9B8F1000FFD
:1049C000E1D142468242DFDAD4F8D430591CC4F82F
:1049D000D4101BF8021001321970F3E73046294653
:1049E0003A461FFA8AF37AE40C33B3F5967F08D07F
:1049F0001C4A1A44127A8A42F6D104F1D400FDF717
:104A0000F7FF08F10108144B1B7898453CD2134B73
:104A100018F803100023EBE7302B0020A825002016
:104A2000C00D0020F50C0020AD240020901A0020BD
:104A3000AC1C0020741B0020AE1C0020B01C002009
:104A4000581A0020741C00204C1C0020601C002000
:104A50007C250020541C0020852200206C22002090
:104A6000C87E0108F87E0108941A00202F2B002030
:104A70000023D4F8D420511CC4F8D410B849595C90
:104A80000133102B1170F4D1304629463A4626E402
:104A90004FF001085FFA88F104F1D40008F1010831
:104AA000FDF7A6FFB8F1090FF4D1304629463A4682
:104AB000082314E412F8011B226509B9A94B02E08E
:104AC000102905D1A84BD3F80090D3F8048002E058
:104AD0004FF00008C146D4342046FDF789FF204638
:104AE0004946FDF76DFF20464146FDF769FF9F4BA4
:104AF00020461968FDF764FF20460021FDF76FFF8F
:104B000020460021FDF76BFF20460021FDF770FFD6
:104B1000304629463A461223FFF7E1BB12F8019BC3
:104B2000274647F8502F3846FDF768FF834638463A
:104B3000FDF764FF82463846FDF760FF8046384641
:104B4000FDF765FF3846FDF762FF236D01332365EE
:104B5000B9F1000F12D1834B0122C3F804A0C3F8AE
:104B600000B0834B83F807901A73B8F1000F3FF43D
:104B7000B2AB7E4BC3F80080FFF7ADBBB9F1100FAD
:104B80007FF4A9AB784BC3F800B0C3F804A0B8F128
:104B9000000F02D0754BC3F800807348754B02229A
:104BA000011D1A7005F04CFCFFF795BB704B5B784C
:104BB000002B7FF490AB012001F058F9FFF78BBB7D
:104BC0006B4B5B78002B7FF486AB6B4B4FF4C8725A
:104BD0001A80FFF780BB664B5A78002A7FF47BABC4
:104BE00001229A73FFF777BB614B5B78002B40F093
:104BF000F4810020012101F040F8FFF76CBB5F4B0E
:104C00005F491A6809685F4B4FF00008B2FBF3F286
:104C1000B1FBF3F34FF47A7101FB02335A4A538626
:104C20005A4B04F1D40033F9081008F10208FDF7DB
:104C3000D6FEB8F1080FF3D1A0E104F1D408544C2A
:104C400040462168FDF7BCFE40466168FDF7B8FEAE
:104C50004046A168FDF7B4FE304629463A460C238B
:104C6000FFF73DBBDFF82091D43499F834B02046EB
:104C70005946FDF7BDFE4FF00008D8451ED2DFF8BB
:104C80001CA120461AF80810FDF7B2FE0AF1200315
:104C900013F808102046FDF7ABFE0AF1400313F8A5
:104CA000081020460AF1600AFDF7A2FE1AF8081063
:104CB0002046FDF79DFE08F10108DEE74FEA8B0371
:104CC0000133304629463A4605F06AFB314B93F8EA
:104CD000AB31012B40F095812F4A002392F87840A8
:104CE000104689F83440A34202F1010213DA2B493D
:104CF00092F8785092F888605D5401F120055E5575
:104D000092F8986001F140055E5592F8A850603124
:104D10005D540133E7E7D0F8BC300022C9F8B83061
:104D2000D0F8C0303021C9F8BC300120134601B0A2
:104D3000BDE8F04F01F0A4BA194BD4341B68DFF87A
:104D4000488013F0200920462CD00021FDF738FEC2
:104D5000D8F8BC10D8F8B8302046C91A27E000BFF0
:104D6000C0000020781A0020841A0020541A002065
:104D7000F50C0020741A00206E2C00206C09002015
:104D80007009002040420F00741B0020A01B00206F
:104D900060090020A825002080100020A91B002009
:104DA000900B00204946FDF70BFE20464946FDF7D3
:104DB00007FE2046D8F8C010FDF702FE2046D8F8BE
:104DC000C410FDF7FDFD304629463A461023FFF793
:104DD00086BA0022134605F0E3FA236D264613F83F
:104DE000012B894D46F8503F304600236A71AB6075
:104DF000FDF704FEAB68854F1843236DA86013F8D8
:104E0000012B3046236585F89421FDF700FEA5F8B7
:104E100056013046FDF7FBFDA5F858013046FDF779
:104E2000F6FDA5F85A013046FDF7F1FDA5F8780129
:104E30003046FDF7ECFDA5F87A013046FDF7E7FDB9
:104E4000236DA5F84E011A4612F8011B3046226563
:104E500087F823105A78991C216587F824209A78BE
:104E6000D91C216585F88121DA780433236587F818
:104E70004920FDF7CCFDAA890646904212D0644B2A
:104E80002AB148B11868314603F07AFC09E018B13C
:104E900018680321324602E018680121642203F0F9
:104EA00085FCAE81236D13F8012B236587F8302034
:104EB000A7E0DFF85481D434204698F80510FDF7B8
:104EC00097FD2046D8F80810FDF77AFD204698F89F
:104ED0009411FDF78DFD2046B8F95611FDF77FFDC1
:104EE0002046B8F95811FDF77AFD2046B8F95A1155
:104EF000FDF775FD2046B8F97811FDF770FDDFF874
:104F00000C912046B8F97A11FDF769FD2046B8F9F1
:104F10004E11FDF764FD204699F82310FDF768FD5A
:104F2000204699F82410FDF763FD204698F881117A
:104F3000FDF75EFD204699F84910FDF759FD204622
:104F4000B8F90C10FDF74BFD204699F83010FDF72D
:104F50004FFD304629463A461923FFF7C0B94FF0B6
:104F60000008294B04F1D400434493F8821108F15E
:104F70000108FDF73DFDB8F1080FF2D13046294692
:104F80003A464346FFF7ABB9226D12F8011B226582
:104F90001D4A1A440133082B82F88211F4D130E003
:104FA0004FF000081B4B04F1D40913F808104846D1
:104FB00008F10108FDF71CFDB8F10B0FF2D14846CE
:104FC0000021FDF7FDFC48460021FDF7F9FC3046C5
:104FD00029463A461323FFF782B93046294601B0E5
:104FE000BDE8F04F01F01EB90023D4F8D420511CC5
:104FF000C4F8D4100849595C0133102B1170F4D156
:1050000042E501B0BDE8F08FA8250020302B00203C
:1050100004180020A38F0108162B00202DE9F04F63
:105020007A4C87B0A3689B0740F19580784D794B07
:1050300006221F882B681F442B792F600133DBB2B7
:10504000B3FBF2F62B7102FB163313F0FF0667D1A8
:10505000DFF80C92D5F808A099F80130DFF8048247
:1050600050464FF0785138F813B00BF009F901466B
:1050700050460AF0FBFF1FFA8BFB824658460BF0A6
:10508000ABF865490BF0FCF864490BF0ADF98346C9
:1050900094F87D010BF0A0F8014658460BF0F0F8AB
:1050A000014650460AF0E4FF4FF07851A8600BF03B
:1050B000E7F80BF0D1FA94F88131A88183B399F81D
:1050C0000530B4F8781138F8132040F6E44392B272
:1050D0005A4340F6FF73B2FBF3F2B4F87A31286911
:1050E000D21A4FF47A735A43B2FBF1F2082190FBC3
:1050F000F1FECEEB000002442A6192FBF1F257432D
:10510000D5E9060197FBF3F3C01841EBE3716A613F
:10511000C5E90601424A00230BF0BEFA2E60286260
:10512000404AAB8912889A4208D33F4D2B78012B15
:1051300011D93E4801F00CFE01230BE03C4A1288D5
:105140009A4208D3384D2B78022B04D9394801F004
:10515000FFFD02232B70384E737B5BB3324D2B78EF
:10516000082B27D9A368DF051FD5344BDB7AE3B1C1
:10517000334B1878042818D90023324905275A18C8
:105180005F540F275770122B03F10207FAB204D0B5
:10519000B0EB520F3B46F0D800E014220A446423DF
:1051A0005370F0239370274800E0274801F0D0FDAA
:1051B00008232B70254B1A881AB1254B1B689807BA
:1051C00007D4244B1B8823B9234B1B780BB107F062
:1051D0005FFA224B1A7832B10D4C94F82430002B30
:1051E00000F01183C1E2A268084B1105F4D51A4AF8
:1051F0001278002AF0D093F8BB21002A3AD193F814
:10520000BC318BBB0D4B5B782FE000BFA825002085
:10521000401C00207A2C00203333534000F07F459F
:10522000407E0500920A002094000020BD7E010807
:10523000900A0020C07E0108201A0020F50C0020F2
:10524000AD2400205C1B0020B17E01086E2C0020E4
:10525000900B0020FE170020FC170020782C002067
:10526000800A0020880A0020337D003318BF012304
:10527000002BB1D094F8BA31002B40F06981C34BB8
:10528000D868FDF707F8002840F06281C04AC14D98
:105290001368A96A591A7C2940F25A81AB6295F8C1
:1052A0002C300746013385F82C3007F12400B94E25
:1052B000C0B201F0F9FC06F12E0333F917000AF031
:1052C0008BFFB54B804618880AF086FF01464046A2
:1052D0000BF08AF8B1490AF0D3FF0BF097F90137C8
:1052E00000B201F00DFD032FDFD1302001F0DCFC16
:1052F000B6F9340001F004FD01F0E4FC96F82C004E
:1053000010F0030828D1102001F0CEFCB36B642705
:1053100093FBF7F000B201F0F3FC212001F0C4FC94
:10532000B36B93FBF7F007FB103787EAE770A0EB4E
:10533000E77000B201F0E4FC142001F0B5FC984BDA
:10534000B3F9000001F0DCFC1C2001F0ADFC40468C
:1053500001F0D6FC01F0B6FC95F82C308D4E5A07C2
:1053600040F0D080022001F09FFCB6F93C000A27F3
:1053700090FBF7F001F0C4FCA3689B075FD5B389ED
:105380004FF06E0808FB03F8152398FBF3F81FFA9B
:1053900088F83A204FF0640901F086FCB8FBF9FB6D
:1053A0000FFA8BF001F0ACFC3B2001F07DFC09FB17
:1053B0001B8080B20530DFF8F88190FBF7F000B277
:1053C00001F09EFC98F80030B28940F6340192FB5F
:1053D000F3F24A432A21B2FBF1F2F18F062091FB4E
:1053E000F3FB03FB1B1B4FEA0B1B1FFA8BFB4BEA68
:1053F000022B1FFA8BFBC2F303224BEA020B01F0D4
:1054000053FC0FFA8BF001F07BFCF28F98F8003020
:10541000013292B292FBF3F103FB11232820F387B0
:1054200001F042FC706990FBF7F000B201F068FCFB
:10543000042001F039FCB6F9200001F061FC594B61
:105440001B6898065CD5584FDFF868813B68574E5B
:10545000002BB8BF5B4293FBF8F106FB01334FF022
:105460003C0909FB03FA1320039101F01DFC039989
:1054700064229AFBF8FB02FB01B000B2039201F038
:105480003FFC1B2001F010FC06FB0BA34FF47A7BC2
:1054900093FBFBF000B201F033FC232001F004FC8D
:1054A00038680028ACBF4E20532001F029FC7B68EF
:1054B0001220002BB8BF5B4293FBF8FA06FB0A33BD
:1054C00009FB03F901F0F0FB039A99FBF8F802FBE2
:1054D0000A8006FB089800B201F012FC1A2001F0C5
:1054E000E3FB98FBFBF000B201F00AFC222001F084
:1054F000DBFB78680028ACBF4520572001F000FC9A
:1055000001F0E0FB95F82C30282B21D1214B002213
:1055100083F82C201E4A4FF47A7317683C25B7FB9A
:10552000F3F7172001F0C0FBB7FBF5F6B6FBF5F07B
:1055300005FB1060000200B201F0E2FB182001F050
:10554000B3FB05FB167000B201F0DAFB01F0BAFB09
:1055500094F8BA31012B7FF43FAE0C4CE068FCF7B5
:1055600099FE00283FF438AEE468636B23B19B6872
:1055700020469847054635E0A368201DE3B10DF1AC
:1055800017019847003018BF01202AE0AC0B00201B
:1055900068250020401C00207800002000007A448C
:1055A000421A0020900B0020941A0020806967FFA7
:1055B0001600002080969800E2697AB101210DF171
:1055C000170001F0A7FB0546E069FCF76EFE638D4E
:1055D000834205D8206A02F0C3FF01E0104600E0D4
:1055E0002846C5B20520FDF7DDF88A2D31D08E2D75
:1055F000B3D1AD4C00212E2204F1720011F02EFA2D
:105600007C2384F87230E02384F875307D2384F89D
:105610009E30A38984F87350DAB21B0A84F8913063
:1056200084F88730142384F88A3084F88B304FF460
:10563000FA73A4F88C304823A4F89430782384F8C3
:10564000902084F8862084F8963004F172002E2190
:1056500088E0964B1B6899067FF57FAF924C00213E
:1056600004F140002C2211F0F9F97C2384F8403039
:10567000A02384F843307D2384F86B308C4B84F86E
:1056800041501B7884F85A308A4BDB7A002B64D067
:1056900089498A480A688A4E92FBF0FC5FFA8CFCC2
:1056A00006FB0C2706256F43662384F86930D30F69
:1056B00084F8493042F21073B7FBF3FE03FB1E7708
:1056C000496884F84C7091FBF0F03F0AC0B284F84E
:1056D0004D70CF0F06FB00116943B1FBF3F503FBDF
:1056E000151384F851301B0A84F85230B4F86C302A
:1056F00064225FFA8EFEE9B202FB0CEE02FB00119F
:10570000B3FBF2F224235A43B4F86E301FFA8EFE34
:1057100084F853301B0A84F854306A4B89B21B88D2
:1057200092B284F855301B0A84F85630B4F87030C1
:1057300084F84AE084F84F104FEA1E2E090A84F8D4
:105740004720120A84F84BE084F84E7084F8501019
:1057500084F8482084F85C3002E0202384F8693023
:1057600059482C2105F05CFDF7E6D4F8B020002361
:1057700084F8243013629362D362C4F8B030534B80
:105780001F68534B1D78002D3DD104F51478012678
:105790002946642240461E7011F060F984F8506278
:1057A00031464C4A43460095022002F089FEC4F877
:1057B0007802802001F03CFAC4F8740218B33B1D53
:1057C000C4F87032444BC7F82480FB62434B304628
:1057D0003B63202110F040FEC4F8800218B9404B12
:1057E00003221A700FE0202384F87F323D4B3E489D
:1057F000C4F8A8323033C4F8AC323C4B2946C4F864
:10580000B03207F0CDF894F8B43223B109F094FD2A
:10581000374A384BDA60384BDB680BB1374898476A
:10582000374A224D138813B12B689A0702D4354B9F
:105830001B8813B1FDF776F80AE01E4B9A7812B177
:10584000314A082111615B7813B12F4B08225A614C
:1058500094F8B53223B1144A013B82F8B5320BE01B
:10586000144B5A7B1AB99A70FDF75CF801E00122DB
:105870009A70092384F8B5322B689B0610D594F8EA
:10588000B63223B1084A013B82F8B63208E0084B31
:105890001B78042B01D9FDF73CF8022384F8B632BB
:1058A000002007B0BDE8F08F401C0020900B0020C6
:1058B000AD240020F50C0020941A0020A0860100E1
:1058C0006079FEFF901A0020801C0020AC0B0020A5
:1058D000782C002059C80008058B00080D590008D5
:1058E0006C2C002030800108839001087E90010814
:1058F0000400FA0500ED00E0300B00207C1C0020C5
:105900006E2C0020FE170020000C0140F8B5436A01
:1059100004469D8ADA8A0F46954216D01E89006A8F
:1059200092FBF6F106FB11221969114492B29542DD
:105930002CBFC2EB0502C2EB060292B2B847014689
:10594000606AFCF7BBFC0120F8BD0020F8BD30B553
:105950000D4B9B8912F1FF3214D311B10C78013138
:1059600000E0FF24084B1D89AD07FBD59C811C89F5
:10597000E407FCD5044B9B899BB20028EAD0037056
:105980000130E7E7012030BD00380040F0B5884C19
:10599000884A23689D8AADB2E9B211F0010F32D076
:1059A000198821F400610904090C1980198889B249
:1059B00041F480611980002111707F4908787F4986
:1059C000A8B1507818B97E480078FF280FD101207F
:1059D00050707C480078022804D1188880B240F4C6
:1059E00000601880097841F00101198202E109780C
:1059F00001F0FE011982724B1B78FF2B00F0FA8038
:105A0000FF231370F6E08F073CD5BFF35F8F6D491E
:105A10000878012815D16848007890B1507880B195
:105A2000198821F480610904090C1980BFF35F8F84
:105A3000198B198889B241F4007119800121917084
:105A40001BE0188BBFF35F8F087802280BD15A48F0
:105A5000007840B1507830B1198821F48061090490
:105A6000090C1980C0E00978032906D15249097848
:105A700019B15178002940F0B780998889B241F472
:105A80008061B6E04E075BD5012191704A490978E3
:105A900000293AD05178002937D04A49107809783E
:105AA000494D022919881ED921F480610904090C85
:105AB00019801F8A2E68C1B2FFB240B237541888CD
:105AC00080B240F4007018808B1C13702368286823
:105AD0001D8A013149B2EDB24554998889B241F429
