:020000040800F2
:10000000005000204D290108ED290108D9F1000810
:10001000ED290108ED290108ED2901080000000083
:10002000000000000000000000000000ED290108B1
:10003000ED29010800000000ED2901083DF000084D
:10004000ED290108ED290108ED290108ED29010834
:10005000ED290108ED290108ED290108B5E50008A1
:10006000ED290108ED290108ED290108ED29010814
:10007000ED290108ED290108ED290108ED29010804
:10008000ED290108ED290108ED290108ED290108F4
:10009000ED290108ED290108ED290108B1E5000865
:1000A000ED290108ED290108ED290108A3E5000863
:1000B00099E500088DE5000881E50008D5F1000804
:1000C000CDF10008D1F10008C9F10008ED290108BF
:1000D000ED290108E5EF000889EF000825EF000889
:1000E000ED290108ED290108ED29010800000000B3
:1000F0000000000000000000000000000000000000
:0C01000000000000000000005FF808F1A3
:100110002DE9F04FAF4C9DB023680490062B01F2FF
:10012000C486DFE813F007001F001F001F00C20491
:100130004306CE0AA84B1B682BB9A84B4FF47A7024
:100140001B68584300E09847049E726C831A2AB1DA
:10015000F2691A44F261326A01323262049FA04AA3
:100160007864138027689B4D012F00F0BE80022F1A
:1001700000F0BF81002F40F079849A48291DD0F803
:100180008030984705F10408002800F08A84964BD7
:1001900005F1540A1A889946002A00F098800C3517
:1001A0003E46B9F800B0914BBBF57A7FCDF814B05C
:1001B00007D10A20A3F13C0100FB06110022DA510D
:1001C0000A61DA5938F906000244DA510FF036FFB5
:1001D0002B690133012B2B6104D100236860286057
:1001E000AB602AE0D5F800C001936146CDF80CC0A1
:1001F00002900FF06DFE019B834618460FF01EFF24
:100200000146584610F022F8DDF80CC00146604661
:100210000FF060FE029A034619466860104601938B
:100220000FF056FE014658460FF05CFFA9680FF02C
:1002300051FE019BE8602B60A860059A0023012A0B
:1002400028F806302AF8063034D12869012807DD5D
:1002500001380FF0F3FE0146E8680FF0F7FF00E009
:10026000002012F0A3FF624B834693F8660190B121
:100270000FF0E4FE0146584610F0F0F858B14FF484
:100280007A73A9F800300023E36123636364236574
:10029000E364A3640EE0554B4FF47A72FB580A20D6
:1002A00003F5FA7393FBF2F32AF806300F210122CB
:1002B0000CF028FA0236062E07F1040705F11405A2
:1002C0007FF46FAFB9F80030013BA9F8003000238C
:1002D00038F803003AF803103E4A411A28F8031090
:1002E0000233062BF4D101F0D0BD3E4E05F15A0188
:1002F000D6F8983030469847B0465A35002800F076
:10030000D1833C4F3A4E3888002844D000231A4607
:10031000DFF8ECC0B0F5C87F04BF00214CF8021034
:1003200035F903905CF80210DFF8A8E049444CF876
:100330000210002106EB0309E9520233062BDFF815
:10034000B0C0A9F86A1102F10402E1D101281FD15D
:10035000DEF860304FF4C872C83393FBF2F3ACF8A8
:100360006A31DEF86430C83393FBF2F3ACF86C31D9
:10037000DEF86830C83393FBF2F2B8F89C30D21A3A
:100380001D4BACF86E219985D98501460CF02AFAEF
:100390003B88013B3B80B268154B520740F192808D
:1003A00016490A888946322A2CD1B3F86A11A4F872
:1003B0006C10B3F86C11B3F86E31A4F86E10A4F899
:1003C00070300D4B998DDB8DA4F87210A4F8743049
:1003D0001AE000BFA0170020F4090020EC23002041
:1003E000FE2A0020180000207E170020E8170020B9
:1003F0002C240020F22A0020B4290020941A002086
:1004000000180020002A3DD000231946322AB04FA0
:1004100004BF0020785035F903E0785870447850D4
:10042000002006EB030EE8520233062BAEF86A01F9
:1004300001F10401EAD1012A1FD1A64BA64D187083
:10044000A64B1A702B780A2B04D9A54806F002FC9B
:100450000A232B70B4F86C30B4F87220A6F86A3115
:10046000B4F86E30A6F86C31B4F87030A6F86E317E
:100470009C4B9A85B4F87420DA85B9F80030013BBA
:10048000A9F80030984A1378E3B10023A16F1370E4
:10049000322291FBF2F1A6F86A11E16FB8F89C00E4
:1004A00091FBF2F1A6F86C11D4F8801091FBF2F2F6
:1004B000121AA6F86E2101208A4A01469385D38537
:1004C0000CF090F9B4F85A20B6F86A310227D31A22
:1004D000A4F85A30B4F85C20B6F86C31D31AA4F8FA
:1004E0005C30B4F85E20B6F86E31D31AA4F85E30F2
:1004F000D8E27E4B7E4F1B689847D5F8843006467D
:10050000C31A184605930FF095FDD7F88C10069086
:100510000FF0E8FD734BC5F8846093F83190002626
:1005200007903546B3461F46DFF8E48138F90500E9
:100530000FF084FD07990FF0D5FD10AB9851B9F17C
:10054000000F2CD048460FF079FD01464FF07E5049
:100550000FF07CFE0346194608F1840A4FF07E50E6
:1005600001930FF0B5FC56F80A100FF0BBFD08F12F
:100570005608024638F9050002920FF05FFD019B14
:1005800019460FF0AFFD029A014610460FF0A2FC8B
:100590004AF806000FF06CFF564B585305E008F17F
:1005A000560835F80820534BEA52524B0436EB5E9E
:1005B0000235062D03FB03BBB6D14D4E642303FB6E
:1005C0000BFBB6F89C304C485B439BFBF3FBABF159
:1005D000490B10A91FFA8BFB02F0F2F9BBF13B0F9C
:1005E00040F29A80454BD4F89C50B3F900000FF0CC
:1005F00025FD014628464FF001060FF02FFF00B9F8
:1006000006463F4B2946D4F898005E7312F02EFC44
:100610000646C4F8A000D4F89400D4F89C9000F1E9
:100620000045D4F8980001460FF05CFD494680462D
:1006300048460FF057FD014640460FF04BFC12F0C4
:10064000B5FD0146284612F011FC0546C4F8A40089
:1006500030460FF0B3F81CA3D3E900230FF002F9E2
:100660000FF0E2FB12F034FBDFF8A880A8F80000DE
:1006700028460FF0A3F814A3D3E900230FF0F2F8F3
:100680000FF0D2FB12F024FB1E4BA8F802001B68EF
:100690001B0740F18E8010A91B4802F091F91B4BFB
:1006A0004FF0000AB3F864010FF0C4FC4FF07E5124
:1006B00081460FF00FFC01464FF07E500FF0C6FD53
:1006C000804657E0AFF300803B597E90A9E7814018
:1006D00018180020961A002060010020901A0020AF
:1006E000567E0108B4290020911A0020F409002048
:1006F00018000020EE1B002034180020880B00207A
:10070000E50C0020800B0020481800202C2400203D
:10071000A417002010190020B14B4FF00008B3F8C7
:1007200062010FF087FC4FF07E5106460FF0D2FBBE
:1007300001464FF07E500FF089FD0546DFF8D49258
:10074000304659F818100FF0CDFCA64B824633F90D
:1007500008000FF073FC014650460FF0BBFB294622
:100760000FF0C0FC49F8180008F10208B8F1060FB4
:10077000E4D137E7DFF8A0B248465BF81A100FF073
:10078000B1FC994A034632F90A0001930FF056FC76
:10079000019B014618460FF09DFB41460FF0A2FC5D
:1007A0004BF81A000AF1020ABAF1060FE2D15846D4
:1007B0003DE0DFF8389210A9484602F001F9D9F877
:1007C0000000D9F804B001460FF08CFC594682466F
:1007D00058460FF087FC014650460FF07BFBD9F8D6
:1007E00008808246414640460FF07CFC0146504658
:1007F0000FF070FB12F0DAFC002180460FF006FECD
:10080000A0B9D9F8000041460FF020FD4146C9F8D3
:100810000000D9F804000FF019FD4146C9F80400A2
:10082000D9F808000FF012FDC9F808006F4802F06F
:100830007FF96F4B6F49188006980FF053FC6C4B93
:1008400005F10045804606F10046B3F90000149515
:1008500013960FF0F3FB00F100400EF0AFFF5EA324
:10086000D3E900230EF0FEFF0FF0DEFA5D4D159088
:10087000B5F900000FF0E2FB1690B5F902000FF099
:10088000DDFB1790B5F904000FF0D8FB13A9189001
:1008900016A802F095F8584B93F84830012B17D161
:1008A000564B5B7873B9D4F8B430402093FBF0F02A
:1008B000181A0FF0C3FB18990FF00CFB0FF0D8FDBE
:1008C000C4F8B400D4F8B430402093FBF0F002E058
:1008D0004B49B1F89C000FF0B1FB014618980FF09E
:1008E000F7FA484B1890196840460FF0F3FA0146A2
:1008F00040460FF0ABFCD4F8B860804631461898FB
:100900000FF0E6FA014640460FF0ECFB0146304698
:100910000FF0E0FA0646C4F8B8001698D4F8BC8088
:1009200012F0D6F997F8331002F07EF94044C4F87B
:10093000BC001798D4F8C08012F0CAF997F83310A9
:1009400002F072F94044C4F8C0003046D4F8C480C4
:1009500012F0BEF997F8321002F066F92A4B059EA4
:100960001A68404432441A60D4F8C830274D013325
:10097000C4F8C83097F8B630C4F8C400002B73D060
:10098000D5F89400D5F8988001460FF0ABFB4146AE
:10099000074640460FF0A6FB014638460FF09AFA8C
:1009A000D5F89C600746314630460FF09BFB014668
:1009B00038460FF08FFA12F0F9FB014630460FF07F
:1009C00045FC134906460FF035FD38B30023A5F862
:1009D000CC3049E0AFF30080399D52A246DF913F11
:1009E0002C240020EE1B0020341900205001002090
:1009F0008E1A0020BD378635B4290020E50C002072
:100A000018000020940B0020F82A0020A0170020D6
:100A10008FC2753C3418002048180020304612F070
:100A2000D3F99F4B19680FF05DFB12F051F9B0F547
:100A3000617FA8BF4FF461700EF0AEFE96A3D3E9BC
:100A400000230FF039F80FF0EFF912F07FF9954B12
:100A5000064693F8B6000FF0F1FA31460FF042FB6C
:100A600012F036F9A5F8CC0003271BE08E4B5B791A
:100A7000012B8E4B0DD1B5F9CE10B5F9082002EB44
:100A80004102032192FBF1F292B29A80A5F8CE20A6
:100A900001E02A899A80A28804271A80E2885A8075
:100AA00000E00746276000F008BE814B814A197CB0
:100AB0007C4BA1B9B2F906101A8D91423CDBB1F51D
:100AC000FA6F93F8264007DA891A4C43A2F5FA62C6
:100AD00094FBF2F4643430E0C4F164042DE0B2F924
:100AE00006101A8D91420FDB734AB2F9061093F883
:100AF0002620914208DDB1F5FA6F02DA891A4A43DD
:100B00005212C2F1800200E080226C49B1F9021059
:100B1000142909DD93F82600B1F5967FA8BF4FF49C
:100B200096714143A2EB212293F82640C4F1800440
:100B3000A242A8BF144600E064245B4A93F8B05078
:100B4000B2F8987192F95C2193F8B160524293F82F
:100B5000253092B2002153480692059707930A4622
:100B6000544BDDF8149031F903B040F2E637C9EB8D
:100B70000B0303F2F31EBE4503D8002BB8BF5B4244
:100B800001E04FF4FA73022ADFF82CC12ED025B110
:100B9000AB42CCBFC5EB030300236427DFF82491ED
:100BA00093FBF7FE09EB4E086FF0630A0AFB0E3A5F
:100BB000B8F8D08009EB4E0EBEF9D2900FFA88FE3D
:100BC000CEEB090E0EFB0AFE9EFBF7FEC6442CF888
:100BD00001E090F823E003FB0EFE394B9EFBF3F39C
:100BE0003B449BB2634393FBF7F716E026B1B34255
:100BF000CCBFC6EB03030023DDF818A0DDF81CE032
:100C000003FB0AF7002BB8BF5B4203FB0EF3ACF803
:100C100004702B4F93FBF7F76437224B90F80B804F
:100C2000134493F801C007FB08F807FB0CFCDFF83E
:100C300098E064239CFBF3FC02F80EC098FBF3F8E9
:100C40000EF1030C02F80C8090F815C00EF1060EA0
:100C500007FB0CF797FBF3F302F80E30059B164FDA
:100C60009B4502DA7B5A5B427B520132032A01F137
:100C7000020100F101007FF473AF0E4BB3F90620BF
:100C8000094BB3F89A319A4220DBB2F5FA6FA8BF4C
:100C90004FF4FA621BE000BFA2EB0FE5DD169640B1
:100CA000900B0020B42900202C2400202E190020B5
:100CB000E50C0020B00D0020AA1A00201019002019
:100CC0000CFEFFFFA01700207E1800201A46D21A43
:100CD0004FF47A714A43C3F5FA63B2FBF3F3642528
:100CE0008F4A93FBF5F102EB41006FF0630606FBC0
:100CF0000133B0F8E80002EB4101B1F9EA6001B25A
:100D0000711A4B4393FBF5F5864B28445B7A864C6E
:100D1000F8809046002B44D0844BB3F90000844BFC
:100D2000B3F90030C01A0EF037FD7BA3D3E90023DE
:100D30000EF098FD00227F4B0EF0BEFE0FF074F80F
:100D4000054611F08FFF0646284611F0FFFF0546C5
:100D5000B4F902000FF072F90746B4F900000FF081
:100D60006DF9314681460FF0BDF929468246384675
:100D70000FF0B8F9014650460FF0AAF80FF078FBD3
:100D80003146208038460FF0ADF9294606464846E0
:100D90000FF0A8F9014630460FF09CF80FF068FB01
:100DA00060800523C8F8003000F087BC624BDFF894
:100DB000A4911A6812F0080539D05B4988880F465B
:100DC00000F145039BB28A2B5C49584B2DD8554EF8
:100DD00096F805E0BEF1000F27D0B3F800E00B88CD
:100DE000767BC3EB0E0189B28BB20FFA83FE1EF144
:100DF000B30FBCBF01F5B4739BB219B2B32950490C
:100E0000C4BFA3F5B4739BB291F85C117EB149B233
:100E100049424B4399F809101BB24B436FF01D0137
:100E200093FBF1F31844B88001E01B880B8057074F
:100E300040F19D803B4B9979002900F098801E7C01
:100E4000394B002E40F08A8099F8B3003D4F99F855
:100E5000B21068B3B3F806E0B7F900000FFA8EF7E6
:100E6000C0EB070CBCF1000FB8BFCCF1000C8C45F7
:100E700010DD8742DFF8E0C0C8BF4942CCF800600F
:100E80001FFA8EFE4FF00106C8BF89B284F80061D8
:100E900071443FE094F8001131B12B490F682B49A0
:100EA0000F601F4981F8006129490968084426E05C
:100EB000B7F90060B3F90670BF1B87EAE77EAEEBB7
:100EC000E77E8E450ADD022197FBF1F70121C4F888
:100ED000047184F8081184F800110DE094F8007191
:100EE0000F494FB1184F81F80801D7F800E0174FAC
:100EF00081F80001C7F800E0154908683044104E39
:100F0000B6F84011B6F84261884203DBB042B4BF84
:100F100001463146D9802AE0182D4454FB2109406E
:100F2000A0170020E50C0020AA1A00208E1A00202D
:100F3000BE1A002000806640800B0020BC1A0020F2
:100F40002C240020A81A0020A41A0020A01A002097
:100F5000B81A0020B4290020B41A002097495888F4
:100F600091F9A0619649096806FB0101598099F839
:100F7000B63053B1934BD97809B91B792BB1924B49
:100F8000B4F8CC00D9880144D980960640F1928308
:100F90008C4BDE7905961EB91A7A002A00F08583FB
:100FA0001B7BDFF820B2002B00F07F83874B1F886C
:100FB00038B20FF043F886490FF094F8064611F066
:100FC000C5FE8046304611F04DFE9BF810300646B7
:100FD000002B40F0858099F815917E4F7E4DB9F138
:100FE000000F4CD0DFF81CA2B7F90200BAF80230AB
:100FF000C9F100041FFA83FB1BB2C01A01F0D6FF2F
:10100000A04203DB4845A8BF484600E02046BAF8A6
:1010100000308344B7F900009AB21BB21FFA8BFB71
:10102000C01AAAF802B0029201F0C0FFA042029AD0
:1010300003DB4845B4BF04464C461444A4B2AAF8A6
:1010400000400FFA8BF00EF0F9FF074620B20EF0C9
:10105000F5FF3146044638460FF044F841468146D4
:1010600020460FF03FF8014648460EF031FF5B493D
:101070000FF0ECF80FF0FCF9288038461DE0B7F9C6
:1010800002000EF0DBFF8146B7F900000EF0D6FF3C
:101090003146044648460FF025F8414607462046AB
:1010A0000FF020F8014638460EF012FF4B490FF0C2
:1010B000CDF80FF0DDF92880484641460FF012F8D0
:1010C0003146074620460FF00DF8014638460EF02F
:1010D00001FF42490FF0BAF80FF0CAF96880E9E25F
:1010E0003F4B404A1888404B9BF813B0DB8899F877
:1010F000369106933D4BD3F808803D4B1FFA88FA92
:101100001E889368CAEB0606B6B2CAEB030A1FFA3A
:1011100086FC1FFA8AFABBF1000F06D00FFA8CF397
:101120004B45BCBF08EB090393600A2300B2584348
:101130000193CDF80CC001F039FF019BDDF80CC024
:1011400090FBF3F000B27DB190FBF3F338B29AB2AA
:10115000C31A002BB8BF5B420A2B08DD254B1B8846
:10116000C82B88BF174602E090FBF3F7BFB2224DB1
:101170002248D5F80C316422CAEB060193FBF2F247
:101180000668D5F8143189B2F31AC72BA5F81021D7
:10119000A5F81211824640F26C820368184EC5F819
:1011A0001431B6F82C3179BBA5F81831BBF1000F1A
:1011B00040D0044B0021D9743CE000BF2C24002017
:1011C000B81A0020E50C0020AA1A00208E1A002070
:1011D00035FA8E3CF21A0020E81A00200000204167
:1011E0003A190020D01A0020B00D0020C41A0020A7
:1011F000DC1A00202C1C0020A0170020EC2300206B
:10120000B4290020EE1A0020B6F8300109B200FB24
:101210001130B6F82E31B6F82AE1984203DB70455A
:10122000B4BF03467346A5F81831BBF1000F01D0D7
:101230000029BEDAD71BB8B2059F9E499E4BE7B185
:10124000CA7C7AB1B6F824216FF009077A43A5F871
:101250001221B6F82A21A5F818210FFA8CF2182AC3
:10126000D8BF00201A88312A07D80FFA8CFCCC4549
:1012700003DD924A08EB09079760897C8D4A49B1E2
:101280001988092906D800215170D1748B4A08F1B8
:10129000050191601B88092B08D800B20EF0CEFE24
:1012A00087490EF01FFF0FF0E3F880B24FF064099A
:1012B00000B209FB00F001F079FE90FBF9F01FFA93
:1012C00080F90FFA89F3002BB8BF5B42DAF800000F
:1012D000AA2BC8BF4FF0AF09D5F81C31DFF8048244
:1012E000C01A0EF0A7FE77490EF0B0FFDAF8003012
:1012F000B5F812A1C5F81C310AF103039BB2062B05
:10130000074606D8D8F8000039460EF0EBFEC8F8BC
:1013100000000A2202FB0AF292B293B2A4F8123140
:1013200018B2029201930EF089FED4F8241182467D
:101330000EF0D8FE39460EF0D5FED8F800100EF0AB
:10134000C9FD0FF095F86049B0F5FA7FA8BF4FF4DA
:10135000FA708842B8BF08460EF070FE5B49029AE8
:101360008346C8F800000888019B121A92B20B80CD
:1013700013B2002BB8BF5B42642BC8BF0022544B92
:1013800003F10A01988823F8020F8B42FAD15149E0
:1013900000230A811846CA5A023310440A2B80B22D
:1013A00001D080B2F7E700B20EF048FED5F8281160
:1013B0000EF098FE39460EF049FF0FF059F81FFA6B
:1013C00080F8D5F820115046A5F830810EF08AFE3D
:1013D0000FF04EF800B20EF031FE59460EF07AFDD5
:1013E0000FF046F81FFA89F909F103039BB2062BA7
:1013F0001FFA80FA08D8DFF8F0B03946DBF80000B1
:101400000EF070FECBF800004FF00A0C0CFB09F94F
:101410001FFA89FC1FFA8CF210B20292CDF80CC0B0
:101420000EF00CFEDFF8C090D5F8381183460EF0B0
:1014300059FE39460EF056FED9F800100EF04AFD5E
:101440000FF016F8204BB0F5FA7FA8BF4FF4FA70F2
:101450009842B8BF18460EF0F1FD0346C9F80000E7
:101460001D48DDF80CC00188029AC1EB0C0189B25D
:1014700002800AB2002AB8BF5242642AC8BF0021C3
:10148000164A02F10A00B2F804E022F802EF8242A2
:10149000F9D1134A4FF000091181484632F809107A
:1014A00009F102090844B9F10A0F80B21ED080B2D6
:1014B000F4E700BFE50C00202E1C0020D01A00200D
:1014C000CDCCCC3D00007A440CFEFFFF781B002001
:1014D0007C1B00207E1B00207A1B0020881B002024
:1014E0008A1B0020741B0020701B002000B2019397
:1014F0000EF0A4FDD4F83C110EF0F4FD39460EF0C8
:10150000A5FE0EF0B5FF87B2D4F83411A4F84471EB
:1015100058460EF0E7FD0EF0ABFF00B20EF08EFD68
:10152000019B0FFA8AFA19460EF0D4FC0EF0A0FFC8
:10153000B6F924316FF009014B439AFBF9FA0FFA1F
:101540008AFAB6F926119A4580B209FB01F903DB44
:10155000CA45B4BF53464B46B04C02B2B4F9201151
:101560006FF0090048434FF00A0E984492FBFEF2D8
:10157000AB4B1FFA88F88242A3F8028004DB0EFB13
:1015800001F08242B8BF1046BFB238441880B4F9A7
:1015900022016FF0090141438A4204DB0A214143E1
:1015A0008A42B8BF11469F4A0F44507C9F80114623
:1015B00058B194F828210FFA88F85242904503DB7D
:1015C000C845B4BF42464A465A80C97C964A69B962
:1015D00096F83261B2F900006421B6FBF1F15E8841
:1015E0000028B8BF404201FB10615980B2F90200E7
:1015F0000EF024FD4FF07C510EF074FD0EF038FF1C
:101600008A4BB0F5E17FA8BF4FF4E1701A88B5F8B6
:101610001871A2F5E17320EAE0709BB2381A642BCE
:1016200087B2834E0CD910B2C0F5FA700EF006FDE9
:1016300080490EF057FD0EF01BFF338818443080B0
:10164000B6F90030B4F82E21B3F5FA7FA8BF4FF4F5
:10165000FA7323EAE37333803B441BB29342B4F83A
:101660002A1103DB8B42B4BF1A460A46724BA3F819
:1016700018216C4A6A4BD17809B9117921B1927A53
:1016800052B1684A927C3AB9DDF818900022A5F868
:1016900018915A801A809A80684AB5F81811D1803A
:1016A000998893880B44938004E05D4B00221A8054
:1016B0005A809A80604B06221A60049808F03EFB1C
:1016C000F3E35F4BDB6898475E4B93F80080B8F11B
:1016D000030F14D9594BB4F94A11B3F904006FF050
:1016E00063030028B8BF40421B1A994204DB00F193
:1016F00064038B42A8BF0B46A4F84A310BE0B8F153
:10170000010F08D8504B5A791946013AD2B2172A1C
:1017100000F2D481A3E04148B4F848A190F90E1139
:10172000B4F846B1B4F94A4149424C433D49434BB0
:101730000A7C90F81E01897ACDF810A0DE88B3F8F3
:1017400004A0424D0694CDF814B007920890099178
:1017500000244445D6D230B20EF070FC296883468E
:101760000EF0C0FC049B844618B2CDF80CC00EF0FD
:1017700065FCA9680EF0B6FCDDF80CC001466046B9
:101780000EF0A8FB059A844610B2CDF80CC00EF0FE
:1017900055FC69680EF0A6FCDDF80CC001466046F9
:1017A0000EF098FB84460698CDF80CC00EF046FC6F
:1017B000E9680EF097FCDDF80CC0014660460EF0BB
:1017C00089FB0EF055FEDFF88890079B670029F82B
:1017D0001400002B40D0089A002A3BD0099B002B14
:1017E0003AD00FFA8AF00EF029FC84462046CDF854
:1017F0000CC00EF01FFC4FF07C510EF069FBDDF8C1
:101800000CC0014660460EF06DFC014658460EF0D5
:101810005FFB0EF02DFE29F807001DE0B429002023
:10182000E81A0020E50C0020101900202C1C0020D4
:101830007C1B0020CDCCCC3DA0170020AA1A002094
:1018400050010020982900202C240020B40B0020F7
:101850009A29002027F809600134103579E701231F
:1018600003FA02F2B94B13406BBBD00640F126815C
:10187000B74BB84893F9BE20B0F90240B0F9000068
:101880005443322294FBF2F4B3F8BC20A4B211B258
:101890001129DCBFB04A32F81120B04922440A8035
:1018A00093F9C820B3F8C6305043322290FBF2F0CF
:1018B0001AB2112AD8BFA84B80B2D8BF33F8123061
:1018C00003444B80FAE0A64B9B7A43B1A54B1A88A0
:1018D000ADF858205A889B88ADF85A200AE0A24BF0
:1018E000B3F84621ADF85820B3F84821B3F84A318F
:1018F000ADF85A20ADF85C309C4B974A1B88ADF888
:101900005E30B1F898311189C91AADF8601051896B
:10191000C91AADF862109189C91AADF86410D1895D
:10192000C91AADF866101188C91AADF86810518847
:10193000C91AADF86A109188D288C91AD31AADF8BD
:101940006E30ADF86C100023844900225A520233E5
:10195000102BF9D1864B15461B7804931346DDF8FE
:1019600010A0554500F08F80824E834C91198879E4
:1019700020B1824F3844007D00287ED0B05C744E88
:101980000A2707FB0067B7F8BAE0B7F8B86091F923
:1019900004B0C6EB0E06B6B206FB0BFB642791F84B
:1019A00001809BFBF7FB4FEA560C91F803E0CCEB70
:1019B0000B0B4FEA48070DF170091FFA8BFB91F8EA
:1019C00005A04F44BEF1000F03D137F8187CE75251
:1019D0001BE0E45E37F9187CDFF89C91BC4209DA21
:1019E000A644A64503DB7745B4BF3C46744629F8B8
:1019F00003400AE009DDCEEB040EBE4503DBA6453D
:101A0000B4BF7746274629F80370DFF844E14FF06A
:101A10000A0909FB00EEBEF8C0E091F902104EFA87
:101A200008F818F0010FDFF850814C4C33F90880AA
:101A30000FFA8BFB01FB08F14FF0640891FBF8F102
:101A40000CBF4FF0010E4FF0FF3E594534F81070B7
:101A50001FFA8EFE0CDB4FFA8AFB06FB0BFB9BFB8F
:101A6000F8FBCCEB0B0B0FFA8BFB8B45A8BF8B461F
:101A70000BFB0E7B24F810B000E0E0520135EDB214
:101A8000023307326BE73E4B314A03F1100492F9FF
:101A9000BE10B3F902500A324D43642195FBF1F5B3
:101AA000B2F8B210ADB208B21128DCBF2A4931F841
:101AB0001010294423F8021FA342E8D1314B9A6841
:101AC0009A4612F0200F224B3BD0B3F8BC00234CB7
:101AD00002B2112AD8BF20492546D8BF31F81200DA
:101AE000B3F8C61020800AB2112ADCBF1A4931F8B7
:101AF00012101A4A0C4669802049097A09B393F8F2
:101B0000101193F9C86011F0020F93F9BE701149DA
:101B10003AD0B1F90050B1F902106E437F424F4301
:101B20004FF0320E96FBFEF66FF03101B6B297FB26
:101B3000F1F1314497FBFEF708443E4410803444F1
:101B400054800F4A024902F1100532E089209800C2
:101B5000B429002010190020B00D00208C010020B5
:101B6000E50C0020AA1A0020A01700209A290020C6
:101B7000740C0020750C0020EC1800206C1A00205A
:101B80008A0100202C240020B1F90250B1F9001084
:101B90006F434E43322597FBF5F7384496FBF5F536
:101BA00010802C44CCE722F8020FAA4201F10A016E
:101BB0000CD0B2F90240B1F9B800B1F8BA60844271
:101BC000F1DB30B2A042A8BF2046ECE793F8103119
:101BD000590705D49A499B4B0C881B7801220FE0CA
:101BE000994B9A4D9E7D0024043EA0190134C0B249
:101BF00035F8021FE4B201F014FB042CF5D1E9E73B
:101C00009A4208D231F9120024B2A042A8BF044679
:101C1000A4B20132F4E78E4ABAF84251107C291B73
:101C200005908C4889B2B0F90600BAF8987106910F
:101C30000490DAF808108848BAF840C101F48046E8
:101C4000B0F9EAB001F010010797B0F9EC70BAF8FA
:101C500046010E911FFA8CF1BAF844E108900A91FE
:101C600050787E49BAF848819AF80590BAF89AA156
:101C70005B000D960C901FFA8EF64989507C0F93ED
:101C8000CDF800B0CDF824A00B9600230F9EB342F0
:101C90006ED022B2AA4208DD059A32B9684A069E81
:101CA00033F802A0B24423F802A00D9E644A002E2D
:101CB00036D0DDF810A0DDF81CB0DA4532F903A00B
:101CC00015DDC24503DBAA45A8BFAA4600E0C2460F
:101CD000B9F1010F22F803A041D1009A09B2914253
:101CE00003DBB942A8BF394618E0009916E0F24577
:101CF00004DB089EB245A8BFB24600E0F246B9F147
:101D0000010F22F803A02AD109B2B94205DBDDF8A0
:101D100000A05145A8BF514600E0394689B21EE0F7
:101D200032F903B0E34503DBAB45A8BFAB4600E0A7
:101D3000E34622F803B002EB030ADDF810B0099A7B
:101D400093450BDA0E9E26B9DDF828B0AAF800B04C
:101D500005E00B98AAF80000012000E000200C9A92
:101D600022B93F4A985A364A9852012002338DE7E9
:101D7000354A3A4C364B6181517D58741A460029D8
:101D80007DD0384E7379013B172B6DD8DFE803F017
:101D90000C6C6C186F6C6C1E6C6C6C6C6C256C6CC9
:101DA0006C6C6C18256C6C342B4B93F80F3113B1A1
:101DB0000020618961E050780028F9D101465CE09B
:101DC0000020218901F02DFA0120F2E70020E188AE
:101DD00001F027FA012021894FE00020E18801F07D
:101DE00020FA0120218901F01CFA0220618901F00A
:101DF00018FA0320A18940E00020E18801F011FADF
:101E00000120218901F00DFA0220618901F009FA0F
:101E10000320A18901F005FAB368104DDA072ED529
:101E20000420298801F0FDF90520698801F0F9F9FD
:101E30000620A98801F0F5F90720E9891DE000BF17
:101E40009A290020982900209C0B0020B60D002024
:101E5000E50C0020B00D0020B42900208C010020EA
:101E6000161900202C240020B3689B0607D50020FB
:101E7000218801F0D6F96188012001F0D2F900F043
:101E800081FD0C4B00221A600FE00B4B1B6813F016
:101E9000020307D1A2F85A30A2F85C30A2F85E30F3
:101EA000FEF7E2BD0127FEF7FDBD00201DB0BDE835
:101EB000F08F00BFA0170020800B0020AFF3008040
:101EC00010B5C468A36A43B1616809B1206A03E030
:101ED000A26912B1206A0F499847E36ABBB1A168B1
:101EE00011B1206A984712E0626982B1206A0A49FA
:101EF000984760B194F824304BB9012384F824301A
:101F0000E36823B12046984708B984F824000020EC
:101F100010BD00BF91CF000895A4000870B5174C04
:101F2000174D002B0CBF2B46234672B1013A94008B
:101F3000002221FA04F606F00F0601329E5D851894
:101F4000043C05F8016CF4D515E089B101251C2489
:101F500021FA04F606F00F0605B126B19D5D855401
:101F60000132002500E00125043C261DF0D102E0ED
:101F7000302303700122104670BD00BF868E010819
:101F8000978E010830B562B1531E013821FA03F46F
:101F900004F00104303413F1FF3300F8014FF5D29F
:101FA00015E089B101241F2321FA03F505F001058D
:101FB00004B125B1303585540024013200E00124FC
:101FC00013F1FF33F0D202E03023037001221046F8
:101FD00030BD074B9B788342064B02D8B3F898017B
:101FE0007047184490F88221034B33F82200704761
:101FF000F80D00202C240020D80D0020034B18449D
:1020000090F88221024B33F8220070472C240020E4
:1020100030210020034B184490F88221024B33F802
:10202000220070472C240020580E0020034B184437
:1020300090F88221024B33F8120070472C240020C4
:102040002C0F002010B5094A094913688C681268E2
:102050009342F8D1074A106811684FF47A725043DE
:10206000001BB0FBF1F002FB030010BDE8230020D1
:1020700010E000E0000B0020034B4FF4805208B149
:102080001A6170475A61704700080140034B4FF4D2
:10209000805208B15A6170471A61704700080140C8
:1020A000014B33F810007047B00D002007B50F4BFF
:1020B00002A941F8040D18684368984703680C4A60
:1020C000B3F5967FC8BF4FF0FF330193019B1360B8
:1020D000084B18680DF060FB0022074B0DF0ECFC7C
:1020E0000DF0A2FE03B05DF804FB00BFA0120020BB
:1020F00044010020741E00200000594008B5094B1F
:10210000B0F5967FC8BF4FF0FF301860064B1868D7
:102110000DF042FB0022054B0DF0CEFC0DF084FECD
:1021200008BD00BF44010020741E0020000059407B
:10213000034B184490F88221024B33F81200704789
:102140002C2400203C1F0020014B0D221A707047E8
:102150006001002003789B070AD5826C831883F8FE
:102160005811C36B0132B2FBF3F103FB11238364FB
:102170007047037813F001030BD0426C036C9A4252
:1021800005D09CBF806B1218D31AD8B270470020BC
:10219000704718467047037810B513F001030446E2
:1021A0000FD0FFF7E6FF68B1236CE21892F85400F5
:1021B000A26BC0B2013A934234BF013300232364BF
:1021C00010BD184610BD826CC06C121A50425041AE
:1021D000704701707047034B00290CBF0221012199
:1021E000D9617047DC0F00200A4B10B553F820006E
:1021F00000244268138823F001031B041B0C138086
:1022000083681C800368198013889BB243F0010324
:10221000138010BD040D0020024B53F820301B68C2
:1022200019807047040D0020074BA1F57A7153F80F
:1022300020304FF47A701A689B894B4393FBF0F37C
:102240009BB21380704700BF040D0020012070472F
:1022500001207047054A064B128808B11A6100E058
:102260005A61044B00221A70704700BF841F00207F
:10227000000C01408F21002008B502F100620846E1
:1022800002F5F8311A460DF0BFF8012008BD038BA6
:1022900002899A4288BF8382838A03837047C28AF5
:1022A000838A934224BF01895218D31A9BB2581EC5
:1022B00080B27047426B08B512B15368984708BDA9
:1022C000C069FFF7ECFFC0B208BD828AC38A9A4298
:1022D0003CBF00891218D31A98B2704770B50379C1
:1022E0000446C3F34103012B0D4606D0022B33D124
:1022F000FFF7EBFF628B134618E0C38A808A002247
:10230000834229D02169CE5CA17E8E4201D1AA42AE
:102310001FD8218901339BB28B4228BFC1EB030335
:1023200002F1010228BF9BB292B2E9E79D4202D9B5
:1023300013449BB2FAE7834208D2E28A134422890B
:102340009BB29342E38205D39B1A02E0854203D8F5
:10235000A38AE382012070BD002070BD70B5858A1C
:1023600003890135ADB2AB4298BF0025C38A04464C
:10237000AB420E4607D10121FFF7B0FF18B9054B5C
:1023800004221A7070BDA28A236901209E54A5827E
:1023900070BD00BFF02A00200346406910B588B127
:1023A00002685A611A69026002B150609A6800F1CD
:1023B0000804013218619A60204600211A6814F05E
:1023C0008DFA204610BD10B511E90C00A1F10804EA
:1023D0000BB11A6000E0026151F8082C02B15360A1
:1023E000436941F8083C002341F8043C8368446198
:1023F000013B836010BD09B11030E4E77047002352
:1024000030B5054618469AB28A4217D2EA5C80EA8D
:102410000220082210F4004F4FEA400418BF84F451
:10242000815002F1FF3218BF80F0010092B214BF58
:1024300080B2A0B2002AEDD10133E4E730BDF0B59F
:1024400085B001AF0D4606461446384600210B22E2
:1024500014F044FA65B30022531C092D99B209D92E
:102460000A20B5FBF0F100FB11503030B8540D4696
:102470001A46F1E704A80244303502F80C5C14B1A6
:10248000A14203D3002426441A4609E0641AA4B2E8
:10249000002291B28C42F6D03021B1540132F8E7DB
:1024A000013AB95C06F8011B002AF9D118190AE0B3
:1024B000284601303318302203F8012C1CB1013CAE
:1024C000A4B2002CF5D105B0F0BD2DE9F74F0746B9
:1024D0000E469046002498F80030002B00F0F9805A
:1024E000252B40F0F18000231D4618F8012F642AA7
:1024F0003AD017D8392A06D8302A25D2252A40F0D2
:10250000E5803A55E1E0622A25D000F2D980582AC8
:1025100040F0DC8032683819131D336011680123E4
:102520002A4650E06C2A01D10123DEE704D8662A4E
:102530004CD0692A18D0C9E0752A2DD0782A35D018
:10254000732A40F0C3809EE00A214D43303AADB279
:102550001544ADB2C9E732683819131D11683360EC
:102560002A46FFF70FFD1FE032681168131D00298E
:10257000336008DA2D2304F101093B5549421DB1AE
:10258000013DADB200E0A14607EB09002A46FFF786
:1025900056FF09EB000499E032683819131D1168E1
:1025A00033602A46FFF74BFF04448FE03268381946
:1025B0002BB1131D3360116800232A4603E0111D5F
:1025C000316011682A46FFF7A9FCEDE7336807EB95
:1025D0000409073323F0070303F10802D3F804A02A
:1025E00032601A68514601921046002300220DF015
:1025F000ABFB30B12D233B550AF1004A4FF0010BE4
:1026000000E08346514601980DF0EEFB0346194663
:1026100009EB0B0000220093FFF711FF584480B232
:102620002E2209F80020009B00F1010B18460DF046
:10263000A3F802460B46019851460CF05FFF1FFAC3
:102640008BFB002D08BF062502460B464FF0000A03
:10265000104619460022214B0DF004F90AF1010A37
:102660001FFA8AFAAA4502460B46F1D10DF0BCFBCF
:10267000D944014652464846FFF7E1FE58441FFA46
:1026800080FB5C4422E033681A1D3260D3F800906E
:10269000B9F1000F1AD0484614F0A4FA03197E2BA2
:1026A000054607EB040003D8494614F03DFA05E05F
:1026B000C4F17F0549462A4614F0EEFA2C4405E0A1
:1026C00033681A1D1B6832603B55013408F101085C
:1026D00001E73B5503B0BDE8F08F00BF0000244088
:1026E0000EB403B503AB53F8042B02A941F8043D23
:1026F000FFF7EBFE02B05DF804EB03B0704770B576
:10270000054C054623689847064623689847801B72
:1027100080B2A842F9D370BDF4090020034B1968B8
:102720001A68521A92B28242FAD37047EC23002000
:10273000013A2DE9F8430C46072A30D8DFE802F0C9
:1027400004080C12191E222603880B8043880DE012
:1027500043880B80038803E003885B420B80438837
:102760005B4203E043885B420B800388638083887D
:1027700014E003885B420B8043880CE043880B80A5
:10278000038808E003880B80438803E043885B42AA
:102790000B8003885B42638083885B42A380304B5D
:1027A0001B78002B5AD1B4F900000DF047FC80468D
:1027B000B4F902000DF042FC0746B4F904000DF034
:1027C0003DFC284D0646296840460DF08BFCE96823
:1027D000814638460DF086FC014648460DF07AFBEE
:1027E000A969814630460DF07DFC014648460DF052
:1027F00071FB10F06DFA6968208040460DF072FCA4
:102800002969814638460DF06DFC014648460DF0B9
:1028100061FBE969814630460DF064FC014648469B
:102820000DF058FB10F054FAA968608040460DF096
:1028300059FC6969804638460DF054FC0146404613
:102840000DF048FB296A074630460DF04BFC014667
:1028500038460DF03FFB10F03BFAA080BDE8F8834E
:1028600017000020580B002008B5436B0BB15B69C3
:10287000984708BD426B08B512B1D368984702E08B
:10288000426804309047012008BD034BDA6882F0AB
:102890001002DA60704700BF000C0140024BDA689A
:1028A00082F00802DA607047000C014008B5024B64
:1028B0001B68984708BD00BFF42A002009B1012019
:1028C00000E00846F2E72DE9F0410F88002347FABF
:1028D00003F2D2072BD58A7803F0070512F0100F08
:1028E00018BF91F803C002F00F0618BF46EA0C06A5
:1028F000AD004FF00F0C0CFA05FC06FA05F5DC08EC
:1029000050F82480282A28EA0C0C45EA0C0540F8E7
:10291000245005D101229A40C46824EA020205E04D
:10292000482A04D101229A40C4682243C26001337C
:10293000102BCCD1BDE8F08138B500240E4D2146D6
:102940000E4870222C7013F0C9FF21460C4B0B442B
:1029500093F9D2207AB1094853F8D04F0A180C5095
:1029600098889B79073193712B78702903F10103C3
:1029700090802B70EAD138BD740C0020750C0020BB
:102980002C24002010B50024094B1B78A3420DD93C
:10299000084B33F81410084B1B78A34203D9074B9C
:1029A00020461B6898470134E4B2EDE710BD00BF34
:1029B000982900209A290020030D0020AC0D00204A
:1029C0002DE9F04F0C68836889B0D0F800A0D0F8EA
:1029D00004800646204603938B4610F043F90746D1
:1029E000204610F0B3F9DBF804408146204610F091
:1029F00039F90546204610F0A9F9DBF8082004460D
:102A00001046019210F02EF9019A8346104610F0FC
:102A10009DF93946029058460DF064FB3946049002
:102A200002980DF05FFB5946059048460DF05AFBA1
:102A30000299069048460DF055FB294607905846E6
:102A40000DF050FB014650460DF04CFB21468346ED
:102A500006980DF047FB014605980DF03BFA01463C
:102A600040460DF03FFB014658460DF033FA214633
:102A7000834604980DF036FB014607980DF028FABE
:102A8000014603980DF02EFB014658460DF022FA40
:102A90003060029905F100400DF024FB01465046DC
:102AA0000DF020FB2146834607980DF01BFB0146E5
:102AB00004980DF00DFA014640460DF013FB014657
:102AC00058460DF007FA2146834605980DF00AFB9B
:102AD000014606980DF0FEF9014603980DF002FB41
:102AE000014658460DF0F6F92146706050460DF04B
:102AF000F9FA2946044609F100400DF0F3FA0146BF
:102B000040460DF0EFFA014620460DF0E3F9394654
:102B1000044628460DF0E6FA014603980DF0E2FA65
:102B2000014620460DF0D6F9B06009B0BDE8F08F3F
:102B30002DE9F84F384E04463768384610F092F8C1
:102B40000546384610F002F976688046304610F0A7
:102B500089F88346304610F0F9F8D4F80490064618
:102B6000294648460DF0BEFAA768824641463846D7
:102B70000DF0B8FA014650460DF0AAF921688246D8
:102B800058460DF0AFFA4146044648460DF0AAFA01
:102B900031460DF0A7FA014620460DF09BF931466B
:102BA000044638460DF09EFA29460DF09BFA014680
:102BB00020460DF08FF90146504610F057F917499D
:102BC0000DF090FA0CF0FAFD11A3D3E900230CF0FC
:102BD00073FF134B0446D3F8B0000D460CF0EEFD26
:102BE00002460B46204629460CF08AFC00220D4B7B
:102BF0000CF062FF0DF018F910F06AF883B21904B6
:102C000044BF00F5B4739BB218B2BDE8F88F00BFA3
:102C1000182D4454FB210940401800200000E144D5
:102C2000180000200000244080EAE073A3EBE0736A
:102C30008B4206DB002801DD401A704702D00844B1
:102C400070470020704770B50546441E14F8011FF8
:102C500061B1074E304613F0EDFE0028F6D0861B1A
:102C60000448631B304480F88231EFE770BD00BF39
:102C7000239B01082C24002070B540F26C55284697
:102C800013F06AFB044660B3174E4C213068C369E9
:102C90009847024610B330682146066A2B46B04773
:102CA000E0B123784C2B19D16388AB4216D123793C
:102CB000BE2B13D194F86A35EF2B0FD100231A469F
:102CC00040F26C518B4203D0E15C01334A40F7E79C
:102CD00022B9204613F048FB012070BD204613F0B6
:102CE00043FB002070BD00BF9C170020024B1A68F8
:102CF00010431860704700BF800B00202DE9F041A1
:102D000002780346202A00F10100F9D0092AF7D001
:102D10002D2A02D10346414D04E02B2A08BF034669
:102D20004FF07E551E460024334616F8012BA2F1C3
:102D30003007F9B209290DD8394920460DF0D2F9EA
:102D4000044638460DF07AF9014620460DF0C2F8E7
:102D50000446E9E72E2A17D1314F334616F8010B06
:102D60003038C2B2092A0FD80DF068F939460DF093
:102D70006DFA014620460DF0ADF829490446384663
:102D80000DF0B0F90746E8E71A7802F0DF02452AAD
:102D900038D15A782D2A02D10233012604E02B2A99
:102DA00014BF013302330026013B002713F8012F23
:102DB000303AD1B2092903D80A2101FB0727F5E7E8
:102DC000B7F59A7F28BF4FF49A77B8464FF07E51F7
:102DD000B8F1070F07D9084612490DF083F9A8F199
:102DE00008080146F4E707F0070737B108460C4921
:102DF0000DF078F9013F0146F7E72EB120460DF0BE
:102E000025FA04E04FF07E5120460DF06BF90146A3
:102E100028460DF067F9BDE8F08100BF000080BFD3
:102E20000000204120BCBE4C70B50646B6FBF2F453
:102E30000846154614B12046FFF7F6FF05FB14645B
:102E4000024B1B5D00F8013B70BD00BFA88E01085E
:102E500090F85B3210B57BB990F85A3290F859224D
:102E6000934209D201219940B0F8604201332143D5
:102E7000A0F86012DBB2F3E710BD90F862321BB12C
:102E8000D1F1010138BF0021D0F854315A689B6854
:102E900009B11361704753617047F8B5101A0C46B9
:102EA0001F460DF0CBF80546381B0DF0C7F8184B40
:102EB000079E19680DF016F92946044628460DF0BC
:102EC00011F92146074620460DF00CF90146384617
:102ED0000DF000F810F06AF90E490DF003F90DF04D
:102EE000C7FA069B2146186005F100400FF0BEFFAF
:102EF00009490DF0F7F809490CF0ECFF0DF0B8FAAC
:102F00000028BCBF00F50C40A0303060F8BD00BF09
:102F1000680100202C7D8E3FA00CB34500A00C461C
:102F200010B50DF08BF8002104460DF097FA08B1AA
:102F3000204601E004F1004005490DF087F90549FC
:102F40000DF0D0F80FF08EFE034B186010BD00BFDF
:102F50008096184B35FA8E3C6801002038B50C4D30
:102F6000EB7AA3B10B4B1B78042B10D90A4B0B4CFB
:102F700018685B6820606360FFF7D2FF084B1A880F
:102F8000084B1A80084B1B88A36001232B7338BDA4
:102F9000E50C0020D1220020E01A0020C41A0020F5
:102FA0008E1A0020621E0020DC1A002044F25063BA
:102FB000984203DDA0F50C40A0387047034B9842BF
:102FC000BCBF00F50C40A030704700BFB0B9FFFF98
:102FD00070B52D4C2D4D60790DF02CF82C490DF06D
:102FE00035F92860E07B0DF025F829490DF02EF920
:102FF000284E6860EE60A0790DF01CF826490DF0AF
:1030000025F9264D2860207C0DF014F820490DF09C
:103010001DF96860A07E0DF00DF821490DF016F93C
:10302000EE60A860E0790DF005F81B490DF00EF98F
:103030001C4D2860607C0CF0FDFF15490DF006F971
:103040006860E07E0CF0F6FF15490DF0FFF8164BB6
:10305000A8601B7CEE60ABB120790CF0EBFF0E4951
:103060000DF0F4F8114D2860A07B0CF0E3FF084947
:103070000DF0ECF86860207E0CF0DCFF08490DF0E4
:10308000E5F8A86070BD00BFB4290020341E002000
:103090000000C8420000FA4400002041441E002005
:1030A00000007A44D4180020E50C0020C01800204D
:1030B0002DE9F0472F4A002392F82050D47F03FBDC
:1030C00003F01938684300F6C4105843604340F6D3
:1030D000C41190FBF1F0284921F813000133072BAC
:1030E000EDD192F82110254B0A274F43B3F84051F8
:1030F000B3F8429192F82260C1F1640C48425FFA41
:103100008CFCC6F16408C5EB090980B2002384B2C7
:1031100022B2002A04DC002C14BF0C46012400E07B
:10312000644602FB02FA64430AFB06FA9AFBF4F4D3
:10313000444454434FF00A0A94FBFAF43C4424B24A
:1031400004FB09F44FF47A7294FBF2F40C4A2C4419
:103150009C5202335044182B80B2D8D1054BBDE8A5
:10316000F0471B78012B18BF064A074B08BF074AD8
:103170001A602DE7B4290020701800202C240020AC
:103180008818002099B900085C01002005BC0008DF
:103190000449054B0968002218701A615961DA6008
:1031A0001A767047EC230020DC0F00200A4B1B78B6
:1031B00083B10A4B9A8998811A89D007FCD5074BAD
:1031C0009889C0B2054B1A899107FBD51A89120656
:1031D000FCD4704718467047120B0020003800409E
:1031E000054B1B7833B1054B4FF4805208B15A613F
:1031F00070471A61704700BF120B0020000C01409D
:1032000038B5044601200D46FFF7EAFF2046FFF7D8
:10321000CDFF2846FFF7CAFF0020FFF7E1FF01209E
:1032200038BD054B1B78834204D9044B53F820303A
:103230001B681980704700BF340D0020380D002036
:1032400003280E4B09D80E4A12888A4205D2012261
:1032500002FA00F01A78104318701B780F2B0BD16C
:10326000064B00221A70074B198808B2142802DD99
:103270001439198070471A80704700BF0C1900205C
:1032800040010020881A00202DE9F34700F12407AF
:10329000044638460D46FEF7FAFF24238DF8003029
:1032A0004D238DF801303E238DF802302B78002617
:1032B0003846694605228DF803608DF8043007F022
:1032C000BDF830B19DF80430A4F84A6084F8483065
:1032D00008E0A38F2387A38DA387AB4B1A780AB985
:1032E00004221A702B78772B00F03C8200F2668162
:1032F0006A2B00F0A78400F29C80452B00F0D58754
:1033000018D8422B00F06E8709D8402B00F0B58703
:10331000412B08BF002300F0BC8700F0D8BF432B2F
:1033200000F0CA86442B40F0D287984B01221A70D5
:1033300000F0D1BF662B00F04D8372D8642B00F0F3
:103340002083652B40F0C387914B204619880AF0F3
:10335000D1F9904B204619880AF0CCF98E4B2046C3
:103360001B68C3F3C001C3F38002890041EA420134
:10337000C3F340021143C3F3401241EAC20103F018
:10338000100319430AF0B6F9844A1579D378AD00D1
:1033900045EA430553781D43937945EAC3055379BC
:1033A00045EA4315537A45EA83157D4BD97945EAB9
:1033B000C115197A45EA0125597A45EA4125D1799D
:1033C00045EA8125117A45EAC125117D927A45EABF
:1033D000016545EA02355A7B002145EA42359A7B70
:1033E00045EA82351A7C45EA02451A7945EA021512
:1033F0005A7C45EA42459A7C45EA8245DA7C45EAB0
:10340000C2451A7D45EA02555A7D45EA42559A7DE4
:10341000DB7D45EA825545EAC355624B18780B4679
:10342000C0E2682B00F0008400F2028420465E496E
:10343000FCE3702B00F06E843FD86D2B00F03584D8
:1034400012D86B2B00F021846C2B40F04087574D35
:10345000204629880AF04EF9204669880AF04AF980
:103460002046534B00F028BC6E2B00F027846F2BB6
:1034700040F02D874F4D2046E97F09F0E3F895F89D
:103480002010204609F0DEF895F82310204609F0B8
:10349000D9F895F82510204609F0D4F895F82610AB
:1034A000204609F0CFF895F82110204609F0CAF817
:1034B000204695F8221000F0DDBE732B00F08084CA
:1034C0005AD8712B00F05081722B40F000873A4D92
:1034D0002046B5F898110AF00DF9B5F840112046CC
:1034E0000AF008F9334EB5F8421120460AF002F905
:1034F000B5F8441120460AF0FDF8B6F80A11204646
:103500000AF0F8F895F8AB11204609F09BF895F809
:10351000AC11204609F096F895F8AD11204609F057
:1035200091F895F87C11204609F08CF895F8A111D6
:10353000204609F087F80021204609F083F8B6F903
:103540002A100A2391FBF3F189B220460AF0D2F83F
:1035500095F87D11204609F075F895F87F11204601
:1035600009F070F895F87E11204609F06BF82046B6
:1035700095F8801100F07EBE752B00F0DE8300F21E
:1035800028840025F0E300BFF02A00207C1D0020E5
:10359000FE2A0020140B0020800B0020E50C0020E8
:1035A0006C1A0020E92000208C0100201019002056
:1035B0008E1A0020B42900202C240020CF2B00F0EC
:1035C000598100F29380C82B00F0D08054D8A02BF2
:1035D00000F0EC8448D8782B00F02C827B2B40F054
:1035E0007686964B964D93F8A011204609F02AF85E
:1035F000B5F8201120460AF07DF8B5F822112046D2
:103600000AF078F8B5F8241120460AF073F8B5F8F6
:10361000261120460AF06EF8B5F82A1120460AF065
:1036200069F8B5F82C1120460AF064F8B5F82E11A7
:1036300020460AF05FF8B5F8301120460AF05AF833
:1036400095F8321120460AF025F895F836112046F3
:1036500008F0F8FF204600210AF01CF8204600215F
:103660000AF018F800F02ABEA42B00F0AB84A62BB9
:1036700000F0018500F02BBECB2B71D009D8C92BEF
:1036800000F09180CA2B40F022866E4B03F10A01B4
:10369000AFE0CD2B00F0458400F24D84AB6813F809
:1036A000012BAB60664BDA77AA6812F8011BAA609F
:1036B00083F82010AA68511CA96051780232AA60D0
:1036C00083F82510AA6812F8011BAA6083F8261057
:1036D000AA6812F8011BAA6083F82110AA6812F8E0
:1036E000011BAA6083F8221000F0F5BDD82B00F072
:1036F000558217D8D22B00F02A8107D8D02B00F0A2
:103700000784D12B00F0C48300F0E1BDD42B00F07E
:10371000B281C0F02F81D62B08BF002600F00D81AA
:1037200000F0D5BDF12B00F0C8810CD8EF2B2FD0C5
:10373000F02B40F0CC85424D2046E98D09F0DAFFB0
:103740002046A98D9EE2FA2B00F0FD83FE2B00F0AF
:103750000484F22B40F0BB85384B03F17001D6E1B5
:1037600000265AE0002522E30025ECE20026284648
:1037700005F071FB344B98530236102EF7D1334BC2
:1037800000221A80324B186806F0D8FA00F0A3BD68
:10379000284605F060FB2A4EF085284605F05BFBC5
:1037A000B08500F098BDAB68284613F8012B294E70
:1037B000AB60294BDA72AB6813F8012BAB60274B77
:1037C0001A7005F039FB3060284605F035FB706053
:1037D000284605F040FB224B1880284605F03BFBAD
:1037E000204B1880204B1A7942F002021A7100F027
:1037F00072BDAA68013312F8010B8B42AA6058709F
:10380000AA6812F8010BAA60D872AA6812F8010B14
:10381000AA605875EDD100F05EBD144B1B789E4236
:1038200080F05985124B284616F8038005F013FBEB
:10383000034B013603EB8803D864EEE72C24002009
:10384000B4290020B3290020B00D0020881A0020E0
:10385000FC0C0020E01A0020E50C0020D122002002
:10386000DC1A00202C1C002010190020E920002068
:10387000D0200020284605F0EEFA6FF4AF63BC4E6E
:10388000C318C62B98BFA6F89801284605F0E3FA9E
:10389000A6F84001284605F0DEFAA6F842012846BF
:1038A00005F0D9FAA6F84401284605F0D4FADFF865
:1038B000E882AB68A8F80A0113F8012B2846AB6030
:1038C00086F8AB21AB6813F8012BAB6086F8AC210E
:1038D000AB6813F8012BAB6086F8AD21AB6813F829
:1038E000012BAB6086F87C21AB6813F8012BAB6031
:1038F00086F8A121AB680133AB6005F0ACFA0A236E
:103900005843AB68A8F82A0013F8012BAB6086F87F
:103910007D21AB6813F8012BAB6086F87F21AB6883
:1039200013F8012BAB6086F87E21AB6813F8012BEE
:10393000AB6086F8802100F0CEBC284605F08BFAFB
:103940008C4B98530236102EF7D100F0C4BC8A4B32
:103950005A78002A40F0BF84AB68002013F8011B9E
:10396000AB60834B022994BF83F8681583F8682500
:103970000146EFE2284605F06EFA804B188000F011
:10398000AABCE721204608F05DFE794B2046597914
:1039900008F058FE0421204608F054FE20467849DD
:1039A00000F092BC83420CD2764A9E5C012202FA5D
:1039B00006F62E4218BF9A4003F1010318BF1143C7
:1039C000F0E7204609F066FE694B204693F868153B
:1039D00000F050BC6C4B0025B3F89C306B4EB3F537
:1039E000806F0CD9715F082391FBF3F1204689B2F7
:1039F000023509F07FFE062DF4D1002507E0715B4A
:103A00002046023509F076FE062DF8D1F5E7604B29
:103A10002046595B023509F06DFE062DF7D10025D1
:103A20005C4B2046595B023509F064FE062DF7D148
:103A300000F051BC584D05F15006B5F8B8102046BD
:103A400009F058FEB5F8BA10204609F053FEB5F853
:103A5000BC10204609F04EFE95F8BE10204608F036
:103A6000F1FD0A35B5F8B610204609F043FEB5421F
:103A7000E3D100F030BC484E06F15008284605F06E
:103A8000EAF9A6F8B800284605F0E5F9A6F8BA0064
:103A9000284605F0E0F9A6F8BC00AB68284613F804
:103AA000012B0A36AB6086F8B42005F0D4F9A6F8ED
:103AB000B6004645E2D100F00EBC2D4D05F1700672
:103AC00095F8D010204608F0BDFD95F8D11020469D
:103AD00008F0B8FD95F8D210204608F0B3FD95F82F
:103AE000D310204608F0AEFD95F8D410204608F01B
:103AF000A9FD95F8D510204608F0A4FD073595F8E6
:103B0000CF10204608F09EFDB542D9D1E3E3AA6864
:103B1000073312F8010BAA6083F8C900AA6812F8EB
:103B2000010BAA6083F8CA00AA6812F8010BAA6008
:103B300083F8CB00AA6812F8010BAA6083F8CC00C6
:103B4000AA6812F8010BAA6083F8CD00AA6812F8DF
:103B5000010BAA6083F8CE00AA6812F8010BAA60D4
:103B600083F8CF008B42D2D1FEF7E6FEB3E300BF6D
:103B70002C24002016190020E50C0020BC1A00207F
:103B80000C0000C0D020002018000020EE1B0020F8
:103B90002E19002034190020B4290020AB682846D3
:103BA00013F8012BA04EAB60A04B83F8A02105F0C9
:103BB00052F9A6F82001284605F04DF9A6F8220191
:103BC000284605F048F9A6F82401284605F043F9EF
:103BD000A6F82601284605F03EF9A6F82A0128464F
:103BE00005F039F9A6F82C01284605F034F9A6F8B5
:103BF0002E01284605F02FF9A6F83001284605F0D9
:103C00001BF9AB68284613F8012BAB6086F8362108
:103C100005F012F9284605F00FF9284605F00CF9D1
:103C2000284605F009F956E381492046102287E02D
:103C30000025804B2046595B023509F05BFD102DB5
:103C4000F7D148E37C4B2046D97A08F0FBFC7B4B4C
:103C50007B4D1978204608F0F5FC2968204609F0CC
:103C600019FD6968204609F015FD764B2046198834
:103C700009F040FD744B2046198809F03BFD734B59
:103C80002046598D09F036FD25E3714B20461988F1
:103C900009F030FD6F4B2046198809F02BFD6B4B66
:103CA0002046197901F00101E4E26B4B20461968C6
:103CB00009F0F0FC694B20461988E3E7684B204681
:103CC000B3F900104FF6FF7581F30801C9B208F08F
:103CD000B9FC644B20461968A942A8BF294621EACD
:103CE000E17189B209F006FD5F4B2046198809F0A1
:103CF00001FD4E4B93F87C215C4B19680029B8BF3D
:103D000049420AB10A235943A942A8BF294620467D
:103D100089B2B7E7564D05F10A06013569782046A4
:103D200008F090FCE97A204608F08CFC2046697D7A
:103D300008F088FCB542F0D1CDE24E492046302251
:103D400004F0F0FAC7E24C4B1B789D4280F0C3822E
:103D50004A4B2046EA5C344B013503EB8203B3F84F
:103D60004C1009F0C7FCEEE7434B1B789D4280F2F4
:103D7000B282424B3F4AEB5C0C2101FB03235E6B9A
:103D80000135304612F02EFF314682B2204604F053
:103D9000C9FAE9E70C33B3F5967F07D0384A1A44DD
:103DA000127A8A42F6D1204608F04CFC0135324B9B
:103DB0001B789D4280F08F82304BE95C0023EDE759
:103DC0000125E9B22046013508F03CFC092DF8D167
:103DD00081E2AB6813F8011BAB6009B9294B02E023
:103DE000102903D1284B1E685D6801E000252E468E
:103DF000204608F027FC3146204609F04BFC2946B6
:103E0000204609F047FC214B2046196809F042FC86
:103E10000021204609F06EFC0021204609F06AFCD2
:103E20002046002126E200BFB42900202C240020D7
:103E30009A290020B00D0020E50C0020D12200209E
:103E4000E01A0020DC1A00202C1C00201019002091
:103E50002E1C0020301C0020A41A0020F41B00207F
:103E6000CC1B0020E01B0020861A0020D41B002061
:103E7000B3290020D87C0108E9200020D0200020B0
:103E8000087D0108C41A0020D01A0020A01A0020C2
:103E9000AB68284613F8018BAB6004F0CDFF824677
:103EA000284604F0C9FF8146284604F0C5FF0646AF
:103EB000284604F0D0FF284604F0CDFFAB6801335C
:103EC000AB60B8F1000F0FD1B24B0122C3F80490E0
:103ED000C3F800A0B04B83F807801A73002E00F0DF
:103EE000FA81AE4B1E60F6E1B8F1100F40F0F3819D
:103EF000AB4BC3F800A0C3F804900EB1A74B1E60F3
:103F0000A748A84B0222011D1A7009F01DFCE2E12E
:103F1000A14B5B78002B40F0DE81012008F0B2FC61
:103F2000D9E19D4B5B78002B40F0D5819E4B4FF43F
:103F3000C8721A80CFE1984B5A78002A40F0CB81A2
:103F400001229A73C7E1944B5B78002B40F0BF814C
:103F50000020012108F046FCBDE1944B94499A8968
:103F6000944B32B10A20B2FBF0F00988821A0A445D
:103F700000E00A889A85904A904812790068DA85AC
:103F80008F4A002511688F4AB1FBF2F1B0FBF2F2C3
:103F90004FF47A7000FB01225A868B4B2046595B06
:103FA000023509F0A7FB082DF7D194E1874D204693
:103FB000296809F06FFB6968204609F06BFB204611
:103FC000A96881E17B4E204696F834900025494649
:103FD00008F038FBB0464D4517D27D4E2046715D46
:103FE00008F030FB06F12003595D204608F02AFB5B
:103FF00006F14003595D2046603608F023FB715DF1
:10400000204608F01FFB0135E5E7684B93F8AB311C
:10401000012B40F060816F4A002392F878501046DF
:1040200088F83450AB4202F1010215DA684992F87F
:10403000786092F888E05E5401F1200603F806E00B
:1040400092F898E001F1400603F806E092F8A860C3
:1040500060315E540133E5E7D0F8BC300022C8F887
:10406000B830D0F8C0303021C8F8BC300120134639
:1040700008F078FA2FE1584B20461E684D4D16F097
:10408000200609D0002109F005FBD5F8BC10D5F8B1
:10409000B8302046C91A04E0314609F0FBFA204640
:1040A000314609F0F7FAD5F8C010204609F0F2FAC7
:1040B0002046D5F8C41007E1AB683C4E13F8012B3D
:1040C0002846AB6000237271B36004F0B5FEB3689C
:1040D000DFF80C911843AB68B06013F8012B284649
:1040E000AB6086F8942104F0B6FEA6F85601284687
:1040F00004F0B1FEA6F85801284604F0ACFEA6F87C
:104100005A01284604F0A7FEA6F87801284604F0D4
:10411000A2FEA6F87A01284604F09DFEAB68A6F838
:104120004E0113F8012B2846AB6089F82320AB68B9
:1041300013F8012BAB6089F82420AB6813F8012B2E
:10414000AB6086F88121AB6813F8012BAB6089F86E
:10415000492004F080FEB2898046904213D01F4B64
:104160002AB148B11868414605F05AFE09E018B175
:1041700018680321424602E018680121642205F014
:1041800065FEA6F80C80AB6813F8012BAB6089F8CC
:104190003020A0E0C41A0020E50C0020A01A002066
:1041A000D01A0020C01A0020F22A00202C2400205F
:1041B000FE2A00201019002000240020F009002011
:1041C000EC09002040420F003C190020E0090020CB
:1041D0004519002000100020800B002084170020CB
:1041E000B4290020504D2046697908F02BFAA968BF
:1041F000204609F04FFA95F89411204608F022FA6B
:10420000B5F85611204609F075FAB5F85811204650
:1042100009F070FAB5F85A11204609F06BFAB5F8B2
:1042200078112046414E09F065FAB5F87A1120461A
:1042300009F060FAB5F84E11204609F05BFA96F8DD
:104240002310204608F0FEF996F82410204608F0C6
:10425000F9F995F88111204608F0F4F996F849101B
:10426000204608F0EFF9A989204609F043FA96F8AC
:104270003010204608F0E6F92DE000252A4B2046B4
:104280002B4493F88211013508F0DCF9082DF5D1A3
:1042900021E0AA6812F8011BAA60234A1A440133DC
:1042A000082B82F88211F4D115E00025204B20461E
:1042B000595D013508F0C6F90B2DF7D100212046D4
:1042C00009F0E8F92046002109F0E4F903E020466E
:1042D000294608F0DDF9A28FA38D033292FBF3F19A
:1042E00003FB1123616BB4F84A203846CA5494F892
:1042F000481094F84A30594084F84810FEF72EF8D8
:10430000A38D28B1A3876368D86905F017FD07E07E
:10431000A28FA387074B22871A780AB904221A7042
:1043200002B0BDE8F08700BF2C240020B429002093
:10433000CD8E0108F02A00202DE9F04FAE4E85B059
:10434000B368AE4F13F0080803D1AD4C4546A14603
:1043500031E0002439E0AB4BE8B21B689847A0F28B
:10436000EE2240F2DC5392B29A4288BFA24BD9F8B7
:10437000902088BFB3F89801A34B1340002B03DAB9
:10438000013B63F0030301339D4A03EB850322F8ED
:1043900013002288638801351344A288083413442B
:1043A00034F8022C13441BB2042293FBF2F327F8D7
:1043B000083008F1020896F8AA319D42CBDBD9F803
:1043C00090300133C9F890300BE096F8AA319C4246
:1043D00007DA8C4BE0B21B68984727F814000134C9
:1043E000F3E7B368864C13F4804F04D094F894300C
:1043F0000BB903F079FF96F8A1217F4BE2B10332AC
:1044000037F91200B3F8A251B0F57A7003D4A8427C
:10441000A8BF284600E000200BF010FE804628468A
:104420000BF008FE014640460BF010FF77490BF0F9
:1044300059FE0CF043F814E093F8A40190B1744ACB
:10444000D179744A32F81120B3F8A81192B2521AF5
:104450009002B3F8A631801A90FBF3F000B280F31B
:104460000A0080B2B368A4F8AE0013F4024F63D020
:10447000634B694DB3F8B09095F80831052253436A
:104480000FFA89F898453ADD644B5A789B46002A22
:1044900035D0594BB3F898313B807B80BB80B5F861
:1044A0000A31FB805E4B1A789A46032A05D95D488B
:1044B00002F0D0FB03238AF8003095F8082195F824
:1044C0000931134405225343984513DD9BF812B07C
:1044D000BBF1000F0ED103F007FF504B83F800B083
:1044E0009AF80030042B05D94F4802F0B3FB4C4B2F
:1044F00004221A70B4F8B2300133A4F8B23095F83F
:10450000083105225343984512DD444D95F801804A
:10451000B8F1000F0CD103F0E7FE85F80080404DA4
:104520002B78042B04D9404802F094FB04232B7011
:1045300009F10109A4F8B0900022B6F89A11B6F872
:104540009C511346B85E9B088842C4BF63F07F034A
:10455000DBB20232A842B8BF43F04003082AF1D1CF
:1045600094F8B400264A984205D192F8B500F9288B
:1045700004D8013000E0002082F8B50084F8B4309F
:10458000B3681D4A13F48048234DB7F906300AD0AA
:10459000B2F89811B2F84C21881A834206DD0A4419
:1045A000934206DB02E08B4203DB17E04FF000088A
:1045B00014E00023C4F8C431C4F8C831C4F8CC31C5
:1045C000C4F8C030C4F8C430EB6C2BB10C4B93F87A
:1045D0009430002B40F07C834FF00108EB6C43B328
:1045E00094F894302BBB0D4B5B7813B396F89F3146
:1045F000E3B103F079FE1CE02C240020B00D002074
:10460000D8190020D40D00200300008000C07F4492
:10461000440B00204C0B0020B4290020E50C0020A6
:1046200060010020407E0108537E0108B8F1000FB0
:10463000DFD194F8B5208C4B142A40F0A6808B4A29
:1046400050789146C0B1EA6C2AB993F8B4305F2B28
:1046500001D103F049FE96F89E31002B00F09580C1
:10466000EB6C002B40F0918094F8B4307D2B40F03F
:104670008C8003F039FE88E093F8B420572A15D1D6
:104680007B4B4FF47A721A80B368DB0501D5FEF7D5
:1046900065FC784B1B68580702D5774A0A211180C0
:1046A00013F0080334D1A4F8B63031E0B1684907FB
:1046B00025D55A2A23D193F8B8202AB1012283F8AC
:1046C000B80083F8B92023E093F8BA20DFF8C0A13E
:1046D00082F0010283F8BA209AF8003032B10A2B36
:1046E00016D9664802F0B6FA0A2305E00B2B0FD95B
:1046F000634802F0AFFA0B238AF8003008E05D2A25
:1047000000F0EE825B2A00F0ED825E2A00F0EC827F
:10471000EB6C33B994F8B4206F2A02D10AF02AFE68
:1047200015E096F89E2122B11BB994F8B4307E2B87
:10473000F4D094F8B430972B04D1524B4FF4C87294
:104740001A8004E0A72B04BF012389F80E3094F8E7
:10475000B430BB2B02D1EB8D023303E0B72B03D176
:10476000EB8D023BEB8509E0BE2B02D1AB8D023312
:1047700003E0BD2B09D1AB8D023BAB850120014687
:1047800008F030F8002384F8B530B068420731D51E
:1047900094F8BA20344B8AB1344A527872B13A4A0A
:1047A000B7F90610B2F89A21914207DD93F89420E8
:1047B00022B93221A3F8BC1083F8BA2094F8A520BE
:1047C000294B62B193F8BE202AB993F8B82012B9E8
:1047D0003222A3F8BC20012384F8BE300AE093F80B
:1047E000B8203AB1214A527822B983F8B820012280
:1047F00083F8B920254B002193F8149001220B4631
:104800004B4547DA07EB43052D8940F2A46A0FFABE
:1048100085FCD44502F1010BD4BF4FF0000A4FF0E4
:10482000010A0AFA0BFA40F2135BDC454FF0030B66
:104830000BFB03FBA5F21555ADB2CCBF4FF0000C3E
:104840004FF0010CB5F5C77F0CFA0BFC8CBF0025AF
:10485000012595404AEA0C0C4CEA050C41EA0C0192
:1048600001330332CCE700BFD8190020E50C00204B
:104870007E170020800B002080170020567E010844
:104880005B7E0108F22A00202C2400209C0B0020D3
:104890006001002000239D4D9D4A05EB8309D9F856
:1048A0004C9002F1940C11EA090F0CBF4FF0000973
:1048B0004FF0010903F80C900133192BA946EAD1F6
:1048C00092F8AC30934D2B7523B1012382F89F30C1
:1048D00082F8963094F895308F4A53B98C4B4FF04C
:1048E000050CB3F9B01099F808310CFB03F39942A9
:1048F0001DDD11688B071AD5EB7843B9C4F8C030B9
:10490000C4F8C430834B4FF0010C83F803C000049B
:1049100010D599F808314FF0050C0CFB03F3B4F9EE
:10492000B000984206DD890604D5012301E000238A
:10493000EB70AB7494F8963075495BB10023EB7063
:104940002B7943B9C1F8C030C1F8C430714B012193
:10495000197100E02B7194F894300BB901232B707E
:1049600095F803C06D4BBCF1000F02D1694909797C
:1049700011B11021596101E01021196111684B0733
:1049800025D594F89720624B9AB1A87990B9614ADD
:104990004FF0010A82F806A0D3F8CC20C3F8DC005F
:1049A000C3F8C820B3F8D820C3F8E000A3F8D0209B
:1049B00000E0AA71B368980409D594F898302BB137
:1049C000EB7B23B9534B0122DA7300E0EB7311F058
:1049D0000A0F20D094F899304D4A4BB16B7943B906
:1049E0004C4B01205871B2F8B630A2F8E43000E028
:1049F0006B7194F89A302BB16B7A23B9454B012235
:104A00005A7200E06B7294F89B20414B1AB1B3F8D4
:104A1000B620A3F8E620890640F1F280EA7A3D4B01
:104A2000002A00F0E8803E4A1278042A40F2E3802F
:104A300094F9E82032B11A7922B9BCF1000F01D102
:104A40000122DA7094F89E20314BDFF8DCA01AB90D
:104A5000AA7CDFF8C0B0CAB1EB79DFF8B8B0002BA0
:104A600040F0B7802F480122011D8BF808308AF8EA
:104A700001308BF80720019208F066FE022384F8CB
:104A8000E830B4F80431C4F800313BE08BF807207B
:104A900093F89F20002A49D0B3F9D210B9F81C210D
:104AA0000029B8BF4942914240DAB3F9D410002935
:104AB000B8BF4942914239DA9BF80820002A40F0F9
:104AC0008880D3F808114FF0010CC3F8F810D3F820
:104AD0000C1103F1F800C3F8FC1003F1FC018BF892
:104AE00008C08AF801200393CDF808C0019208F0AD
:104AF0002BFE039BDDF808C0B3F8041183F8E8C06F
:104B0000C3F80011019A8BF8132062E0B429002049
:104B1000D8190020E50C0020800B0020000C01407B
:104B2000D1220020C41A0020600100209AF8011050
:104B300000232B7200294CD1764B01225A708C46EF
:104B4000754B002203F588702CF8002003F58B705C
:104B50002CF8002003F58D702CF8002003F5907BD5
:104B6000002041F80B008B44CBF80420CBF8080060
:104B700003F5A47B41F80B008B44CBF80420CBF861
:104B800008000CF1020C03F5B87B41F80B00BCF1F6
:104B9000040F8B44CBF80420CBF8080001F114017A
:104BA000CED1297C11B90023EB7412E0C3F898012F
:104BB000C3F89C01A3F8A021A3F8A221A3F8A42183
:104BC0005649002353520C31535202320A2AF7D16C
:104BD000E9E79AF800300C2B12D994F8BE317BB972
:104BE0004F4802F037F84B4B0C221A704A4B012207
:104BF00083F8BE2104E00023EB712B7284F8E830C7
:104C000094F8A0302BB1AB7C1BB9464B01229A72B1
:104C100001E00023AB72297C424B31B3B268002023
:104C20009205587221D599F808214FF0060909FB21
:104C300002F2B4F9B0C0944517DD0122DA703A4AA5
:104C40009872B2F8980182B23A807A80BA80374A74
:104C5000B2F80A21FA80DA7A3AB9354F3F78052F4F
:104C600003D89A74334B32381880B2682E4BD20670
:104C70004BD56A78002A48D0002946D1B8F1000FF8
:104C80001FD02D49D4F8C02109684AB993F876316C
:104C90004FF47A7202FB03121F4BC3F8C02106E0E7
:104CA0008A4204D293F876310BB103F01DFB194C04
:104CB0002378092B29D9214801F0CCFF092323703F
:104CC00023E0D4F8C03103B3134BC3F8C0811CE018
:104CD000144B1B78002B3FF47FAC0AF04BFB7BE4BA
:104CE000012202E0022200E003225FFA82FA0020A1
:104CF0000AF1FF33014686F8683507F073FD02209C
:104D00002821524607F0FEFC02E5002005B0BDE870
:104D1000F08F00BF60010020D81900207E1B00200A
:104D2000627E0108E50C00202C240020B42900201C
:104D3000D1220020B00D0020EC230020537E01087A
:104D40002DE9F04F7A4C87B0A3689B0740F195801E
:104D5000784D794B06221F882B681F442B792F60D2
:104D60000133DBB2B3FBF2F62B7102FB163313F007
:104D7000FF0667D1DFF80C92D5F808A099F801304A
:104D8000DFF8048250464FF0785138F813B00BF03A
:104D9000A9F9014650460BF09BF81FFA8BFB82469F
:104DA00058460BF04BF965490BF09CF964490BF040
:104DB0004DFA834694F87D010BF040F901465846C0
:104DC0000BF090F9014650460BF084F84FF0785103
:104DD000A8600BF087F90BF071FB94F88131A88182
:104DE00083B399F80530B4F8781138F8132040F6F9
:104DF000E44392B25A4340F6FF73B2FBF3F2B4F8C5
:104E00007A312869D21A4FF47A735A43B2FBF1F21D
:104E1000082190FBF1FECEEB000002442A6192FBD8
:104E2000F1F25743D5E9060197FBF3F3C01841EBC4
:104E3000E3716A61C5E90601424A00230BF05EFB9B
:104E40002E602862404AAB8912889A4208D33F4DAF
:104E50002B78012B11D93E4801F0FCFE01230BE019
:104E60003C4A12889A4208D3384D2B78022B04D939
:104E7000394801F0EFFE02232B70384E737B5BB391
:104E8000324D2B78082B27D9A368DF051FD5344B6B
:104E9000DB7AE3B1334B1878042818D90023324960
:104EA00005275A185F540F275770122B03F102077A
:104EB000FAB204D0B0EB520F3B46F0D800E0142217
:104EC0000A4464235370F0239370274800E0274876
:104ED00001F0C0FE08232B70254B1A881AB1254B10
:104EE0001B68980707D4244B1B8823B9234B1B78D6
:104EF0000BB106F0F3FC224B1A7832B10D4C94F84A
:104F00002430002B00F01583C3E2A268084B110582
:104F1000F4D51A4A1278002AF0D093F8BB21002A5F
:104F20003AD193F8BC318BBB0D4B5B782FE000BFBF
:104F30002C240020C01B0020FE2A002033335340C5
:104F400000F07F45407E0500560B002060010020E8
:104F50007D7E0108540B0020807E01086C1A002021
:104F6000E50C0020D1220020A81B0020717E010842
:104F7000F22A0020800B00207E1700207C170020E2
:104F8000FC2A0020440B00204C0B0020337D003312
:104F900018BF0123002BB1D094F8BA31002B40F098
:104FA0006A81C44BD868FDF785F9002840F0638119
:104FB000C14AC24D1368A96A591A7C2940F25B8123
:104FC000AB6295F82C300746013385F82C3007F199
:104FD0002400BA4EC0B201F0E9FD06F12E0333F908
:104FE00017000BF02BF8B64B8046B3F89C000BF083
:104FF00025F8014640460BF029F9B2490BF072F84A
:105000000BF036FA013700B201F0FCFD032FDED1C0
:10501000302001F0CBFDB6F9340001F0F3FD01F0D2
:10502000D3FD96F82C0010F0030828D1102001F0D1
:10503000BDFDB36B642793FBF7F000B201F0E2FD16
:10504000212001F0B3FDB36B93FBF7F007FB1037A2
:1050500087EAE770A0EBE77000B201F0D3FD1420FF
:1050600001F0A4FD984BB3F9000001F0CBFD1C202A
:1050700001F09CFD404601F0C5FD01F0A5FD95F84D
:105080002C308E4E5A0740F0D080022001F08EFD69
:10509000B6F93C000A2790FBF7F001F0B3FDA368D6
:1050A0009B075FD5B3894FF06E0808FB03F8152303
:1050B00098FBF3F81FFA88F83A204FF0640901F0E2
:1050C00075FDB8FBF9FB0FFA8BF001F09BFD3B205F
:1050D00001F06CFD09FB1B8080B20530DFF8F88120
:1050E00090FBF7F000B201F08DFD98F80030B28926
:1050F00040F6340192FBF3F24A432A21B2FBF1F26B
:10510000F18F062091FBF3FB03FB1B1B4FEA0B1BEC
:105110001FFA8BFB4BEA022B1FFA8BFBC2F3032215
:105120004BEA020B01F042FD0FFA8BF001F06AFD31
:10513000F28F98F80030013292B292FBF3F103FB48
:1051400011232820F38701F031FD706990FBF7F0FF
:1051500000B201F057FD042001F028FDB6F920004F
:1051600001F050FD594B1B6898065CD5584FDFF88D
:105170006C813B68574E002BB8BF5B4293FBF8F144
:1051800006FB01334FF03C0909FB03FA132003919E
:1051900001F00CFD039964229AFBF8FB02FB01B0BD
:1051A00000B2039201F02EFD1B2001F0FFFC06FB74
:1051B0000BA34FF47A7B93FBFBF000B201F022FDCE
:1051C000232001F0F3FC38680028ACBF4E205320A8
:1051D00001F018FD7B681220002BB8BF5B4293FBE7
:1051E000F8FA06FB0A3309FB03F901F0DFFC039A26
:1051F00099FBF8F802FB0A8006FB089800B201F060
:1052000001FD1A2001F0D2FC98FBFBF000B201F086
:10521000F9FC222001F0CAFC78680028ACBF4520C8
:10522000572001F0EFFC01F0CFFC95F82C30282B33
:1052300021D1224B002283F82C201F4A4FF47A738D
:1052400017683C25B7FBF3F7172001F0AFFCB7FB5D
:10525000F5F6B6FBF5F005FB1060000200B201F0B8
:10526000D1FC182001F0A2FC05FB167000B201F081
:10527000C9FC01F0A9FC94F8BA31012B7FF43EAED1
:105280000C4CE068FDF716F800283FF437AEE468F0
:10529000636B23B19B6820469847054636E0A368B8
:1052A000201DEBB10DF117019847003018BF012008
:1052B0002BE000BF9C0B0020EC230020C01B002033
:1052C0001800002000007A448E1A0020800B002075
:1052D000E01A0020806967FF160000208096980081
:1052E000E2697AB101210DF1170001F095FC054644
:1052F000E069FCF7EAFF638D834205D8206A04F079
:105300001DFD01E0104600E02846C5B20520FDF76E
:1053100005FA8A2D31D08E2DB2D1AF4C00212E222C
:1053200004F1720011F0DAFA7C2384F87230E02381
:1053300084F875307D2384F89E30A38984F87350F7
:10534000DAB21B0A84F8913084F88730142384F889
:105350008A3084F88B304FF4FA73A4F88C304823E9
:10536000A4F89430782384F8902084F8862084F878
:10537000963004F172002E2188E0984B1B68990644
:105380007FF57EAF944C002104F140002C2211F0F7
:10539000A5FA7C2384F84030A02384F843307D2391
:1053A00084F86B308E4B84F841501B7884F85A3067
:1053B0008C4BDB7A002B64D08B498C480A688C4E6E
:1053C00092FBF0FC5FFA8CFC06FB0C2706256F4372
:1053D000662384F86930D30F84F8493042F21073A1
:1053E000B7FBF3FE03FB1E77496884F84C7091FB12
:1053F000F0F03F0AC0B284F84D70CF0F06FB0011E9
:105400006943B1FBF3F503FB151384F851301B0A14
:1054100084F85230B4F86C3064225FFA8EFEE9B240
:1054200002FB0CEE02FB0011B3FBF2F224235A4301
:10543000B4F86E301FFA8EFE84F853301B0A84F8DD
:1054400054306C4B89B21B8892B284F855301B0AD9
:1054500084F85630B4F8703084F84AE084F84F107D
:105460004FEA1E2E090A84F84720120A84F84BE0FE
:1054700084F84E7084F8501084F8482084F85C302A
:1054800002E0202384F869305B482C2102F09AFA6C
:10549000F6E6D4F8A820002384F82430136293623F
:1054A000D362C4F8A830554B1E68554B1D78002DAB
:1054B0003FD101272946642204F5AC701F7011F01A
:1054C0000DFA84F858710720009529464D4A04F5D5
:1054D000AC7304F0E3FB04F5AC77C4F8800108B1C9
:1054E000494B0360802001F025FB3B4DC4F87C0153
:1054F000F8B1331DC5F87831444B7762F362444B01
:1055000001203363202110F0E7FEC5F8880118B9A7
:10551000404B03221A700CE0202385F887313E4B64
:105520003E48C5F8B0313E4B0021C5F8B43101F01A
:10553000A1FB94F8BC3123B109F0FEF9394A3A4B8A
:10554000DA603A48D0F884300BB139499847394A83
:10555000224D138813B12B689A0702D4364B1B884F
:1055600013B1FDF79BF90AE01E4B9A7812B1334A4A
:10557000082111615B7813B1304B08225A6194F80D
:10558000BD3123B1144A013B82F8BD310BE0154B0C
:105590005A7B1AB99A70FDF781F901E001229A70DD
:1055A000092384F8BD312B689B0610D594F8BE31D1
:1055B00023B1094A013B82F8BE3108E0084B1B7851
:1055C000042B01D9FDF761F9022384F8BE310020D4
:1055D00007B0BDE8F08F00BFC01B0020800B00208B
:1055E000D1220020E50C0020E01A0020A086010056
:1055F0006079FEFFDC1A0020001C00209C0B0020BC
:10560000FC2A00201F900008A88F0108C1A10008F3
:10561000FBA30008F02A0020887E0108B18F010852
:10562000AC8F01080400FA0500ED00E0180000202E
:10563000FC1B0020F22A00207E170020000C0140F5
:105640002DE9F0410F468AB00546002844D1A04814
:10565000294601F00FFB9F48294601F00BFB9E4CA9
:1056600094F9D2300BB99D482DE1013500209C49B9
:105670002A4601F01DFB94F8D02000209949013200
:1056800001F016FB94F8D12000209649013201F078
:105690000FFB94F9D2200020924901F009FB94F805
:1056A000D32000208F4901F003FB94F9D42000207F
:1056B0008C4901F0FDFA94F9D5200020894901F0C8
:1056C000F7FA94F8D6200020874901F0F1FA102D5E
:1056D00004F10704C4D1C6E70E688449304611F0CE
:1056E0005FF9044670B982482146702211F0F6F83D
:1056F0002346804A00211A440A33502BA2F8C010D6
:10570000F7D152E130467C4911F04AF904460028AD
:105710003ED1012D40F347810646784B53F8265081
:1057200015B9774829468DE07868294611F038F98F
:1057300001360028F1D1684B03F170021C460020AD
:1057400083F8D60083F8D20083F8D10083F8D00024
:1057500007339342F3D16B4A12F83630984211DA8C
:105760000723434302EBC6025768E1183B441F6816
:1057700001F1D002C1F8D0709988013091809B79F5
:105780009371E8E7002060492A4601F091FA05E1AB
:1057900030465E4911F004F9044608B1002487E060
:1057A0005B4B012D93E803008DE8030001D02646F2
:1057B00042E05848214601F05DFA5748214601F081
:1057C00059FA25460135002054492A4601F070FA5D
:1057D0000C2DF7D14148002101F04CFA002501358C
:1057E00000204F492A4601F063FA424B0A2707FB83
:1057F00005370026B7F8B6304A4A334113F0010F97
:10580000494B4FF0000018BF1A464849013601F0D5
:105810004FFA0C2EEED13148002101F02BFA082D61
:10582000DDD1C2E0032E10D057F826000DF0E0F8CD
:1058300002AB43F826000136AE42F3DB032E04D060
:105840003B48002101F016FAAFE0029A013A072A1C
:105850001BD8039B013B0B2B17D80499481C01D084
:10586000012912D1013123494FF00A0000FB021235
:105870004FF0010101FA03F3B2F8C0100CBF0B4363
:1058800021EA0303A2F8C03003E02A48002101F016
:10589000F1F969460220FFF7D3FE86E0082C0DD00F
:1058A00057F824000DF0A4F802AB43F824000134AB
:1058B000AC42F3DB082C01D01F4804E0029B013B03
:1058C0000F2B3BD91B48002101F0D4F900246CE0D8
:1058D0000F920108749201082C240020949B010867
:1058E000D2920108D8920108629B0108DC9201085B
:1058F000FC240020B4290020E2920108F080010875
:10590000E792010854760108FF9201087BA0010884
:10591000EC7F010812930108719401085F9301085C
:10592000DB960108F5A30108A5A40108649301080A
:105930006A930108A3930108C4930108039A02F132
:10594000FF3EBEF1070FBDD8049E013E0B2EB9D815
:10595000059D05F16402C82AB4D8069CFF2CB1D875
:1059600007996429AED8089A642AABD89142A9DA7B
:1059700009980328A6D80F4F4FF0070C0CFB0377AC
:1059800087F8D0E087F8D16087F8D25087F8D34005
:1059900087F8D41087F8D52087F8D6000021012099
:1059A000FFF74EFE92E76FF0020420460AB0BDE812
:1059B000F08100BF2C24002070B548B9264B274940
:1059C0005A79274B013A53F8222001F071F941E04E
:1059D0000E682449304610F0E3FF014670B92248B2
:1059E00001F048F9214C54F8042F22B1002020493D
:1059F00001F05EF9F7E71F48114606E00025184B55
:105A000053F8254024B91C48214601F033F921E020
:105A10003046214610F0C4FF01350028EFD10E4E6C
:105A200016492246757101F043F97379082B01D0AC
:105A30000E2B0FD1124B5A2283F8262000221E2053
:105A4000142183F820202D22187199731A76D871A9
:105A50005974DA76002070BD2C24002025940108AA
:105A6000F08001085091010839940108EC80010888
:105A700094950108949B0108E79201084C94010851
:105A8000B429002030B52A4D8FB004AC0FCD0FC41F
:105A90000FCD0FC495E8030084E80300254C0020D7
:105AA000A268254901F004F92469002C3CD0A268C1
:105AB00022B10020214901F0FBF803E02048114603
:105AC00001F0D8F8257C0EA901EB8505618AE36910
:105AD000E2890091A16900200191216AB3FBF1F1F3
