:020000040800F2
:100000000050002065290108052A0108C1F10008F7
:10001000052A0108052A0108052A01080000000038
:10002000000000000000000000000000052A010898
:10003000052A010800000000052A010825F0000833
:10004000052A0108052A0108052A0108052A0108D0
:10005000052A0108052A0108052A010849DF0008C8
:10006000052A0108052A0108052A0108052A0108B0
:10007000052A0108052A0108052A0108052A0108A0
:10008000052A0108052A0108052A0108052A010890
:10009000052A0108052A0108052A010845DF00088C
:1000A000052A0108052A0108052A010837DF00088A
:1000B0002DDF000821DF000815DF0008BDF1000872
:1000C000B5F10008B9F10008B1F10008052A0108EE
:1000D000052A0108CDEF000871EF00080DEF0008B8
:1000E000052A0108052A0108052A01080000000068
:1000F0000000000000000000000000000000000000
:0C01000000000000000000005FF808F1A3
:100110002DE9F04FAF4C9DB023680490062B01F2FF
:10012000C486DFE813F007001F001F001F00C20491
:100130004306CE0AA84B1B682BB9A84B4FF47A7024
:100140001B68584300E09847049E326C831A2AB11A
:10015000B2691A44B261F2690132F261049FA04AA5
:100160003864138027689B4D012F00F0BE80022F5A
:1001700000F0BF81002F40F079849A48291DD0F803
:100180008030984705F10408002800F08A84964BD7
:1001900005F1540A1A889946002A00F098800C3517
:1001A0003E46B9F800B0914BBBF57A7FCDF814B05C
:1001B00007D10A20A3F13C0100FB06110022DA510D
:1001C0000A61DA5938F906000244DA510FF030FFBB
:1001D0002B690133012B2B6104D100236860286057
:1001E000AB602AE0D5F800C001936146CDF80CC0A1
:1001F00002900FF067FE019B834618460FF018FF30
:100200000146584610F01CF8DDF80CC00146604667
:100210000FF05AFE029A0346194668601046019391
:100220000FF050FE014658460FF056FFA9680FF038
:100230004BFE019BE8602B60A860059A0023012A11
:1002400028F806302AF8063034D12869012807DD5D
:1002500001380FF0EDFE0146E8680FF0F1FF00E015
:10026000002012F0AFFF624B834693F8660190B115
:100270000FF0DEFE0146584610F0EAF858B14FF490
:100280007A73A9F800300023E36123636364236574
:10029000E364A3640EE0554B4FF47A72FB580A20D6
:1002A00003F5FA7393FBF2F32AF806300F210122CB
:1002B0000EF0DFF80236062E07F1040705F11405EB
:1002C0007FF46FAFB9F80030013BA9F8003000238C
:1002D00038F803003AF803103E4A411A28F8031090
:1002E0000233062BF4D101F0D0BD3E4E05F15A0188
:1002F000D6F8983030469847B0465A35002800F076
:10030000D1833C4F3A4E3888002844D000231A4607
:10031000DFF8ECC0B0F5C87F04BF00214CF8021034
:1003200035F903905CF80210DFF8A8E049444CF876
:100330000210002106EB0309E9520233062BDFF815
:10034000B0C0A9F86A1102F10402E1D101281FD15D
:10035000DEF860304FF4C872C83393FBF2F3ACF8A8
:100360006A31DEF86430C83393FBF2F3ACF86C31D9
:10037000DEF86830C83393FBF2F2B8F89C30D21A3A
:100380001D4BACF86E219985D98501460EF0E0F839
:100390003B88013B3B80B268154B520740F192808D
:1003A00016490A888946322A2CD1B3F86A11A4F872
:1003B0006C10B3F86C11B3F86E31A4F86E10A4F899
:1003C00070300D4B998DDB8DA4F87210A4F8743049
:1003D0001AE000BF10180020F4090020602400205B
:1003E000722B002018000020EE1700205818002063
:1003F000A0240020662B0020282A0020041B0020B7
:1004000070180020002A3DD000231946322AB04F30
:1004100004BF0020785035F903E0785870447850D4
:10042000002006EB030EE8520233062BAEF86A01F9
:1004300001F10401EAD1012A1FD1A64BA64D187083
:10044000A64B1A702B780A2B04D9A54809F0E0FABC
:100450000A232B70B4F86C30B4F87220A6F86A3115
:10046000B4F86E30A6F86C31B4F87030A6F86E317E
:100470009C4B9A85B4F87420DA85B9F80030013BBA
:10048000A9F80030984A1378E3B10023A16F1370E4
:10049000322291FBF2F1A6F86A11E16FB8F89C00E4
:1004A00091FBF2F1A6F86C11D4F8801091FBF2F2F6
:1004B000121AA6F86E2101208A4A01469385D38537
:1004C0000EF046F8B4F85A20B6F86A310227D31A6B
:1004D000A4F85A30B4F85C20B6F86C31D31AA4F8FA
:1004E0005C30B4F85E20B6F86E31D31AA4F85E30F2
:1004F000D8E27E4B7E4F1B689847D5F8843006467D
:10050000C31A184605930FF08FFDD7F88C1006908C
:100510000FF0E2FD734BC5F8846093F8319000262C
:1005200007903546B3461F46DFF8E48138F90500E9
:100530000FF07EFD07990FF0CFFD10AB9851B9F188
:10054000000F2CD048460FF073FD01464FF07E504F
:100550000FF076FE0346194608F1840A4FF07E50EC
:1005600001930FF0AFFC56F80A100FF0B5FD08F13B
:100570005608024638F9050002920FF059FD019B1A
:1005800019460FF0A9FD029A014610460FF09CFC97
:100590004AF806000FF066FF564B585305E008F185
:1005A000560835F80820534BEA52524B0436EB5E9E
:1005B0000235062D03FB03BBB6D14D4E642303FB6E
:1005C0000BFBB6F89C304C485B439BFBF3FBABF159
:1005D000490B10A91FFA8BFB02F0F2F9BBF13B0F9C
:1005E00040F29A80454BD4F89C50B3F900000FF0CC
:1005F0001FFD014628464FF001060FF029FF00B904
:1006000006463F4B2946D4F898005E7312F03AFC38
:100610000646C4F8A000D4F89400D4F89C9000F1E9
:100620000045D4F8980001460FF056FD4946804633
:1006300048460FF051FD014640460FF045FC12F0D0
:10064000C1FD0146284612F01DFC0546C4F8A40071
:1006500030460FF0ADF81CA3D3E900230FF0FCF8EF
:100660000FF0DCFB12F040FBDFF8A880A8F80000D8
:1006700028460FF09DF814A3D3E900230FF0ECF8FF
:100680000FF0CCFB12F030FB1E4BA8F802001B68E9
:100690001B0740F18E8010A91B4802F091F91B4BFB
:1006A0004FF0000AB3F864010FF0BEFC4FF07E512A
:1006B00081460FF009FC01464FF07E500FF0C0FD5F
:1006C000804657E0AFF300803B597E90A9E7814018
:1006D00088180020061B002060010020001B00205D
:1006E000967E0108282A0020011B0020F409002022
:1006F000180000205E1C0020A4180020880B002099
:10070000E50C0020800B0020B8180020A024002059
:100710001418002080190020B14B4FF00008B3F8E6
:1007200062010FF081FC4FF07E5106460FF0CCFBCA
:1007300001464FF07E500FF083FD0546DFF8D4925E
:10074000304659F818100FF0C7FCA64B824633F913
:1007500008000FF06DFC014650460FF0B5FB29462E
:100760000FF0BAFC49F8180008F10208B8F1060FBA
:10077000E4D137E7DFF8A0B248465BF81A100FF073
:10078000ABFC994A034632F90A0001930FF050FC82
:10079000019B014618460FF097FB41460FF09CFC69
:1007A0004BF81A000AF1020ABAF1060FE2D15846D4
:1007B0003DE0DFF8389210A9484602F001F9D9F877
:1007C0000000D9F804B001460FF086FC5946824675
:1007D00058460FF081FC014650460FF075FBD9F8E2
:1007E00008808246414640460FF076FC014650465E
:1007F0000FF06AFB12F0E6FC002180460FF000FECD
:10080000A0B9D9F8000041460FF01AFD4146C9F8D9
:100810000000D9F804000FF013FD4146C9F80400A8
:10082000D9F808000FF00CFDC9F808006F4802F075
:100830007FF96F4B6F49188006980FF04DFC6C4B99
:1008400005F10045804606F10046B3F90000149515
:1008500013960FF0EDFB00F100400EF0A9FF5EA330
:10086000D3E900230EF0F8FF0FF0D8FA5D4D159094
:10087000B5F900000FF0DCFB1690B5F902000FF09F
:10088000D7FB1790B5F904000FF0D2FB13A918900D
:1008900016A802F095F8584B93F84830012B17D161
:1008A000564B5B7873B9D4F8B430402093FBF0F02A
:1008B000181A0FF0BDFB18990FF006FB0FF0D2FDD0
:1008C000C4F8B400D4F8B430402093FBF0F002E058
:1008D0004B49B1F89C000FF0ABFB014618980FF0A4
:1008E000F1FA484B1890196840460FF0EDFA0146AE
:1008F00040460FF0A5FCD4F8B86080463146189801
:100900000FF0E0FA014640460FF0E6FB01463046A4
:100910000FF0DAFA0646C4F8B8001698D4F8BC808E
:1009200012F0E2F997F8331002F07EF94044C4F86F
:10093000BC001798D4F8C08012F0D6F997F833109D
:1009400002F072F94044C4F8C0003046D4F8C480C4
:1009500012F0CAF997F8321002F066F92A4B059E98
:100960001A68404432441A60D4F8C830274D013325
:10097000C4F8C83097F8B630C4F8C400002B73D060
:10098000D5F89400D5F8988001460FF0A5FB4146B4
:10099000074640460FF0A0FB014638460FF094FA98
:1009A000D5F89C600746314630460FF095FB01466E
:1009B00038460FF089FA12F005FC014630460FF078
:1009C0003FFC134906460FF02FFD38B30023A5F86E
:1009D000CC3049E0AFF30080399D52A246DF913F11
:1009E000A02400205E1C0020A4190020500100203B
:1009F000FE1A0020BD378635282A0020E50C00208D
:100A000018000020940B00206C2B002010180020F0
:100A10008FC2753CA4180020B8180020304612F090
:100A2000DFF99F4B19680FF057FB12F05DF9B0F535
:100A3000617FA8BF4FF461700EF0A8FE96A3D3E9C2
:100A400000230FF033F80FF0E9F912F08BF9954B12
:100A5000064693F8B6000FF0EBFA31460FF03CFB78
:100A600012F042F9A5F8CC0003271BE08E4B5B790E
:100A7000012B8E4B0DD1B5F9CE10B5F9082002EB44
:100A80004102032192FBF1F292B29A80A5F8CE20A6
:100A900001E02A899A80A28804271A80E2885A8075
:100AA00000E00746276000F008BE814B814A197CB0
:100AB0007C4BA1B9B2F906101A8D91423CDBB1F51D
:100AC000FA6F93F8264007DA891A4C43A2F5FA62C6
:100AD00094FBF2F4643430E0C4F164042DE0B2F924
:100AE00006101A8D91420FDB734AB2F9061093F883
:100AF0002620914208DDB1F5FA6F02DA891A4A43DD
:100B00005212C2F1800200E080226C49B1F9021059
:100B1000142909DD93F82600B1F5967FA8BF4FF49C
:100B200096714143A2EB212293F82640C4F1800440
:100B3000A242A8BF144600E064245B4A93F8B05078
:100B4000B2F8987192F95C2193F8B160524293F82F
:100B5000253092B2002153480692059707930A4622
:100B6000544BDDF8149031F903B040F2E637C9EB8D
:100B70000B0303F2F31EBE4503D8002BB8BF5B4244
:100B800001E04FF4FA73022ADFF82CC12ED025B110
:100B9000AB42CCBFC5EB030300236427DFF82491ED
:100BA00093FBF7FE09EB4E086FF0630A0AFB0E3A5F
:100BB000B8F8D08009EB4E0EBEF9D2900FFA88FE3D
:100BC000CEEB090E0EFB0AFE9EFBF7FEC6442CF888
:100BD00001E090F823E003FB0EFE394B9EFBF3F39C
:100BE0003B449BB2634393FBF7F716E026B1B34255
:100BF000CCBFC6EB03030023DDF818A0DDF81CE032
:100C000003FB0AF7002BB8BF5B4203FB0EF3ACF803
:100C100004702B4F93FBF7F76437224B90F80B804F
:100C2000134493F801C007FB08F807FB0CFCDFF83E
:100C300098E064239CFBF3FC02F80EC098FBF3F8E9
:100C40000EF1030C02F80C8090F815C00EF1060EA0
:100C500007FB0CF797FBF3F302F80E30059B164FDA
:100C60009B4502DA7B5A5B427B520132032A01F137
:100C7000020100F101007FF473AF0E4BB3F90620BF
:100C8000094BB3F89A319A4220DBB2F5FA6FA8BF4C
:100C90004FF4FA621BE000BFA2EB0FE5DD169640B1
:100CA000900B0020282A0020A02400209E1900205C
:100CB000E50C0020B00D00201A1B00208019002038
:100CC0000CFEFFFF10180020EE1800201A46D21A62
:100CD0004FF47A714A43C3F5FA63B2FBF3F3642528
:100CE0008F4A93FBF5F102EB41006FF0630606FBC0
:100CF0000133B0F8E80002EB4101B1F9EA6001B25A
:100D0000711A4B4393FBF5F5864B28445B7A864C6E
:100D1000F8809046002B44D0844BB3F90000844BFC
:100D2000B3F90030C01A0EF031FD7BA3D3E90023E4
:100D30000EF092FD00227F4B0EF0B8FE0FF06EF821
:100D4000054611F09BFF0646284612F00BF80546B3
:100D5000B4F902000FF06CF90746B4F900000FF087
:100D600067F9314681460FF0B7F929468246384681
:100D70000FF0B2F9014650460FF0A4F80FF072FBE5
:100D80003146208038460FF0A7F9294606464846E6
:100D90000FF0A2F9014630460FF096F80FF062FB13
:100DA00060800523C8F8003000F087BC624BDFF894
:100DB000A4911A6812F0080539D05B4988880F465B
:100DC00000F145039BB28A2B5C49584B2DD8554EF8
:100DD00096F805E0BEF1000F27D0B3F800E00B88CD
:100DE000767BC3EB0E0189B28BB20FFA83FE1EF144
:100DF000B30FBCBF01F5B4739BB219B2B32950490C
:100E0000C4BFA3F5B4739BB291F85C117EB149B233
:100E100049424B4399F809101BB24B436FF01D0137
:100E200093FBF1F31844B88001E01B880B8057074F
:100E300040F19D803B4B9979002900F098801E7C01
:100E4000394B002E40F08A8099F8B3003D4F99F855
:100E5000B21068B3B3F806E0B7F900000FFA8EF7E6
:100E6000C0EB070CBCF1000FB8BFCCF1000C8C45F7
:100E700010DD8742DFF8E0C0C8BF4942CCF800600F
:100E80001FFA8EFE4FF00106C8BF89B284F80061D8
:100E900071443FE094F8001131B12B490F682B49A0
:100EA0000F601F4981F8006129490968084426E05C
:100EB000B7F90060B3F90670BF1B87EAE77EAEEBB7
:100EC000E77E8E450ADD022197FBF1F70121C4F888
:100ED000047184F8081184F800110DE094F8007191
:100EE0000F494FB1184F81F80801D7F800E0174FAC
:100EF00081F80001C7F800E0154908683044104E39
:100F0000B6F84011B6F84261884203DBB042B4BF84
:100F100001463146D9802AE0182D4454FB2109406E
:100F200010180020E50C00201A1B0020FE1A0020DB
:100F30002E1B002000806640800B00202C1B002010
:100F4000A0240020181B0020141B0020101B0020D0
:100F5000281B0020282A0020241B0020974958889D
:100F600091F9A0619649096806FB0101598099F839
:100F7000B63053B1934BD97809B91B792BB1924B49
:100F8000B4F8CC00D9880144D980960640F1928308
:100F90008C4BDE7905961EB91A7A002A00F08583FB
:100FA0001B7BDFF820B2002B00F07F83874B1F886C
:100FB00038B20FF03DF886490FF08EF8064611F072
:100FC000D1FE8046304611F059FE9BF8103006469F
:100FD000002B40F0858099F815917E4F7E4DB9F138
:100FE000000F4CD0DFF81CA2B7F90200BAF80230AB
:100FF000C9F100041FFA83FB1BB2C01A01F0D6FF2F
:10100000A04203DB4845A8BF484600E02046BAF8A6
:1010100000308344B7F900009AB21BB21FFA8BFB71
:10102000C01AAAF802B0029201F0C0FFA042029AD0
:1010300003DB4845B4BF04464C461444A4B2AAF8A6
:1010400000400FFA8BF00EF0F3FF074620B20EF0CF
:10105000EFFF3146044638460FF03EF841468146E0
:1010600020460FF039F8014648460EF02BFF5B4949
:101070000FF0E6F80FF0F6F9288038461DE0B7F9D2
:1010800002000EF0D5FF8146B7F900000EF0D0FF48
:101090003146044648460FF01FF8414607462046B1
:1010A0000FF01AF8014638460EF00CFF4B490FF0CE
:1010B000C7F80FF0D7F92880484641460FF00CF8E2
:1010C0003146074620460FF007F8014638460EF035
:1010D000FBFE42490FF0B4F80FF0C4F96880E9E272
:1010E0003F4B404A1888404B9BF813B0DB8899F877
:1010F000369106933D4BD3F808803D4B1FFA88FA92
:101100001E889368CAEB0606B6B2CAEB030A1FFA3A
:1011100086FC1FFA8AFABBF1000F06D00FFA8CF397
:101120004B45BCBF08EB090393600A2300B2584348
:101130000193CDF80CC001F039FF019BDDF80CC024
:1011400090FBF3F000B27DB190FBF3F338B29AB2AA
:10115000C31A002BB8BF5B420A2B08DD254B1B8846
:10116000C82B88BF174602E090FBF3F7BFB2224DB1
:101170002248D5F80C316422CAEB060193FBF2F247
:101180000668D5F8143189B2F31AC72BA5F81021D7
:10119000A5F81211824640F26C820368184EC5F819
:1011A0001431B6F82C3179BBA5F81831BBF1000F1A
:1011B00040D0044B0021D9743CE000BFA0240020A3
:1011C000281B0020E50C00201A1B0020FE1A00201E
:1011D00035FA8E3C621B0020581B00200000204185
:1011E000AA190020401B0020B00D0020341B002055
:1011F0004C1B00209C1C00201018002060240020A4
:10120000282A00205E1B0020B6F8300109B200FB3E
:101210001130B6F82E31B6F82AE1984203DB70455A
:10122000B4BF03467346A5F81831BBF1000F01D0D7
:101230000029BEDAD71BB8B2059F9E499E4BE7B185
:10124000CA7C7AB1B6F824216FF009077A43A5F871
:101250001221B6F82A21A5F818210FFA8CF2182AC3
:10126000D8BF00201A88312A07D80FFA8CFCCC4549
:1012700003DD924A08EB09079760897C8D4A49B1E2
:101280001988092906D800215170D1748B4A08F1B8
:10129000050191601B88092B08D800B20EF0C8FE2A
:1012A00087490EF019FF0FF0DDF880B24FF06409A6
:1012B00000B209FB00F001F079FE90FBF9F01FFA93
:1012C00080F90FFA89F3002BB8BF5B42DAF800000F
:1012D000AA2BC8BF4FF0AF09D5F81C31DFF8048244
:1012E000C01A0EF0A1FE77490EF0AAFFDAF800301E
:1012F000B5F812A1C5F81C310AF103039BB2062B05
:10130000074606D8D8F8000039460EF0E5FEC8F8C2
:1013100000000A2202FB0AF292B293B2A4F8123140
:1013200018B2029201930EF083FED4F82411824683
:101330000EF0D2FE39460EF0CFFED8F800100EF0B7
:10134000C3FD0FF08FF86049B0F5FA7FA8BF4FF4E6
:10135000FA708842B8BF08460EF06AFE5B49029AEE
:101360008346C8F800000888019B121A92B20B80CD
:1013700013B2002BB8BF5B42642BC8BF0022544B92
:1013800003F10A01988823F8020F8B42FAD15149E0
:1013900000230A811846CA5A023310440A2B80B22D
:1013A00001D080B2F7E700B20EF042FED5F8281166
:1013B0000EF092FE39460EF043FF0FF053F81FFA7D
:1013C00080F8D5F820115046A5F830810EF084FE43
:1013D0000FF048F800B20EF02BFE59460EF074FDE7
:1013E0000FF040F81FFA89F909F103039BB2062BAD
:1013F0001FFA80FA08D8DFF8F0B03946DBF80000B1
:101400000EF06AFECBF800004FF00A0C0CFB09F955
:101410001FFA89FC1FFA8CF210B20292CDF80CC0B0
:101420000EF006FEDFF8C090D5F8381183460EF0B6
:1014300053FE39460EF050FED9F800100EF044FD70
:101440000FF010F8204BB0F5FA7FA8BF4FF4FA70F8
:101450009842B8BF18460EF0EBFD0346C9F80000ED
:101460001D48DDF80CC00188029AC1EB0C0189B25D
:1014700002800AB2002AB8BF5242642AC8BF0021C3
:10148000164A02F10A00B2F804E022F802EF8242A2
:10149000F9D1134A4FF000091181484632F809107A
:1014A00009F102090844B9F10A0F80B21ED080B2D6
:1014B000F4E700BFE50C00209E1C0020401B00202C
:1014C000CDCCCC3D00007A440CFEFFFFE81B002091
:1014D000EC1B0020EE1B0020EA1B0020F81B002064
:1014E000FA1B0020E41B0020E01B002000B2019347
:1014F0000EF09EFDD4F83C110EF0EEFD39460EF0D4
:101500009FFE0EF0AFFF87B2D4F83411A4F84471F7
:1015100058460EF0E1FD0EF0A5FF00B20EF088FD7A
:10152000019B0FFA8AFA19460EF0CEFC0EF09AFFD4
:10153000B6F924316FF009014B439AFBF9FA0FFA1F
:101540008AFAB6F926119A4580B209FB01F903DB44
:10155000CA45B4BF53464B46B04C02B2B4F9201151
:101560006FF0090048434FF00A0E984492FBFEF2D8
:10157000AB4B1FFA88F88242A3F8028004DB0EFB13
:1015800001F08242B8BF1046BFB238441880B4F9A7
:1015900022016FF0090141438A4204DB0A214143E1
:1015A0008A42B8BF11469F4A0F44507C9F80114623
:1015B00058B194F828210FFA88F85242904503DB7D
:1015C000C845B4BF42464A465A80C97C964A69B962
:1015D00096F83261B2F900006421B6FBF1F15E8841
:1015E0000028B8BF404201FB10615980B2F90200E7
:1015F0000EF01EFD4FF07C510EF06EFD0EF032FF2E
:101600008A4BB0F5E17FA8BF4FF4E1701A88B5F8B6
:101610001871A2F5E17320EAE0709BB2381A642BCE
:1016200087B2834E0CD910B2C0F5FA700EF000FDEF
:1016300080490EF051FD0EF015FF338818443080BC
:10164000B6F90030B4F82E21B3F5FA7FA8BF4FF4F5
:10165000FA7323EAE37333803B441BB29342B4F83A
:101660002A1103DB8B42B4BF1A460A46724BA3F819
:1016700018216C4A6A4BD17809B9117921B1927A53
:1016800052B1684A927C3AB9DDF818900022A5F868
:1016900018915A801A809A80684AB5F81811D1803A
:1016A000998893880B44938004E05D4B00221A8054
:1016B0005A809A80604B06221A6004980AF06EF8ED
:1016C000F3E35F4BDB6898475E4B93F80080B8F11B
:1016D000030F14D9594BB4F94A11B3F904006FF050
:1016E00063030028B8BF40421B1A994204DB00F193
:1016F00064038B42A8BF0B46A4F84A310BE0B8F153
:10170000010F08D8504B5A791946013AD2B2172A1C
:1017100000F2D481A3E04148B4F848A190F90E1139
:10172000B4F846B1B4F94A4149424C433D49434BB0
:101730000A7C90F81E01897ACDF810A0DE88B3F8F3
:1017400004A0424D0694CDF814B007920890099178
:1017500000244445D6D230B20EF06AFC2968834694
:101760000EF0BAFC049B844618B2CDF80CC00EF003
:101770005FFCA9680EF0B0FCDDF80CC001466046C5
:101780000EF0A2FB059A844610B2CDF80CC00EF004
:101790004FFC69680EF0A0FCDDF80CC00146604605
:1017A0000EF092FB84460698CDF80CC00EF040FC7B
:1017B000E9680EF091FCDDF80CC0014660460EF0C1
:1017C00083FB0EF04FFEDFF88890079B670029F837
:1017D0001400002B40D0089A002A3BD0099B002B14
:1017E0003AD00FFA8AF00EF023FC84462046CDF85A
:1017F0000CC00EF019FC4FF07C510EF063FBDDF8CD
:101800000CC0014660460EF067FC014658460EF0DB
:1018100059FB0EF027FE29F807001DE0282A0020BA
:10182000581B0020E50C0020801900209C1C002083
:10183000EC1B0020CDCCCC3D101800201A1B002042
:10184000500100200C2A0020A0240020B40B00200E
:101850000E2A002027F809600134103579E70123AA
:1018600003FA02F2B94B13406BBBD00640F126815C
:10187000B74BB84893F9BE20B0F90240B0F9000068
:101880005443322294FBF2F4B3F8BC20A4B211B258
:101890001129DCBFB04A32F81120B04922440A8035
:1018A00093F9C820B3F8C6305043322290FBF2F0CF
:1018B0001AB2112AD8BFA84B80B2D8BF33F8123061
:1018C00003444B80FAE0A64B9B7A43B1A54B1A88A0
:1018D000ADF858205A889B88ADF85A200AE0A24BF0
:1018E000B3F84621ADF85820B3F84821B3F84A318F
:1018F000ADF85A20ADF85C309C4B974A1B88ADF888
:101900005E30B1F898311189C91AADF8601051896B
:10191000C91AADF862109189C91AADF86410D1895D
:10192000C91AADF866101188C91AADF86810518847
:10193000C91AADF86A109188D288C91AD31AADF8BD
:101940006E30ADF86C100023844900225A520233E5
:10195000102BF9D1864B15461B7804931346DDF8FE
:1019600010A0554500F08F80824E834C91198879E4
:1019700020B1824F3844007D00287ED0B05C744E88
:101980000A2707FB0067B7F8BAE0B7F8B86091F923
:1019900004B0C6EB0E06B6B206FB0BFB642791F84B
:1019A00001809BFBF7FB4FEA560C91F803E0CCEB70
:1019B0000B0B4FEA48070DF170091FFA8BFB91F8EA
:1019C00005A04F44BEF1000F03D137F8187CE75251
:1019D0001BE0E45E37F9187CDFF89C91BC4209DA21
:1019E000A644A64503DB7745B4BF3C46744629F8B8
:1019F00003400AE009DDCEEB040EBE4503DBA6453D
:101A0000B4BF7746274629F80370DFF844E14FF06A
:101A10000A0909FB00EEBEF8C0E091F902104EFA87
:101A200008F818F0010FDFF850814C4C33F90880AA
:101A30000FFA8BFB01FB08F14FF0640891FBF8F102
:101A40000CBF4FF0010E4FF0FF3E594534F81070B7
:101A50001FFA8EFE0CDB4FFA8AFB06FB0BFB9BFB8F
:101A6000F8FBCCEB0B0B0FFA8BFB8B45A8BF8B461F
:101A70000BFB0E7B24F810B000E0E0520135EDB214
:101A8000023307326BE73E4B314A03F1100492F9FF
:101A9000BE10B3F902500A324D43642195FBF1F5B3
:101AA000B2F8B210ADB208B21128DCBF2A4931F841
:101AB0001010294423F8021FA342E8D1314B9A6841
:101AC0009A4612F0200F224B3BD0B3F8BC00234CB7
:101AD00002B2112AD8BF20492546D8BF31F81200DA
:101AE000B3F8C61020800AB2112ADCBF1A4931F8B7
:101AF00012101A4A0C4669802049097A09B393F8F2
:101B0000101193F9C86011F0020F93F9BE701149DA
:101B10003AD0B1F90050B1F902106E437F424F4301
:101B20004FF0320E96FBFEF66FF03101B6B297FB26
:101B3000F1F1314497FBFEF708443E4410803444F1
:101B400054800F4A024902F1100532E089209800C2
:101B5000282A002080190020B00D00208C010020D0
:101B6000E50C00201A1B0020101800200E2A00206F
:101B7000740C0020750C00205C190020DC1A002079
:101B80008A010020A0240020B1F90250B1F9001010
:101B90006F434E43322597FBF5F7384496FBF5F536
:101BA00010802C44CCE722F8020FAA4201F10A016E
:101BB0000CD0B2F90240B1F9B800B1F8BA60844271
:101BC000F1DB30B2A042A8BF2046ECE793F8103119
:101BD000590705D49A499B4B0C881B7801220FE0CA
:101BE000994B9A4D9E7D0024043EA0190134C0B249
:101BF00035F8021FE4B201F014FB042CF5D1E9E73B
:101C00009A4208D231F9120024B2A042A8BF044679
:101C1000A4B20132F4E78E4ABAF84251107C291B73
:101C200005908C4889B2B0F90600BAF8987106910F
:101C30000490DAF808108848BAF840C101F48046E8
:101C4000B0F9EAB001F010010797B0F9EC70BAF8FA
:101C500046010E911FFA8CF1BAF844E108900A91FE
:101C600050787E49BAF848819AF80590BAF89AA156
:101C70005B000D960C901FFA8EF64989507C0F93ED
:101C8000CDF800B0CDF824A00B9600230F9EB342F0
:101C90006ED022B2AA4208DD059A32B9684A069E81
:101CA00033F802A0B24423F802A00D9E644A002E2D
:101CB00036D0DDF810A0DDF81CB0DA4532F903A00B
:101CC00015DDC24503DBAA45A8BFAA4600E0C2460F
:101CD000B9F1010F22F803A041D1009A09B2914253
:101CE00003DBB942A8BF394618E0009916E0F24577
:101CF00004DB089EB245A8BFB24600E0F246B9F147
:101D0000010F22F803A02AD109B2B94205DBDDF8A0
:101D100000A05145A8BF514600E0394689B21EE0F7
:101D200032F903B0E34503DBAB45A8BFAB4600E0A7
:101D3000E34622F803B002EB030ADDF810B0099A7B
:101D400093450BDA0E9E26B9DDF828B0AAF800B04C
:101D500005E00B98AAF80000012000E000200C9A92
:101D600022B93F4A985A364A9852012002338DE7E9
:101D7000354A3A4C364B6181517D58741A460029D8
:101D80007DD0384E7379013B172B6DD8DFE803F017
:101D90000C6C6C186F6C6C1E6C6C6C6C6C256C6CC9
:101DA0006C6C6C18256C6C342B4B93F80F3113B1A1
:101DB0000020618961E050780028F9D101465CE09B
:101DC0000020218901F02DFA0120F2E70020E188AE
:101DD00001F027FA012021894FE00020E18801F07D
:101DE00020FA0120218901F01CFA0220618901F00A
:101DF00018FA0320A18940E00020E18801F011FADF
:101E00000120218901F00DFA0220618901F009FA0F
:101E10000320A18901F005FAB368104DDA072ED529
:101E20000420298801F0FDF90520698801F0F9F9FD
:101E30000620A98801F0F5F90720E9891DE000BF17
:101E40000E2A00200C2A00209C0B0020B60D00203A
:101E5000E50C0020B00D0020282A00208C01002075
:101E600086190020A0240020B3689B0607D5002017
:101E7000218801F0D6F96188012001F0D2F900F043
:101E800081FD0C4B00221A600FE00B4B1B6813F016
:101E9000020307D1A2F85A30A2F85C30A2F85E30F3
:101EA000FEF7E2BD0127FEF7FDBD00201DB0BDE835
:101EB000F08F00BF10180020800B0020AFF30080CF
:101EC00010B58468A36A43B1616809B1206A03E070
:101ED000A26912B1206A0F499847E36ABBB1A168B1
:101EE00011B1206A984712E0626982B1206A0A49FA
:101EF000984760B194F824304BB9012384F824301A
:101F0000E36823B12046984708B984F824000020EC
:101F100010BD00BF896D000895BE000870B5174C54
:101F2000174D002B0CBF2B46234672B1013A94008B
:101F3000002221FA04F606F00F0601329E5D851894
:101F4000043C05F8016CF4D515E089B101251C2489
:101F500021FA04F606F00F0605B126B19D5D855401
:101F60000132002500E00125043C261DF0D102E0ED
:101F7000302303700122104670BD00BF4C8E010853
:101F80005D8E010830B562B1531E013821FA03F4A9
:101F900004F00104303413F1FF3300F8014FF5D29F
:101FA00015E089B101241F2321FA03F505F001058D
:101FB00004B125B1303585540024013200E00124FC
:101FC00013F1FF33F0D202E03023037001221046F8
:101FD00030BD074B9B788342064B02D8B3F898017B
:101FE0007047184490F88221034B33F82200704761
:101FF000F80D0020A0240020D80D0020034B184429
:1020000090F88221024B33F822007047A024002070
:10201000C01F0020034B184490F88221024B33F874
:1020200022007047A0240020580E0020034B1844C3
:1020300090F88221024B33F812007047A024002050
:102040002C0F002010B5094A094913688C681268E2
:102050009342F8D1074A106811684FF47A725043DE
:10206000001BB0FBF1F002FB030010BD5C2400205C
:1020700010E000E0000B0020034B4FF4805208B149
:102080001A6170475A61704700080140034B4FF4D2
:10209000805208B15A6170471A61704700080140C8
:1020A000014B33F810007047B00D002007B50F4BFF
:1020B00002A941F8040D18684368984703680C4A60
:1020C000B3F5967FC8BF4FF0FF330193019B1360B8
:1020D000084B18680DF05AFB0022074B0DF0E6FC88
:1020E0000DF09CFE03B05DF804FB00BF1013002050
:1020F00044010020D82100200000594008B5094BB8
:10210000B0F5967FC8BF4FF0FF301860064B1868D7
:102110000DF03CFB0022054B0DF0C8FC0DF07EFEDF
:1021200008BD00BF44010020D82100200000594014
:10213000034B184490F88221024B33F81200704789
:10214000A0240020A0220020014B0D221A7070470D
:102150006001002003789B070AD5826C831883F8FE
:102160005811C36B0132B2FBF3F103FB11238364FB
:102170007047037813F001030BD0426C036C9A4252
:1021800005D09CBF806B1218D31AD8B270470020BC
:10219000704718467047037810B513F001030446E2
:1021A0000FD0FFF7E6FF68B1236CE21892F85400F5
:1021B000A26BC0B2013A934234BF013300232364BF
:1021C00010BD184610BD826CC06C121A50425041AE
:1021D000704701707047034B00290CBF0221012199
:1021E000D9617047DC0F00200A4B10B553F820006E
:1021F00000244268138823F001031B041B0C138086
:1022000083681C800368198013889BB243F0010324
:10221000138010BD040D0020024B53F820301B68C2
:1022200019807047040D0020074BA1F57A7153F80F
:1022300020304FF47A701A689B894B4393FBF0F37C
:102240009BB21380704700BF040D0020012070472F
:1022500001207047054A064B128808B11A6100E058
:102260005A61044B00221A70704700BF842000207E
:10227000000C01405823002008B502F10062084616
:1022800002F5F8311A460DF0B9F8012008BD038BAC
:1022900002899A4288BF8382838A03837047C28AF5
:1022A000838A934224BF01895218D31A9BB2581EC5
:1022B00080B27047426B08B512B15368984708BDA9
:1022C000C069FFF7ECFFC0B208BD828AC38A9A4298
:1022D0003CBF00891218D31A98B2704770B50379C1
:1022E0000446C3F34103012B0D4606D0022B33D124
:1022F000FFF7EBFF628B134618E0C38A808A002247
:10230000834229D02169CE5CA17E8E4201D1AA42AE
:102310001FD8218901339BB28B4228BFC1EB030335
:1023200002F1010228BF9BB292B2E9E79D4202D9B5
:1023300013449BB2FAE7834208D2E28A134422890B
:102340009BB29342E38205D39B1A02E0854203D8F5
:10235000A38AE382012070BD002070BD70B5858A1C
:1023600003890135ADB2AB4298BF0025C38A04464C
:10237000AB420E4607D10121FFF7B0FF18B9054B5C
:1023800004221A7070BDA28A236901209E54A5827E
:1023900070BD00BF642B00200346406910B588B1B2
:1023A00002685A611A69026002B150609A6800F1CD
:1023B0000804013218619A60204600211A6814F05E
:1023C00099FA204610BD10B511E90C00A1F10804DE
:1023D0000BB11A6000E0026151F8082C02B15360A1
:1023E000436941F8083C002341F8043C8368446198
:1023F000013B836010BD09B11030E4E77047002352
:1024000030B5054618469AB28A4217D2EA5C80EA8D
:102410000220082210F4004F4FEA400418BF84F451
:10242000815002F1FF3218BF80F0010092B214BF58
:1024300080B2A0B2002AEDD10133E4E730BDF0B59F
:1024400085B001AF0D4606461446384600210B22E2
:1024500014F050FA65B30022531C092D99B209D922
:102460000A20B5FBF0F100FB11503030B8540D4696
:102470001A46F1E704A80244303502F80C5C14B1A6
:10248000A14203D3002426441A4609E0641AA4B2E8
:10249000002291B28C42F6D03021B1540132F8E7DB
:1024A000013AB95C06F8011B002AF9D118190AE0B3
:1024B000284601303318302203F8012C1CB1013CAE
:1024C000A4B2002CF5D105B0F0BD2DE9F74F0746B9
:1024D0000E469046002498F80030002B00F0F9805A
:1024E000252B40F0F18000231D4618F8012F642AA7
:1024F0003AD017D8392A06D8302A25D2252A40F0D2
:10250000E5803A55E1E0622A25D000F2D980582AC8
:1025100040F0DC8032683819131D336011680123E4
:102520002A4650E06C2A01D10123DEE704D8662A4E
:102530004CD0692A18D0C9E0752A2DD0782A35D018
:10254000732A40F0C3809EE00A214D43303AADB279
:102550001544ADB2C9E732683819131D11683360EC
:102560002A46FFF70FFD1FE032681168131D00298E
:10257000336008DA2D2304F101093B5549421DB1AE
:10258000013DADB200E0A14607EB09002A46FFF786
:1025900056FF09EB000499E032683819131D1168E1
:1025A00033602A46FFF74BFF04448FE03268381946
:1025B0002BB1131D3360116800232A4603E0111D5F
:1025C000316011682A46FFF7A9FCEDE7336807EB95
:1025D0000409073323F0070303F10802D3F804A02A
:1025E00032601A68514601921046002300220DF015
:1025F000A5FB30B12D233B550AF1004A4FF0010BEA
:1026000000E08346514601980DF0E8FB0346194669
:1026100009EB0B0000220093FFF711FF584480B232
:102620002E2209F80020009B00F1010B18460DF046
:102630009DF802460B46019851460CF059FF1FFACF
:102640008BFB002D08BF062502460B464FF0000A03
:10265000104619460022214B0DF0FEF80AF1010A3E
:102660001FFA8AFAAA4502460B46F1D10DF0B6FBD5
:10267000D944014652464846FFF7E1FE58441FFA46
:1026800080FB5C4422E033681A1D3260D3F800906E
:10269000B9F1000F1AD0484614F0B0FA03197E2B96
:1026A000054607EB040003D8494614F049FA05E053
:1026B000C4F17F0549462A4614F0FAFA2C4405E095
:1026C00033681A1D1B6832603B55013408F101085C
:1026D00001E73B5503B0BDE8F08F00BF0000244088
:1026E0000EB403B503AB53F8042B02A941F8043D23
:1026F000FFF7EBFE02B05DF804EB03B0704770B576
:10270000054C054623689847064623689847801B72
:1027100080B2A842F9D370BDF4090020034B1968B8
:102720001A68521A92B28242FAD37047602400208B
:10273000013A2DE9F8430C46072A30D8DFE802F0C9
:1027400004080C12191E222603880B8043880DE012
:1027500043880B80038803E003885B420B80438837
:102760005B4203E043885B420B800388638083887D
:1027700014E003885B420B8043880CE043880B80A5
:10278000038808E003880B80438803E043885B42AA
:102790000B8003885B42638083885B42A380304B5D
:1027A0001B78002B5AD1B4F900000DF041FC804693
:1027B000B4F902000DF03CFC0746B4F904000DF03A
:1027C00037FC284D0646296840460DF085FCE9682F
:1027D000814638460DF080FC014648460DF074FBFA
:1027E000A969814630460DF077FC014648460DF058
:1027F0006BFB10F079FA6968208040460DF06CFCA4
:102800002969814638460DF067FC014648460DF0BF
:102810005BFBE969814630460DF05EFC01464846A7
:102820000DF052FB10F060FAA968608040460DF090
:1028300053FC6969804638460DF04EFC014640461F
:102840000DF042FB296A074630460DF045FC014673
:1028500038460DF039FB10F047FAA080BDE8F88348
:1028600017000020580B002008B5436B0BB15B69C3
:10287000984708BD426B08B512B1D368984702E08B
:10288000426804309047012008BD034BDA6882F0AB
:102890001002DA60704700BF000C0140024BDA689A
:1028A00082F00802DA607047000C014008B5024B64
:1028B0001B68984708BD00BF682B002009B10120A4
:1028C00000E00846F2E72DE9F0410F88002347FABF
:1028D00003F2D2072BD58A7803F0070512F0100F08
:1028E00018BF91F803C002F00F0618BF46EA0C06A5
:1028F000AD004FF00F0C0CFA05FC06FA05F5DC08EC
:1029000050F82480282A28EA0C0C45EA0C0540F8E7
:10291000245005D101229A40C46824EA020205E04D
:10292000482A04D101229A40C4682243C26001337C
:10293000102BCCD1BDE8F08138B500240E4D2146D6
:102940000E4870222C7013F0D5FF21460C4B0B441F
:1029500093F9D2207AB1094853F8D04F0A180C5095
:1029600098889B79073193712B78702903F10103C3
:1029700090802B70EAD138BD740C0020750C0020BB
:10298000A024002010B50024094B1B78A3420DD9C8
:10299000084B33F81410084B1B78A34203D9074B9C
:1029A00020461B6898470134E4B2EDE710BD00BF34
:1029B0000C2A00200E2A0020030D0020AC0D002060
:1029C0002DE9F04F0C68836889B0D0F800A0D0F8EA
:1029D00004800646204603938B4610F04FF90746C5
:1029E000204610F0BFF9DBF804408146204610F085
:1029F00045F90546204610F0B5F9DBF808200446F5
:102A00001046019210F03AF9019A8346104610F0F0
:102A1000A9F93946029058460DF05EFB39460490FC
:102A200002980DF059FB5946059048460DF054FBAD
:102A30000299069048460DF04FFB294607905846EC
:102A40000DF04AFB014650460DF046FB21468346F9
:102A500006980DF041FB014605980DF035FA014648
:102A600040460DF039FB014658460DF02DFA21463F
:102A7000834604980DF030FB014607980DF022FACA
:102A8000014603980DF028FB014658460DF01CFA4C
:102A90003060029905F100400DF01EFB01465046E2
:102AA0000DF01AFB2146834607980DF015FB0146F1
:102AB00004980DF007FA014640460DF00DFB014663
:102AC00058460DF001FA2146834605980DF004FBA7
:102AD000014606980DF0F8F9014603980DF0FCFA4E
:102AE000014658460DF0F0F92146706050460DF051
:102AF000F3FA2946044609F100400DF0EDFA0146CB
:102B000040460DF0E9FA014620460DF0DDF9394660
:102B1000044628460DF0E0FA014603980DF0DCFA71
:102B2000014620460DF0D0F9B06009B0BDE8F08F45
:102B30002DE9F84F384E04463768384610F09EF8B5
:102B40000546384610F00EF976688046304610F09B
:102B500095F88346304610F005F9D4F804900646FF
:102B6000294648460DF0B8FAA768824641463846DD
:102B70000DF0B2FA014650460DF0A4F921688246E4
:102B800058460DF0A9FA4146044648460DF0A4FA0D
:102B900031460DF0A1FA014620460DF095F9314677
:102BA000044638460DF098FA29460DF095FA01468C
:102BB00020460DF089F90146504610F063F9174997
:102BC0000DF08AFA0CF0F4FD11A3D3E900230CF008
:102BD0006DFF134B0446D3F8B0000D460CF0E8FD32
:102BE00002460B46204629460CF084FC00220D4B81
:102BF0000CF05CFF0DF012F910F076F883B21904B6
:102C000044BF00F5B4739BB218B2BDE8F88F00BFA3
:102C1000182D4454FB210940B01800200000E14465
:102C2000180000200000244080EAE073A3EBE0736A
:102C30008B4206DB002801DD401A704702D00844B1
:102C400070470020704770B50546441E14F8011FF8
:102C500061B1074E304613F0F9FE0028F6D0861B0E
:102C60000448631B304480F88231EFE770BD00BF39
:102C700016980108A024002070B540F26C55284633
:102C800013F076FB044660B3174E4C213068C369DD
:102C90009847024610B330682146066A2B46B04773
:102CA000E0B123784C2B19D16388AB4216D123793C
:102CB000BE2B13D194F86A35EF2B0FD100231A469F
:102CC00040F26C518B4203D0E15C01334A40F7E79C
:102CD00022B9204613F054FB012070BD204613F0AA
:102CE0004FFB002070BD00BF0C180020024B1A687B
:102CF00010431860704700BF800B00202DE9F041A1
:102D000002780346202A00F10100F9D0092AF7D001
:102D10002D2A02D10346414D04E02B2A08BF034669
:102D20004FF07E551E460024334616F8012BA2F1C3
:102D30003007F9B209290DD8394920460DF0CCF9F0
:102D4000044638460DF074F9014620460DF0BCF8F3
:102D50000446E9E72E2A17D1314F334616F8010B06
:102D60003038C2B2092A0FD80DF062F939460DF099
:102D700067FA014620460DF0A7F82949044638466F
:102D80000DF0AAF90746E8E71A7802F0DF02452AB3
:102D900038D15A782D2A02D10233012604E02B2A99
:102DA00014BF013302330026013B002713F8012F23
:102DB000303AD1B2092903D80A2101FB0727F5E7E8
:102DC000B7F59A7F28BF4FF49A77B8464FF07E51F7
:102DD000B8F1070F07D9084612490DF07DF9A8F19F
:102DE00008080146F4E707F0070737B108460C4921
:102DF0000DF072F9013F0146F7E72EB120460DF0C4
:102E00001FFA04E04FF07E5120460DF065F90146AF
:102E100028460DF061F9BDE8F08100BF000080BFD9
:102E20000000204120BCBE4C70B50646B6FBF2F453
:102E30000846154614B12046FFF7F6FF05FB14645B
:102E4000024B1B5D00F8013B70BD00BF6E8E010898
:102E500090F85B3210B57BB990F85A3290F859224D
:102E6000934209D201219940B0F8604201332143D5
:102E7000A0F86012DBB2F3E710BD90F862321BB12C
:102E8000D1F1010138BF0021D0F854315A689B6854
:102E900009B11361704753617047F8B5101A0C46B9
:102EA0001F460DF0C5F80546381B0DF0C1F8184B4C
:102EB000079E19680DF010F92946044628460DF0C2
:102EC0000BF92146074620460DF006F90146384623
:102ED0000CF0FAFF10F076F90E490DF0FDF80DF048
:102EE000C1FA069B2146186005F100400FF0CAFFA9
:102EF00009490DF0F1F809490CF0E6FF0DF0B2FABE
:102F00000028BCBF00F50C40A0303060F8BD00BF09
:102F1000780100202C7D8E3FA00CB34500A00C460C
:102F200010B50DF085F8002104460DF091FA08B1B6
:102F3000204601E004F1004005490DF081F9054902
:102F40000DF0CAF80FF09AFE034B186010BD00BFD9
:102F50008096184B35FA8E3C7801002038B50C4D20
:102F6000EB7AA3B10B4B1B78042B10D90A4B0B4CFB
:102F700018685B6820606360FFF7D2FF084B1A880F
:102F8000084B1A80084B1B88A36001232B7338BDA4
:102F9000E50C00201D230020501B0020341B0020C6
:102FA000FE1A0020A61F00204C1B002044F2506394
:102FB000984203DDA0F50C40A0387047034B9842BF
:102FC000BCBF00F50C40A030704700BFB0B9FFFF98
:102FD00070B52D4C2D4D60790DF026F82C490DF073
:102FE0002FF92860E07B0DF01FF829490DF028F932
:102FF000284E6860EE60A0790DF016F826490DF0B5
:103000001FF9264D2860207C0DF00EF820490DF0A8
:1030100017F96860A07E0DF007F821490DF010F94E
:10302000EE60A860E0790CF0FFFF1B490DF008F995
:103030001C4D2860607C0CF0F7FF15490DF000F97D
:103040006860E07E0CF0F0FF15490DF0F9F8164BC2
:10305000A8601B7CEE60ABB120790CF0E5FF0E4957
:103060000DF0EEF8114D2860A07B0CF0DDFF084953
:103070000DF0E6F86860207E0CF0D6FF08490DF0F0
:10308000DFF8A86070BD00BF282A0020781F00204C
:103090000000C8420000FA4400002041881F0020C0
:1030A00000007A4444190020E50C0020301900206B
:1030B0002DE9F0472F4A002392F82050D47F03FBDC
:1030C00003F01938684300F6C4105843604340F6D3
:1030D000C41190FBF1F0284921F813000133072BAC
:1030E000EDD192F82110254B0A274F43B3F84051F8
:1030F000B3F8429192F82260C1F1640C48425FFA41
:103100008CFCC6F16408C5EB090980B2002384B2C7
:1031100022B2002A04DC002C14BF0C46012400E07B
:10312000644602FB02FA64430AFB06FA9AFBF4F4D3
:10313000444454434FF00A0A94FBFAF43C4424B24A
:1031400004FB09F44FF47A7294FBF2F40C4A2C4419
:103150009C5202335044182B80B2D8D1054BBDE8A5
:10316000F0471B78012B18BF064A074B08BF074AD8
:103170001A602DE7282A0020E0180020A024002053
:10318000F8180020459E00085C010020B1A000084E
:103190000449054B0968002218701A615961DA6008
:1031A0001A76704760240020DC0F00200A4B1B7841
:1031B00083B10A4B9A8998811A89D007FCD5074BAD
:1031C0009889C0B2054B1A899107FBD51A89120656
:1031D000FCD4704718467047120B0020003800409E
:1031E000054B1B7833B1054B4FF4805208B15A613F
:1031F00070471A61704700BF120B0020000C01409D
:1032000038B5044601200D46FFF7EAFF2046FFF7D8
:10321000CDFF2846FFF7CAFF0020FFF7E1FF01209E
:1032200038BD054B1B78834204D9044B53F820303A
:103230001B681980704700BF340D0020380D002036
:1032400003280E4B09D80E4A12888A4205D2012261
:1032500002FA00F01A78104318701B780F2B0BD16C
:10326000064B00221A70074B198808B2142802DD99
:103270001439198070471A80704700BF7C190020EC
:1032800040010020F81A00202DE9F34700F124073F
:10329000044638460D46FEF7FAFF24238DF8003029
:1032A0004D238DF801303E238DF802302B78002617
:1032B0003846694605228DF803608DF8043008F021
:1032C000BEFD30B19DF80430A4F84A6084F848305F
:1032D00008E0A38F2387A38DA387AB4B1A780AB985
:1032E00004221A702B78772B00F03C8200F2668162
:1032F0006A2B00F0A78400F29C80452B00F0D18758
:1033000018D8422B00F06A8709D8402B00F0B1870B
:10331000412B08BF002300F0B88700F0D4BF432B37
:1033200000F0C686442B40F0CE87984B01221A70DD
:1033300000F0CDBF662B00F04D8372D8642B00F0F7
:103340002083652B40F0BF87914B2046198804F0FD
:1033500033FF904B2046198804F02EFF8E4B2046F9
:103360001B68C3F3C001C3F38002890041EA420134
:10337000C3F340021143C3F3401241EAC20103F018
:103380001003194304F018FF844A1579D378AD006F
:1033900045EA430553781D43937945EAC3055379BC
:1033A00045EA4315537A45EA83157D4BD97945EAB9
:1033B000C115197A45EA0125597A45EA4125D1799D
:1033C00045EA8125117A45EAC125117D927A45EABF
:1033D000016545EA02355A7B002145EA42359A7B70
:1033E00045EA82351A7C45EA02451A7945EA021512
:1033F0005A7C45EA42459A7C45EA8245DA7C45EAB0
:10340000C2451A7D45EA02555A7D45EA42559A7DE4
:10341000DB7D45EA825545EAC355624B18780B4679
:10342000C0E2682B00F0008400F2028420465E496E
:10343000FCE3702B00F06E843FD86D2B00F03584D8
:1034400012D86B2B00F021846C2B40F03C87574D39
:103450002046298804F0B0FE2046698804F0ACFEBE
:103460002046534B00F028BC6E2B00F027846F2BB6
:1034700040F029874F4D2046E97F05F097FF95F8EA
:103480002010204605F092FF95F82310204605F005
:103490008DFF95F82510204605F088FF95F8261039
:1034A000204605F083FF95F82110204605F07EFFA9
:1034B000204695F8221000F0D9BE732B00F08084CE
:1034C0005AD8712B00F05081722B40F0FC863A4D97
:1034D0002046B5F8981104F06FFEB5F8401120466B
:1034E00004F06AFE334EB5F84211204604F064FE43
:1034F000B5F84411204604F05FFEB6F80A112046E4
:1035000004F05AFE95F8AB11204605F04FFF95F8F0
:10351000AC11204605F04AFF95F8AD11204605F0A4
:1035200045FF95F87C11204605F040FF95F8A11164
:10353000204605F03BFF0021204605F037FFB6F995
:103540002A100A2391FBF3F189B2204604F034FEDD
:1035500095F87D11204605F029FF95F87F1120464A
:1035600005F024FF95F87E11204605F01FFF204648
:1035700095F8801100F07ABE752B00F0DE8300F222
:1035800028840025F0E300BF642B0020EC1D002000
:10359000722B0020140B0020800B0020E50C002073
:1035A000DC1A0020F52200208C0100208019002068
:1035B000FE1A0020282A0020A0240020CF2B00F093
:1035C000598100F29380C82B00F0D08054D8A02BF2
:1035D00000F0E88448D8782B00F02C827B2B40F058
:1035E0007286964B964D93F8A011204605F0DEFEAC
:1035F000B5F82011204604F0DFFDB5F82211204671
:1036000004F0DAFDB5F82411204604F0D5FDB5F834
:103610002611204604F0D0FDB5F82A11204604F00A
:10362000CBFDB5F82C11204604F0C6FDB5F82E11DF
:10363000204604F0C1FDB5F83011204604F0BCFD71
:1036400095F83211204604F04FF895F836112046CF
:1036500005F0ACFE2046002104F046F8204600218B
:1036600004F042F800F026BEA42B00F0A784A62B9D
:1036700000F0FD8400F027BECB2B71D009D8C92BF8
:1036800000F09180CA2B40F01E866E4B03F10A01B8
:10369000AFE0CD2B00F0458400F24D84AB6813F809
:1036A000012BAB60664BDA77AA6812F8011BAA609F
:1036B00083F82010AA68511CA96051780232AA60D0
:1036C00083F82510AA6812F8011BAA6083F8261057
:1036D000AA6812F8011BAA6083F82110AA6812F8E0
:1036E000011BAA6083F8221000F0F1BDD82B00F076
:1036F000558217D8D22B00F02A8107D8D02B00F0A2
:103700000784D12B00F0C48300F0DDBDD42B00F082
:10371000B281C0F02F81D62B08BF002600F00D81AA
:1037200000F0D1BDF12B00F0C8810CD8EF2B2FD0C9
:10373000F02B40F0C885424D2046E98D04F03CFD59
:103740002046A98D9EE2FA2B00F0FD83FE2B00F0AF
:103750000484F22B40F0B785384B03F17001D6E1B9
:1037600000265AE0002522E30025ECE20026284648
:1037700002F037FC344B98530236102EF7D1334BFE
:1037800000221A80324B186808F008F800F09FBD3C
:10379000284602F026FC2A4EF085284602F021FC3D
:1037A000B08500F094BDAB68284613F8012B294E74
:1037B000AB60294BDA72AB6813F8012BAB60274B77
:1037C0001A7002F0FFFB3060284602F0FBFB7060CD
:1037D000284602F006FC224B1880284602F001FC25
:1037E000204B1880204B1A7942F002021A7100F027
:1037F0006EBDAA68013312F8010B8B42AA605870A3
:10380000AA6812F8010BAA60D872AA6812F8010B14
:10381000AA605875EDD100F05ABD144B1B789E423A
:1038200080F05585124B284616F8038002F0D9FB2C
:10383000034B013603EB8803D864EEE7A024002095
:10384000282A0020272A0020B00D0020F81A002086
:10385000FC0C0020501B0020E50C00201D23002044
:103860004C1B00209C1C002080190020F522002009
:10387000DC220020284602F0B4FB6FF4AF63BC4E9C
:10388000C318C62B98BFA6F89801284602F0A9FBDA
:10389000A6F84001284602F0A4FBA6F842012846FB
:1038A00002F09FFBA6F84401284602F09AFBDFF8DD
:1038B000E882AB68A8F80A0113F8012B2846AB6030
:1038C00086F8AB21AB6813F8012BAB6086F8AC210E
:1038D000AB6813F8012BAB6086F8AD21AB6813F829
:1038E000012BAB6086F87C21AB6813F8012BAB6031
:1038F00086F8A121AB680133AB6002F072FB0A23AA
:103900005843AB68A8F82A0013F8012BAB6086F87F
:103910007D21AB6813F8012BAB6086F87F21AB6883
:1039200013F8012BAB6086F87E21AB6813F8012BEE
:10393000AB6086F8802100F0CABC284602F051FB3B
:103940008C4B98530236102EF7D100F0C0BC8A4B36
:103950005A78002A40F0BB84AB68002013F8011BA2
:10396000AB60834B022994BF83F8681583F8682500
:103970000146EFE2284602F034FB804B188000F04D
:10398000A6BCE721204605F011FD794B2046597968
:1039900005F00CFD0421204605F008FD204678497D
:1039A00000F08EBC83420CD2764A9E5C012202FA61
:1039B00006F62E4218BF9A4003F1010318BF1143C7
:1039C000F0E7204603F090FE694B204693F8681517
:1039D00000F04CBC6C4B0025B3F89C306B4EB3F53B
:1039E000806F0CD9715F082391FBF3F1204689B2F7
:1039F000023504F0E1FB062DF4D1002507E0715BF0
:103A00002046023504F0D8FB062DF8D1F5E7604BCF
:103A10002046595B023504F0CFFB062DF7D1002577
:103A20005C4B2046595B023504F0C6FB062DF7D1EE
:103A300000F04DBC584D05F15006B5F8B8102046C1
:103A400004F0BAFBB5F8BA10204604F0B5FBB5F89F
:103A5000BC10204604F0B0FB95F8BE10204605F0DF
:103A6000A5FC0A35B5F8B610204604F0A5FBB54212
:103A7000E3D100F02CBC484E06F15008284602F075
:103A8000B0FAA6F8B800284602F0ABFAA6F8BA00D9
:103A9000284602F0A6FAA6F8BC00AB68284613F840
:103AA000012B0A36AB6086F8B42002F09AFAA6F829
:103AB000B6004645E2D100F00ABC2D4D05F1700676
:103AC00095F8D010204605F071FC95F8D1102046ED
:103AD00005F06CFC95F8D210204605F067FC95F8CF
:103AE000D310204605F062FC95F8D410204605F06E
:103AF0005DFC95F8D510204605F058FC073595F883
:103B0000CF10204605F052FCB542D9D1DFE3AA68B8
:103B1000073312F8010BAA6083F8C900AA6812F8EB
:103B2000010BAA6083F8CA00AA6812F8010BAA6008
:103B300083F8CB00AA6812F8010BAA6083F8CC00C6
:103B4000AA6812F8010BAA6083F8CD00AA6812F8DF
:103B5000010BAA6083F8CE00AA6812F8010BAA60D4
:103B600083F8CF008B42D2D1FEF7E6FEAFE300BF71
:103B7000A024002086190020E50C00202C1B00202A
:103B80000C0000C0DC220020180000205E1C002079
:103B90009E190020A4190020282A0020AB6828467E
:103BA00013F8012BA04EAB60A04B83F8A02102F0CC
:103BB00018FAA6F82001284602F013FAA6F8220106
:103BC000284602F00EFAA6F82401284602F009FA67
:103BD000A6F82601284602F004FAA6F82A0128468B
:103BE00002F0FFF9A6F82C01284602F0FAF9A6F82F
:103BF0002E01284602F0F5F9A6F83001284602F019
:103C0000E1F9AB68284613F8012BAB6086F8362142
:103C100002F0D8F9284602F0D5F9284602F0D2F988
:103C2000284602F0CFF952E381492046102287E06E
:103C30000025804B2046595B023504F0BDFA102D5B
:103C4000F7D144E37C4B2046D97A05F0AFFB7B4BA0
:103C50007B4D1978204605F0A9FB2968204603F022
:103C600043FD6968204603F03FFD764B20461988E6
:103C700004F0A2FA744B2046198804F09DFA734BA5
:103C80002046598D04F098FA21E3714B204619889B
:103C900004F092FA6F4B2046198804F08DFA6B4BB2
:103CA0002046197901F00101E0E26B4B20461968CA
:103CB00003F01AFD694B20461988E3E7684B20465C
:103CC000B3F900104FF6FF7581F30801C9B205F092
:103CD0006DFB644B20461968A942A8BF294621EA1A
:103CE000E17189B204F068FA5F4B2046198804F04C
:103CF00063FA4E4B93F87C215C4B19680029B8BFDE
:103D000049420AB10A235943A942A8BF294620467D
:103D100089B2B7E7564D05F10A06013569782046A4
:103D200005F044FBE97A204605F040FB2046697D1A
:103D300005F03CFBB542F0D1C9E24E4920463022A5
:103D400004F00EFAC3E24C4B1B789D4280F0BF8218
:103D50004A4B2046EA5C344B013503EB8203B3F84F
:103D60004C1004F029FAEEE7434B1B789D4280F299
:103D7000AE82424B3F4AEB5C0C2101FB03235E6B9E
:103D80000135304612F03AFF314682B2204604F047
:103D9000E7F9E9E70C33B3F5967F07D0384A1A44C0
:103DA000127A8A42F6D1204605F000FB0135324BEB
:103DB0001B789D4280F08B82304BE95C0023EDE75D
:103DC0000125E9B22046013505F0F0FA092DF8D1B8
:103DD0007DE2AB6813F8011BAB6009B9294B02E027
:103DE000102903D1284B1E685D6801E000252E468E
:103DF000204605F0DBFA3146204603F075FC2946E3
:103E0000204603F071FC214B2046196803F06CFC3E
:103E10000021204604F0D0F90021204604F0CCF91E
:103E20002046002122E200BF282A0020A0240020F2
:103E30000E2A0020B00D0020E50C00201D230020DC
:103E4000501B00204C1B00209C1C002080190020CF
:103E50009E1C0020A01C0020141B0020641C0020BD
:103E60003C1C0020501C0020F61A0020441C00209E
:103E7000272A0020187D0108F5220020DC220020DE
:103E8000487D0108341B0020401B0020101B00202F
:103E9000AB68284613F8018BAB6002F093F88246BA
:103EA000284602F08FF88146284602F08BF8064635
:103EB000284602F096F8284602F093F8AB680133E2
:103EC000AB60B8F1000F0FD1B04B0122C3F80490E2
:103ED000C3F800A0AE4B83F807801A73002E00F0E1
:103EE000F681AC4B1E60F2E1B8F1100F40F0EF81AB
:103EF000A94BC3F800A0C3F804900EB1A54B1E60F7
:103F0000A548A64B0222011D1A7003F01DFCDEE13C
:103F10009F4B5B78002B40F0DA8101200AF068FBB0
:103F2000D5E19B4B5B78002B40F0D1819C4B4FF44B
:103F3000C8721A80CBE1964B5A78002A40F0C781AC
:103F400001229A73C3E1924B5B78002B40F0BB8156
:103F5000002001210AF0FCFAB9E1924B924A9989BA
:103F60001288924B11B1511A998500E09A85904AB6
:103F7000904812790068DA858F4A002511688F4AC7
:103F8000B1FBF2F1B0FBF2F24FF47A7000FB0122C8
:103F90005A868B4B2046595B023504F00DF9082DEB
:103FA000F7D194E1874D2046296803F09DFB6968AD
:103FB000204603F099FB2046A96881E17B4E20460C
:103FC00096F834900025494605F0F0F9B0464D4585
:103FD00017D27D4E2046715D05F0E8F906F1200309
:103FE000595D204605F0E2F906F14003595D20468F
:103FF000603605F0DBF9715D204605F0D7F9013533
:10400000E5E7684B93F8AB31012B40F060816F4AD4
:10401000002392F87850104688F83450AB4202F1F1
:10402000010215DA684992F8786092F888E05E54E7
:1040300001F1200603F806E092F898E001F140064D
:1040400003F806E092F8A86060315E540133E5E7BA
:10405000D0F8BC300022C8F8B830D0F8C0303021D9
:10406000C8F8BC300120134605F0F8F92FE1584B91
:1040700020461E684D4D16F0200609D0002103F0A1
:1040800033FBD5F8BC10D5F8B8302046C91A04E087
:10409000314603F029FB2046314603F025FBD5F8D5
:1040A000C010204603F020FB2046D5F8C41007E1DD
:1040B000AB683C4E13F8012B2846AB6000237271AD
:1040C000B36001F07FFFB368DFF80C911843AB6871
:1040D000B06013F8012B2846AB6086F8942101F0FC
:1040E00080FFA6F85601284601F07BFFA6F858018C
:1040F000284601F076FFA6F85A01284601F071FF24
:10410000A6F87801284601F06CFFA6F87A01284647
:1041100001F067FFAB68A6F84E0113F8012B2846A3
:10412000AB6089F82320AB6813F8012BAB6089F8EA
:104130002420AB6813F8012BAB6086F88121AB68B3
:1041400013F8012BAB6089F8492001F04AFFB289CE
:104150008046904213D01F4B2AB148B1186841469F
:1041600007F08EFB09E018B118680321424602E00F
:1041700018680121642207F099FBA6F80C80AB684F
:1041800013F8012BAB6089F83020A0E0341B00202D
:10419000E50C0020101B0020401B0020301B0020DD
:1041A000662B0020A0240020722B00208019002004
:1041B00074240020F0090020EC09002040420F0088
:1041C000AC190020E0090020B51900207010002073
:1041D000800B0020F4170020282A0020504D204694
:1041E000697905F0E3F8A968204603F07DFA95F8AF
:1041F0009411204605F0DAF8B5F85611204603F080
:10420000DBFFB5F85811204603F0D6FFB5F85A1178
:10421000204603F0D1FFB5F878112046414E03F057
:10422000CBFFB5F87A11204603F0C6FFB5F84E1162
:10423000204603F0C1FF96F82310204605F0B6F89B
:1042400096F82410204605F0B1F895F88111204623
:1042500005F0ACF896F84910204605F0A7F8A989B2
:10426000204603F0A9FF96F83010204605F09EF88E
:104270002DE000252A4B20462B4493F8821101356E
:1042800005F094F8082DF5D121E0AA6812F8011B79
:10429000AA60234A1A440133082B82F88211F4D110
:1042A00015E00025204B2046595D013505F07EF8CC
:1042B0000B2DF7D10021204603F016FA20460021ED
:1042C00003F012FA03E02046294605F095F8A28F84
:1042D000A38D033292FBF3F103FB1123616BB4F85E
:1042E0004A203846CA5494F8481094F84A30594045
:1042F00084F84810FEF732F8A38D28B1A3876368CD
:10430000D86907F04BFA07E0A28FA387074B2287F3
:104310001A780AB904221A7002B0BDE8F08700BF0B
:10432000A0240020282A0020938E0108642B00205E
:104330002DE9F04FAE4E85B0B368AE4F13F00808CC
:1043400003D1AD4C4546A14631E0002439E0AB4BEA
:10435000E8B21B689847A0F2EE2240F2DC5392B21A
:104360009A4288BFA24BD9F8902088BFB3F8980131
:10437000A34B1340002B03DA013B63F0030301332B
:104380009D4A03EB850322F81300228863880135D8
:104390001344A2880834134434F8022C13441BB28B
:1043A000042293FBF2F327F8083008F1020896F88C
:1043B000AA319D42CBDBD9F890300133C9F8903057
:1043C0000BE096F8AA319C4207DA8C4BE0B21B68EE
:1043D000984727F814000134F3E7B368864C13F4C8
:1043E000804F04D094F894300BB903F09BFE96F8FC
:1043F000A1217F4BE2B1033237F91200B3F8A25189
:10440000B0F57A7003D4A842A8BF284600E0002087
:104410000BF00EFE804628460BF006FE0146404695
:104420000BF00EFF77490BF057FE0CF041F814E04B
:1044300093F8A40190B1744AD179744A32F81120EA
:10444000B3F8A81192B2521A9002B3F8A631801AAA
:1044500090FBF3F000B280F30A0080B2B368A4F8D6
:10446000AE0013F4024F63D0634B694DB3F8B090C4
:1044700095F80831052253430FFA89F898453ADD3B
:10448000644B5A789B46002A35D0594BB3F8983183
:104490003B807B80BB80B5F80A31FB805E4B1A788D
:1044A0009A46032A05D95D4805F0B2FA03238AF833
:1044B000003095F8082195F809311344052253433B
:1044C000984513DD9BF812B0BBF1000F0ED103F03D
:1044D00029FE504B83F800B09AF80030042B05D920
:1044E0004F4805F095FA4C4B04221A70B4F8B230DC
:1044F0000133A4F8B23095F80831052253439845AA
:1045000012DD444D95F80180B8F1000F0CD103F095
:1045100009FE85F80080404D2B78042B04D94048D3
:1045200005F076FA04232B7009F10109A4F8B09084
:104530000022B6F89A11B6F89C511346B85E9B0853
:104540008842C4BF63F07F03DBB20232A842B8BF27
:1045500043F04003082AF1D194F8B400264A984267
:1045600005D192F8B500F92804D8013000E0002008
:1045700082F8B50084F8B430B3681D4A13F480485B
:10458000234DB7F906300AD0B2F89811B2F84C2191
:10459000881A834206DD0A44934206DB02E08B421E
:1045A00003DB17E04FF0000814E00023C4F8C43127
:1045B000C4F8C831C4F8CC31C4F8C030C4F8C43031
:1045C000EB6C2BB10C4B93F89430002B40F07C83B8
:1045D0004FF00108EB6C43B394F894302BBB0D4BB8
:1045E0005B7813B396F89F31E3B103F09BFD1CE0B9
:1045F000A0240020B00D0020481A0020D40D002077
:104600000300008000C07F44440B00204C0B0020BE
:10461000282A0020E50C002060010020807E01088F
:10462000937E0108B8F1000FDFD194F8B5208C4BD0
:10463000142A40F0A6808B4A50789146C0B1EA6CAB
:104640002AB993F8B4305F2B01D103F06BFD96F8D3
:104650009E31002B00F09580EB6C002B40F0918098
:1046600094F8B4307D2B40F08C8003F05BFD88E043
:1046700093F8B420572A15D17B4B4FF47A721A80E5
:10468000B368DB0501D5FEF769FC784B1B6858075A
:1046900002D5774A0A21118013F0080334D1A4F817
:1046A000B63031E0B168490725D55A2A23D193F8AD
:1046B000B8202AB1012283F8B80083F8B92023E09A
:1046C00093F8BA20DFF8C0A182F0010283F8BA2083
:1046D0009AF8003032B10A2B16D9664805F098F9DD
:1046E0000A2305E00B2B0FD9634805F091F90B2342
:1046F0008AF8003008E05D2A00F0EE825B2A00F0C4
:10470000ED825E2A00F0EC82EB6C33B994F8B420B1
:104710006F2A02D10AF028FE15E096F89E2122B1F8
:104720001BB994F8B4307E2BF4D094F8B430972BA6
:1047300004D1524B4FF4C8721A8004E0A72B04BF77
:10474000012389F80E3094F8B430BB2B02D1EB8DE5
:10475000023303E0B72B03D1EB8D023BEB8509E07D
:10476000BE2B02D1AB8D023303E0BD2B09D1AB8D43
:10477000023BAB850120014609F0EAFE002384F8E4
:10478000B530B068420731D594F8BA20344B8AB1BD
:10479000344A527872B13A4AB7F90610B2F89A21FF
:1047A000914207DD93F8942022B93221A3F8BC107E
:1047B00083F8BA2094F8A520294B62B193F8BE2063
:1047C0002AB993F8B82012B93222A3F8BC200123E9
:1047D00084F8BE300AE093F8B8203AB1214A527802
:1047E00022B983F8B820012283F8B920254B002193
:1047F00093F8149001220B464B4547DA07EB43052B
:104800002D8940F2A46A0FFA85FCD44502F1010B10
:10481000D4BF4FF0000A4FF0010A0AFA0BFA40F237
:10482000135BDC454FF0030B0BFB03FBA5F21555A7
:10483000ADB2CCBF4FF0000C4FF0010CB5F5C77F07
:104840000CFA0BFC8CBF0025012595404AEA0C0CA4
:104850004CEA050C41EA0C0101330332CCE700BFFE
:10486000481A0020E50C0020EE170020800B0020E5
:10487000F0170020967E01089B7E0108662B002021
:10488000A02400209C0B00206001002000239D4DEF
:104890009D4A05EB8309D9F84C9002F1940C11EA7A
:1048A000090F0CBF4FF000094FF0010903F80C90FD
:1048B0000133192BA946EAD192F8AC30934D2B75F0
:1048C00023B1012382F89F3082F8963094F8953016
:1048D0008F4A53B98C4B4FF0050CB3F9B01099F8CF
:1048E00008310CFB03F399421DDD11688B071AD5C3
:1048F000EB7843B9C4F8C030C4F8C430834B4FF0F0
:10490000010C83F803C0000410D599F808314FF06A
:10491000050C0CFB03F3B4F9B000984206DD8906E0
:1049200004D5012301E00023EB70AB7494F89630BA
:1049300075495BB10023EB702B7943B9C1F8C030E6
:10494000C1F8C430714B0121197100E02B7194F84A
:1049500094300BB901232B7095F803C06D4BBCF15B
:10496000000F02D16949097911B11021596101E0A3
:104970001021196111684B0725D594F89720624BD7
:104980009AB1A87990B9614A4FF0010A82F806A05D
:10499000D3F8CC20C3F8DC00C3F8C820B3F8D82083
:1049A000C3F8E000A3F8D02000E0AA71B36898042F
:1049B00009D594F898302BB1EB7B23B9534B0122E6
:1049C000DA7300E0EB7311F00A0F20D094F89930FD
:1049D0004D4A4BB16B7943B94C4B01205871B2F839
:1049E000B630A2F8E43000E06B7194F89A302BB145
:1049F0006B7A23B9454B01225A7200E06B7294F82E
:104A00009B20414B1AB1B3F8B620A3F8E6208906E3
:104A100040F1F280EA7A3D4B002A00F0E8803E4AFD
:104A20001278042A40F2E38094F9E82032B11A792E
:104A300022B9BCF1000F01D10122DA7094F89E2056
:104A4000314BDFF8DCA01AB9AA7CDFF8C0B0CAB1DC
:104A5000EB79DFF8B8B0002B40F0B7802F48012287
:104A6000011D8BF808308AF801308BF8072001927D
:104A700002F06AFE022384F8E830B4F80431C4F886
:104A800000313BE08BF8072093F89F20002A49D0A3
:104A9000B3F9D210B9F81C210029B8BF494291429C
:104AA00040DAB3F9D4100029B8BF4942914239DA4B
:104AB0009BF80820002A40F08880D3F808114FF0B6
:104AC000010CC3F8F810D3F80C1103F1F800C3F887
:104AD000FC1003F1FC018BF808C08AF80120039355
:104AE000CDF808C0019202F02FFE039BDDF808C04C
:104AF000B3F8041183F8E8C0C3F80011019A8BF8E9
:104B0000132062E0282A0020481A0020E50C00202B
:104B1000800B0020000C01401D230020341B0020CE
:104B2000600100209AF8011000232B7200294CD15B
:104B3000764B01225A708C46754B002203F5887023
:104B40002CF8002003F58B702CF8002003F58D70F5
:104B50002CF8002003F5907B002041F80B008B44DB
:104B6000CBF80420CBF8080003F5A47B41F80B0038
:104B70008B44CBF80420CBF808000CF1020C03F5B1
:104B8000B87B41F80B00BCF1040F8B44CBF8042038
:104B9000CBF8080001F11401CED1297C11B9002312
:104BA000EB7412E0C3F89801C3F89C01A3F8A021AC
:104BB000A3F8A221A3F8A4215649002353520C3193
:104BC000535202320A2AF7D1E9E79AF800300C2B47
:104BD00012D994F8BE317BB94F4804F019FF4B4B02
:104BE0000C221A704A4B012283F8BE2104E00023F4
:104BF000EB712B7284F8E83094F8A0302BB1AB7CC9
:104C00001BB9464B01229A7201E00023AB72297C4A
:104C1000424B31B3B26800209205587221D599F801
:104C200008214FF0060909FB02F2B4F9B0C094451F
:104C300017DD0122DA703A4A9872B2F8980182B20E
:104C40003A807A80BA80374AB2F80A21FA80DA7A52
:104C50003AB9354F3F78052F03D89A74334B323821
:104C60001880B2682E4BD2064BD56A78002A48D0FD
:104C7000002946D1B8F1000F1FD02D49D4F8C0212A
:104C800009684AB993F876314FF47A7202FB03123D
:104C90001F4BC3F8C02106E08A4204D293F8763154
:104CA0000BB103F03FFA194C2378092B29D921487D
:104CB00004F0AEFE0923237023E0D4F8C03103B31F
:104CC000134BC3F8C0811CE0144B1B78002B3FF43E
:104CD0007FAC0AF049FB7BE4012202E0022200E003
:104CE00003225FFA82FA00200AF1FF33014686F8B8
:104CF000683509F02DFC02202821524609F0B9FB45
:104D000002E5002005B0BDE8F08F00BF6001002083
:104D1000481A0020EE1B0020A27E0108E50C0020AE
:104D2000A0240020282A00201D230020B00D0020F0
:104D300060240020937E01082DE9F04F7A4C87B063
:104D4000A3689B0740F19580784D794B06221F8818
:104D50002B681F442B792F600133DBB2B3FBF2F6D3
:104D60002B7102FB163313F0FF0667D1DFF80C92AC
:104D7000D5F808A099F80130DFF8048250464FF0CA
:104D8000785138F813B00BF0A7F9014650460BF0F4
:104D900099F81FFA8BFB824658460BF049F9654992
:104DA0000BF09AF964490BF04BFA834694F87D01B5
:104DB0000BF03EF9014658460BF08EF9014650467D
:104DC0000BF082F84FF07851A8600BF085F90BF0EA
:104DD0006FFB94F88131A88183B399F80530B4F85A
:104DE000781138F8132040F6E44392B25A4340F663
:104DF000FF73B2FBF3F2B4F87A312869D21A4FF498
:104E00007A735A43B2FBF1F2082190FBF1FECEEB2C
:104E1000000002442A6192FBF1F25743D5E90601F2
:104E200097FBF3F3C01841EBE3716A61C5E9060132
:104E3000424A00230BF05CFB2E602862404AAB899B
:104E400012889A4208D33F4D2B78012B11D93E4846
:104E500004F0DEFD01230BE03C4A12889A4208D39D
:104E6000384D2B78022B04D9394804F0D1FD0223A8
:104E70002B70384E737B5BB3324D2B78082B27D9C0
:104E8000A368DF051FD5344BDB7AE3B1334B1878C9
:104E9000042818D90023324905275A185F540F27D0
:104EA0005770122B03F10207FAB204D0B0EB520F85
:104EB0003B46F0D800E014220A4464235370F023E8
:104EC0009370274800E0274804F0A2FD08232B70C8
:104ED000254B1A881AB1254B1B68980707D4244B19
:104EE0001B8823B9234B1B780BB107F045FF224BDE
:104EF0001A7832B10D4C94F82430002B00F0118355
:104F0000C3E2A268084B1105F4D51A4A1278002AA8
:104F1000F0D093F8BB21002A3AD193F8BC318BBB77
:104F20000D4B5B782FE000BFA0240020301C002038
:104F3000722B00203333534000F07F45407E050044
:104F4000560B002060010020BD7E0108540B00209C
:104F5000C07E0108DC1A0020E50C00201D23002083
:104F6000181C0020B17E0108662B0020800B002059
:104F7000EE170020EC170020702B0020440B0020BF
:104F80004C0B0020337D003318BF0123002BB1D020
:104F900094F8BA31002B40F06A81C44BD868FDF711
:104FA00089F9002840F06381C14AC24D1368A96A9B
:104FB000591A7C2940F25B81AB6295F82C30074688
:104FC000013385F82C3007F12400BA4EC0B204F04A
:104FD000CBFC06F12E0333F917000BF029F8B64B82
:104FE0008046B3F89C000BF023F8014640460BF0D6
:104FF00027F9B2490BF070F80BF034FA013700B220
:1050000004F0DEFC032FDED1302004F0ADFCB6F955
:10501000340004F0D5FC04F0B5FC96F82C0010F038
:10502000030828D1102004F09FFCB36B642793FB86
:10503000F7F000B204F0C4FC212004F095FCB36B3F
:1050400093FBF7F007FB103787EAE770A0EBE770F8
:1050500000B204F0B5FC142004F086FC984BB3F9C0
:10506000000004F0ADFC1C2004F07EFC404604F07F
:10507000A7FC04F087FC95F82C308E4E5A0740F0C0
:10508000D080022004F070FCB6F93C000A2790FBA7
:10509000F7F004F095FCA3689B075FD5B3894FF048
:1050A0006E0808FB03F8152398FBF3F81FFA88F83D
:1050B0003A204FF0640904F057FCB8FBF9FB0FFAF3
:1050C0008BF004F07DFC3B2004F04EFC09FB1B80C0
:1050D00080B20530DFF8F88190FBF7F000B204F001
:1050E0006FFC98F80030B28940F6340192FBF3F27D
:1050F0004A432A21B2FBF1F2F18F062091FBF3FB28
:1051000003FB1B1B4FEA0B1B1FFA8BFB4BEA022B0B
:105110001FFA8BFBC2F303224BEA020B04F024FCC0
:105120000FFA8BF004F04CFCF28F98F8003001324B
:1051300092B292FBF3F103FB11232820F38704F0D2
:1051400013FC706990FBF7F000B204F039FC042006
:1051500004F00AFCB6F9200004F032FC594B1B683D
:1051600098065CD5584FDFF86C813B68574E002B92
:10517000B8BF5B4293FBF8F106FB01334FF03C09EB
:1051800009FB03FA1320039104F0EEFB0399642258
:105190009AFBF8FB02FB01B000B2039204F010FC92
:1051A0001B2004F0E1FB06FB0BA34FF47A7B93FB7F
:1051B000FBF000B204F004FC232004F0D5FB3868B7
:1051C0000028ACBF4E20532004F0FAFB7B6812206D
:1051D000002BB8BF5B4293FBF8FA06FB0A3309FBCE
:1051E00003F904F0C1FB039A99FBF8F802FB0A806B
:1051F00006FB089800B204F0E3FB1A2004F0B4FBAD
:1052000098FBFBF000B204F0DBFB222004F0ACFBC7
:1052100078680028ACBF4520572004F0D1FB04F08B
:10522000B1FB95F82C30282B21D1224B002283F89A
:105230002C201F4A4FF47A7317683C25B7FBF3F70D
:10524000172004F091FBB7FBF5F6B6FBF5F005FB74
:105250001060000200B204F0B3FB182004F084FBDD
:1052600005FB167000B204F0ABFB04F08BFB94F866
:10527000BA31012B7FF43EAE0C4CE068FDF71AF812
:1052800000283FF437AEE468636B23B19B68204687
:105290009847054636E0A368201DEBB10DF11701D4
:1052A0009847003018BF01202BE000BF9C0B002066
:1052B00060240020301C00201800002000007A44E8
:1052C000FE1A0020800B0020501B0020806967FF21
:1052D0001600002080969800E2697AB101210DF154
:1052E000170004F077FB0546E069FCF7EEFF638DDD
:1052F000834205D8206A06F051FA01E0104600E02A
:105300002846C5B20520FDF709FA8A2D31D08E2D29
:10531000B2D1AD4C00212E2204F1720011F0EAFA54
:105320007C2384F87230E02384F875307D2384F880
:105330009E30A38984F87350DAB21B0A84F8913046
:1053400084F88730142384F88A3084F88B304FF443
:10535000FA73A4F88C304823A4F89430782384F8A6
:10536000902084F8862084F8963004F172002E2173
:1053700088E0964B1B6899067FF57EAF924C002122
:1053800004F140002C2211F0B5FA7C2384F840305F
:10539000A02384F843307D2384F86B308C4B84F851
:1053A00041501B7884F85A308A4BDB7A002B64D04A
:1053B00089498A480A688A4E92FBF0FC5FFA8CFCA5
:1053C00006FB0C2706256F43662384F86930D30F4C
:1053D00084F8493042F21073B7FBF3FE03FB1E77EB
:1053E000496884F84C7091FBF0F03F0AC0B284F831
:1053F0004D70CF0F06FB00116943B1FBF3F503FBC2
:10540000151384F851301B0A84F85230B4F86C300C
:1054100064225FFA8EFEE9B202FB0CEE02FB001181
:10542000B3FBF2F224235A43B4F86E301FFA8EFE17
:1054300084F853301B0A84F854306A4B89B21B88B5
:1054400092B284F855301B0A84F85630B4F87030A4
:1054500084F84AE084F84F104FEA1E2E090A84F8B7
:105460004720120A84F84BE084F84E7084F85010FC
:1054700084F8482084F85C3002E0202384F8693006
:1054800059482C2103F0F2FAF6E6D4F8A8200023BC
:1054900084F8243013629362D362C4F8A830534B6B
:1054A0001E68534B1D78002D3BD104F5AC774FF0AF
:1054B000010829466422384683F8008011F01AFA60
:1054C00084F8588129464B4A3B460095072006F050
:1054D00015F9C4F88001802004F00AFAC4F87C01B0
:1054E000F8B1331DC4F87831434B7762F362434B14
:1054F00040463363202110F0FBFEC4F8880118B940
:105500003F4B03221A700CE0202384F887313D4B77
:105510003D48C4F8B0313D4B2946C4F8B43104F0DD
:1055200087FA94F8BC3123B108F0E2FE384A394BCF
:10553000DA603948D0F884300BB138499847384A96
:10554000224D138813B12B689A0702D4354B1B8860
:1055500013B1FDF7A3F90AE01E4B9A7812B1324A53
:10556000082111615B7813B12F4B08225A6194F81E
:10557000BD3123B1144A013B82F8BD310BE0154B1C
:105580005A7B1AB99A70FDF789F901E001229A70E5
:10559000092384F8BD312B689B0610D594F8BE31E1
:1055A00023B1094A013B82F8BE3108E0084B1B7861
:1055B000042B01D9FDF769F9022384F8BE310020DC
:1055C00007B0BDE8F08F00BF301C0020800B00202A
:1055D0001D230020E50C0020501B0020A0860100A8
:1055E0006079FEFF4C1B0020701C00209C0B0020EB
:1055F000702B00201764000805BC000831E4000887
:10560000642B0020C87E0108738F01086E8F01088B
:105610000400FA0500ED00E0180000206C1C0020DA
:10562000662B0020EE170020000C014009B180F825
:1056300020100120704701B10175012070472DE94C
:10564000F04F836985B004460191002B68D0364F36
:10565000836D3A6800F13406D31A042B84BF00230B
:1056600080F844303B688365206B0DF10F01019B8E
:105670009847002854D094F844305A1C84F84420A9
:105680009DF80F20F25494F84430022B0DD194F879
:105690003530012BE8D0122BE6D003F0EF03A22B1C
:1056A000E2D0002384F84430DEE70F2BDCD9E36836
:1056B00094F84690013394F845A094F802B0E36062
:1056C0000225735D43FA09FC0CEA0A0CDC4516D28C
:1056D00094F847200CF1240813407219507800EB1D
:1056E00003200AF053F8D4E90A230AF0DFF9002274
:1056F0000E4B09F0FFFE0AF071FB24F8180002358A
:10570000102DDED13B68A360002384F84430A369E8
:10571000002BA9D0204604F14801E2699847A3E78D
:1057200005B0BDE8F08F00BF6024002000E08E408F
:10573000F0B583698BB004460E46002B00F005815E
:10574000834D036C2A6800F12507D31A022B84BF0E
:10575000002380F824302B680364206A0DF10301D4
:10576000B047002800F0F18094F824309DF8032021
:105770000BB90F2AF1D1591C84F82410FA5494F86B
:105780002430192BE9D1002384F8243094F83D30DB
:105790001BB1236901332361DFE72B6894F82620CE
:1057A000A36094F8273094F8290042EA0322C2F358
:1057B0000A02ADF8042094F82820DB0843EA4213DB
:1057C000C3F30A03ADF8063094F82A30990241EA8F
:1057D000800141EA9212C2F30A02ADF8082094F85F
:1057E0002B205B0843EAC213C3F30A03ADF80A3067
:1057F00094F82C30120942EA0312C2F30A02ADF8FF
:105800000C2094F82E2094F82D00510241EA40011A
:1058100041EAD313C3F30A03ADF80E3094F82F30E6
:10582000920842EA8312C2F30A02ADF8102094F8FB
:1058300030205B0943EAC203ADF8123094F83120FE
:1058400094F8323094F8340042EA0322C2F30A0298
:10585000ADF8142094F83320DB0843EA4213C3F375
:105860000A03ADF8163094F83530990241EA800108
:1058700041EA9212C2F30A02ADF8182094F83620D9
:105880005B0843EAC213C3F30A03ADF81A3094F875
:105890003730120942EA0312C2F30A02ADF81C20A3
:1058A00094F8392094F83800510241EA400141EA65
:1058B000D313C3F30A03ADF81E3094F83A309208BC
:1058C00042EA8312C2F30A02ADF8202094F83B208A
:1058D0005B0943EAC203ADF8223094F83C3040F251
:1058E000FF7213F0010F0CBF0021114613F0020FDD
:1058F00008BF0022ADF82620C3F3C002ADF8241083
:1059000002B101225B07E27003D563690133636171
:105910001BE0E3680DF102050133E3600DF126069B
:1059200068880AF085FB0B490AF0D6FB0A490AF0A1
:10593000CBFA0AF0BDFD25F8020FB542F0D1A369FC
:105940001BB1204601A9E26998470BB0F0BD00BF2A
:10595000602400200000203F00005C4418B9034B85
:1059600001221A707047002303727047642B0020D5
:1059700090F8512008B502F0FD026FF30002C36DEC
:1059800080F85120002280F8502003B1984708BDCC
:105990002DE9F04F037D85B05DB24FF0060C0CFB96
:1059A00005FC01930369D0F81C80D1F800A053F8DE
:1059B000257038F80CB0C7EB0A07BFB2CBEB070273
:1059C00092B294B2BB4414F4004F1FFA8BFB18BF81
:1059D00054421FFA8BF218BFA4B212F4004F1CBF3E
:1059E000CBF1000292B20FFA84F90FFA82FBD9458B
:1059F00008EB0C06CDF8089023DD43F825A090F9BC
:105A0000184090F91450062253F8255053F82430CA
:105A10006243EB1AC1699BB228F80C308C5A1C1BEC
:105A2000A4B2A5B22F044ABF6442758074808A5A1A
:105A300013449BB29AB211044ABF5B42B280B38056
:105A400017E0019E0135067690F9086095FBF6FC9B
:105A500006FB1C55EDB2057509686DB243F82510BB
:105A600090F9143006215943C5696B186F525C8058
:105A70009A80002390F908101A468A4205DA0469D0
:105A800054F8224001322344F7E721EAE17212B1CF
:105A900093FBF2F3C3600C3005B0BDE8F08F90F9D2
:105AA000142090F90830013230B592FBF3F403FB77
:105AB00014220369D2B2027552B253F822408569AA
:105AC0002C1B8461096843F8221090F91410826934
:105AD00053F82130134490F90820836193FBF2F3CB
