:020000040800F2
:10000000005000203D2B0108DD2B010851F30008B2
:10001000DD2B0108DD2B0108DD2B010800000000AD
:10002000000000000000000000000000DD2B0108BF
:10003000DD2B010800000000DD2B0108B9F10008EC
:10004000DD2B0108DD2B0108DD2B0108DD2B01086C
:10005000DD2B0108DD2B0108DD2B0108F5ED000883
:10006000DD2B0108DD2B0108DD2B0108DD2B01084C
:10007000DD2B0108DD2B0108DD2B0108DD2B01083C
:10008000DD2B0108DD2B0108DD2B0108DD2B01082C
:10009000DD2B0108DD2B0108DD2B0108F1ED000847
:1000A000DD2B0108DD2B0108DD2B0108E3ED000845
:1000B000D9ED0008CDED0008C1ED00084DF30008B2
:1000C00045F3000849F3000841F30008DD2B01085F
:1000D000DD2B010861F1000805F10008A1F000081E
:1000E000DD2B0108DD2B0108DD2B010800000000DD
:1000F0000000000000000000000000000000000000
:0C01000000000000000000005FF808F1A3
:100110002DE9F04F7E4C9DB023780590062B01F21F
:10012000B086DFE813F00700170017001700A404DB
:100130002F06BA0A774B1B682BB9774B4FF47A70AE
:100140001B68584300E09847059E744AF36AF062C2
:10015000C31A138023786E4D012B1E4600F0EA80EF
:100160001DD3022B40F063846A4B6D4F1B68984788
:10017000D5F880300646C31A1846049310F094F858
:10018000684B0790596910F0E7F897F83130C5F8D7
:1001900080600026089006933546B246BEE1614B6A
:1001A000A81C9B68984705F10208002800F05984B4
:1001B0005D4B05F1500A1A889946002A00F0998093
:1001C000002708353E46B9F800B0584BBBF57A7F9A
:1001D000CDF810B007D10A20A3F13C0100FB0611B5
:1001E0000022DA510A61DA5938F906000244DA517C
:1001F00010F05EF82B690133012B2B6104D1002331
:1002000068602860AB602AE0D5F800C001936146C1
:10021000CDF80CC002900FF095FF019B8346184665
:1002200010F046F80146584610F04AF9DDF80CC0C7
:10023000014660460FF088FF029A0346194668603F
:10024000104601930FF07EFF0146584610F084F8E7
:10025000A9680FF079FF019BE8602B60A860049A01
:100260000023012A28F806302AF8063034D12869FC
:10027000012807DD013810F01BF80146E86810F08E
:100280001FF900E0002013F089F8294B834693F80A
:10029000660190B110F00CF80146584610F018FABB
:1002A00058B14FF47A73A9F800300023A361E362D8
:1002B0002364E364A36463640EE01C4B4FF47A721E
:1002C000FB580A2003F5FA7393FBF2F32AF8063081
:1002D0000F2101220CF069FD0236062E07F10407FA
:1002E00005F114057FF46FAFB9F80030013BA9F8B0
:1002F0000030002338F803003AF80310044A411A8A
:1003000028F803100233062BF4D101F0AABD00BF78
:1003100018180020740900205C2500206E2C002095
:10032000242B0020300B0020FE1700205C1800203A
:100330009C2500209A4B05F156001B6A98475635BC
:10034000002800F08E83974F974E3888002844D0BD
:1003500000231A46DFF87C82B0F5C87F04BF002175
:1003600048F8021035F9039058F80210DFF868C217
:10037000494448F80210002106EB0309E952023310
:10038000062BDFF82482A9F86A1102F10402E1D1F8
:1003900001281FD1DCF85C304FF4C872C83393FBDE
:1003A000F2F3A8F86A31DCF86030C83393FBF2F35B
:1003B000A8F86C31DCF86430C83393FBF2F27B4B65
:1003C0001B88D21A7A4BA8F86E219985D9850146E7
:1003D0000CF0BAFD3B88013B3B80B268724B520780
:1003E00077D574490A888846322A13D1B3F86A113E
:1003F000A4F86810B3F86C11B3F86E31A4F86A1061
:10040000A4F86C306A4B998DDB8DA4F86E10A4F8BB
:10041000703001E0002A3DD000231946322A664F91
:1004200004BF0020785035F903C0785860447850F4
:10043000002006EB030CE8520233062BACF86A01ED
:1004400001F10401EAD1012A1FD15C4B5C4D187007
:100450005C4B1A702B780A2B04D95B4808F000FE1D
:100460000A232B70B4F86830B4F86E20A6F86A310D
:10047000B4F86A30A6F86C31B4F86C30A6F86E3176
:100480004B4B9A85B4F87020DA85B8F80030013B00
:10049000A8F800304D4A1378DBB10023616F137068
:1004A000322291FBF2F1A6F86A11A16F91FBF2F1F1
:1004B000A6F86C11E16F91FBF2F23C490888121A20
:1004C000A6F86E2101203A4A01469385D3850CF0A7
:1004D0003BFDB4F85620B6F86A31D31AA4F856306A
:1004E000B4F85820B6F86C31D31AA4F85830B4F8E0
:1004F0005A20B6F86E310226D31AA4F85A30B0E268
:1005000009F1540935F8092028F80520304A043645
:10051000AA5E0235062D02FB02AA61D0DFF8BC906C
:100520000DF1400B39F905000FF0C2FE08990FF0EC
:1005300013FF069A4BF80600DFF89480002ADFD0FC
:1005400010460FF0B5FE01464FF07E500FF0B8FF99
:100550000246114609F1820B4FF07E5002920FF0D5
:10056000F1FD56F80B100FF0F7FE09F1540984461F
:1005700039F90500CDF80CC00FF09AFE029A114629
:100580000FF0EAFEDDF80CC0014660460FF0DCFD1E
:100590004BF8060010F0A6F828F80500B6E700BFF3
:1005A000300B0020622C00209C25002078000020C9
:1005B000242B0020F41B00208C180020F61B0020A8
:1005C00094000020F01B00206E800108F11B002029
:1005D0004E1D002074180020181800201A18002042
:1005E000B14A6425128805FB0AF3524393FBF2F5E6
:1005F000493DAE4810A9ADB202F03AFA3B2D6ED992
:10060000AB4BD4F89850B3F900000FF051FE0146FF
:1006100028464FF0010610F05BF800B90646A54BDE
:100620002946D4F894005E7312F018FD0646C4F80B
:100630009C00D4F89000D4F898A000F10045D4F8BC
:10064000940001460FF088FE5146814650460FF057
:1006500083FE014648460FF077FD12F09FFE0146EB
:10066000284612F0FBFC0546C4F8A00030460FF007
:10067000DFF989A3D3E900230FF02EFA0FF00EFD66
:1006800012F01EFCDFF85092A9F8000028460FF087
:10069000CFF981A3D3E900230FF01EFA0FF0FEFC7F
:1006A00012F00EFC844BA9F802001B681B0764D5EE
:1006B00010A9824802F0DCF9814B4FF0000BB3F82F
:1006C00064010FF0F1FD4FF07E5182460FF03CFDCA
:1006D00001464FF07E500FF0F3FE81462DE0784B3F
:1006E0004FF00009B3F862010FF0DEFD4FF07E51CC
:1006F00006460FF029FD01464FF07E500FF0E0FE58
:100700000546DFF8A8A130465AF819100FF024FE6C
:100710006C4B834633F909000FF0CAFD0146584679
:100720000FF012FD29460FF017FE4AF8190009F1E3
:100730000209B9F1060FE4D162E7604B504653F865
:100740001B1001930FF008FE5F49024631F90B00C0
:1007500002920FF0ADFD029A014610460FF0F4FC34
:1007600049460FF0F9FD019B43F81B000BF1020B0A
:10077000BBF1060FE1D118463FE0DFF850A110A908
:10078000504602F075F9DAF80000DAF80430014654
:10079000DAF8089001930FF0DFFD019B83461946BC
:1007A00018460FF0D9FD014658460FF0CDFC4946DA
:1007B000834648460FF0D0FD014658460FF0C4FC72
:1007C00012F0ECFD002181460FF05AFFA0B9DAF8D3
:1007D000000049460FF074FE4946CAF80000DAF8F6
:1007E00004000FF06DFE4946CAF80400DAF808006C
:1007F0000FF066FECAF80800344802F0F1F9344BF5
:100800003449188007980FF0A7FD314B814606F157
:100810000046B3F9000005F10045139614950FF05A
:1008200047FD00F100400FF003F91DA3D3E90023B9
:100830000FF052F90FF032FC1590B8F900000FF0EC
:1008400037FD1690B8F902000FF032FD1790B8F995
:1008500004000FF02DFD13A9189016A802F008F956
:1008600097F84830012B39D1124B5B7873B9D4F823
:10087000B030402093FBF0F0181A0FF019FD1899D2
:100880000FF062FC0FF02EFFC4F8B000D4F8B030C7
:10089000402093FBF0F023E03B597E90A9E7814094
:1008A000399D52A246DF913F78000020A818002011
:1008B000980B0020F50C0020900B0020BC180020A5
:1008C0009C2500204E1D0020941A0020840000204A
:1008D000EE1B0020BD378635701A0020B84B1888F3
:1008E0000FF0E6FC014618980FF02CFCB54B189061
:1008F000196848460FF028FC014648460FF0E0FD15
:10090000D4F8B4608046314618980FF01BFC0146BD
:1009100040460FF021FD014630460FF015FC06461B
:10092000C4F8B4001698D4F8B88012F0C9FA97F851
:10093000331002F0D1F94044C4F8B8001798D4F845
:10094000BC8012F0BDFA97F8331002F0C5F94044AC
:10095000C4F8BC003046D4F8C08012F0B1FA97F861
:10096000321002F0B9F9984B049E1A6840443244A0
:100970001A60D4F8C430954D0133C4F8C43097F8E8
:10098000B630C4F8C000002B4FD0D5F89000D5F891
:10099000948001460FF0E0FC4146074640460FF0C8
:1009A000DBFC014638460FF0CFFBD5F898600746D0
:1009B000314630460FF0D0FC014638460FF0C4FBFC
:1009C00012F0ECFC014630460FF07AFD80490646F5
:1009D0000FF06AFE18B10023A5F8C83025E03046B4
:1009E00012F0EAFA7B4B19680FF0B6FC12F068FAC5
:1009F000B0F5617FA8BF4FF461700FF007F86EA3E8
:100A0000D3E900230FF092F90FF048FB12F096FAA9
:100A1000714B064693F8B6000FF04AFC31460FF0D2
:100A20009BFC12F04DFAA5F8C800032619E06B4BA9
:100A30005B79012B6A4B0DD1B5F9CA10B5F90620C7
:100A400002EB4102032192FBF1F292B29A80A5F8E7
:100A5000CA2001E0EA889A80628804261A80A28867
:100A60005A80059F012326707B7001F00ABA5D4B06
:100A70005D4A197C584BA1B9B2F906101A8D914202
:100A80003CDBB1F5FA6F93F8264007DA891A4C433C
:100A9000A2F5FA6294FBF2F4643430E0C4F1640429
:100AA0002DE0B2F906101A8D91420FDB4F4AB2F9D0
:100AB000061093F82620914208DDB1F5FA6F02DAAC
:100AC000891A4A435212C2F1800200E0802248494A
:100AD000B1F90210142909DD93F82600B1F5967FCB
:100AE000A8BF4FF496714143A2EB212293F8264010
:100AF000C4F18004A242A8BF144600E06424374A2F
:100B000093F8B050B2F8989192F95C2193F8B160E3
:100B1000524293F8253092B200212F480792CDF827
:100B2000189008930A46304BDDF818A0CB5E40F2CF
:100B3000E6370493CAEB030303F2F31CBC4503D866
:100B4000002BB8BF5B4201E04FF4FA73022ADFF8D2
:100B50009C8051D025B1AB42CCBFC5EB0303002331
:100B60006427DFF868A093FBF7FC0AEB4C096FF0F1
:100B7000630B0BFB0C3BB9F8CC900AEB4C0CBCF9AB
:100B8000CEA00FFA89FCCCEB0A0C0CFB0BFC9CFBF7
:100B9000F7FCCC4428F801C090F823C003FB0CFC00
:100BA000144B9CFBF3F33B449BB2634393FBF7F77B
:100BB00039E000BFAFF30080A2EB0FE5DD169640F1
:100BC00078000020A40B0020682C002018180020BA
:100BD0008FC2753CA00B0020242B00209C250020F8
:100BE0008E1A0020F50C0020C00D00200A1C0020E9
:100BF000701A00200CFEFFFF26B1B342CCBFC6EB3B
:100C000003030023DDF81CB0DDF820C003FB0BF765
:100C1000002BB8BF5B4203FB0CF3A8F80470B64F7F
:100C200093FBF7F76437B54B90F80B90134493F8A8
:100C3000018007FB09F907FB08F86423DFF8F8C215
:100C400098FBF3F802F80C8099FBF3F90CF1030818
:100C500002F8089090F815800CF1060C07FB08F7D5
:100C600097FBF3F702F80C70049B069FBB42A44F5E
:100C700002DA7B5A5B427B520132032A01F1020104
:100C800000F101007FF44FAF9E4BB3F906209E4B5D
:100C9000B3F89A319A4205DBB2F5FA6FA8BF4FF468
:100CA000FA6200E01A46D21A4FF47A714A43C3F549
:100CB000FA63B2FBF3F36425944A93FBF5F102EB7C
:100CC00041006FF0630606FB0133B0F8E40002EB6D
:100CD0004101B1F9E66001B2711A4B4393FBF5F59E
:100CE0008B4B28445B7A864CF8809046002B44D08E
:100CF000884BB3F90000884BB3F90030C01A0EF0EE
:100D000085FE7BA3D3E900230EF0E6FE0022834B91
:100D10000FF00CF80FF0C2F9054612F09BF80646EA
:100D2000284612F00BF90546B4F902000FF0C0FA9C
:100D30000746B4F900000FF0BBFA314681460FF0C8
:100D40000BFB2946824638460FF006FB014650460B
:100D50000FF0F8F90FF0C6FC3146208038460FF04E
:100D6000FBFA2946064648460FF0F6FA0146304699
:100D70000FF0EAF90FF0B6FC6080052388F8003028
:100D800000F087BC664BDFF874911A6812F0080512
:100D900039D05B4988880F4600F145039BB28A2B06
:100DA00060495C4B2DD85A4E96F805C0BCF1000F37
:100DB00027D0B3F800C00B88767BC3EB0C0189B257
:100DC0008BB20FFA83FC1CF1B30FBCBF01F5B473F7
:100DD0009BB219B2B3294C49C4BFA3F5B4739BB2FB
:100DE00091F85C117EB149B249424B4399F8091020
:100DF0001BB24B436FF01D0193FBF1F31844B88015
:100E000001E01B880B80570740F1A380404B997984
:100E1000002900F09E801E7C394B002E40F090800F
:100E200099F8B300404F99F8B21068B3B3F806C010
:100E3000B7F900000FFA8CF7C0EB0708B8F1000F04
:100E4000B8BFC8F10008884510DD8742DFF8EC80A4
:100E5000C8BF4942C8F800601FFA8CFC4FF0010679
:100E6000C8BF89B284F8FC6061443FE094F8FC108C
:100E700031B12E490F682E490F60244981F8FC607A
:100E80002C490968084426E0B7F90060B3F90670F8
:100E9000BF1B87EAE77CACEBE77C8C450ADD0221CF
:100EA00097FBF1F70121C4F8007184F8041184F86C
:100EB000FC100DE094F8FC7014494FB11B4F81F801
:100EC0000401D7F800C01A4F81F8FC00C7F800C031
:100ED0001849086830440C4EB6F84011B6F8426123
:100EE000884203DBB042B4BF01463146D98030E0CE
:100EF000182D4454FB2109400CFEFFFF242B002039
:100F00000A1C0020C00D00209C250020181800207D
:100F1000F50C0020EE1B00201E1C00200080664007
:100F2000900B00201C1C0020081C0020041C00202A
:100F3000001C0020181C0020F2180020141C0020A7
:100F40009549588891F9A0619449096806FB010107
:100F5000598099F8B63053B1914BD97809B91B79BA
:100F60002BB1904BB4F8C800D9880144D9809606BB
:100F700040F18C838A4AD77904971FB9137A002BE2
:100F800000F07F83127B864B002A00F07A83864A2A
:100F90001788019338B20FF08BF984490FF0DCF910
:100FA000064611F0CBFF8046304611F053FF019BFF
:100FB00006461A7C002A40F0858099F815917C4FEE
:100FC0007C4DB9F1000F4CD0DFF814A2B7F9020044
:100FD000BAF80230C9F100041FFA83FB1BB2C01A31
:100FE00002F03CF8A04203DB4845A8BF484600E0B9
:100FF0002046BAF800308344B7F900009AB21BB219
:101000001FFA8BFBC01AAAF802B0029202F026F86F
:10101000A042029A03DB4845B4BF04464C46144440
:10102000A4B2AAF800400FFA8BF00FF041F907467E
:1010300020B20FF03DF93146044638460FF08CF9E6
:101040004146814620460FF087F9014648460FF099
:1010500079F859490FF034FA0FF044FB28803846EC
:101060001DE0B7F902000FF023F98146B7F900003F
:101070000FF01EF93146044648460FF06DF941461F
:10108000074620460FF068F9014638460FF05AF837
:1010900049490FF015FA0FF025FB288048464146D4
:1010A0000FF05AF93146074620460FF055F9014630
:1010B00038460FF049F840490FF002FA0FF012FBE2
:1010C0006880E3E23D4A3E48B2F800E03D4ADB7CFE
:1010D000D28899F8369106923B4AD2F808803B4A6A
:1010E0001FFA88FA16888268CAEB0606B6B2CAEBFF
:1010F000020A1FFA86FB1FFA8AFA33B10FFA8BF243
:101100004A45BCBF08EB090282600A220FFA8EF042
:1011100050430292019301F0A1FF029A019B90FBC0
:10112000F2F000B290FBF2F26DB138B291B2821AD5
:10113000002AB8BF52420A2A06DD254A1288C82A68
:1011400088BF0F4600E097B2224DCAEB0601D5F8E2
:101150000821214E642092FBF0F0D6F800C0D5F8AB
:10116000102189B2C2EB0C0CBCF1C70FA5F80C0121
:10117000A5F80E11B24640F268823268174EC5F8E3
:101180001021B6F82C2169BBA5F81421002B3DD005
:10119000034B0022DA7439E09C250020181C002043
:1011A000F50C00200A1C0020EE1B002035FA8E3CB6
:1011B000521C0020481C0020000020419A1A0020E8
:1011C000301C0020C00D0020241C00203C1C0020EE
:1011D0008C1D0020181800205C250020242B0020E6
:1011E0004E1C0020B6F830E109B20EFB112EB6F805
:1011F0002E21B6F82AC1964503DBE645B4BF7246F8
:101200006246A5F814210BB10029C1DAC01B049F66
:1012100080B29E499E4BE7B1CA7C7AB1B6F82421D0
:101220006FF009077A43A5F80E21B6F82A21A5F830
:1012300014210FFA8BF2182AD8BF00201A88312AFD
:1012400007D80FFA8BFBCB4503DD924A08EB090761
:101250009760897C8D4A49B11988092906D80021EF
:101260005170D1748B4A08F1050191601B88092BDC
:1012700008D800B20FF01CF887490FF06DF80FF096
:1012800031FA80B24FF0640800B208FB00F001F0C0
:10129000E5FE90FBF8F01FFA80F80FFA88F3002BB8
:1012A000B8BF5B42DAF80000AA2BC8BF4FF0AF0806
:1012B000D5F81831DFF80492C01A0EF0F5FF77491F
:1012C0000FF0FEF8DAF80030B5F80EA1C5F81831C5
:1012D0000AF103039BB2062B074606D8D9F8000093
:1012E00039460FF039F8C9F800000A2202FB0AF269
:1012F00092B293B2A4F80E3118B2029201930EF09A
:10130000D7FFD4F8201182460FF026F839460FF0A7
:1013100023F8D9F800100EF017FF0FF0E3F9604939
:10132000B0F5FA7FA8BF4FF4FA708842B8BF0846FC
:101330000EF0BEFF5B49029A8346C9F80000088898
:10134000019B121A92B20B8013B2002BB8BF5B4202
:10135000642BC8BF0022544B03F10A01988823F87C
:10136000020F8B42FAD1514900230A811846CA5A0A
:10137000023310440A2B80B201D080B2F7E700B2EA
:101380000EF096FFD5F824110EF0E6FF39460FF067
:1013900097F80FF0A7F91FFA80F9D5F81C11A5F8F6
:1013A0002C9150460EF0D8FF0FF09CF900B20EF0D1
:1013B0007FFF59460EF0C8FE0FF094F91FFA88F827
:1013C00008F103039BB2062B1FFA80FB08D8DFF855
:1013D000F0A03946DAF800000EF0BEFFCAF80000AF
:1013E0004FF00A0C0CFB08F81FFA88FC1FFA8CF26D
:1013F00010B20292CDF80CC00EF05AFFDFF8C0A078
:10140000D5F8341180460EF0A7FF39460EF0A4FF40
:10141000DAF800100EF098FE0FF064F9204BB0F5EA
:10142000FA7FA8BF4FF4FA709842B8BF18460EF082
:101430003FFF0346CAF800001D48DDF80CC00188D4
:10144000029AC1EB0C0189B202800AB2002AB8BF2D
:101450005242642AC8BF0021164A02F10A00B2F8BB
:1014600004E022F802EF8242F9D1134A4FF0000A59
:101470001181504632F80A100AF1020A0844BAF102
:101480000A0F80B21ED080B2F4E700BFF50C002036
:101490008E1D0020301C0020CDCCCC3D00007A44B5
:1014A0000CFEFFFFD81C0020DC1C0020DE1C0020EE
:1014B000DA1C0020E81C0020EA1C0020D41C0020BC
:1014C000D01C002000B201930EF0F2FED4F83811C7
:1014D0000EF042FF39460EF0F3FF0FF003F987B22A
:1014E000D4F83011A4F8407140460EF035FF0FF0EB
:1014F000F9F800B20EF0DCFE019B0FFA8BFB1946E7
:101500000EF022FE0FF0EEF8B6F924316FF009016B
:101510004B439BFBFAFB0FFA8BFBB6F926119B455D
:1015200080B20AFB01FA03DBD345B4BF5B465346E6
:10153000B04C02B2B4F920116FF0090048434FF0EB
:101540000A0E994492FBFEF2AB4B1FFA89F98242D4
:10155000A3F8029004DB0EFB01F08242B8BF1046F4
:10156000BFB238441880B4F922016FF00901414339
:101570008A4204DB0A2141438A42B8BF11469F4A8E
:101580000F44507C9F80114658B194F828210FFADF
:1015900089F95242914503DBD145B4BF4A465246D0
:1015A0005A80C97C964A69B996F83261B2F900004E
:1015B0006421B6FBF1F15E880028B8BF404201FB10
:1015C00010615980B2F902000EF072FE4FF07C51AA
:1015D0000EF0C2FE0FF086F88A4BB0F5E17FA8BF8F
:1015E0004FF4E1701A88B5F81471A2F5E17320EA9E
:1015F000E0709BB2381A642B87B2834E0CD910B2BC
:10160000C0F5FA700EF054FE80490EF0A5FE0FF002
:1016100069F8338818443080B6F90030B4F82E21C8
:10162000B3F5FA7FA8BF4FF4FA7323EAE37333806C
:101630003B441BB29342B4F82A1103DB8B42B4BF84
:101640001A460A46724BA3F814216C4A6A4BD178A9
:1016500009B9117921B1927A52B1684A927C3AB9AA
:10166000DDF818900022A5F814915A801A809A800B
:10167000684AB5F81411D180998893880B449380F7
:1016800004E05D4B00221A805A809A80604B06224B
:101690001A70059E01237370F3E35F4BDB68984774
:1016A0005E4B93F80080B8F1030F14D9594BB4F98D
:1016B0004611B3F904006FF063030028B8BF40423D
:1016C0001B1A994204DB00F164038B42A8BF0B464E
:1016D000A4F846310BE0B8F1010F08D8504B5A7905
:1016E0001946013AD2B2172A00F2D481A3E0414848
:1016F000B4F8447190F90E11B4F84291B4F946412E
:1017000049424C433D49434B0A7C90F81E01897A7B
:10171000DE88B3F804A0434D06940597CDF81090E9
:1017200007920890099100244445D7D230B20EF0B8
:10173000BFFD296883460EF00FFE059B844618B254
:10174000CDF80CC00EF0B4FDA9680EF005FEDDF872
:101750000CC0014660460EF0F7FC049A844610B2B5
:10176000CDF80CC00EF0A4FD69680EF0F5FDDDF8B3
:101770000CC0014660460EF0E7FC84460698CDF8A2
:101780000CC00EF095FDE9680EF0E6FDDDF80CC02A
:10179000014660460EF0D8FC0EF0A4FFDFF88890FA
:1017A000079B670029F81400002B41D0089A002AF3
:1017B0003CD0099B002B3BD00FFA8AF00EF078FD4D
:1017C00084462046CDF80CC00EF06EFD4FF07C51E3
:1017D0000EF0B8FCDDF80CC0014660460EF0BCFD12
:1017E000014658460EF0AEFC0EF07CFF29F80700CB
:1017F0001EE000BF242B0020481C0020F50C002018
:10180000701A00208C1D0020DC1C0020CDCCCC3DAB
:10181000181800200A1C002084000020082B00203B
:101820009C250020C40B00200A2B002027F809600B
:101830000134103578E7012303FA02F2B94B134063
:101840006BBBD00640F12681B74BB84893F9BE2058
:10185000B0F90240B0F900005443322294FBF2F494
:10186000B3F8BC20A4B211B21129DCBFB04A32F8DF
:101870001120B04922440A8093F9C820B3F8C63039
:101880005043322290FBF2F01AB2112AD8BFA84B73
:1018900080B2D8BF33F8123003444B80FAE0A64B35
:1018A0009B7A43B1A54B1A88ADF858205A889B887B
:1018B000ADF85A200AE0A24BB3F84221ADF8582007
:1018C000B3F84421B3F84631ADF85A20ADF85C3096
:1018D0009C4B974A1B88ADF85E30B1F8983111895E
:1018E000C91AADF860105189C91AADF86210918912
:1018F000C91AADF86410D189C91AADF866101188FB
:10190000C91AADF868105188C91AADF86A109188E3
:10191000D288C91AD31AADF86E30ADF86C10002316
:10192000844900225A520233102BF9D1864B1546B6
:101930001B7805931346DDF814A0554500F08F8001
:10194000824E834C9119887920B1824F3844007DB2
:1019500000287ED0B05C744E0A2707FB0067B7F8FA
:10196000BAE0B7F8B86091F904B0C6EB0E06B6B2AB
:1019700006FB0BFB642791F801809BFBF7FB4FEA0A
:10198000560C91F803E0CCEB0B0B4FEA48070DF136
:1019900070091FFA8BFB91F805A04F44BEF1000FB0
:1019A00003D137F8187CE7521BE0E45E37F9187C66
:1019B000DFF89C91BC4209DAA644A64503DB7745D3
:1019C000B4BF3C46744629F803400AE009DDCEEB7B
:1019D000040EBE4503DBA645B4BF7746274629F86B
:1019E0000370DFF844E14FF00A0909FB00EEBEF88E
:1019F000C0E091F902104EFA08F818F0010FDFF874
:101A000050814C4C33F908800FFA8BFB01FB08F135
:101A10004FF0640891FBF8F10CBF4FF0010E4FF04E
:101A2000FF3E594534F810701FFA8EFE0CDB4FFA5A
:101A30008AFB06FB0BFB9BFBF8FBCCEB0B0B0FFABB
:101A40008BFB8B45A8BF8B460BFB0E7B24F810B09D
:101A500000E0E0520135EDB2023307326BE73E4B56
:101A6000314A03F1100492F9BE10B3F902500A3260
:101A70004D43642195FBF1F5B2F8B210ADB208B256
:101A80001128DCBF2A4931F81010294423F8021F1D
:101A9000A342E8D1314B9A689A4612F0200F224BAC
:101AA0003BD0B3F8BC00234C02B2112AD8BF204966
:101AB0002546D8BF31F81200B3F8C61020800AB20C
:101AC000112ADCBF1A4931F812101A4A0C466980F3
:101AD0002049097A09B393F8101193F9C86011F0FD
:101AE000020F93F9BE7011493AD0B1F90050B1F923
:101AF00002106E437F424F434FF0320E96FBFEF6CC
:101B00006FF03101B6B297FBF1F1314497FBFEF76C
:101B100008443E441080344454800F4A024902F184
:101B2000100532E089209800242B0020701A002034
:101B3000C00D0020C0000020F50C00200A1C002071
:101B4000181800200A2B0020840C0020850C00208F
:101B500060190020CC1B0020BE0000209C25002026
:101B6000B1F90250B1F900106F434E43322597FB93
:101B7000F5F7384496FBF5F510802C44CCE722F8B5
:101B8000020FAA4201F10A010CD0B2F90240B1F9E8
:101B9000B800B1F8BA608442F1DB30B2A042A8BF0D
:101BA0002046ECE793F81031590705D49A499B4B2E
:101BB0000C881B7801220FE0994B9A4D9E7D0024E2
:101BC000043EA0190134C0B235F8021FE4B201F09E
:101BD00080FB042CF5D1E9E79A4208D231F91200D2
:101BE00024B2A042A8BF0446A4B20132F4E78E4A50
:101BF000BAF84251107C291B89B204908B48069197
:101C0000DAF80810BAF846C1B0F90600BAF844E1AB
:101C100001F4804601F01001BAF898710590CDF8F2
:101C200020C08348BAF840C10E911FFA8EF10B9183
:101C30008049B0F9EAB00D960797BAF848819AF84A
:101C40000590B0F9EC70BAF89AA11FFA8CF05678AA
:101C50005B000A904989507C0F93CDF800B0CDF815
:101C600024A00C9600230F9EB3426ED022B2AA424B
:101C700008DD049A32B9684A069E33F802A0B244DD
:101C800023F802A00D9E644A002E36D0DDF814A081
:101C9000DDF81CB0DA4532F903A015DDC24503DBDF
:101CA000AA45A8BFAA4600E0C246B9F1010F22F832
:101CB00003A041D1009A09B2914203DBB942A8BF07
:101CC000394618E0009916E0F24504DB089EB2455B
:101CD000A8BFB24600E0F246B9F1010F22F803A016
:101CE0002AD109B2B94205DBDDF800A05145A8BFF1
:101CF000514600E0394689B21EE032F903B0E345AF
:101D000003DBAB45A8BFAB4600E0E34622F803B0D7
:101D100002EB030ADDF814B0099A93450BDA0E9E24
:101D200026B9DDF828B0AAF800B005E00B98AAF8AB
:101D30000000012000E000200C9A22B93E4A985A87
:101D4000354A9852012002338DE7354A394C364BDB
:101D50006181517D58741A4600297CD0374E7379C1
:101D6000013B172B6CD8DFE803F00C6B6B186E6B24
:101D70006B1E6B6B6B6B6B256B6B6B6B6B18256BDF
:101D80006B342B4B93F80F3113B10020618960E065
:101D900050780028F9D101465BE00020218901F04C
:101DA00098FA0120F2E70020E18801F092FA012080
:101DB00021894EE00020E18801F08BFA0120218981
:101DC00001F087FA0220618901F083FA0320A189DA
:101DD0003FE00020E18801F07CFA0120218901F038
:101DE00078FA0220618901F074FA0320A18901F0D8
:101DF00070FAB3680F4DDA072DD50420298801F059
:101E000068FA0520698801F064FA0620A98801F0C3
:101E100060FA0720E9891CE00A2B0020082B00202B
:101E2000AC0B0020C60D0020F50C0020C00D0020DA
:101E3000242B0020C0000020761A00209C250020C2
:101E4000B3689B0607D50020218801F042FA61881B
:101E5000012001F03EFA00F0EDFD0C4B00221A705B
:101E60000FE00B4B1B6813F0020307D1A2F85630AA
:101E7000A2F85830A2F85A30FEF7D7BD0126FEF777
:101E8000F0BD00201DB0BDE8F08F00BF1818002085
:101E9000900B0020AFF3008010B5C468A36A43B173
:101EA000616809B1206A03E0A26912B1206A0F4992
:101EB0009847E36ABBB1A16811B1206A984712E064
:101EC000626982B1206A0A49984760B194F8243067
:101ED0004BB9012384F82430E36823B120469847A6
:101EE00008B984F82400002010BD00BFB99900088B
:101EF00075B9000870B5174C174D002B0CBF2B4659
:101F0000234672B1013A9400002221FA04F606F049
:101F10000F0601329E5D8518043C05F8016CF4D56E
:101F200015E089B101251C2421FA04F606F00F06FC
:101F300005B126B19D5D85540132002500E00125E3
:101F4000043C261DF0D102E030230370012210462C
:101F500070BD00BFD88F0108E98F010830B562B1AC
:101F6000531E013821FA03F404F00104303413F154
:101F7000FF3300F8014FF5D215E089B101241F238A
:101F800021FA03F505F0010504B125B1303585547A
:101F90000024013200E0012413F1FF33F0D202E00B
:101FA000302303700122104630BD074B9B788342DB
:101FB000064B02D8B3F898017047184490F8822174
:101FC000034B33F822007047080E00209C250020A8
:101FD000E80D0020034B184490F88221024B33F89F
:101FE000220070479C25002010200020034B18443D
:101FF00090F88221024B33F8220070479C25002084
:10200000680E0020034B184490F88221024B33F8ED
:10201000120070479C2500203C0F002010B5094A93
:10202000094913688C6812689342F8D1074A10680E
:1020300011684FF47A725043001BB0FBF1F002FBC1
:10204000030010BD5825002010E000E03C0A0020ED
:10205000034B4FF4805208B11A6170475A617047C0
:1020600000080140034B4FF4805208B15A61704799
:102070001A61704700080140014B33F810007047A7
:10208000C00D002038B5114C0546206008461049A7
:102090000EF062F90EF026FBA2680E49531C91F86F
:1020A000341004EB8202D5600B4A8B42A8BF002398
:1020B0006060116804EB8300C068A360074B29448B
:1020C000091ADB6B116001225A7038BD801900209B
:1020D0000000C842242B00203C200020300B0020B0
:1020E00007B50F4B02A941F8040D186843689847DB
:1020F00003680C4AB3F5967FC8BF4FF0FF330193D6
:10210000019B1360084B58680DF080FC0022074BC0
:102110000DF00CFE0DF0C2FF03B05DF804FB00BF34
:10212000201300207C00002080190020000059406E
:1021300008B5094BB0F5967FC8BF4FF0FF30186067
:10214000064B58680DF062FC0022054B0DF0EEFDC9
:102150000DF0A4FF08BD00BF7C0000208019002006
:1021600000005940044B184490F88221034B03EBC4
:102170004203B3F8CC0070479C2500208019002052
:10218000014B0D221A7070479400002003789B07C2
:102190000AD5826C831883F85811C36B0132B2FBE5
:1021A000F3F103FB112383647047037813F00103F9
:1021B0000BD0426C036C9A4205D09CBF806B121806
:1021C000D31AD8B27047002070471846704703787A
:1021D00010B513F0010304460FD0FFF7E6FF68B116
:1021E000236CE21892F85400A26BC0B2013A9342F9
:1021F00034BF01330023236410BD184610BD826C28
:10220000C06C121A50425041704701707047034B26
:1022100000290CBF02210121D9617047EC0F002079
:102220000A4B10B553F8200000244268138823F0AD
:1022300001031B041B0C138083681C800368198036
:1022400013889BB243F00103138010BD140D0020CE
:10225000024B53F820301B6819807047140D002082
:10226000074BA1F57A7153F820304FF47A701A6851
:102270009B894B4393FBF0F39BB21380704700BFE5
:10228000140D002030B580780023834206DA31F83F
:102290001350054C24F813500133F6E7D3790BB9EA
:1022A0000123537030BD00BF4C1A0020012070473D
:1022B00001207047054A064B128808B11A6100E0F8
:1022C0005A61044B00221A70704700BF602400203E
:1022D000000C0140FC22002008B502F10062084613
:1022E00002F5F8311A460DF0ABF8012008BDC28A9C
:1022F000838A934224BF01895218D31A9BB2581E75
:1023000080B27047426B08B512B15368984708BD58
:10231000C069FFF7ECFFC0B208BD828AC38A9A4247
:102320003CBF00891218D31A98B2704770B5037970
:102330000446C3F34103012B0D4606D0022B33D1D3
:10234000FFF7EBFF628B134618E0C38A808A0022F6
:10235000834229D02169CE5CA17E8E4201D1AA425E
:102360001FD8218901339BB28B4228BFC1EB0303E5
:1023700002F1010228BF9BB292B2E9E79D4202D965
:1023800013449BB2FAE7834208D2E28A13442289BB
:102390009BB29342E38205D39B1A02E0854203D8A5
:1023A000A38AE382012070BD002070BD70B5858ACC
:1023B00003890135ADB2AB4298BF0025C38A0446FC
:1023C000AB420E4607D10121FFF7B0FF18B9054B0C
:1023D00004221A7070BDA28A236901209E54A5822E
:1023E00070BD00BF602C00200346406910B588B165
:1023F00002685A611A69026002B150609A6800F17D
:102400000804013218619A60204600211A6814F00D
:102410005DFB204610BD10B511E90C00A1F10804C8
:102420000BB11A6000E0026151F8082C02B1536050
:10243000436941F8083C002341F8043C8368446147
:10244000013B836010BD09B11030E4E77047002301
:1024500030B5054618469AB28A4217D2EA5C80EA3D
:102460000220082210F4004F4FEA400418BF84F401
:10247000815002F1FF3218BF80F0010092B214BF08
:1024800080B2A0B2002AEDD10133E4E730BDF0B54F
:1024900085B001AF0D4606461446384600210B2292
:1024A00014F014FB65B30022531C092D99B209D90D
:1024B0000A20B5FBF0F100FB11503030B8540D4646
:1024C0001A46F1E704A80244303502F80C5C14B156
:1024D000A14203D3002426441A4609E0641AA4B298
:1024E000002291B28C42F6D03021B1540132F8E78B
:1024F000013AB95C06F8011B002AF9D118190AE063
:10250000284601303318302203F8012C1CB1013C5D
:10251000A4B2002CF5D105B0F0BD2DE9F74F074668
:102520000E469046002498F80030002B00F0F98009
:10253000252B40F0F18000231D4618F8012F642A56
:102540003AD017D8392A06D8302A25D2252A40F081
:10255000E5803A55E1E0622A25D000F2D980582A78
:1025600040F0DC8032683819131D33601168012394
:102570002A4650E06C2A01D10123DEE704D8662AFE
:102580004CD0692A18D0C9E0752A2DD0782A35D0C8
:10259000732A40F0C3809EE00A214D43303AADB229
:1025A0001544ADB2C9E732683819131D116833609C
:1025B0002A46FFF7D3FC1FE032681168131D00297B
:1025C000336008DA2D2304F101093B5549421DB15E
:1025D000013DADB200E0A14607EB09002A46FFF736
:1025E00056FF09EB000499E032683819131D116891
:1025F00033602A46FFF74BFF04448FE032683819F6
:102600002BB1131D3360116800232A4603E0111D0E
:10261000316011682A46FFF76DFCEDE7336807EB80
:102620000409073323F0070303F10802D3F804A0D9
:1026300032601A68514601921046002300220DF0C4
:10264000BDFC30B12D233B550AF1004A4FF0010B80
:1026500000E08346514601980DF000FD03461946FF
:1026600009EB0B0000220093FFF711FF584480B2E2
:102670002E2209F80020009B00F1010B18460DF0F6
:10268000B5F902460B46019851460DF071F81FFA54
:102690008BFB002D08BF062502460B464FF0000AB3
:1026A000104619460022214B0DF016FA0AF1010AD4
:1026B0001FFA8AFAAA4502460B46F1D10DF0CEFC6C
:1026C000D944014652464846FFF7E1FE58441FFAF6
:1026D00080FB5C4422E033681A1D3260D3F800901E
:1026E000B9F1000F1AD0484614F074FB03197E2B81
:1026F000054607EB040003D8494614F00DFB05E03E
:10270000C4F17F0549462A4614F0BEFB2C4405E07F
:1027100033681A1D1B6832603B55013408F101080B
:1027200001E73B5503B0BDE8F08F00BF0000244037
:102730000EB403B503AB53F8042B02A941F8043DD2
:10274000FFF7EBFE02B05DF804EB03B0704770B525
:10275000054C054623689847064623689847801B22
:1027600080B2A842F9D370BD74090020034B1968E8
:102770001A68521A92B28242FAD370475C2500203E
:10278000013A2DE9F8430C46072A30D8DFE802F079
:1027900004080C12191E222603880B8043880DE0C2
:1027A00043880B80038803E003885B420B804388E7
:1027B0005B4203E043885B420B800388638083882D
:1027C00014E003885B420B8043880CE043880B8055
:1027D000038808E003880B80438803E043885B425A
:1027E0000B8003885B42638083885B42A380304B0D
:1027F0001B78002B5AD1B4F900000DF059FD80462A
:10280000B4F902000DF054FD0746B4F904000DF0D0
:102810004FFD284D0646296840460DF09DFDE968AC
:10282000814638460DF098FD014648460DF08CFC77
:10283000A969814630460DF08FFD014648460DF0EE
:1028400083FC10F03DFB6968208040460DF084FD5C
:102850002969814638460DF07FFD014648460DF056
:1028600073FCE969814630460DF076FD0146484625
:102870000DF06AFC10F024FBA968608040460DF062
:102880006BFD6969804638460DF066FD014640469D
:102890000DF05AFC296A074630460DF05DFD0146F1
:1028A00038460DF051FC10F00BFBA080BDE8F8831A
:1028B00017000020940A002008B5436B0BB15B6938
:1028C000984708BD426B08B512B1D368984702E03B
:1028D000426804309047012008BD034BDA6882F05B
:1028E0001002DA60704700BF000C0140024BDA684A
:1028F00082F00802DA607047000C014008B5024B14
:102900001B68984708BD00BF642C002009B1012056
:1029100000E00846F2E72DE9F0410F88002347FA6E
:1029200003F2D2072BD58A7803F0070512F0100FB7
:1029300018BF91F803C002F00F0618BF46EA0C0654
:10294000AD004FF00F0C0CFA05FC06FA05F5DC089B
:1029500050F82480282A28EA0C0C45EA0C0540F897
:10296000245005D101229A40C46824EA020205E0FD
:10297000482A04D101229A40C4682243C26001332C
:10298000102BCCD1BDE8F08103680A0A19700368E6
:102990005A7003680A0C9A700368090ED9700368AC
:1029A0000433036070470368197003680912597093
:1029B00003680233036070470368197003680133CA
:1029C0000360704703681A785978043302EB0122D8
:1029D000036090B270470368597813F8022B02EB3A
:1029E0000122036090B2704738B500240E4D214695
:1029F0000E4870222C7014F069F821460C4B0B44E1
:102A000093F9D2207AB1094853F8D04F0A180C50E4
:102A100098889B79073193712B78702903F1010312
:102A200090802B70EAD138BD840C0020850C0020EA
:102A30009C25002010B50024094B1B78A3420DD91A
:102A4000084B33F81410084B1B78A34203D9074BEB
:102A500020461B6898470134E4B2EDE710BD00BF83
:102A6000082B00200A2B0020130D0020BC0D002095
:102A70002DE9F04F0C68836889B0D0F800A0D0F839
:102A800004800646204603938B4610F0E3F9074680
:102A9000204610F053FADBF804408146204610F03F
:102AA000D9F90546204610F049FADBF8082004461B
:102AB0001046019210F0CEF9019A8346104610F0AC
:102AC0003DFA3946029058460DF046FC39460490CE
:102AD00002980DF041FC5946059048460DF03CFC2B
:102AE0000299069048460DF037FC29460790584653
:102AF0000DF032FC014650460DF02EFC2146834677
:102B000006980DF029FC014605980DF01DFB0146C5
:102B100040460DF021FC014658460DF015FB2146BC
:102B2000834604980DF018FC014607980DF00AFB47
:102B3000014603980DF010FC014658460DF004FBC9
:102B40003060029905F100400DF006FC0146504648
:102B50000DF002FC2146834607980DF0FDFB01466F
:102B600004980DF0EFFA014640460DF0F5FB0146E2
:102B700058460DF0E9FA2146834605980DF0ECFB26
:102B8000014606980DF0E0FA014603980DF0E4FBCB
:102B9000014658460DF0D8FA2146706050460DF0B7
:102BA000DBFB2946044609F100400DF0D5FB014648
:102BB00040460DF0D1FB014620460DF0C5FA3946DE
:102BC000044628460DF0C8FB014603980DF0C4FBEF
:102BD000014620460DF0B8FAB06009B0BDE8F08FAC
:102BE0002DE9F84F384E04463768384610F032F970
:102BF0000546384610F0A2F976688046304610F057
:102C000029F98346304610F099F9D4F80490064625
:102C1000294648460DF0A0FBA76882464146384643
:102C20000DF09AFB014650460DF08CFA2168824661
:102C300058460DF091FB4146044648460DF08CFB8A
:102C400031460DF089FB014620460DF07DFA3146F4
:102C5000044638460DF080FB29460DF07DFB014609
:102C600020460DF071FA0146504610F0F7F9174969
:102C70000DF072FB0CF0DCFE11A3D3E900230DF084
:102C800055F8134B0446986D0D460CF0D1FE0246E4
:102C90000B46204629460CF06DFD00220D4B0DF031
:102CA00045F80DF0FBF910F00BF983B2190444BF9D
:102CB00000F5B4739BB218B2BDE8F88FAFF3008093
:102CC000182D4454FB210940B41800200000E144B1
:102CD000300B00200000244080EAE073A3EBE07397
:102CE0008B4206DB002801DD401A704702D0084401
:102CF00070470020704770B50546441E14F8011F48
:102D000061B1074E304613F08DFF0028F6D0861BC8
:102D10000448631B304480F88231EFE770BD00BF88
:102D2000FA9D01089C25002070B540F26C5528469C
:102D300013F00AFC044660B3174E4C213068C36997
:102D40009847024610B330682146066A2B46B047C2
:102D5000E0B123784C2B19D16388AB4216D123798B
:102D6000BE2B13D194F86A35EF2B0FD100231A46EE
:102D700040F26C518B4203D0E15C01334A40F7E7EB
:102D800022B9204613F0E8FB012070BD204613F065
:102D9000E3FB002070BD00BF380A0020024B1A6818
:102DA00010431860704700BF900B00202DE9F041E0
:102DB00002780346202A00F10100F9D0092AF7D051
:102DC0002D2A02D10346414D04E02B2A08BF0346B9
:102DD0004FF07E551E460024334616F8012BA2F113
:102DE0003007F9B209290DD8394920460DF0B4FA57
:102DF000044638460DF05CFA014620460DF0A4F971
:102E00000446E9E72E2A17D1314F334616F8010B55
:102E10003038C2B2092A0FD80DF04AFA39460DF0FF
:102E20004FFB014620460DF08FF9294904463846EC
:102E30000DF092FA0746E8E71A7802F0DF02452A19
:102E400038D15A782D2A02D10233012604E02B2AE8
:102E500014BF013302330026013B002713F8012F72
:102E6000303AD1B2092903D80A2101FB0727F5E737
:102E7000B7F59A7F28BF4FF49A77B8464FF07E5146
:102E8000B8F1070F07D9084612490DF065FAA8F105
:102E900008080146F4E707F0070737B108460C4970
:102EA0000DF05AFA013F0146F7E72EB120460DF02A
:102EB00007FB04E04FF07E5120460DF04DFA01462D
:102EC00028460DF049FABDE8F08100BF000080BF40
:102ED0000000204120BCBE4C70B50646B6FBF2F4A3
:102EE0000846154614B12046FFF7F6FF05FB1464AB
:102EF000024B1B5D00F8013B70BD00BFFA8F01085B
:102F000090F85B3210B57BB990F85A3290F859229C
:102F1000934209D201219940B0F860420133214324
:102F2000A0F86012DBB2F3E710BD90F862321BB17B
:102F3000D1F1010138BF0021D0F854315A689B68A3
:102F400009B11361704753617047F8B5101A0C4608
:102F50001F460DF0ADF90546381B0DF0A9F9184BC9
:102F6000079E19680DF0F8F92946044628460DF029
:102F7000F3F92146074620460DF0EEF901463846A2
:102F80000DF0E2F810F00AFA0E490DF0E5F90DF037
:102F9000A9FB069B2146186005F1004010F05EF881
:102FA00009490DF0D9F909490DF0CEF80DF09AFB59
:102FB0000028BCBF00F50C40A0303060F8BD00BF59
:102FC000A00000202C7D8E3FA00CB34500A00C4635
:102FD00010B50DF06DF9002104460DF079FB08B134
:102FE000204601E004F1004005490DF069FA054969
:102FF0000DF0B2F90FF02EFF034B186010BD00BFAB
:103000008096184B35FA8E3CA000002038B50C4D48
:10301000EB7AA3B10B4B1B78042B10D90A4B0B4C4A
:1030200018685B6820606360FFF7D2FF084B1A885E
:10303000084B1A80084B1B88A36001232B7338BDF3
:10304000F50C0020A1240020401C0020241C00209E
:10305000EE1B0020922200203C1C002044F2506312
:10306000984203DDA0F50C40A0387047034B98420E
:10307000BCBF00F50C40A030704700BFB0B9FFFFE7
:1030800070B52D4C2D4D60790DF00EF92C490DF0D9
:1030900017FA2860E07B0DF007F929490DF010FAC6
:1030A000284E6860EE60A0790DF0FEF826490DF01C
:1030B00007FA264D2860207C0DF0F6F820490DF027
:1030C000FFF96860A07E0DF0EFF821490DF0F8F9E6
:1030D000EE60A860E0790DF0E7F81B490DF0F0F91B
:1030E0001C4D2860607C0DF0DFF815490DF0E8F903
:1030F0006860E07E0DF0D8F815490DF0E1F9164B47
:10310000A8601B7CEE60ABB120790DF0CDF80E49C4
:103110000DF0D6F9114D2860A07B0DF0C5F80849D7
:103120000DF0CEF96860207E0DF0BEF808490DF074
:10313000C7F9A86070BD00BF242B002064220020C6
:103140000000C8420000FA44000020417422002020
:1031500000007A4448190020F50C002034190020A2
:103160002DE9F0472F4A002392F82050D47F03FB2B
:1031700003F01938684300F6C4105843604340F622
:10318000C41190FBF1F0284921F813000133072BFB
:10319000EDD192F82110254B0A274F43B3F8405147
:1031A000B3F8429192F82260C1F1640C48425FFA90
:1031B0008CFCC6F16408C5EB090980B2002384B217
:1031C00022B2002A04DC002C14BF0C46012400E0CB
:1031D000644602FB02FA64430AFB06FA9AFBF4F423
:1031E000444454434FF00A0A94FBFAF43C4424B29A
:1031F00004FB09F44FF47A7294FBF2F40C4A2C4469
:103200009C5202335044182B80B2D8D1054BBDE8F4
:10321000F0471B78012B18BF064A074B08BF074A27
:103220001A602DE7242B0020E41800209C250020A4
:10323000FC18002069C9000890000020D5CB0008C8
:103240000449054B0968002218701A615961DA6057
:103250001A7670475C250020EC0F00200A4B1B7883
:1032600083B10A4B9A8998811A89D007FCD5074BFC
:103270009889C0B2054B1A899107FBD51A891206A5
:10328000FCD47047184670474E0A002000380040B2
:10329000054B1B7833B1054B4FF4805208B15A618E
:1032A00070471A61704700BF4E0A0020000C0140B1
:1032B00038B5044601200D46FFF7EAFF2046FFF728
:1032C000CDFF2846FFF7CAFF0020FFF7E1FF0120EE
:1032D00038BD054B1B78834204D9044B53F820308A
:1032E0001B681980704700BF440D0020480D002066
:1032F0000328104B0BD8104A12888A4207D20122A9
:1033000002FA00F093F8EC20104383F8EC0093F8F5
:10331000EC300F2B0CD1074B002283F8EC20074B2D
:10332000198808B2142802DD1439198070471A80F0
:10333000704700BF801900207A000020E81B0020A1
:103340002DE9F14F0489C04BD822A4F5887402FB03
:1033500004344A6804F154072265C4F8D4700B7829
:103360000646772B0D4600F06E8200F285816A2BAF
:1033700000F01A8500F2AA80452B01F004811FD8C5
:10338000422B01F089800CD8402B01F0DB80412BCF
:1033900041F016810022134607F04AFD002301F098
:1033A000E6B8432B00F0FB87442B41F00981002253
:1033B000134607F03DFDA54B01221A7001F014B928
:1033C000662B00F0928378D8642B00F05C83652B29
:1033D00041F0F6809E4BD434B3F900102046FFF73D
:1033E000E2FA9C4B2046B3F90010FFF7DCFA9A4B47
:1033F00020461B68C3F3C001C3F38002890041EA81
:103400004201C3F340021143C3F3401241EAC20137
:1034100003F010031943FFF7C6FA904A92F804E04C
:10342000D3784FEA8E0E4EEA430E53784EEA030EDF
:1034300093794EEAC30E53794EEA431E537A4EEA0D
:10344000831E874BD9794EEAC11E197A4EEA012EA6
:10345000597A4EEA412ED1794EEA812E117A4EEAFE
:10346000C12E117D927A4EEA016E4EEA023E5A7BDF
:1034700000214EEA423E9A7B4EEA823E1A7C4EEA98
:10348000024E1A794EEA021E5A7C4EEA424E9A7C4D
:103490004EEA824EDA7C4EEAC24E1A7D4EEA025E57
:1034A0005A7D4EEA425E9A7DDB7D4EEA825E4EEAAE
:1034B000C35E6C4B18780B46F8E2682B01F08780EE
:1034C00040F2BC854FF0000800F061BC702B00F0AA
:1034D000FB8447D86D2B00F0AA8416D86B2B00F024
:1034E0008D846C2B41F06C80DFF88881D4342046C9
:1034F000B8F90010FFF757FA2046B8F90210FFF7A5
:1035000052FA2046584B00F09ABC6E2B00F0A08473
:103510006F2B41F0558004F1D408544C4046E17FB4
:10352000FFF74AFA404694F82010FFF745FA404664
:1035300094F82310FFF740FA404694F82510FFF75F
:103540003BFA404694F82610FFF736FA404694F8C6
:103550002110FFF731FA404694F82210FFF72CFAB9
:1035600000F0ADBC732B00F0798561D8712B00F0B1
:103570006F81722B41F02480DFF8F480D434204630
:10358000B8F99811FFF70FFA2046B8F94011FFF784
:103590000AFADFF8D8902046B8F94211FFF703FA8B
:1035A0002046B8F94411FFF7FEF92046B9F90A118F
:1035B000FFF7F9F9204698F8AB11FFF7FDF920461F
:1035C00098F8AC11FFF7F8F9204698F8AD11FFF71D
:1035D000F3F9204698F87C11FFF7EEF9204698F8A9
:1035E000A111FFF7E9F920460021FFF7E5F9B9F944
:1035F0002A100A2391FBF3F12046FFF7D4F9204665
:1036000098F87D11FFF7D8F9204698F87F11FFF759
:10361000D3F9204698F87E11FFF7CEF9204698F8A6
:103620008011FFF7C9F9304629463A4616233DE195
:10363000752B00F00B8100F223854FF0000A4FF04C
:10364000010800F092BC00BFC01D0020D41F002064
:103650006E2C0020500A0020900B0020F50C00205A
:10366000CC1B002055240020EE1B0020242B002022
:103670009C250020701A0020CF2B00F0858100F2DD
:103680009880C82B00F0E78061D8A02B00F0BB85A4
:1036900055D8782B00F067827B2B40F09187AB4B9D
:1036A000D434DFF8B08293F8A0112046FFF784F9F4
:1036B0002046B8F92011FFF776F92046B8F9221113
:1036C000FFF771F92046B8F92411FFF76CF920468D
:1036D000B8F92611FFF767F92046B8F92A11FFF764
:1036E00062F92046B8F92C11FFF75DF92046B8F9C8
:1036F0002E11FFF758F92046B8F93011FFF753F9AA
:10370000204698F83211FFF73FF9204698F8361115
:10371000FFF752F920460021FFF736F92046002135
:10372000FFF732F920460021FFF72EF9204600214D
:10373000FFF72AF9304629463A462623B6E0A42B5D
:1037400000F07685A62B00F0DD8500F039BFCB2B8D
:1037500077D009D8C92B00F0AE80CA2B40F0308753
:103760007B4B03F10A00CCE0CD2B00F00F8500F27B
:103770001885134613F8011B101D2365754BD97767
:10378000517883F82010D11C2165D178206583F809
:1037900025101179501D206583F826105179901D50
:1037A000206583F8211091790732226583F8221071
:1037B00078E0D82B00F09D8217D8D22B00F04A81F8
:1037C00007D8D02B00F0D884D12B00F08D8400F0E6
:1037D000F7BED42B00F0EF81C0F04E81D62B08BF8E
:1037E000002700F02D8100F0EBBEF12B00F00B82E2
:1037F00016D8EF2B4CD0F02B40F0E28604F1D40821
:10380000544C4046B4F92E10FFF7CDF84046B4F9B9
:103810002C10FFF7C8F8304629463A46042345E005
:10382000FA2B00F0C784FE2B00F0CF84F22B40F07F
:10383000C7860022134607F0FBFA444A02F17000E3
:103840002AE2002771E04FF00008C2E3424A59E340
:103850004FF0000865E3002704F15000FFF7BBF8C4
:103860003E4BD8530237102FF6D100221346304674
:10387000294607F0DDFA3A4B00221A80394B1B68C3
:10388000DA79002A40F0B08601225A7000F0ACBE0E
:1038900050342046FFF79FF82E4FF8852046FFF75B
:1038A0009AF8B885002230462946134601B0BDE893
:1038B000F04F07F0BDBA134613F8011B023223651F
:1038C000294B2A4FD97212F8011C294B44F8502F6A
:1038D00020461970FFF776F838602046FFF772F837
:1038E00078602046FFF777F8224B18802046FFF7D4
:1038F00072F8214B1880214B1A7942F002021A719A
:10390000D0E7226D0133114611F8017B8342216516
:103910005F70517802F102072765D972917802F140
:10392000030222655975ECD1BCE7154B1B789F4209
:10393000B8D2144B04F1500017F80380FFF74BF88E
:10394000044B013703EB8803D864EEE79C25002085
:10395000232B0020242B0020EF7E0108C00D002027
:10396000E81B00200C0D0020F50C0020401C00205E
:10397000A12400203C1C00208C1D0020701A002077
:10398000552400203C24002004F150084046FFF755
:1039900022F86FF4AF63B54FC318C62B98BFA7F8D2
:1039A00098014046FFF717F8A7F840014046FFF797
:1039B00012F8A7F842014046FFF70DF8A7F84401B6
:1039C0004046FFF708F8DFF8C892236DA9F80A010E
:1039D0001A4612F8011B4046226587F8AB115A7847
:1039E000991C216587F8AC219A78D91C216587F844
:1039F000AD21DA78191D216587F87C211A79063303
:103A0000236587F8A121FEF7E6FF0A235843236DBB
:103A1000A9F82A001A4612F8011B226587F87D11C1
:103A20005A78991C216587F87F219A78D91C2165DD
:103A300087F87E21DA780433236587F8802131E71F
:103A400004F15000FEF7C7FF894BD8530237102FFF
:103A5000F6D127E7874B5B78002B7FF423AF12F872
:103A6000011B00202265814A022994BF82F8681553
:103A700082F868350146A4E304F15000FEF7ABFF7D
:103A80007D4B18800EE7D4342046E721FEF794FFE3
:103A9000764B20465979FEF78FFF20460421FEF72A
:103AA0008BFF20467549FEF76FFF08E283420ED276
:103AB000734A13F802C0012202FA0CFC1CEA0E0F32
:103AC00018BF9A4003F1010318BF1143EEE72046E7
:103AD000FEF75AFF654B204693F86815FEF76CFF1A
:103AE000304629463A460B23E0E6664B4FF0000885
:103AF0001B88D434B3F5806FDFF898910FD939F96A
:103B000008100823204691FBF3F108F10208FEF7A4
:103B10004AFFB8F1060FF2D14FF000080AE039F978
:103B20000810204608F10208FEF73DFFB8F1060F25
:103B3000F5D1F1E7544B204633F9081008F102089B
:103B4000FEF731FFB8F1060FF4D14FF000084F4BEC
:103B5000204633F9081008F10208FEF724FFB8F1F7
:103B6000060FF4D1BAE2DFF8288108F1500A04F117
:103B7000D409B8F9B8104846FEF715FFB8F9BA10DD
:103B80004846FEF710FFB8F9BC104846FEF70BFF99
:103B900098F8BE104846FEF70FFF08F10A08B8F97A
:103BA000B6104846FEF7FFFED045E0D13046294624
:103BB0003A4648237AE60022134607F039F9344D95
:103BC00005F1500704F150063046FEF704FFA5F852
:103BD000B8003046FEF7FFFEA5F8BA003046FEF703
:103BE000FAFE236DA5F8BC0013F8012B304685F8CA
:103BF000BE202365FEF7EFFE0A35A5F8B600BD42EC
:103C0000E0D100F0F1BCDFF8648008F1700A04F143
:103C1000D40998F8D0104846FEF7CEFE98F8D11097
:103C20004846FEF7C9FE98F8D2104846FEF7C4FE93
:103C300098F8D3104846FEF7BFFE98F8D4104846CF
:103C4000FEF7BAFE98F8D5104846FEF7B5FE08F123
:103C5000070898F8CF104846FEF7AEFED045D6D1FB
:103C6000304629463A46702320E600BF9C250020B6
:103C7000761A0020F50C00201C1C00200C0000C04F
:103C80003C240020780000208E1A0020941A002086
:103C9000242B00204E1D0020236D0732194611F8F9
:103CA000015B216582F8C95059789D1C256582F811
:103CB000CA109978DD1C256582F8CB10D9781D1DB6
:103CC000256582F8CC1019795D1D256582F8CD1027
:103CD00059799D1D82F8CE1025659979073382F8B0
:103CE000CF1082422365D7D101B0BDE8F04FFEF777
:103CF0007BBE0022134607F09BF8236D254613F880
:103D0000012BB84E45F8503FB74B284683F8A02109
:103D1000FEF761FEA6F820012846FEF75CFEA6F835
:103D200022012846FEF757FEA6F824012846FEF792
:103D300052FEA6F826012846FEF74DFEA6F82A01F7
:103D40002846FEF748FEA6F82C012846FEF743FE5B
:103D5000A6F82E012846FEF73EFEA6F830012846BA
:103D6000FEF730FE236D284613F8012B236586F8F5
:103D70003621FEF727FE2846FEF724FE2846FEF7EA
:103D800021FE284601B0BDE8F04FFEF71BBE974B61
:103D900004F1D40033F9081008F10208FEF703FE1D
:103DA000B8F1100FF3D1DCE3914BD4342046D97A2B
:103DB000FEF702FE8F4BDFF87C8219782046FEF773
:103DC000FBFD2046D8F80010FEF7DEFD2046D8F8AF
:103DD0000410FEF7D9FD884B2046B3F90010FEF71A
:103DE000E2FD864B2046B3F90010FEF7DCFD844B64
:103DF0002046B3F92A10FEF7D6FDCAE2814BD4342F
:103E0000B3F900102046FEF7CEFD7F4B2046B3F9F4
:103E10000010FEF7C8FD7A4B2046197901F0010128
:103E2000FEF7CAFD304629463A4605233EE5774B64
:103E3000D43420461968FEF7A7FD754B2046B3F928
:103E40000010FEF7B0FD304629463A4606232DE520
:103E5000704BD434B3F90010204681F30801C9B285
:103E6000FEF7AAFD6C4B4FF6FF78196820464145D6
:103E7000A8BF414621EAE17109B2FEF794FD674B04
:103E80004FF00A091979204609FB01F1FEF78BFD75
:103E9000554B93F87C21624B32B11B68002BB8BFA5
:103EA0005B4209FB03F103E019680029B8BF4942EE
:103EB0004145A8BF4146204609B2FEF774FD304691
:103EC00029463A460723F1E4DFF86C8108F10A0A33
:103ED00008F1010804F1D409484698F80110FEF7EA
:103EE0006BFD484698F80B10FEF766FD484698F8BB
:103EF0001510FEF761FDD045EAD1304629463A4615
:103F00001E23D3E412F8013F33B1D4F8D410481C77
:103F1000C4F8D4000B70F5E7304629463A462F2303
:103F2000C4E4404B1B7898450ED23F4B04F1D400BB
:103F300018F803202B4B08F1010803EB8203B3F9B7
:103F40004C10FEF730FDECE7304629463A465B0060
:103F5000ACE4824409F10109324B1B78994507DB37
:103F6000B8F1000F20D04FF000084FF00009F3E740
:103F70002D4B2E4A19F803300C2101FB0323D3F8F3
:103F800034B0584612F026FFB8F1000FE1D1424696
:103F90008242DFDAD4F8D430591CC4F8D4101BF8AC
:103FA000021001321970F3E7304629463A461FFAEB
:103FB0008AF37BE40C33B3F5967F08D01C4A1A448D
:103FC000127A8A42F6D104F1D400FEF7F5FC08F12A
:103FD0000108144B1B7898453CD2134B18F803107A
:103FE0000023EBE7242B00209C250020C00D00209F
:103FF000F50C0020A12400203C1C00208C1D00207A
:10400000701A00208E1D0020901D0020041C00202E
:10401000541D00202C1D0020401D00207025002074
:10402000341D0020552400203C240020F07E01088F
:10403000207F0108401C0020232B00200023D4F8FF
:10404000D420511CC4F8D410B849595C0133102B4A
:104050001170F4D1304629463A4627E44FF0010862
:104060005FFA88F104F1D40008F10108FEF7A4FC1E
:10407000B8F1090FF4D1304629463A46082315E431
:1040800012F8011B226509B9A94B02E0102905D1DC
:10409000A84BD3F80090D3F8048002E04FF000085A
:1040A000C146D4342046FEF787FC20464946FEF739
:1040B0006BFC20464146FEF767FC9F4B2046196883
:1040C000FEF762FC20460021FEF76DFC2046002131
:1040D000FEF769FC20460021FEF76EFC30462946BB
:1040E0003A461223FFF7E2BB12F8019B274647F836
:1040F000502F3846FEF766FC83463846FEF762FCD2
:1041000082463846FEF75EFC80463846FEF763FC82
:104110003846FEF760FC236D01332365B9F1000FCB
:1041200012D1834B0122C3F804A0C3F800B0834B23
:1041300083F807901A73B8F1000F3FF4B3AB7E4BCE
:10414000C3F80080FFF7AEBBB9F1100F7FF4AAAB44
:10415000784BC3F800B0C3F804A0B8F1000F02D048
:10416000754BC3F800807348754B0222011D1A700D
:1041700005F0D6FFFFF796BB704B5B78002B7FF402
:1041800091AB012008F030FFFFF78CBB6B4B5B78E5
:10419000002B7FF487AB6B4B4FF4C8721A80FFF78C
:1041A00081BB664B5A78002A7FF47CAB01229A735C
:1041B000FFF778BB614B5B78002B40F00182002059
:1041C000012108F0C1FEFFF76DBB5F4B5F491A6824
:1041D00009685F4B4FF00008B2FBF3F2B1FBF3F359
:1041E0004FF47A7101FB02335A4A53865A4B04F159
:1041F000D40033F9081008F10208FEF7D4FBB8F137
:10420000080FF3D1ADE104F1D408544C40462168C5
:10421000FEF7BAFB40466168FEF7B6FB4046A16870
:10422000FEF7B2FB304629463A460C23FFF73EBB69
:10423000DFF82091D43499F834B020465946FEF77F
:10424000BBFB4FF00008D8451ED2DFF81CA120466A
:104250001AF80810FEF7B0FB0AF1200313F8081053
:104260002046FEF7A9FB0AF1400313F80810204688
:104270000AF1600AFEF7A0FB1AF808102046FEF7C4
:104280009BFB08F10108DEE74FEA8B030133304660
:1042900029463A4606F0CCFD314B93F8AB31012B61
:1042A00040F0A2812F4A002392F87840104689F806
:1042B0003440A34202F1010213DA2B4992F87850FC
:1042C00092F888605D5401F120055E5592F898607F
:1042D00001F140055E5592F8A85060315D540133FC
:1042E000E7E7D0F8BC300022C9F8B830D0F8C030C9
:1042F0003021C9F8BC300120134601B0BDE8F04FB1
:1043000004F090BD194BD4341B68DFF8488013F0DB
:10431000200920462CD00021FEF736FBD8F8BC102F
:10432000D8F8B8302046C91A27E000BFC0000020E6
:10433000241C0020301C0020001C0020F50C002054
:10434000201C0020622C00206C0900207009002035
:1043500040420F00701A00209C1A002060090020C3
:104360009C25002080100020A51A0020900B002022
:104370004946FEF709FB20464946FEF705FB204665
:10438000D8F8C010FEF700FB2046D8F8C410FEF79E
:10439000FBFA304629463A461023FFF787BA002237
:1043A000134606F045FD236D264613F8012B904D6C
:1043B00046F8503F304600236A71AB60FEF702FBBF
:1043C000AB688C4F1843236DA86013F8012B30465F
:1043D000236585F89421FEF7FEFAA5F856013046CC
:1043E000FEF7F9FAA5F858013046FEF7F4FAA5F8F9
:1043F0005A013046FEF7EFFAA5F878013046FEF78D
:10440000EAFAA5F87A013046FEF7E5FA236DA5F839
:104410004E011A4612F8011B3046226587F8231018
:104420005A78991C216587F824209A78D91C21652F
:1044300085F88121DA780433236587F84920FEF76F
:10444000CAFAAA89064690421FD06B4B92B1B0B10E
:104450001B689A79023AD2B2062A07D8012101FADA
:1044600002F212F0430F01D018810DE0634B0922D4
:104470001A7009E018B118680321324602E0186882
:104480000121642207F064F8AE81236D13F8012B3B
:10449000236587F83020A7E0DFF85481D434204624
:1044A00098F80510FEF788FA2046D8F80810FEF7AD
:1044B0006BFA204698F89411FEF77EFA2046B8F978
:1044C0005611FEF770FA2046B8F95811FEF76BFA4C
:1044D0002046B8F95A11FEF766FA2046B8F9781165
:1044E000FEF761FADFF80C912046B8F97A11FEF771
:1044F0005AFA2046B8F94E11FEF755FA204699F8B7
:104500002310FEF759FA204699F82410FEF754FAC2
:10451000204698F88111FEF74FFA204699F8491085
:10452000FEF74AFA2046B8F90C10FEF73CFA20468E
:1045300099F83010FEF740FA304629463A461923DA
:10454000FFF7B4B94FF00008294B04F1D4004344FD
:1045500093F8821108F10108FEF72EFAB8F1080F5E
:10456000F2D1304629463A464346FFF79FB9226DBD
:1045700012F8011B22651E4A1A440133082B82F8E7
:104580008211F4D130E04FF000081D4B04F1D40942
:1045900013F80810484608F10108FEF70DFAB8F1C3
:1045A0000B0FF2D148460021FEF7EEF948460021F4
:1045B000FEF7EAF9304629463A461323FFF776B963
:1045C0003046294601B0BDE8F04F08F00FBC00238B
:1045D000D4F8D420511CC4F8D4100A49595C0133D2
:1045E000102B1170F4D135E501B0BDE8F08F00BF9C
:1045F0009C250020242B002004180020602C002083
:104600001F9001080A2B00202DE9F04FAE4E85B017
:10461000B368AE4F13F0080803D1AD4C4546A14630
:1046200031E0002439E0AB4BE8B21B689847A0F2B8
:10463000EE2240F2DC5392B29A4288BFA24BD9F8E4
:10464000902088BFB3F89801A34B1340002B03DAE6
:10465000013B63F0030301339D4A03EB850322F81A
:1046600013002288638801351344A2880834134458
:1046700034F8022C13441BB2042293FBF2F327F804
:10468000083008F1020896F8AA319D42CBDBD9F830
:1046900090300133C9F890300BE096F8AA319C4273
:1046A00007DA8C4BE0B21B68984727F814000134F6
:1046B000F3E7B368864C13F4804F04D094F8943039
:1046C0000BB906F097FB96F8A1217F4BE2B10332BC
:1046D00037F91200B3F8A251B0F57A7003D4A842AA
:1046E000A8BF284600E000200BF0E2FD80462846E7
:1046F0000BF0DAFD014640460BF0E2FE77490BF085
:104700002BFE0CF015F814E093F8A40190B1744A54
:10471000D179744A32F81120B3F8A81192B2521A22
:104720009002B3F8A631801A90FBF3F000B280F348
:104730000A0080B2B368A4F8AE0013F4024F63D04D
:10474000634B694DB3F8B09095F808310522534397
:104750000FFA89F898453ADD644B5A789B46002A4F
:1047600035D0594BB3F898313B807B80BB80B5F88E
:104770000A31FB805E4B1A789A46032A05D95D48B8
:1047800004F06EFC03238AF8003095F8082195F8B0
:104790000931134405225343984513DD9BF812B0A9
:1047A000BBF1000F0ED106F025FB504B83F800B093
:1047B0009AF80030042B05D94F4804F051FC4C4BBB
:1047C00004221A70B4F8B2300133A4F8B23095F86C
:1047D000083105225343984512DD444D95F8018078
:1047E000B8F1000F0CD106F005FB85F80080404DB4
:1047F0002B78042B04D9404804F032FC04232B709E
:1048000009F10109A4F8B0900022B6F89A11B6F89F
:104810009C511346B85E9B088842C4BF63F07F0377
:10482000DBB20232A842B8BF43F04003082AF1D1FC
:1048300094F8B400264A984205D192F8B500F928B8
:1048400004D8013000E0002082F8B50084F8B430CC
:10485000B3681D4A13F48048234DB7F906300AD0D7
:10486000B2F89811B2F84C21881A834206DD0A4446
:10487000934206DB02E08B4203DB17E04FF00008B7
:1048800014E00023C4F8C431C4F8C831C4F8CC31F2
:10489000C4F8C030C4F8C430EB6C2BB10C4B93F8A7
:1048A0009430002B40F07C834FF00108EB6C43B355
:1048B00094F894302BBB0D4B5B7813B396F89F3173
:1048C000E3B106F097FA1CE09C250020C00D002003
:1048D000381B0020E40D00200300008000C07F444E
:1048E000800A0020880A0020242B0020F50C0020DC
:1048F00094000020588001086B800108B8F1000F77
:10490000DFD194F8B5208C4B142A40F0A6808B4A56
:1049100050789146C0B1EA6C2AB993F8B4305F2B55
:1049200001D106F067FA96F89E31002B00F09580D1
:10493000EB6C002B40F0918094F8B4307D2B40F06C
:104940008C8006F057FA88E093F8B420572A15D1E6
:104950007B4B4FF47A721A80B368DB0501D5FEF702
:1049600055FB784B1B68580702D5774A0A211180FE
:1049700013F0080334D1A4F8B63031E0B168490728
:1049800025D55A2A23D193F8B8202AB1012283F8D9
:10499000B80083F8B92023E093F8BA20DFF8C0A16B
:1049A00082F0010283F8BA209AF8003032B10A2B63
:1049B00016D9664804F054FB0A2305E00B2B0FD9E7
:1049C000634804F04DFB0B238AF8003008E05D2AB1
:1049D00000F0EE825B2A00F0ED825E2A00F0EC82AD
:1049E000EB6C33B994F8B4206F2A02D10AF0C6FCFC
:1049F00015E096F89E2122B11BB994F8B4307E2BB5
:104A0000F4D094F8B430972B04D1524B4FF4C872C1
:104A10001A8004E0A72B04BF012389F80E3094F814
:104A2000B430BB2B02D1EB8D023303E0B72B03D1A3
:104A3000EB8D023BEB8509E0BE2B02D1AB8D02333F
:104A400003E0BD2B09D1AB8D023BAB8501200146B4
:104A500008F07AFA002384F8B530B068420731D5FF
:104A600094F8BA20344B8AB1344A527872B13A4A37
:104A7000B7F90610B2F89A21914207DD93F8942015
:104A800022B93221A3F8BC1083F8BA2094F8A520EB
:104A9000294B62B193F8BE202AB993F8B82012B915
:104AA0003222A3F8BC20012384F8BE300AE093F838
:104AB000B8203AB1214A527822B983F8B8200122AD
:104AC00083F8B920254B002193F8149001220B465E
:104AD0004B4547DA07EB43052D8940F2A46A0FFAEC
:104AE00085FCD44502F1010BD4BF4FF0000A4FF012
:104AF000010A0AFA0BFA40F2135BDC454FF0030B94
:104B00000BFB03FBA5F21555ADB2CCBF4FF0000C6B
:104B10004FF0010CB5F5C77F0CFA0BFC8CBF0025DC
:104B2000012595404AEA0C0C4CEA050C41EA0C01BF
:104B300001330332CCE700BF381B0020F50C002006
:104B4000FE170020900B0020001800206E80010846
:104B500073800108622C00209C250020AC0B0020F3
:104B60009400002000239D4D9D4A05EB8309D9F850
:104B70004C9002F1940C11EA090F0CBF4FF00009A0
:104B80004FF0010903F80C900133192BA946EAD123
:104B900092F8AC30934D2B7523B1012382F89F30EE
:104BA00082F8963094F895308F4A53B98C4B4FF079
:104BB000050CB3F9B01099F808310CFB03F39942D6
:104BC0001DDD11688B071AD5EB7843B9C4F8C030E6
:104BD000C4F8C430834B4FF0010C83F803C00004C9
:104BE00010D599F808314FF0050C0CFB03F3B4F91C
:104BF000B000984206DD890604D5012301E00023B8
:104C0000EB70AB7494F8963075495BB10023EB7090
:104C10002B7943B9C1F8C030C1F8C430714B0121C0
:104C2000197100E02B7194F894300BB901232B70AB
:104C300095F803C06D4BBCF1000F02D169490979A9
:104C400011B11021596101E01021196111684B0760
:104C500025D594F89720624B9AB1A87990B9614A0A
:104C60004FF0010A82F806A0D3F8CC20C3F8DC008C
:104C7000C3F8C820B3F8D820C3F8E000A3F8D020C8
:104C800000E0AA71B368980409D594F898302BB164
:104C9000EB7B23B9534B0122DA7300E0EB7311F085
:104CA0000A0F20D094F899304D4A4BB16B7943B933
:104CB0004C4B01205871B2F8B630A2F8E43000E055
:104CC0006B7194F89A302BB16B7A23B9454B012262
:104CD0005A7200E06B7294F89B20414B1AB1B3F802
:104CE000B620A3F8E620890640F1F280EA7A3D4B2F
:104CF000002A00F0E8803E4A1278042A40F2E3805D
:104D000094F9E82032B11A7922B9BCF1000F01D12F
:104D10000122DA7094F89E20314BDFF8DCA01AB93A
:104D2000AA7CDFF8C0B0CAB1EB79DFF8B8B0002BCD
:104D300040F0B7802F480122011D8BF808308AF817
:104D400001308BF80720019205F0EAF9022384F87C
:104D5000E830B4F80431C4F800313BE08BF80720A8
:104D600093F89F20002A49D0B3F9D210B9F81C213A
:104D70000029B8BF4942914240DAB3F9D410002962
:104D8000B8BF4942914239DA9BF80820002A40F026
:104D90008880D3F808114FF0010CC3F8F810D3F84D
:104DA0000C1103F1F800C3F8FC1003F1FC018BF8BF
:104DB00008C08AF801200393CDF808C0019205F0DD
:104DC000AFF9039BDDF808C0B3F8041183F8E8C01D
:104DD000C3F80011019A8BF8132062E0242B002005
:104DE000381B0020F50C0020900B0020000C014027
:104DF000A1240020241C0020940000209AF8011017
:104E000000232B7200294CD1764B01225A708C461C
:104E1000754B002203F588702CF8002003F58B7089
:104E20002CF8002003F58D702CF8002003F5907B02
:104E3000002041F80B008B44CBF80420CBF808008D
:104E400003F5A47B41F80B008B44CBF80420CBF88E
:104E500008000CF1020C03F5B87B41F80B00BCF123
:104E6000040F8B44CBF80420CBF8080001F11401A7
:104E7000CED1297C11B90023EB7412E0C3F898015C
:104E8000C3F89C01A3F8A021A3F8A221A3F8A421B0
:104E90005649002353520C31535202320A2AF7D199
:104EA000E9E79AF800300C2B12D994F8BE317BB99F
:104EB0004F4804F0D5F84B4B0C221A704A4B012294
:104EC00083F8BE2104E00023EB712B7284F8E830F4
:104ED00094F8A0302BB1AB7C1BB9464B01229A72DF
:104EE00001E00023AB72297C424B31B3B268002051
:104EF0009205587221D599F808214FF0060909FB4F
:104F000002F2B4F9B0C0944517DD0122DA703A4AD2
:104F10009872B2F8980182B23A807A80BA80374AA1
:104F2000B2F80A21FA80DA7A3AB9354F3F78052F7C
:104F300003D89A74334B32381880B2682E4BD2069D
:104F40004BD56A78002A48D0002946D1B8F1000F25
:104F50001FD02D49D4F8C02109684AB993F8763199
:104F60004FF47A7202FB03121F4BC3F8C02106E014
:104F70008A4204D293F876310BB105F03BFF194C0D
:104F80002378092B29D9214804F06AF809232370D2
:104F900023E0D4F8C03103B3134BC3F8C0811CE045
:104FA000144B1B78002B3FF47FAC0AF0E7F97BE44D
:104FB000012202E0022200E003225FFA82FA0020CE
:104FC0000AF1FF33014686F8683507F0BDFF02207D
:104FD0002821524607F0E9FE02E5002005B0BDE8B1
:104FE000F08F00BF94000020381B0020DE1C002042
:104FF0007A800108F50C00209C250020242B00203D
:10500000A1240020C00D00205C2500206B80010839
:105010002DE9F04F7A4C87B0A3689B0740F195804B
:10502000784D794B06221F882B681F442B792F60FF
:105030000133DBB2B3FBF2F62B7102FB163313F034
:10504000FF0667D1DFF80C92D5F808A099F8013077
:10505000DFF8048250464FF0785138F813B00BF067
:105060007BF9014650460BF06DF81FFA8BFB824628
:1050700058460BF01DF965490BF06EF964490BF0C9
:105080001FFA834694F87D010BF012F90146584649
:105090000BF062F9014650460BF056F84FF078518C
:1050A000A8600BF059F90BF043FB94F88131A8810B
:1050B00083B399F80530B4F8781138F8132040F626
:1050C000E44392B25A4340F6FF73B2FBF3F2B4F8F2
:1050D0007A312869D21A4FF47A735A43B2FBF1F24B
:1050E000082190FBF1FECEEB000002442A6192FB06
:1050F000F1F25743D5E9060197FBF3F3C01841EBF2
:10510000E3716A61C5E90601424A00230BF030FBF6
:105110002E602862404AAB8912889A4208D33F4DDC
:105120002B78012B11D93E4803F09AFF01230BE0A5
:105130003C4A12889A4208D3384D2B78022B04D966
:10514000394803F08DFF02232B70384E737B5BB31D
:10515000324D2B78082B27D9A368DF051FD5344B98
:10516000DB7AE3B1334B1878042818D9002332498D
:1051700005275A185F540F275770122B03F10207A7
:10518000FAB204D0B0EB520F3B46F0D800E0142244
:105190000A4464235370F0239370274800E02748A3
:1051A00003F05EFF08232B70254B1A881AB1254B9C
:1051B0001B68980707D4244B1B8823B9234B1B7803
:1051C0000BB109F06BF8224B1A7832B10D4C94F800
:1051D0002430002B00F01183C1E2A268084B1105B6
:1051E000F4D51A4A1278002AF0D093F8BB21002A8D
:1051F0003AD193F8BC318BBB0D4B5B782FE000BFED
:105200009C250020201D00206E2C002033335340AD
:1052100000F07F45407E0500920A002094000020A7
:1052200095800108900A002098800108CC1B00207E
:10523000F50C0020A1240020081D00208980010811
:10524000622C0020900B0020FE170020FC1700208D
:105250006C2C0020800A0020880A0020337D003357
:1052600018BF0123002BB1D094F8BA31002B40F0C5
:105270006981C34BD868FDF745F8002840F062818A
:10528000C04AC14D1368A96A591A7C2940F25A8153
:10529000AB6295F82C300746013385F82C3007F1C6
:1052A0002400B94EC0B203F087FE06F12E0333F995
:1052B00017000AF0FDFFB54B804618880AF0F8FF8A
:1052C000014640460BF0FCF8B1490BF045F80BF0F5
:1052D00009FA013700B203F09BFE032FDFD1302023
:1052E00003F06AFEB6F9340003F092FE03F072FE9A
:1052F00096F82C0010F0030828D1102003F05CFE73
:10530000B36B642793FBF7F000B203F081FE21201A
:1053100003F052FEB36B93FBF7F007FB103787EAFD
:10532000E770A0EBE77000B203F072FE142003F008
:1053300043FE984BB3F9000003F06AFE1C2003F013
:105340003BFE404603F064FE03F044FE95F82C302B
:105350008D4E5A0740F0D080022003F02DFEB6F9A2
:105360003C000A2790FBF7F003F052FEA3689B076E
:105370005FD5B3894FF06E0808FB03F8152398FB3F
:10538000F3F81FFA88F83A204FF0640903F014FE8E
:10539000B8FBF9FB0FFA8BF003F03AFE3B2003F069
:1053A0000BFE09FB1B8080B20530DFF8F88190FB13
:1053B000F7F000B203F02CFE98F80030B28940F606
:1053C000340192FBF3F24A432A21B2FBF1F2F18F4E
:1053D000062091FBF3FB03FB1B1B4FEA0B1B1FFA81
:1053E0008BFB4BEA022B1FFA8BFBC2F303224BEA27
:1053F000020B03F0E1FD0FFA8BF003F009FEF28FD0
:1054000098F80030013292B292FBF3F103FB1123C2
:105410002820F38703F0D0FD706990FBF7F000B20D
:1054200003F0F6FD042003F0C7FDB6F9200003F0F9
:10543000EFFD594B1B6898065CD5584FDFF8688123
:105440003B68574E002BB8BF5B4293FBF8F106FB5D
:1054500001334FF03C0909FB03FA1320039103F0D9
:10546000ABFD039964229AFBF8FB02FB01B000B28A
:10547000039203F0CDFD1B2003F09EFD06FB0BA362
:105480004FF47A7B93FBFBF000B203F0C1FD2320C5
:1054900003F092FD38680028ACBF4E20532003F083
:1054A000B7FD7B681220002BB8BF5B4293FBF8FA74
:1054B00006FB0A3309FB03F903F07EFD039A99FB0F
:1054C000F8F802FB0A8006FB089800B203F0A0FD82
:1054D0001A2003F071FD98FBFBF000B203F098FD79
:1054E000222003F069FD78680028ACBF45205720D2
:1054F00003F08EFD03F06EFD95F82C30282B21D1A2
:10550000214B002283F82C201E4A4FF47A7317682F
:105510003C25B7FBF3F7172003F04EFDB7FBF5F67C
:10552000B6FBF5F005FB1060000200B203F070FD61
:10553000182003F041FD05FB167000B203F068FD72
:1055400003F048FD94F8BA31012B7FF43FAE0C4CC8
:10555000E068FCF7D7FE00283FF438AEE468636BE0
:1055600023B19B6820469847054635E0A368201D77
:10557000E3B10DF117019847003018BF01202AE070
:10558000AC0B00205C250020201D002078000020AE
:1055900000007A44EE1B0020900B0020401C0020ED
:1055A000806967FF1600002080969800E2697AB152
:1055B00001210DF1170003F035FD0546E069FCF708
:1055C000ACFE638D834205D8236A01225A7001E044
:1055D000104600E02846C5B20520FDF7C7F88A2D21
:1055E00031D08E2DB3D1AD4C00212E2204F17200AA
:1055F00011F06CFA7C2384F87230E02384F8753063
:105600007D2384F89E30A38984F87350DAB21B0A94
:1056100084F8913084F88730142384F88A3084F831
:105620008B304FF4FA73A4F88C304823A4F89430EC
:10563000782384F8902084F8862084F8963004F14A
:1056400072002E2188E0964B1B6899067FF57FAF8C
:10565000924C002104F140002C2211F037FA7C23F7
:1056600084F84030A02384F843307D2384F86B30E5
:105670008C4B84F841501B7884F85A308A4BDB7A83
:10568000002B64D089498A480A688A4E92FBF0FC54
:105690005FFA8CFC06FB0C2706256F43662384F813
:1056A0006930D30F84F8493042F21073B7FBF3FE30
:1056B00003FB1E77496884F84C7091FBF0F03F0AB9
:1056C000C0B284F84D70CF0F06FB00116943B1FBE7
:1056D000F3F503FB151384F851301B0A84F852309C
:1056E000B4F86C3064225FFA8EFEE9B202FB0CEE75
:1056F00002FB0011B3FBF2F224235A43B4F86E30DC
:105700001FFA8EFE84F853301B0A84F854306A4B1B
:1057100089B21B8892B284F855301B0A84F856303F
:10572000B4F8703084F84AE084F84F104FEA1E2E27
:10573000090A84F84720120A84F84BE084F84E7076
:1057400084F8501084F8482084F85C3002E020236C
:1057500084F8693059482C2104F0ECFEF7E6D4F8BF
:10576000B020002384F8243013629362D362C4F81B
:10577000B030534B1F68534B1D78002D3DD104F5BD
:10578000147801262946642240461E7011F09EF9C5
:1057900084F8506231464C4A43460095022005F099
:1057A00089FEC4F87802802003F0CAFBC4F87402B2
:1057B00018B33B1DC4F87032444BC7F82480FB6219
:1057C000434B30463B63202110F07EFEC4F880023C
:1057D00018B9404B03221A700FE0202384F87F325F
:1057E0003D4B3E48C4F8A8323033C4F8AC323C4B91
:1057F0002946C4F8B03207F077FF94F8B43223B1E9
:1058000009F006FE374A384BDA60384BDB680BB1DB
:1058100037489847374A224D138813B12B689A07A7
:1058200002D4354B1B8813B1FDF760F80AE01E4B1C
:105830009A7812B1314A082111615B7813B12F4B6C
:1058400008225A6194F8B53223B1144A013B82F818
:10585000B5320BE0144B5A7B1AB99A70FDF746F833
:1058600001E001229A70092384F8B5322B689B0667
:1058700010D594F8B63223B1084A013B82F8B6320B
:1058800008E0084B1B78042B01D9FDF726F802230A
:1058900084F8B632002007B0BDE8F08F201D00204C
:1058A000900B0020A1240020F50C0020401C0020BB
:1058B000A08601006079FEFF3C1C0020601D0020D6
:1058C000AC0B00206C2C0020A1D50008F5B7000817
:1058D00069CD0008602C0020A0800108FF9001081D
:1058E000FA9001080400FA0500ED00E0300B0020FA
:1058F0005C1D0020622C0020FE170020000C0140DF
:10590000038A064A3C21A3F5807301FB03239B6BAA
:105910000120DA6842F08002DA607047A424002097
:10592000024B9A6842F002029A6070479C25002060
:1059300037B5062305460C46806843216A4608F0C1
:105940004DFE40B39DF801309DF800009DF8022007
:1059500003EB00209DF803309DF8041003EB0222B6
:105960009DF8053080B203EB012392B29BB22080F8
:105970006280A380297869B100B290FBF1F12180A7
:10598000297812B292FBF1F262802A781BB293FB63
:10599000F2F3A380012003B030BD37B506230546DE
:1059A0000C4680683B216A4608F018FE40B39DF81B
:1059B00001309DF800009DF8022003EB00209DF8C7
:1059C00003309DF8041003EB02229DF8053080B2ED
:1059D00003EB012392B29BB220806280A38069789E
:1059E00069B100B290FBF1F12180697812B292FBAB
:1059F000F1F262806A781BB293FBF2F3A38001207C
:105A000003B030BD37B5062305460C4640681D215E
:105A10006A4608F0E3FD28B39DF801309DF80000C8
:105A20009DF8022043EA00209DF803309DF8041001
:105A300043EA02229DF80530208043EA0123628078
:105A4000A380297869B100B290FBF1F12180297817
:105A500012B292FBF1F262802A781BB293FBF2F34E
:105A6000A380012003B030BD37B5062305460C46A0
:105A7000806843216A4608F0B1FD40B39DF80130CB
:105A80009DF800009DF8022003EB00209DF80330F4
:105A90009DF8041003EB02229DF8053080B203EB61
:105AA000012392B29BB220806280A380297869B1E1
:105AB00000B290FBF1F12180297812B292FBF1F251
:105AC00062802A781BB293FBF2F3A380012003B01B
:105AD00030BD1FB50123ADF80830ADF80410002328
