:020000040800F2
:1000000000500020452B0108E52B010865F300088E
:10001000E52B0108E52B0108E52B01080000000095
:10002000000000000000000000000000E52B0108B7
:10003000E52B010800000000E52B0108C9F10008CC
:10004000E52B0108E52B0108E52B0108E52B01084C
:10005000E52B0108E52B0108E52B010861F00008FC
:10006000E52B0108E52B0108E52B0108E52B01082C
:10007000E52B0108E52B0108E52B0108E52B01081C
:10008000E52B0108E52B0108E52B0108E52B01080C
:10009000E52B0108E52B0108E52B01085DF00008C0
:1000A000E52B0108E52B0108E52B01084FF00008BE
:1000B00045F0000839F000082DF0000861F3000851
:1000C00059F300085DF3000855F30008E52B01081B
:1000D000E52B010871F1000815F10008B1F00008E6
:1000E000E52B0108E52B0108E52B010800000000C5
:1000F0000000000000000000000000000000000000
:0C01000000000000000000005FF808F1A3
:100110002DE9F04FAF4C9DB023680490062B01F2FF
:10012000C486DFE813F007001F001F001F00C20491
:100130004306CE0AA84B1B682BB9A84B4FF47A7024
:100140001B68584300E09847049E726C831A2AB1DA
:10015000F2691A44F261326A01323262049FA04AA3
:100160007864138027689B4D012F00F0BE80022F1A
:1001700000F0BF81002F40F079849A48291DD0F803
:100180008030984705F10408002800F08A84964BD7
:1001900005F1540A1A889946002A00F098800C3517
:1001A0003E46B9F800B0914BBBF57A7FCDF814B05C
:1001B00007D10A20A3F13C0100FB06110022DA510D
:1001C0000A61DA5938F906000244DA5110F032F8BF
:1001D0002B690133012B2B6104D100236860286057
:1001E000AB602AE0D5F800C001936146CDF80CC0A1
:1001F00002900FF069FF019B8346184610F01AF831
:100200000146584610F01EF9DDF80CC00146604664
:100210000FF05CFF029A034619466860104601938E
:100220000FF052FF0146584610F058F8A9680FF039
:100230004DFF019BE8602B60A860059A0023012A0E
:1002400028F806302AF8063034D12869012807DD5D
:1002500001380FF0EFFF0146E86810F0F3F800E016
:10026000002013F09FF8624B834693F8660190B12B
:100270000FF0E0FF0146584610F0ECF958B14FF48A
:100280007A73A9F800300023E36123636364236574
:10029000E364A3640EE0554B4FF47A72FB580A20D6
:1002A00003F5FA7393FBF2F32AF806300F210122CB
:1002B0000BF05EFD0236062E07F1040705F114056A
:1002C0007FF46FAFB9F80030013BA9F8003000238C
:1002D00038F803003AF803103E4A411A28F8031090
:1002E0000233062BF4D101F0D0BD3E4E05F15A0188
:1002F000D6F8983030469847B0465A35002800F076
:10030000D1833C4F3A4E3888002844D000231A4607
:10031000DFF8ECC0B0F5C87F04BF00214CF8021034
:1003200035F903905CF80210DFF8A8E049444CF876
:100330000210002106EB0309E9520233062BDFF815
:10034000B0C0A9F86A1102F10402E1D101281FD15D
:10035000DEF860304FF4C872C83393FBF2F3ACF8A8
:100360006A31DEF86430C83393FBF2F3ACF86C31D9
:10037000DEF86830C83393FBF2F2B8F89C30D21A3A
:100380001D4BACF86E219985D98501460BF060FDB7
:100390003B88013B3B80B268154B520740F192808D
:1003A00016490A888946322A2CD1B3F86A11A4F872
:1003B0006C10B3F86C11B3F86E31A4F86E10A4F899
:1003C00070300D4B998DDB8DA4F87210A4F8743049
:1003D0001AE000BFE0170020F409002028240020C4
:1003E0003A2B002018000020BE17002028180020FB
:1003F000682400202E2B0020F0290020D41A002091
:1004000040180020002A3DD000231946322AB04F60
:1004100004BF0020785035F903E0785870447850D4
:10042000002006EB030EE8520233062BAEF86A01F9
:1004300001F10401EAD1012A1FD1A64BA64D187083
:10044000A64B1A702B780A2B04D9A54809F08EFE0A
:100450000A232B70B4F86C30B4F87220A6F86A3115
:10046000B4F86E30A6F86C31B4F87030A6F86E317E
:100470009C4B9A85B4F87420DA85B9F80030013BBA
:10048000A9F80030984A1378E3B10023A16F1370E4
:10049000322291FBF2F1A6F86A11E16FB8F89C00E4
:1004A00091FBF2F1A6F86C11D4F8801091FBF2F2F6
:1004B000121AA6F86E2101208A4A01469385D38537
:1004C0000BF0C6FCB4F85A20B6F86A310227D31AEA
:1004D000A4F85A30B4F85C20B6F86C31D31AA4F8FA
:1004E0005C30B4F85E20B6F86E31D31AA4F85E30F2
:1004F000D8E27E4B7E4F1B689847D5F8843006467D
:10050000C31A184605930FF091FED7F88C10069089
:100510000FF0E4FE734BC5F8846093F83190002629
:1005200007903546B3461F46DFF8E48138F90500E9
:100530000FF080FE07990FF0D1FE10AB9851B9F182
:10054000000F2CD048460FF075FE01464FF07E504C
:100550000FF078FF0346194608F1840A4FF07E50E9
:1005600001930FF0B1FD56F80A100FF0B7FE08F135
:100570005608024638F9050002920FF05BFE019B17
:1005800019460FF0ABFE029A014610460FF09EFD91
:100590004AF8060010F068F8564B585305E008F189
:1005A000560835F80820534BEA52524B0436EB5E9E
:1005B0000235062D03FB03BBB6D14D4E642303FB6E
:1005C0000BFBB6F89C304C485B439BFBF3FBABF159
:1005D000490B10A91FFA8BFB02F0D6FABBF13B0FB7
:1005E00040F29A80454BD4F89C50B3F900000FF0CC
:1005F00021FE014628464FF0010610F02BF800B905
:1006000006463F4B2946D4F898005E7312F02AFD47
:100610000646C4F8A000D4F89400D4F89C9000F1E9
:100620000045D4F8980001460FF058FE4946804630
:1006300048460FF053FE014640460FF047FD12F0CA
:10064000B1FE0146284612F00DFD0546C4F8A4008F
:1006500030460FF0AFF91CA3D3E900230FF0FEF9E9
:100660000FF0DEFC12F030FCDFF8A880A8F80000E4
:1006700028460FF09FF914A3D3E900230FF0EEF9F9
:100680000FF0CEFC12F020FC1E4BA8F802001B68F5
:100690001B0740F18E8010A91B4802F075FA1B4B16
:1006A0004FF0000AB3F864010FF0C0FD4FF07E5127
:1006B00081460FF00BFD01464FF07E500FF0C2FE59
:1006C000804657E0AFF300803B597E90A9E7814018
:1006D00058180020D61A002060010020D01A0020EF
:1006E0004E800108F0290020D11A0020F4090020D2
:1006F000180000202E1C002074180020880B0020F9
:10070000E50C0020800B00208818002068240020C1
:10071000E417002050190020B14B4FF00008B3F847
:1007200062010FF083FD4FF07E5106460FF0CEFCC4
:1007300001464FF07E500FF085FE0546DFF8D4925B
:10074000304659F818100FF0C9FDA64B824633F910
:1007500008000FF06FFD014650460FF0B7FC294628
:100760000FF0BCFD49F8180008F10208B8F1060FB7
:10077000E4D137E7DFF8A0B248465BF81A100FF073
:10078000ADFD994A034632F90A0001930FF052FD7C
:10079000019B014618460FF099FC41460FF09EFD63
:1007A0004BF81A000AF1020ABAF1060FE2D15846D4
:1007B0003DE0DFF8389210A9484602F0E5F9D9F893
:1007C0000000D9F804B001460FF088FD5946824672
:1007D00058460FF083FD014650460FF077FCD9F8DC
:1007E00008808246414640460FF078FD014650465B
:1007F0000FF06CFC12F0D6FD002180460FF002FFD6
:10080000A0B9D9F8000041460FF01CFE4146C9F8D6
:100810000000D9F804000FF015FE4146C9F80400A5
:10082000D9F808000FF00EFEC9F808006F4802F072
:1008300063FA6F4B6F49188006980FF04FFD6C4BB1
:1008400005F10045804606F10046B3F90000149515
:1008500013960FF0EFFC00F100400FF0ABF85EA331
:10086000D3E900230FF0FAF80FF0DAFB5D4D159095
:10087000B5F900000FF0DEFC1690B5F902000FF09C
:10088000D9FC1790B5F904000FF0D4FC13A9189007
:1008900016A802F079F9584B93F84830012B17D17C
:1008A000564B5B7873B9D4F8B430402093FBF0F02A
:1008B000181A0FF0BFFC18990FF008FC0FF0D4FEC7
:1008C000C4F8B400D4F8B430402093FBF0F002E058
:1008D0004B49B1F89C000FF0ADFC014618980FF0A1
:1008E000F3FB484B1890196840460FF0EFFB0146A8
:1008F00040460FF0A7FDD4F8B860804631461898FE
:100900000FF0E2FB014640460FF0E8FC014630469E
:100910000FF0DCFB0646C4F8B8001698D4F8BC808B
:1009200012F0D2FA97F8331002F062FA4044C4F899
:10093000BC001798D4F8C08012F0C6FA97F83310AC
:1009400002F056FA4044C4F8C0003046D4F8C480DF
:1009500012F0BAFA97F8321002F04AFA2A4B059EC2
:100960001A68404432441A60D4F8C830274D013325
:10097000C4F8C83097F8B630C4F8C400002B73D060
:10098000D5F89400D5F8988001460FF0A7FC4146B1
:10099000074640460FF0A2FC014638460FF096FB92
:1009A000D5F89C600746314630460FF097FC01466B
:1009B00038460FF08BFB12F0F5FC014630460FF085
:1009C00041FD134906460FF031FE38B30023A5F868
:1009D000CC3049E0AFF30080399D52A246DF913F11
:1009E000682400202E1C00207419002050010020D3
:1009F000CE1A0020BD378635F0290020E50C0020F6
:100A000018000020940B0020342B0020E017002059
:100A10008FC2753C7418002088180020304612F0F0
:100A2000CFFA9F4B19680FF059FC12F04DFAB0F550
:100A3000617FA8BF4FF461700EF0AAFF96A3D3E9BF
:100A400000230FF035F90FF0EBFA12F07BFA954B1B
:100A5000064693F8B6000FF0EDFB31460FF03EFC72
:100A600012F032FAA5F8CC0003271BE08E4B5B791D
:100A7000012B8E4B0DD1B5F9CE10B5F9082002EB44
:100A80004102032192FBF1F292B29A80A5F8CE20A6
:100A900001E02A899A80A28804271A80E2885A8075
:100AA00000E00746276000F008BE814B814A197CB0
:100AB0007C4BA1B9B2F906101A8D91423CDBB1F51D
:100AC000FA6F93F8264007DA891A4C43A2F5FA62C6
:100AD00094FBF2F4643430E0C4F164042DE0B2F924
:100AE00006101A8D91420FDB734AB2F9061093F883
:100AF0002620914208DDB1F5FA6F02DA891A4A43DD
:100B00005212C2F1800200E080226C49B1F9021059
:100B1000142909DD93F82600B1F5967FA8BF4FF49C
:100B200096714143A2EB212293F82640C4F1800440
:100B3000A242A8BF144600E064245B4A93F8B05078
:100B4000B2F8987192F95C2193F8B160524293F82F
:100B5000253092B2002153480692059707930A4622
:100B6000544BDDF8149031F903B040F2E637C9EB8D
:100B70000B0303F2F31EBE4503D8002BB8BF5B4244
:100B800001E04FF4FA73022ADFF82CC12ED025B110
:100B9000AB42CCBFC5EB030300236427DFF82491ED
:100BA00093FBF7FE09EB4E086FF0630A0AFB0E3A5F
:100BB000B8F8D08009EB4E0EBEF9D2900FFA88FE3D
:100BC000CEEB090E0EFB0AFE9EFBF7FEC6442CF888
:100BD00001E090F823E003FB0EFE394B9EFBF3F39C
:100BE0003B449BB2634393FBF7F716E026B1B34255
:100BF000CCBFC6EB03030023DDF818A0DDF81CE032
:100C000003FB0AF7002BB8BF5B4203FB0EF3ACF803
:100C100004702B4F93FBF7F76437224B90F80B804F
:100C2000134493F801C007FB08F807FB0CFCDFF83E
:100C300098E064239CFBF3FC02F80EC098FBF3F8E9
:100C40000EF1030C02F80C8090F815C00EF1060EA0
:100C500007FB0CF797FBF3F302F80E30059B164FDA
:100C60009B4502DA7B5A5B427B520132032A01F137
:100C7000020100F101007FF473AF0E4BB3F90620BF
:100C8000094BB3F89A319A4220DBB2F5FA6FA8BF4C
:100C90004FF4FA621BE000BFA2EB0FE5DD169640B1
:100CA000900B0020F0290020682400206E190020FD
:100CB000E50C0020B00D0020EA1A00205019002099
:100CC0000CFEFFFFE0170020BE1800201A46D21AC3
:100CD0004FF47A714A43C3F5FA63B2FBF3F3642528
:100CE0008F4A93FBF5F102EB41006FF0630606FBC0
:100CF0000133B0F8E80002EB4101B1F9EA6001B25A
:100D0000711A4B4393FBF5F5864B28445B7A864C6E
:100D1000F8809046002B44D0844BB3F90000844BFC
:100D2000B3F90030C01A0EF033FE7BA3D3E90023E1
:100D30000EF094FE00227F4B0EF0BAFF0FF070F918
:100D4000054612F08BF80646284612F0FBF80546D9
:100D5000B4F902000FF06EFA0746B4F900000FF084
:100D600069FA314681460FF0B9FA2946824638467B
:100D70000FF0B4FA014650460FF0A6F90FF074FCDC
:100D80003146208038460FF0A9FA294606464846E3
:100D90000FF0A4FA014630460FF098F90FF064FC0A
:100DA00060800523C8F8003000F087BC624BDFF894
:100DB000A4911A6812F0080539D05B4988880F465B
:100DC00000F145039BB28A2B5C49584B2DD8554EF8
:100DD00096F805E0BEF1000F27D0B3F800E00B88CD
:100DE000767BC3EB0E0189B28BB20FFA83FE1EF144
:100DF000B30FBCBF01F5B4739BB219B2B32950490C
:100E0000C4BFA3F5B4739BB291F85C117EB149B233
:100E100049424B4399F809101BB24B436FF01D0137
:100E200093FBF1F31844B88001E01B880B8057074F
:100E300040F19D803B4B9979002900F098801E7C01
:100E4000394B002E40F08A8099F8B3003D4F99F855
:100E5000B21068B3B3F806E0B7F900000FFA8EF7E6
:100E6000C0EB070CBCF1000FB8BFCCF1000C8C45F7
:100E700010DD8742DFF8E0C0C8BF4942CCF800600F
:100E80001FFA8EFE4FF00106C8BF89B284F80061D8
:100E900071443FE094F8001131B12B490F682B49A0
:100EA0000F601F4981F8006129490968084426E05C
:100EB000B7F90060B3F90670BF1B87EAE77EAEEBB7
:100EC000E77E8E450ADD022197FBF1F70121C4F888
:100ED000047184F8081184F800110DE094F8007191
:100EE0000F494FB1184F81F80801D7F800E0174FAC
:100EF00081F80001C7F800E0154908683044104E39
:100F0000B6F84011B6F84261884203DBB042B4BF84
:100F100001463146D9802AE0182D4454FB2109406E
:100F2000E0170020E50C0020EA1A0020CE1A00206D
:100F3000FE1A002000806640800B0020FC1A002072
:100F400068240020E81A0020E41A0020E01A00209B
:100F5000F81A0020F0290020F41A00209749588838
:100F600091F9A0619649096806FB0101598099F839
:100F7000B63053B1934BD97809B91B792BB1924B49
:100F8000B4F8CC00D9880144D980960640F1928308
:100F90008C4BDE7905961EB91A7A002A00F08583FB
:100FA0001B7BDFF820B2002B00F07F83874B1F886C
:100FB00038B20FF03FF986490FF090F9064611F06C
:100FC000C1FF8046304611F049FF9BF810300646BD
:100FD000002B40F0858099F815917E4F7E4DB9F138
:100FE000000F4CD0DFF81CA2B7F90200BAF80230AB
:100FF000C9F100041FFA83FB1BB2C01A02F0BAF851
:10100000A04203DB4845A8BF484600E02046BAF8A6
:1010100000308344B7F900009AB21BB21FFA8BFB71
:10102000C01AAAF802B0029202F0A4F8A042029AF2
:1010300003DB4845B4BF04464C461444A4B2AAF8A6
:1010400000400FFA8BF00FF0F5F8074620B20FF0D2
:10105000F1F83146044638460FF040F941468146E2
:1010600020460FF03BF9014648460FF02DF85B494A
:101070000FF0E8F90FF0F8FA288038461DE0B7F9CC
:1010800002000FF0D7F88146B7F900000FF0D2F850
:101090003146044648460FF021F9414607462046AE
:1010A0000FF01CF9014638460FF00EF84B490FF0CF
:1010B000C9F90FF0D9FA2880484641460FF00EF9D9
:1010C0003146074620460FF009F9014638460EF032
:1010D000FDFF42490FF0B6F90FF0C6FA6880E9E269
:1010E0003F4B404A1888404B9BF813B0DB8899F877
:1010F000369106933D4BD3F808803D4B1FFA88FA92
:101100001E889368CAEB0606B6B2CAEB030A1FFA3A
:1011100086FC1FFA8AFABBF1000F06D00FFA8CF397
:101120004B45BCBF08EB090393600A2300B2584348
:101130000193CDF80CC002F01DF8019BDDF80CC046
:1011400090FBF3F000B27DB190FBF3F338B29AB2AA
:10115000C31A002BB8BF5B420A2B08DD254B1B8846
:10116000C82B88BF174602E090FBF3F7BFB2224DB1
:101170002248D5F80C316422CAEB060193FBF2F247
:101180000668D5F8143189B2F31AC72BA5F81021D7
:10119000A5F81211824640F26C820368184EC5F819
:1011A0001431B6F82C3179BBA5F81831BBF1000F1A
:1011B00040D0044B0021D9743CE000BF68240020DB
:1011C000F81A0020E50C0020EA1A0020CE1A0020B0
:1011D00035FA8E3C321B0020281B002000002041E5
:1011E0007A190020101B0020B00D0020041B0020E5
:1011F0001C1B00206C1C0020E0170020282400206D
:10120000F02900202E1B0020B6F8300109B200FBA7
:101210001130B6F82E31B6F82AE1984203DB70455A
:10122000B4BF03467346A5F81831BBF1000F01D0D7
:101230000029BEDAD71BB8B2059F9E499E4BE7B185
:10124000CA7C7AB1B6F824216FF009077A43A5F871
:101250001221B6F82A21A5F818210FFA8CF2182AC3
:10126000D8BF00201A88312A07D80FFA8CFCCC4549
:1012700003DD924A08EB09079760897C8D4A49B1E2
:101280001988092906D800215170D1748B4A08F1B8
:10129000050191601B88092B08D800B20EF0CAFF27
:1012A00087490FF01BF80FF0DFF980B24FF06409A7
:1012B00000B209FB00F001F05DFF90FBF9F01FFAAE
:1012C00080F90FFA89F3002BB8BF5B42DAF800000F
:1012D000AA2BC8BF4FF0AF09D5F81C31DFF8048244
:1012E000C01A0EF0A3FF77490FF0ACF8DAF800301F
:1012F000B5F812A1C5F81C310AF103039BB2062B05
:10130000074606D8D8F8000039460EF0E7FFC8F8BF
:1013100000000A2202FB0AF292B293B2A4F8123140
:1013200018B2029201930EF085FFD4F82411824680
:101330000EF0D4FF39460EF0D1FFD8F800100EF0B1
:10134000C5FE0FF091F96049B0F5FA7FA8BF4FF4E0
:10135000FA708842B8BF08460EF06CFF5B49029AEB
:101360008346C8F800000888019B121A92B20B80CD
:1013700013B2002BB8BF5B42642BC8BF0022544B92
:1013800003F10A01988823F8020F8B42FAD15149E0
:1013900000230A811846CA5A023310440A2B80B22D
:1013A00001D080B2F7E700B20EF044FFD5F8281163
:1013B0000EF094FF39460FF045F80FF055F91FFA7B
:1013C00080F8D5F820115046A5F830810EF086FF40
:1013D0000FF04AF900B20EF02DFF59460EF076FEDE
:1013E0000FF042F91FFA89F909F103039BB2062BAA
:1013F0001FFA80FA08D8DFF8F0B03946DBF80000B1
:101400000EF06CFFCBF800004FF00A0C0CFB09F952
:101410001FFA89FC1FFA8CF210B20292CDF80CC0B0
:101420000EF008FFDFF8C090D5F8381183460EF0B3
:1014300055FF39460EF052FFD9F800100EF046FE67
:101440000FF012F9204BB0F5FA7FA8BF4FF4FA70F5
:101450009842B8BF18460EF0EDFE0346C9F80000EA
:101460001D48DDF80CC00188029AC1EB0C0189B25D
:1014700002800AB2002AB8BF5242642AC8BF0021C3
:10148000164A02F10A00B2F804E022F802EF8242A2
:10149000F9D1134A4FF000091181484632F809107A
:1014A00009F102090844B9F10A0F80B21ED080B2D6
:1014B000F4E700BFE50C00206E1C0020101B00208C
:1014C000CDCCCC3D00007A440CFEFFFFB81B0020C1
:1014D000BC1B0020BE1B0020BA1B0020C81B002024
:1014E000CA1B0020B41B0020B01B002000B20193D7
:1014F0000EF0A0FED4F83C110EF0F0FE39460EF0CE
:10150000A1FF0FF0B1F887B2D4F83411A4F84471F8
:1015100058460EF0E3FE0FF0A7F800B20EF08AFE78
:10152000019B0FFA8AFA19460EF0D0FD0FF09CF8D5
:10153000B6F924316FF009014B439AFBF9FA0FFA1F
:101540008AFAB6F926119A4580B209FB01F903DB44
:10155000CA45B4BF53464B46B04C02B2B4F9201151
:101560006FF0090048434FF00A0E984492FBFEF2D8
:10157000AB4B1FFA88F88242A3F8028004DB0EFB13
:1015800001F08242B8BF1046BFB238441880B4F9A7
:1015900022016FF0090141438A4204DB0A214143E1
:1015A0008A42B8BF11469F4A0F44507C9F80114623
:1015B00058B194F828210FFA88F85242904503DB7D
:1015C000C845B4BF42464A465A80C97C964A69B962
:1015D00096F83261B2F900006421B6FBF1F15E8841
:1015E0000028B8BF404201FB10615980B2F90200E7
:1015F0000EF020FE4FF07C510EF070FE0FF034F82C
:101600008A4BB0F5E17FA8BF4FF4E1701A88B5F8B6
:101610001871A2F5E17320EAE0709BB2381A642BCE
:1016200087B2834E0CD910B2C0F5FA700EF002FEEC
:1016300080490EF053FE0FF017F8338818443080BD
:10164000B6F90030B4F82E21B3F5FA7FA8BF4FF4F5
:10165000FA7323EAE37333803B441BB29342B4F83A
:101660002A1103DB8B42B4BF1A460A46724BA3F819
:1016700018216C4A6A4BD17809B9117921B1927A53
:1016800052B1684A927C3AB9DDF818900022A5F868
:1016900018915A801A809A80684AB5F81811D1803A
:1016A000998893880B44938004E05D4B00221A8054
:1016B0005A809A80604B06221A60049809F0DCF880
:1016C000F3E35F4BDB6898475E4B93F80080B8F11B
:1016D000030F14D9594BB4F94A11B3F904006FF050
:1016E00063030028B8BF40421B1A994204DB00F193
:1016F00064038B42A8BF0B46A4F84A310BE0B8F153
:10170000010F08D8504B5A791946013AD2B2172A1C
:1017100000F2D481A3E04148B4F848A190F90E1139
:10172000B4F846B1B4F94A4149424C433D49434BB0
:101730000A7C90F81E01897ACDF810A0DE88B3F8F3
:1017400004A0424D0694CDF814B007920890099178
:1017500000244445D6D230B20EF06CFD2968834691
:101760000EF0BCFD049B844618B2CDF80CC00EF000
:1017700061FDA9680EF0B2FDDDF80CC001466046BF
:101780000EF0A4FC059A844610B2CDF80CC00EF001
:1017900051FD69680EF0A2FDDDF80CC001466046FF
:1017A0000EF094FC84460698CDF80CC00EF042FD75
:1017B000E9680EF093FDDDF80CC0014660460EF0BE
:1017C00085FC0EF051FFDFF88890079B670029F831
:1017D0001400002B40D0089A002A3BD0099B002B14
:1017E0003AD00FFA8AF00EF025FD84462046CDF857
:1017F0000CC00EF01BFD4FF07C510EF065FCDDF8C7
:101800000CC0014660460EF069FD014658460EF0D8
:101810005BFC0EF029FF29F807001DE0F0290020ED
:10182000281B0020E50C0020501900206C1C002013
:10183000BC1B0020CDCCCC3DE0170020EA1A0020D4
:1018400050010020D429002068240020B40B00207F
:10185000D629002027F809600134103579E70123E3
:1018600003FA02F2B94B13406BBBD00640F126815C
:10187000B74BB84893F9BE20B0F90240B0F9000068
:101880005443322294FBF2F4B3F8BC20A4B211B258
:101890001129DCBFB04A32F81120B04922440A8035
:1018A00093F9C820B3F8C6305043322290FBF2F0CF
:1018B0001AB2112AD8BFA84B80B2D8BF33F8123061
:1018C00003444B80FAE0A64B9B7A43B1A54B1A88A0
:1018D000ADF858205A889B88ADF85A200AE0A24BF0
:1018E000B3F84621ADF85820B3F84821B3F84A318F
:1018F000ADF85A20ADF85C309C4B974A1B88ADF888
:101900005E30B1F898311189C91AADF8601051896B
:10191000C91AADF862109189C91AADF86410D1895D
:10192000C91AADF866101188C91AADF86810518847
:10193000C91AADF86A109188D288C91AD31AADF8BD
:101940006E30ADF86C100023844900225A520233E5
:10195000102BF9D1864B15461B7804931346DDF8FE
:1019600010A0554500F08F80824E834C91198879E4
:1019700020B1824F3844007D00287ED0B05C744E88
:101980000A2707FB0067B7F8BAE0B7F8B86091F923
:1019900004B0C6EB0E06B6B206FB0BFB642791F84B
:1019A00001809BFBF7FB4FEA560C91F803E0CCEB70
:1019B0000B0B4FEA48070DF170091FFA8BFB91F8EA
:1019C00005A04F44BEF1000F03D137F8187CE75251
:1019D0001BE0E45E37F9187CDFF89C91BC4209DA21
:1019E000A644A64503DB7745B4BF3C46744629F8B8
:1019F00003400AE009DDCEEB040EBE4503DBA6453D
:101A0000B4BF7746274629F80370DFF844E14FF06A
:101A10000A0909FB00EEBEF8C0E091F902104EFA87
:101A200008F818F0010FDFF850814C4C33F90880AA
:101A30000FFA8BFB01FB08F14FF0640891FBF8F102
:101A40000CBF4FF0010E4FF0FF3E594534F81070B7
:101A50001FFA8EFE0CDB4FFA8AFB06FB0BFB9BFB8F
:101A6000F8FBCCEB0B0B0FFA8BFB8B45A8BF8B461F
:101A70000BFB0E7B24F810B000E0E0520135EDB214
:101A8000023307326BE73E4B314A03F1100492F9FF
:101A9000BE10B3F902500A324D43642195FBF1F5B3
:101AA000B2F8B210ADB208B21128DCBF2A4931F841
:101AB0001010294423F8021FA342E8D1314B9A6841
:101AC0009A4612F0200F224B3BD0B3F8BC00234CB7
:101AD00002B2112AD8BF20492546D8BF31F81200DA
:101AE000B3F8C61020800AB2112ADCBF1A4931F8B7
:101AF00012101A4A0C4669802049097A09B393F8F2
:101B0000101193F9C86011F0020F93F9BE701149DA
:101B10003AD0B1F90050B1F902106E437F424F4301
:101B20004FF0320E96FBFEF66FF03101B6B297FB26
:101B3000F1F1314497FBFEF708443E4410803444F1
:101B400054800F4A024902F1100532E089209800C2
:101B5000F029002050190020B00D0020880100203D
:101B6000E50C0020EA1A0020E0170020D62900200A
:101B7000740C0020750C00202C190020AC1A0020D9
:101B80008601002068240020B1F90250B1F900104C
:101B90006F434E43322597FBF5F7384496FBF5F536
:101BA00010802C44CCE722F8020FAA4201F10A016E
:101BB0000CD0B2F90240B1F9B800B1F8BA60844271
:101BC000F1DB30B2A042A8BF2046ECE793F8103119
:101BD000590705D49A499B4B0C881B7801220FE0CA
:101BE000994B9A4D9E7D0024043EA0190134C0B249
:101BF00035F8021FE4B201F0F8FB042CF5D1E9E757
:101C00009A4208D231F9120024B2A042A8BF044679
:101C1000A4B20132F4E78E4ABAF84251107C291B73
:101C200005908C4889B2B0F90600BAF8987106910F
:101C30000490DAF808108848BAF840C101F48046E8
:101C4000B0F9EAB001F010010797B0F9EC70BAF8FA
:101C500046010E911FFA8CF1BAF844E108900A91FE
:101C600050787E49BAF848819AF80590BAF89AA156
:101C70005B000D960C901FFA8EF64989507C0F93ED
:101C8000CDF800B0CDF824A00B9600230F9EB342F0
:101C90006ED022B2AA4208DD059A32B9684A069E81
:101CA00033F802A0B24423F802A00D9E644A002E2D
:101CB00036D0DDF810A0DDF81CB0DA4532F903A00B
:101CC00015DDC24503DBAA45A8BFAA4600E0C2460F
:101CD000B9F1010F22F803A041D1009A09B2914253
:101CE00003DBB942A8BF394618E0009916E0F24577
:101CF00004DB089EB245A8BFB24600E0F246B9F147
:101D0000010F22F803A02AD109B2B94205DBDDF8A0
:101D100000A05145A8BF514600E0394689B21EE0F7
:101D200032F903B0E34503DBAB45A8BFAB4600E0A7
:101D3000E34622F803B002EB030ADDF810B0099A7B
:101D400093450BDA0E9E26B9DDF828B0AAF800B04C
:101D500005E00B98AAF80000012000E000200C9A92
:101D600022B93F4A985A364A9852012002338DE7E9
:101D7000354A3A4C364B6181517D58741A460029D8
:101D80007DD0384E7379013B172B6DD8DFE803F017
:101D90000C6C6C186F6C6C1E6C6C6C6C6C256C6CC9
:101DA0006C6C6C18256C6C342B4B93F80F3113B1A1
:101DB0000020618961E050780028F9D101465CE09B
:101DC0000020218901F011FB0120F2E70020E188C9
:101DD00001F00BFB012021894FE00020E18801F098
:101DE00004FB0120218901F000FB0220618901F040
:101DF000FCFA0320A18940E00020E18801F0F5FA17
:101E00000120218901F0F1FA0220618901F0EDFA47
:101E10000320A18901F0E9FAB368104DDA072ED545
:101E20000420298801F0E1FA0520698801F0DDFA33
:101E30000620A98801F0D9FA0720E9891DE000BF32
:101E4000D6290020D42900209C0B0020B60D0020AC
:101E5000E50C0020B00D0020F029002088010020B2
:101E60005619002068240020B3689B0607D500207F
:101E7000218801F0BAFA6188012001F0B6FA00F079
:101E800065FE0C4B00221A600FE00B4B1B6813F031
:101E9000020307D1A2F85A30A2F85C30A2F85E30F3
:101EA000FEF7E2BD0127FEF7FDBD00201DB0BDE835
:101EB000F08F00BFE0170020800B0020AFF3008000
:101EC00010B5C468A36A43B1616809B1206A03E030
:101ED000A26912B1206A0F499847E36ABBB1A168B1
:101EE00011B1206A984712E0626982B1206A0A49FA
:101EF000984760B194F824304BB9012384F824301A
:101F0000E36823B12046984708B984F824000020EC
:101F100010BD00BFF9CA00088DAF000870B5174C9E
:101F2000174D002B0CBF2B46234672B1013A94008B
:101F3000002221FA04F606F00F0601329E5D851894
:101F4000043C05F8016CF4D515E089B101251C2489
:101F500021FA04F606F00F0605B126B19D5D855401
:101F60000132002500E00125043C261DF0D102E0ED
:101F7000302303700122104670BD00BF8E9001080F
:101F80009F90010830B562B1531E013821FA03F465
:101F900004F00104303413F1FF3300F8014FF5D29F
:101FA00015E089B101241F2321FA03F505F001058D
:101FB00004B125B1303585540024013200E00124FC
:101FC00013F1FF33F0D202E03023037001221046F8
:101FD00030BD074B9B788342064B02D8B3F898017B
:101FE0007047184490F88221034B33F82200704761
:101FF000F80D002068240020D80D0020034B184461
:1020000090F88221024B33F82200704768240020A8
:102010005C200020034B184490F88221024B33F8D7
:102020002200704768240020580E0020034B1844FB
:1020300090F88221024B33F8120070476824002088
:102040002C0F002010B5094A094913688C681268E2
:102050009342F8D1074A106811684FF47A725043DE
:10206000001BB0FBF1F002FB030010BD2424002094
:1020700010E000E0000B0020034B4FF4805208B149
:102080001A6170475A61704700080140034B4FF4D2
:10209000805208B15A6170471A61704700080140C8
:1020A000014B33F810007047B00D002007B50F4BFF
:1020B00002A941F8040D18684368984703680C4A60
:1020C000B3F5967FC8BF4FF0FF330193019B1360B8
:1020D000084B18680DF05CFC0022074B0DF0E8FD82
:1020E0000DF09EFF03B05DF804FB00BFE01200207E
:1020F00044010020101F00200000594008B5094B82
:10210000B0F5967FC8BF4FF0FF301860064B1868D7
:102110000DF03EFC0022054B0DF0CAFD0DF080FFD6
:1021200008BD00BF44010020101F002000005940DE
:10213000034B184490F88221024B33F81200704789
:1021400068240020D81F0020014B0D221A70704710
:102150006001002003789B070AD5826C831883F8FE
:102160005811C36B0132B2FBF3F103FB11238364FB
:102170007047037813F001030BD0426C036C9A4252
:1021800005D09CBF806B1218D31AD8B270470020BC
:10219000704718467047037810B513F001030446E2
:1021A0000FD0FFF7E6FF68B1236CE21892F85400F5
:1021B000A26BC0B2013A934234BF013300232364BF
:1021C00010BD184610BD826CC06C121A50425041AE
:1021D00070470170704770B50B780446012B08D02A
:1021E000052B59D14B78012B56D8314A0020D361A9
:1021F00070BD4B782F4D022B1BD0122B4CD100F110
:102200003801D1E9000100222B4B0DF051FD0DF0FA
:10221000E7FE2A4B00221880274BD4E910010DF06D
:102220001DFC0DF0DDFE264B18802B7843F00203D9
:1022300031E090F859302349C3F30003DAB2CB728E
:1022400002B319A3D3E9002300F12001D1E9000171
:102250000DF004FC0DF09CFE13A3D3E900231A4EED
:102260003060D4E90A010DF0F9FB0DF091FE174B37
:1022700094F8582070601A70D4E90C010DF0B0FE8B
:10228000134B1880A36C134A1360134BE26C1A6053
:102290002B7843F001032B70064B00201A78032A99
:1022A00004BF1870012070BD00000000D01263410F
:1022B000DC0F00204C190020000024406C1C002082
:1022C0007A190020E50C0020201B00206C23002040
:1022D0001C1B0020101A0020141A0020032970B5BE
:1022E00004462B4D1BD00A2946D100F13001D1E91B
:1022F00000010022274B0DF0DBFC0DF071FE264B98
:1023000000221880234BD4E90E010DF0A7FB0DF03D
:1023100067FE224B18802B7843F002032BE090F8E5
:1023200051301F49C3F30003DAB2CB7202B316A3D4
:10233000D3E9002300F11801D1E900010DF08EFB73
:102340000DF026FE10A3D3E90023164E3060D4E929
:1023500008010DF083FB0DF01BFE134B94F8502089
:1023600070601A70D4E90A010DF03AFE0F4B188024
:102370002B7843F001032B702B780020032B02D124
:10238000034B1870012070BD00000000D0126341A3
:102390004C190020000024406C1C00207A190020F9
:1023A000E50C0020201B00206C2300201C1B0020BB
:1023B0000A4B10B553F8200000244268138823F01C
:1023C00001031B041B0C138083681C8003681980A5
:1023D00013889BB243F00103138010BD040D00204D
:1023E000024B53F820301B6819807047040D002001
:1023F000074BA1F57A7153F820304FF47A701A68C0
:102400009B894B4393FBF0F39BB21380704700BF53
:10241000040D00200120704701207047054A064B3B
:10242000128808B11A6100E05A61044B00221A7048
:10243000704700BF04230020000C0140BC20002096
:1024400008B502F10062084602F5F8311A460DF0AF
:10245000D7F8012008BD038B02899A4288BF838286
:10246000838A03837047C28A838A934224BF018987
:102470005218D31A9BB2581E80B27047426B08B5EF
:1024800012B15368984708BDC069FFF7ECFFC0B2AE
:1024900008BD828AC38A9A423CBF00891218D31AA7
:1024A00098B2704770B503790446C3F34103012B1A
:1024B0000D4606D0022B33D1FFF7EBFF628B13469C
:1024C00018E0C38A808A0022834229D02169CE5C29
:1024D000A17E8E4201D1AA421FD8218901339BB22D
:1024E0008B4228BFC1EB030302F1010228BF9BB25C
:1024F00092B2E9E79D4202D913449BB2FAE78342C4
:1025000008D2E28A134422899BB29342E38205D324
:102510009B1A02E0854203D8A38AE382012070BDA2
:10252000002070BD70B5858A03890135ADB2AB421C
:1025300098BF0025C38A0446AB420E4607D101214D
:10254000FFF7B0FF18B9054B04221A7070BDA28ABC
:10255000236901209E54A58270BD00BF2C2B002052
:102560000346406910B588B102685A611A69026071
:1025700002B150609A6800F10804013218619A6053
:10258000204600211A6814F0A5FA204610BD10B5A7
:1025900011E90C00A1F108040BB11A6000E002611E
:1025A00051F8082C02B15360436941F8083C0023FC
:1025B00041F8043C83684461013B836010BD09B16C
:1025C0001030E4E77047002330B5054618469AB24C
:1025D0008A4217D2EA5C80EA0220082210F4004FF7
:1025E0004FEA400418BF84F4815002F1FF3218BF53
:1025F00080F0010092B214BF80B2A0B2002AEDD1E7
:102600000133E4E730BDF0B585B001AF0D460646B5
:102610001446384600210B2214F05CFA65B3002200
:10262000531C092D99B209D90A20B5FBF0F100FB22
:1026300011503030B8540D461A46F1E704A8024450
:10264000303502F80C5C14B1A14203D300242644B7
:102650001A4609E0641AA4B2002291B28C42F6D064
:102660003021B1540132F8E7013AB95C06F8011B98
:10267000002AF9D118190AE028460130331830220F
:1026800003F8012C1CB1013CA4B2002CF5D105B01B
:10269000F0BD2DE9F74F07460E469046002498F806
:1026A0000030002B00F0F980252B40F0F180002352
:1026B0001D4618F8012F642A3AD017D8392A06D8AF
:1026C000302A25D2252A40F0E5803A55E1E0622AF9
:1026D00025D000F2D980582A40F0DC8032683819C1
:1026E000131D3360116801232A4650E06C2A01D182
:1026F0000123DEE704D8662A4CD0692A18D0C9E045
:10270000752A2DD0782A35D0732A40F0C3809EE0F8
:102710000A214D43303AADB21544ADB2C9E7326833
:102720003819131D116833602A46FFF72BFC1FE090
:1027300032681168131D0029336008DA2D2304F173
:1027400001093B5549421DB1013DADB200E0A14632
:1027500007EB09002A46FFF756FF09EB000499E052
:1027600032683819131D116833602A46FFF74BFF92
:1027700004448FE0326838192BB1131D336011689F
:1027800000232A4603E0111D316011682A46FFF735
:10279000C5FBEDE7336807EB0409073323F00703B4
:1027A00003F10802D3F804A032601A68514601927E
:1027B0001046002300220DF0C3FB30B12D233B5502
:1027C0000AF1004A4FF0010B00E0834651460198A0
:1027D0000DF006FC0346194609EB0B00002200939E
:1027E000FFF711FF584480B22E2209F80020009B09
:1027F00000F1010B18460DF0BBF802460B4601989C
:1028000051460CF077FF1FFA8BFB002D08BF062501
:1028100002460B464FF0000A104619460022214B93
:102820000DF01CF90AF1010A1FFA8AFAAA450246BC
:102830000B46F1D10DF0D4FBD9440146524648462F
:10284000FFF7E1FE58441FFA80FB5C4422E0336846
:102850001A1D3260D3F80090B9F1000F1AD0484623
:1028600014F0BCFA03197E2B054607EB040003D8CD
:10287000494614F055FA05E0C4F17F0549462A4659
:1028800014F006FB2C4405E033681A1D1B68326007
:102890003B55013408F1010801E73B5503B0BDE8A1
:1028A000F08F00BF000024400EB403B503AB53F813
:1028B000042B02A941F8043DFFF7EBFE02B05DF8DE
:1028C00004EB03B0704770B5054C05462368984784
:1028D000064623689847801B80B2A842F9D370BD92
:1028E000F4090020034B19681A68521A92B2824206
:1028F000FAD3704728240020013A2DE9F8430C460A
:10290000072A30D8DFE802F004080C12191E22262C
:1029100003880B8043880DE043880B80038803E025
:1029200003885B420B8043885B4203E043885B4241
:102930000B8003886380838814E003885B420B80EC
:1029400043880CE043880B80038808E003880B80F1
:10295000438803E043885B420B8003885B426380CB
:1029600083885B42A380304B1B78002B5AD1B4F98B
:1029700000000DF05FFC8046B4F902000DF05AFC37
:102980000746B4F904000DF055FC284D06462968A9
:1029900040460DF0A3FCE968814638460DF09EFCE8
:1029A000014648460DF092FBA969814630460DF07C
:1029B00095FC014648460DF089FB10F085FA6968E0
:1029C000208040460DF08AFC2969814638460DF08A
:1029D00085FC014648460DF079FBE96981463046A1
:1029E0000DF07CFC014648460DF070FB10F06CFACF
:1029F000A968608040460DF071FC696980463846E0
:102A00000DF06CFC014640460DF060FB296A07465C
:102A100030460DF063FC014638460DF057FB10F0D0
:102A200053FAA080BDE8F88317000020580B00205F
:102A300008B5436B0BB15B69984708BD426B08B59D
:102A400012B1D368984702E04268043090470120F1
:102A500008BD034BDA6882F01002DA60704700BFED
:102A6000000C0140024BDA6882F00802DA6070471D
:102A7000000C014008B5024B1B68984708BD00BF19
:102A8000302B002009B1012000E00846F2E72DE9D3
:102A9000F0410F88002347FA03F2D2072BD58A783A
:102AA00003F0070512F0100F18BF91F803C002F0F1
:102AB0000F0618BF46EA0C06AD004FF00F0C0CFADB
:102AC00005FC06FA05F5DC0850F82480282A28EAD7
:102AD0000C0C45EA0C0540F8245005D101229A401F
:102AE000C46824EA020205E0482A04D101229A407F
:102AF000C4682243C2600133102BCCD1BDE8F08101
:102B000038B500240E4D21460E4870222C7013F06B
:102B1000E1FF21460C4B0B4493F9D2207AB10948CE
:102B200053F8D04F0A180C5098889B79073193714D
:102B30002B78702903F1010390802B70EAD138BD06
:102B4000740C0020750C00206824002010B50024AF
:102B5000094B1B78A3420DD9084B33F81410084BCE
:102B60001B78A34203D9074B20461B6898470134C2
:102B7000E4B2EDE710BD00BFD4290020D629002023
:102B8000030D0020AC0D00202DE9F04F0C68836888
:102B900089B0D0F800A0D0F8048006462046039300
:102BA0008B4610F05BF90746204610F0CBF9DBF8B6
:102BB00004408146204610F051F90546204610F0A9
:102BC000C1F9DBF8082004461046019210F046F9DE
:102BD000019A8346104610F0B5F9394602905846DE
:102BE0000DF07CFB3946049002980DF077FB5946B6
:102BF000059048460DF072FB0299069048460DF08C
:102C00006DFB2946079058460DF068FB014650467B
:102C10000DF064FB2146834606980DF05FFB0146EC
:102C200005980DF053FA014640460DF057FB01465A
:102C300058460DF04BFA2146834604980DF04EFBA2
:102C4000014607980DF040FA014603980DF046FB47
:102C5000014658460DF03AFA3060029905F10040FD
:102C60000DF03CFB014650460DF038FB21468346F3
:102C700007980DF033FB014604980DF025FA014644
:102C800040460DF02BFB014658460DF01FFA214639
:102C9000834605980DF022FB014606980DF016FAC2
:102CA000014603980DF01AFB014658460DF00EFA46
:102CB0002146706050460DF011FB2946044609F18B
:102CC00000400DF00BFB014640460DF007FB0146AE
:102CD00020460DF0FBF93946044628460DF0FEFA71
:102CE000014603980DF0FAFA014620460DF0EEF980
:102CF000B06009B0BDE8F08F2DE9F84F384E0446BA
:102D00003768384610F0AAF80546384610F01AF928
:102D100076688046304610F0A1F88346304610F0C1
:102D200011F9D4F804900646294648460DF0D6FA23
:102D3000A7688246414638460DF0D0FA0146504613
:102D40000DF0C2F92168824658460DF0C7FA414697
:102D5000044648460DF0C2FA31460DF0BFFA01466E
:102D600020460DF0B3F93146044638460DF0B6FA68
:102D700029460DF0B3FA014620460DF0A7F90146A9
:102D8000504610F06FF917490DF0A8FA0CF012FE3A
:102D900011A3D3E900230CF08BFF134B0446D3F8A7
:102DA000B0000D460CF006FE02460B4620462946B2
:102DB0000CF0A2FC00220D4B0CF07AFF0DF030F964
:102DC00010F082F883B2190444BF00F5B4739BB2CB
:102DD00018B2BDE8F88F00BF182D4454FB210940FC
:102DE000801800200000E14418000020000024406A
:102DF00080EAE073A3EBE0738B4206DB002801DD81
:102E0000401A704702D0084470470020704770B5E0
:102E10000546441E14F8011F61B1074E304613F0F9
:102E200005FF0028F6D0861B0448631B304480F859
:102E30008231EFE770BD00BF7C9D0108682400204F
:102E400070B540F26C55284613F082FB044660B31F
:102E5000174E4C213068C3699847024610B330685A
:102E60002146066A2B46B047E0B123784C2B19D196
:102E70006388AB4216D12379BE2B13D194F86A35FF
:102E8000EF2B0FD100231A4640F26C518B4203D036
:102E9000E15C01334A40F7E722B9204613F060FBBA
:102EA000012070BD204613F05BFB002070BD00BF09
:102EB000DC170020024B1A6810431860704700BFEF
:102EC000800B00202DE9F04102780346202A00F112
:102ED0000100F9D0092AF7D02D2A02D10346414D2D
:102EE00004E02B2A08BF03464FF07E551E460024FF
:102EF000334616F8012BA2F13007F9B209290DD893
:102F0000394920460DF0EAF9044638460DF092F9A9
:102F1000014620460DF0DAF80446E9E72E2A17D1DB
:102F2000314F334616F8010B3038C2B2092A0FD898
:102F30000DF080F939460DF085FA014620460DF076
:102F4000C5F82949044638460DF0C8F90746E8E7B0
:102F50001A7802F0DF02452A38D15A782D2A02D198
:102F60000233012604E02B2A14BF0133023300266A
:102F7000013B002713F8012F303AD1B2092903D8B9
:102F80000A2101FB0727F5E7B7F59A7F28BF4FF421
:102F90009A77B8464FF07E51B8F1070F07D9084627
:102FA00012490DF09BF9A8F108080146F4E707F073
:102FB000070737B108460C490DF090F9013F01466B
:102FC000F7E72EB120460DF03DFA04E04FF07E51B8
:102FD00020460DF083F9014628460DF07FF9BDE843
:102FE000F08100BF000080BF0000204120BCBE4C2B
:102FF00070B50646B6FBF2F40846154614B12046F5
:10300000FFF7F6FF05FB1464024B1B5D00F8013B64
:1030100070BD00BFB090010890F85B3210B57BB96D
:1030200090F85A3290F85922934209D201219940DE
:10303000B0F8604201332143A0F86012DBB2F3E73D
:1030400010BD90F862321BB1D1F1010138BF0021EF
:10305000D0F854315A689B6809B1136170475361C5
:103060007047F8B5101A0C461F460DF0E3F80546F8
:10307000381B0DF0DFF8184B079E19680DF02EF97C
:103080002946044628460DF029F9214607462046E0
:103090000DF024F9014638460DF018F810F082F9C9
:1030A0000E490DF01BF90DF0DFFA069B2146186062
:1030B00005F100400FF0D6FF09490DF00FF909495D
:1030C0000DF004F80DF0D0FA0028BCBF00F50C405C
:1030D000A0303060F8BD00BF7C0100202C7D8E3F09
:1030E000A00CB34500A00C4610B50DF0A3F80021CC
:1030F00004460DF0AFFA08B1204601E004F10040AB
:1031000005490DF09FF905490DF0E8F80FF0A6FE0E
:10311000034B186010BD00BF8096184B35FA8E3CEB
:103120007C01002038B50C4DEB7AA3B10B4B1B781A
:10313000042B10D90A4B0B4C18685B682060636045
:10314000FFF7D2FF084B1A88084B1A80084B1B88E0
:10315000A36001232B7338BDE50C00206C230020F5
:10316000201B0020041B0020CE1A00207E1E002001
:103170001C1B002044F25063984203DDA0F50C4074
:10318000A0387047034B9842BCBF00F50C40A030FC
:10319000704700BFB0B9FFFF70B52D4C2D4D607961
:1031A0000DF044F82C490DF04DF92860E07B0DF04E
:1031B0003DF829490DF046F9284E6860EE60A07987
:1031C0000DF034F826490DF03DF9264D2860207C9D
:1031D0000DF02CF820490DF035F96860A07E0DF057
:1031E00025F821490DF02EF9EE60A860E0790DF088
:1031F0001DF81B490DF026F91C4D2860607C0DF070
:1032000015F815490DF01EF96860E07E0DF00EF816
:1032100015490DF017F9164BA8601B7CEE60ABB199
:1032200020790DF003F80E490DF00CF9114D2860CE
:10323000A07B0CF0FBFF08490DF004F96860207ECC
:103240000CF0F4FF08490DF0FDF8A86070BD00BF58
:10325000F0290020501E00200000C8420000FA445F
:1032600000002041601E002000007A441419002054
:10327000E50C0020001900202DE9F0472F4A00231B
:1032800092F82050D47F03FB03F01938684300F60E
:10329000C4105843604340F6C41190FBF1F0284934
:1032A00021F813000133072BEDD192F82110254BA3
:1032B0000A274F43B3F84051B3F8429192F8226085
:1032C000C1F1640C48425FFA8CFCC6F16408C5EB9E
:1032D000090980B2002384B222B2002A04DC002C47
:1032E00014BF0C46012400E0644602FB02FA64436A
:1032F0000AFB06FA9AFBF4F4444454434FF00A0ADA
:1033000094FBFAF43C4424B204FB09F44FF47A72BF
:1033100094FBF2F40C4A2C449C5202335044182B78
:1033200080B2D8D1054BBDE8F0471B78012B18BF00
:10333000064A074B08BF074A1A602DE7F02900200C
:10334000B018002068240020C8180020BDAF000875
:103350005C01002029B200080449054B09680022DD
:1033600018701A615961DA601A76704728240020B3
:10337000DC0F00200A4B1B7883B10A4B9A89988195
:103380001A89D007FCD5074B9889C0B2054B1A891A
:103390009107FBD51A891206FCD47047184670476E
:1033A000120B002000380040054B1B7833B1054B51
:1033B0004FF4805208B15A6170471A61704700BFDC
:1033C000120B0020000C014038B5044601200D46C8
:1033D000FFF7EAFF2046FFF7CDFF2846FFF7CAFFB9
:1033E0000020FFF7E1FF012038BD054B1B78834229
:1033F00004D9044B53F820301B681980704700BF74
:10340000340D0020380D002003280E4B09D80E4A39
:1034100012888A4205D2012202FA00F05A7810433B
:1034200058705B780F2B0BD1064B00225A70074B5C
:10343000198808B2142802DD1439198070471A80DF
:10344000704700BF4C19002040010020C81A00201E
:103450002DE9F34700F12407044638460D46FEF7F0
:10346000FAFF24238DF800304D238DF801303E23E0
:103470008DF802302B7800263846694605228DF8F3
:1034800003608DF8043007F056FD30B19DF804302C
:10349000A4F84A6084F8483008E0A38F2387A38DFE
:1034A000A387AB4B1A780AB904221A702B78772BB2
:1034B00000F03C8200F266816A2B00F0A78400F2E3
:1034C0009C80452B00F0D58718D8422B00F06E87E2
:1034D00009D8402B00F0B587412B08BF002300F02E
:1034E000BC8700F0D8BF432B00F0CA86442B40F0C5
:1034F000D287984B01221A7000F0D1BF662B00F0E2
:103500004D8372D8642B00F02083652B40F0C38775
:10351000914B2046198809F0C9FE904B2046198826
:1035200009F0C4FE8E4B20461B68C3F3C001C3F3F1
:103530008002890041EA4201C3F340021143C3F310
:10354000401241EAC20103F01003194309F0AEFE34
:10355000844A1579D378AD0045EA430553781D4375
:10356000937945EAC305537945EA4315537A45EA09
:1035700083157D4BD97945EAC115197A45EA0125AC
:10358000597A45EA4125D17945EA8125117A45EAFA
:10359000C125117D927A45EA016545EA02355A7BDB
:1035A000002145EA42359A7B45EA82351A7C45EA94
:1035B00002451A7945EA02155A7C45EA42459A7C49
:1035C00045EA8245DA7C45EAC2451A7D45EA02555C
:1035D0005A7D45EA42559A7DDB7D45EA825545EAAA
:1035E000C355624B18780B46C0E2682B00F000848C
:1035F00000F2028420465E49FCE3702B00F06E84EA
:103600003FD86D2B00F0358412D86B2B00F021844D
:103610006C2B40F04087574D2046298809F046FE24
:103620002046698809F042FE2046534B00F028BC32
:103630006E2B00F027846F2B40F02D874F4D2046D6
:10364000E97F0BF015F995F8201020460BF010F9E2
:1036500095F8231020460BF00BF995F8251020461D
:103660000BF006F995F8261020460BF001F995F8B5
:10367000211020460BF0FCF8204695F8221000F0AF
:10368000DDBE732B00F080845AD8712B00F050817E
:10369000722B40F000873A4D2046B5F8981109F09A
:1036A00005FEB5F84011204609F000FE334EB5F88E
:1036B0004211204609F0FAFDB5F84411204609F000
:1036C000F5FDB6F80A11204609F0F0FD95F8AB11AA
:1036D00020460BF0CDF895F8AC1120460BF0C8F859
:1036E00095F8AD1120460BF0C3F895F87C112046F3
:1036F0000BF0BEF895F8A11120460BF0B9F80021A7
:1037000020460BF0B5F8B6F92A100A2391FBF3F125
:1037100089B2204609F0CAFD95F87D1120460BF0CC
:10372000A7F895F87F1120460BF0A2F895F87E11C6
:1037300020460BF09DF8204695F8801100F07EBEE3
:10374000752B00F0DE8300F228840025F0E300BF33
:103750002C2B0020BC1D00203A2B0020140B002035
:10376000800B0020E50C0020AC1A0020FD21002079
:103770008801002050190020CE1A0020F0290020D6
:1037800068240020CF2B00F0598100F29380C82BD1
:1037900000F0D08054D8A02B00F0EC8448D8782BCF
:1037A00000F02C827B2B40F07686964B964D93F85A
:1037B000A01120460BF05CF8B5F82011204609F066
:1037C00075FDB5F82211204609F070FDB5F82411F9
:1037D000204609F06BFDB5F82611204609F066FD7C
:1037E000B5F82A11204609F061FDB5F82C112046E4
:1037F00009F05CFDB5F82E11204609F057FDB5F82B
:103800003011204609F052FD95F83211204609F09A
:103810001DFD95F8361120460BF02AF820460021B0
:1038200009F014FD2046002109F010FD00F02ABE29
:10383000A42B00F0AB84A62B00F0018500F02BBE7A
:10384000CB2B71D009D8C92B00F09180CA2B40F046
:1038500022866E4B03F10A01AFE0CD2B00F04584C8
:1038600000F24D84AB6813F8012BAB60664BDA773E
:10387000AA6812F8011BAA6083F82010AA68511CDC
:10388000A96051780232AA6083F82510AA6812F85C
:10389000011BAA6083F82610AA6812F8011BAA600F
:1038A00083F82110AA6812F8011BAA6083F822107D
:1038B00000F0F5BDD82B00F0558217D8D22B00F0C0
:1038C0002A8107D8D02B00F00784D12B00F0C483C5
:1038D00000F0E1BDD42B00F0B281C0F02F81D62BD7
:1038E00008BF002600F00D8100F0D5BDF12B00F0DF
:1038F000C8810CD8EF2B2FD0F02B40F0CC85424D57
:103900002046E98D09F0D2FC2046A98D9EE2FA2BD3
:1039100000F0FD83FE2B00F00484F22B40F0BB8509
:10392000384B03F17001D6E100265AE0002522E36E
:103930000025ECE20026284602F063FF344B985342
:103940000236102EF7D1334B00221A80324B186802
:1039500006F092FF00F0A3BD284602F052FF2A4E67
:10396000F085284602F04DFFB08500F098BDAB68A9
:10397000284613F8012B294EAB60294BDA72AB684D
:1039800013F8012BAB60274B1A7002F02BFF30604D
:10399000284602F027FF7060284602F032FF224BD3
:1039A0001880284602F02DFF204B1880204B1A79F2
:1039B00042F002021A7100F072BDAA68013312F8D7
:1039C000010B8B42AA605870AA6812F8010BAA601A
:1039D000D872AA6812F8010BAA605875EDD100F0F0
:1039E0005EBD144B1B789E4280F05985124B2846D1
:1039F00016F8038002F005FF034B013603EB880342
:103A0000D864EEE768240020F0290020EF29002088
:103A1000B00D0020C81A0020FC0C0020201B002044
:103A2000E50C00206C2300201C1B00206C1C0020D7
:103A300050190020FD210020E4210020284602F03A
:103A4000E0FE6FF4AF63BC4EC318C62B98BFA6F858
:103A50009801284602F0D5FEA6F84001284602F05B
:103A6000D0FEA6F84201284602F0CBFEA6F844019B
:103A7000284602F0C6FEDFF8E882AB68A8F80A0123
:103A800013F8012B2846AB6086F8AB21AB6813F81E
:103A9000012BAB6086F8AC21AB6813F8012BAB604F
:103AA00086F8AD21AB6813F8012BAB6086F87C215A
:103AB000AB6813F8012BAB6086F8A121AB6801332A
:103AC000AB6002F09EFE0A235843AB68A8F82A00B8
:103AD00013F8012BAB6086F87D21AB6813F8012B3E
:103AE000AB6086F87F21AB6813F8012BAB6086F8DA
:103AF0007E21AB6813F8012BAB6086F8802100F0C3
:103B0000CEBC284602F07DFE8C4B98530236102E18
:103B1000F7D100F0C4BC8A4B5A78002A40F0BF8429
:103B2000AB68002013F8011BAB60834B022994BFE4
:103B300083F8681583F868250146EFE2284602F00D
:103B400060FE804B188000F0AABCE72120460AF0F6
:103B50008FFE794B204659790AF08AFE04212046CF
:103B60000AF086FE2046784900F092BC83420CD2CF
:103B7000764A9E5C012202FA06F62E4218BF9A404F
:103B800003F1010318BF1143F0E7204609F05EFB83
:103B9000694B204693F8681500F050BC6C4B00252B
:103BA000B3F89C306B4EB3F5806F0CD9715F08236E
:103BB00091FBF3F1204689B2023509F077FB062D1F
:103BC000F4D1002507E0715B2046023509F06EFB59
:103BD000062DF8D1F5E7604B2046595B023509F018
:103BE00065FB062DF7D100255C4B2046595B02355D
:103BF00009F05CFB062DF7D100F051BC584D05F1E2
:103C00005006B5F8B810204609F050FBB5F8BA10C8
:103C1000204609F04BFBB5F8BC10204609F046FBE6
:103C200095F8BE1020460AF023FE0A35B5F8B61006
:103C3000204609F03BFBB542E3D100F030BC484ED2
:103C400006F15008284602F0DCFDA6F8B800284628
:103C500002F0D7FDA6F8BA00284602F0D2FDA6F879
:103C6000BC00AB68284613F8012B0A36AB6086F817
:103C7000B42002F0C6FDA6F8B6004645E2D100F039
:103C80000EBC2D4D05F1700695F8D01020460AF0B7
:103C9000EFFD95F8D11020460AF0EAFD95F8D21014
:103CA00020460AF0E5FD95F8D31020460AF0E0FD25
:103CB00095F8D41020460AF0DBFD95F8D510204683
:103CC0000AF0D6FD073595F8CF1020460AF0D0FD52
:103CD000B542D9D1E3E3AA68073312F8010BAA6011
:103CE00083F8C900AA6812F8010BAA6083F8CA0019
:103CF000AA6812F8010BAA6083F8CB00AA6812F830
:103D0000010BAA6083F8CC00AA6812F8010BAA6024
:103D100083F8CD00AA6812F8010BAA6083F8CE00E0
:103D2000AA6812F8010BAA6083F8CF008B42D2D1A7
:103D3000FEF7E6FEB3E300BF68240020561900201A
:103D4000E50C0020FC1A00200C0000C0E42100203B
:103D5000180000202E1C00206E190020741900206D
:103D6000F0290020AB68284613F8012BA04EAB6069
:103D7000A04B83F8A02102F044FDA6F820012846BC
:103D800002F03FFDA6F82201284602F03AFDA6F80F
:103D90002401284602F035FDA6F82601284602F047
:103DA00030FDA6F82A01284602F02BFDA6F82C01CA
:103DB000284602F026FDA6F82E01284602F021FD35
:103DC000A6F83001284602F00DFDAB68284613F82E
:103DD000012BAB6086F8362102F004FD284602F084
:103DE00001FD284602F0FEFC284602F0FBFC56E3EB
:103DF00081492046102287E00025804B2046595BF0
:103E0000023509F053FA102DF7D148E37C4B2046D8
:103E1000D97A0AF02DFD7B4B7B4D197820460AF0AC
:103E200027FD2968204609F011FA6968204609F043
:103E30000DFA764B2046198809F038FA744B204663
:103E4000198809F033FA734B2046598D09F02EFA80
:103E500025E3714B2046198809F028FA6F4B20465C
:103E6000198809F023FA6B4B2046197901F00101FA
:103E7000E4E26B4B2046196809F0E8F9694B2046EB
:103E80001988E3E7684B2046B3F900104FF6FF7539
:103E900081F30801C9B20AF0EBFC644B20461968B3
:103EA000A942A8BF294621EAE17189B209F0FEF9C9
:103EB0005F4B2046198809F0F9F94E4B93F87C21A5
:103EC0005C4B19680029B8BF49420AB10A2359431B
:103ED000A942A8BF2946204689B2B7E7564D05F149
:103EE0000A060135697820460AF0C2FCE97A2046C4
:103EF0000AF0BEFC2046697D0AF0BAFCB542F0D15A
:103F0000CDE24E492046302204F0C4FCC7E24C4BBF
:103F10001B789D4280F0C3824A4B2046EA5C344BBA
:103F2000013503EB8203B3F84C1009F0BFF9EEE75B
:103F3000434B1B789D4280F2B282424B3F4AEB5C7E
:103F40000C2101FB03235E6B0135304612F046FF66
:103F5000314682B2204604F09DFCE9E70C33B3F50C
:103F6000967F07D0384A1A44127A8A42F6D1204600
:103F70000AF07EFC0135324B1B789D4280F08F8227
:103F8000304BE95C0023EDE70125E9B2204601351D
:103F90000AF06EFC092DF8D181E2AB6813F8011B21
:103FA000AB6009B9294B02E0102903D1284B1E68E8
:103FB0005D6801E000252E4620460AF059FC314696
:103FC000204609F043F92946204609F03FF9214BE4
:103FD0002046196809F03AF90021204609F066F9EF
:103FE0000021204609F062F92046002126E200BFA8
:103FF000F029002068240020D6290020B00D0020E0
:10400000E50C00206C230020201B00201C1B00203E
:104010006C1C0020501900206E1C0020701C002019
:10402000E41A0020341C00200C1C0020201C00205E
:10403000C61A0020141C0020EF290020D07E0108A1
:10404000FD210020E4210020007F0108041B002046
:10405000101B0020E01A0020AB68284613F8018BE3
:10406000AB6002F0BFFB8246284602F0BBFB8146F4
:10407000284602F0B7FB0646284602F0C2FB284657
:1040800002F0BFFBAB680133AB60B8F1000F0FD19A
:10409000B24B0122C3F80490C3F800A0B04B83F8E0
:1040A00007801A73002E00F0FA81AE4B1E60F6E115
:1040B000B8F1100F40F0F381AB4BC3F800A0C3F888
:1040C00004900EB1A74B1E60A748A84B0222011D09
:1040D0001A7009F015F9E2E1A14B5B78002B40F072
:1040E000DE81012007F0ACFFD9E19D4B5B78002B0E
:1040F00040F0D5819E4B4FF4C8721A80CFE1984BA7
:104100005A78002A40F0CB8101229A73C7E1944B80
:104110005B78002B40F0BF810020012107F098FE62
:10412000BDE1944B94499A89944B32B10A20B2FB79
:10413000F0F00988821A0A4400E00A889A85904AB9
:10414000904812790068DA858F4A002511688F4AF5
:10415000B1FBF2F1B0FBF2F24FF47A7000FB0122F6
:104160005A868B4B2046595B023509F09FF8082D83
:10417000F7D194E1874D2046296809F067F869680E
:10418000204609F063F82046A96881E17B4E20466D
:1041900096F83490002549460AF06AFBB0464D4532
:1041A00017D27D4E2046715D0AF062FB06F12003B6
:1041B000595D20460AF05CFB06F14003595D20463C
:1041C00060360AF055FB715D20460AF051FB01355F
:1041D000E5E7684B93F8AB31012B40F060816F4A03
:1041E000002392F8B850104688F83450AB4202F1E0
:1041F000010215DA684992F8B86092F8C8E05E5496
:1042000001F1200603F806E092F8D8E001F140063B
:1042100003F806E092F8E86060315E540133E5E7A8
:10422000D0F8FC300022C8F8B830D0F80031302186
:10423000C8F8BC300120134605F070FE2FE1584B42
:1042400020461E684D4D16F0200609D0002108F0CA
:10425000FDFFD5F8BC10D5F8B8302046C91A04E0E7
:10426000314608F0F3FF2046314608F0EFFFD5F85D
:10427000C010204608F0EAFF2046D5F8C41007E138
:10428000AB683C4E13F8012B2846AB6000237271DB
:10429000B36002F0A7FAB368DFF80C911843AB687B
:1042A000B06013F8012B2846AB6086F8942102F029
:1042B000A8FAA6F85601284602F0A3FAA6F8580173
:1042C000284602F09EFAA6F85A01284602F099FA0A
:1042D000A6F87801284602F094FAA6F87A01284652
:1042E00002F08FFAAB68A6F84E0113F8012B2846AE
:1042F000AB6089F82320AB6813F8012BAB6089F819
:104300002420AB6813F8012BAB6086F88121AB68E1
:1043100013F8012BAB6089F8492002F072FAB289D8
:104320008046904213D01F4B2AB148B118684146CD
:1043300006F014FB09E018B118680321424602E0B8
:1043400018680121642206F01FFBA6F80C80AB68F8
:1043500013F8012BAB6089F83020A0E0041B00208B
:10436000E50C0020E01A0020101B0020001B00209C
:104370002E2B0020682400203A2B0020501900200A
:104380003C240020F0090020EC09002040420F00EE
:104390007C190020E0090020851900200010002071
:1043A000800B0020C4170020F0290020504D20462B
:1043B00069790AF05DFAA968204608F047FF95F888
:1043C000941120460AF054FAB5F85611204608F028
:1043D0006DFFB5F85811204608F068FFB5F85A117E
:1043E000204608F063FFB5F878112046414E08F0EA
:1043F0005DFFB5F87A11204608F058FFB5F84E1168
:10440000204608F053FF96F8231020460AF030FAB1
:1044100096F8241020460AF02BFA95F881112046D0
:104420000AF026FA96F8491020460AF021FAA989DE
:10443000204608F03BFF96F8301020460AF018FAA4
:104440002DE000252A4B20462B4493F8821101359C
:104450000AF00EFA082DF5D121E0AA6812F8011B26
:10446000AA60234A1A440133082B82F88211F4D13E
:1044700015E00025204B2046595D01350AF0F8F97A
:104480000B2DF7D10021204608F0E0FE2046002148
:1044900008F0DCFE03E0204629460AF00FFAA28F5E
:1044A000A38D033292FBF3F103FB1123616BB4F88C
:1044B0004A203846CA5494F8481094F84A30594073
:1044C00084F84810FEF72EF8A38D28B1A3876368FF
:1044D000D86906F0D1F907E0A28FA387074B22879E
:1044E0001A780AB904221A7002B0BDE8F08700BF3A
:1044F00068240020F0290020D59001082C2B0020F2
:104500002DE9F04FAE4E85B0B368AE4F13F00808FA
:1045100003D1AD4C4546A14631E0002439E0AB4B18
:10452000E8B21B689847A0F2EE2240F2DC5392B248
:104530009A4288BFA24BD9F8902088BFB3F898015F
:10454000A34B1340002B03DA013B63F00303013359
:104550009D4A03EB850322F8130022886388013506
:104560001344A2880834134434F8022C13441BB2B9
:10457000042293FBF2F327F8083008F1020896F8BA
:10458000AA319D42CBDBD9F890300133C9F8903085
:104590000BE096F8AA319C4207DA8C4BE0B21B681C
:1045A000984727F814000134F3E7B368864C13F4F6
:1045B000804F04D094F894300BB904F04DF996F87C
:1045C000A1217F4BE2B1033237F91200B3F8A251B7
:1045D000B0F57A7003D4A842A8BF284600E00020B6
:1045E0000BF028FE804628460BF020FE0146404690
:1045F0000BF028FF77490BF071FE0CF05BF814E02C
:1046000093F8A40190B1744AD179744A32F8112018
:10461000B3F8A81192B2521A9002B3F8A631801AD8
:1046200090FBF3F000B280F30A0080B2B368A4F804
:10463000AE0013F4024F63D0634B694DB3F8B090F2
:1046400095F80831052253430FFA89F898453ADD69
:10465000644B5A789B46002A35D0594BB3F89831B1
:104660003B807B80BB80B5F80A31FB805E4B1A78BB
:104670009A46032A05D95D4805F078FD03238AF898
:10468000003095F8082195F8093113440522534369
:10469000984513DD9BF812B0BBF1000F0ED104F06A
:1046A000DBF8504B83F800B09AF80030042B05D9A2
:1046B0004F4805F05BFD4C4B04221A70B4F8B23041
:1046C0000133A4F8B23095F80831052253439845D8
:1046D00012DD444D95F80180B8F1000F0CD104F0C3
:1046E000BBF885F80080404D2B78042B04D9404856
:1046F00005F03CFD04232B7009F10109A4F8B090EA
:104700000022B6F89A11B6F89C511346B85E9B0881
:104710008842C4BF63F07F03DBB20232A842B8BF55
:1047200043F04003082AF1D194F8B400264A984295
:1047300005D192F8B500F92804D8013000E0002036
:1047400082F8B50084F8B430B3681D4A13F4804889
:10475000234DB7F906300AD0B2F89811B2F84C21BF
:10476000881A834206DD0A44934206DB02E08B424C
:1047700003DB17E04FF0000814E00023C4F8C43155
:10478000C4F8C831C4F8CC31C4F8C030C4F8C4305F
:10479000EB6C2BB10C4B93F89430002B40F07C83E6
:1047A0004FF00108EB6C43B394F894302BBB0D4BE6
:1047B0005B7813B396F89F31E3B104F04DF81CE039
:1047C00068240020B00D0020181A0020D40D00200D
:1047D0000300008000C07F44440B00204C0B0020ED
:1047E000F0290020E50C002060010020388001083D
:1047F0004B800108B8F1000FDFD194F8B5208C4B45
:10480000142A40F0A6808B4A50789146C0B1EA6CD9
:104810002AB993F8B4305F2B01D104F01DF896F853
:104820009E31002B00F09580EB6C002B40F09180C6
:1048300094F8B4307D2B40F08C8004F00DF888E0C3
:1048400093F8B420572A15D17B4B4FF47A721A8013
:10485000B368DB0501D5FEF765FC784B1B6858078C
:1048600002D5774A0A21118013F0080334D1A4F845
:10487000B63031E0B168490725D55A2A23D193F8DB
:10488000B8202AB1012283F8B80083F8B92023E0C8
:1048900093F8BA20DFF8C0A182F0010283F8BA20B1
:1048A0009AF8003032B10A2B16D9664805F05EFC42
:1048B0000A2305E00B2B0FD9634805F057FC0B23A7
:1048C0008AF8003008E05D2A00F0EE825B2A00F0F2
:1048D000ED825E2A00F0EC82EB6C33B994F8B420E0
:1048E0006F2A02D10AF00CFE15E096F89E2122B143
:1048F0001BB994F8B4307E2BF4D094F8B430972BD5
:1049000004D1524B4FF4C8721A8004E0A72B04BFA5
:10491000012389F80E3094F8B430BB2B02D1EB8D13
:10492000023303E0B72B03D1EB8D023BEB8509E0AB
:10493000BE2B02D1AB8D023303E0BD2B09D1AB8D71
:10494000023BAB850120014607F082FA002384F880
:10495000B530B068420731D594F8BA20344B8AB1EB
:10496000344A527872B13A4AB7F90610B2F89A212D
:10497000914207DD93F8942022B93221A3F8BC10AC
:1049800083F8BA2094F8A520294B62B193F8BE2091
:104990002AB993F8B82012B93222A3F8BC20012317
:1049A00084F8BE300AE093F8B8203AB1214A527830
:1049B00022B983F8B820012283F8B920254B0021C1
:1049C00093F8149001220B464B4547DA07EB430559
:1049D0002D8940F2A46A0FFA85FCD44502F1010B3F
:1049E000D4BF4FF0000A4FF0010A0AFA0BFA40F266
:1049F000135BDC454FF0030B0BFB03FBA5F21555D6
:104A0000ADB2CCBF4FF0000C4FF0010CB5F5C77F35
:104A10000CFA0BFC8CBF0025012595404AEA0C0CD2
:104A20004CEA050C41EA0C0101330332CCE700BF2C
:104A3000181A0020E50C0020BE170020800B002073
:104A4000C01700204E800108538001082E2B002043
:104A5000682400209C0B00206001002000239D4D55
:104A60009D4A05EB8309D9F84C9002F1940C11EAA8
:104A7000090F0CBF4FF000094FF0010903F80C902B
:104A80000133192BA946EAD192F8AC30934D2B751E
:104A900023B1012382F89F3082F8963094F8953044
:104AA0008F4A53B98C4B4FF0050CB3F9B01099F8FD
:104AB00008310CFB03F399421DDD11688B071AD5F1
:104AC000EB7843B9C4F8C030C4F8C430834B4FF01E
:104AD000010C83F803C0000410D599F808314FF099
:104AE000050C0CFB03F3B4F9B000984206DD89060F
:104AF00004D5012301E00023EB70AB7494F89630E9
:104B000075495BB10023EB702B7943B9C1F8C03014
:104B1000C1F8C430714B0121197100E02B7194F878
:104B200094300BB901232B7095F803C06D4BBCF189
:104B3000000F02D16949097911B11021596101E0D1
:104B40001021196111684B0725D594F89720624B05
:104B50009AB1A87990B9614A4FF0010A82F806A08B
:104B6000D3F8CC20C3F8DC00C3F8C820B3F8D820B1
:104B7000C3F8E000A3F8D02000E0AA71B36898045D
:104B800009D594F898302BB1EB7B23B9534B012214
:104B9000DA7300E0EB7311F00A0F20D094F899302B
:104BA0004D4A4BB16B7943B94C4B01205871B2F867
:104BB000B630A2F8E43000E06B7194F89A302BB173
:104BC0006B7A23B9454B01225A7200E06B7294F85C
:104BD0009B20414B1AB1B3F8B620A3F8E620890612
:104BE00040F1F280EA7A3D4B002A00F0E8803E4A2C
:104BF0001278042A40F2E38094F9E82032B11A795D
:104C000022B9BCF1000F01D10122DA7094F89E2084
:104C1000314BDFF8DCA01AB9AA7CDFF8C0B0CAB10A
:104C2000EB79DFF8B8B0002B40F0B7802F480122B5
:104C3000011D8BF808308AF801308BF807200192AB
:104C400008F05EFB022384F8E830B4F80431C4F8BD
:104C500000313BE08BF8072093F89F20002A49D0D1
:104C6000B3F9D210B9F81C210029B8BF49429142CA
:104C700040DAB3F9D4100029B8BF4942914239DA79
:104C80009BF80820002A40F08880D3F808114FF0E4
:104C9000010CC3F8F810D3F80C1103F1F800C3F8B5
:104CA000FC1003F1FC018BF808C08AF80120039383
:104CB000CDF808C0019208F023FB039BDDF808C083
:104CC000B3F8041183F8E8C0C3F80011019A8BF817
:104CD000132062E0F0290020181A0020E50C0020C3
:104CE000800B0020000C01406C230020041B0020DE
:104CF000600100209AF8011000232B7200294CD18A
:104D0000764B01225A708C46754B002203F5887051
:104D10002CF8002003F58B702CF8002003F58D7023
:104D20002CF8002003F5907B002041F80B008B4409
:104D3000CBF80420CBF8080003F5A47B41F80B0066
:104D40008B44CBF80420CBF808000CF1020C03F5DF
:104D5000B87B41F80B00BCF1040F8B44CBF8042066
:104D6000CBF8080001F11401CED1297C11B9002340
:104D7000EB7412E0C3F89801C3F89C01A3F8A021DA
:104D8000A3F8A221A3F8A4215649002353520C31C1
:104D9000535202320A2AF7D1E9E79AF800300C2B75
:104DA00012D994F8BE317BB94F4805F0DFF94B4B6F
:104DB0000C221A704A4B012283F8BE2104E0002322
:104DC000EB712B7284F8E83094F8A0302BB1AB7CF7
:104DD0001BB9464B01229A7201E00023AB72297C79
:104DE000424B31B3B26800209205587221D599F830
:104DF00008214FF0060909FB02F2B4F9B0C094454E
:104E000017DD0122DA703A4A9872B2F8980182B23C
:104E10003A807A80BA80374AB2F80A21FA80DA7A80
:104E20003AB9354F3F78052F03D89A74334B32384F
:104E30001880B2682E4BD2064BD56A78002A48D02B
:104E4000002946D1B8F1000F1FD02D49D4F8C02158
:104E500009684AB993F876314FF47A7202FB03126B
:104E60001F4BC3F8C02106E08A4204D293F8763182
:104E70000BB103F0F1FC194C2378092B29D92148F7
:104E800005F074F90923237023E0D4F8C03103B38B
:104E9000134BC3F8C0811CE0144B1B78002B3FF46C
:104EA0007FAC0AF02DFB7BE4012202E0022200E04D
:104EB00003225FFA82FA00200AF1FF33014686F8E6
:104EC000683506F0C5FF02202821524606F050FF43
:104ED00002E5002005B0BDE8F08F00BF60010020B2
:104EE000181A0020BE1B00205A800108E50C002083
:104EF00068240020F02900206C230020B00D002041
:104F0000282400204B8001082DE9F04F7A4C87B00F
:104F1000A3689B0740F19580784D794B06221F8846
:104F20002B681F442B792F600133DBB2B3FBF2F601
:104F30002B7102FB163313F0FF0667D1DFF80C92DA
:104F4000D5F808A099F80130DFF8048250464FF0F8
:104F5000785138F813B00BF0C1F9014650460BF008
:104F6000B3F81FFA8BFB824658460BF063F965498C
:104F70000BF0B4F964490BF065FA834694F87D01AF
:104F80000BF058F9014658460BF0A8F90146504677
:104F90000BF09CF84FF07851A8600BF09FF90BF0E4
:104FA00089FB94F88131A88183B399F80530B4F86E
:104FB000781138F8132040F6E44392B25A4340F691
:104FC000FF73B2FBF3F2B4F87A312869D21A4FF4C6
:104FD0007A735A43B2FBF1F2082190FBF1FECEEB5B
:104FE000000002442A6192FBF1F25743D5E9060121
:104FF00097FBF3F3C01841EBE3716A61C5E9060161
:10500000424A00230BF076FB2E602862404AAB89AF
:1050100012889A4208D33F4D2B78012B11D93E4874
:1050200005F0A4F801230BE03C4A12889A4208D309
:10503000384D2B78022B04D9394805F097F8022314
:105040002B70384E737B5BB3324D2B78082B27D9EE
:10505000A368DF051FD5344BDB7AE3B1334B1878F7
:10506000042818D90023324905275A185F540F27FE
:105070005770122B03F10207FAB204D0B0EB520FB3
:105080003B46F0D800E014220A4464235370F02316
:105090009370274800E0274805F068F808232B7034
:1050A000254B1A881AB1254B1B68980707D4244B47
:1050B0001B8823B9234B1B780BB107F0BFFC224B95
:1050C0001A7832B10D4C94F82430002B00F015837F
:1050D000C3E2A268084B1105F4D51A4A1278002AD7
:1050E000F0D093F8BB21002A3AD193F8BC318BBBA6
:1050F0000D4B5B782FE000BF68240020001C0020CF
:105100003A2B00203333534000F07F45407E0500AA
:10511000560B00206001002075800108540B002010
:1051200078800108AC1A0020E50C00206C230020D8
:10513000E81B0020698001082E2B0020800B002036
:10514000BE170020BC170020382B0020440B002085
:105150004C0B0020337D003318BF0123002BB1D04E
:1051600094F8BA31002B40F06A81C44BD868FDF73F
:1051700085F9002840F06381C14AC24D1368A96ACD
:10518000591A7C2940F25B81AB6295F82C300746B6
:10519000013385F82C3007F12400BA4EC0B204F078
:1051A00091FF06F12E0333F917000BF043F8B64BCD
:1051B0008046B3F89C000BF03DF8014640460BF0EA
:1051C00041F9B2490BF08AF80BF04EFA013700B200
:1051D00004F0A4FF032FDED1302004F073FFB6F9F2
:1051E000340004F09BFF04F07BFF96F82C0010F0D5
:1051F000030828D1102004F065FFB36B642793FBEC
:10520000F7F000B204F08AFF212004F05BFFB36BDB
:1052100093FBF7F007FB103787EAE770A0EBE77026
:1052200000B204F07BFF142004F04CFF984BB3F95C
:10523000000004F073FF1C2004F044FF404604F01B
:105240006DFF04F04DFF95F82C308E4E5A0740F05C
:10525000D080022004F036FFB6F93C000A2790FB0C
:10526000F7F004F05BFFA3689B075FD5B3894FF0AD
:105270006E0808FB03F8152398FBF3F81FFA88F86B
:105280003A204FF0640904F01DFFB8FBF9FB0FFA58
:105290008BF004F043FF3B2004F014FF09FB1B805C
:1052A00080B20530DFF8F88190FBF7F000B204F02F
:1052B00035FF98F80030B28940F6340192FBF3F2E2
:1052C0004A432A21B2FBF1F2F18F062091FBF3FB56
:1052D00003FB1B1B4FEA0B1B1FFA8BFB4BEA022B3A
:1052E0001FFA8BFBC2F303224BEA020B04F0EAFE27
:1052F0000FFA8BF004F012FFF28F98F800300132B1
:1053000092B292FBF3F103FB11232820F38704F000
:10531000D9FE706990FBF7F000B204F0FFFE0420A4
:1053200004F0D0FEB6F9200004F0F8FE594B1B68DB
:1053300098065CD5584FDFF86C813B68574E002BC0
:10534000B8BF5B4293FBF8F106FB01334FF03C0919
:1053500009FB03FA1320039104F0B4FE03996422BD
:105360009AFBF8FB02FB01B000B2039204F0D6FEF8
:105370001B2004F0A7FE06FB0BA34FF47A7B93FBE4
:10538000FBF000B204F0CAFE232004F09BFE386854
:105390000028ACBF4E20532004F0C0FE7B681220D2
:1053A000002BB8BF5B4293FBF8FA06FB0A3309FBFC
:1053B00003F904F087FE039A99FBF8F802FB0A80D0
:1053C00006FB089800B204F0A9FE1A2004F07AFE49
:1053D00098FBFBF000B204F0A1FE222004F072FE64
:1053E00078680028ACBF4520572004F097FE04F0F1
:1053F00077FE95F82C30282B21D1224B002283F800
:105400002C201F4A4FF47A7317683C25B7FBF3F73B
:10541000172004F057FEB7FBF5F6B6FBF5F005FBD9
:105420001060000200B204F079FE182004F04AFE79
:1054300005FB167000B204F071FE04F051FE94F802
:10544000BA31012B7FF43EAE0C4CE068FDF716F844
:1054500000283FF437AEE468636B23B19B682046B5
:105460009847054636E0A368201DEBB10DF1170102
:105470009847003018BF01202BE000BF9C0B002094
:1054800028240020001C00201800002000007A447E
:10549000CE1A0020800B0020201B0020806967FFAF
:1054A0001600002080969800E2697AB101210DF182
:1054B000170004F03DFE0546E069FCF7EAFF638D46
:1054C000834205D8206A05F0D7F901E0104600E0D4
:1054D0002846C5B20520FDF705FA8A2D31D08E2D5C
:1054E000B2D1AF4C00212E2204F1720011F0F2FA79
:1054F0007C2384F87230E02384F875307D2384F8AF
:105500009E30A38984F87350DAB21B0A84F8913074
:1055100084F88730142384F88A3084F88B304FF471
:10552000FA73A4F88C304823A4F89430782384F8D4
:10553000902084F8862084F8963004F172002E21A1
:1055400088E0984B1B6899067FF57EAF944C00214C
:1055500004F140002C2211F0BDFA7C2384F8403085
:10556000A02384F843307D2384F86B308E4B84F87D
:1055700041501B7884F85A308C4BDB7A002B64D076
:105580008B498C480A688C4E92FBF0FC5FFA8CFCCD
:1055900006FB0C2706256F43662384F86930D30F7A
:1055A00084F8493042F21073B7FBF3FE03FB1E7719
:1055B000496884F84C7091FBF0F03F0AC0B284F85F
:1055C0004D70CF0F06FB00116943B1FBF3F503FBF0
:1055D000151384F851301B0A84F85230B4F86C303B
:1055E00064225FFA8EFEE9B202FB0CEE02FB0011B0
:1055F000B3FBF2F224235A43B4F86E301FFA8EFE46
:1056000084F853301B0A84F854306C4B89B21B88E1
:1056100092B284F855301B0A84F85630B4F87030D2
:1056200084F84AE084F84F104FEA1E2E090A84F8E5
:105630004720120A84F84BE084F84E7084F850102A
:1056400084F8482084F85C3002E0202384F8693034
:105650005B482C2103F002FEF6E6D4F8A8200023D4
:1056600084F8243013629362D362C4F8A830554B97
:105670001E68554B1D78002D3FD101272946642215
:1056800004F5AC701F7011F025FA84F858710720EA
:10569000009529464D4A04F5AC7305F09DF804F5D4
:1056A000AC77C4F8800108B1494B0360802004F056
:1056B000CDFC3B4DC4F87C01F8B1331DC5F8783101
:1056C000444B7762F362444B01203363202110F096
:1056D000FFFEC5F8880118B9404B03221A700CE090
:1056E000202385F887313E4B3E48C5F8B0313E4B0C
:1056F0000021C5F8B43104F049FD94F8BC3123B160
:1057000009F048FF394A3A4BDA603A48D0F8843019
:105710000BB139499847394A224D138813B12B6888
:105720009A0702D4364B1B8813B1FDF79BF90AE0A8
:105730001E4B9A7812B1334A082111615B7813B17C
:10574000304B08225A6194F8BD3123B1144A013B11
:1057500082F8BD310BE0154B5A7B1AB99A70FDF7F0
:1057600081F901E001229A70092384F8BD312B6888
:105770009B0610D594F8BE3123B1094A013B82F84B
:10578000BE3108E0084B1B78042B01D9FDF761F905
:10579000022384F8BE31002007B0BDE8F08F00BFBF
:1057A000001C0020800B00206C230020E50C002052
:1057B000201B0020A08601006079FEFF1C1B00203A
:1057C000401C00209C0B0020382B00203F76000856
:1057D000B0910108FDAC0008C5B400082C2B0020D6
:1057E00080800108B9910108B49101080400FA050C
:1057F00000ED00E0180000203C1C00202E2B0020B3
:10580000BE170020000C01402DE9F0410F468AB080
:105810000546002844D1A048294604F0B7FC9F481B
:10582000294604F0B3FC9E4C94F9D2300BB99D4844
:105830002DE1013500209C492A4604F0C5FC94F86E
:10584000D02000209949013204F0BEFC94F8D12008
:1058500000209649013204F0B7FC94F9D2200020D0
:10586000924904F0B1FC94F8D32000208F4904F051
:10587000ABFC94F9D42000208C4904F0A5FC94F9E9
:10588000D5200020894904F09FFC94F8D620002000
:10589000874904F099FC102D04F10704C4D1C6E730
:1058A0000E688449304611F077F9044670B9824891
:1058B0002146702211F00EF92346804A00211A4435
:1058C0000A33502BA2F8C010F7D152E130467C4980
:1058D00011F062F9044600283ED1012D40F34781C2
:1058E0000646784B53F8265015B9774829468DE07F
:1058F0007868294611F050F901360028F1D1684B3B
:1059000003F170021C46002083F8D60083F8D20011
:1059100083F8D10083F8D00007339342F3D16B4A68
:1059200012F83630984211DA0723434302EBC602DD
:105930005768E1183B441F6801F1D002C1F8D070EC
:105940009988013091809B799371E8E70020604944
:105950002A4604F039FC05E130465E4911F01CF995
:10596000044608B1002487E05B4B012D93E8030057
:105970008DE8030001D0264642E05848214604F055
:1059800005FC5748214604F001FC2546013500205E
:1059900054492A4604F018FC0C2DF7D14148002147
:1059A00004F0F4FB0025013500204F492A4604F09D
:1059B0000BFC424B0A2707FB05370026B7F8B63029
:1059C0004A4A334113F0010F494B4FF0000018BF12
:1059D0001A464849013604F0F7FB0C2EEED1314847
:1059E000002104F0D3FB082DDDD1C2E0032E10D03E
:1059F00057F826000DF0F8F802AB43F82600013600
:105A0000AE42F3DB032E04D03B48002104F0BEFB82
:105A1000AFE0029A013A072A1BD8039B013B0B2BEC
:105A200017D80499481C01D0012912D1013123490A
:105A30004FF00A0000FB02124FF0010101FA03F3DC
:105A4000B2F8C0100CBF0B4321EA0303A2F8C03028
:105A500003E02A48002104F099FB69460220FFF781
:105A6000D3FE86E0082C0DD057F824000DF0BCF8CA
:105A700002AB43F824000134AC42F3DB082C01D024
:105A80001F4804E0029B013B0F2B3BD91B48002120
:105A900004F07CFB00246CE0179401087C9401085E
:105AA00068240020D59D0108DA940108E0940108DB
:105AB000099B0108E494010838250020F029002002
:105AC000EA940108F0820108EF9401084C7801087B
:105AD0000795010859A20108E48101081A950108F7
