:020000040800F2
:10000000005000203D2B0108DD2B010895F300086E
:10001000DD2B0108DD2B0108DD2B010800000000AD
:10002000000000000000000000000000DD2B0108BF
:10003000DD2B010800000000DD2B0108FDF10008A8
:10004000DD2B0108DD2B0108DD2B0108DD2B01086C
:10005000DD2B0108DD2B0108DD2B010811E800086C
:10006000DD2B0108DD2B0108DD2B0108DD2B01084C
:10007000DD2B0108DD2B0108DD2B0108DD2B01083C
:10008000DD2B0108DD2B0108DD2B0108DD2B01082C
:10009000DD2B0108DD2B0108DD2B01080DE8000830
:1000A000DD2B0108DD2B0108DD2B0108FFE700082F
:1000B000F5E70008E9E70008DDE7000891F300082C
:1000C00089F300088DF3000885F30008DD2B010893
:1000D000DD2B0108A5F1000849F10008E5F0000852
:1000E000DD2B0108DD2B0108DD2B010800000000DD
:1000F0000000000000000000000000000000000000
:0C01000000000000000000005FF808F1A3
:100110002DE9F04F7E4C9DB023780590062B01F21F
:10012000B086DFE813F00700170017001700A404DB
:100130002F06BA0A774B1B682BB9774B4FF47A70AE
:100140001B68584300E09847059E744A336A306242
:10015000C31A138023786E4D012B1E4600F0EA80EF
:100160001DD3022B40F063846A4B6D4F1B68984788
:10017000D5F880300646C31A1846049310F09EF84E
:10018000684B0790596910F0F1F897F83130C5F8CD
:1001900080600026089006933546B246BEE1614B6A
:1001A000A81C9B68984705F10208002800F05984B4
:1001B0005D4B05F1500A1A889946002A00F0998093
:1001C000002708353E46B9F800B0584BBBF57A7F9A
:1001D000CDF810B007D10A20A3F13C0100FB0611B5
:1001E0000022DA510A61DA5938F906000244DA517C
:1001F00010F068F82B690133012B2B6104D1002327
:1002000068602860AB602AE0D5F800C001936146C1
:10021000CDF80CC002900FF09FFF019B834618465B
:1002200010F050F80146584610F054F9DDF80CC0B3
:10023000014660460FF092FF029A03461946686035
:10024000104601930FF088FF0146584610F08EF8D3
:10025000A9680FF083FF019BE8602B60A860049AF7
:100260000023012A28F806302AF8063034D12869FC
:10027000012807DD013810F025F80146E86810F084
:1002800029F900E0002013F089F8294B834693F800
:10029000660190B110F016F80146584610F022FAA7
:1002A00058B14FF47A73A9F800300023A361E362D8
:1002B0002364E364A36463640EE01C4B4FF47A721E
:1002C000FB580A2003F5FA7393FBF2F32AF8063081
:1002D0000F2101220DF0F4FF0236062E07F104076C
:1002E00005F114057FF46FAFB9F80030013BA9F8B0
:1002F0000030002338F803003AF80310044A411A8A
:1003000028F803100233062BF4D101F0AABD00BF78
:1003100018180020740900205C2500206E2C002095
:10032000242B0020300B0020FE1700205C1800203A
:100330009C2500209A4B05F156001B6A98475635BC
:10034000002800F08E83974F974E3888002844D0BD
:1003500000231A46DFF87C82B0F5C87F04BF002175
:1003600048F8021035F9039058F80210DFF868C217
:10037000494448F80210002106EB0309E952023310
:10038000062BDFF82482A9F86A1102F10402E1D1F8
:1003900001281FD1DCF85C304FF4C872C83393FBDE
:1003A000F2F3A8F86A31DCF86030C83393FBF2F35B
:1003B000A8F86C31DCF86430C83393FBF2F27B4B65
:1003C0001B88D21A7A4BA8F86E219985D9850146E7
:1003D0000DF097FF3B88013B3B80B268724B5207A0
:1003E00077D574490A888846322A13D1B3F86A113E
:1003F000A4F86810B3F86C11B3F86E31A4F86A1061
:10040000A4F86C306A4B998DDB8DA4F86E10A4F8BB
:10041000703001E0002A3DD000231946322A664F91
:1004200004BF0020785035F903C0785860447850F4
:10043000002006EB030CE8520233062BACF86A01ED
:1004400001F10401EAD1012A1FD15C4B5C4D187007
:100450005C4B1A702B780A2B04D95B4805F05EF8C8
:100460000A232B70B4F86830B4F86E20A6F86A310D
:10047000B4F86A30A6F86C31B4F86C30A6F86E3176
:100480004B4B9A85B4F87020DA85B8F80030013B00
:10049000A8F800304D4A1378DBB10023616F137068
:1004A000322291FBF2F1A6F86A11A16F91FBF2F1F1
:1004B000A6F86C11E16F91FBF2F23C490888121A20
:1004C000A6F86E2101203A4A01469385D3850DF0A6
:1004D00018FFB4F85620B6F86A31D31AA4F856308B
:1004E000B4F85820B6F86C31D31AA4F85830B4F8E0
:1004F0005A20B6F86E310226D31AA4F85A30B0E268
:1005000009F1540935F8092028F80520304A043645
:10051000AA5E0235062D02FB02AA61D0DFF8BC906C
:100520000DF1400B39F905000FF0CCFE08990FF0E2
:100530001DFF069A4BF80600DFF89480002ADFD0F2
:1005400010460FF0BFFE01464FF07E500FF0C2FF85
:100550000246114609F1820B4FF07E5002920FF0D5
:10056000FBFD56F80B100FF001FF09F1540984460A
:1005700039F90500CDF80CC00FF0A4FE029A11461F
:100580000FF0F4FEDDF80CC0014660460FF0E6FD0A
:100590004BF8060010F0B0F828F80500B6E700BFE9
:1005A000300B0020622C00209C25002078000020C9
:1005B000242B0020041B00208C180020061B002088
:1005C00094000020001B00206E800108011B002009
:1005D0005E1C002074180020181800201A18002033
:1005E000B14A6425128805FB0AF3524393FBF2F5E6
:1005F000493DAE4810A9ADB20BF038FE3B2D6ED987
:10060000AB4BD4F89850B3F900000FF05BFE0146F5
:1006100028464FF0010610F065F800B90646A54BD4
:100620002946D4F894005E7312F018FD0646C4F80B
:100630009C00D4F89000D4F898A000F10045D4F8BC
:10064000940001460FF092FE5146814650460FF04D
:100650008DFE014648460FF081FD12F09FFE0146D7
:10066000284612F0FBFC0546C4F8A00030460FF007
:10067000E9F989A3D3E900230FF038FA0FF018FD48
:1006800012F01EFCDFF85092A9F8000028460FF087
:10069000D9F981A3D3E900230FF028FA0FF008FD60
:1006A00012F00EFC844BA9F802001B681B0764D5EE
:1006B00010A982480BF0DAFD814B4FF0000BB3F824
:1006C00064010FF0FBFD4FF07E5182460FF046FDB6
:1006D00001464FF07E500FF0FDFE81462DE0784B35
:1006E0004FF00009B3F862010FF0E8FD4FF07E51C2
:1006F00006460FF033FD01464FF07E500FF0EAFE44
:100700000546DFF8A8A130465AF819100FF02EFE62
:100710006C4B834633F909000FF0D4FD014658466F
:100720000FF01CFD29460FF021FE4AF8190009F1CF
:100730000209B9F1060FE4D162E7604B504653F865
:100740001B1001930FF012FE5F49024631F90B00B6
:1007500002920FF0B7FD029A014610460FF0FEFC20
:1007600049460FF003FE019B43F81B000BF1020BFF
:10077000BBF1060FE1D118463FE0DFF850A110A908
:1007800050460BF073FDDAF80000DAF80430014649
:10079000DAF8089001930FF0E9FD019B83461946B2
:1007A00018460FF0E3FD014658460FF0D7FC4946C6
:1007B000834648460FF0DAFD014658460FF0CEFC5E
:1007C00012F0ECFD002181460FF064FFA0B9DAF8C9
:1007D000000049460FF07EFE4946CAF80000DAF8EC
:1007E00004000FF077FE4946CAF80400DAF8080062
:1007F0000FF070FECAF8080034480BF0EFFD344BE0
:100800003449188007980FF0B1FD314B814606F14D
:100810000046B3F9000005F10045139614950FF05A
:1008200051FD00F100400FF00DF91DA3D3E90023A5
:100830000FF05CF90FF03CFC1590B8F900000FF0D8
:1008400041FD1690B8F902000FF03CFD1790B8F981
:1008500004000FF037FD13A9189016A80BF006FD41
:1008600097F84830012B39D1124B5B7873B9D4F823
:10087000B030402093FBF0F0181A0FF023FD1899C8
:100880000FF06CFC0FF038FFC4F8B000D4F8B030B3
:10089000402093FBF0F023E03B597E90A9E7814094
:1008A000399D52A246DF913F78000020A818002011
:1008B000980B0020F50C0020900B0020BC180020A5
:1008C0009C2500205E1C0020A4190020840000202C
:1008D000FE1A0020BD37863580190020B84B1888D5
:1008E0000FF0F0FC014618980FF036FCB54B18904D
:1008F000196848460FF032FC014648460FF0EAFD01
:10090000D4F8B4608046314618980FF025FC0146B3
:1009100040460FF02BFD014630460FF01FFC064607
:10092000C4F8B4001698D4F8B88012F0C9FA97F851
:1009300033100BF0CDFD4044C4F8B8001798D4F83C
:10094000BC8012F0BDFA97F833100BF0C1FD4044A3
:10095000C4F8BC003046D4F8C08012F0B1FA97F861
:1009600032100BF0B5FD984B049E1A684044324497
:100970001A60D4F8C430954D0133C4F8C43097F8E8
:10098000B630C4F8C000002B4FD0D5F89000D5F891
:10099000948001460FF0EAFC4146074640460FF0BE
:1009A000E5FC014638460FF0D9FBD5F898600746BC
:1009B000314630460FF0DAFC014638460FF0CEFBE8
:1009C00012F0ECFC014630460FF084FD80490646EB
:1009D0000FF074FE18B10023A5F8C83025E03046AA
:1009E00012F0EAFA7B4B19680FF0C0FC12F068FABB
:1009F000B0F5617FA8BF4FF461700FF011F86EA3DE
:100A0000D3E900230FF09CF90FF052FB12F096FA95
:100A1000714B064693F8B6000FF054FC31460FF0C8
:100A2000A5FC12F04DFAA5F8C800032619E06B4B9F
:100A30005B79012B6A4B0DD1B5F9CA10B5F90620C7
:100A400002EB4102032192FBF1F292B29A80A5F8E7
:100A5000CA2001E0EA889A80628804261A80A28867
:100A60005A80059F012326707B7001F00ABA5D4B06
:100A70005D4A197C584BA1B9B2F906101A8D914202
:100A80003CDBB1F5FA6F93F8264007DA891A4C433C
:100A9000A2F5FA6294FBF2F4643430E0C4F1640429
:100AA0002DE0B2F906101A8D91420FDB4F4AB2F9D0
:100AB000061093F82620914208DDB1F5FA6F02DAAC
:100AC000891A4A435212C2F1800200E0802248494A
:100AD000B1F90210142909DD93F82600B1F5967FCB
:100AE000A8BF4FF496714143A2EB212293F8264010
:100AF000C4F18004A242A8BF144600E06424374A2F
:100B000093F8B050B2F8989192F95C2193F8B160E3
:100B1000524293F8253092B200212F480792CDF827
:100B2000189008930A46304BDDF818A0CB5E40F2CF
:100B3000E6370493CAEB030303F2F31CBC4503D866
:100B4000002BB8BF5B4201E04FF4FA73022ADFF8D2
:100B50009C8051D025B1AB42CCBFC5EB0303002331
:100B60006427DFF868A093FBF7FC0AEB4C096FF0F1
:100B7000630B0BFB0C3BB9F8CC900AEB4C0CBCF9AB
:100B8000CEA00FFA89FCCCEB0A0C0CFB0BFC9CFBF7
:100B9000F7FCCC4428F801C090F823C003FB0CFC00
:100BA000144B9CFBF3F33B449BB2634393FBF7F77B
:100BB00039E000BFAFF30080A2EB0FE5DD169640F1
:100BC00078000020A40B0020682C002018180020BA
:100BD0008FC2753CA00B0020242B00209C250020F8
:100BE0009E190020F50C0020C00D00201A1B0020CB
:100BF000801900200CFEFFFF26B1B342CCBFC6EB2C
:100C000003030023DDF81CB0DDF820C003FB0BF765
:100C1000002BB8BF5B4203FB0CF3A8F80470B64F7F
:100C200093FBF7F76437B54B90F80B90134493F8A8
:100C3000018007FB09F907FB08F86423DFF8F8C215
:100C400098FBF3F802F80C8099FBF3F90CF1030818
:100C500002F8089090F815800CF1060C07FB08F7D5
:100C600097FBF3F702F80C70049B069FBB42A44F5E
:100C700002DA7B5A5B427B520132032A01F1020104
:100C800000F101007FF44FAF9E4BB3F906209E4B5D
:100C9000B3F89A319A4205DBB2F5FA6FA8BF4FF468
:100CA000FA6200E01A46D21A4FF47A714A43C3F549
:100CB000FA63B2FBF3F36425944A93FBF5F102EB7C
:100CC00041006FF0630606FB0133B0F8E40002EB6D
:100CD0004101B1F9E66001B2711A4B4393FBF5F59E
:100CE0008B4B28445B7A864CF8809046002B44D08E
:100CF000884BB3F90000884BB3F90030C01A0EF0EE
:100D00008FFE7BA3D3E900230EF0F0FE0022834B7D
:100D10000FF016F80FF0CCF9054612F09BF80646D6
:100D2000284612F00BF90546B4F902000FF0CAFA92
:100D30000746B4F900000FF0C5FA314681460FF0BE
:100D400015FB2946824638460FF010FB01465046F7
:100D50000FF002FA0FF0D0FC3146208038460FF039
:100D600005FB2946064648460FF000FB0146304683
:100D70000FF0F4F90FF0C0FC6080052388F8003014
:100D800000F087BC664BDFF874911A6812F0080512
:100D900039D05B4988880F4600F145039BB28A2B06
:100DA00060495C4B2DD85A4E96F805C0BCF1000F37
:100DB00027D0B3F800C00B88767BC3EB0C0189B257
:100DC0008BB20FFA83FC1CF1B30FBCBF01F5B473F7
:100DD0009BB219B2B3294C49C4BFA3F5B4739BB2FB
:100DE00091F85C117EB149B249424B4399F8091020
:100DF0001BB24B436FF01D0193FBF1F31844B88015
:100E000001E01B880B80570740F1A380404B997984
:100E1000002900F09E801E7C394B002E40F090800F
:100E200099F8B300404F99F8B21068B3B3F806C010
:100E3000B7F900000FFA8CF7C0EB0708B8F1000F04
:100E4000B8BFC8F10008884510DD8742DFF8EC80A4
:100E5000C8BF4942C8F800601FFA8CFC4FF0010679
:100E6000C8BF89B284F8FC6061443FE094F8FC108C
:100E700031B12E490F682E490F60244981F8FC607A
:100E80002C490968084426E0B7F90060B3F90670F8
:100E9000BF1B87EAE77CACEBE77C8C450ADD0221CF
:100EA00097FBF1F70121C4F8007184F8041184F86C
:100EB000FC100DE094F8FC7014494FB11B4F81F801
:100EC0000401D7F800C01A4F81F8FC00C7F800C031
:100ED0001849086830440C4EB6F84011B6F8426123
:100EE000884203DBB042B4BF01463146D98030E0CE
:100EF000182D4454FB2109400CFEFFFF242B002039
:100F00001A1B0020C00D00209C250020181800206E
:100F1000F50C0020FE1A00202E1B002000806640E9
:100F2000900B00202C1B0020181B0020141B0020FD
:100F3000101B0020281B0020F2180020241B00207A
:100F40009549588891F9A0619449096806FB010107
:100F5000598099F8B63053B1914BD97809B91B79BA
:100F60002BB1904BB4F8C800D9880144D9809606BB
:100F700040F18C838A4AD77904971FB9137A002BE2
:100F800000F07F83127B864B002A00F07A83864A2A
:100F90001788019338B20FF095F984490FF0E6F9FC
:100FA000064611F0CBFF8046304611F053FF019BFF
:100FB00006461A7C002A40F0858099F815917C4FEE
:100FC0007C4DB9F1000F4CD0DFF814A2B7F9020044
:100FD000BAF80230C9F100041FFA83FB1BB2C01A31
:100FE0000BF038FCA04203DB4845A8BF484600E0B0
:100FF0002046BAF800308344B7F900009AB21BB219
:101000001FFA8BFBC01AAAF802B002920BF022FC66
:10101000A042029A03DB4845B4BF04464C46144440
:10102000A4B2AAF800400FFA8BF00FF04BF9074674
:1010300020B20FF047F93146044638460FF096F9D2
:101040004146814620460FF091F9014648460FF08F
:1010500083F859490FF03EFA0FF04EFB28803846CE
:101060001DE0B7F902000FF02DF98146B7F9000035
:101070000FF028F93146044648460FF077F941460B
:10108000074620460FF072F9014638460FF064F823
:1010900049490FF01FFA0FF02FFB288048464146C0
:1010A0000FF064F93146074620460FF05FF901461C
:1010B00038460FF053F840490FF00CFA0FF01CFBC4
:1010C0006880E3E23D4A3E48B2F800E03D4ADB7CFE
:1010D000D28899F8369106923B4AD2F808803B4A6A
:1010E0001FFA88FA16888268CAEB0606B6B2CAEBFF
:1010F000020A1FFA86FB1FFA8AFA33B10FFA8BF243
:101100004A45BCBF08EB090282600A220FFA8EF042
:101110005043029201930BF09DFB029A019B90FBBE
:10112000F2F000B290FBF2F26DB138B291B2821AD5
:10113000002AB8BF52420A2A06DD254A1288C82A68
:1011400088BF0F4600E097B2224DCAEB0601D5F8E2
:101150000821214E642092FBF0F0D6F800C0D5F8AB
:10116000102189B2C2EB0C0CBCF1C70FA5F80C0121
:10117000A5F80E11B24640F268823268174EC5F8E3
:101180001021B6F82C2169BBA5F81421002B3DD005
:10119000034B0022DA7439E09C250020281B002034
:1011A000F50C00201A1B0020FE1A002035FA8E3C98
:1011B000621B0020581B002000002041AA190020BB
:1011C000401B0020C00D0020341B00204C1B0020C1
:1011D0009C1C0020181800205C250020242B0020D7
:1011E0005E1B0020B6F830E109B20EFB112EB6F8F6
:1011F0002E21B6F82AC1964503DBE645B4BF7246F8
:101200006246A5F814210BB10029C1DAC01B049F66
:1012100080B29E499E4BE7B1CA7C7AB1B6F82421D0
:101220006FF009077A43A5F80E21B6F82A21A5F830
:1012300014210FFA8BF2182AD8BF00201A88312AFD
:1012400007D80FFA8BFBCB4503DD924A08EB090761
:101250009760897C8D4A49B11988092906D80021EF
:101260005170D1748B4A08F1050191601B88092BDC
:1012700008D800B20FF026F887490FF077F80FF082
:101280003BFA80B24FF0640800B208FB00F00BF0AC
:10129000E1FA90FBF8F01FFA80F80FFA88F3002BC0
:1012A000B8BF5B42DAF80000AA2BC8BF4FF0AF0806
:1012B000D5F81831DFF80492C01A0EF0FFFF774915
:1012C0000FF008F9DAF80030B5F80EA1C5F81831BA
:1012D0000AF103039BB2062B074606D8D9F8000093
:1012E00039460FF043F8C9F800000A2202FB0AF25F
:1012F00092B293B2A4F80E3118B2029201930EF09A
:10130000E1FFD4F8201182460FF030F839460FF093
:101310002DF8D9F800100EF021FF0FF0EDF960491B
:10132000B0F5FA7FA8BF4FF4FA708842B8BF0846FC
:101330000EF0C8FF5B49029A8346C9F8000008888E
:10134000019B121A92B20B8013B2002BB8BF5B4202
:10135000642BC8BF0022544B03F10A01988823F87C
:10136000020F8B42FAD1514900230A811846CA5A0A
:10137000023310440A2B80B201D080B2F7E700B2EA
:101380000EF0A0FFD5F824110EF0F0FF39460FF053
:10139000A1F80FF0B1F91FFA80F9D5F81C11A5F8E2
:1013A0002C9150460EF0E2FF0FF0A6F900B20EF0BD
:1013B00089FF59460EF0D2FE0FF09EF91FFA88F809
:1013C00008F103039BB2062B1FFA80FB08D8DFF855
:1013D000F0A03946DAF800000EF0C8FFCAF80000A5
:1013E0004FF00A0C0CFB08F81FFA88FC1FFA8CF26D
:1013F00010B20292CDF80CC00EF064FFDFF8C0A06E
:10140000D5F8341180460EF0B1FF39460EF0AEFF2C
:10141000DAF800100EF0A2FE0FF06EF9204BB0F5D6
:10142000FA7FA8BF4FF4FA709842B8BF18460EF082
:1014300049FF0346CAF800001D48DDF80CC00188CA
:10144000029AC1EB0C0189B202800AB2002AB8BF2D
:101450005242642AC8BF0021164A02F10A00B2F8BB
:1014600004E022F802EF8242F9D1134A4FF0000A59
:101470001181504632F80A100AF1020A0844BAF102
:101480000A0F80B21ED080B2F4E700BFF50C002036
:101490009E1C0020401B0020CDCCCC3D00007A4497
:1014A0000CFEFFFFE81B0020EC1B0020EE1B0020C1
:1014B000EA1B0020F81B0020FA1B0020E41B002080
:1014C000E01B002000B201930EF0FCFED4F83811AE
:1014D0000EF04CFF39460EF0FDFF0FF00DF987B20C
:1014E000D4F83011A4F8407140460EF03FFF0FF0E1
:1014F00003F900B20EF0E6FE019B0FFA8BFB1946D2
:101500000EF02CFE0FF0F8F8B6F924316FF0090157
:101510004B439BFBFAFB0FFA8BFBB6F926119B455D
:1015200080B20AFB01FA03DBD345B4BF5B465346E6
:10153000B04C02B2B4F920116FF0090048434FF0EB
:101540000A0E994492FBFEF2AB4B1FFA89F98242D4
:10155000A3F8029004DB0EFB01F08242B8BF1046F4
:10156000BFB238441880B4F922016FF00901414339
:101570008A4204DB0A2141438A42B8BF11469F4A8E
:101580000F44507C9F80114658B194F828210FFADF
:1015900089F95242914503DBD145B4BF4A465246D0
:1015A0005A80C97C964A69B996F83261B2F900004E
:1015B0006421B6FBF1F15E880028B8BF404201FB10
:1015C00010615980B2F902000EF07CFE4FF07C51A0
:1015D0000EF0CCFE0FF090F88A4BB0F5E17FA8BF7B
:1015E0004FF4E1701A88B5F81471A2F5E17320EA9E
:1015F000E0709BB2381A642B87B2834E0CD910B2BC
:10160000C0F5FA700EF05EFE80490EF0AFFE0FF0EE
:1016100073F8338818443080B6F90030B4F82E21BE
:10162000B3F5FA7FA8BF4FF4FA7323EAE37333806C
:101630003B441BB29342B4F82A1103DB8B42B4BF84
:101640001A460A46724BA3F814216C4A6A4BD178A9
:1016500009B9117921B1927A52B1684A927C3AB9AA
:10166000DDF818900022A5F814915A801A809A800B
:10167000684AB5F81411D180998893880B449380F7
:1016800004E05D4B00221A805A809A80604B06224B
:101690001A70059E01237370F3E35F4BDB68984774
:1016A0005E4B93F80080B8F1030F14D9594BB4F98D
:1016B0004611B3F904006FF063030028B8BF40423D
:1016C0001B1A994204DB00F164038B42A8BF0B464E
:1016D000A4F846310BE0B8F1010F08D8504B5A7905
:1016E0001946013AD2B2172A00F2D481A3E0414848
:1016F000B4F8447190F90E11B4F84291B4F946412E
:1017000049424C433D49434B0A7C90F81E01897A7B
:10171000DE88B3F804A0434D06940597CDF81090E9
:1017200007920890099100244445D7D230B20EF0B8
:10173000C9FD296883460EF019FE059B844618B240
:10174000CDF80CC00EF0BEFDA9680EF00FFEDDF85E
:101750000CC0014660460EF001FD049A844610B2AA
:10176000CDF80CC00EF0AEFD69680EF0FFFDDDF89F
:101770000CC0014660460EF0F1FC84460698CDF898
:101780000CC00EF09FFDE9680EF0F0FDDDF80CC016
:10179000014660460EF0E2FC0EF0AEFFDFF88890E6
:1017A000079B670029F81400002B41D0089A002AF3
:1017B0003CD0099B002B3BD00FFA8AF00EF082FD43
:1017C00084462046CDF80CC00EF078FD4FF07C51D9
:1017D0000EF0C2FCDDF80CC0014660460EF0C6FDFE
:1017E000014658460EF0B8FC0EF086FF29F80700B7
:1017F0001EE000BF242B0020581B0020F50C002009
:10180000801900209C1C0020EC1B0020CDCCCC3D7E
:10181000181800201A1B002084000020082B00202C
:101820009C250020C40B00200A2B002027F809600B
:101830000134103578E7012303FA02F2B94B134063
:101840006BBBD00640F12681B74BB84893F9BE2058
:10185000B0F90240B0F900005443322294FBF2F494
:10186000B3F8BC20A4B211B21129DCBFB04A32F8DF
:101870001120B04922440A8093F9C820B3F8C63039
:101880005043322290FBF2F01AB2112AD8BFA84B73
:1018900080B2D8BF33F8123003444B80FAE0A64B35
:1018A0009B7A43B1A54B1A88ADF858205A889B887B
:1018B000ADF85A200AE0A24BB3F84221ADF8582007
:1018C000B3F84421B3F84631ADF85A20ADF85C3096
:1018D0009C4B974A1B88ADF85E30B1F8983111895E
:1018E000C91AADF860105189C91AADF86210918912
:1018F000C91AADF86410D189C91AADF866101188FB
:10190000C91AADF868105188C91AADF86A109188E3
:10191000D288C91AD31AADF86E30ADF86C10002316
:10192000844900225A520233102BF9D1864B1546B6
:101930001B7805931346DDF814A0554500F08F8001
:10194000824E834C9119887920B1824F3844007DB2
:1019500000287ED0B05C744E0A2707FB0067B7F8FA
:10196000BAE0B7F8B86091F904B0C6EB0E06B6B2AB
:1019700006FB0BFB642791F801809BFBF7FB4FEA0A
:10198000560C91F803E0CCEB0B0B4FEA48070DF136
:1019900070091FFA8BFB91F805A04F44BEF1000FB0
:1019A00003D137F8187CE7521BE0E45E37F9187C66
:1019B000DFF89C91BC4209DAA644A64503DB7745D3
:1019C000B4BF3C46744629F803400AE009DDCEEB7B
:1019D000040EBE4503DBA645B4BF7746274629F86B
:1019E0000370DFF844E14FF00A0909FB00EEBEF88E
:1019F000C0E091F902104EFA08F818F0010FDFF874
:101A000050814C4C33F908800FFA8BFB01FB08F135
:101A10004FF0640891FBF8F10CBF4FF0010E4FF04E
:101A2000FF3E594534F810701FFA8EFE0CDB4FFA5A
:101A30008AFB06FB0BFB9BFBF8FBCCEB0B0B0FFABB
:101A40008BFB8B45A8BF8B460BFB0E7B24F810B09D
:101A500000E0E0520135EDB2023307326BE73E4B56
:101A6000314A03F1100492F9BE10B3F902500A3260
:101A70004D43642195FBF1F5B2F8B210ADB208B256
:101A80001128DCBF2A4931F81010294423F8021F1D
:101A9000A342E8D1314B9A689A4612F0200F224BAC
:101AA0003BD0B3F8BC00234C02B2112AD8BF204966
:101AB0002546D8BF31F81200B3F8C61020800AB20C
:101AC000112ADCBF1A4931F812101A4A0C466980F3
:101AD0002049097A09B393F8101193F9C86011F0FD
:101AE000020F93F9BE7011493AD0B1F90050B1F923
:101AF00002106E437F424F434FF0320E96FBFEF6CC
:101B00006FF03101B6B297FBF1F1314497FBFEF76C
:101B100008443E441080344454800F4A024902F184
:101B2000100532E089209800242B00208019002025
:101B3000C00D0020C0000020F50C00201A1B002062
:101B4000181800200A2B0020840C0020850C00208F
:101B500060190020DC1A0020BE0000209C25002017
:101B6000B1F90250B1F900106F434E43322597FB93
:101B7000F5F7384496FBF5F510802C44CCE722F8B5
:101B8000020FAA4201F10A010CD0B2F90240B1F9E8
:101B9000B800B1F8BA608442F1DB30B2A042A8BF0D
:101BA0002046ECE793F81031590705D49A499B4B2E
:101BB0000C881B7801220FE0994B9A4D9E7D0024E2
:101BC000043EA0190134C0B235F8021FE4B20AF095
:101BD0007CFF042CF5D1E9E79A4208D231F91200D2
:101BE00024B2A042A8BF0446A4B20132F4E78E4A50
:101BF000BAF84251107C291B89B204908B48069197
:101C0000DAF80810BAF846C1B0F90600BAF844E1AB
:101C100001F4804601F01001BAF898710590CDF8F2
:101C200020C08348BAF840C10E911FFA8EF10B9183
:101C30008049B0F9EAB00D960797BAF848819AF84A
:101C40000590B0F9EC70BAF89AA11FFA8CF05678AA
:101C50005B000A904989507C0F93CDF800B0CDF815
:101C600024A00C9600230F9EB3426ED022B2AA424B
:101C700008DD049A32B9684A069E33F802A0B244DD
:101C800023F802A00D9E644A002E36D0DDF814A081
:101C9000DDF81CB0DA4532F903A015DDC24503DBDF
:101CA000AA45A8BFAA4600E0C246B9F1010F22F832
:101CB00003A041D1009A09B2914203DBB942A8BF07
:101CC000394618E0009916E0F24504DB089EB2455B
:101CD000A8BFB24600E0F246B9F1010F22F803A016
:101CE0002AD109B2B94205DBDDF800A05145A8BFF1
:101CF000514600E0394689B21EE032F903B0E345AF
:101D000003DBAB45A8BFAB4600E0E34622F803B0D7
:101D100002EB030ADDF814B0099A93450BDA0E9E24
:101D200026B9DDF828B0AAF800B005E00B98AAF8AB
:101D30000000012000E000200C9A22B93E4A985A87
:101D4000354A9852012002338DE7354A394C364BDB
:101D50006181517D58741A4600297CD0374E7379C1
:101D6000013B172B6CD8DFE803F00C6B6B186E6B24
:101D70006B1E6B6B6B6B6B256B6B6B6B6B18256BDF
:101D80006B342B4B93F80F3113B10020618960E065
:101D900050780028F9D101465BE0002021890AF043
:101DA00094FE0120F2E70020E1880AF08EFE012077
:101DB00021894EE00020E1880AF087FE0120218978
:101DC0000AF083FE022061890AF07FFE0320A189C8
:101DD0003FE00020E1880AF078FE012021890AF026
:101DE00074FE022061890AF070FE0320A1890AF0C6
:101DF0006CFEB3680F4DDA072DD5042029880AF050
:101E000064FE052069880AF060FE0620A9880AF0B1
:101E10005CFE0720E9891CE00A2B0020082B00202B
:101E2000AC0B0020C60D0020F50C0020C00D0020DA
:101E3000242B0020C0000020861900209C250020B3
:101E4000B3689B0607D5002021880AF03EFE618812
:101E500001200AF03AFE0AF0EBF90C4B00221A704E
:101E60000FE00B4B1B6813F0020307D1A2F85630AA
:101E7000A2F85830A2F85A30FEF7D7BD0126FEF777
:101E8000F0BD00201DB0BDE8F08F00BF1818002085
:101E9000900B0020AFF300802DE9F14F0489C04B77
:101EA000D822A4F5887402FB04344A6804F154076C
:101EB0002265C4F8D4700B780646772B0D4600F0E7
:101EC0006E8200F285816A2B00F01A8500F2AA80EA
:101ED000452B01F004811FD8422B01F089800CD8DA
:101EE000402B01F0DB80412B41F01681002213468C
:101EF00007F0C2FA002301F0E6B8432B00F0FB879D
:101F0000442B41F009810022134607F0B5FAA54B96
:101F100001221A7001F014B9662B00F0928378D870
:101F2000642B00F05C83652B41F0F6809E4BD4342B
:101F3000B3F9001020460AF034F99C4B2046B3F95F
:101F400000100AF02EF99A4B20461B68C3F3C0011B
:101F5000C3F38002890041EA4201C3F34002114306
:101F6000C3F3401241EAC20103F0100319430AF01F
:101F700018F9904A92F804E0D3784FEA8E0E4EEAB0
:101F8000430E53784EEA030E93794EEAC30E53790B
:101F90004EEA431E537A4EEA831E874BD9794EEAA6
:101FA000C11E197A4EEA012E597A4EEA412ED17994
:101FB0004EEA812E117A4EEAC12E117D927A4EEAB6
:101FC000016E4EEA023E5A7B00214EEA423E9A7B67
:101FD0004EEA823E1A7C4EEA024E1A794EEA021E00
:101FE0005A7C4EEA424E9A7C4EEA824EDA7C4EEAA7
:101FF000C24E1A7D4EEA025E5A7D4EEA425E9A7DDC
:10200000DB7D4EEA825E4EEAC35E6C4B18780B466F
:10201000F8E2682B01F0878040F2BC854FF00008A1
:1020200000F061BC702B00F0FB8447D86D2B00F0F2
:10203000AA8416D86B2B00F08D846C2B41F06C8039
:10204000DFF88881D4342046B8F900100AF0A9F8E6
:102050002046B8F902100AF0A4F82046584B00F0C8
:102060009ABC6E2B00F0A0846F2B41F0558004F1D8
:10207000D408544C4046E17F0AF09CF8404694F85E
:1020800020100AF097F8404694F823100AF092F8CE
:10209000404694F825100AF08DF8404694F8261032
:1020A0000AF088F8404694F821100AF083F8404678
:1020B00094F822100AF07EF800F0ADBC732B00F00B
:1020C000798561D8712B00F06F81722B41F02480EB
:1020D000DFF8F480D4342046B8F998110AF061F89A
:1020E0002046B8F940110AF05CF8DFF8D890204695
:1020F000B8F942110AF055F82046B8F944110AF02F
:1021000050F82046B9F90A110AF04BF8204698F821
:10211000AB110AF04FF8204698F8AC110AF04AF8D3
:10212000204698F8AD110AF045F8204698F87C1141
:102130000AF040F8204698F8A1110AF03BF8204632
:1021400000210AF037F8B9F92A100A2391FBF3F1BC
:1021500020460AF026F8204698F87D110AF02AF861
:10216000204698F87F110AF025F8204698F87E114D
:102170000AF020F8204698F880110AF01BF8304643
:1021800029463A4616233DE1752B00F00B8100F2FB
:1021900023854FF0000A4FF0010800F092BC00BF09
:1021A000D01C0020E41E00206E2C0020500A0020CD
:1021B000900B0020F50C0020DC1A0020C12200202A
:1021C000FE1A0020242B00209C25002080190020CE
:1021D000CF2B00F0858100F29880C82B00F0E780BB
:1021E00061D8A02B00F0BB8555D8782B00F0678212
:1021F0007B2B40F09187AB4BD434DFF8B08293F85F
:10220000A011204609F0D6FF2046B8F9201109F0A8
:10221000C8FF2046B8F9221109F0C3FF2046B8F9DB
:10222000241109F0BEFF2046B8F9261109F0B9FFC4
:102230002046B8F92A1109F0B4FF2046B8F92C114C
:1022400009F0AFFF2046B8F92E1109F0AAFF204689
:10225000B8F9301109F0A5FF204698F8321109F0BD
:1022600091FF204698F8361109F0A4FF204600217E
:1022700009F088FF2046002109F084FF2046002154
:1022800009F080FF2046002109F07CFF30462946F6
:102290003A462623B6E0A42B00F07685A62B00F064
:1022A000DD8500F039BFCB2B77D009D8C92B00F0E2
:1022B000AE80CA2B40F030877B4B03F10A00CCE0A4
:1022C000CD2B00F00F8500F21885134613F8011B83
:1022D000101D2365754BD977517883F82010D11CD8
:1022E0002165D178206583F825101179501D20656E
:1022F00083F826105179901D206583F8211091797B
:102300000732226583F8221078E0D82B00F09D82F6
:1023100017D8D22B00F04A8107D8D02B00F0D884F0
:10232000D12B00F08D8400F0F7BED42B00F0EF81AC
:10233000C0F04E81D62B08BF002700F02D8100F0A1
:10234000EBBEF12B00F00B8216D8EF2B4CD0F02B0C
:1023500040F0E28604F1D408544C4046B4F92E1003
:1023600009F01FFF4046B4F92C1009F01AFF30465F
:1023700029463A46042345E0FA2B00F0C784FE2B99
:1023800000F0CF84F22B40F0C7860022134607F0FE
:1023900073F8444A02F170002AE2002771E04FF01E
:1023A0000008C2E3424A59E34FF0000865E3002702
:1023B00004F1500009F00DFF3E4BD8530237102FA7
:1023C000F6D1002213463046294607F055F83A4B1D
:1023D00000221A80394B1B68DA79002A40F0B08657
:1023E00001225A7000F0ACBE5034204609F0F1FED4
:1023F0002E4FF885204609F0ECFEB88500223046C5
:102400002946134601B0BDE8F04F07F035B8134632
:1024100013F8011B02322365294B2A4FD97212F897
:10242000011C294B44F8502F2046197009F0C8FEB2
:102430003860204609F0C4FE7860204609F0C9FEE5
:10244000224B1880204609F0C4FE214B1880214BF6
:102450001A7942F002021A71D0E7226D0133114657
:1024600011F8017B834221655F70517802F1020708
:102470002765D972917802F1030222655975ECD172
:10248000BCE7154B1B789F42B8D2144B04F15000A7
:1024900017F8038009F09DFE044B013703EB880316
:1024A000D864EEE79C250020232B0020242B00205D
:1024B000EF7E0108C00D0020F81A00200C0D00204E
:1024C000F50C0020501B0020752400204C1B002020
:1024D0009C1C002080190020C1220020A82200207E
:1024E00004F15008404609F074FE6FF4AF63B54F35
:1024F000C318C62B98BFA7F89801404609F069FE9B
:10250000A7F84001404609F064FEA7F842014046A2
:1025100009F05FFEA7F84401404609F05AFEDFF8D3
:10252000C892236DA9F80A011A4612F8011B404609
:10253000226587F8AB115A78991C216587F8AC2180
:102540009A78D91C216587F8AD21DA78191D2165A3
:1025500087F87C211A790633236587F8A12109F0D1
:1025600038FE0A235843236DA9F82A001A4612F8A8
:10257000011B226587F87D115A78991C216587F81F
:102580007F219A78D91C216587F87E21DA78043377
:10259000236587F8802131E704F1500009F019FE26
:1025A000894BD8530237102FF6D127E7874B5B783A
:1025B000002B7FF423AF12F8011B00202265814A13
:1025C000022994BF82F8681582F868350146A4E3B1
:1025D00004F1500009F0FDFD7D4B18800EE7D43466
:1025E0002046E72109F0E6FD764B2046597909F0AF
:1025F000E1FD2046042109F0DDFD2046754909F082
:10260000C1FD08E283420ED2734A13F802C00122D0
:1026100002FA0CFC1CEA0E0F18BF9A4003F10103EA
:1026200018BF1143EEE7204609F0ACFD654B20468C
:1026300093F8681509F0BEFD304629463A460B234B
:10264000E0E6664B4FF000081B88D434B3F5806F8A
:10265000DFF898910FD939F908100823204691FB2B
:10266000F3F108F1020809F09CFDB8F1060FF2D170
:102670004FF000080AE039F90810204608F1020876
:1026800009F08FFDB8F1060FF5D1F1E7544B204664
:1026900033F9081008F1020809F083FDB8F1060FBC
:1026A000F4D14FF000084F4B204633F9081008F1E1
:1026B000020809F076FDB8F1060FF4D1BAE2DFF8AE
:1026C000288108F1500A04F1D409B8F9B810484635
:1026D00009F067FDB8F9BA10484609F062FDB8F98B
:1026E000BC10484609F05DFD98F8BE10484609F058
:1026F00061FD08F10A08B8F9B610484609F051FD25
:10270000D045E0D1304629463A4648237AE60022B1
:10271000134606F0B1FE344D05F1500704F15006A2
:10272000304609F056FDA5F8B800304609F051FDD5
:10273000A5F8BA00304609F04CFD236DA5F8BC00A1
:1027400013F8012B304685F8BE20236509F041FDC2
:102750000A35A5F8B600BD42E0D100F0F1BCDFF8C3
:10276000648008F1700A04F1D40998F8D010484642
:1027700009F020FD98F8D110484609F01BFD98F8A3
:10278000D210484609F016FD98F8D310484609F0D3
:1027900011FD98F8D410484609F00CFD98F8D510B2
:1027A000484609F007FD08F1070898F8CF10484699
:1027B00009F000FDD045D6D1304629463A4670236F
:1027C00020E600BF9C25002086190020F50C002083
:1027D0002C1B00200C0000C0A82200207800002044
:1027E0009E190020A4190020242B00205E1C00202C
:1027F000236D0732194611F8015B216582F8C95033
:1028000059789D1C256582F8CA109978DD1C2565CC
:1028100082F8CB10D9781D1D256582F8CC10197966
:102820005D1D256582F8CD1059799D1D82F8CE1069
:1028300025659979073382F8CF1082422365D7D175
:1028400001B0BDE8F04F09F0CDBC0022134606F000
:1028500013FE236D254613F8012BB84E45F8503F63
:10286000B74B284683F8A02109F0B3FCA6F8200155
:10287000284609F0AEFCA6F82201284609F0A9FC7A
:10288000A6F82401284609F0A4FCA6F8260128464B
:1028900009F09FFCA6F82A01284609F09AFCA6F840
:1028A0002C01284609F095FCA6F82E01284609F0CF
:1028B00090FCA6F83001284609F082FC236D2846DA
:1028C00013F8012B236586F8362109F079FC284698
:1028D00009F076FC284609F073FC284601B0BDE8F3
:1028E000F04F09F06DBC974B04F1D40033F9081098
:1028F00008F1020809F055FCB8F1100FF3D1DCE340
:10290000914BD4342046D97A09F054FC8F4BDFF830
:102910007C821978204609F04DFC2046D8F800103A
:1029200009F030FC2046D8F8041009F02BFC884B45
:102930002046B3F9001009F034FC864B2046B3F969
:10294000001009F02EFC844B2046B3F92A1009F040
:1029500028FCCAE2814BD434B3F90010204609F0B8
:1029600020FC7F4B2046B3F9001009F01AFC7A4B8B
:102970002046197901F0010109F01CFC3046294676
:102980003A4605233EE5774BD4342046196809F0D2
:10299000F9FB754B2046B3F9001009F002FC3046F4
:1029A00029463A4606232DE5704BD434B3F900107E
:1029B000204681F30801C9B209F0FCFB6C4B4FF6CD
:1029C000FF78196820464145A8BF414621EAE171D8
:1029D00009B209F0E6FB674B4FF00A091979204666
:1029E00009FB01F109F0DDFB554B93F87C21624BAB
:1029F00032B11B68002BB8BF5B4209FB03F103E057
:102A000019680029B8BF49424145A8BF4146204640
:102A100009B209F0C6FB304629463A460723F1E4DD
:102A2000DFF86C8108F10A0A08F1010804F1D40901
:102A3000484698F8011009F0BDFB484698F80B107D
:102A400009F0B8FB484698F8151009F0B3FBD045DB
:102A5000EAD1304629463A461E23D3E412F8013F14
:102A600033B1D4F8D410481CC4F8D4000B70F5E787
:102A7000304629463A462F23C4E4404B1B789845FC
:102A80000ED23F4B04F1D40018F803202B4B08F171
:102A9000010803EB8203B3F94C1009F082FBECE769
:102AA000304629463A465B00ACE4824409F101090C
:102AB000324B1B78994507DBB8F1000F20D04FF05F
:102AC00000084FF00009F3E72D4B2E4A19F80330A8
:102AD0000C2101FB0323D3F834B0584614F07AF9E3
:102AE000B8F1000FE1D142468242DFDAD4F8D430A7
:102AF000591CC4F8D4101BF8021001321970F3E706
:102B0000304629463A461FFA8AF37BE40C33B3F584
:102B1000967F08D01C4A1A44127A8A42F6D104F1F0
:102B2000D40009F047FB08F10108144B1B789845C5
:102B30003CD2134B18F803100023EBE7242B0020A2
:102B40009C250020C00D0020F50C002075240020DD
:102B50004C1B00209C1C0020801900209E1C002083
:102B6000A01C0020141B0020641C00203C1C002022
:102B7000501C002070250020441C0020C122002091
:102B8000A8220020F07E0108207F0108501B0020B1
:102B9000232B00200023D4F8D420511CC4F8D410D7
:102BA000B849595C0133102B1170F4D130462946D5
:102BB0003A4627E44FF001085FFA88F104F1D400A7
:102BC00008F1010809F0F6FAB8F1090FF4D130461E
:102BD00029463A46082315E412F8011B226509B973
:102BE000A94B02E0102905D1A84BD3F80090D3F8E7
:102BF000048002E04FF00008C146D434204609F0BA
:102C0000D9FA2046494609F0BDFA2046414609F066
:102C1000B9FA9F4B2046196809F0B4FA2046002102
:102C200009F0BFFA2046002109F0BBFA2046002136
:102C300009F0C0FA304629463A461223FFF7E2BBB4
:102C400012F8019B274647F8502F384609F0B8FA8A
:102C50008346384609F0B4FA8246384609F0B0FA9D
:102C60008046384609F0B5FA384609F0B2FA236DC5
:102C700001332365B9F1000F12D1834B0122C3F850
:102C800004A0C3F800B0834B83F807901A73B8F11F
:102C9000000F3FF4B3AB7E4BC3F80080FFF7AEBB31
:102CA000B9F1100F7FF4AAAB784BC3F800B0C3F8AA
:102CB00004A0B8F1000F02D0754BC3F80080734830
:102CC000754B0222011D1A7005F04EFDFFF796BBF1
:102CD000704B5B78002B7FF491AB012003F058FB25
:102CE000FFF78CBB6B4B5B78002B7FF487AB6B4B98
:102CF0004FF4C8721A80FFF781BB664B5A78002ADE
:102D00007FF47CAB01229A73FFF778BB614B5B7851
:102D1000002B40F00182002001210BF0F2FAFFF7B6
:102D20006DBB5F4B5F491A6809685F4B4FF0000845
:102D3000B2FBF3F2B1FBF3F34FF47A7101FB023310
:102D40005A4A53865A4B04F1D40033F9081008F15B
:102D5000020809F026FAB8F1080FF3D1ADE104F149
:102D6000D408544C4046216809F00CFA404661688A
:102D700009F008FA4046A16809F004FA30462946ED
:102D80003A460C23FFF73EBBDFF82091D43499F884
:102D900034B02046594609F00DFA4FF00008D845E6
:102DA0001ED2DFF81CA120461AF8081009F002FA1A
:102DB0000AF1200313F80810204609F0FBF90AF184
:102DC000400313F8081020460AF1600A09F0F2F9EE
:102DD0001AF80810204609F0EDF908F10108DEE7BD
:102DE0004FEA8B030133304629463A4606F044FB4E
:102DF000314B93F8AB31012B40F0A2812F4A0023D5
:102E000092F87840104689F83440A34202F101025A
:102E100013DA2B4992F8785092F888605D5401F1EA
:102E200020055E5592F8986001F140055E5592F8D4
:102E3000A85060315D540133E7E7D0F8BC30002280
:102E4000C9F8B830D0F8C0303021C9F8BC30012002
:102E5000134601B0BDE8F04F02F042BA194BD4342A
:102E60001B68DFF8488013F0200920462CD0002191
:102E700009F088F9D8F8BC10D8F8B8302046C91A3B
:102E800027E000BFC0000020341B0020401B0020B2
:102E9000101B0020F50C0020301B0020622C0020AD
:102EA0006C0900207009002040420F0080190020AA
:102EB000AC190020600900209C2500208010002013
:102EC000B5190020900B0020494609F05BF9204617
:102ED000494609F057F92046D8F8C01009F052F9D0
:102EE0002046D8F8C41009F04DF9304629463A4634
:102EF0001023FFF787BA0022134606F0BDFA236DB0
:102F0000264613F8012B904D46F8503F30460023DB
:102F10006A71AB6009F054F9AB688C4F1843236DAC
:102F2000A86013F8012B3046236585F8942109F039
:102F300050F9A5F85601304609F04BF9A5F85801AB
:102F4000304609F046F9A5F85A01304609F041F932
:102F5000A5F87801304609F03CF9A5F87A01304629
:102F600009F037F9236DA5F84E011A4612F8011B36
:102F70003046226587F823105A78991C216587F816
:102F800024209A78D91C216585F88121DA780433C8
:102F9000236587F8492009F01CF9AA890646904262
:102FA0001FD06B4B92B1B0B11B689A79023AD2B282
:102FB000052A07D8012101FA02F212F0230F01D0ED
:102FC00018810DE0634B09221A7009E018B11868E6
:102FD0000321324602E018680121642207F0A4FFB1
:102FE000AE81236D13F8012B236587F83020A7E00D
:102FF000DFF85481D434204698F8051009F0DAF847
:103000002046D8F8081009F0BDF8204698F8941129
:1030100009F0D0F82046B8F9561109F0C2F8204658
:10302000B8F9581109F0BDF82046B8F95A1109F05D
:10303000B8F82046B8F9781109F0B3F8DFF80C9128
:103040002046B8F97A1109F0ACF82046B8F94E11CB
:1030500009F0A7F8204699F8231009F0ABF82046AC
:1030600099F8241009F0A6F8204698F8811109F083
:10307000A1F8204699F8491009F09CF82046B8F9C3
:103080000C1009F08EF8204699F8301009F092F8EB
:10309000304629463A461923FFF7B4B94FF00008E5
:1030A000294B04F1D400434493F8821108F101083C
:1030B00009F080F8B8F1080FF2D1304629463A46B7
:1030C0004346FFF79FB9226D12F8011B22651E4A85
:1030D0001A440133082B82F88211F4D130E04FF00A
:1030E00000081D4B04F1D40913F80810484608F1F4
:1030F000010809F05FF8B8F10B0FF2D14846002142
:1031000009F040F84846002109F03CF830462946CD
:103110003A461323FFF776B93046294601B0BDE899
:10312000F04F0BF03DB90023D4F8D420511CC4F863
:10313000D4100A49595C0133102B1170F4D135E5D4
:1031400001B0BDE8F08F00BF9C250020242B00209B
:1031500004180020602C0020CC8F01080A2B0020CE
:103160002DE9F04FAE4E85B0B368AE4F13F00808AE
:1031700003D1AD4C4546A14631E0002439E0AB4BCC
:10318000E8B21B689847A0F2EE2240F2DC5392B2FC
:103190009A4288BFA24BD9F8902088BFB3F8980113
:1031A000A34B1340002B03DA013B63F0030301330D
:1031B0009D4A03EB850322F81300228863880135BA
:1031C0001344A2880834134434F8022C13441BB26D
:1031D000042293FBF2F327F8083008F1020896F86E
:1031E000AA319D42CBDBD9F890300133C9F8903039
:1031F0000BE096F8AA319C4207DA8C4BE0B21B68D0
:10320000984727F814000134F3E7B368864C13F4A9
:10321000804F04D094F894300BB906F00FF996F86B
:10322000A1217F4BE2B1033237F91200B3F8A2516A
:10323000B0F57A7003D4A842A8BF284600E0002069
:103240000DF040F8804628460DF038F8014640461B
:103250000DF040F977490DF089F80DF073FA14E09C
:1032600093F8A40190B1744AD179744A32F81120CC
:10327000B3F8A81192B2521A9002B3F8A631801A8C
:1032800090FBF3F000B280F30A0080B2B368A4F8B8
:10329000AE0013F4024F63D0634B694DB3F8B090A6
:1032A00095F80831052253430FFA89F898453ADD1D
:1032B000644B5A789B46002A35D0594BB3F8983165
:1032C0003B807B80BB80B5F80A31FB805E4B1A786F
:1032D0009A46032A05D95D4802F020F903238AF8AB
:1032E000003095F8082195F809311344052253431D
:1032F000984513DD9BF812B0BBF1000F0ED106F01C
:103300009DF8504B83F800B09AF80030042B05D993
:103310004F4802F003F94C4B04221A70B4F8B23053
:103320000133A4F8B23095F808310522534398458B
:1033300012DD444D95F80180B8F1000F0CD106F074
:103340007DF885F80080404D2B78042B04D9404847
:1033500002F0E4F804232B7009F10109A4F8B090FD
:103360000022B6F89A11B6F89C511346B85E9B0835
:103370008842C4BF63F07F03DBB20232A842B8BF09
:1033800043F04003082AF1D194F8B400264A984249
:1033900005D192F8B500F92804D8013000E00020EA
:1033A00082F8B50084F8B430B3681D4A13F480483D
:1033B000234DB7F906300AD0B2F89811B2F84C2173
:1033C000881A834206DD0A44934206DB02E08B4200
:1033D00003DB17E04FF0000814E00023C4F8C43109
:1033E000C4F8C831C4F8CC31C4F8C030C4F8C43013
:1033F000EB6C2BB10C4B93F89430002B40F07C839A
:103400004FF00108EB6C43B394F894302BBB0D4B99
:103410005B7813B396F89F31E3B106F00FF81CE028
:103420009C250020C00D0020481A0020E40D00203B
:103430000300008000C07F44800A0020880A00202A
:10344000242B0020F50C0020940000205880010857
:103450006B800108B8F1000FDFD194F8B5208C4BD8
:10346000142A40F0A6808B4A50789146C0B1EA6C8D
:103470002AB993F8B4305F2B01D105F0DFFF96F83D
:103480009E31002B00F09580EB6C002B40F091807A
:1034900094F8B4307D2B40F08C8005F0CFFF88E0AD
:1034A00093F8B420572A15D17B4B4FF47A721A80C7
:1034B000B368DB0501D509F0A5F9784B1B685807FF
:1034C00002D5774A0A21118013F0080334D1A4F8F9
:1034D000B63031E0B168490725D55A2A23D193F88F
:1034E000B8202AB1012283F8B80083F8B92023E07C
:1034F00093F8BA20DFF8C0A182F0010283F8BA2065
:103500009AF8003032B10A2B16D9664802F006F854
:103510000A2305E00B2B0FD9634801F0FFFF0B23B3
:103520008AF8003008E05D2A00F0EE825B2A00F0A5
:10353000ED825E2A00F0EC82EB6C33B994F8B42093
:103540006F2A02D10BF03CFF15E096F89E2122B1C4
:103550001BB994F8B4307E2BF4D094F8B430972B88
:1035600004D1524B4FF4C8721A8004E0A72B04BF59
:10357000012389F80E3094F8B430BB2B02D1EB8DC7
:10358000023303E0B72B03D1EB8D023BEB8509E05F
:10359000BE2B02D1AB8D023303E0BD2B09D1AB8D25
:1035A000023BAB85012001460AF0ABFE002384F804
:1035B000B530B068420731D594F8BA20344B8AB19F
:1035C000344A527872B13A4AB7F90610B2F89A21E1
:1035D000914207DD93F8942022B93221A3F8BC1060
:1035E00083F8BA2094F8A520294B62B193F8BE2045
:1035F0002AB993F8B82012B93222A3F8BC200123CB
:1036000084F8BE300AE093F8B8203AB1214A5278E3
:1036100022B983F8B820012283F8B920254B002174
:1036200093F8149001220B464B4547DA07EB43050C
:103630002D8940F2A46A0FFA85FCD44502F1010BF2
:10364000D4BF4FF0000A4FF0010A0AFA0BFA40F219
:10365000135BDC454FF0030B0BFB03FBA5F2155589
:10366000ADB2CCBF4FF0000C4FF0010CB5F5C77FE9
:103670000CFA0BFC8CBF0025012595404AEA0C0C86
:103680004CEA050C41EA0C0101330332CCE700BFE0
:10369000481A0020F50C0020FE170020900B002097
:1036A000001800206E80010873800108622C002041
:1036B0009C250020AC0B00209400002000239D4D91
:1036C0009D4A05EB8309D9F84C9002F1940C11EA5C
:1036D000090F0CBF4FF000094FF0010903F80C90DF
:1036E0000133192BA946EAD192F8AC30934D2B75D2
:1036F00023B1012382F89F3082F8963094F89530F8
:103700008F4A53B98C4B4FF0050CB3F9B01099F8B0
:1037100008310CFB03F399421DDD11688B071AD5A4
:10372000EB7843B9C4F8C030C4F8C430834B4FF0D1
:10373000010C83F803C0000410D599F808314FF04C
:10374000050C0CFB03F3B4F9B000984206DD8906C2
:1037500004D5012301E00023EB70AB7494F896309C
:1037600075495BB10023EB702B7943B9C1F8C030C8
:10377000C1F8C430714B0121197100E02B7194F82C
:1037800094300BB901232B7095F803C06D4BBCF13D
:10379000000F02D16949097911B11021596101E085
:1037A0001021196111684B0725D594F89720624BB9
:1037B0009AB1A87990B9614A4FF0010A82F806A03F
:1037C000D3F8CC20C3F8DC00C3F8C820B3F8D82065
:1037D000C3F8E000A3F8D02000E0AA71B368980411
:1037E00009D594F898302BB1EB7B23B9534B0122C8
:1037F000DA7300E0EB7311F00A0F20D094F89930DF
:103800004D4A4BB16B7943B94C4B01205871B2F81A
:10381000B630A2F8E43000E06B7194F89A302BB126
:103820006B7A23B9454B01225A7200E06B7294F80F
:103830009B20414B1AB1B3F8B620A3F8E6208906C5
:1038400040F1F280EA7A3D4B002A00F0E8803E4ADF
:103850001278042A40F2E38094F9E82032B11A7910
:1038600022B9BCF1000F01D10122DA7094F89E2038
:10387000314BDFF8DCA01AB9AA7CDFF8C0B0CAB1BE
:10388000EB79DFF8B8B0002B40F0B7802F48012269
:10389000011D8BF808308AF801308BF8072001925F
:1038A00004F062FF022384F8E830B4F80431C4F86D
:1038B00000313BE08BF8072093F89F20002A49D085
:1038C000B3F9D210B9F81C210029B8BF494291427E
:1038D00040DAB3F9D4100029B8BF4942914239DA2D
:1038E0009BF80820002A40F08880D3F808114FF098
:1038F000010CC3F8F810D3F80C1103F1F800C3F869
:10390000FC1003F1FC018BF808C08AF80120039336
:10391000CDF808C0019204F027FF039BDDF808C032
:10392000B3F8041183F8E8C0C3F80011019A8BF8CA
:10393000132062E0242B0020481A0020F50C002000
:10394000900B0020000C014075240020341B002047
:10395000940000209AF8011000232B7200294CD10A
:10396000764B01225A708C46754B002203F5887005
:103970002CF8002003F58B702CF8002003F58D70D7
:103980002CF8002003F5907B002041F80B008B44BD
:10399000CBF80420CBF8080003F5A47B41F80B001A
:1039A0008B44CBF80420CBF808000CF1020C03F593
:1039B000B87B41F80B00BCF1040F8B44CBF804201A
:1039C000CBF8080001F11401CED1297C11B90023F4
:1039D000EB7412E0C3F89801C3F89C01A3F8A0218E
:1039E000A3F8A221A3F8A4215649002353520C3175
:1039F000535202320A2AF7D1E9E79AF800300C2B29
:103A000012D994F8BE317BB94F4801F087FD4B4B7A
:103A10000C221A704A4B012283F8BE2104E00023D5
:103A2000EB712B7284F8E83094F8A0302BB1AB7CAA
:103A30001BB9464B01229A7201E00023AB72297C2C
:103A4000424B31B3B26800209205587221D599F8E3
:103A500008214FF0060909FB02F2B4F9B0C0944501
:103A600017DD0122DA703A4A9872B2F8980182B2F0
:103A70003A807A80BA80374AB2F80A21FA80DA7A34
:103A80003AB9354F3F78052F03D89A74334B323803
:103A90001880B2682E4BD2064BD56A78002A48D0DF
:103AA000002946D1B8F1000F1FD02D49D4F8C0210C
:103AB00009684AB993F876314FF47A7202FB03121F
:103AC0001F4BC3F8C02106E08A4204D293F8763136
:103AD0000BB105F0B3FC194C2378092B29D92148E7
:103AE00001F01CFD0923237023E0D4F8C03103B397
:103AF000134BC3F8C0811CE0144B1B78002B3FF420
:103B00007FAC0BF05DFC7BE4012202E0022200E0CE
:103B100003225FFA82FA00200AF1FF33014686F899
:103B200068350AF0EEFB0220282152460AF0C8FB55
:103B300002E5002005B0BDE8F08F00BF9400002032
:103B4000481A0020EE1B00207A800108F50C0020A6
:103B50009C250020242B002075240020C00D00206F
:103B60005C2500206B8001082DE9F04F7A4C87B06E
:103B7000A3689B0740F19580784D794B06221F88FA
:103B80002B681F442B792F600133DBB2B3FBF2F6B5
:103B90002B7102FB163313F0FF0667D1DFF80C928E
:103BA000D5F808A099F80130DFF8048250464FF0AC
:103BB000785138F813B00CF0D9FB014650460CF0A0
:103BC000CBFA1FFA8BFB824658460CF07BFB65490B
:103BD0000CF0CCFB64490CF07DFC834694F87D012D
:103BE0000CF070FB014658460CF0C0FB01465046F5
:103BF0000CF0B4FA4FF07851A8600CF0B7FB0CF061
:103C0000A1FD94F88131A88183B399F80530B4F807
:103C1000781138F8132040F6E44392B25A4340F644
:103C2000FF73B2FBF3F2B4F87A312869D21A4FF479
:103C30007A735A43B2FBF1F2082190FBF1FECEEB0E
:103C4000000002442A6192FBF1F25743D5E90601D4
:103C500097FBF3F3C01841EBE3716A61C5E9060114
:103C6000424A00230CF08EFD2E602862404AAB8948
:103C700012889A4208D33F4D2B78012B11D93E4828
:103C800001F04CFC01230BE03C4A12889A4208D315
:103C9000384D2B78022B04D9394801F03FFC022320
:103CA0002B70384E737B5BB3324D2B78082B27D9A2
:103CB000A368DF051FD5344BDB7AE3B1334B1878AB
:103CC000042818D90023324905275A185F540F27B2
:103CD0005770122B03F10207FAB204D0B0EB520F67
:103CE0003B46F0D800E014220A4464235370F023CA
:103CF0009370274800E0274801F010FC08232B7040
:103D0000254B1A881AB1254B1B68980707D4244BFA
:103D10001B8823B9234B1B780BB105F0E5FE224B22
:103D20001A7832B10D4C94F82430002B00F0118336
:103D3000C1E2A268084B1105F4D51A4A1278002A8C
:103D4000F0D093F8BB21002A3AD193F8BC318BBB59
:103D50000D4B5B782FE000BF9C250020301C00201D
:103D60006E2C00203333534000F07F45407E050029
:103D7000920A00209400002095800108900A0020FB
:103D800098800108DC1A0020F50C00207524002022
:103D9000181C002089800108622C0020900B002054
:103DA000FE170020FC1700206C2C0020800A002049
:103DB000880A0020337D003318BF0123002BB1D0C7
:103DC00094F8BA31002B40F06981C34BD86803F0F6
:103DD000EDF9002840F06281C04AC14D1368A96A1C
:103DE000591A7C2940F25A81AB6295F82C3007466B
:103DF000013385F82C3007F12400B94EC0B201F030
:103E000039FB06F12E0333F917000CF05BFAB54BC2
:103E1000804618880CF056FA014640460CF05AFBD2
:103E2000B1490CF0A3FA0CF067FC013700B201F0C5
:103E30004DFB032FDFD1302001F01CFBB6F934001D
:103E400001F044FB01F024FB96F82C0010F003086D
:103E500028D1102001F00EFBB36B642793FBF7F021
:103E600000B201F033FB212001F004FBB36B93FBA4
:103E7000F7F007FB103787EAE770A0EBE77000B2B6
:103E800001F024FB142001F0F5FA984BB3F900007F
:103E900001F01CFB1C2001F0EDFA404601F016FB7E
:103EA00001F0F6FA95F82C308D4E5A0740F0D0808C
:103EB000022001F0DFFAB6F93C000A2790FBF7F088
:103EC00001F004FBA3689B075FD5B3894FF06E0830
:103ED00008FB03F8152398FBF3F81FFA88F83A203B
:103EE0004FF0640901F0C6FAB8FBF9FB0FFA8BF04A
:103EF00001F0ECFA3B2001F0BDFA09FB1B8080B217
:103F00000530DFF8F88190FBF7F000B201F0DEFA3F
:103F100098F80030B28940F6340192FBF3F24A433C
:103F20002A21B2FBF1F2F18F062091FBF3FB03FB98
:103F30001B1B4FEA0B1B1FFA8BFB4BEA022B1FFAD2
:103F40008BFBC2F303224BEA020B01F093FA0FFA48
:103F50008BF001F0BBFAF28F98F80030013292B288
:103F600092FBF3F103FB11232820F38701F082FA7F
:103F7000706990FBF7F000B201F0A8FA042001F09C
:103F800079FAB6F9200001F0A1FA594B1B6898069E
:103F90005CD5584FDFF868813B68574E002BB8BF9F
:103FA0005B4293FBF8F106FB01334FF03C0909FB40
:103FB00003FA1320039101F05DFA039964229AFB3E
:103FC000F8FB02FB01B000B2039201F07FFA1B2064
:103FD00001F050FA06FB0BA34FF47A7B93FBFBF046
:103FE00000B201F073FA232001F044FA3868002887
:103FF000ACBF4E20532001F069FA7B681220002BE1
:10400000B8BF5B4293FBF8FA06FB0A3309FB03F9DE
:1040100001F030FA039A99FBF8F802FB0A8006FBDC
:10402000089800B201F052FA1A2001F023FA98FB26
:10403000FBF000B201F04AFA222001F01BFA786886
:104040000028ACBF4520572001F040FA01F020FACB
:1040500095F82C30282B21D1214B002283F82C20DD
:104060001E4A4FF47A7317683C25B7FBF3F7172005
:1040700001F000FAB7FBF5F6B6FBF5F005FB1060B2
:10408000000200B201F022FA182001F0F3F905FB5A
:10409000167000B201F01AFA01F0FAF994F8BA3188
:1040A000012B7FF43FAE0C4CE06803F07FF8002852
:1040B0003FF438AEE468636B23B19B6820469847B1
:1040C000054635E0A368201DE3B10DF117019847BF
:1040D000003018BF01202AE0AC0B00205C25002036
:1040E000301C00207800002000007A44FE1A0020D6
:1040F000900B0020501B0020806967FF16000020F5
:1041000080969800E2697AB101210DF1170001F063
:10411000E7F90546E06903F054F8638D834205D85A
:10412000236A01225A7001E0104600E02846C5B219
:10413000052003F009FB8A2D31D08E2DB3D1AD4C73
:1041400000212E2204F1720012F0C0FC7C2384F8BE
:104150007230E02384F875307D2384F89E30A38983
:1041600084F87350DAB21B0A84F8913084F88730EF
:10417000142384F88A3084F88B304FF4FA73A4F84F
:104180008C304823A4F89430782384F8902084F865
:10419000862084F8963004F172002E2188E0964B38
:1041A0001B6899067FF57FAF924C002104F1400017
:1041B0002C2212F08BFC7C2384F84030A02384F85E
:1041C00043307D2384F86B308C4B84F841501B784E
:1041D00084F85A308A4BDB7A002B64D089498A48AC
:1041E0000A688A4E92FBF0FC5FFA8CFC06FB0C27F7
:1041F00006256F43662384F86930D30F84F849306D
:1042000042F21073B7FBF3FE03FB1E77496884F894
:104210004C7091FBF0F03F0AC0B284F84D70CF0FA4
:1042200006FB00116943B1FBF3F503FB151384F89A
:1042300051301B0A84F85230B4F86C3064225FFAB3
:104240008EFEE9B202FB0CEE02FB0011B3FBF2F2B0
:1042500024235A43B4F86E301FFA8EFE84F853308C
:104260001B0A84F854306A4B89B21B8892B284F8D6
:1042700055301B0A84F85630B4F8703084F84AE0A0
:1042800084F84F104FEA1E2E090A84F84720120ABC
:1042900084F84BE084F84E7084F8501084F848207D
:1042A00084F85C3002E0202384F8693059482C21DE
:1042B00004F064FCF7E6D4F8B020002384F824303E
:1042C00013629362D362C4F8B030534B1F68534BF0
:1042D0001D78002D3DD104F514780126294664226D
:1042E00040461E7012F0F2FB84F8506231464C4A90
:1042F00043460095022006F0C9FDC4F878028020EC
:1043000001F07CF8C4F8740218B33B1DC4F8703295
:10431000444BC7F82480FB62434B30463B6320216B
:1043200012F0D2F8C4F8800218B9404B03221A7078
:104330000FE0202384F87F323D4B3E48C4F8A8327A
:104340003033C4F8AC323C4B2946C4F8B03201F0EB
:10435000F5F894F8B43223B10AF066FE374A384BC8
:10436000DA60384BDB680BB137489847374A224D43
:10437000138813B12B689A0702D4354B1B8813B1ED
:1043800007F0B2FE0AE01E4B9A7812B1314A0821BA
:1043900011615B7813B12F4B08225A6194F8B53242
:1043A00023B1144A013B82F8B5320BE0144B5A7B1F
:1043B0001AB99A7007F098FE01E001229A70092359
:1043C00084F8B5322B689B0610D594F8B63223B129
:1043D000084A013B82F8B63208E0084B1B78042BF0
:1043E00001D907F079FE022384F8B632002007B025
:1043F000BDE8F08F301C0020900B002075240020B9
:10440000F50C0020501B0020A08601006079FEFF03
:104410004C1B0020701C0020AC0B00206C2C0020DA
:104420009951000811B10008A1780008602C002003
:10443000A0800108AC900108A79001080400FA05CB
:1044400000ED00E0300B00206C1C0020622C0020EE
:10445000FE170020000C0140038A064A3C21A3F508
:10446000807301FB03239B6B0120DA6842F080021A
:10447000DA607047A4240020024B9A6842F00202DE
:104480009A6070479C25002037B5062305460C46E8
:1044900080683B216A4605F08FFD40B39DF80130EE
:1044A0009DF800009DF8022003EB00209DF80330EA
:1044B0009DF8041003EB02229DF8053080B203EB57
:1044C000012392B29BB220806280A380697869B197
:1044D00000B290FBF1F12180697812B292FBF1F207
:1044E00062806A781BB293FBF2F3A380012003B0D1
:1044F00030BD37B5062305460C46806843216A4621
:1045000005F05AFD40B39DF801309DF800009DF87C
:10451000022003EB00209DF803309DF8041003EB0C
:1045200002229DF8053080B203EB012392B29BB2C8
:1045300020806280A380297869B100B290FBF1F1FC
:104540002180297812B292FBF1F262802A781BB2A4
:1045500093FBF2F3A380012003B030BD37B50623EF
:1045600005460C4680683B216A4605F025FD40B3B0
:104570009DF801309DF800009DF8022003EB00201B
:104580009DF803309DF8041003EB02229DF80530DE
:1045900080B203EB012392B29BB220806280A380A1
:1045A000697869B100B290FBF1F12180697812B2AB
:1045B00092FBF1F262806A781BB293FBF2F3A38064
:1045C000012003B030BD37B5062305460C464068D0
:1045D0001D216A4605F0F0FC28B39DF801309DF8D6
:1045E00000009DF8022043EA00209DF803309DF86A
:1045F000041043EA02229DF80530208043EA01239B
:104600006280A380297869B100B290FBF1F121802A
:10461000297812B292FBF1F262802A781BB293FBE6
:10462000F2F3A380012003B030BD1FB50123ADF824
:104630000830ADF80410002301A9ADF80A30ADF838
:104640000C30ADF8062005F08BFE05B05DF804FBDC
:104650004FF41A7358432A4B10B5C418C35CDB07D8
:104660004DD594F858321BB3236D1868828DC2F370
:104670004E02828494F85C2222B1B4F864220132A2
:10468000A4F8642294F86222197B002A14BF022243
:104690000022FFF7CAFF012384F85B32002384F86D
:1046A000593284F85A3284F85832A4F8603210BD76
:1046B00094F85B322046012B04BF94F8593284F8F9
:1046C0005A3208F019F894F85B12236D94F86222BC
:1046D00049B9012184F85B121868197B002A14BFBC
:1046E0000222002208E0002184F85B121868197B7E
:1046F000002A0CBF02220022BDE8104095E710BD41
:104700002413002070B54FF41A764643424D7419B5
:1047100094F85C22CAB9E36CA16C99422AD0591C66
:10472000234493F85801E36BC0B299424FEA400327
:1047300043F40073A4F85E324FF00A03E16484F896
:104740005D3228BFE264012312E094F95D327BB14F
:10475000B4F85E1220464B08A4F85E3201F0010165
:1047600007F0DFFF94F85D32013B84F85D3201E031
:1047700084F85C3294F85832002B4BD194F85932BB
:104780000133DBB2092B84F8593204D12046BDE84D
:10479000704007F0B1BF0A2B3CD194F85B222AB9D4
:1047A000B4F8603243F00103A4F86032735DDD07B2
:1047B0001AD5B4F8603203F4007189B209B9D80788
:1047C00005D4B4F866320133A4F866320CE0C3F3C2
:1047D0004705636CE01880F85450A06B01388342A1
:1047E00036BF013361646364012100238A4284F887
:1047F000593284F858120DD184F85B3294F8622251
:10480000236D002A0CBF022200221868197BBDE824
:1048100070400AE770BD00BF2413002003460A461B
:104820006820194602F042BA37B52023ADF80430AB
:1048300004230DEB0301022405461C488DF80630C5
:104840008DF8074007F065FC2A2100221C2002F0A9
:104850002DFA0E2122461C2002F028FA0F210322F5
:104860001C2002F023FA2B2112221C2002F01EFA37
:104870002C2122461C2002F019FA2D2101221C2095
:1048800002F014FA2E2100221C2002F00FFA052259
:104890001C202A2102F00AFA054B4FF480721A807C
:1048A0000DB1044B1D70012003B030BD0008014064
:1048B000780000209600002010B50F210822044641
:1048C000182002F0F3F90E221820102102F0EEF960
:1048D000044B4FF480521A800CB1034B5C700120E2
:1048E00010BD00BF780000209600002010B50446DF
:1048F000642002F029FF68202321F02202F0D6F97B
:1049000010B9032009F08EFC052002F01DFF064BB4
:1049100068201A78202142F00F0202F0C7F90CB18A
:10492000024B9C70012010BDE81E00209600002064
:1049300038B540001F4CC0B26070A170012000214A
:10494000E1702071227460746069A360E360A174F7
:1049500070B383889D0519D40388D90510D447F214
:10496000305563691A88920504D5013D18D006F0C8
:1049700055FBF6E7A5B11A8892B242F480721A800C
:1049800063699A8892B242F440729A8047F2305535
:10499000637C23B1013D03D006F040FBF8E71DB96D
:1049A000BDE8384002F018B9024B987C80F0010055
:1049B00038BD00BFE81E00201FB504466B46A82185
:1049C00006226820FFF7B4FF9DF801309DF8002013
:1049D0009DF8021043EA022212B2042392FBF3F282
:1049E000ADF808209DF8032002A842EA012212B285
:1049F00092FBF3F29DF80410ADF80A209DF8052013
:104A000042EA012212B292FBF3F3ADF80C30044BF0
:104A100021469A7802F0A2FE012004B010BD00BF2A
:104A20009600002013B50446192002F08DFE0DF10A
:104A3000070368200F210122FFF77AFF9DF8073056
:104A4000D32B18D10D4B228A63600D4B4E2AA360E5
:104A50000C4B63610C4B06D05D2A06D0362A14BF7E
:104A60000022402202E0802200E0C0221A70074BA0
:104A70000120236000E0002002B010BDED480008D6
:104A8000B9490008DDE9A731E81E002003930108B9
:104A900010B504460B4668202146D2B2BDE810404E
:104AA00046E72DE9FF41554F4FF480533B80544C6E
:104AB000544B0025A361544B06460DF106017520A9
:104AC00001228DF806508DF80550E361FFF7E0FFF5
:104AD000804660B94D4B7520A3614D4B0DF1060129
:104AE0000122E361012506F0F5FE434612E0A369C9
:104AF00028460DF10501012298479DF8053003F085
:104B00007E03682B8DF8053003D1424B23620123CD
:104B100000E02B469DF8062002F07E02682A8DF800
:104B2000062033D10620A369024602A998479DF8C2
:104B30000B309DF80D2003F0010302F001025B0031
:104B400043EA82039DF8092002F0010213438DF825
:104B5000073033B1012B4AD0022B13D0052009F0C6
:104B600061FB274B0C209B690DF10701012298473F
:104B70009DF8073003F00F038DF80730002BEDD0C0
:104B8000042B34D0244B022523620AE0702A06D17C
:104B9000224B002D0CBF03250425236201E013B333
:104BA00001251F4B73611F4B1A681F46012A0DDD3B
:104BB0004FF40053ADF8083002238DF80B301A483B
:104BC000042302A98DF80A3007F0A3FA236A3046BD
:104BD0009847164B1A68164B9A4206D1032D04D1FA
:104BE00004233B6001E0184605E0012003E04FF498
:104BF000FF633B80C6E704B0BDE8F0817800002089
:104C0000E81E0020914A00081D480008D5B8000899
:104C1000A9CA0008395B0008815F00081D5D000813
:104C2000184492315C2C0020001001406C090020D7
:104C3000001BB7001FB504466B46012106221C204D
:104C4000FFF776FE9DF801309DF800209DF80210D8
:104C500043EA022242F38D02042392FBF3F2ADF801
:104C600008209DF8032002A842EA012242F38D02A7
:104C700092FBF3F29DF80410ADF80A209DF8052090
:104C800042EA012242F38D0292FBF3F3ADF80C30BD
:104C9000034B21461A7802F061FD012004B010BDDB
:104CA0009600002013B500238DF807300F4B044603
:104CB0001B68012B01DD002015E01C200D210122C5
:104CC0000DF10703FFF734FE0028F4D09DF80730FC
:104CD0002A2B01D01A2BEED1054B0120A361054BE5
:104CE000E361054B236202B010BD00BF5C2C0020C5
:104CF0000C93010829480008354C00081FB50446EC
:104D00006B46022106221820FFF712FE9DF80030A4
:104D10009DF801209B0803EB0223ADF808309DF8B5
:104D200002309DF803209B0803EB0223ADF80A3004
:104D30009DF804309DF805209B0803EB0223ADF895
:104D40000C30044B02A821465A7802F007FD0120DE
:104D500004B010BD9600002037B5002402AB054614
:104D600003F8014D182021460122FFF7E1FD60B153
:104D70009DF80730FB2B07D1054B0120AB61054B9C
:104D8000EB61054B2B6200E0204603B030BD00BF55
:104D900014930108B9480008FD4C00081FB50446EB
:104DA0006B46032106220C20FFF7C2FD9DF802305E
:104DB0009DF803209DF8011043EA02226FF00303DF
:104DC0005A43ADF808209DF8002002A842EA0122CB
:104DD0005A439DF80510ADF80A209DF8042042EAD8
:104DE00001225343ADF80C30064B2146DA7802F02D
:104DF000B5FC0A2101220C2001F058FF012004B06B
:104E000010BD00BF9600002037B5002402AB054658
:104E100003F8014D0C2021460122FFF789FD60B106
:104E20009DF80730482B07D1054B0120AB64054B9B
:104E3000EB64054B2B6500E0204603B030BD00BF9E
:104E40001B930108C16C00089D4D00082DE9F0433B
:104E5000354B85B093F8342080469946002A3BD0E4
:104E6000002425462646274608220DEB0203532040
:104E70003221FFF75DFD9DF809209DF808300134CF
:104E800003EB02231BB29DF80B201F449DF80A3050
:104E9000E4B203EB02231BB21E449DF80D209DF8E3
:104EA0000C30202C03EB02231BB21D449DF80F3065
:104EB00003F07F0301D0002BD6D197FBF4F796FBCC
:104EC000F4F695FBF4F5ADF80070ADF80260ADF8BE
:104ED000045089F835401DE0062202AB53203221F0
:104EE000FFF726FD9DF809209DF8083003EB02230B
:104EF000ADF800309DF80B209DF80A3003EB02233B
:104F0000ADF802309DF80D209DF80C3003EB022324
:104F1000ADF80430054B684641461A7902F01EFC94
:104F2000012005B0BDE8F083E81E002096000020B7
:104F300037B5124A0D4612680021012A04468DF841
:104F4000071001DD002016E0532001220DF10703B8
:104F5000FFF7EEFC0028F5D09DF80730E52BF1D1E6
:104F60002A78074B012083F83420064BA361064BB7
:104F7000E361064B236203B030BD00BF5C2C002010
:104F8000E81E002022930108DD6C00084D4E000849
:104F900008B5C9B29DF80820FFF7CAFC012008BD7A
:104FA00008B5C9B29DF8082001F024FE012008BD13
:104FB0002DE9F7431F46364B044643630323037032
:104FC0004FF48073836301250020E363D4F85431E8
:104FD00084F8585284F85C0284F8590284F86272AA
:104FE00060642064E064A064A4F86402A4F866022B
:104FF00058689B684FF00208ADF804300E46102345
:1050000001A991468DF806308DF8078007F081F8E8
:10501000236D01A958689B688DF80780ADF80430AE
:1050200048238DF8063007F074F82946204607F02B
:1050300078FB322002F088FB164BD4F854811B68B1
:105040001D46B5FBF9F1B1F5803F03D3012DF8D929
:105050006D08F6E7104A4046B3FBF2F289B2D2B2CD
:1050600001F04AF9404631460C4A02F095FE246DA3
:10507000002F0CBF022200222068217BFFF7D5FA07
:1050800020463146064A02F087FE03B0BDE8F083B1
:1050900034820108BC00002040420F000547000890
:1050A00051460008000000002DE9F74F9046994650
:1050B000364A374B0F465A6002F188325A6003264F
:1050C000334C3423E3604FF4302008F0D5FB042840
:1050D00015D123694FF4302043F00203236107F117
:1050E000006303F5F8336361236943F040032361F0
:1050F00008F0C2FB226941F6FD7313402361254C81
:1051000000253C444D4531D2042831D100234FF4D1
:10511000005058F805A0019308F0AEFB042822D1F6
:10512000DFF86CB04FF40050DBF8103043F00103AF
:10513000CBF810301FFA8AF324F8023C08F09CFBED
:10514000042809D10194019B4FEA1A4AA3F800A050
:105150004FF4005008F090FBDBF8102041F6FE738E
:105160001340CBF8103004350434CBE7042801D0C9
:10517000013EA5D1064B1A6942F080021A61031F55
:105180005842584103B0BDE8F08F00BF2301674586
:105190000020024002F001082DE9F0414A4C8AB09B
:1051A00094F82E20012A40F08480236B00251946B4
:1051B00013F8016B86B1202E04D1002203F8012CD4
:1051C0000122F4E7002AF2D0072D1ED804EB850255
:1051D000516301350022EAE7D5B1D4F83480A31930
:1051E0009F6D396859B140460AF0AAF928B97B6821
:1051F00028463649984702460BE00C37F1E704365B
:10520000082EECD14FF0FF3203E06FF0010200E016
:105210002A4694F82D302C4943B1086B0025C5541B
:1052200091F82D30013B81F82D30F2E7E11804337D
:105230000020202B4863F9D1551C0CD1606A244909
:1052400002F01BF818B905F0E9FE0028F6D100239A
:1052500084F82E302DE0901C0AD1606A1D4902F0BE
:105260000CF80028F3D105F0D9FE0028F5D1EEE7BF
:10527000D11C0AD1606A184901F0FFFF0028E6D16D
:1052800005F0CCFE0028F5D1E1E7002ADFD0684622
:10529000124902F03BFA606A694601F0EEFF00280D
:1052A000D5D105F0BBFE0028F5D1D0E705F0B6FE5C
:1052B00028B1606A216E01F0E0FF0028F6D00020DE
:1052C0000AB0BDE8F08100BF801E0020B41E00209F
:1052D0002A93010840930108619301088193010812
:1052E0002DE9FF412E4C1F4694F87862B5238DF8C6
:1052F0000830622315468DF809301EB1294B022271
:105300001A702DE05FFA82F8130A8DF80A008DF802
:105310000B100DF10A0039468DF80C808DF80D3018
:1053200005F0BAFCB4F870328DF80000000A8DF870
:10533000010008F1080804F5177001A90422A4F877
:1053400074328DF804808DF805608DF806608DF854
:10535000076001F0C1FF28B9B4F87432A4F87032C4
:1053600000201AE004F5177002A9062201F0B4FF2C
:105370000028F1D045B90C486946022201F0ACFF83
:105380000028E9D0012008E004F5177039462A46C4
:1053900001F0A2FF0028DFD0EDE704B0BDE8F08106
:1053A00080100020602C0020DC12002070B50D461B
:1053B000044600B121B90F4B01221A70002070BDC4
:1053C00000211C2211F082FB0120294611F07CF8FB
:1053D000206130B9074B032220461A7001F0DAFE33
:1053E000ECE7054A258113880120591C1180238090
:1053F00070BD00BF602C00200400002038B50546B9
:105400001C2011F0A1F8044618B9094B03221A70A8
:1054100038BD2946FFF7CAFF0546204635B901F0D9
:10542000B9FE204611F098F8284638BD38BD00BFB7
:10543000602C002013B5426B8DF807101AB1136869
:10544000C9B298470EE0C4682CB10DF107010122E2
:105450000430A04706E0806920B10DF10701012268
:1054600001F03AFF02B010BD014B1868E2E700BF3F
:10547000AC0B002038B5054C05465E21E068FFF70F
:10548000D9FFE0682946BDE83840D3E7AC0B0020DF
:10549000014B5E21D868CDE7AC0B002010B50A4C5B
:1054A0005E280146E06805D15D21FFF7C3FFE06893
:1054B0003E2105E05D2903D1FFF7BCFFE0683D21F7
:1054C000BDE81040B6E700BFAC0B002010B50446A5
:1054D000C0B2FFF7E3FFC4F30720BDE81040DDE7EB
:1054E000D38A70B51489A34224BFC4EB03039BB2D3
:1054F0000024A5B28D420FD21669F65C0133065521
:1055000016899BB29E4298BF0023968A01349E4220
:10551000EFD1681C80B270BD084670BD064B0021FB
:105520009A6832B118610120197559751873117094
:1055300070471046704700BF180A002070B5054636
:105540000E460C4C29B963691BB1201D294601F098
:1055500094FE23782BB1606A294601F08EFE18B1C3
:1055600070BD002EF7D170BD05F058FD0028F2D1B6
:1055700070BD00BF801E00200EB400B5A2B023ABEA
:1055800053F8042B01A86946009301F0B4FF01A869
:105590000021FFF7D3FF22B05DF804EB03B07047A2
:1055A000012873B50E4625D12D4B00209A682D4950
:1055B000FFF7E2FF2C4B00202C491A78FFF7DCFFA5
:1055C00000202B49FFF7D8FF00242A4BE10053F8B5
:1055D00034206AB10B44284900200968E14001F0F9
:1055E000010100915B682549FFF7C6FF0134ECE734
:1055F000104633E002282CDD8B681B78462B0BD03D
:1056000003D8302B08D0312B04E0662B04D0742B48
:1056100004D0542B20D101E0002500E00125002416
:10562000144BE10053F83420B2B10B447068596850
:1056300009F086FF58B9104B012202FA04F41968E8
:105640000DB1214301E021EA0401196006E00134B3
:10565000E6E76FF0020001E06FF0030002B070BDFA
:1056600078090020A2930108602C0020B293010861
:10567000BD930108AC810108702C0020C49301087F
:1056800013B5064B0024019320460094044922469A
:105690000123FFF771FF204602B010BDCC8F010837
:1056A000D293010810B50024064B224603EB840375
:1056B00000200549DB6C0134FFF75EFF192CF3D1A4
:1056C000002010BD242B0020EC930108012838B5E0
:1056D0000D4602D1BDE83840E4E7022814DD4868F1
:1056E0000DF07EFA1828044607DCA8680DF078FA59
:1056F000074B03EB8404E06404E000200549192211
:10570000FFF73AFF002038BD6FF0020038BD00BF40
:10571000242B0020F893010808B500200249FFF768
:105720002BFF002008BD00BF1E94010830B587B0D4
:1057300005460C4603A800210C2211F0C7F92846A3
:1057400000210AF0CFFF20B128462A490AF006FDC1
:1057500003E0284627490AF0FFFC27490AF006FE25
:105760000AF0CAFF054685EAE570A0EBE5706946D8
:105770000A2206F0ADFF00239D420370ACBF202338
:105780002D2368468DF80C3011F024FB012807D139
:1057900030238DF80D308DF80E308DF80F300CE081
:1057A000022805D130238DF80D308DF80E3004E03D
:1057B000032804BF30238DF80D30694603A811F08B
:1057C0000BFA03A811F006FB0338C5B22A4603A959
:1057D000204611F059FB002363552046074911F07C
:1057E000FBF903A92046294411F0F6F9204607B039
:1057F00030BD00BF6F12033A00007A44B59701082C
:1058000037B5037904460D46052B37D8DFE803F09A
:1058100003060A0D111483681A7830E0836893F93F
:1058200000202CE083681A8829E08368B3F90020FF
:1058300025E083681A6822E0836869461868FFF7E4
:1058400075FF154902460020FFF796FE15B3E06884
:105850000AF038FD6946FFF769FF1049024600204B
:10586000FFF78AFE20690AF02DFD6946FFF75EFF0B
:105870000A4902460020FFF77FFE0BE000220020CD
:105880000749FFF779FE2DB100200649E268236938
:10589000FFF772FE03B030BD4D9401084C9401082F
:1058A00054940108509401082DE9F04101F10808D1
:1058B00004460F4640461146164610F005FE0025E8
:1058C000B0B1E06027606660A5602561606101227B
:1058D000B2424FF0000306DA00EB080180E80A004C
:1058E00001320846F4E7036043600120BDE8F0811F
:1058F000E06810B110F030FEE560256065600020C2
:10590000BDE8F0812DE9F84F2D4A2E49134613F8D2
:1059100001BB0027D1F80080BBF12D0F0CBF9946C9
:1059200091463E464B4693F800A009F1010908EB69
:105930000A025278520714D50022234B38463146CA
:105940000AF0D4F80446AAF130000D460AF068F8CF
:1059500002460B462046294609F016FF07460E462A
:10596000E0E7BBF12D0F08BF06F10046BAF12E0F9C
:1059700021D1154D9946002419F8010F08EB0003B9
:105980005B785B0717D530380AF04AF822462B4679
:105990000AF0D6F902460B463846314609F0F4FEC5
:1059A000002207460E4620462946074B0AF09EF87D
:1059B00004460D46E0E738463146BDE8F88F00BFA3
:1059C0007B240020D00000200000244030B50D4989
:1059D00000200B4613F8012B2D2A18BF0B460A494D
:1059E000013B0D6813F8011F6C186478640704D537
:1059F00030390A2404FB0010F4E72D2A08BF404286
:105A000030BD00BF7B240020D0000020F8B52C4B17
:105A100019682C4B5C785A1C0B195B7803F0040353
:105A200003F0FF000BB11346F4E7274BD51A022D04
:105A300009DD10B10A256843C0B213F8015B303D9F
:105A40002844C0B2F2E700279A4209D917B10A25C3
:105A50006F43FFB213F8015B303D2F44FFB2F3E711
:105A60002E2C11D10132042300260A246643147817
:105A70000D196D786D0702D5303E01322644013B89
:105A800013F0FF03F1D100E0002609F0C9FF04463E
:105A900042F2107000FB07600D4609F0B1FF06A34B
:105AA000D3E900230AF04CF902460B46204629466A
:105AB00009F06AFEF8BD00BF00000000804F2241DF
:105AC000D00000207A2400207B24002070B5184BE1
:105AD0000A225C781978303C303902FB0141C170F0
